:020000040000fa
:080000000002040000000000f2
:020000040000fa
:10040000afbd20000e7f22000e018800000000001a
:1004100000012000200288000c000700a017240023
:100420000100200011000700000020000000e00093
:100430000200320000000200000000004a460200f4
:10044000000000000040da000000fe004440a90067
:10045000e00420000000e000030032000000200063
:10046000a00188004440a800000006009101880017
:10047000800078000000eb0015003700e2804000ab
:1004800032a0b4009101ba00e280400032a0b40072
:100490009102ba00e280400032a0b4000002eb00fa
:1004a000472bde00f507b200602ce10004003a00a3
:1004b0000059eb008301e900fdff3e000400370016
:1004c0006128e100010032000082eb000400070017
:1004d0001101ba000200e000e8ff3a000000060047
:1004e0003159ba008301e9000c0032002159ba00e9
:1004f0008301e900080032000400e00003003a0034
:10050000e280400032a0b400f5ff370011d9ba00f4
:100510008301e900faff3a008100e800e180400031
:1005200032a0b400000006003e4a040000000000b3
:10053000d2020400000000000c05040000000000ce
:1005400032070400000000003600f800809fbe0063
:10055000829fbe00849fbe00869fbe000000fa00fe
:1005600084a0a900242d2000040078008d1c070021
:1005700000027800e00f520003003a000002eb0096
:10058000f45988000602a8000080fa004f03be005c
:100590004f02be004f01be004f00be003600f90002
:1005a000004006000200fa00451080000400280008
:1005b00004826200e00f52000f003a0045108000f4
:1005c0000440200004826200e00f52000a003a005a
:1005d000451080000408200004826200e00f5200f1
:1005e00005003a00451080000404200004826200e7
:1005f000e00f520002003200cd1c0700a2003700bd
:10060000f45980000500200076002000070020003b
:10061000860f5200878f5a0098003e000460010048
:10062000070037000f0037001300370016003700af
:100630001d00370023003700380037003c0037002a
:10064000e4da2900144278008482fb00e40f2000e1
:10065000048262001410880014002000f4598800fd
:100660008800370034002000141088002400200087
:10067000f4598800830037000622a80034002000c7
:10068000f45988007f003700e4da2900144278002a
:100690000404a0000482fb00141088004400200021
:1006a000f45988007700370008c2a9000662a80044
:1006b0000002eb00145a880054002000f45988000e
:1006c00070003700165a8000041080000442780041
:1006d00045b5200085024300844a7800145a800002
:1006e0000402e800145a8800145a8000e50f5200f2
:1006f00005003e0006a2a9000682a80064002000b2
:10070000f45988005f00370006a2a8000682a800fe
:1007100074002000f45988005a00370008c2a9006c
:100720000662a80054002000f459880055003700e4
:100730007f1c070044b5200014427800144798003d
:1007400054b5200014427800044f78001e0278004f
:100750000402ea00cfa2de00d45a8800e55a8800dd
:1007600064b52000144278001447980074b5200046
:1007700014427800044f78001e0278000402ea0058
:10078000cfa2de00145b8800255b880084b52000c2
:10079000144278001447980094b520001442780061
:1007a000044f78001e027800cfa2de00f45a8800c1
:1007b000055b8800045a8000e00f52000d003a00eb
:1007c000d45a8000e55a8000445a8800555a88005f
:1007d000f45a8000055b8000645a8800755a8800ce
:1007e000145b8000255b8000845a8800955a88003d
:1007f00018003700465a8000575a8000d45a8000ab
:10080000e55a80000602420087824a00445a880066
:10081000555a8800665a8000775a8000f45a800042
:10082000055b80000602420087824a00645a880005
:10083000755a8800865a8000975a8000145b8000a1
:10084000255b80000602420087824a00845a8800a5
:10085000955a8800245a8000355a8000610242006f
:10086000e0824a00245a8800355a8800045a8000e1
:100870000402e800045a8800020037002c1c07001c
:1008800001003700000000000080fa0000000600b0
:100890003600f800809fbe00829fbe00849fbe008d
:1008a000869fbe000200fa008620a9004410800046
:1008b00070026200e00f5200270032009620a9006b
:1008c0000002eb00345d8800445d80000442780043
:1008d000614262000482fb00610262004422dd008a
:1008e000b6048000f5fe2f008502630004827200ca
:1008f000b4048800545d80000442780061426200c4
:100900000482fb00610262004522dd00a604800033
:10091000f5fd2f008502630004827200a4048800a4
:10092000645d800004427800614262000482fb0042
:100930006102620004024200a6048000d5ff2f007d
:100940008502630004827200a4048800745d800044
:10095000845d880009003700345d8000040f780052
:100960001e027800e00f5200030032001e027800e1
:100970000400010001003700000000000080fa00c0
:100980004f03be004f02be004f01be004f00be002d
:100990003600f900004006000000fa008600a900b9
:1009a0000080fa00004006003600f800809fbe007c
:1009b000829fbe00849fbe00869fbe000000fa009a
:1009c0008420a900541680004222de0061426200a9
:1009d0000482fb00845c8800c4502000040078007e
:1009e000701b070000027800e00f520003003a007d
:1009f0000002eb00645c88000602a8000080fa0098
:100a00004f03be004f02be004f01be004f00be00ac
:100a10003600f900004006000400fa00451080008e
:100a20000400280004826200e00f52000f003a0028
:100a3000451080000440200004826200e00f520054
:100a40000a003a0045108000040820000482620079
:100a5000e00f520005003a00451080000404200019
:100a600004826200e00f520002003200b01b070057
:100a7000e3003700645c80000500200026012000b0
:100a800007002000860f5200878f5a00d9003e00d1
:100a900004600100120037001a0037001e00370002
:100aa00021003700280037002e00370043003700b0
:100ab000470037004a003700520037005600370021
:100ac0005900370060003700660037006e003700bd
:100ad00071003700790037007d003700840037004f
:100ae00044dc2900144278008482fb00e40f2000db
:100af000048262001410880014002000645c8800e6
:100b0000be003700140020001410880024002000cc
:100b1000645c8800b90037000622a8003400200079
:100b2000645c8800b500370044dc2900144278007a
:100b30000404a0000482fb0014108800440020007c
:100b4000645c8800ad00370008c2a9000662a800f6
:100b50000002eb00f45c880054002000645c880014
:100b6000a6003700f65c8000041080000442780084
:100b7000a5bc200085024300844a7800f45c800014
:100b80000402e800f45c8800f45c8000e40f52008a
:100b900005003e0006a2a9000682a800640020000d
:100ba000645c88009500370006a2a8000682a800b1
:100bb00074002000645c88009000370008c2a9001f
:100bc0000662a80054002000645c88008b00370097
:100bd0000622a80084002000645c8800870037009b
:100be00044dc2900144278008482fb00e40f2000da
:100bf000048262001410880094002000645c880065
:100c00007e0037006402200014108800a400200039
:100c1000645c8800790037000622a800b400200038
:100c2000645c88007500370044dc290014427800b9
:100c30000404a0000482fb0014108800c4002000fb
:100c4000645c88006d00370008c2a9000662a80035
:100c50000002eb00f45c8800d4002000645c880093
:100c600066003700041080000442780004407800d9
:100c7000cfebb70006a2a8000682a800e40020007f
:100c8000645c88005d0037000622a800f4002000a4
:100c9000645c88005900370044dc29001442780065
:100ca0008482fb00e40f200004826200141088009c
:100cb00004012000645c88005000370064022000ba
:100cc0001410880014012000645c88004b00370079
:100cd000f4bc2000144278000414a0000482fb003d
:100ce0001410880024012000645c88004300370051
:100cf0000f1b0700845c8000e00f520038003200b8
:100d0000a4bc2000144278000402fb00cfa2de0045
:100d1000048fbe001e03be00483add00c832de006c
:100d2000850272004832dd00048fbe00b4bc200092
:100d3000144278000482fb00050020001e1f720090
:100d40001e9772001e03be00483add00c832de0066
:100d5000850272004832dd00048fbe00c4bc200052
:100d6000144278000482fb00050020001e1f720060
:100d70001e9772001e02be004c2bdd004422de00d6
:100d800004027300c4aade00048fbe00745c8000fd
:100d9000e00f520004003200755c80000420200047
:100da000848f5200040036001e02be00945c88004e
:100db000a55c880007003700945c8000a55c80007b
:100dc0003e034200ae834a000602be00945c8800e7
:100dd000a55c8800745c80000402e800745c8800f4
:100de000421607000002be00b45c8800c55c8800a3
:100df00002003700ce1a0700010037000000000093
:100e00000080fa00000006003600f800809fbe0057
:100e1000829fbe00849fbe00869fbe000000fa0035
:100e20008680a90024732000040078005d1a070062
:100e300000027800e00f520003003a000002eb00cd
:100e4000f45b88000602a8000080fa004f03be0091
:100e50004f02be004f01be004f00be003600f90039
:100e6000004006000200fa008620a900451080001c
:100e70000400280004826200e00f52000f003a00d4
:100e8000451080000440200004826200e00f520000
:100e90000a003a0045108000040820000482620025
:100ea000e00f520005003a004510800004042000c5
:100eb00004826200e00f5200020032009c1a070018
:100ec000fe003700f45b8000050020007600200063
:100ed00007002000860f5200878f5a00f4003e0062
:100ee00004600100070037000f00370013003700cf
:100ef000160037001d003700230037003800370088
:100f00003c003700a4d72900144278008482fb00fb
:100f1000e40f2000048262001410880014002000f6
:100f2000f45b8800e4003700b4032000141088004c
:100f300024002000f45b8800df0037000622a800b0
:100f400034002000f45b8800db003700a4d72900c0
:100f5000144278000404a0000482fb0014108800ee
:100f600044002000f45b8800d300370008c2a900c9
:100f70000662a8000002eb00145c88005400200008
:100f8000f45b8800cc003700165c80000410800001
:100f900004427800a5ac200085024300844a780012
:100fa000145c80000402e800145c8800145c80007b
:100fb000ed0f520005003e0006a2a9000682a8001f
:100fc00064002000f45b8800bb00370006a2a80084
:100fd0000682a80074002000f45b8800b600370089
:100fe00008c2a9000662a80054002000f45b880033
:100ff000b10037004e1a0700a4ac2000144278005c
:1010000014479800b4ac200014427800044f7800d4
:101010001e0278000402ea00cfa2de00e457880036
:10102000f5578800c4ac200014427800144798009b
:10103000d4ac200014427800044f78001e027800df
:101040000402ea00cfa2de00c4578800d55788000a
:10105000e4ac20001442780014479800f4ac20005f
:1010600014427800044f78001e0278000402ea005f
:10107000cfa2de00045888001558880004ad200077
:10108000144278001447980014ad200014427800f0
:10109000044f78001e027800cfa2de00a45788001b
:1010a000b557880024ad20001442780014479800fa
:1010b00034ad200014427800044f78001e027800fe
:1010c0000402ea00cfa2de00445888005558880088
:1010d00044ad2000144278001447980054ad20001d
:1010e00014427800044f78001e0278000402ea00df
:1010f000cfa2de00245888003558880064ad200057
:10110000144278001447980074ad2000144278000f
:10111000044f78001e0278000402ea00cfa2de002d
:101120006458880075588800245680003556800021
:1011300061024200e0824a00245688003556880049
:10114000045c8000e00f52001d003a00c45780008c
:10115000d5578000e4568800f5568800e457800093
:10116000f557800004578800155788000458800000
:10117000155880002457880035578800a4578000f0
:10118000b5578000c4568800d55688002458800082
:1011900035588000445788005557880044588000cf
:1011a000555880006457880075578800645880003f
:1011b000755880008457880095578800380037009c
:1011c000e6568000f7568000c4578000d55780004f
:1011d0000602420087824a00e4568800f5568800dd
:1011e0000657800017578000e4578000f5578000ad
:1011f0000602420087824a0004578800155788007b
:10120000265780003757800004588000155880000a
:101210000602420087824a0024578800355788001a
:10122000c6568000d7568000a4578000b55780006e
:101230000602420087824a00c4568800d5568800bc
:10124000465780005757800024588000355880004a
:101250000602420087824a0044578800555788009a
:1012600066578000775780004458800055588000aa
:101270000602420087824a0064578800755788003a
:10128000865780009757800064588000755880000a
:101290000602420087824a008457880095578800da
:1012a000045c80000402e800045c8800020037004f
:1012b0009f19070001003700000000000080fa00bd
:1012c00000000600849fbe00869fbe000000fa005a
:1012d0008460a900b45d8000c55d800061024200a9
:1012e000e0824a00b45d8800c55d8800b65d80007c
:1012f000c75d8000d45d8000e55d8000840f5300f1
:10130000858f5b00080036000082eb008082eb00d6
:10131000d45d8800e55d8800f45d8000e00f520038
:10132000010032008bc0a8000080fa004f03be000d
:101330004f02be00004006003600f800809fbe004d
:10134000829fbe00849fbe00869fbe000200fa00fe
:101350008bc0a900f45d8000040f78001e027800a5
:10136000e00f5200020032001e027800040001006b
:101370000080fa004f03be004f02be004f01be00c6
:101380004f00be003600f90000400600849fbe00fa
:101390000000fa00a45e8000e00f52001600320048
:1013a0000c003700b55e80000490200004824200eb
:1013b000144278000482fb0024118800b45e80008f
:1013c0000402e800b45e8800a45e80000402e90024
:1013d000a45e8800a45e8000e00f5200120032007c
:1013e000151180000420200004826200e00f5200ea
:1013f000ecff32000c00370074dc29001442780046
:101400000482fb00241188000000000074dc290025
:10141000144278000482fb00241188009580a90002
:1014200014002000945e88008580a9000080fa00e6
:101430004f02be00004006000040da000000fe003f
:101440000001be00260007000470a70003f0a10001
:1014500003f8a30013003a006509b1001000320040
:10146000090035006928e10002003500010028006c
:101470000000050000004000818048008502e9006e
:10148000fcff3a0000000600f88f4200050035001e
:101490008100d1000080d3008502e800fcff3a0003
:1014a000000006008000eb00000005004f89de0010
:1014b00082017800f60637006011b8000407370093
:1014c0000001eb00a8060700040032000200200023
:1014d00003f8230001f0a7009c01070000000600ac
:1014e000c70ade00f107b200f50fb20008003200b3
:1014f000e1cf4200020032000170a000240005008c
:10150000810f70000100320004080500440005004e
:10151000810f700002003a00140005008502e90006
:101520000000400081c04800fcff3b000170a000ab
:10153000240005000c00fa00889fbe008a9fbe00b0
:101540008c9fbe00370707000206be0084057800a6
:101550000200be00020020008306070005003a00da
:101560008b02b300120020007f06070001003a0042
:10157000f8856d000c01be00c60007000800be0023
:101580009b0032000b08a3009e003a000df0a7005c
:101590000be0a00009f0a7000bf0a00009f0a100eb
:1015a0000801be00bb0007000bf0a600950032004a
:1015b00001003c000bd0a0008acf7500b2003300c0
:1015c0006000b8006250e10099003900a1003e00bf
:1015d0000b28a300a2003a000bf8a300060032007b
:1015e0000b58a300a70032000801be00a9000700a5
:1015f0000800be00940032000800be004d0607003f
:101600000004be00050578000bf0a7000b30a60013
:101610000bf0a1005b079800324f200053f323002a
:101620007806070005003d000800be0012002000fb
:10163000040707000004be000a05e9004a079800f5
:101640006150b90099ff0700008fbe000c01be0079
:101650002c0207006d060700300798000100e0002b
:1016600002003d0060001000e0801800f2ff27003b
:10167000820f5000e08f580064003e000c00be0056
:101680006206070020079800f2072000820f500032
:10169000e08f580005003c0012f82f00f3ff2f00e8
:1016a000820f5000838f580009003d000a00e000bf
:1016b0000300320001003c000201ea00020578004c
:1016c0006000b800200798003a079800190037001a
:1016d0003e0090006100b90074ff0700809fbe00cb
:1016e0000c00be004109dd004811de007208b100a7
:1016f0001d0607000005be001e01be000102070016
:101700004f01be0011010700809fbe000c00be000b
:101710000a01be000d0107001e01be00f90107000d
:101720004f01be00120107008221270013f323009e
:10173000f40107000005be002e0090006100b90012
:101740005aff070001f0a2000c01be0008010700cb
:101750000006be000800be005b0007000c01be00d2
:10176000e80107000a01be0001010700809fbe00da
:101770004a0007002e0590000af0a7000a05ea00bb
:10178000050037000800be000801be00dd010700ab
:101790000004be000c00be000801be000a00a70045
:1017a000d80107000006be000a05d100f5ff3a0087
:1017b0005e01900002e0a600030037000001be00b9
:1017c00036000700080307000004be004f00be00fb
:1017d000180507000801be00ca0107003e0190007d
:1017e00098060700de0590000bf0a70001f0a200ac
:1017f0004f06be004f05be004f04be000080fa0039
:101800000000060025000700f9ff37002700070049
:101810006000b8000bd0a7000bc0a0000be0a70031
:101820000bc0a2000bc0a70001f82700f0ff370093
:101830000df8a300020032001e0007001900070087
:101840000bf8a300eaff32000b30a70001f0a20062
:10185000e7ff37000df8a300f9ff3a00f7ff370064
:101860000801be000b000700e6ff320001003c004b
:101870000df0a2006000b8000df0a70009000700fd
:10188000dbff37000b000700f1ff2700f0ff2f0000
:10189000d7ff370001000700da05370001f8230001
:1018a0000000050001f827000000050020022000cc
:1018b0000100370010022000c05e88000000060012
:1018c000f2ff2f00010037000001eb008500070048
:1018d0000718a3006e0032000728a30002003a0098
:1018e0000738a3006a003200889fbe008a9fbe00ae
:1018f0008c9fbe008e1f78003400f8000800200086
:10190000a801880002077800ca03070002047800d3
:101910000620200086844000ca4cde00f08454007b
:101920006848e100010035000804e8000001eb0010
:101930000900e00021003200a6c9290066c27c002f
:101940000482fb004622dd0004e0a0000123b80071
:101950000020b8008680400060814b000600220015
:101960000601510030020700010078008200780073
:1019700061811100060028000608e10004003a0019
:101980000000e00002003a0001002c000201e80023
:101990000100e00001003a000001eb000006be007b
:1019a00082057800670341000600e00008003d0062
:1019b0004300200064d129000700370005002400ff
:1019c0000400200003002000fa030700f3ff3700a3
:1019d0005300200024d12900d00107000c02be00d2
:1019e0008b017800680307006f83640006003200f3
:1019f000caca2900664bb800060545003a02be0077
:101a00009a017800eb0307000800e00013003200a1
:101a10000006be0082057800c4bf2000958b25001b
:101a20000440b8000543b8008680400060814b0048
:101a300008f8a3000200320084805000050159001c
:101a4000f901070001007800820078006f81110021
:101a50000c02be008b017800d80307000e00e000e6
:101a60000400320054c52e00d5f22600e3ff2f00fb
:101a7000450307001c0407003400f9004f077800f5
:101a80004f06be004f05be004f04be00000006001a
:101a90000778a30005003a000768a300050032009c
:101aa0000718a30003003200000006000160a00038
:101ab000090037000748a300050032000718a300fb
:101ac000030032000000200001f82f000000060093
:101ad000f0ff2f00f1ff270012022000c25e8800f5
:101ae000000006002700200001f0a70017002000da
:101af000470bde00f60fb200040032000643e80098
:101b00000a0032004702b30000000600010378001b
:101b1000f607b2000603700002003a000703b300a4
:101b2000000006008702b3000000060001037800f1
:101b3000f607b20006037000020032000770a00032
:101b4000000006000760a0000000060007f827005c
:101b5000078361000638e10004003a00f70720001f
:101b6000878361008703710001003a0003f0a2003f
:101b7000889fbe008a9fbe008c9fbe00470ade0081
:101b80000480a100c71ade000580a100070028001c
:101b90000785600087856100f70f20000720e100be
:101ba0009e0032000728e1009c0032000106780008
:101bb0000400e000b4003200f707200087806000d6
:101bc0000170a0000500e000c0003200f70720000f
:101bd000878161000370a000050652000f003a00e3
:101be0000b50e1000b0032000308e10002003a0054
:101bf0000200e1007e00320002045000838458009d
:101c0000040031000001fd008101fd008402fd009f
:101c10008a05fd006044b800210037000520e1007e
:101c200005003d000001fd008101fd008402fd0072
:101c30008a05fd00050652007a60e10005003500c6
:101c40000170a1004722dd00848070008a8070004e
:101c5000630037006044b800ef02660007ff2f0002
:101c6000070666000500e00006003400f08312005d
:101c70008714dd000511de00071bdd000601710081
:101c80008519de007060e100050035000904780068
:101c900082047800030178008001eb007006560092
:101ca0000b50e10003003a0002004000838048002e
:101cb0000400370060041400e0841c000200580097
:101cc000838058000188a300060032008100d10003
:101cd0000080d3008984d3000884d3000402e80084
:101ce000270037000178a30025003a000100e0003a
:101cf000030032008186cf00698656000a00370053
:101d00008c0020000000e00004003a000900780088
:101d1000880478000004eb00700252008086cf0037
:101d20000d0646000c06e9007060e1000600350073
:101d30008000780009007800880478000004eb0037
:101d400070065600700252000c00e0000c003400d7
:101d50008c08dd00f00316000703de0086807000ab
:101d60000c00dd00074bde00060070008c4cdd002f
:101d70000743de00868474000c44dd000c02520030
:101d80006120e100200035006101600007002800ab
:101d900087816400f7ff27008783640007037400ce
:101da0000300e000060032008203730004003200ea
:101db0000000e800e08048000188a3000e003a001f
:101dc000f70f20000720e1004a003d000170a1004c
:101dd0004722dd00810072008a8070000000be0092
:101de0004f06be004f05be004f04be0000000600b7
:101df0006000b800faff37008100d1000080d300f6
:101e00000402e800eeff3700040178008901740045
:101e1000bb0207008a807000f1ff370031ff070026
:101e2000070278000001fd008101fd002dff070081
:101e300087027800850372000778a300040032004f
:101e40000001fd008101fd0046020700e4ff3700ac
:101e5000850362000768a300080032000b50e10010
:101e600003003200f0ff2f00f1ff2700dcff3700f6
:101e70000001fd008101fd00d9ff37000468a300c7
:101e8000d7ff3200faff3700f8ff27008883600091
:101e90000b003a000000e00009003a0083036400f0
:101ea00082837300020032000200be00ccff3700c4
:101eb0000b50e100ceff3a000200be00c8ff370021
:101ec00014002000810064003eff3700f8ff270067
:101ed0008883610004003a000200e00002003a003a
:101ee0008c007800beff37001500200083016400dd
:101ef00039ff370001f8270000002000810075003d
:101f0000b7ff37000383680007002800070363005a
:101f1000470ade000480a100c71ade000580a10088
:101f2000f70f20000720e100420032000728e100ff
:101f300040003200889fbe008a9fbe008c1f780040
:101f4000f107b200f307b2000400e00064003200c1
:101f50000170a0000500e000680032000370a000de
:101f600085054200eb07b1000204b8000302b80087
:101f70008484440060854a00020ab80084844400d6
:101f80000a854a00030ab80004054500040033002e
:101f90000804d0008984d2000a85d2008b05e900ac
:101fa0006158e1003d003500021020000901610088
:101fb0000308200089816100f707200087836400ff
:101fc00008867300c84cde00c853dd0087847400a7
:101fd0004855de000300e000060032008203760070
:101fe000040032008904e80060054d000a88a3005f
:101ff0000c003a00f70f20000758e10044003d00b4
:102000000a70a100c75ddd000a8575008a007300b3
:10201000090078004f0678004f05be004f04be004f
:10202000000006000a05d1008984d3008b05e80072
:10203000f0ff3700881f780006047800a9fe07002b
:10204000070278000001fd008101fd00a5fe0700e8
:1020500087027800850372000778a300050032002c
:102060000001fd008101fd00be0107004f04780062
:1020700000000600850372000748a3000300320039
:10208000f0ff2f00f1ff2700f8ff370000002000cd
:1020900001f8270088807000f4ff3700880178007d
:1020a0004848dd00808171004848de00c850dd00ee
:1020b00001007000c850de00060478000b017800b3
:1020c0000f02070088807000d2ff37000500e00093
:1020d0000500320017002000940007009dff370024
:1020e00081037000f9ff3a00860078004f067800ff
:1020f0004f05be004f04be000000050083037100c1
:10210000f9ff3200270020008800070094ff370005
:1021100001f8270086807000f4ff37006218e100a4
:102120003b003500889fbe008a9fbe008c9fbe008a
:102130008301e9000004be000205be000406780029
:10214000620545000a05ea003c00be007050e1004f
:10215000170035000d0032007f50e100010034000f
:10216000fa012000f00655000801be0052000700e9
:102170000d99de00cf99de003c004100bc80490093
:102180008b05e900f8ff3c00140037000801be0091
:102190004900070003017800cf99de003c004100b0
:1021a000bc8049008b05e900f8ff3c000b003700bc
:1021b000f00615000801be003f0007000a11de000e
:1021c0008d1add00050171008a99de003c00410096
:1021d000bc8049008b05e900f6ff3c000103df00ed
:1021e0000605ea00050034008a08dd0070021500cb
:1021f0008402de00858070000a00dd0006017800a0
:102200004f06be004f05be004f04be000000060092
:102210000300e00002003a006000b8000200050080
:102220003400be00020005008001eb000202df0066
:102230000402ea006f20e10010003a000201d10020
:102240000181d3008080d3004f00dd00f300200027
:102250000202df000402ea006f20e10007003a00fa
:102260000201d1000181d3008080d3000000eb0087
:10227000e30120000202df000402ea000400e000a3
:1022800009003200f00212000411dd00050bde002f
:10229000060171008408dd000503de008680700001
:1022a0000400dd00848141000200e00001003200f2
:1022b0000000060003000500889fbe008a9fbe0044
:1022c0008c1f78000002be000203be000620b8008a
:1022d000062db8008a80400060814d000724b800b8
:1022e000072db8008a84440060864d0081004400b8
:1022f00002814c00e0014e000700e00008003500bc
:102300000500e00002003d000601510087815900f0
:102310004f0678004f05be004f04be0000000600c7
:102320000401510085815900f5ff3700889fbe00e8
:102330000004eb006138e10016003a000100e00003
:1023400008003a00c800de004800dd0088002000d8
:102350000100e00003003a00c800de004800dd0094
:10236000680444008184cf00e984540006003400ee
:102370008908dd00f08314008703de008780700089
:102380000900dd0009044400610214004f04be008e
:10239000000006000300e00008003a00c811de005b
:1023a0004811dd00880020000300e00003003a002f
:1023b000c811de004811dd00680444008384cf00aa
:1023c000e9845400060034008919dd00f08314000c
:1023d0008713de00878171000911dd0009044400c4
:1023e000e1021400e9ff3700889fbe008a9fbe000b
:1023f0008c9fbe001b0020000202be000586680004
:1024000006002800060666004709de00f20fb2004b
:10241000820032000243e80080003200c729de005b
:10242000f30fb2007d0032000343e8007b0032006e
:10243000f107b2000170a000f507b2000570a0001e
:10244000c708dd004903de00868070004700dd001c
:10245000c72add004923de00868272004722dd00a4
:102460000305510004035000858358000300310028
:1024700000004000818048000a05e9008c1f7800b8
:102480008a9fbe000400500085805800040242006c
:1024900085824a0000004000818048000005eb0072
:1024a0000004be006033b8000406be000d48e10021
:1024b00056003100110009004dccd8000c01b800c5
:1024c0000d02b8008481410060824a00828353007b
:1024d00003045c0084845c0060055d000a00e00089
:1024e00025003a00800578000d40e10049003100e8
:1024f0008800780007007800110009004d88d80096
:102500000c01b8000d02b8008481410060824a00cd
:102510006003110083835b0004045c00e0845c00c2
:102520000900e00021003a004f01be000300e00076
:102530002b003200e3016000070673008c817100fc
:1025400001003200640070004200de004e5edd00db
:102550000c007000c258de0001e0a000620107001c
:10256000cf017800818071004f06be004f05be008c
:102570004f04be00000006008c8343000d044c0095
:10258000e0844c0060054d000000e9000a00e00016
:10259000d4ff32008c8343000d044c00e0844c00d7
:1025a00060054d000000e900ceff37000c0343003a
:1025b0008d834b0060044c00e0844c000000e90077
:1025c0000900e000d8ff32000c0343008d834b006c
:1025d00060044c00e0844c000000e900d2ff3700aa
:1025e0004200de004e5edd000c007000c258de00ce
:1025f00001e0a000cf0178000300e000daff320024
:1026000060001000e0801800d7ff3700f0ff2f00b7
:10261000aaff3700f0ff2f00b9ff37000404be0007
:1026200030fd0700870678000004fd008104fd00ee
:102630002cfd0700078366000678a3000300320024
:102640000960a7000800be002c0037000d78a30029
:10265000020032000800be00280037000778a300ff
:1026600026003a0001f0a10009f0a1000668a300cd
:1026700003003200f1ff2700f0ff2f00baff370000
:102680000d68a300030032000800be008c807000bb
:10269000b5ff37000768a30007003a000648a3000b
:1026a00003003200f1ff2700f0ff2f00aeff3700dc
:1026b0000d48a300030032006000b8008c80700059
:1026c000a9ff37000748a3000400320001f82700e3
:1026d000000020008c807000a3ff37005500070029
:1026e0000004fd008104fd00020578005100070090
:1026f0000802be008a01780059ff37000160a0007f
:1027000012022000c25e880097ff37000100e0003f
:10271000120032000500e00010003200889fbe0069
:102720008a9fbe008c9fbe000006eb0001f8a3004c
:102730000300320060001000e08018000cf0a000e0
:1027400005f8a3000300320060021200e0821a00c4
:102750000cf0a2008005eb0041ff37006000b800dc
:10276000020005000478a300040032000578a300ed
:10277000030032000168a30001003a000200be001d
:102780000160a00000000600889fbe008a9fbe0076
:102790000004be000405be00030141000201e80080
:1027a0008000eb000a42b8000b43b800868242006a
:1027b00060804b000a4bb800868242000700480048
:1027c000e08048000b4bb8000600400087804800be
:1027d0000103700002003a000001eb001200370014
:1027e0000900e00002003d000a0050008b80580004
:1027f0000b00e00002003d000800500089805800f6
:102800008582420000004800818048008101df008d
:102810000300e0000400320085824200000048000e
:10282000818048000201e9004f05be004f04be0050
:10283000000006004f0ade004709de00f107b20083
:10284000f20fb2000b003200f207b1000170a000dd
:10285000c708dd00c901de00838070004700dd008d
:102860000400a6000000060060001000e0801800d0
:1028700000000600810f700001003a000000060011
:102880008182cf000500e00010003e008082cf0072
:10289000ee8242007028e1000400390007003e008b
:1028a000800078000000eb000e00370070831200fb
:1028b0008600de000500dd000a003700708352004c
:1028c0008600dd000000eb0006003700e2825200c7
:1028d0008508dd00708312000603de00868070002c
:1028e0000500dd007507b0000501ea000400a60040
:1028f0000000060060001000e080180000000600e4
:102900000100e00026003200610111007810e100b2
:1029100023003c006022b8007010e1000400350084
:1029200080027800010078008000eb007001510007
:102930000200e0000900340070031100062add00e7
:10294000822ade008603dd00878272000200de003c
:10295000860bdd00070070008208de0084817100b4
:10296000f4ff2700048262008481710004002800c3
:10297000848262006102600005f0a600000006008b
:1029800004827100070032000000e800e080480087
:10299000000006000002be006000b800efff370034
:1029a0006000b8000000060060001000e080180021
:1029b0000200370060021200e0821a000100e0000d
:1029c0003f0032000500e00039003200889fbe0061
:1029d0008a9fbe00820378008304510004003d00fa
:1029e0000002fd008102fd008904ea0083037800f3
:1029f00001017800800078000000eb0005037800fa
:102a0000840278000002eb0006056900070035002b
:102a10000281d1008180d3000080d3000683d100e1
:102a20008582d3000482d3008703e8007048e10068
:102a3000060035007f48e10029003c0005027800cf
:102a4000860278004fb3de00f08454000900e000f5
:102a5000080032000922de00708514008a2ddd0096
:102a60000b027200892ade008a35dd008b8272003b
:102a700009b3de00040040008580480006014900db
:102a8000e9fd0700838353000200e00009003200e3
:102a90000b0028000b10e1000c0032000100780050
:102aa00082007800070178004f05be004f04be0089
:102ab000000006006000b8000001eb00faff3700dc
:102ac0000400be0003017800000006000100e000e1
:102ad000f2ff3a0002002c008703e800efff370006
:102ae000f9012000d5ff3700810170002700320076
:102af0008002eb0001f8a300030032006000100028
:102b0000e080180015002000f407200002024200b7
:102b100020003400f7032000870360000604200033
:102b20000003630002082000000161004700de008e
:102b3000c909dd0000807100c708de000600e00062
:102b40000800320087037100060032001000b00058
:102b50000180b0000188a30002003200c108de003d
:102b60000402e800f107b200f30f20000320e100a7
:102b700003003d004722dd0081007200290037007c
:102b800001f827000000eb00260037006000b800c5
:102b900000000600680212007f20e10002003400fd
:102ba0006000b8001f0037006011b8007020e1001d
:102bb0000400350080017800010078008000eb00ff
:102bc000700252000400e00009003400f00312001b
:102bd0000719dd008419de000703dd00868171001e
:102be0000400de00070bdd00060070008408de0034
:102bf000f7ff270083836300870371000600280026
:102c000003036300070032000700e00003003a00fe
:102c10006101600002817300020032001000b00008
:102c20000180b0000500a6000000060001f0a00031
:102c3000000006003400f80003002000a301880013
:102c4000030028000382600001f0a1009221270008
:102c500013cb230002015000838158000d00310086
:102c600002002000037823000201500083815800f5
:102c70002200390084807000eefe0700530020001f
:102c800064d2290025fd070097ff07003400f900f2
:102c90000000060072212700132b240004f8a30073
:102ca00002003200421b2f00f32c240000015100cf
:102cb000818159000600390084807000ddfe070024
:102cc0002a00070088ff07003400f9000000060012
:102cd0008480700083fb07000758a30016003200b1
:102ce0000718a3000e003a006000b800220220007e
:102cf000c25e88003400f900000006008480700085
:102d0000ccfe070004002000050024000300200082
:102d10002aff070074ff07003400f90000000600d6
:102d20000000200001f8270022022000c25e880077
:102d30003400f900000006000778a3000500320007
:102d40000160a00012022000c25e88003400f90079
:102d5000000006000000200001f8270004f0a70092
:102d60006000b8003400f90000000600889fbe0033
:102d70008a9fbe008c9fbe000005be000204780042
:102d800044d9210055c52500430020007efe0700e0
:102d90004e010700809fbe003c0007000006be00f9
:102da000820478000800e00029003500b4bf20004c
:102db000958b2500b3ff2f000a03be0074010700a6
:102dc0000003be00020478000c00be000901780078
:102dd000a4e62d0035472700c3fd2f006c01070036
:102de0000100e00025003200f00341001e00350024
:102df0005300200064d22900fd0107004f02be00ed
:102e00006f0462008004eb000803520089835a00bb
:102e10004435de004c3edd000a057600c4bdde0010
:102e20000a014100acd329004245dd000c064500f3
:102e30003c027800bc0278008001eb0052fe0700e3
:102e40004f06be004f05be004f04be000000060046
:102e5000b4bf2000958b2500b3ff2f000a03be00ee
:102e60004b010700deff37000400200005002400ae
:102e700003002000d1fe0700e0ff37000000200023
:102e80000100240002002000dcff37000003eb00fb
:102e90008101df008301ea006f18e1000f003200ba
:102ea0000300e000060032008308dd00708211009c
:102eb0008402de00858070000300dd000303430010
:102ec0000100e00014003200040028000408e100c2
:102ed000130032007e011300000006008100d100c3
:102ee0008080d3004f00dd00f60020008101df006c
:102ef0008301ea006f18e100e9ff3a008100d10088
:102f00008080d3000000eb00e60120008101df009b
:102f10008301ea00e2ff37006000b800020005000c
:102f20000000e000ebff3a0001002c000603e9007e
:102f3000e8ff37000003be0069f907006220e100e6
:102f4000020032000600be0005000500e507b100e2
:102f5000f107b20004f023008480700007f0a7009e
:102f600001f0a00024000500889fbe008a9fbe00db
:102f70000003be005af907008505780082815200df
:102f8000020020006220e10004003a00f307b100d3
:102f9000040035007718e100040035000600be008b
:102fa000140037006000b8000f003700f50f200054
:102fb000faff2f008502d1000a85d3008301e900c2
:102fc000fcff3b008184620000046500890f7400ef
:102fd000f2ff32008582ea000a85ea0081846200fd
:102fe000000465006900070007f0a70001f0a000d9
:102ff0000081eb000200e0004f05be004f04be0060
:103000000000060014002000aa0137000001be00e5
:1030100033f907000470a70003f0a1006509b100af
:10302000160032000d0035006828e100060035006a
:10303000f0ff2f00f1ff27000300e00013003b002a
:1030400001002800000005000000400081804800c9
:103050008502e900fcff3a0008003700f88f4200c3
:1030600002003c008000eb00000005008100d10060
:103070000080d3008502e800fcff3a000300e00076
:1030800002003b0060001000e08018000000060015
:10309000881f7800030478000300e00007003d006b
:1030a00060001000e080180060011900e081190044
:1030b00002003b0001f02d00030037000400070070
:1030c00008f0a70001f0a0004f04780000000600ff
:1030d000889fbe008a9fbe000082700004027100bb
:1030e00004827100260032000004be000200be000f
:1030f0006011b8006b092000950220000182cf000a
:103100000a0039000541b1000082cf0007003900f4
:103110000541b1000982cf00040039000541b1002a
:103120000882cf00010039000541b100054252007c
:10313000120032000a003b008281710061016400cc
:103140008100d1000080d3008984d3000884d3009b
:103150008b05e8000442e800f7ff3a00070037005b
:103160000804440089844c00000048008180480025
:103170008b05e9000442e900f9ff3a00030007006b
:103180004f05be004f04be00000006008100200075
:10319000618055000b003d000b00200061fe2f00f8
:1031a0000100e1001d0034008281710061016400b2
:1031b0008904d1000884d3000000e800faff3a0037
:1031c00071002000610064000300700002006000d4
:1031d0000900320061044400e0844c000988a50025
:1031e000050032008b05e8006808e10002003a00a3
:1031f0008904d1000884d300f20f20000258e100b6
:1032000005003d00c75ddd00f907b200898075004b
:1032100008007800000006000bf827008b007800fb
:10322000000005000004be00adf807000003be006a
:103230000405be000200be00a9f80700844f750017
:10324000000006000003be00a5f807006220e100b0
:10325000020032000600be000000060085024100a8
:10326000e30f20000328e10005003c00a3fe2f002f
:103270000328e10007003d000500200001003700a1
:10328000f50f200020022000c05e88006000b8001a
:1032900008003700130020008381520005003d0024
:1032a0008100d1000080d3008301e800fcff3a00d8
:1032b00005002000c72add00f107b20085807000fc
:1032c00007f0a70001f0a000000006000100e000e8
:1032d000210032008201e8002b0035007e0211003f
:1032e0001e0034006011b8007020e10004003500b9
:1032f0008001780001007800cf88de007002520063
:103300000400e0000700320003017800700312009f
:103310008601dd000400de00860bdd000700700082
:103320008488de00e10260000600280003036300d9
:10333000f7ff270083836300828373000600e000a9
:1033400005003200078172000200e0000200320036
:1033500061004000e0804800000006007e10e100af
:1033600001003a00000006000100e0000300350003
:10337000f1ff2700f0ff2f000000060001002800e9
:1033800000002000000006006000b80000000600f9
:1033900060001000e0801800020037006003130096
:1033a000e0831b00889fbe008a9fbe008c9fbe00ea
:1033b000830441000405b800050eb8000501b800fb
:1033c0008285450003064e00e0864e000409b800e1
:1033d0008285450003064e00e0864e000100e000b5
:1033e00002003d000406560085865e000500e000f0
:1033f00002003d000006560081865e000d00e000e0
:10340000740032000700e000750032006022b8004e
:103410008783d1000683d3008582d300090054003e
:103420000000e9001b003c003b0035000804e800f8
:103430000a0042008b804a000c014b008d814b003a
:1034400002010700040454000300e0000e003200f3
:10345000090028000918e100060032000200be0041
:10346000080178004f06be004f05be004f04be00a5
:10347000000006000200e000f8ff3a0003002c0004
:103480000804e800f5ff37006000b8000001eb0019
:10349000f4ff37000804e8007e00e100010034007a
:1034a000e0012000cfecde00ef0060000100e00052
:1034b0000c003200f08110000155de000359dd00e0
:1034c00002057500815dde000361dd008285750007
:1034d0000166de000369dd000206760081eede0093
:1034e000010050004400de006501b80002600100e8
:1034f0000a0042008b804a000c014b008d814b007a
:10350000cfff37000b0042008c804a000d014b00ba
:1035100089814b00caff3700628444000000ea0042
:10352000030420000300e100010034000004200037
:10353000cfbcde00ef0060000a003200f081100016
:10354000032add00812ade000331dd008282720061
:103550000133de000339dd000203730081bbde00ae
:10356000010050004400de006501b8000260010067
:103570000a0042008b804a000c014b008d814b00f9
:10358000afff37000a8042008b004b000c814b00dc
:103590008d814c00aaff37000a0043008b804b004e
:1035a0000c814c008d814c00a5ff37000a80430040
:1035b0008b804c000c814c008d814c00a0ff3700ab
:1035c0000a8044008b804c000c814c008d814c00a3
:1035d0009bff37000600be0008017800a1ff3700fe
:1035e0000c01be000a00be006284440094ff370054
:1035f000e1024100020035006e00070000000600f5
:10360000e20241000200350007000700000006004a
:10361000e3024100020035004100070000000600ff
:10362000befa0700000006006218e1001b0035002a
:10363000889fbe008a9fbe008c9fbe008301e90068
:103640000004be000205be00040678003c00be0077
:103650000801be0018fb07003c004100bc80490087
:103660008b05e900faff3c000103df008606ea0053
:10367000050034008d08dd00708216008402de0033
:10368000858070000d00dd00060178004f06be0049
:103690004f05be004f04be00000006000300e0001e
:1036a00002003a006000b800020005003400be00cd
:1036b00002000500889fbe008a9fbe00841f78001c
:1036c000d8fe07004f00780011003300f0ff2f00f4
:1036d000838f6c0006003b00040565000a00a7000c
:1036e0000800370009f0a60010002000080037008d
:1036f000820f5400838f5c0003003900100020000b
:1037000001003e000000200009f0a7000000ea00d0
:103710004f05be004f04be000000e00000000600a0
:103720006218e1001d003500889fbe008a9fbe0020
:103730008c9fbe008301e9000004be000205be00ac
:10374000040678003c00be000801be00dafa07005b
:103750008381d1000281d3003c004100bc8049003c
:103760008b05e900f8ff3c000103df008606ea0054
:10377000050034008d08dd00708216008402de0032
:10378000858070000d00dd00060178004f06be0048
:103790004f05be004f04be00000006000300e0001d
:1037a00002003a006000b800020005003400be00cc
:1037b000020005006218e1001e003500889fbe006f
:1037c0008a9fbe008c9fbe008301e9000004be00fa
:1037d0000205be00040678003c00be000801be00e1
:1037e000b5fa07008100d0000281d2008381d200a7
:1037f0003c004100bc8049008b05e900f7ff3c001c
:103800000103df008606ea00050034008d08dd00b4
:10381000708216008402de00858070000d00dd00dd
:10382000060178004f06be004f05be004f04be00e3
:10383000000006000300e00002003a006000b8004b
:10384000020005003400be00020005000002eb008b
:103850008302df008502ea006f28e10023003a00be
:103860008301d1008281d3000181d3008080d30005
:103870004f00dd00f40020008302df008502ea0033
:103880006f28e10019003a008301d1008281d30042
:103890000181d3008080d3000000eb00e401200010
:1038a0008302df008502ea006f28e1000f003a0082
:1038b0008301d1008281d3000181d3008000eb001d
:1038c000d40220008302df008502ea006f28e100b5
:1038d00006003a008301d1008281d3000001eb0091
:1038e000c40320008302df008502ea000500e00037
:1038f0000c003200708312008519dd008613de0093
:10390000878171000511dd00860bde000701710063
:103910008508dd008603de00878070000500dd007d
:10392000050242000300e000010032000000060032
:04393000040005008a
:020000040000fa
:0200000401f009
:04000c0078ff000079
:020000040000fa
:0200000401f009
:040010005eff00008f
:020000040000fa
:0200000401f009
:040014007fff00006a
:020000040000fa
:0200000401f009
:04001800eeff0000f7
:020000040000fa
:0200000401f009
:04001c00dfff000002
:020000040000fa
:100008001c0a00001c0a00001c0a00001c0a000050
:100018001c0a00001c0a00001c0a00001c0a000040
:100028001c0a0000d40400001c0a00006209000039
:100038001c0a0000a40200001c0a00001c0a0000a0
:100048001c0a00001c0a00001c0a00001c0a000010
:10005800c60900001c0a00001c0a00001c0a000057
:10006800cc040000480400001c0a00001c0a000020
:10007800040700001c0a00001c0a00001c0a0000fb
:100088001c0a00001c0a00001c0a00001c0a0000d0
:100098001c0a00001c0a00001c0a00001c0a0000c0
:1000a8001c0a00001c0a00001c0a00001c0a0000b0
:1000b8001c0a00001c0a00001c0a00001c0a0000a0
:1000c8001c0a00001c0a00001c0a00001c0a000090
:1000d8001c0a00001c0a00001c0a00001c0a000080
:1000e8001c0a00001c0a00001c0a00001c0a000070
:1000f8001c0a00001c0a00001c0a00001c0a000060
:100108001c0a00001c0a00001c0a00001c0a00004f
:100118001c0a00001c0a00009c0900001c0a0000c0
:100128001c0a00001c0a00001c0a00001c0a00002f
:100138001c0a00001c0a00001c0a00001c0a00001f
:100148001c0a00001c0a00001c0a00001c0a00000f
:100158001c0a00001c0a00001c0a00001c0a0000ff
:100168001c0a00001c0a00001c0a00001c0a0000ef
:100178001c0a00001c0a00001c0a00001c0a0000df
:100188001c0a00001c0a00001c0a00001c0a0000cf
:100198001c0a00001c0a00001c0a00001c0a0000bf
:1001a8001c0a00001c0a00001c0a00001c0a0000af
:1001b8001c0a00001c0a00001c0a00001c0a00009f
:1001c8001c0a00001c0a00001c0a00001c0a00008f
:1001d8001c0a00001c0a00001c0a00001c0a00007f
:1001e8001c0a00001c0a00001c0a00001c0a00006f
:0801f8001c0a00001c0a0000b3
:020000040000fa
:100208001c0a00001c0a00001c0a00001c0a00004e
:100218001c0a00001c0a00001c0a00001c0a00003e
:100228001c0a0000d40400001c0a00006209000037
:100238001c0a0000a40200001c0a00001c0a00009e
:100248001c0a00001c0a00001c0a00001c0a00000e
:10025800c60900001c0a00001c0a00001c0a000055
:10026800cc040000480400001c0a00001c0a00001e
:10027800040700001c0a00001c0a00001c0a0000f9
:100288001c0a00001c0a00001c0a00001c0a0000ce
:100298001c0a00001c0a00001c0a00001c0a0000be
:1002a8001c0a00001c0a00001c0a00001c0a0000ae
:1002b8001c0a00001c0a00001c0a00001c0a00009e
:1002c8001c0a00001c0a00001c0a00001c0a00008e
:1002d8001c0a00001c0a00001c0a00001c0a00007e
:1002e8001c0a00001c0a00001c0a00001c0a00006e
:1002f8001c0a00001c0a00001c0a00001c0a00005e
:100308001c0a00001c0a00001c0a00001c0a00004d
:100318001c0a00001c0a00009c0900001c0a0000be
:100328001c0a00001c0a00001c0a00001c0a00002d
:100338001c0a00001c0a00001c0a00001c0a00001d
:100348001c0a00001c0a00001c0a00001c0a00000d
:100358001c0a00001c0a00001c0a00001c0a0000fd
:100368001c0a00001c0a00001c0a00001c0a0000ed
:100378001c0a00001c0a00001c0a00001c0a0000dd
:100388001c0a00001c0a00001c0a00001c0a0000cd
:100398001c0a00001c0a00001c0a00001c0a0000bd
:1003a8001c0a00001c0a00001c0a00001c0a0000ad
:1003b8001c0a00001c0a00001c0a00001c0a00009d
:1003c8001c0a00001c0a00001c0a00001c0a00008d
:1003d8001c0a00001c0a00001c0a00001c0a00007d
:1003e8001c0a00001c0a00001c0a00001c0a00006d
:0803f8001c0a00001c0a0000b1
:020000040000fa
:1039340000e20000c7af00009a8600007464000033
:10394400554800003b2f0000251a00001108000014
:103954000000000000000000000000000000000063
:103964000039000057840000fbff000048e000001d
:1039740023870000fcff0000fe3b0000d3a70000eb
:10398400fdff0000e4100000408e0000fdff000079
:10399400d28c000052ba0000feff0000f6c80000fe
:1039a40039ae0000feff0000249e0000f8a20000d3
:1039b400feff00004480000065490000feff000097
:1039c400b6610000e47e0000fdff0000f2b30000d9
:1039d4002f6a0000fdff000066e300004c56000063
:1039e400fdff0000121600001e450000fdff000050
:1039f400581700000d630000fcff0000d6600000b3
:103a0400d6410000fcff00003a6c00000a7e000072
:103a1400faff0000000000000000000000000000a9
:103a2400b9650000cf0c000046f80000fcef000070
:103a34002f550000551500002c00000000e0000088
:103a4400000000000040000015ae0000aa020000c3
:103a54002abf0000aa0a0000ffff0000ff1f0000a9
:103a6400ffff0000ff3f00000000000000400000d6
:103a74000000000000400000b4610000d5420000d6
:103a8400f2e00000ca450000bae90000e148000085
:103a940028f800001b4c0000309900007a4f000009
:103aa400546b0000ff520000761f0000ac5600006b
:103ab4009a790000825a0000d0510000845e000010
:103ac40008950000b36200000a4600001267000077
:103ad400667e0000a26b0000766f00006670000036
:103ae40074630000607500008abe0000927a0000d2
:020000040000fa
:103af400d00000007bcf0000c1c00000403b0000ac
:103b0400787d00008b3a0000713d00004abf000040
:103b14009a990000993f00005d6d0000c5bd00004a
:103b2400000000008038000000000000c8410000d0
:103b3400cdcc000014c20000ae470000d1c000008c
:103b44000000000090c200001f8500001741000023
:103b54000ad70000fc4200003c000000486100005d
:103b6400b4c20000ec51000014c200000ad70000e7
:103b7400f7c2000045470000005300004700000062
:0c3b840047000000c000000055aa00002f
:020000040000fa
:103b90000e00fa00008fbe0022079800330798003d
:103ba0004407980055079800660798006e02900039
:103bb0003e1a78002e1278006e0290002e039000bc
:103bc000be03900026029800370298006e02900013
:103bd0004e039000de0390004602980057029800c2
:103be0006e029000040078000080fa0000000600d9
:103bf0000000fa00445b8000e00f520002003a002f
:103c0000e40020000b00370044568000e10f520012
:103c100002003a000002eb0006003700140020000a
:103c2000445688008680a90010002000460f070037
:103c30000002eb00040078000080fa00000006009b
:103c40000000fa00445b8000e00f520002003a00de
:103c5000e40020000d00370044568000e00f5200c1
:103c600002003a000002eb000800370010002000bc
:103c7000630f07008680a9000002eb00445688000d
:103c80000002eb00045c88000002eb0004007800f6
:103c90000080fa00000006000200fa00000f780021
:103ca00044568000e00f520002003a00d400200089
:103cb000030037001e00780027000700000278008c
:103cc000040078000080fa00000006000200fa00fc
:103cd000000f780044568000e00f520002003a00c6
:103ce000d400200008003700045c8000e00f520080
:103cf00002003a00c4002000030037001e007800d4
:103d00001500070000027800040078000080fa0027
:103d1000000006000200fa00000f78004456800000
:103d2000e00f520002003a00d400200007003700e4
:103d300000000000045c8000e00f5200fdff320034
:103d40001e007800040007000002780004007800dc
:103d50000080fa00000006003200fa00889fbe00d2
:103d60008a9fbe008c9fbe006017980014028000de
:103d70004522de00674262000482fb0024079800af
:103d80009402800034079800ff3ffc0064b62000d6
:103d900014427800674262000482fb0067026200fe
:103da0004522dd0016028000f5f12f008502630038
:103db00004827200140288003e029000940288007f
:103dc0000000880024568000355680006e13900055
:103dd0002403980035039800c4568000d55680000f
:103de000040f9800150f9800e4568000f5568000e7
:103df000240f9800350f9800045780001557800055
:103e0000440f9800550f98002457800035578000c4
:103e1000640f9800750f9800445780005557800034
:103e20000417980015179800645780007557800094
:103e30002417980035179800845780009557800004
:103e40004417980055179800045c800044079800b8
:103e50000002eb00045c8800940280005407980084
:103e6000ff3ffc002e02900004427800674262008f
:103e70000482fb00670262004522dd00160280001a
:103e8000f5f12f008502630004827200140288009d
:103e90005e0290009402880000008800130a070068
:103ea0000002be006e139000048bbe004e02900014
:103eb000e10f52000c0036004e0290000500200079
:103ec0000400be007cf507000002be000401be0035
:103ed0000000200001f8230043f907000002be00a3
:103ee000048fbe00030037000400200005f8230003
:103ef000048fbe000e0a90009e0a90000400be00cf
:103f00006af507000002be001e01be000400be00ec
:103f1000fcf707000002be000404be00e4eb8400ce
:103f2000cfa2de000400be0060f507000002be0064
:103f30000401be000800be0004f707000002be0036
:103f40000403be00f4eb840005ec84000401be0011
:103f50000600be00ebf707000002be006e139000e3
:103f600044039800550398006e129000440390009b
:103f7000d4039000b4ec8400c5ec84000401be00be
:103f80000600be00f1f607000002be0064079800bc
:103f9000750798006e1290006c024200741798002a
:103fa0006e0a9000fe0a90000400be003ff5070074
:103fb0000002be001e01be000400be00d1f70700d3
:103fc0000002be000404be0054ed840065ed8400d0
:103fd0006e019000fe0190000400be00c9f70700ca
:103fe0000002be000403be00d45b8000e55b8000dd
:103ff0000401be000600be00ddf607000002be00a0
:104000000401be000800be00d0f607000002be009a
:104010000403be0094ec8400a5ec84000401be00ff
:104020000600be00b7f707000002be000405be0090
:104030004e0a9000de0a90000400be001bf5070047
:104040000002be001e01be000400be00adf7070066
:104050000002be000404be0034ed840045ed84007f
:104060006e019000fe0190000400be00a5f707005d
:104070000002be000403be0014ed840025ed8400a0
:104080000401be000600be00b9f607000002be0033
:104090000401be000800be00acf607000002be002e
:1040a0000403be0094ec8400a5ec84000401be006f
:1040b0000600be0093f707000002be000404be0025
:1040c0002e0a9000be0a90000400be00f7f407001c
:1040d0000002be001e01be000400be0089f70700fa
:1040e0000002be000406be00f4ec840005ed84006e
:1040f0006e019000fe0190000400be0081f70700f1
:104100000002be000403be00d4ec8400e5ec840091
:104110000401be000600be0095f607000002be00c6
:104120000401be000c00be0088f607000002be00bd
:104130000403be0094ec8400a5ec84000401be00de
:104140000600be006ff707000002be000400be00bc
:104150007e1390000a02be000801be008cfe07001c
:104160006e12900044039000d4039000545b8000d2
:10417000655b80000401be000600be0073f6070008
:104180000002be0064079800750798006e12900048
:1041900078024200041f98004e129000de12900038
:1041a0000400be00c1f407000002be001e01be00f4
:1041b0000400be0053f707000002be000404be0066
:1041c00074ec840085ec84006e019000fe01900088
:1041d0000400be004bf707000002be000403be004f
:1041e000b45b8000c55b80000401be000600be0019
:1041f0005ff607000002be000401be000800be001a
:1042000052f607000002be000403be0014ec840056
:1042100025ec84000401be000600be0039f707004b
:104220000002be000405be002e129000be129000d7
:104230000400be009df407000002be001e01be0087
:104240000400be002ff707000002be000404be00f9
:1042500054ec840065ec84006e019000fe01900037
:104260000400be0027f707000002be000403be00e2
:10427000945b8000a55b80000401be000600be00c8
:104280003bf607000002be000401be000800be00ad
:104290002ef607000002be000403be0014ec8400ea
:1042a00025ec84000401be000600be0015f70700df
:1042b0000002be000404be000e1290009e12900088
:1042c0000400be0079f407000002be001e01be001b
:1042d0000400be000bf707000002be000406be008b
:1042e00034ec840045ec84006e019000fe019000e7
:1042f0000400be0003f707000002be000403be0076
:10430000745b8000855b80000401be000600be0077
:1043100017f607000002be000401be000c00be003c
:104320000af607000002be000403be0014ec84007d
:1043300025ec84000401be000600be00f1f6070073
:104340000002be000400be000e1b90000a02be0068
:104350000801be000efe07000002eb00040078001a
:104360004f06be004f05be004f04be000080fa009d
:10437000000006003400fa00889fbe00001f98006d
:10438000111f980044568000e00f520002003a00ce
:10439000d4002000a5003700007d2000010020008f
:1043a000e7080700140280004522de006742620031
:1043b0000482fb00240798009402800034079800d0
:1043c000ff3ffc0064b620001442780067426200a0
:1043d0000482fb00670262004522dd0016028000b5
:1043e000f5f12f0085026300048272001402880038
:1043f0003e0290009402880000008800c4568000ad
:10440000d5568000240f9800350f9800e4568000a0
:10441000f5568000440f9800550f9800045780000f
:1044200015578000640f9800750f9800245780007e
:1044300035578000041798001517980044578000de
:10444000555780002417980035179800645780004e
:1044500075578000441798005517980084578000be
:10446000955780006417980075179800045c8000c9
:10447000440798000002eb00045c8800940280006e
:1044800054079800ff3ffc002e0290000442780081
:10449000674262000482fb00670262004522dd0081
:1044a00016028000f5f12f0085026300048272007d
:1044b000140288005e0290009402880000008800c8
:1044c0004e029000e10f52000c0036004e029000a8
:1044d000050020000400be00f7f307000002be0044
:1044e0000401be000000200001f82300bef7070011
:1044f0000002be00048fbe0003003700040020004d
:1045000005f82300048fbe002e0a9000be0a90001a
:104510000400be00e5f307000002be001e01be005d
:104520000400be0077f607000002be000404be00cf
:10453000e4eb8400cfa2de000400be00dbf3070042
:104540000002be000401be000800be007ff50700a7
:104550000002be000403be00f4eb840005ec8400fe
:104560000401be000600be0066f607000002be00a1
:104570006407980075079800b4ec8400c5ec8400cb
:104580000401be006e009000fe0090006ff5070071
:104590000002be00040f9800150f980094ec8400f0
:1045a000a5ec84000401be000e1890009e18900037
:1045b0008df707000002be000404be000e1290003a
:1045c0009e1290000400be00b8f307000002be0077
:1045d0001e01be000400be004af607000002be0035
:1045e0000401be000800be0061f507000002be0025
:1045f0000404be0054ed840065ed84000e099000b3
:104600009e0990000400be003ef607000002be00b6
:104610000401be000800be004cf507000002be0009
:10462000d45b8800e55b88000002eb0004007800a2
:104630004f04be000080fa00000006002c00fa00c3
:10464000889fbe00445b8000e00f520002003a00e9
:10465000e4002000ae00370044568000e00f520016
:1046600002003a00d4002000a9003700007d20009d
:1046700001002000440807000002be002407980043
:10468000350798006022b800745b8800855b88005d
:104690006022b800945b8800a55b88006022b800a7
:1046a000b45b8800c55b88002e009000be009000bf
:1046b0005a080700140280004522de0067426200ab
:1046c0000482fb004407980094028000540798007d
:1046d000ff3ffc0064b6200014427800674262008d
:1046e0000482fb00670262004522dd0016028000a2
:1046f000f5f12f0085026300048272001402880025
:104700005e0290009402880000008800c456800079
:10471000d5568000040f9800150f9800e4568000cd
:10472000f5568000240f9800350f9800045780003c
:1047300015578000440f9800550f980024578000ab
:1047400035578000640f9800750f9800445780001b
:10475000555780000417980015179800645780007b
:1047600075578000241798003517980084578000eb
:10477000955780004417980055179800045c8000f6
:10478000640798000002eb00045c8800940280003b
:1047900074079800ff3ffc004e029000044278002e
:1047a000674262000482fb00670262004522dd006e
:1047b00016028000f5f12f0085026300048272006a
:1047c000140288007e029000940288000000880095
:1047d0006e029000e10f52000c0036006e02900055
:1047e000050020000400be0033f307000002be00f5
:1047f0000401be000000200001f82300faf60700c3
:104800000002be00048fbe00030037000400200039
:1048100005f82300048fbe000e1290009e12900037
:104820000400be0021f307000002be001e01be000e
:104830000400be00b3f507000002be00745b8800f0
:10484000855b88002e129000be1290000400be000e
:1048500016f307000002be001e01be000400be00e9
:10486000a8f507000002be00945b8800a55b8800e5
:104870004e129000de1290000400be000bf3070001
:104880000002be001e01be000400be009df5070030
:104890000002be00b45b8800c55b88000e0a900071
:1048a0009e0a90000400be0000f307000002be0054
:1048b0001e01be000400be0092f507000002be000b
:1048c0000404be00e4eb8400cfa2de000400be00be
:1048d000f6f207000002be000401be000800be00a0
:1048e0009af407000002be000403be00f4eb84004b
:1048f00005ec84000401be000600be0081f507003f
:104900000002be00545b8800655b88000002eb007b
:10491000040078004f04be000080fa00000006008a
:104920000e00fa00008fbe0022079800330798009f
:104930004407980055079800660798006e0290009b
:104940003e1a78002e1278006e0290002e0390001e
:10495000be03900026029800370298006e02900075
:104960004e039000de039000460298005702980024
:104970006e029000040078000080fa00000006003b
:104980002800fa00889fbe008a9fbe008c9fbe0050
:1049900010179800445b8000e00f520002003a00bc
:1049a000e40020001101370044568000e00f52005f
:1049b00002003200b40020000c0137000002eb00be
:1049c000040f7800660247000400780069010700c0
:1049d00000027800040f78001e027800e00f5200f9
:1049e000020032001e027800000137003f07070076
:1049f0000002be001e139000048bbe0024568000ef
:104a00003556800061024200e0824a002456880048
:104a10003556880024568000355680001e139000bd
:104a200024039800350398003e039000ce039000c5
:104a3000e4eb8400cfa2de000402530085825b0019
:104a40000400be0099f207000003be00f4eb8400ee
:104a500005ec84000401be000600be0029f5070035
:104a60000002be001e1390004403980055039800f6
:104a70001e12900044039000d4039000b4ec840014
:104a8000c5ec84000401be000600be002ff4070040
:104a90000002be0014079800250798001e1290001f
:104aa0006c024200241798001e0a9000ae0a900083
:104ab0000400be007df207000004be0054ed840037
:104ac00065ed84001e019000ae0190000400be0060
:104ad0000cf507000002be000403be00d45b80009a
:104ae000e55b80000401be000600be0020f4070064
:104af0000002be000401be000800be0013f407005f
:104b00000002be000403be0094ec8400a5ec840007
:104b10000401be000600be00faf407000002be0059
:104b20000405be007e0290008e0a90000400be00c4
:104b30005ef207000004be0034ed840045ed840001
:104b40001e019000ae0190000400be00edf40700cd
:104b50000002be000403be0014ed840025ed8400b5
:104b60000401be000600be0001f407000002be0002
:104b70000401be000800be00f4f307000002be00fe
:104b80000403be0094ec8400a5ec84000401be0084
:104b90000600be00dbf407000002be000404be00f5
:104ba0005e029000ee0290000400be003ff207009b
:104bb0000006be00f4ec840005ed84001e019000a8
:104bc000ae0190000400be00cef407000002be005b
:104bd0000403be00d4ec8400e5ec84000401be00b4
:104be0000600be00e2f307000002be000401be00a2
:104bf0000c00be00d5f307000002be000403be0097
:104c000094ec8400a5ec84000401be000600be0004
:104c1000bcf407000002be000400be002e1390008a
:104c20000a02be000801be003dff07001e129000f0
:104c300044039000d4039000545b8000655b8000c7
:104c40000401be000600be00c0f307000002be0063
:104c500014079800250798001e1290007802420061
:104c6000341798007e0a90008e1290000400be0057
:104c70000ef207000004be0074ec840085ec840092
:104c80001e019000ae0190000400be009df40700dc
:104c90000002be000403be00b45b8000c55b800060
:104ca0000401be000600be00b1f307000002be0012
:104cb0000401be000800be00a4f307000002be000d
:104cc0000403be0014ec840025ec84000401be0043
:104cd0000600be008bf407000002be000405be0003
:104ce0005e0a9000ee0a90000400be00eff107009b
:104cf0000004be0054ec840065ec84001e019000aa
:104d0000ae0190000400be007ef407000002be0069
:104d10000403be00945b8000a55b80000401be001c
:104d20000600be0092f307000002be000401be00b0
:104d30000800be0085f307000002be000403be00a9
:104d400014ec840025ec84000401be000600be00c3
:104d50006cf407000002be000404be003e0a90008e
:104d6000ce0a90000400be00d0f107000006be008d
:104d700034ec840045ec84001e019000ae019000ec
:104d80000400be005ff407000002be000403be0082
:104d9000745b8000855b80000401be000600be00dd
:104da00073f307000002be000401be000c00be0049
:104db00066f307000002be000403be0014ec84008a
:104dc00025ec84000401be000600be004df407007f
:104dd0000002be000400be003e1390000a02be00a6
:104de0000801be00cefe07000002eb0004007800c0
:104df0004f06be004f05be004f04be000080fa0003
:104e0000000006000a00fa004047980031079800a9
:104e100042079800445b8000e00f520002003a0015
:104e2000e40020002200370044568000e00f5200ca
:104e300002003200b40020001d0037000002eb0029
:104e4000140798000002eb00040f780001003700ff
:104e500000000000a4d7290014427800ce01900081
:104e60003e019000ce40900004407800120b0700f5
:104e700000027800140798001e029000e00f520014
:104e800003003200e20f5200030032000700370037
:104e90000002eb00060037001e0fe800140320009c
:104ea0009e027800848f5200e9ff36001e029000b7
:104eb000040078000080fa00000006000a00fa00f2
:104ec000404798003107980042079800445b8000f3
:104ed000e00f520002003a00e400200022003700f8
:104ee00044568000e00f520002003200b40020005f
:104ef0001d0037000002eb00140798000002eb00d1
:104f0000040f78000100370000000000a4d729003a
:104f100014427800ce0190003e019000ce409000f7
:104f200004407800a00b07000002780014079800e6
:104f30001e029000e00f520003003200e20f520008
:104f400003003200070037000002eb0006003700c4
:104f50001e0fe800140320009e027800848f520088
:104f6000e9ff36001e029000040078000080fa007d
:104f7000000006001800fa00300f98000002eb0055
:104f8000140798000042eb00444798006402470071
:104f900004007800761107000002780014079800da
:104fa0001e029000e00f5200020032001e0290002c
:104fb0005f0037004e4290000482fb0061026200f5
:104fc000e00f520009003a000002eb00040f7800e5
:104fd000010037001e0fe800743e20009e0278009a
:104fe000848f5200fbff3400e8ff3700680247005f
:104ff000e200200084007800b0c3b30081ff070006
:1050000000027800140798001e029000e00f520082
:10501000020032001e029000450037000e4a900048
:10502000744798001e4a9000644798003e02900022
:105030000402ea00cfa2de003e0b90004403980079
:10504000550398002e4a9000744798003e4a9000fd
:10505000644798003e0290000402ea00cfa2de00fe
:105060003e0b900024039800350398004e4a9000b0
:10507000744798005e4a9000644798003e02900092
:105080000402ea00cfa2de003e0b90006403980009
:10509000750398006e4a9000744798007e4a90000d
:1050a000644798003e029000cfa2de003e0b9000c5
:1050b000048bbe000e529000744798001e52900060
:1050c000644798003e0290000402ea00cfa2de008e
:1050d0003e0b9000240b9800350b98002e52900048
:1050e000744798003e529000644798003e0290003a
:1050f0000402ea00cfa2de003e0b9000040b9800f1
:10510000150b98004e529000744798005e52900024
:10511000644798003e0290000402ea00cfa2de003d
:105120003e0b9000440b9800550b98000002eb00da
:10513000040078000080fa00000006003600fa0043
:10514000889fbe00445b8000e00f520002003a00de
:10515000e40020009f00370044568000e00f52001a
:1051600002003200b40020009a003700007d2000c9
:1051700001002000840507000002be00240f9800f3
:10518000350f98006022b800048fbe006022b8007e
:1051900024079800350798006022b800440798005b
:1051a000550798006022b8006407980075079800ba
:1051b0006022b800040f9800150f98000002eb0061
:1051c000440f98006022b800745b8800855b8800fb
:1051d0006022b800945b8800a55b88006022b8005c
:1051e000b45b8800c55b88007a0247000400780041
:1051f00060ff070000027800440f98004e0a9000fc
:10520000e00f5200020032004e0a90007100370099
:105210005e129000ee1290001e0f42005e974a0050
:105220007e1290008e1a90002e039000be03900014
:105230000602420087824a0024079800350798003a
:105240001e1a9000ae1a90004e039000de039000ec
:105250000602420087824a004407980055079800da
:105260005e0a9000ee0a90006e039000fe0390002c
:105270000602420087824a0064079800750798007a
:105280000e0a90009e0a900061024200e0824a00ed
:10529000040f9800150f98002e089000be0890008b
:1052a0005105070000027800e00f5200ceff3200e7
:1052b0001e00be007df007000004be000e08900036
:1052c0009e08900079f007000002be000401be00b5
:1052d0000800be0044f407000002be00745b8800b2
:1052e000855b88002e009000be0090006ff00700e4
:1052f0000004be000e0890009e0890006bf00700ae
:105300000002be000401be000800be0036f4070023
:105310000002be00945b8800a55b88004e009000f0
:10532000de00900061f007000004be000e0890004f
:105330009e0890005df007000002be000401be0060
:105340000800be0028f407000002be00b45b88001d
:10535000c55b88006e009000fe00900053f00700cf
:105360000004be000e0890009e0890004ff0070059
:105370000002be000401be000800be001af40700cf
:105380000002be000404be00e4eb8400cfa2de00f5
:105390000400be0045f007000002be000401be008c
:1053a0000800be00e9f107000002be000403be00d1
:1053b000f4eb840005ec84000401be000600be008e
:1053c000d0f207000002be00545b8800655b8800d5
:1053d0000002eb00040078004f04be000080fa00d9
:1053e000000006000000fa002c83a800c842a800b4
:1053f0007534800004fe2f00048262000410a000b7
:10540000743488000080fa00000006000600fa00ec
:10541000404798008110070000427800044f780050
:105420001e427800e04f520002003a006400200063
:105430002c003700345c8000e00f52000200320084
:105440000002eb002700370014002000345c8800c5
:105450001e40780084ebb700b40d07000002eb009b
:10546000140a88007307a900deff07009420a90032
:105470008420a90044b820001442780067426200ea
:105480000482fb00670262004422dd0026058000e2
:10549000f5f82f008502630004827200240588005d
:1054a000140a80000400a0000410a0000420a10041
:1054b000140a88000002eb00140798004e40900088
:1054c0000b00070000027800140798001e029000ed
:1054d000e00f5200020032001e029000010037006f
:1054e0001e029000040078000080fa000000060010
:1054f0001200fa0000579800345c8000e00f520060
:1055000002003a00e4002000d80037000002eb005f
:10551000040f7800445e8000e00f52000800320063
:105520005005070000027800040f78001e02780082
:10553000e00f5200020032001e027800cb0037005c
:105540000e529000e74f52000200360074c0b300c4
:10555000045798000e529000350020000522dd000f
:10556000244798006302470012002000840078005e
:1055700060c2b3003906070000027800040f78000b
:105580001e027800e00f5200020032001e02780076
:10559000b6003700be429000e4cfb30004c2620000
:1055a000344798006302470012002000840078000e
:1055b00060c2b3004206070000027800040f7800c2
:1055c0001e027800e00f5200020032001e02780036
:1055d000a600370000c2eb00344798000f003700e8
:1055e000100020000100200055040700630247005e
:1055f000120020008400780060c2b3001706070084
:1056000000027800040f78001e027800e00f5200bc
:10561000020032001e027800940037003e429000e3
:105620000482fb006102620004427800e04f5200f5
:10563000ebff3a0044c0b3003447980063024700d0
:10564000120020008400780060c2b3001c0607002e
:1056500000027800040f78001e027800e20f52006a
:10566000020032001e0278008000370000c2eb000a
:10567000344798000f003700100020000100200080
:105680002f04070063024700120020008400780006
:1056900060c2b300f105070000027800040f780033
:1056a0001e027800e00f5200020032001e02780055
:1056b0006e0037003e429000e04f5200eeff3a008d
:1056c00074c0b300444798006402470012002000f1
:1056d0008400780030c1b300f905070000027800ab
:1056e000040f78001e027800e00f52000200320022
:1056f0001e0278005d00370024c2b30054479800b2
:1057000065024700120020008400780080c2b300c8
:10571000eb05070000027800040f78001e027800f5
:10572000e00f5200020032001e0278004f003700e6
:1057300034c8b30064479800660247001200200096
:105740008400780090c2b300dd05070000027800f5
:10575000040f78001e027800e00f520002003200b1
:105760001e0278004100370034c8b3007447980027
:10577000670247001200200084007800a0c2b30036
:10578000cf05070000027800040f78001e027800a1
:10579000e00f5200020032001e0278003300370092
:1057a000ae42900024c8b30004c27200344798008f
:1057b00063024700120020008400780060c2b3003a
:1057c000bf05070000027800040f78001e02780071
:1057d000e00f5200020032001e0278002300370062
:1057e0000e5290000482fb00050020000400be0061
:1057f00031ef07000002be000401be0000002000df
:10580000010024004bef07000002be0062ba29002d
:1058100043b423000400be00baf107000002be003a
:10582000f226210033b823000400be00d0f00700a8
:105830000002be0052f92b00634523000400be00a5
:10584000e9f207000002be000400be00fcee070003
:105850000002be00d45c8800e55c88006802470056
:105860000400780045050700000278000400780075
:105870000080fa00000006001600fa00345c800088
:10588000e00f520002003a00e40020006000370000
:105890006022b800048fbe000002eb0024079800cd
:1058a000445e8000e00f52000a0032006e024700a2
:1058b000040078009f040700000278002407980085
:1058c0002e029000e00f5200020032002e029000e3
:1058d0004f0037006022b800445c8800555c8800a7
:1058e000803e200001002000a70307000002be0048
:1058f00054079800650798006022b80034079800a4
:1059000045079800445e8000e00f52000600320018
:105910006e02470004007800860407000002780049
:1059200024079800050037006e0247000400780045
:105930001205070000027800240798002e0290004c
:10594000e00f5200020032002e02900030003700bb
:105950001e0a9000ae0a90000401be001e00be00a8
:1059600083f007000002be00048fbe003e029000dc
:10597000ce02900061024200e0824a0034079800a3
:10598000450798005e009000ee0090009603070027
:1059900000027800e00f5200daff32003e00900073
:1059a000ce009000c1ee07000002be000401be0060
:1059b0001e00be008cf207000002be0002002000a4
:1059c000032024000400be004ef107000002be00c8
:1059d0000200200003f023000400be0064f0070072
:1059e0000002be000400be00b5ee07000002be00cb
:1059f00002002000032024000400be007af2070009
:105a00000002be00445c8800555c88000002eb0088
:105a1000040078000080fa00000006000800fa0088
:105a2000008fbe002207980033079800345c800086
:105a3000e00f520002003a00e4002000140037009a
:105a40002e019000be0190001e00be003ff0070036
