:020000040000fa
:080000000002040000000000f2
:020000040000fa
:100400000fb620000e7f22000e01880000000000c1
:1004100000012000200288000c0007002048220074
:100420000100200011000700000020000000e00093
:100430000200320000000200000000005429020007
:10044000000000000040da000000fe004440a90067
:10045000c00320000000e000030032000000200084
:10046000a00188004440a800000006009101880017
:10047000800078000000eb0015003700e2804000ab
:1004800032a0b4009101ba00e280400032a0b40072
:100490009102ba00e280400032a0b4000002eb00fa
:1004a000472bde00f507b200602ce10004003a00a3
:1004b0000059eb008301e900fdff3e000400370016
:1004c0006128e100010032000082eb000400070017
:1004d0001101ba000200e000e8ff3a000000060047
:1004e0003159ba008301e9000c0032002159ba00e9
:1004f0008301e900080032000400e00003003a0034
:10050000e280400032a0b400f5ff370011d9ba00f4
:100510008301e900faff3a008100e800e180400031
:1005200032a0b40000000600322a040000000000df
:1005300056030400000000003600f800809fbe0053
:10054000829fbe00849fbe00869fbe000200fa000c
:100550008620a9004410800070026200e00f520063
:10056000270032009620a9000002eb00a459880061
:10057000b459800004427800614262000482fb00aa
:10058000610262004422dd00b6048000f5fe2f0007
:100590008502630004827200b4048800c45980009c
:1005a00004427800614262000482fb006102620042
:1005b0004522dd00a6048000f5fd2f0085026300c2
:1005c00004827200a4048800d45980000442780098
:1005d000614262000482fb00610262000402420088
:1005e000a6048000d5ff2f008502630004827200fc
:1005f000a4048800e4598000f459880009003700f9
:10060000a4598000040f78001e027800e00f520009
:10061000030032001e0278000400010001003700d0
:10062000000000000080fa004f03be004f02be0031
:100630004f01be004f00be003600f900004006002a
:100640000000fa008600a9000080fa0000400600c1
:100650003600f800809fbe00829fbe00849fbe00cf
:10066000869fbe000000fa008680a9006435200045
:10067000040078003d0d070000027800e00f5200f2
:1006800003003a000002eb00445988000602a8006b
:100690000080fa004f03be004f02be004f01be00b3
:1006a0004f00be003600f900004006000200fa00cc
:1006b0008620a90045108000040028000482620002
:1006c000e00f52000f003a00451080000440200067
:1006d00004826200e00f52000a003a0045108000d8
:1006e0000408200004826200e00f520005003a0076
:1006f000451080000404200004826200e00f5200d4
:10070000020032007c0d0700fe00370044598000d3
:10071000050020007600200007002000860f520010
:10072000878f5a00f4003e00046001000700370084
:100730000f00370013003700160037001d00370088
:1007400023003700380037003c00370024dc280045
:10075000144278008482fb00e40f200004826200cf
:10076000141088001400200044598800e400370069
:10077000b40320001410880024002000445988008d
:10078000df0037000622a80034002000445988000a
:10079000db00370024dc2800144278000404a000a9
:1007a0000482fb0014108800440020004459880093
:1007b000d300370008c2a9000662a8000002eb00bf
:1007c000645988005400200044598800cc00370048
:1007d000665980000410800004427800a5ac200017
:1007e00085024300844a7800645980000402e800ce
:1007f0006459880064598000ed0f520005003e00e6
:1008000006a2a9000682a8006400200044598800be
:10081000bb00370006a2a8000682a80074002000d2
:1008200044598800b600370008c2a9000662a80033
:100830005400200044598800b10037002e0d0700f5
:10084000a4ac20001442780014479800b4ac2000f7
:1008500014427800044f78001e0278000402ea0077
:10086000cfa2de00e4578800f5578800c4ac200012
:100870001442780014479800d4ac20001442780049
:10088000044f78001e0278000402ea00cfa2de00c6
:10089000c4578800d5578800e4ac20001442780083
:1008a00014479800f4ac200014427800044f7800fc
:1008b0001e0278000402ea00cfa2de00045888007d
:1008c0001558880004ad20001442780014479800a1
:1008d00014ad200014427800044f78001e02780006
:1008e000cfa2de00a4578800b557880024ad2000b1
:1008f000144278001447980034ad20001442780068
:10090000044f78001e0278000402ea00cfa2de0045
:10091000445888005558880044ad2000144278009f
:100920001447980054ad200014427800044f78001a
:100930001e0278000402ea00cfa2de0024588800dc
:100940003558880064ad20001442780014479800a0
:1009500074ad200014427800044f78001e02780025
:100960000402ea00cfa2de006458880075588800af
:10097000245680003556800061024200e0824a0021
:10098000245688003556880054598000e00f5200e4
:100990001d003a00c4578000d5578000e4568800f7
:1009a000f5568800e4578000f5578000045788000a
:1009b0001557880004588000155880002457880077
:1009c00035578800a4578000b5578000c45688006a
:1009d000d556880024588000355880004457880038
:1009e0005557880044588000555880006457880047
:1009f00075578800645880007558800084578800b7
:100a00009557880038003700e6568000f75680007a
:100a1000c4578000d55780000602420087824a00f2
:100a2000e4568800f5568800065780001757800066
:100a3000e4578000f55780000602420087824a0092
:100a400004578800155788002657800037578000c4
:100a500004588000155880000602420087824a0030
:100a60002457880035578800c6568000d756800026
:100a7000a4578000b55780000602420087824a00d2
:100a8000c4568800d55688004657800057578000c6
:100a900024588000355880000602420087824a00b0
:100aa0004457880055578800665780007757800064
:100ab00044588000555880000602420087824a0050
:100ac00064578800755788008657800097578000c4
:100ad00064588000755880000602420087824a00f0
:100ae0008457880095578800545980000402e80014
:100af00054598800020037007f0c070001003700be
:100b0000000000000080fa0000000600849fbe0084
:100b1000869fbe000000fa008460a900245a80006d
:100b2000355a800061024200e0824a00245a88005f
:100b3000355a8800265a8000375a8000445a80006f
:100b4000555a8000840f5300858f5b0008003600e3
:100b50000082eb008082eb00445a8800555a8800de
:100b6000645a8000e00f5200010032008bc0a800e0
:100b70000080fa004f03be004f02be000040060096
:100b80003600f800809fbe00829fbe00849fbe009a
:100b9000869fbe000200fa008bc0a900645a800044
:100ba000040f78001e027800e00f520002003200ad
:100bb0001e027800040001000080fa004f03be000e
:100bc0004f02be004f01be004f00be003600f900cc
:100bd00000400600849fbe000000fa00d45a800046
:100be000e00f5200160032000c003700e55a80007a
:100bf0000490200004824200144278000482fb002a
:100c000024118800e45a80000402e800e45a8800b5
:100c1000d45a80000402e900d45a8800d45a8000d3
:100c2000e00f520012003200151180000420200055
:100c300004826200e00f5200ecff32000c0037002b
:100c4000d4df2800144278000482fb0024118800bd
:100c500000000000d4df2800144278000482fb006a
:100c6000241188009580a90014002000c45a88002f
:100c70008580a9000080fa004f02be0000400600f7
:100c80000040da000000fe004f89de00820178009b
:100c90003d0337006011b8004b03370007f8270009
:100ca000078361000638e10004003a00f7072000de
:100cb000878361008703710001003a0003f0a200fe
:100cc000889fbe008a9fbe008c9fbe00470ade0040
:100cd0000480a100c71ade000580a10007002800db
:100ce0000785600087856100f70f20000720e1007d
:100cf0009e0032000728e1009c00320001067800c7
:100d00000400e000b4003200f70720008780600094
:100d10000170a0000500e000c0003200f7072000cd
:100d2000878161000370a000050652000f003a00a1
:100d30000b50e1000b0032000308e10002003a0012
:100d40000200e1007e00320002045000838458005b
:100d5000040031000001fd008101fd008402fd005e
:100d60008a05fd006044b800210037000520e1003d
:100d700005003d000001fd008101fd008402fd0031
:100d80008a05fd00050652007a60e1000500350085
:100d90000170a1004722dd00848070008a8070000d
:100da000630037006044b800ef02660007ff2f00c1
:100db000070666000500e00006003400f08312001c
:100dc0008714dd000511de00071bdd000601710040
:100dd0008519de007060e100050035000904780027
:100de00082047800030178008001eb007006560051
:100df0000b50e10003003a000200400083804800ed
:100e00000400370060041400e0841c000200580055
:100e1000838058000188a300060032008100d100c1
:100e20000080d3008984d3000884d3000402e80042
:100e3000270037000178a30025003a000100e000f8
:100e4000030032008186cf00698656000a00370011
:100e50008c0020000000e00004003a000900780047
:100e6000880478000004eb00700252008086cf00f6
:100e70000d0646000c06e9007060e1000600350032
:100e80008000780009007800880478000004eb00f6
:100e900070065600700252000c00e0000c00340096
:100ea0008c08dd00f00316000703de00868070006a
:100eb0000c00dd00074bde00060070008c4cdd00ee
:100ec0000743de00868474000c44dd000c025200ef
:100ed0006120e1002000350061016000070028006a
:100ee00087816400f7ff270087836400070374008d
:100ef0000300e000060032008203730004003200a9
:100f00000000e800e08048000188a3000e003a00dd
:100f1000f70f20000720e1004a003d000170a1000a
:100f20004722dd00810072008a8070000000be0050
:100f30004f06be004f05be004f04be000000060075
:100f40006000b800faff37008100d1000080d300b4
:100f50000402e800eeff3700040178008901740004
:100f60000c0207008a807000f1ff3700eb020700d7
:100f7000070278000001fd008101fd00e702070083
:100f800087027800850372000778a300040032000e
:100f90000001fd008101fd00c2010700e4ff3700f0
:100fa000850362000768a300080032000b50e100cf
:100fb00003003200f0ff2f00f1ff2700dcff3700b5
:100fc0000001fd008101fd00d9ff37000468a30086
:100fd000d7ff3200faff3700f8ff27008883600050
:100fe0000b003a000000e00009003a0083036400af
:100ff00082837300020032000200be00ccff370083
:101000000b50e100ceff3a000200be00c8ff3700df
:1010100014002000810064003eff3700f8ff270025
:101020008883610004003a000200e00002003a00f8
:101030008c007800beff370015002000830164009b
:1010400039ff370001f827000000200081007500fb
:10105000b7ff370003836800070028000703630019
:10106000470ade000480a100c71ade000580a10047
:10107000f70f20000720e100420032000728e100be
:1010800040003200889fbe008a9fbe008c1f7800ff
:10109000f107b200f307b2000400e0006400320080
:1010a0000170a0000500e000680032000370a0009d
:1010b00085054200eb07b1000204b8000302b80046
:1010c0008484440060854a00020ab8008484440095
:1010d0000a854a00030ab8000405450004003300ed
:1010e0000804d0008984d2000a85d2008b05e9006b
:1010f0006158e1003d003500021020000901610047
:101100000308200089816100f707200087836400bd
:1011100008867300c84cde00c853dd008784740065
:101120004855de000300e00006003200820376002e
:10113000040032008904e80060054d000a88a3001d
:101140000c003a00f70f20000758e10044003d0072
:101150000a70a100c75ddd000a8575008a00730072
:10116000090078004f0678004f05be004f04be000e
:10117000000006000a05d1008984d3008b05e80031
:10118000f0ff3700881f780006047800630207002c
:10119000070278000001fd008101fd005f020700e9
:1011a00087027800850372000778a30005003200eb
:1011b0000001fd008101fd003a0107004f047800a5
:1011c00000000600850372000748a30003003200f8
:1011d000f0ff2f00f1ff2700f8ff3700000020008c
:1011e00001f8270088807000f4ff3700880178003c
:1011f0004848dd00808171004848de00c850dd00ad
:1012000001007000c850de00060478000b01780071
:101210006001070088807000d2ff37000500e00001
:101220000500320017002000100007009dff370066
:1012300081037000f9ff3a00860078004f067800bd
:101240004f05be004f04be0000000500830371007f
:10125000f9ff3200270020000400070094ff370048
:1012600001f8270086807000f4ff3700889fbe00d9
:101270000004eb006138e10016003a000100e000d4
:1012800008003a00c800de004800dd0088002000a9
:101290000100e00003003a00c800de004800dd0065
:1012a000680444008184cf00e984540006003400bf
:1012b0008908dd00f08314008703de00878070005a
:1012c0000900dd0009044400610214004f04be005f
:1012d000000006000300e00008003a00c811de002c
:1012e0004811dd00880020000300e00003003a0000
:1012f000c811de004811dd00680444008384cf007b
:10130000e9845400060034008919dd00f0831400dc
:101310008713de00878171000911dd000904440094
:10132000e1021400e9ff3700889fbe008a9fbe00db
:101330008c9fbe001b0020000202be0005866800d4
:1013400006002800060666004709de00f20fb2001c
:10135000820032000243e80080003200c729de002c
:10136000f30fb2007d0032000343e8007b0032003f
:10137000f107b2000170a000f507b2000570a000ef
:10138000c708dd004903de00868070004700dd00ed
:10139000c72add004923de00868272004722dd0075
:1013a00003055100040350008583580003003100f9
:1013b00000004000818048000a05e9008c1f780089
:1013c0008a9fbe000400500085805800040242003d
:1013d00085824a0000004000818048000005eb0043
:1013e0000004be006033b8000406be000d48e100f2
:1013f00056003100110009004dccd8000c01b80096
:101400000d02b8008481410060824a00828353004b
:1014100003045c0084845c0060055d000a00e00059
:1014200025003a00800578000d40e10049003100b8
:101430008800780007007800110009004d88d80066
:101440000c01b8000d02b8008481410060824a009e
:101450006003110083835b0004045c00e0845c0093
:101460000900e00021003a004f01be000300e00047
:101470002b003200e3016000070673008c817100cd
:1014800001003200640070004200de004e5edd00ac
:101490000c007000c258de0001e0a000e700070069
:1014a000cf017800818071004f06be004f05be005d
:1014b0004f04be00000006008c8343000d044c0066
:1014c000e0844c0060054d000000e9000a00e000e7
:1014d000d4ff32008c8343000d044c00e0844c00a8
:1014e00060054d000000e900ceff37000c0343000b
:1014f0008d834b0060044c00e0844c000000e90048
:101500000900e000d8ff32000c0343008d834b003c
:1015100060044c00e0844c000000e900d2ff37007a
:101520004200de004e5edd000c007000c258de009e
:1015300001e0a000cf0178000300e000daff3200f4
:1015400060001000e0801800d7ff3700f0ff2f0088
:10155000aaff3700f0ff2f00b9ff37000404be00d8
:101560006e010700870678000004fd008104fd007d
:101570006a010700078366000678a30003003200b3
:101580000960a7000800be002c0037000d78a300fa
:10159000020032000800be00280037000778a300d0
:1015a00026003a0001f0a10009f0a1000668a3009e
:1015b00003003200f1ff2700f0ff2f00baff3700d1
:1015c0000d68a300030032000800be008c8070008c
:1015d000b5ff37000768a30007003a000648a300dc
:1015e00003003200f1ff2700f0ff2f00aeff3700ad
:1015f0000d48a300030032006000b8008c8070002a
:10160000a9ff37000748a3000400320001f82700b3
:10161000000020008c807000a3ff37002a00070024
:101620000004fd008104fd0002057800260007008b
:101630000802be008a01780059ff37000160a0004f
:1016400012022000f25a880097ff37000100e000e4
:10165000120032000500e00010003200889fbe003a
:101660008a9fbe008c9fbe000006eb0001f8a3001d
:101670000300320060001000e08018000cf0a000b1
:1016800005f8a3000300320060021200e0821a0095
:101690000cf0a2008005eb0041ff37006000b800ad
:1016a000020005000478a300040032000578a300be
:1016b000030032000168a30001003a000200be00ee
:1016c0000160a000000006004f0ade004709de00ae
:1016d000f107b200f20fb2000b003200f207b100c6
:1016e0000170a000c708dd00c901de008380700022
:1016f0004700dd000400a6000000060060001000a6
:10170000e080180000000600810f700001003a0020
:10171000000006008182cf000500e00010003e00be
:101720008082cf00ee8242007028e1000400390080
:1017300007003e00800078000000eb000e0037003c
:10174000708312008600de000500dd000a0037000d
:10175000708352008600dd000000eb0006003700b9
:10176000e28252008508dd00708312000603de006d
:10177000868070000500dd007507b0000501ea00f5
:101780000400a6000000060060001000e0801800c1
:10179000000006000100e000260032006101110097
:1017a0007810e10023003c006022b8007010e100d6
:1017b0000400350080027800010078008000eb0012
:1017c000700151000200e0000900340070031100b4
:1017d000062add00822ade008603dd008782720091
:1017e0000200de00860bdd00070070008208de00cc
:1017f00084817100f4ff27000482620084817100fb
:1018000004002800848262006102600005f0a600e6
:101810000000060004827100070032000000e800aa
:10182000e0804800000006000002be006000b80032
:10183000efff37006000b800000006008101700073
:10184000270032008002eb0001f8a3000300320001
:1018500060001000e080180015002000f407200050
:101860000202420020003400f703200087036000da
:10187000060420000003630002082000000161004c
:101880004700de00c909dd0000807100c708de00e6
:101890000600e000080032008703710006003200f5
:1018a0001000b0000180b0000188a30002003200e7
:1018b000c108de000402e800f107b200f30f2000c7
:1018c0000320e10003003d004722dd00810072009b
:1018d0002900370001f827000000eb002600370040
:1018e0006000b80000000600680212007f20e100de
:1018f000020034006000b8001f0037006011b8001b
:101900007020e100040035008001780001007800bb
:101910008000eb00700252000400e0000900340077
:10192000f00312000719dd008419de000703dd0053
:10193000868171000400de00070bdd0006007000e8
:101940008408de00f7ff27008383630087037100ac
:101950000600280003036300070032000700e000d0
:1019600003003a006101600002817300020032004e
:101970001000b0000180b0000500a60000000600c5
:1019800001f0a00000000600881f78000304780022
:101990000300e00007003d0060001000e080180038
:1019a00060011900e081190002003b0001f02d00e8
:1019b000030037000400070008f0a70001f0a000b2
:1019c0004f04780000000600889fbe008a9fbe007a
:1019d000008270000402710004827100260032004f
:1019e0000004be000200be006011b8006b092000b8
:1019f000950220000182cf000a0039000541b100a4
:101a00000082cf00070039000541b1000982cf00f4
:101a1000040039000541b1000882cf0001003900ff
:101a20000541b10005425200120032000a003b009d
:101a300082817100610164008100d1000080d300c7
:101a40008984d3000884d3008b05e8000442e800b1
:101a5000f7ff3a00070037000804440089844c006f
:101a600000004800818048008b05e9000442e9003d
:101a7000f9ff3a00030007004f05be004f04be0007
:101a80000000060081002000618055000b003d0031
:101a90000b00200061fe2f000100e1001d0034005a
:101aa00082817100610164008904d1000884d3003f
:101ab0000000e800faff3a007100200061006400b5
:101ac000030070000200600009003200610444005d
:101ad000e0844c000988a500050032008b05e80071
:101ae0006808e10002003a008904d1000884d300ac
:101af000f20f20000258e10005003d00c75ddd0047
:101b0000f907b2008980750008007800000006001f
:101b10000bf827008b00780000000500270020004c
:101b200001f0a70017002000470bde00f60fb200ff
:101b3000040032000643e8000a0032004702b30006
:101b40000000060001037800f607b20006037000eb
:101b500002003a000703b300000006008702b3004a
:101b60000000060001037800f607b20006037000cb
:101b7000020032000770a000000006000760a0000d
:041b8000000006005b
:020000040000fa
:0200000401f009
:04000c0078ff000079
:020000040000fa
:0200000401f009
:040010005eff00008f
:020000040000fa
:0200000401f009
:040014007fff00006a
:020000040000fa
:0200000401f009
:04001800eeff0000f7
:020000040000fa
:0200000401f009
:04001c00dfff000002
:020000040000fa
:1000080040060000400600004006000040060000d0
:1000180040060000400600004006000040060000c0
:10002800400600004006000040060000860500006b
:1000380040060000400600004006000040060000a0
:100048004006000040060000400600004006000090
:10005800ea050000400600004006000040060000d7
:10006800200300009c02000040060000400600003b
:10007800280300004006000040060000400600007b
:100088004006000040060000400600004006000050
:100098004006000040060000400600004006000040
:1000a8004006000040060000400600004006000030
:1000b8004006000040060000400600004006000020
:1000c8004006000040060000400600004006000010
:1000d8004006000040060000400600004006000000
:1000e80040060000400600004006000040060000f0
:1000f80040060000400600004006000040060000e0
:1001080040060000400600004006000040060000cf
:100118004006000040060000c00500004006000040
:1001280040060000400600004006000040060000af
:10013800400600004006000040060000400600009f
:10014800400600004006000040060000400600008f
:10015800400600004006000040060000400600007f
:10016800400600004006000040060000400600006f
:10017800400600004006000040060000400600005f
:10018800400600004006000040060000400600004f
:10019800400600004006000040060000400600003f
:1001a800400600004006000040060000400600002f
:1001b800400600004006000040060000400600001f
:1001c800400600004006000040060000400600000f
:1001d80040060000400600004006000040060000ff
:1001e80040060000400600004006000040060000ef
:0801f800400600004006000073
:020000040000fa
:1002080040060000400600004006000040060000ce
:1002180040060000400600004006000040060000be
:100228004006000040060000400600008605000069
:10023800400600004006000040060000400600009e
:10024800400600004006000040060000400600008e
:10025800ea050000400600004006000040060000d5
:10026800200300009c020000400600004006000039
:100278002803000040060000400600004006000079
:10028800400600004006000040060000400600004e
:10029800400600004006000040060000400600003e
:1002a800400600004006000040060000400600002e
:1002b800400600004006000040060000400600001e
:1002c800400600004006000040060000400600000e
:1002d80040060000400600004006000040060000fe
:1002e80040060000400600004006000040060000ee
:1002f80040060000400600004006000040060000de
:1003080040060000400600004006000040060000cd
:100318004006000040060000c0050000400600003e
:1003280040060000400600004006000040060000ad
:10033800400600004006000040060000400600009d
:10034800400600004006000040060000400600008d
:10035800400600004006000040060000400600007d
:10036800400600004006000040060000400600006d
:10037800400600004006000040060000400600005d
:10038800400600004006000040060000400600004d
:10039800400600004006000040060000400600003d
:1003a800400600004006000040060000400600002d
:1003b800400600004006000040060000400600001d
:1003c800400600004006000040060000400600000d
:1003d80040060000400600004006000040060000fd
:1003e80040060000400600004006000040060000ed
:0803f800400600004006000071
:020000040000fa
:101b8400d00000007bcf0000c1c00000403b00003b
:101b9400787d00008b3a0000713d00004abf0000d0
:101ba4009a990000993f00005d6d0000c5bd0000da
:101bb400000000008038000000000000c841000060
:101bc400cdcc000014c20000ae470000d1c000001c
:101bd4000000000090c200001f85000017410000b3
:101be4000ad70000fc42000041000000450000004c
:081bf4004d00000055aa00009d
:020000040000fa
:101bfc000e00fa00008fbe002207980033079800f1
:101c0c004407980055079800660798006e029000ec
:101c1c003e1a78002e1278006e0290002e0390006f
:101c2c00be03900026029800370298006e029000c6
:101c3c004e039000de039000460298005702980075
:101c4c006e029000040078000080fa00000006008c
:101c5c000000fa0094588000e00f520002003a0095
:101c6c00e40020000b00370044568000e10f5200c6
:101c7c0002003a000002eb000600370014002000be
:101c8c00445688008680a900100020001d0807001b
:101c9c000002eb00040078000080fa00000006004f
:101cac000000fa0094588000e00f520002003a0045
:101cbc00e40020000d00370044568000e00f520075
:101ccc0002003a000002eb00080037001000200070
:101cdc003a0807008680a9000002eb0044568800f1
:101cec000002eb00545988000002eb00040078005d
:101cfc000080fa00000006000200fa00000f7800d5
:101d0c0044568000e00f520002003a00d40020003c
:101d1c00030037001e00780027000700000278003f
:101d2c00040078000080fa00000006000200fa00af
:101d3c00000f780044568000e00f520002003a0079
:101d4c00d40020000800370054598000e00f5200e6
:101d5c0002003a00c4002000030037001e00780087
:101d6c001500070000027800040078000080fa00db
:101d7c00000006000200fa00000f780044568000b4
:101d8c00e00f520002003a00d40020000700370098
:101d9c000000000054598000e00f5200fdff32009b
:101dac001e00780004000700000278000400780090
:101dbc000080fa00000006003200fa00889fbe0086
:101dcc008a9fbe008c9fbe00601798001402800092
:101ddc004522de00674262000482fb002407980063
:101dec009402800034079800ff3ffc0004b12000ef
:101dfc0014427800674262000482fb0067026200b2
:101e0c004522dd0016028000f5f12f0085026300eb
:101e1c0004827200140288003e0290009402880032
:101e2c000000880024568000355680006e13900008
:101e3c002403980035039800c4568000d5568000c2
:101e4c00040f9800150f9800e4568000f55680009a
:101e5c00240f9800350f9800045780001557800008
:101e6c00440f9800550f9800245780003557800078
:101e7c00640f9800750f98004457800055578000e8
:101e8c000417980015179800645780007557800048
:101e9c0024179800351798008457800095578000b8
:101eac00441798005517980054598000440798001f
:101ebc000002eb00545988009402800054079800eb
:101ecc00ff3ffc002e029000044278006742620043
:101edc000482fb00670262004522dd0016028000ce
:101eec00f5f12f0085026300048272001402880051
:101efc005e029000940288000000880080050700b4
:101f0c000002be006e139000048bbe004e029000c7
:101f1c00e10f52000c0036004e029000050020002c
:101f2c000400be0058fb07000002be000401be0006
:101f3c000000200001f82300f8fc07000002be009e
:101f4c00048fbe00030037000400200005f82300b6
:101f5c00048fbe000e0a90009e0a90000400be0082
:101f6c0046fb07000002be001e01be000400be00be
:101f7c0035fc07000002be000404be00246e840081
:101f8c00cfa2de000400be003cfb07000002be0036
:101f9c000401be000800be003dfb07000002be00ad
:101fac000403be00346e8400456e84000401be0040
:101fbc000600be0024fc07000002be006e13900059
:101fcc0044039800550398006e129000440390004f
:101fdc00d4039000f46e8400056f84000401be00ed
:101fec000600be002afb07000002be006407980032
:101ffc00750798006e1290006c02420074179800de
:10200c006e0a9000fe0a90000400be001bfb070045
:10201c000002be001e01be000400be000afc070048
:10202c000002be000404be00946f8400a56f8400ff
:10203c006e019000fe0190000400be0002fc07003f
:10204c000002be000403be002459800035598000f4
:10205c000401be000600be0016fb07000002be0015
:10206c000401be000800be0009fb07000002be0010
:10207c000403be00d46e8400e56e84000401be002f
:10208c000600be00f0fb07000002be000405be0007
:10209c004e0a9000de0a90000400be00f7fa07001a
:1020ac000002be001e01be000400be00e6fb0700dd
:1020bc000002be000404be00746f8400856f8400af
:1020cc006e019000fe0190000400be00defb0700d4
:1020dc000002be000403be00546f8400656f8400d0
:1020ec000401be000600be00f2fa07000002be00aa
:1020fc000401be000800be00e5fa07000002be00a5
:10210c000403be00d46e8400e56e84000401be009e
:10211c000600be00ccfb07000002be000404be009b
:10212c002e0a9000be0a90000400be00d3fa0700ed
:10213c000002be001e01be000400be00c2fb070070
:10214c000002be000406be00346f8400456f84009c
:10215c006e019000fe0190000400be00bafb070067
:10216c000002be000403be00146f8400256f8400bf
:10217c000401be000600be00cefa07000002be003d
:10218c000401be000c00be00c1fa07000002be0034
:10219c000403be00d46e8400e56e84000401be000e
:1021ac000600be00a8fb07000002be000400be0033
:1021bc007e1390000a02be000801be008cfe0700d0
:1021cc006e12900044039000d4039000a458800039
:1021dc00b55880000401be000600be00acfa070032
:1021ec000002be0064079800750798006e129000fc
:1021fc0078024200041f98004e129000de129000ec
:10220c000400be009dfa07000002be001e01be00c5
:10221c000400be008cfb07000002be000404be00dc
:10222c00b46e8400c56e84006e019000fe019000b7
:10223c000400be0084fb07000002be000403be00c5
:10224c0004598000155980000401be000600be0030
:10225c0098fa07000002be000401be000800be0090
:10226c008bfa07000002be000403be00546e84000b
:10227c00656e84000401be000600be0072fb070000
:10228c000002be000405be002e129000be1290008b
:10229c000400be0079fa07000002be001e01be0059
:1022ac000400be0068fb07000002be000404be0070
:1022bc00946e8400a56e84006e019000fe01900067
:1022cc000400be0060fb07000002be000403be0059
:1022dc00e4588000f55880000401be000600be00e2
:1022ec0074fa07000002be000401be000800be0024
:1022fc0067fa07000002be000403be00546e84009f
:10230c00656e84000401be000600be004efb070093
:10231c000002be000404be000e1290009e1290003b
:10232c000400be0055fa07000002be001e01be00ec
:10233c000400be0044fb07000002be000406be0001
:10234c00746e8400856e84006e019000fe01900016
:10235c000400be003cfb07000002be000403be00ec
:10236c00c4588000d55880000401be000600be0091
:10237c0050fa07000002be000401be000c00be00b3
:10238c0043fa07000002be000403be00546e840032
:10239c00656e84000401be000600be002afb070027
:1023ac000002be000400be000e1b90000a02be001c
:1023bc000801be000efe07000002eb0004007800ce
:1023cc004f06be004f05be004f04be000080fa0051
:1023dc00000006003400fa00889fbe00001f980021
:1023ec00111f980044568000e00f520002003a0082
:1023fc00d4002000a5003700007d20000100200043
:10240c0054040700140280004522de00674262007b
:10241c000482fb0024079800940280003407980083
:10242c00ff3ffc0004b120001442780067426200b8
:10243c000482fb00670262004522dd001602800068
:10244c00f5f12f00850263000482720014028800eb
:10245c003e0290009402880000008800c456800060
:10246c00d5568000240f9800350f9800e456800054
:10247c00f5568000440f9800550f980004578000c3
:10248c0015578000640f9800750f98002457800032
:10249c003557800004179800151798004457800092
:1024ac005557800024179800351798006457800002
:1024bc007557800044179800551798008457800072
:1024cc009557800064179800751798005459800030
:1024dc00440798000002eb005459880094028000d5
:1024ec0054079800ff3ffc002e0290000442780035
:1024fc00674262000482fb00670262004522dd0035
:10250c0016028000f5f12f00850263000482720030
:10251c00140288005e02900094028800000088007b
:10252c004e029000e10f52000c0036004e0290005b
:10253c00050020000400be00d3f907000002be0015
:10254c000401be000000200001f8230073fb07000b
:10255c000002be00048fbe00030037000400200000
:10256c0005f82300048fbe002e0a9000be0a9000ce
:10257c000400be00c1f907000002be001e01be002f
:10258c000400be00b0fa07000002be000404be0046
:10259c00246e8400cfa2de000400be00b7f9070051
:1025ac000002be000401be000800be00b8f907001e
:1025bc000002be000403be00346e8400456e84002d
:1025cc000401be000600be009ffa07000002be0018
:1025dc006407980075079800f46e8400056f8400fa
:1025ec000401be006e009000fe009000a8f90700e8
:1025fc000002be00040f9800150f9800d46e8400e2
:10260c00e56e84000401be000e1890009e18900028
:10261c0042fb07000002be000404be000e12900034
:10262c009e1290000400be0094f907000002be0048
:10263c001e01be000400be0083fa07000002be00ab
:10264c000401be000800be009af907000002be009b
:10265c000404be00946f8400a56f84000e099000e2
:10266c009e0990000400be0077fa07000002be002d
:10267c000401be000800be0085f907000002be0080
:10268c0024598800355988000002eb0004007800ba
:10269c004f04be000080fa00000006002c00fa0077
:1026ac00889fbe0094588000e00f520002003a0050
:1026bc00e4002000ae00370044568000e00f5200ca
:1026cc0002003a00d4002000a9003700007d200051
:1026dc0001002000b10307000002be00240798008f
:1026ec00350798006022b800c4588800d558880077
:1026fc006022b800e4588800f55888006022b800c1
:10270c0004598800155988002e009000be009000d6
:10271c00c7030700140280004522de0067426200f6
:10272c000482fb0044079800940280005407980030
:10273c00ff3ffc0004b120001442780067426200a5
:10274c000482fb00670262004522dd001602800055
:10275c00f5f12f00850263000482720014028800d8
:10276c005e0290009402880000008800c45680002d
:10277c00d5568000040f9800150f9800e456800081
:10278c00f5568000240f9800350f980004578000f0
:10279c0015578000440f9800550f9800245780005f
:1027ac0035578000640f9800750f980044578000cf
:1027bc00555780000417980015179800645780002f
:1027cc00755780002417980035179800845780009f
:1027dc00955780004417980055179800545980005d
:1027ec00640798000002eb005459880094028000a2
:1027fc0074079800ff3ffc004e02900004427800e2
:10280c00674262000482fb00670262004522dd0021
:10281c0016028000f5f12f0085026300048272001d
:10282c00140288007e029000940288000000880048
:10283c006e029000e10f52000c0036006e02900008
:10284c00050020000400be000ff907000002be00c6
:10285c000401be000000200001f82300affa0700bd
:10286c000002be00048fbe000300370004002000ed
:10287c0005f82300048fbe000e1290009e129000eb
:10288c000400be00fdf807000002be001e01be00e1
:10289c000400be00ecf907000002be00c45888001a
:1028ac00d55888002e129000be1290000400be0075
:1028bc00f2f807000002be001e01be000400be00bc
:1028cc00e1f907000002be00e4588800f5588800c2
:1028dc004e129000de1290000400be00e7f80700d4
:1028ec000002be001e01be000400be00d6f90700a7
:1028fc000002be0004598800155988000e0a900089
:10290c009e0a90000400be00dcf807000002be0026
:10291c001e01be000400be00cbf907000002be0081
:10292c000404be00246e8400cfa2de000400be00ae
:10293c00d2f807000002be000401be000800be0071
:10294c00d3f807000002be000403be00346e8400fe
:10295c00456e84000401be000600be00baf90700f3
:10296c000002be00a4588800b55888000002eb0095
:10297c00040078004f04be000080fa00000006003e
:10298c000e00fa00008fbe00220798003307980053
:10299c004407980055079800660798006e0290004f
:1029ac003e1a78002e1278006e0290002e039000d2
:1029bc00be03900026029800370298006e02900029
:1029cc004e039000de0390004602980057029800d8
:1029dc006e029000040078000080fa0000000600ef
:1029ec002800fa00889fbe008a9fbe008c9fbe0004
:1029fc001017980094588000e00f520002003a0023
:102a0c00e40020001101370044568000e00f520012
:102a1c0002003200b40020000c0137000002eb0071
:102a2c00040f780066024700040078006901070073
:102a3c0000027800040f78001e027800e00f5200ac
:102a4c00020032001e02780000013700ac020700c1
:102a5c000002be001e139000048bbe0024568000a2
:102a6c003556800061024200e0824a0024568800fc
:102a7c003556880024568000355680001e13900071
:102a8c0024039800350398003e039000ce03900079
:102a9c00246e8400cfa2de000402530085825b000a
:102aac000400be0075f807000003be00346e8400fd
:102abc00456e84000401be000600be0062f90700ea
:102acc000002be001e1390004403980055039800aa
:102adc001e12900044039000d4039000f46e840006
:102aec00056f84000401be000600be0068f80700f4
:102afc000002be0014079800250798001e129000d3
:102b0c006c024200241798001e0a9000ae0a900036
:102b1c000400be0059f807000004be00946f840046
:102b2c00a56f84001e019000ae0190000400be0051
:102b3c0045f907000002be000403be0024598000c2
:102b4c00355980000401be000600be0059f807008c
:102b5c000002be000401be000800be004cf80700d5
:102b6c000002be000403be00d46e8400e56e840037
:102b7c000401be000600be0033f907000002be00cf
:102b8c000405be007e0290008e0a90000400be0078
:102b9c003af807000004be00746f8400856f84004f
:102bac001e019000ae0190000400be0026f9070043
:102bbc000002be000403be00546f8400656f8400e5
:102bcc000401be000600be003af807000002be0079
:102bdc000401be000800be002df807000002be0074
:102bec000403be00d46e8400e56e84000401be00b4
:102bfc000600be0014f907000002be000404be006b
:102c0c005e029000ee0290000400be001bf807006c
:102c1c000006be00346f8400456f84001e019000d6
:102c2c00ae0190000400be0007f907000002be00d0
:102c3c000403be00146f8400256f84000401be00e1
:102c4c000600be001bf807000002be000401be0017
:102c5c000c00be000ef807000002be000403be000c
:102c6c00d46e8400e56e84000401be000600be0034
:102c7c00f5f807000002be000400be002e13900001
:102c8c000a02be000801be003dff07001e129000a4
:102c9c0044039000d4039000a4588000b5588000e1
:102cac000401be000600be00f9f707000002be00da
:102cbc0014079800250798001e1290007802420015
:102ccc00341798007e0a90008e1290000400be000b
:102cdc00eaf707000004be00b46e8400c56e8400e1
:102cec001e019000ae0190000400be00d6f8070053
:102cfc000002be000403be00045980001559800078
:102d0c000401be000600be00eaf707000002be0088
:102d1c000401be000800be00ddf707000002be0083
:102d2c000403be00546e8400656e84000401be0072
:102d3c000600be00c4f807000002be000405be0079
:102d4c005e0a9000ee0a90000400be00cbf707006c
:102d5c000004be00946e8400a56e84001e019000d9
:102d6c00ae0190000400be00b7f807000002be00e0
:102d7c000403be00e4588000f55880000401be0036
:102d8c000600be00cbf707000002be000401be0027
:102d9c000800be00bef707000002be000403be0020
:102dac00546e8400656e84000401be000600be00f3
:102dbc00a5f807000002be000404be003e0a900005
:102dcc00ce0a90000400be00acf707000006be005f
:102ddc00746e8400856e84001e019000ae0190001c
:102dec000400be0098f807000002be000403be00f9
:102dfc00c4588000d55880000401be000600be00f7
:102e0c00acf707000002be000401be000c00be00bf
:102e1c009ff707000002be000403be00546e84003e
:102e2c00656e84000401be000600be0086f8070033
:102e3c000002be000400be003e1390000a02be0059
:102e4c000801be00cefe07000002eb000400780073
:102e5c004f06be004f05be004f04be000080fa00b6
:102e6c00000006000a00fa0040479800310798005d
:102e7c004207980094588000e00f520002003a007c
:102e8c00e40020002200370044568000e00f52007e
:102e9c0002003200b40020001d0037000002eb00dd
:102eac00140798000002eb00040f780001003700b3
:102ebc000000000024dc280014427800ce019000b1
:102ecc003e019000ce40900004407800e9030700da
:102edc0000027800140798001e029000e00f5200c8
:102eec0003003200e20f52000300320007003700eb
:102efc000002eb00060037001e0fe8001403200050
:102f0c009e027800848f5200e9ff36001e0290006a
:102f1c00040078000080fa00000006000a00fa00a5
:102f2c004047980031079800420798009458800059
:102f3c00e00f520002003a00e400200022003700ab
:102f4c0044568000e00f520002003200b400200012
:102f5c001d0037000002eb00140798000002eb0084
:102f6c00040f7800010037000000000024dc28006a
:102f7c0014427800ce0190003e019000ce409000ab
:102f8c0004407800770407000002780014079800ca
:102f9c001e029000e00f520003003200e20f5200bc
:102fac0003003200070037000002eb000600370078
:102fbc001e0fe800140320009e027800848f52003c
:102fcc00e9ff36001e029000040078000080fa0031
:102fdc00000006001800fa00300f98000002eb0009
:102fec00140798000042eb00444798006402470025
:102ffc0004007800550907000002780014079800b7
:10300c001e029000e00f5200020032001e029000df
:10301c005f0037004e4290000482fb0061026200a8
:10302c00e00f520009003a000002eb00040f780098
:10303c00010037001e0fe800743e20009e0278004d
:10304c00848f5200fbff3400e8ff37006802470012
:10305c00e200200084007800b0c3b30081ff0700b9
:10306c0000027800140798001e029000e00f520036
:10307c00020032001e029000450037000e4a9000fc
:10308c00744798001e4a9000644798003e029000d6
:10309c000402ea00cfa2de003e0b9000440398002d
:1030ac00550398002e4a9000744798003e4a9000b1
:1030bc00644798003e0290000402ea00cfa2de00b2
:1030cc003e0b900024039800350398004e4a900064
:1030dc00744798005e4a9000644798003e02900046
:1030ec000402ea00cfa2de003e0b900064039800bd
:1030fc00750398006e4a9000744798007e4a9000c1
:10310c00644798003e029000cfa2de003e0b900078
:10311c00048bbe000e529000744798001e52900013
:10312c00644798003e0290000402ea00cfa2de0041
:10313c003e0b9000240b9800350b98002e529000fb
:10314c00744798003e529000644798003e029000ed
:10315c000402ea00cfa2de003e0b9000040b9800a4
:10316c00150b98004e529000744798005e529000d8
:10317c00644798003e0290000402ea00cfa2de00f1
:10318c003e0b9000440b9800550b98000002eb008e
:10319c00040078000080fa00000006003600fa00f7
:1031ac00889fbe0094588000e00f520002003a0045
:1031bc00e40020009f00370044568000e00f5200ce
:1031cc0002003200b40020009a003700007d20007d
:1031dc0001002000f10007000002be00240f98003f
:1031ec00350f98006022b800048fbe006022b80032
:1031fc0024079800350798006022b800440798000f
:10320c00550798006022b80064079800750798006d
:10321c006022b800040f9800150f98000002eb0014
:10322c00440f98006022b800c4588800d558880014
:10323c006022b800e4588800f55888006022b80075
:10324c0004598800155988007a0247000400780058
:10325c0060ff070000027800440f98004e0a9000af
:10326c00e00f5200020032004e0a9000710037004d
:10327c005e129000ee1290001e0f42005e974a0004
:10328c007e1290008e1a90002e039000be039000c8
:10329c000602420087824a002407980035079800ee
:1032ac001e1a9000ae1a90004e039000de039000a0
:1032bc000602420087824a0044079800550798008e
:1032cc005e0a9000ee0a90006e039000fe039000e0
:1032dc000602420087824a0064079800750798002e
:1032ec000e0a90009e0a900061024200e0824a00a1
:1032fc00040f9800150f98002e089000be0890003f
:10330c00be00070000027800e00f5200ceff320032
:10331c001e00be0059f607000004be000e08900007
:10332c009e08900055f607000002be000401be0086
:10333c000800be00f9f707000002be00c458880060
:10334c00d55888002e009000be0090004bf6070068
:10335c000004be000e0890009e08900047f607007f
:10336c000002be000401be000800be00ebf707001f
:10337c000002be00e4588800f55888004e0090000a
:10338c00de0090003df607000004be000e08900021
:10339c009e08900039f607000002be000401be0032
:1033ac000800be00ddf707000002be0004598800cb
:1033bc00155988006e009000fe0090002ff6070053
:1033cc000004be000e0890009e0890002bf607002b
:1033dc000002be000401be000800be00cff70700cb
:1033ec000002be000404be00246e8400cfa2de00e6
:1033fc000400be0021f607000002be000401be005e
:10340c000800be0022f607000002be000403be0046
:10341c00346e8400456e84000401be000600be00bc
:10342c0009f707000002be00a4588800b5588800b0
:10343c000002eb00040078004f04be000080fa008c
:10344c00000006000a00fa00140280004522de008b
:10345c0067426200044f78009402800014079800c1
:10346c00ff3ffc0024b42000144278006742620045
:10347c000482fb00670262004522dd001602800018
:10348c00f5f12f008502630004827200140288009b
:10349c001e0290009402880000008800245a8000cc
:1034ac00355a800024079800350798009502800053
:1034bc0045079800ff3ffc001e42780067426200ff
:1034cc000482fb00670262004522dd0016028000c8
:1034dc00f5f12f008502630004827200140288004b
:1034ec004e02900094028800000088002e0290008a
:1034fc00be0290000400be000080fa00000006002e
:10350c000400fa00a4088000040f7800b4088000be
:10351c00140798001e02be000400be000080fa00d2
:10352c00000006000000fa00c6ff07000002be0003
:10353c0064024200e0824a004d2bdd004322de0093
:10354c0004027300c32ade000400be000080fa00ef
:10355c00000006000400fa00008fbe001e00be0032
:10356c000e0007000002be000400be003000070081
:10357c000080fa00000006000400fa00008fbe0074
:10358c001e00be00130007000002be000400be00b7
:10359c00270007000080fa00000006000400fa0073
:1035ac00008fbe00a7ff07000003be001e00be0078
:1035bc00430add00cd02de00850272004302dd000d
:1035cc000602420087824a000400be000080fa0016
:1035dc00000006000400fa00008fbe0099ff0700ef
:1035ec000002be003e034200ae834a000602be004b
:1035fc000400be000080fa00000006000400fa007f
:10360c00008fbe008fff07000002be00be0f5200ed
:10361c00ae8f5a0002003100140020000100370068
:10362c000002eb00040078000080fa0000000600a5
:10363c000400fa00008fbe000000000081ff0700ac
:10364c000002be00be0f5200ae8f5a00fbff3900c5
:10365c000080fa00000006000c00fa003007980009
:10366c004107980052079800140280004522de00a2
:10367c0067426200044f780094028000140798009f
:10368c00ff3ffc0024b42000144278006742620023
:10369c000482fb00670262004522dd0016028000f6
:1036ac00f5f12f0085026300048272001402880079
:1036bc001e02900094028800000088008bc0a900b4
:1036cc009bc0a8005e029000645a88003e029000e5
:1036dc00ce029000432bdd00cd23de008703730068
:1036ec004323dd00245a8000355a80000602420034
:1036fc0087824a00445a8800555a880094028000f8
:10370c0024079800ff3ffc001e42780067426200cd
:10371c000482fb00670262004522dd001602800075
:10372c00f5f12f00850263000482720014028800f8
:10373c002e02900094028800000088000080fa009d
:10374c00000006000600fa00140280004522de008c
:10375c0067426200044f78009402800014079800be
:10376c00ff3ffc0024b42000144278006742620042
:10377c000482fb00670262004522dd001602800015
:10378c00f5f12f0085026300048272001402880098
:10379c001e02900094028800000088009bc0a900c3
:1037ac008bc0a9000082eb008082eb00445a880099
:1037bc00555a88000002eb00645a8800940280007d
:1037cc0024079800ff3ffc001e427800674262000d
:1037dc000482fb00670262004522dd0016028000b5
:1037ec00f5f12f0085026300048272001402880038
:1037fc002e02900094028800000088000080fa00dd
:10380c00000006002e00fa00406f9800516f9800df
:10381c0094588000e00f520002003a00e4002000af
:10382c00bb00370044568000e00f5200020032000b
:10383c00b4002000b60037000002eb00040f780043
:10384c0004c8b300644798006602470012002000c9
:10385c0084007800b0c6b300b0fd07000002780009
:10386c00040f78001e027800e00f520002003200b4
:10387c001e027800a60037000042eb007447980047
:10388c000f003700400020000100200031ff07002e
:10389c00670247001200200084007800b0c6b30015
:1038ac0070fd070000027800040f78001e027800fb
:1038bc00e00f5200020032001e0278009400370024
:1038cc00fe42900004c4b30084cf5200edff3a00d6
:1038dc0014c0b300044f9800680247001200200087
:1038ec0084007800b0c6b3008cfd0700000278009d
:1038fc00040f78001e027800e00f52000200320024
:10390c001e0278008200370004c8b300144f9800e0
:10391c0069024700120020008400780010c0b30038
:10392c007efd070000027800040f78001e0278006c
:10393c00e00f5200020032001e02780074003700c3
:10394c004e6a9000244f98006a0247001200200033
:10395c008400780090c1b30070fd0700000278006d
:10396c00040f78001e027800e00f520002003200b3
:10397c001e027800660037005e6a900067426200a3
:10398c00344f98003e4a9000e64f52000200360039
:10399c0064c0b300344f98006b0247001200200043
:1039ac0084007800a0c1b3005cfd07000002780021
:1039bc00040f78001e027800e00f52000200320063
:1039cc001e0278005200370084c1b300444f9800a7
:1039dc006c0247001200200084007800b0c1b300d4
:1039ec004efd070000027800040f78001e027800dc
:1039fc00e00f5200020032001e0278004400370033
:103a0c000042eb00544f98006d024700120020005a
:103a1c0084007800c0c1b30040fd070000027800ac
:103a2c00040f78001e027800e00f520002003200f2
:103a3c001e0278003600370024c1b300644f980092
:103a4c006e024700120020008400780070c3b3009f
:103a5c0032fd070000027800040f78001e02780087
:103a6c00e00f5200020032001e02780028003700de
:103a7c0014c0b300744f98006f024700120020006e
:103a8c008400780080c3b30024fd07000002780096
:103a9c00040f78001e027800e00f52000200320082
:103aac001e0278001a0037009efe07000003be00bd
:103abc00047d2000050020000602420087824a0097
:103acc00140798002507980070024700040078003e
:103adc0040fd070000027800040f78001e027800f9
:103aec00e00f5200020032001e027800080037007e
:103afc008cfe07000003be001e029000ae02900078
:103b0c00840f5300858f5b00efff39000002eb0040
:103b1c00040078000080fa00000006000000fa00a3
:103b2c0094588000e00f520002003a00e40020009c
:103b3c000800370044568000e00f520003003200aa
:103b4c00d6fa0700000278000200370093fd070048
:103b5c0000027800040078000080fa0000000600e3
:103b6c000a00fa004007980084598000e00f5200c8
:103b7c0002003a0064002000590037000002eb00fc
:103b8c00040f7800140280004522de0067426200b8
:103b9c00244798009402800024079800ff3ffc0003
:103bac00e4b2200014427800674262000482fb00f9
:103bbc00670262004522dd0016028000f5f12f003d
:103bcc008502630004827200140288002e029000a9
:103bdc009402880000008800a4598000e00f520075
:103bec000300320094002000040f78002b003700f3
:103bfc0094598000e00f5200030032008400200032
:103c0c00040f780025003700341080006102620038
:103c1c00e00f520015003a0034108000640262007c
:103c2c00e00f520011003a0034108000680262006c
:103c3c00e00f52000d003a00341080006202620066
:103c4c00e00f520009003a0034108000700262004c
:103c5c00e00f520005003a004510800004002400db
:103c6c0004826200e00f520003003200a400200026
:103c7c00040f7800090037008620a9004e0290003e
:103c8c00a45988009620a8009680a90094a0a900a9
:103c9c009420a9000002eb00f459880094028000e3
:103cac0034079800ff3ffc002e42900067426200f0
:103cbc000482fb00670262004522dd0016028000d0
:103ccc00f5f12f0085026300048272001402880053
:103cdc003e02900094028800000088001e027800ca
:103cec00040078000080fa00000006000000fa00d2
:103cfc000002eb00441088000642a8000080fa0085
:103d0c00000006000200fa00000f78001e02780086
:103d1c006123b8000082eb008082eb0006024200b7
:103d2c0087824a003600200007002000860f5200d0
:103d3c00878f5a001f003e0004600100030037000b
:103d4c00090037000f003700150037009680a800d7
:103d5c00b40480004422de00614262000482fb0055
:103d6c00b45988001300370094a0a800a404800064
:103d7c004522de00614262000482fb00c4598800c7
:103d8c000c0037009420a800a40480000402d10089
:103d9c00614262000482fb00d459880005003700a0
:103dac0014002000f4598800f4598000e45988006c
:103dbc00000000000080fa00000006000200fa007b
:103dcc00000f78001e0278006123b8000082eb001f
:103ddc008082eb000602420087824a0036002000f7
:103dec0007002000860f5200878f5a001f003e00ec
:103dfc000460010003003700090037000f00370092
:103e0c00150037009680a900b40480004422de001f
:103e1c00614262000482fb00b45988001300370031
:103e2c0094a0a900a40480004522de006142620037
:103e3c000482fb00c45988000c0037009420a900b0
:103e4c00a40480000402d100614262000482fb00e1
:103e5c00d4598800050037000002eb00f4598800a3
:103e6c00f4598000e4598800000000000080fa003a
:103e7c00000006001600fa00005798001157980031
:103e8c00120f9800230f980084598000e00f520005
:103e9c0002003a0064002000af0037000002eb0083
:103eac00140798000002eb00040f78001402800045
:103ebc004522de0067426200044f980094028000a5
:103ecc0054079800ff3ffc00e4b220001442780035
:103edc00674262000482fb00670262004522dd003b
:103eec0016028000f5f12f00850263000482720037
:103efc00140288005e029000940288000000880082
:103f0c00a4598000e00f52000300320094002000fe
:103f1c00040f78002400370094598000e00f520001
:103f2c000300320084002000040f78001e003700cc
:103f3c003410800061026200e00f520015003a005c
:103f4c003410800064026200e00f520011003a004d
:103f5c003410800068026200e00f52000d003a003d
:103f6c003410800062026200e00f520009003a0037
:103f7c003410800070026200e00f520005003a001d
:103f8c00451080000400240004826200e00f5200ff
:103f9c0003003200a4002000040f78000200370058
:103fac001400200094598800940280006407980043
:103fbc00ff3ffc000e4a9000674262000482fb0047
:103fcc00670262004522dd0016028000f5f12f0029
:103fdc008502630004827200140288006e02900055
:103fec0094028800000088001e027800e00f520046
:103ffc000400320068025200e20f52001e003e0024
:10400c00120037008e529000e4cfb30004c262005d
:10401c00644f98000e5290000404a000744f980056
:10402c000002eb00040f7800cc0207006e489000f1
:10403c00d902070000027800040f78001e027800f5
:10404c00e00f520039003a000d0037009e0290003c
:10405c0014032000848f520007003e001000200043
:10406c000100200044fd07001e0290000402e8003d
:10407c00140798008bff37001e02780036003700bb
:10408c001e509000c402070000027800040f780054
:10409c001e027800e00f520026003a00b40207001e
:1040ac007e489000bc02070000027800040f7800e4
:1040bc001e027800e00f520020003a0008c2a9004e
:1040cc002e0a9000340798000002eb002407980099
:1040dc00110037003e0290000402e90034079800fa
:1040ec00be0090001e089000cf020700000278006e
:1040fc00040f78001e027800e00f520011003a0005
:10410c001e0a90000402e800140f98002e02900082
:10411c000402e80024079800ae0290002e0a9000da
:10412c00848f5200ebff39000700370000000000bd
:10413c0005003700000000000300370000000000fd
:10414c0001003700000000008e0207000002eb00a7
:10415c00945988001e027800040078000080fa0050
:10416c00000006001400fa00604f9800714f980090
:10417c00020f9800130f980084598000e00f520032
:10418c0002003a00640020009f0037000002eb00a0
:10419c00140798000002eb00040f78001402800052
:1041ac004522de00674262000482fb00340798005f
:1041bc009402800044079800ff3ffc00e4b220000a
:1041cc0014427800674262000482fb0067026200be
:1041dc004522dd0016028000f5f12f0085026300f8
:1041ec0004827200140288004e029000940288002f
:1041fc0000008800a4598000e00f52000300320038
:10420c0094002000040f780024003700945980009b
:10421c00e00f52000300320084002000040f7800ed
:10422c001e0037003410800061026200e00f520063
:10423c0015003a003410800064026200e00f520056
:10424c0011003a003410800068026200e00f520046
:10425c000d003a003410800062026200e00f520040
:10426c0009003a003410800070026200e00f520026
:10427c0005003a004510800004002400048262000e
:10428c00e00f520003003200a4002000040f78005d
:10429c00020037001400200094598800940280001a
:1042ac0054079800ff3ffc003e0290000442780047
:1042bc00674262000482fb00670262004522dd0057
:1042cc0016028000f5f12f00850263000482720053
:1042dc00140288005e02900094028800000088009e
:1042ec001e027800e00f52000400320068025200f7
:1042fc00e20f52001b003e000f003700ee4a900008
:10430c00e4cfb30004c26200444f98000002eb00fb
:10431c00040f7800110207004e4890001e0207009f
:10432c0000027800040f78001e027800e00f5200a3
:10433c002c003a000d0037009e0290001403200060
:10434c00848f520007003e00100020000100200066
:10435c0089fc07001e0290000402e8001407980074
:10436c008cff37001e027800270037007e48900033
:10437c000902070000027800040f78001e02780082
:10438c00e00f520019003a000002eb0024079800dd
:10439c000f0037000e0a9000144278000440780099
:1043ac00fd01070000027800040f78001e0278005f
:1043bc00e00f52000f003a000e0a90000402e800d1
:1043cc00040f98002e0290000402e80024079800c5
:1043dc00ae0290001e0a9000848f5200edff39004f
:1043ec00050037000000000003003700000000004b
:1043fc000100370000000000e20107000002eb00a2
:10440c00945988001e027800040078000080fa009d
:10441c00000006000000fa002cc3a8002ce3a80042
:10442c00d022a90085368000f40f2e008482620011
:10443c00043020000482720084368800d002a80068
:10444c0025358000f40f2e008482620004002100c8
:10445c00048272002435880024358000f401b300f6
:10446c00243588000080fa00000006000400fa00e1
:10447c00000f7800110798001e027800e00f520020
:10448c0002003a0014002000040f78001e0278008d
:10449c00e70f52000200360074002000040f780071
:1044ac001e027800044278000440780056ebb700f6
:1044bc000002eb000411880070a7a900d5ff0700cb
:1044cc00041180000480a1000490a0000411880055
:1044dc000002eb001411880023e2a80023a2a9001b
:1044ec001e029000f80f520041003200f80f5200eb
:1044fc0010003e00e40f520049003200e40f52005d
:10450c0005003e00e20f52004b003200e30f520058
:10451c00460032004b003700e80f52003a003200e0
:10452c00f00f520035003200e60f52003900320015
:10453c0044003700a50f2000850f520020003200e8
:10454c00a50f2000850f52000a003e0045062000f2
:10455c00850f520020003200850c2000850f520080
:10456c001a00320005032000850f52001d00320096
:10457c0034003700451f2000850f52000a0032001e
:10458c00853e2000850f520004003200e515200006
:10459c00850f5200070032002a0037000002eb00a2
:1045ac00441188002a0037001400200044118800b0
:1045bc002700370024002000441188002400370015
:1045cc0034002000441188002100370044002000f2
:1045dc00441188001e00370094002000441188000c
:1045ec001b003700540120004411880018003700cc
:1045fc00a402200044118800150037000404200098
:10460c00441188001200370014082000441188005f
:10461c000f003700d40a2000441188000c0037002a
:10462c00341020004411880009003700a415200024
:10463c0044118800060037008420200044118800b3
:10464c0003003700144120004411880000000000d2
:10465c009580a9009560a9008580a9008560a900b6
:10466c0064b5200014427800674262000482fb00ab
:10467c00670262005605800085ff2f0085026300eb
:10468c0004827200540588004405800004c0a10017
:10469c0004d0a10004e0a1004405880021e2a80098
:1046ac00000000002342a8000080fa000000060071
:1046bc000e00fa005007980061079800945a800089
:1046cc00e00f52000100320013020700745a800000
:1046dc00e00f520001003a00b0030700db010700b5
:1046ec006e029000e00f5200800032000002eb00de
:1046fc00040f78000002eb00140798000002eb0096
:10470c00240798000002eb00040f780063003700c8
:10471c001e027800de0290000482420014427800ef
:10472c000402fb00140798009e0290000402200073
:10473c00848f52000b003a002e029000e00f5200c2
:10474c00500034002e0290000402e9008402420062
:10475c00048020000482420005382000050a7800fd
:10476c004d0037001e0290001404b100140798008d
:10477c001e029000f90f5200030034001e0290003c
:10478c000402b100140798001e029000e00f5200c2
:10479c003e0035001e029000f90f52003d003c0017
:1047ac001e0290008402420004a9200004824200f0
:1047bc0094027800450798004e029000140278008d
:1047cc0004024200840278002e029000848242008f
:1047dc0004082000848f520035003e000002eb00dc
:1047ec00340798001a003700ce0290003e02900069
:1047fc000482e80065427a000482fb00c722dd00d7
:10480c002e029000040342000480200004024300a6
:10481c00050a78002e0290000402e8002407980094
:10482c002e02900084024200048020000482420088
:10483c0005082000050a78002e0290000402e8000a
:10484c00240798003e0290000402e8003407980008
:10485c00be0290004e02900014027800848f520029
:10486c00e1ff39002e0290000402e90084024200ac
:10487c00048020000482420005182000050a7800fc
:10488c0005003700000000000300370000000000a6
:10489c0001003700000000001e0fe8009e027800a7
:1048ac006e029000848f520099ff3900010037008e
:1048bc00000000002e0290000402e9008402420075
:1048cc00048020000482420005382000050a78008c
:1048dc002e029000945a880022a322006000b80097
:1048ec005dfb070000000000010037000000000025
:0848fc000080fa000000060034
:020000040000fa
:104904004e0b00000800000002000000000001003f
:10491400000000000000000000080000000100008a
:1049240000000000000a0000c400000002000000b3
:10493400020001000304000003010100010400005f
:104944000301030001030000030101000001000052
:10495400010004000001010003010300000303003f
:104964000100040000010100010102000001010036
:10497400040001000303030003000300010300001b
:10498400040001000301010002000300030200000f
:1049940003010300000303000300040000010300fb
:1049a40003010400000303000103030000010300ea
:1049b40001000300000101000100010000030000e8
:1049c40003000100010300000400010001010300d1
:1049d40003000100030300000400030001010300bd
:1049e40004000300010303000400030003010100a9
:1049f400000a04000a0a0a00100a16000a1a0a0029
:104a0400200a26000a2c0a00300a36000a3c0a0052
:104a1400420a46000a4a0a00500a56000a5c0a0082
:104a2400620a68000a6c0a00720a78000a7e0a00a8
:104a3400840a8a000a0000002e0b00001200000005
:104a44000200000000000000000000000000000060
:104a5400000000000000000000000000100b000037
:104a64001e00000002000000000000000000000022
:104a74000000000000000000000000000000000032
:104a840000000000300545000000000000000000a8
:104a9400c40a00004c00000000000000400b0000ad
:104aa4000e000000020000000000020000000000f0
:104ab4000000ff00ffffff0000000000560b000095
:104ac40008000000020000000400010000000000d3
:104ad40000000000000900000001000000000000c8
:104ae4005e0b000002000000000000000000000057
:020000040000fa
:104af4000000fa000000000034108000610262002f
:104b0400e00f5200fcff3a0034108000640262009f
:104b1400e00f5200f8ff3a0034108000680262008f
:104b2400e00f5200f4ff3a00341080006202620089
:104b3400e00f5200f0ff3a0034108000700262006f
:104b4400e00f5200ecff3a004510800004002400fe
:104b540004826200e00f5200e7ff3a000080fa008e
:104b6400000006000000fa00e1ff07000602a800aa
:104b74000080fa00000006000000fa00dcff0700d5
:104b84000622a8000080fa00000006000000fa00d7
:104b9400d7ff07000642a8000080fa0000000600c4
:104ba4000200fa00004f7800d1ff07000000000067
:104bb4004410800061026200e00f5200fcff3a00e2
:104bc4009e4278000582fb00141088004510800086
:104bd4000408200004826200e00f52000200320048
:104be400140020000f003700000000004510800072
:104bf4000400240004826200e00f5200fbff3a002c
:104c0400bbff0700451080000400280004826200f6
:104c1400e00f52000200320024002000010037009f
:104c24000002eb00040078000080fa000000060097
:104c34000400fa00000f780011079800acff070089
:104c44000662a800000000003410800068026200c0
:104c5400e00f5200fcff3a004510800004042000dd
:104c640004826200e00f52000300320008c2a9006f
:104c740044002000130037000000000044108000ae
:104c840062026200e00f5200fcff32000410800058
:104c9400044278009e027800844a78001e02900044
:104ca400e00f520003003a0006a2a8000682a80002
:104cb4000200370006a2a9000682a8008cff0700a4
:104cc4000002eb00040078000080fa0000000600f7
:104cd4000000fa0024b42000144278000482fb008f
:104ce40004007800020007000080fa0000000600bb
:104cf4000200fa00000f7800045a8000e00f52000e
:104d04004a003a0014002000045a88001e02780069
:104d1400e00f520002003a0014002000040f780053
:104d24001e027800e70f52000200360074002000d3
:104d3400040f78001e0278000442780004407800d2
:104d440042ebb7000002eb00f40888000002eb001d
:104d54000409880071c7a90071e7a9000002eb00eb
:104d6400a40888000002eb00c40888000082eb005d
:104d7400d40888000082eb00e40888001e61a800c3
:104d8400f40880000440a0000450a100f408880046
:104d94008780a9009780a9001fe1a8000002eb000a
:104da400240888007167a900240880000440a10039
:104db4000450a100240888000002eb0004088800c5
:104dc400743821001408880024b4200014427800a8
:104dd400674262000482fb00670262004c22dd002d
:104de40026058000f5ff2800850263000482720016
:104df400240588008460a9009460a80005e1a80047
:104e04000002eb00343188007527a9009bc0a9007b
:104e14008bc0a900140680000480a0000490a100a7
:104e240004a0a1001406880001003700000000005f
:104e34000080fa00000006000000fa00945a800086
:104e4400e00f520001003a00c542a8000080fa00b9
:104e5400000006000000fa00945a8000e00f52009f
:104e640001003a00c542a9000080fa0000000600d3
:104e74000000fa00945a8000e00f52000d003a003e
:104e8400241680004a22de00614262000404a2006b
:104e9400614262000482fb00610262004a22dd007a
:104ea40026168000f5bf2f0085026300048272007d
:104eb400241688000080fa00000006000400fa00ae
:104ec400000f780011079800945a8000e00f5200f8
:104ed4000100320012000700745a8000e00f5200f3
:104ee40001003a00af010700daff07000002eb00ff
:104ef400a45a88001e027800044088001e02900014
:104f04001440880024002000945a880022a3220020
:104f14006000b800d2f907000080fa000000060023
:104f24000000fa00945a8000e00f5200040032009e
:104f340006fa07000002eb00945a880002003700ca
:104f4400c4ff0700000000000080fa000000060013
:104f54000400fa00000f780011079800f0ff070022
:104f64009e0090001e007800d3fd0700ffff37006d
:104f74000000fa00253a800004fe2f00048262003b
:104f84000400a000243a8800353a800004e02f0091
:104f9400848262006402200004827200343a880031
:104fa400243a80000460a1000470a100243a88001f
:104fb4003600200084072000a50920003774200053
:104fc400844b7800854b7800864b780016002000cf
:104fd400640420007505200027742000844b7800a9
:104fe400854b7800864b780000000000153a80005d
:104ff400040027008482620004002300848f52008e
:10500400faff3a0000000000153a80000402200074
:1050140004826200e00f5200fbff32000002eb004a
:1050240004198800e4ff2f00843b88000082eb0011
:10503400943b88000082eb00a43b88000002eb0054
:10504400040488000002eb00140488000002eb0052
:10505400a40488000002eb00b40488000002eb0002
:10506400c40488000002eb00d40488000002eb00b2
:10507400e40488000002eb00240488000002eb0032
:10508400340488000002eb00440488000002eb00b2
:10509400540488000002eb00640488000080fa00d5
:1050a400000006000400fa00000f780011079800c1
:1050b40084598000e00f520039003a0014002000a7
:1050c400845988001e027800e00f520002003a0062
:1050d40014002000040f78001e027800e70f52002d
:1050e4000200360074002000040f78001e027800cd
:1050f40004427800044078002eebb700cea2a8004a
:10510400cec2a8000002eb003410880070e7a900aa
:105114000002eb00441088000002eb0064108800d9
:105124000002eb00541088001e029000e00f5200b1
:1051340003003a00b418200024108800020037004d
:10514400f4052000241088009620a9008620a900d8
:105154009600a9008600a900e4b220001442780059
:10516400674262000482fb00670262004422dd00a1
:1051740066058000f5f82f00850263000482720042
:1051840064058800640580000400a1000410a100e7
:105194000420a1006405880007e2a800010037008c
:1051a400000000000080fa00000006000400fa007d
:1051b400000f78001107980000000000c45a800016
:1051c400e00f5200fdff32009e0090001e007800a8
:1051d400020007000080fa00000006000600fa0042
:1051e4001007980021079800c45a8000e00f52006d
:1051f400290032000002eb00c45a8800ae0290007d
:1052040004102000848f5200020036000410200095
:10521400240798002e029000d45a88000002eb0064
:10522400e45a88002e029000e00f52000e00320073
:105234000002eb00040f7800070037001e02900004
:105244001e02420014427800059020009e82420013
:10525400844a78001e0fe8002e0290009e02780017
:10526400848f5200f5ff3900c4df2800144278000f
:105274000482fb002411880000000000c4df280021
:10528400144278000482fb00241188009580a80051
:105294000000000001003700000000000080fa0058
:1052a400000006002600fa0031ff0700200020005d
:1052b4008ffe0700bb0007008000eb0050002000b9
:1052c40078ff0700803e200001002000a3f80700bb
:1052d400d9fe070011c0b30030c0b3002e00070090
:1052e40000027800e00f5200030032001100200099
:1052f40060df280016ff0700d6fe0700e115200036
:10530400600020005bfc070053f2070000027800f5
:10531400e00f5200030032001100200080df28005b
:105324000bff07000002eb00040f7800401f200071
:105334000100200089f807000e82e80004007800cc
:105344007cf2070000027800e00f520003003200f4
:1053540011002000a0df2800fdfe07000e82e800f7
:10536400410220000400780090ff0700340620006a
:105374009e027800848f5200050036008000eb0006
:105384000000eb0089ff07000002eb00040f780027
:105394001e0fe800e5ff37000600fa0040479800ba
:1053a400514798008d00070000427800044f7800b0
:1053b4001e427800e04f520002003a0064002000d0
:1053c4002400370094588000e00f5200020032009d
:1053d4000002eb001f0037001400200094588800de
:1053e4001e40780010ebb7009680a9008680a900c3
:1053f4008220a90004b120001442780067426200b0
:105404000482fb00670262007605800085ff2f009e
:10541400850263000482720074058800d062a800cb
:1054240005348000f40f2e008482620004302100d1
:10543400048272000434880025fe0700de409000d8
:105444004e409000f1f8070000027800140798001d
:105454001e029000040078000080fa00000006009c
:105464000000fa00945a8000e00f5200220032003b
:10547400a55a8000945a8000848f5200030039009a
:10548400c542a9000002eb00a45a8800241680003b
:105494004a22de00614262000404a200614262000a
:1054a4000482fb00610262004a22dd0026168000ad
:1054b400f5bf2f0085026300048272002416880061
:1054c400a45a800084024200048020000482420026
:1054d400140278000500200022a322000400be006c
:1054e4005ff80700a45a80000402e800a45a880068
:1054f4000000000001003700000000000080fa00f6
:10550400000006000200fa00000f780012002000dc
:105514009e00780050c7b30054f6070000027800dc
:10552400040078000080fa00000006000200fa007f
:10553400000f7800120020009e007800a0c1b30084
:105544004af6070000027800040078000080fa00a0
:10555400000006000200fa00000f7800120020008c
:105564009e007800a0c3b30040f607000002780054
:10557400040078000080fa00000006000200fa002f
:10558400000f7800120020009e007800b0c6b3001f
:1055940036f6070000027800040078000080fa0064
:1055a400000006000000fa00745a8000e00f520068
:1055b40007003a0014002000745a8800c4fd070054
:1055c400c142a900c542a900000000000100370043
:1055d400000000000080fa00000006000000fa004d
:1055e400e4b2200014427800044078000080fa00fd
:0455f40000000600ad
:00000001FF
