:020000040000fa
:080000000002040000000000f2
:020000040000fa
:100400002fc520000e7f22000e0188000000000092
:100410000c000700a08c2300010020001100070041
:10042000000020000000e000020032000000020096
:10043000000000000e250200000000000040da006d
:100440000000fe004440a900600b20000000e00016
:100450000300320000002000a00188004440a800f2
:100460000000060091018800800078000000eb0089
:1004700015003700e280400032a0b4009101ba00bc
:10048000e280400032a0b4009102ba00e280400055
:1004900032a0b4000002eb00472bde00f507b200eb
:1004a000602ce10004003a000059eb008301e900f0
:1004b000fdff3e00040037006128e100010032002a
:1004c0000082eb00040007001101ba000200e00006
:1004d000e8ff3a00000006003159ba008301e90044
:1004e0000c0032002159ba008301e90008003200f3
:1004f0000400e00003003a00e280400032a0b400b3
:10050000f5ff370011d9ba008301e900faff3a007c
:100510008100e800e180400032a0b4000000060045
:10052000a44c040000000000980304000000000038
:10053000809fbe00829fbe000000fa008460a90078
:10054000d0608000e160800061004000e0804800f1
:10055000d0608800e1608800d2608000e3608000a5
:10056000f060800001618000800f5100818f590090
:10057000080036000080eb008080eb00f06088000f
:100580000161880010618000e00f5000010032001e
:100590008bc0a8000080fa004f01be004f00be00d3
:1005a000004006003600f800809fbe00829fbe001b
:1005b000849fbe00869fbe000200fa008bc0a90087
:1005c00010618000000f78001e007800e00f5000de
:1005d000020032001e007800000001000080fa00d6
:1005e0004f03be004f02be004f01be004f00be00d1
:1005f0003600f900004006003600f800809fbe007b
:10060000829fbe00849fbe00869fbe000200fa004b
:100610008620a9004010800070006000e00f5000ac
:100620001a0032009620a9000000eb0050618800fb
:100630006061800000407800614060000080fb0045
:10064000610060004400dd00b2048000f1fe2f0074
:100650008100610000807000b0048800706180003b
:1006600000407800614060000080fb006100600095
:100670004d00dd00b2048000f1ff2d00810061001b
:1006800000807000b00488000900370050618000cd
:10069000000f78001e007800e00f500003003200c9
:1006a0001e0078000000010001003700000000007b
:1006b0000080fa004f03be004f02be004f01be0093
:1006c0004f00be003600f900004006000000fa00ae
:1006d0008600a9000080fa00004006003600f800fd
:1006e000809fbe00829fbe00849fbe00869fbe008a
:1006f0000000fa008680a90080392000781f0700da
:10070000e00f500003003a000000eb00f05f8800ab
:100710000602a8000080fa004f03be004f02be0090
:100720004f01be004f00be003600f9000040060039
:100730000200fa008620a900411080000000280075
:1007400000806000e00f50000f003a004110800070
:100750000040200000806000e00f50000a003a00d6
:10076000411080000008200000806000e00f500071
:1007700005003a0041108000000420000080600065
:10078000e00f500002003200b51f0700f0003700f4
:10079000f05f8000010020007200200003002000b4
:1007a000820f5000838f5800e6003e000060010079
:1007b000070037000f00370013003700160037001e
:1007c0001d00370023003700380037003c00370099
:1007d000e0022900104078008080fb00e00f20003c
:1007e000008060001010880010002000f05f88007a
:1007f000d6003700b0032000101088002000200031
:10080000f05f8800d10037000622a80030002000e9
:10081000f05f8800cd003700e0022900104078002a
:100820000004a0000080fb001010880040002000a1
:10083000f05f8800c500370008c2a9000662a80062
:100840000000eb001060880050002000f05f88007e
:10085000be00370012608000001080000040780069
:10086000a1b2200081004100804878001060800023
:100870000000e8001060880010608000ed0f50005c
:1008800005003e0006a2a9000682a8006000200024
:10089000f05f8800ad00370006a2a8000682a8001d
:1008a00070002000f05f8800a800370008c2a9008f
:1008b0000662a80050002000f05f8800a300370007
:1008c000671f07002acbbf00104798002bcbbf0043
:1008d000004f78001e0078000000ea00cf80de00a4
:1008e000e05a8800f15a88002ccbbf0010479800ce
:1008f0002dcbbf00004f78001e0078000000ea00fa
:10090000cf80de00c05a8800d15a88002ecbbf00ad
:10091000104798002fcbbf00004f78001e007800d2
:100920000000ea00cf80de00005b8800115b8800d9
:1009300030cbbf001047980031cbbf00004f78008c
:100940001e007800cf80de00a05a8800b15a8800cf
:1009500032cbbf001047980033cbbf00004f780068
:100960001e0078000000ea00cf80de00405b8800b7
:10097000515b880034cbbf001047980035cbbf00d7
:10098000004f78001e0078000000ea00cf80de00f3
:10099000205b8800315b880036cbbf001047980091
:1009a00037cbbf00004f78001e0078000000ea003f
:1009b000cf80de00605b8800715b8800205980007a
:1009c0003159800061004000e080480020598800d3
:1009d0003159880000608000e00f50001d003a008f
:1009e000c05a8000d15a8000e0598800f15988002f
:1009f000e05a8000f15a8000005a8800115a88009d
:100a0000005b8000115b8000205a8800315a88000a
:100a1000a05a8000b15a8000c0598800d15988007e
:100a2000205b8000315b8000405a8800515a88006a
:100a3000405b8000515b8000605a8800715a8800da
:100a4000605b8000715b8000805a8800915a88004a
:100a500038003700e2598000f3598000c05a800006
:100a6000d15a80000200400083804800e05988008d
:100a7000f1598800025a8000135a8000e05a800021
:100a8000f15a80000200400083804800005a88002c
:100a9000115a8800225a8000335a8000005b80007f
:100aa000115b80000200400083804800205a8800cb
:100ab000315a8800c2598000d3598000a05a800062
:100ac000b15a80000200400083804800c05988006d
:100ad000d1598800425a8000535a8000205b800020
:100ae000315b80000200400083804800405a88004b
:100af000515a8800625a8000735a8000405b80001f
:100b0000515b80000200400083804800605a8800ea
:100b1000715a8800825a8000935a8000605b80007e
:100b2000715b80000200400083804800805a88008a
:100b3000915a8800006080000000e8000060880092
:100b400002003700c61e0700010037000000000049
:100b50000080fa0000000600809fbe00829fbe0059
:100b6000849fbe000000fa0021e3a9000018800065
:100b70006101b800506080006160800002004000a8
:100b80008380480050608800616088007060800049
:100b90000000e8007060880071608000f0032000b1
:100ba000808f50003500360030608000416080004a
:100bb000e00f5000e08f58000b003a0050608000ba
:100bc000616080000002b0000180b0004a09dd00d1
:100bd0004600de0000007100c608de0030608800bc
:100be000416088001b003700306080004160800059
:100bf0006f09b900020178006002b9008401780031
:100c000003014100f30020000300b800010141008e
:100c10008200780052608000636080000202b000b1
:100c20000380b0004a1add004611de0002017200a6
:100c3000c619de0000004100818049004c09dd003a
:100c40004400de0000007100c408de00306088004f
:100c500041608800000220007060880050608000c1
:100c60006160800061004000e08048008100d100a8
:100c70000080d300506088006160880085a0a900d2
:100c800021e3a8000080fa004f02be004f01be0021
:100c90004f00be0000400600809fbe000000fa002a
:100ca00030628000e00f5000160032000c00370068
:100cb00041628000409c200000804000104078008d
:100cc0000080fb0020118800406280000000e800e6
:100cd00040628800306280000000e90030628800d5
:100ce00030628000e00f50001200320011118000cd
:100cf0000020200000806000e00f5000ecff320078
:100d00000c003700300e2900104078000080fb00f6
:100d10002011880000000000300e290010407800eb
:100d20000080fb00201188009580a90010002000a1
:100d3000206288008580a9000080fa004f00be0074
:100d400000400600801f78000000fa0013e1a900af
:100d50008500a9000000eb00000388000000eb0004
:100d6000100388008660a90010002000705e8800d3
:100d700010002000805e88000000eb00605e8800ac
:100d80000000eb00905d88006220a8000000eb00ee
:100d90005008880013e1a8000080fa004f00780096
:100da000004006003600f800809fbe00829fbe0013
:100db000849fbe00869fbe001800fa000000eb0072
:100dc000000388000000eb00100388008660a90083
:100dd000331b0700008fbe00905d800001002000e3
:100de0005200200003002000820f5000838f580023
:100df00084013e0000600100050037001400370048
:100e00002300370032003700410037005000370020
:100e1000911680000008200000806000e00f500064
:100e20007a013200925d80001e00be00c211dd001a
:100e300042bb2000028141000089be00905d80001d
:100e40000000e800905d88006280a8007f00370005
:100e5000911680000010200000806000e00f50001c
:100e60006c013200925d80001e00be00c211dd00e8
:100e700042bb2000028141000089be00905d8000dd
:100e80000000e800905d88006260a8006f003700f5
:100e9000911680000020200000806000e00f5000cc
:100ea0005e013200925d80001e00be00c211dd00b6
:100eb00042bb2000028141000089be00905d80009d
:100ec0000000e800905d88006200a8005f00370025
:100ed000511680000040200000806000e00f5000ac
:100ee00050013200925d80001e00be00c211dd0084
:100ef00042bb2000028141000089be00905d80005d
:100f00000000e800905d880061e0a8004f00370015
:100f1000511680000080200000806000e00f50002b
:100f200042013200925d80001e00be00c211dd0051
:100f300042bb2000028141000089be00905d80001c
:100f40000000e800905d880061e0a8003f003700e5
:100f5000511680000080200000806000e00f5000eb
:100f600034013a00925d80001e00be00c211dd0017
:100f700042bb2000028141000089be00905d8000dc
:100f80000000e800905d880000000000c25d800065
:100f9000d35d8000a05d8000b15d80000000510045
:100fa000818059002007980031079800e25d800099
:100fb000f35d8000c05d8000d15d800000005100c5
:100fc000818059004007980051079800025e800018
:100fd000135e8000e05d8000f15d80000000510044
:100fe000818059006007980071079800225e800098
:100ff000335e8000005e8000115e800000005100c2
:1010000081805900000f9800110f9800425e800007
:10101000535e8000205e8000315e80000000510041
:1010200081805900200f9800310f98002e01900008
:10103000be019000c0848400d1848400800f5100e0
:10104000818f5900fc00350001003700fe00370099
:101050002e019000be0190004085840051858400df
:10106000800f5100818f5900f3003c004e01900029
:10107000de019000c0848400d1848400800f510080
:10108000818f5900ec0035004e019000de01900088
:101090004085840051858400800f5100818f590064
:1010a000e5003c006e019000fe019000c0848400c9
:1010b000d1848400800f5100818f5900de003500fb
:1010c0006e019000fe0190004085840051858400ef
:1010d000800f5100818f5900d7003c000e0990000d
:1010e0009e099000c0848400d1848400800f510048
:1010f000818f5900d00035000e0990009e099000a4
:101100004085840051858400800f5100818f5900f3
:10111000c9003c002e099000be099000c0848400e4
:10112000d1848400800f5100818f5900c2003500a6
:101130002e099000be0990004085840051858400ee
:10114000800f5100818f5900bb003c002e019000a0
:10115000be019000e0848400f1848400800f51007f
:10116000818f590005003d00e0848400f1848400f3
:1011700020079800310798000b0037002e019000df
:10118000be0190002085840031858400800f5100cd
:10119000818f59000400340020858400318584004b
:1011a00020079800310798004e019000de01900062
:1011b000e0848400f1848400800f5100818f590005
:1011c00005003d00e0848400f1848400400798001d
:1011d000510798000b0037004e019000de0190008f
:1011e0002085840031858400800f5100818f590053
:1011f0000400340020858400318584004007980075
:10120000510798006e019000fe019000e084840078
:10121000f1848400800f5100818f590005003d004a
:10122000e0848400f18484006007980071079800ce
:101230000b0037006e019000fe01900020858400b5
:1012400031858400800f5100818f590004003400e3
:10125000208584003185840060079800710798001c
:101260000e0990009e099000e0848400f1848400bf
:10127000800f5100818f590005003d00e0848400fb
:10128000f1848400000f9800110f98000b003700c4
:101290000e0990009e09900020858400318584000d
:1012a000800f5100818f5900040034002085840094
:1012b00031858400000f9800110f98002e099000ce
:1012c000be099000e0848400f1848400800f510006
:1012d000818f590005003d00e0848400f184840082
:1012e000200f9800310f98000b0037002e09900056
:1012f000be0990002085840031858400800f510054
:10130000818f5900040034002085840031858400d9
:10131000200f9800310f98002e019000be01900020
:1013200000858400118584000000510081805900ef
:10133000905e8800a15e88004e019000de01900062
:1013400000858400118584000000510081805900cf
:10135000b05e8800c15e88000e0990009e09900072
:1013600000858400118584000000510081805900af
:10137000f05e8800015f88006e019000fe01900021
:10138000e0848400f18484000000510081805900d1
:10139000d05e8800e15e88002e099000be099000b2
:1013a0000085840011858400800f5100818f5900d1
:1013b00004003d006000b800105f8800215f8800d5
:1013c000040037001000200001002000105f88009a
:1013d000215f880010002000705e88000000eb0094
:1013e000805e880010002000605e880013e1a90084
:1013f0008500a9000000eb005008880013e1a80058
:101400000d003700000000000b0037000000000056
:10141000090037000000000007003700000000004e
:101420000500370000000000030037000000000046
:1014300001003700000000000000eb00905d880014
:101440006220a800000000000080fa004f03be00e8
:101450004f02be004f01be004f00be003600f90033
:10146000004006000040da000000fe0014002000ea
:1014700052013700889fbe008a9fbe008c1f7800f3
:10148000690107007001330003866c006450e100bd
:10149000240032006420e100270032006150e100a6
:1014a000220032006120e100210032008b854200e1
:1014b000eb07b1000134b800003ab800080442005c
:1014c00089844a00013ab8000030b80088804000a2
:1014d00009014a00040033000000400081804800f8
:1014e000020149008b05e900c909dd008301700094
:1014f0000100320013002000c814de004814dd0093
:101500004709de001200b200c808de00088470003f
:101510005d01070001f0a1000cf0a70001f0a000a0
:10152000520137006120e100540132000801be0081
:101530000200be00f7ff37006150e100fcff3a00f7
:101540004e013700f4ff2f001c01370003f0a2000a
:10155000889fbe008a9fbe008c1f78003201070062
:10156000390133006450e1004f0032006420e10093
:101570005200320003826c0007003b000905d000d6
:101580000306d000820f54000c065d0002003900f3
:101590000200320089017800030678008582550038
:1015a00004003d000003fd008103fd008502ea0008
:1015b0008b854200840f720002003b006000100027
:1015c000e08018006011b8000005eb007a28e10007
:1015d0000a00390006007800c75ddd00f707b20099
:1015e000878075002d003700828171000a01780024
:1015f000610560008180d1000080d3008502e90090
:10160000f9ff3b00060440008784480002003b00cd
:1016100060041400e0841c000988a3000700320065
:101620008a81710082817100610164008904d100a6
:101630000884d3008b05e800170037000978a30061
:1016400013003a000b00e000130034008b05e900a2
:101650000804440089844c000a4474000978a300fb
:101660000d003a000b00e000070034008b05e90094
:101670000804440089844c0001003a000b0020005b
:101680000978a300f7ff32000001eb0002003700e9
:10169000828171000a017800fb0007000cf0a700ae
:1016a00001f0a000f10037006420e10002003a00e0
:1016b000838f6c00f10033000801be000200be0001
:1016c000ea0037006011b80015013700889fbe009e
:1016d0008a9fbe008c1f7800d3000700da00330019
:1016e00003866c006450e1002e0032006420e100ab
:1016f000330032006150e1002f0032006120e10030
:101700003100320085855500eb07b000090020004c
:1017100008042000050037000804440089844c00b8
:101720000a0031000603430087834b000001530089
:1017300081815b00f8ff33000203be000800a000b7
:101740000804440089844c00f6ff3900c639dd00e6
:101750008301730001003200130020008904d100ce
:101760000884d3000998a300050032000800a700f0
:101770000300a0008904d1000884d3008b05e80091
:101780008904d1000884d3000001eb000281d2005b
:10179000bd00070001f0a1000cf0a70001f0a000bf
:1017a000b20037006420e100b40032000801be003e
:1017b0000200be00f7ff37006120e100af003200f9
:1017c0006000b800f3ff37000000200001f8270098
:1017d000f0ff37004f89de0082017800ff003700fc
:1017e000889fbe008a9fbe008c1f78000004be0048
:1017f0000a0107000478a30026003a006120e100f6
:101800002500320009f8a30025003a006420e10019
:1018100021003200f507b1000508a30002003200e4
:1018200000004000818048006044b80003102000a0
:1018300002002000000040008180480008054400ac
:1018400089854c000a0541008b8549000a05500036
:101850008b855800030033000a00be0002047400a8
:10186000838474008301d1000281d300830f71004f
:10187000f0ff3a008904d1000884d30060014900d8
:1018800082017800c1adde00fb07b0007e000700da
:10189000760037000960a0000800be007300370022
:1018a0001202200082628800f0ff2f00f1ff270063
:1018b0006e003700889fbe008a9fbe008c1f780094
:1018c000590007001002200002003b0080628800df
:1018d0005d0037008a0062006408e10002003a00ff
:1018e00080628800650037006108e100fcff32007b
:1018f0000800be000304780074ff070001f0a10097
:10190000db00070008f0a600040037000001be005d
:1019100091042400b0fd20000cff070009f0a7008f
:1019200001f0a200510037000001eb003501370043
:101930000001be00b90007000470a70003f0a10079
:1019400003f8a30013003a006509b100100032004b
:10195000090035006928e100020035000100280077
:101960000000050000004000818048008502e90079
:10197000fcff3a0000000600f88f42000500350029
:101980008100d1000080d3008502e800fcff3a000e
:10199000000006008000eb00000005000001eb00e5
:1019a0007f010700040032000200200003f823003a
:1019b00001f0a700e5fe070000000600889fbe00ba
:1019c0008a9fbe00841f7800170007004f00780030
:1019d00011003300f0ff2f00838f6c0006003b00e6
:1019e000040565000a00a7000800370009f0a600fa
:1019f0001000200008003700820f5400838f5c0025
:101a0000030039001000200001003e00000020000b
:101a100009f0a7000000ea004f05be004f04be0019
:101a20000000e000000006000004be007b0007008c
:101a30000003be000405be000200be0077000700e0
:101a4000844f7500000006000200be006450e100f3
:101a5000050036006420e100020036000968a3009a
:101a600001003a000800be000160a0004f067800a7
:101a70004f05be004f04be0000000600f0ff2f001f
:101a8000f1ff2700f9ff3700810020006180550039
:101a90000b003d000b00200061fe2f000100e10063
:101aa0001d00340082817100610164008904d1004d
:101ab0000884d3000000e800faff3a00710020001b
:101ac0006100640003007000020060000900320041
:101ad00061044400e0844c000988a5000500320040
:101ae0008b05e8006808e10002003a008904d10093
:101af0000884d300f20f20000258e10005003d00e9
:101b0000c75ddd00f907b200898075000800780024
:101b1000000006000bf827008b007800000005008d
:101b2000889fbe008a9fbe00008270000402710080
:101b300004827100260032000004be000200be00d4
:101b40006011b8006b092000950220000182cf00cf
:101b50000a0039000541b1000082cf0007003900ba
:101b60000541b1000982cf00040039000541b100f0
:101b70000882cf00010039000541b1000542520042
:101b8000120032000a003b00828171006101640092
:101b90008100d1000080d3008984d3000884d30061
:101ba0008b05e8000442e800f7ff3a000700370021
:101bb0000804440089844c000000480081804800eb
:101bc0008b05e9000442e900f9ff3a00aeff070087
:101bd0004f05be004f04be0000000600881f7800bd
:101be000030478000300e00007003d0060001000df
:101bf000e080180060011900e081190002003b003c
:101c000001f02d0003003700c5ff070008f0a70012
:101c100001f0a0004f04780000000600c70ade00b3
:101c2000f107b200f50fb20008003200e1cf420028
:101c3000020032000170a00024000500810f700036
:101c4000010032000408050044000500810f700007
:101c500002003a00140005008502e900000040007f
:101c600081c04800fcff3b000170a000240005007b
:101c7000889fbe008a9fbe008c9fbe000004be00ed
:101c8000e6ff07000800be00890678006420e10036
:101c900008003900040032000160a0001202200098
:101ca000826288005300370091fc2300b0fd2000c1
:101cb0004e0037000006eb0009f0a10003f82300f6
:101cc000020020000800be00e8fd07000600340006
:101cd00001f82300000020000801be007bfe070081
:101ce0000004be002c0020000800be0093e8230082
:101cf000320a2300ddfd0700120034000801be0097
:101d0000d1fd2300703d2b0011fe07000005be0031
:101d1000b3f32300f27a26000800be00d5fd0700c9
:101d200003f823000200200008fe07000801be009f
:101d300007fe07000a01be0064fe07000004be00a3
:101d40000c06e8000800be0001f0a100020020001f
:101d500003982300c5fd07000800be0016003500eb
:101d60000801be00c3fd07000005be0032cd2c00f7
:101d700043fb2300f6fd0700809fbe001269280088
:101d800003d52b000a00be00bafd0700620f210038
:101d900013ef2b00eefd07000a01be00b5fd0700a2
:101da0004f01be0049fe07000801be00b1fd07005b
:101db0000801be00e6fd07000c00e0000b00320049
:101dc0000c10a70001f0a200b2fd200093fc23003c
:101dd0006260e1000400320022a9200063f02300c9
:101de0000c10a70063f82300d9fd07000df0a70031
:101df00001f0a2004f06be004f05be004f04be001a
:101e000000000600889fbe008a9fbe008c9fbe0017
:101e10000206780001f0a7000cf0a0000004be004c
:101e20007eff07000800be006420e10007003900c3
:101e300002003a00f1ff2700f0ff2f000160a00030
:101e400012022000826288005100370009f0a100d0
:101e50000800be000200200003f82300b9fd0700bf
:101e6000f4ff3c000800be0002002000039823009d
:101e70007efd07000800be00300035000200200093
:101e800003f02300affd070005003c000800be0082
:101e90000801be0077fd07000005be000e003700f8
:101ea0000c10a2000000200001f823000801be0071
:101eb000a6fd07000200200003f023006dfd0700cf
:101ec0000005be0046fe07000200200003002c00b3
:101ed00068fd07000004be000a00be00b2d0280062
:101ee000130b2c009afd07000a01be0061fd0700dc
:101ef000020f2500330b240095fd0700809fbe00d4
:101f00000a00be005206220013f02b0059fd070004
:101f1000b2662100f3f623008dfd07000a01be0022
:101f200054fd07004f01be00e8fd07000801be0098
:101f300050fd07000801be0085fd07000c00a7004a
:101f400007003700b2fd200093fc23000c10a7000f
:101f50007ffd07000cf0a70001f0a2000c00370085
:101f60000cf0a7000200370001f0a20004003700c7
:101f7000b2fd2000930424000c10a60003003700db
:101f8000b2fd200093fc23000c10a70070fd070099
:101f90004f06be004f05be004f04be000000060005
:101fa000889fbe008a9fbe000003be001bff070083
:101fb0008505780082815200020020006220e10045
:101fc00004003a00f307b100040035007718e1007f
:101fd000040035000600be00140037006000b800a1
:101fe0000f003700f50f2000faff2f008502d10007
:101ff0000a85d3008301e900fcff3b008184620075
:1020000000046500890f7400f2ff32008582ea0047
:102010000a85ea0081846200000465009afe0700d8
:1020200007f0a70001f0a0000081eb000200e00033
:102030004f05be004f04be0000000600800178007e
:1020400002003700b1597800040178000202e9006b
:0c205000e00f5100fbff3a00000006000a
:020000040000fa
:0200000401f009
:04000c0078ff000079
:020000040000fa
:0200000401f009
:040010005eff00008f
:020000040000fa
:0200000401f009
:040014007fff00006a
:020000040000fa
:0200000401f009
:04001800eeff0000f7
:020000040000fa
:0200000401f009
:04001c00dfff000002
:020000040000fa
:10000800320a0000320a0000320a0000320a0000f8
:10001800320a0000320a0000320a0000320a0000e8
:10002800320a0000320a0000320a0000980200007a
:10003800320a0000320a0000320a0000320a0000c8
:10004800a2060000320a0000320a0000320a00004c
:100058004c060000ac050000320a0000320a00001d
:1000680066030000fc020000320a0000d20600000d
:100078006e030000320a0000320a0000320a000053
:10008800320a0000320a0000320a0000320a000078
:10009800320a0000320a0000320a0000320a000068
:1000a800320a0000320a0000320a0000320a000058
:1000b800320a0000320a0000320a0000320a000048
:1000c800320a0000320a0000320a0000320a000038
:1000d800320a0000320a0000320a0000320a000028
:1000e800320a0000320a0000320a0000320a000018
:1000f800320a0000320a0000320a0000320a000008
:10010800320a0000320a0000320a0000320a0000f7
:10011800320a0000320a0000d2020000320a00004f
:10012800320a0000320a0000320a0000320a0000d7
:10013800320a0000320a0000320a0000320a0000c7
:10014800320a0000320a0000320a0000320a0000b7
:10015800320a0000320a0000320a0000320a0000a7
:10016800320a0000320a0000320a0000320a000097
:10017800320a0000320a0000320a0000320a000087
:10018800320a0000320a0000320a0000320a000077
:10019800320a0000320a0000320a0000320a000067
:1001a800320a0000320a0000320a0000320a000057
:1001b800320a0000320a0000320a0000320a000047
:1001c800320a0000320a0000320a0000320a000037
:1001d800320a0000320a0000320a0000320a000027
:1001e800320a0000320a0000320a0000320a000017
:0801f800320a0000320a000087
:020000040000fa
:10020800320a0000320a0000320a0000320a0000f6
:10021800320a0000320a0000320a0000320a0000e6
:10022800320a0000320a0000320a00009802000078
:10023800320a0000320a0000320a0000320a0000c6
:10024800a2060000320a0000320a0000320a00004a
:100258004c060000ac050000320a0000320a00001b
:1002680066030000fc020000320a0000d20600000b
:100278006e030000320a0000320a0000320a000051
:10028800320a0000320a0000320a0000320a000076
:10029800320a0000320a0000320a0000320a000066
:1002a800320a0000320a0000320a0000320a000056
:1002b800320a0000320a0000320a0000320a000046
:1002c800320a0000320a0000320a0000320a000036
:1002d800320a0000320a0000320a0000320a000026
:1002e800320a0000320a0000320a0000320a000016
:1002f800320a0000320a0000320a0000320a000006
:10030800320a0000320a0000320a0000320a0000f5
:10031800320a0000320a0000d2020000320a00004d
:10032800320a0000320a0000320a0000320a0000d5
:10033800320a0000320a0000320a0000320a0000c5
:10034800320a0000320a0000320a0000320a0000b5
:10035800320a0000320a0000320a0000320a0000a5
:10036800320a0000320a0000320a0000320a000095
:10037800320a0000320a0000320a0000320a000085
:10038800320a0000320a0000320a0000320a000075
:10039800320a0000320a0000320a0000320a000065
:1003a800320a0000320a0000320a0000320a000055
:1003b800320a0000320a0000320a0000320a000045
:1003c800320a0000320a0000320a0000320a000035
:1003d800320a0000320a0000320a0000320a000025
:1003e800320a0000320a0000320a0000320a000015
:0803f800320a0000320a000085
:020000040000fa
:10205c00d00000007bcf0000c1c00000403b00005e
:10206c00787d00008b3a0000713d00004abf0000f3
:10207c009a990000993f00005d6d0000c5bd0000fd
:10208c00000000008038000000000000c841000083
:10209c00cdcc000014c20000ae470000d1c000003f
:1020ac000000000090c200001f85000017410000d6
:1020bc0000300000054500000ad70000fc4200007b
:1020cc00000000000000000000000000803e000046
:1020dc0066660000e63e00009a990000993e0000fa
:1020ec00cdcc0000cc3d0000cdcc0000ccbd000020
:1020fc0066660000e63e00009a990000993d0000db
:10210c0066660000e63e00009a990000993d0000ca
:10211c0033330000b33e00009a990000193e0000d2
:10212c00093d0000a00f0000000000008813000013
:10213c00000000004c1d00000000000010270000f3
:10214c0000000000f82a00000000000017b7000093
:10215c005139000017b70000d1390000050000000c
:10216c0053000000520000004900000045410000ef
:10217c00004f0000000000006f120000833b0000c5
:10218c006f120000833b0000bd3700008636000054
:10219c0039030000040100000cc900007d3b000065
:1021ac00536f000053000000534400000000000077
:0c21bc00570000004100000055aa000080
:020000040000fa
:1021c8000600fa00889fbe00000f780011079800eb
:1021d800220798001e0078001002be001e00900022
:1021e8001000be000001be000400be009ffc0700f6
:1021f8000004be001e00780020029000b00290008b
:102208001e009000f0009000600090000001be00e9
:102218000400be0095fc07000001be000800be00d7
:10222800c9fc07000004be001e00780040029000b0
:10223800d00290001e009000d00890004008900046
:102248000001be000400be0088fc07000001be00bb
:102258000800be00bcfc07002e0190000089be00eb
:102268001e0078001002be001e009000b000900012
:10227800200090000001be000400be007bfc0700a7
:102288000004be001e00780020029000b0029000fa
:102298001e00900090089000000890000001be0009
:1022a8000400be0071fc07000001be000800be006b
:1022b800a5fc07000004be001e0078004002900044
:1022c800d00290001e009000f00890006008900076
:1022d8000001be000400be0064fc07000001be004f
:1022e8000800be0098fc07002e019000200198000d
:1022f800310198001e0078001002be001e009000f8
:10230800d0009000400090000001be000400be0014
:1023180056fc07000004be001e0078002002900052
:10232800b00290001e009000b008900020089000b5
:102338000001be000400be004cfc07000001be0006
:102348000800be0080fc07000004be001e007800e4
:1023580040029000d00290001e0090009010900063
:10236800001090000001be000400be003ffc070002
:102378000001be000800be0073fc07002e0190009b
:1023880040019800510198001e00780060029000fa
:10239800f00290001e0090001000be000001be0078
:1023a8000400be0031fc07000004be001e007800d7
:1023b800000a9000900a90001e009000f000900023
:1023c800600090000001be000400be0027fc07006a
:1023d8000001be000800be005bfc07000004be0050
:1023e8001e007800200a9000b00a90001e0090009d
:1023f800d0089000400890000001be000400be0014
:102408001afc07000001be000800be004efc0700d1
:102418002e01900060019800710198001e0078005c
:1024280060029000f00290001e009000b000900042
:10243800200090000001be000400be000bfc070055
:102448000004be001e007800000a9000900a900068
:102458001e00900090089000000890000001be0047
:102468000400be0001fc07000001be000800be0019
:1024780035fc07000004be001e007800200a90000a
:10248800b00a90001e009000f008900060089000cc
:102498000001be000400be00f4fb07000001be00fe
:1024a8000800be0028fc07002e01900000099800d3
:1024b800110998001e00780060029000f002900058
:1024c8001e009000d0009000400090000001be0067
:1024d8000400be00e5fb07000004be001e007800f3
:1024e800000a9000900a90001e009000b00890002a
:1024f800200890000001be000400be00dbfb0700be
:102508000001be000800be000ffc07000004be006a
:102518001e007800200a9000b00a90001e0090006b
:1025280090109000001090000001be000400be0052
:10253800cefb07000001be000800be0002fc070039
:102548002e01900020099800310998001e0078009b
:10255800400a9000d00a90001e0090001000be00b3
:102568000001be000400be00c0fb07000004be005e
:102578001e007800600a9000f00a90001e0090008b
:10258800f0009000600090000001be000400be0052
:10259800b6fb07000001be000800be00eafb07000a
:1025a8000004be001e0078000012900090129000f7
:1025b8001e009000d0089000400890000001be0066
:1025c8000400be00a9fb07000001be000800be0011
:1025d800ddfb07002e019000400998005109980082
:1025e8001e007800400a9000d00a90001e0090005b
:1025f800b0009000200090000001be000400be0062
:102608009afb07000004be001e007800600a9000d4
:10261800f00a90001e0090009008900000089000ba
:102628000001be000400be0090fb07000001be00d0
:102638000800be00c4fb07000004be001e007800ae
:1026480000129000901290001e009000f008900078
:10265800600890000001be000400be0083fb070074
:102668000001be000800be00b7fb07002e01900065
:1026780060099800710998001e007800400a9000cf
:10268800d00a90001e009000d000900040009000fa
:102698000001be000400be0074fb07000004be0079
:1026a8001e007800600a9000f00a90001e0090005a
:1026b800b0089000200890000001be000400be0091
:1026c8006afb07000001be000800be009efb070071
:1026d8000004be001e0078000012900090129000c6
:1026e8001e00900090109000001090000001be00a5
:1026f8000400be005dfb07000001be000800be002c
:1027080091fb07002e01900000119800111198000c
:102718002e0090004f04be000080fa000000060062
:102728000600fa00889fbe00000f78001107980085
:10273800220798001e0078001002be001e009000bc
:102748001000be000001be000400be0047fb0700e9
:102758000004be001e00780020029000b002900025
:102768001e009000b0009000200090000001be0004
:102778000400be003dfb07000001be000800be00cb
:1027880071fb07000004be001e00780040029000a4
:10279800d00290001e009000d000900040009000f1
:1027a8000001be000400be0030fb07000001be00af
:1027b8000800be0064fb07002e0190000089be00df
:1027c8001e00780060029000f00290001e00900049
:1027d8001000be000001be000400be0023fb07007d
:1027e8000004be001e007800000a9000900a9000c5
:1027f8001e009000b0009000200090000001be0074
:102808000400be0019fb07000001be000800be005e
:102818004dfb07000004be001e007800200a90004f
:10282800b00a90001e009000d00090004000900078
:102838000001be000400be000cfb07000001be0042
:102848000800be0040fb07002e0190002001980000
:10285800310198001e007800400a9000d00a9000cc
:102868001e0090001000be000001be000400be0063
:10287800fefa07000004be001e007800600a9000ff
:10288800f00a90001e009000b00090002000900018
:102898000001be000400be00f4fa07000001be00fb
:1028a8000800be0028fb07000004be001e007800d8
:1028b80000129000901290001e009000d00090002e
:1028c800400090000001be000400be00e7fa0700c7
:1028d8000001be000800be001bfb07002e0190008f
:1028e80040019800510198002e0090004f04be004e
:1028f8000080fa00000006000600fa00889fbe006b
:10290800000f780011079800220798001e00900019
:102918001002be001e0078001000be000001be00bc
:102928000400be00d1fa07000004be001e0090009b
:1029380020029000b00290001e007800f000900085
:10294800600090000001be000400be00c7fa070046
:102958000001be000800be00fbfa07000004be002c
:102968001e00900040029000d00290001e007800e7
:10297800d0089000400890000001be000400be008e
:10298800bafa07000001be000800be00eefa070010
:102998002e0190000089be001e0090001002be00ab
:1029a8001e007800b0009000200090000001be00da
:1029b8000400be00adfa07000004be001e0090002f
:1029c80020029000b00290001e007800900890004d
:1029d800000890000001be000400be00a3fa070032
:1029e8000001be000800be00d7fa07000004be00c0
:1029f8001e00900040029000d00290001e00780057
:102a0800f0089000600890000001be000400be00bd
:102a180096fa07000001be000800be00cafa0700c7
:102a28002e01900020019800310198001e009000ae
:102a38001002be001e007800d000900040009000f8
:102a48000001be000400be0088fa07000004be00b2
:102a58001e00900020029000b00290001e00780036
:102a6800b0089000200890000001be000400be00dd
:102a78007efa07000001be000800be00b2fa070097
:102a88000004be001e00900040029000d00290009a
:102a98001e00780090109000001090000001be0009
:102aa8000400be0071fa07000001be000800be0065
:102ab800a5fa07002e0190004001980051019800e6
:102ac8002e0090004f04be000080fa0000000600af
:102ad8000c00fa00889fbe00400798005107980034
:102ae8006000b800008fbe004e0090001002be00cb
:102af8004e009000f0009000600090000001be00c1
:102b08000400be0059fa07000004be004e00900001
:102b180020029000b00290004e00900090089000b3
:102b2800000890000001be000400be004ffa070034
:102b38000001be000800be0083fa07000004be00c2
:102b48004e00900040029000d00290004e0090008d
:102b5800b0089000200890000001be000400be00ec
:102b680042fa07000001be000800be0076fa07001e
:102b7800008fbe0002002000030024001e00be00db
:102b8800d0fa0700008fbe004e0090001004be006f
:102b98004e009000f0009000600090001e01be0002
:102ba80032fa07000001be000800be0065fa0700ff
:102bb8005e0190000089be004e0090002004900045
:102bc800b00490004e00900090089000000890001b
:102bd8001e01be0025fa07000001be000800be0065
:102be80058fa07005e019000200198003101980012
:102bf8004e00900040049000d00490004e009000d9
:102c0800b0089000200890001e01be0017fa0700c7
:102c18000001be000800be004afa07005e019000ed
:102c280040019800510198004e0090006004900007
:102c3800f00490004e0090001000be001e01be007f
:102c48000afa07000001be000800be003dfa0700ae
:102c58005e01900060019800710198004e0090009c
:102c6800000c9000900c90004e009000b000900076
:102c7800200090001e01be00fcf907000001be0004
:102c88000800be002ffa07005e01900000099800b6
:102c9800110998004e009000200c9000b00c900094
:102ca8004e009000d0009000400090001e01be0031
:102cb800eef907000001be000800be0021fa070077
:102cc8005e01900020099800310998004e0090009c
:102cd80020029000b00290004e009000b0089000d2
:102ce800200890000001be000400be00dff90700c4
:102cf8000004be004e00900040029000d0029000f8
:102d08004e00900090089000000890000001be005e
:102d18000400be00d5f907000001be000800be008f
:102d280008fa07005e0190004009980051099800d0
:102d38004e00900040029000d00290004e0090009b
:102d4800f0009000600090000001be000400be008a
:102d5800c6f907000004be004e0090001002be0035
:102d68004e009000b0089000200890000001be00be
:102d78000400be00bdf907000001be000800be0047
:102d8800f0f907005e019000600998007109980049
:102d98004e0090001002be004e0090009008900077
:102da800000890000001be000400be00aff9070053
:102db8000004be004e00900020029000b002900077
:102dc8004e009000f0009000600090000001be00ee
:102dd8000400be00a5f907000001be000800be00ff
:102de800d8f907005e0190000011980011119800b1
:102df8005e0090001002be005e0090001000be0051
:102e08000001be000400be0098f907000004be00df
:102e18005e00900020029000b00290005e009000da
:102e2800b0009000200090000001be000400be0029
:102e38008ef907000001be000800be00c2f90700b5
:102e48000004be005e00900040029000d002900096
:102e58005e009000d0009000400090000001be008d
:102e68000400be0081f907000001be000800be0092
:102e7800b5f907000001be0000002000010424008d
:102e8800b0f9070002002000030024000dfa070033
:102e980020079800310798005e0090001000be00df
:102ea8002e019000be01900070f907005e019000ad
:102eb8000089be005e009000b000900020009000e5
:102ec8002e019000be01900068f907005e01900095
:102ed80020019800310198005e009000d000900019
:102ee800400090002e019000be0190005ff907009d
:102ef8005e01900040019800510198005e0090002a
:102f080060029000f00290005e009000f0009000d7
:102f1800600090000001be000400be0053f90700e5
:102f28000004be005e009000000a9000900a900025
:102f38005e00900090089000000890000001be001c
:102f48000400be0049f907000001be000800be00e9
:102f58007df907000004be005e009000200a900082
:102f6800b00a90005e009000b00890002008900021
:102f78000001be000400be003cf907000001be00cd
:102f88000800be0070f907000001be000000200024
:102f9800010424006bf9070002002000030024004c
:102fa800c8f9070020079800310798005e009000d4
:102fb800f0009000600090002e019000be0190008b
:102fc8002af907005e0190006001980071019800dd
:102fd8005e00900090089000000890002e0190007c
:102fe800be01900021f907005e01900000099800d9
:102ff800110998005e009000b00890002008900029
:103008002e019000be01900018f907005e019000a3
:1030180020099800310998005e009000400a90004d
:10302800d00a90005e009000d00890004008900000
:103038000001be000400be000cf907000004be0039
:103048005e009000600a9000f00a90005e00900018
:10305800f0089000600890000001be000400be0067
:1030680002f907000001be000800be0036f907009b
:103078000004be005e0090000012900090129000c4
:103088005e00900090109000001090000001be00bb
:103098000400be00f5f807000001be000800be00ed
:1030a80029f907000001be000000200001042400e7
:1030b80024f90700020020000300240081f907001a
:1030c80020079800310798005e009000d008900013
:1030d800400890002e019000be019000e3f8070020
:1030e8005e01900040099800510998005e00900028
:1030f800f0089000600890002e019000be0190003a
:10310800daf807005e0190006009980071099800dc
:103118005e00900090109000001090002e0190002a
:10312800be019000d1f807005e01900000119800e0
:10313800111198005e0090004f04be000080fa0054
:10314800000006000400fa00881f7800008fbe0007
:1031580018c0b300b2fd200093042c001e00be006e
:10316800c0f80700e00f5000010035000044eb00f4
:10317800e04f540005003200b2fd2000930c2400fb
:103188001e00be00f0f807001000370018c0b3009a
:10319800b2fd2000930424001e00be00e7f80700db
:1031a800e00f500001003c000044eb00e04f5400e9
:1031b80005003200b2fd2000930c24001e00be0062
:1031c800e0f80700010037001e00be004f04780039
:1031d8000080fa00000006000400fa00881f78004a
:1031e800008fbe0018c0b300b2fd200093fc2b0076
:1031f8001e00be009bf80700e00f500001003500dc
:103208000044eb00e04f540005003200b2fd2000fe
:10321800930424001e00be00cbf8070010003700fe
:1032280018c0b300b2fd200093fc23001e00be00ae
:10323800c2f80700e00f500001003c000044eb001a
:10324800e04f540005003200b2fd20009304240032
:103258001e00be00bbf80700010037001e00be00bc
:103268004f0478000080fa00000006000400fa000d
:10327800889fbe00c4528000d552800070838400ad
:103288008183840018c0b3000001be000400be00a2
:1032980074f80700e00f5000010035000044eb000f
:1032a800e04f54000a0032006000b8006053880004
:1032b800715388006000b8008053880091538800db
:1032c8006000b800a0538800b15388008f00370011
:1032d800445280005552800090838400a18384006a
:1032e8000001be000400be0060f80700008fbe00a9
:1032f8006853800079538000005380001153800088
:103308001e01be0059f807000001be000800be00fb
:103318008df8070060538800715388008853800037
:103328009953800020538000315380001e01be0055
:103338004ef807000001be000800be0082f8070032
:103348008053880091538800a8538000b9538000a7
:1033580040538000515380001e01be0043f807000f
:103368000001be000800be0077f80700a0538800df
:10337800b15388006453800075538000b083840083
:10338800c183840018c0b3000001be000400be0061
:103398006af80700e00f500001003c000044eb0011
:1033a800e04f540004003200b0838400c1838400dd
:1033b80060538800715388006453800075538000ff
:1033c800d0838400e183840018c0b3000001be00ec
:1033d8000400be0023f80700e00f5000010035008c
:1033e8000044eb00e04f540004003200d083840016
:1033f800e1838400605388007153880084538000ff
:1034080095538000b0838400c183840018c0b30042
:103418000001be000400be0048f80700e00f50009d
:1034280001003c000044eb00e04f5400040032006f
:10343800b0838400c183840080538800915388003e
:103448008453800095538000d0838400e1838400f6
:1034580018c0b3000001be000400be0001f8070058
:10346800e00f5000010035000044eb00e04f54002d
:1034780004003200d0838400e183840080538800f4
:1034880091538800a4538000b5538000b083840012
:10349800c183840018c0b3000001be000400be0050
:1034a80026f80700e00f500001003c000044eb0044
:1034b800e04f540004003200b0838400c1838400cc
:1034c800a0538800b1538800a4538000b5538000ee
:1034d800d0838400e183840018c0b3000001be00db
:1034e8000400be00dff70700e00f500001003500c0
:1034f8000044eb00e04f540004003200d083840005
:10350800e1838400a0538800b15388004f04be00b3
:103518000080fa00000006001a00fa00889fbe002a
:10352800200f9800310f9800420f98005a11070099
:1035380020079800310798002052800031528000ff
:10354800e00f5000e08f580012003a006000b80009
:1035580040528800515288003e0890001000be007a
:1035680060528800715288003e089000b0009000b8
:103578002000900080528800915288003e089000f8
:10358800d000900040009000a0528800b1528800fe
:103598000c00370020528000315280002e0190002c
:1035a800be019000000051008180590043f80700d7
:1035b80052f92b0063452300acf7070040528800fe
:1035c800515288002e009000be00900020528800c2
:1035d800315288002e0890001000be00c0528800aa
:1035e800d15288003e089000f000900060009000e2
:1035f80018c0b3006011b800d0f70700e00f500002
:1036080001003c000044eb00e04f5400170032007a
:103618003e08900060019000f0019000028fbe000b
:1036280018c0b300d2cc2c00c3f423001e00be0087
:103638008cf70700e00f5000010035000044eb0054
:10364800e04f540003003200d0cc2c00c1f423001a
:10365800008fbe00c0528000d15280001e01be0003
:1036680018f80700c0528800d1528800c052800064
:10367800d152800018c0b300a299290093f5230005
:10368800aef70700e00f500001003c000044eb00db
:10369800e04f540004003200a099290091f523005e
:1036a800c0528800d15288002e0890002002900055
:1036b800b00290003e0890001000be000001be005d
:1036c8000400be009ff707009efe07000053880015
:1036d800115388002e08900040029000d0029000fc
:1036e8003e089000b0009000200090000001be004d
:1036f8000400be0093f70700b7fe070020538800b8
:1037080031538800c4528000d552800070838400f1
:103718008183840018c0b3000001be000400be000d
:1037280086f70700e00f500001003c000044eb0062
:10373800e04f540024003200e8528000f952800023
:103748002e089000f0009000600090000200200019
:1037580003f0230045f707000002be004052800036
:10376800515280000001be000400be003ff7070070
:103778000001be000800be0073f70700e052880091
:10378800f1528800e0528000f15280006dfe07007f
:10379800e0528800f1528800e4528000f55280001f
:1037a8003e089000d0009000400090000001be004c
:1037b8000400be0063f7070062fe0700405388005c
:1037c80051538800060037006000b800e0528800b6
:1037d800f15288006000b8004053880051538800b7
:1037e8000453800015538000f08384000184840012
:1037f8000001be000400be001cf70700205488002a
:10380800315488002453800035538000308484006c
:10381800418484000001be000400be0013f70700c5
:103828004054880051548800445380005553800008
:1038380070848400818484000001be000400be00fe
:103848000af70700605488007154880040528000cd
:103858005152800018c0b300f226210033a823007b
:1038680036f70700e00f500001003c000044eb0071
:10387800e04f540032003200405280005152800024
:103888000001be000000200001f823008df70700aa
:1038980040079800510798003e0890001002be00ab
:1038a80060528000715280000001be000400be001a
:1038b80024f7070023fe07004e019000de01900068
:1038c800eaf60700c0538800d15388003e089000ec
:1038d80020029000b0029000805280009152800037
:1038e8000001be000400be0016f707003afe0700fc
:1038f8004e019000de019000dcf60700e0538800de
:10390800f15388003e08900040029000d0029000d9
:10391800a0528000b15280000001be000400be0029
:1039280008f7070007fe07004e019000de0190002f
:10393800cef60700005488001154880009003700ab
:103948006000b800c0538800d15388006000b800f8
:10395800e0538800f15388006000b80000548800e4
:10396800115488003e0890001000be006052880084
:10397800715288003e089000b0009000200090002e
:1039880080528800915288003e089000d000900034
:1039980040009000a0528800b15288001084840032
:1039a800218484000002be0005f0a200c0538000fc
:1039b800d15380000001be000400be00abf6070032
:1039c8008054880091548800508484006184840065
:1039d8000002be0005f0a200e0538000f153800011
:1039e8000001be000400be00a0f60700a054880035
:1039f800b154880090848400a18484000002be0031
:103a080005f0a20000548000115480000001be009f
:103a18000400be0095f60700c0548800d154880001
:103a280012fe07006453800075538000f083840001
:103a3800018484000001be000400be008bf607006c
:103a4800e0548800f1548800845380009553800026
:103a580030848400418484000001be000400be005c
:103a680082f607000055880011558800a45380008d
:103a7800b553800070848400818484000001be00f6
:103a88000400be0079f607002055880031558800eb
:103a98002454800035548000805480009154800064
:103aa8000001be000400be00a7f607000002be0029
:103ab800e0548000f15480000001be000400be0004
:103ac800a1f60700405588005155880044548000ed
:103ad80055548000a0548000b15480000001be00fd
:103ae8000400be0098f607000002be0000558000e2
:103af800115580000001be000400be0092f60700c8
:103b080060558800715588006454800075548000a1
:103b1800c0548000d15480000001be000400be00e3
:103b280089f607000002be0020558000315580004c
:103b38000001be000400be0083f60700805588001f
:103b480091558800c4528000d5528000508384006b
:103b5800618384000001be000400be0043f6070034
:103b68006007980071079800405580005155800003
:103b780018c0b3006e019000fe0190006ff60700b8
:103b8800e00f500001003c000044eb00e04f5400ff
:103b9800040032006e009000fe009000405588003e
:103ba8005155880044558000555580006e0090009e
:103bb800fe00900001f0a20018c0b3000001be0092
:103bc8000400be0027f60700e00f50000100350092
:103bd8000044eb00e04f5400050032006e009000f6
:103be800fe00900001f0a200405588005155880061
:103bf800605580007155800018c0b3006e019000b8
:103c0800fe0190004df60700e00f500001003c0057
:103c18000044eb00e04f5400040032006e019000b5
:103c2800fe01900062558800735588006455800035
:103c3800755580006e009000fe00900001f0a20013
:103c480018c0b3000001be000400be0005f607005e
:103c5800e00f5000010035000044eb00e04f540035
:103c6800050032006e009000fe00900001f0a200f6
:103c780060558800715588008055800091558000f6
:103c880018c0b3006e019000fe0190002bf60700eb
:103c9800e00f500001003c000044eb00e04f5400ee
:103ca800040032006e009000fe00900080558800ed
:103cb8009155880084558000955580006e009000cd
:103cc800fe00900001f0a20018c0b3000001be0081
:103cd8000400be00e3f50700e00f500001003500c6
:103ce8000044eb00e04f5400050032006e009000e5
:103cf800fe00900001f0a2008055880091558800d0
:103d0800bc150700a0558800b1558800c452800032
:103d1800d5528000a0558000b15580000001be003a
:103d28000400be00d1f50700000f9800110f98009d
:103d3800485580005955800062ba290043b42300d1
:103d48000e0890009e089000c8f507000001be000c
:103d58000800be00fbf50700405588005155880053
:103d680068558000795580006011b8000e089000f1
:103d78009e089000bdf507000001be000800be00c7
:103d8800f1f5070060558800715588008855800056
:103d980099558000a2702d0033ba23000e089000b8
:103da8009e089000b1f507000001be000800be00a3
:103db800e4f507008055880091558800c4528000ba
:103dc800d552800040558000515580000001be004a
:103dd8000400be00dbf507004e0990006001980062
:103de80071019800c4528000d5528000405580006f
:103df800515580000001be000400be00d2f5070046
:103e08004e0990004001980051019800c45280006a
:103e1800d552800060558000715580000001be00b9
:103e28000400be00c7f507004e0990002001980065
:103e380031019800c4528000d5528000605580003e
:103e4800715580000001be000400be00bef50700e9
:103e58004e0990000089be004e0890002002900094
:103e6800b002900080558000915580000001be008e
:103e78000400be00b3f507004e0990002001980029
:103e8800310198004e0890001002be008055800055
:103e9800915580000001be000400be00a9f507008e
:103ea8004e0990000089be004e0890006002900004
:103eb800f002900080558000915580000001be00fe
:103ec8000400be00a0f507004e09900060019800ac
:103ed800710198004e08900040029000d0029000b6
:103ee80080558000915580000001be000400be008e
:103ef80095f507004e09900040019800510198007f
:103f08004e089000b10b07004f04be000080fa0075
:103f1800000006000e00fa00008fbe00220798007d
:103f280033079800440798005507980066079800db
:103f38006e0090003e1878002e1078006e009000f9
:103f48002e019000be0190002200980033009800d6
:103f58006e0090004e019000de0190004200980033
:103f6800530098006e0090000080fa0000000600e0
:103f78000400fa00000f7800110798001e0078006e
:103f88001000be001e0190000089be001e007800cf
:103f9800b0009000200090001e01900020019800c1
:103fa800310198001e007800d00090004000900079
:103fb8001e01900040019800510198001e009000d9
:103fc8000080fa00000006000600fa00889fbe0084
:103fd800000f780011079800220798001e0078004b
:103fe80020029000b00290001e009000d0009000c7
:103ff800400090000001be000400be001bf5070051
:104008000004be001e00780040029000d00290001c
:104018001e009000b0009000200090000001be003b
:104028000400be0011f507000001be000800be0034
:1040380044f507002e0190000089be001e0078009c
:1040480040029000d00290001e0090001000be00b8
:104058000001be000400be0004f507000004be0015
:104068001e0078001002be001e009000d0009000d4
:10407800400090000001be000400be00fbf40700f1
:104088000001be000800be002ef507002e019000ba
:1040980020019800310198001e0078001002be002f
:1040a8001e009000b0009000200090000001be00ab
:1040b8000400be00edf407000004be001e007800f6
:1040c80020029000b00290001e0090001000be0078
:1040d8000001be000400be00e4f407000001be00b9
:1040e8000800be0017f507002e0190004001980057
:1040f800510198002e0090004f04be000080fa0085
:10410800000006000600fa00000f7800110798006a
:10411800220798001e0078001002be001e009000c2
:104128001000be000001be000400be0006f5070036
:104138002e0190000089be001e0078002002900029
:10414800b00290001e009000b00090002000900087
:104158000001be000400be00fbf407002e01900021
:1041680020019800310198001e007800400290005c
:10417800d00290001e009000d000900040009000f7
:104188000001be000400be00eff407002e019000fd
:1041980040019800510198002e0090000080fa001c
:1041a800000006000800fa00000f780012079800c7
:1041b80023079800310798001e0078001000be0001
:1041c8001e019000ae019000a8f407003e01900087
:1041d8000089be001e007800b0009000200090000a
:1041e8001e019000ae019000a0f407003e0190006f
:1041f80020019800310198001e007800d00090003e
:10420800400090001e019000ae01900097f4070056
:104218003e01900040019800510198003e00900036
:104228000080fa00000006000200fa00889fbe0025
:10423800000f78001e0078001002be001e007800f3
:104248001000be000001be000400be0087f4070095
:104258000004be001e00780020029000b00290000a
:104268001e007800b0009000200090000001be0001
:104278000400be007df407000001be000800be0077
:10428800b1f407000004be001e0078004002900050
:10429800d00290001e007800d000900040009000ee
:1042a8000001be000400be0070f407000001be005b
:1042b8000800be00a4f4070047f507004f04be003d
:1042c8000080fa00000006000c00fa00881f780041
:1042d80040079800510798004e009000d2ff070051
:1042e800008fbe0018c0b300c24d220043832200d5
:1042f8001e00be005bf40700e00f5000010035000f
:104308000044eb00e04f5400060032005e039000ca
:104318006022b8006011b8006000b800fdfe070018
:104328000b0037001e01be000000200001f823002a
:10433800e4f407002007980031079800de00900099
:104348002e019000be0190004e00900095ff0700de
:104358004f0478000080fa00000006000200fa000e
:10436800000f78001e007800f008900060089000a8
:104378006011b8003bf40700e00f500009003a0054
:104388001e00780090109000001090006011b80096
:1043980034f40700e00f500002003a006000b80053
:1043a800090037001e00780090109000001090005f
:1043b8001e017800620a9000f20a90000001be0017
:1043c8000400be0039f507000080fa00000006006e
:1043d8000200fa00881f7800000f78001e0078009d
:1043e800d00890004008900018c0b30002002000d8
:1043f80003f8230051f40700e00f500001003d00ce
:104408000044eb00e04f54000300320080fd200020
:1044180091fc2b00140037001e007800d008900093
:104428004008900018c0b3000200200003f82b00d9
:104438000cf40700e00f5000010034000044eb00ca
:10444800e04f54000300320080fd200091fc23005f
:10445800050037001e007800d00890004008900042
:104468002ff5070001f0a2004f0478000080fa0041
:10447800000006000200fa00000f78001e00780015
:10448800f0009000600090006011b800f5f307009c
:10449800e00f500008003a001e0078001000be002f
:1044a8006011b800eff30700e00f500002003a0077
:1044b8006000b800080037001e0078001000be0039
:1044c8001e01780062029000f20290000001be0016
:1044d8000400be00f5f407000080fa0000000600a2
:1044e8000400fa00889fbe00000f780011079800aa
:1044f8001e00780000119000901190001e007800b6
:10450800f0089000600890001e027800440c9000ab
:10451800d40c90001e0390000202be000001be00f1
:104528000800be007bfe07004f04be000080fa00b2
:10453800000006000000fa000000200001f8230037
:10454800805c8800915c8800805c8000915c8000c1
:10455800005c8800115c8800005c8000115c8000b1
:10456800805b8800915b88006000b800605c880010
:10457800715c8800605c8000715c8000405c880031
:10458800515c8800405c8000515c8000205c8800a1
:10459800315c8800205c8000315c8000e05b880032
:1045a800f15b8800e05b8000f15b8000c05b880005
:1045b800d15b8800c05b8000d15b8000a05b880075
:1045c800b15b88000000eb00e05c88006000b80088
:1045d800a05c8800b15c88006000b800c05c8800fe
:1045e800d15c880000002000010a2400f05c8800eb
:1045f800015d880026ba20006022b8006011b8006a
:104608006000b80043fe07000080fa0000000600c2
:10461800ae00fa00881f78004097980051979800dc
:1046280062979800a05c8000b15c80006011b800bf
:104638008cf30700e00f50000a003a00f61107005b
:1046480050f92b0061452300a05c8800b15c88000c
:10465800110d0700c05c8800d15c8800e05c800018
:10466800ba0037000c0d07002007980031079800a2
:10467800c05c8000d15c80002e019000be019000db
:1046880000005100818059000cf407000002be00b0
:10469800a05c8000b15c80000001be000400be0088
:1046a80072f30700008fbe002e009000be0090003d
:1046b800c05c8800d15c880018c0b300f2282c00c8
:1046c80053cf23001e00be009cf30700e00f5000ec
:1046d80001003c000044eb00e04f540003003200ae
:1046e800f0282c0051cf2300008fbe00780047002f
:1046f800800078005e909000f3fe07006c00470091
:104708008000780000b7200075ff070042022000f3
:104718000e014100f80047006c0047002afe070020
:10472800e05c8000e00f5000120032003286840006
:1047380043868400010320008e8040004002200050
:104748000e00400097fe07005086840061868400b2
:104758001e01be0045f307000001be00c103200092
:104768008e804000400220000e0040008dfe0700b1
:104778000e003700010320008e8040004002200018
:104788000e004000d2cc2c00c3dc230085fe0700bd
:10479800c00320000e004000000378006022b8002b
:1047a8006011b8006000b800dafd0700c0032000ff
:1047b8000e00400022ba20008000780020ba2000b5
:1047c80050fe0700810420008e8040000003200076
:1047d8000e0040000101780021ba200049fe0700c0
:1047e800e05c8000e00f500021003a004002200009
:1047f8000e0040008cfe0700400798005107980003
:10480800f05c8000015d80000200200003042400a9
:1048180016f307004e019000de0190004af30700ee
:104828000200200003082400a6f30700f05c8800bb
:10483800015d8800f45c8000055d800010868400be
:104848002186840018c0b3000001be000400be0029
:1048580004f30700e00f5000010035000044eb00ae
:10486800e04f54000200320010002000e05c880095
:10487800400520000e004000800078001e01be00a8
:104888004e90900047fe0700420520000e014100af
:10489800810420008e804000400520000e0040006a
:1048a80018fe0700010620008e8040004005200009
:1048b8000e004000bb100700410820008e80400019
:1048c800000620000e0040000101780080007800fa
:1048d80000b720003af60700400820000e0040000c
:1048e80001b720007af8070000b720009bfe0700f8
:1048f8006e9190000089be0000b72000b4fe07004a
:104908006e919000200198003101980000b72000b6
:10491800d8fe07006e919000400198005101980060
:10492800805c8000915c80006e919000600198002e
:10493800710198006e90900070004000800078002f
:104948004e9090008afd0700e05c80004f047800dc
:104958000080fa00000006000200fa00881f7800b4
:10496800000f78001e007800f000900060009000b2
:1049780001f0a10018c0b300a2702d0033ca2300b3
:10498800b8f20700e00f5000010035000044eb00ca
:10499800e04f5400040032001e0178006000b800a7
:1049a80060019800710198001e007800b000900026
:1049b80020009000a299290093e92300abf2070098
:1049c8001e01780020019800310198001e0078002f
:1049d800d000900040009000a299290093e923009c
:1049e800a2f207001e0178004001980051019800ca
:1049f8004f0478000080fa00000006000000fa006a
:104a08006000b80020528800315288000080fa0007
:104a1800000006006000fa00881f7800a411070053
:104a280020002000021107000d14070011002000cb
:104a3800600b2900160e0700429c20000000200091
:104a480001022400fd07070085110700300020003f
:104a5800a40f070040002000e21107001100200009
:104a6800500020006f120700e115200060002000b0
:104a7800670d070040110700007d2000010020009d
:104a88003a0c0700431107006000b800008fbe0011
:104a980011002000800b2900fd0d0700a406070067
:104aa80011002000a00b2900f90d070031c0b30048
:104ab8000040eb0048130700e00f500003003200ed
:104ac80021002000c00b29007111070011002000ef
:104ad800f00b2900ee0d070070004700be06070026
:104ae8000200370070004700bb0607000e10900058
:104af800e00f5000fbff32000e0890009e08900067
:104b080018c0b300d2cc2c00c3dc23008bf2070002
:104b1800e00f500001003c000044eb00e04f54005f
:104b2800f0ff3a0011002000600b2900d80d0700a3
:104b38009b010700e0050700e00f5000030032006a
:104b480021002000c00b2900511107004411070063
:104b580011002000a00b2900cd0d0700b41207009a
:104b6800a6ff07003e1107006000b8003017980044
:104b7800411798006000b800501798006117980016
:104b88006000b80070179800011f98006000b80016
:104b980010179800211798000e109000101f980009
:104ba800f51007007000470095060700e00f500059
:104bb800020032007000470067ff07003e109000b7
:104bc800ce10900002002000831f240027f2070067
:104bd8000002be002e089000be0890000001be0032
:104be8000400be0058f207000200200003d0230092
:104bf8001ef2070030179800411798005e109000c9
:104c0800ee10900002002000831f240017f2070016
:104c18000002be004e089000de0890000001be00b1
:104c28000400be0048f207000200200003d0230061
:104c38000ef2070050179800611798007e10900038
:104c48008e18900002002000030e240007f20700cf
:104c58000002be006e089000fe0890000001be0031
:104c68000400be0038f207000200200003e0230021
:104c7800fef1070070179800011f98001e109000a1
:104c8800ae1090000200200003042400f7f1070092
:104c98000002be000e0890009e0890000001be00b1
:104ca8000400be0028f207000200200003e82300e9
:104cb800eef1070010179800211798000e109000c9
:104cc800101f98001e189000e00f500021003a00b5
:104cd8006000b800602f9800712f98006e2890002f
:104ce800fe289000402f9800512f98004e289000e1
:104cf800de289000202f9800312f98002e28900051
:104d0800be289000002f9800112f98000005200061
:104d18000e004000a50a07006000b800008fbe0022
:104d2800a000200001002000900b07008000eb008d
:104d38000000eb0083120700a00020000100200003
:104d48008a0b07008000eb000000eb007d120700d3
:104d58005eff3700f7110700200798003107980019
:104d680018c0b3003233230033eb23002e00900029
:104d7800be009000bbf10700e00f500001003500b5
:104d88000044eb00e04f5400150032002e00900064
:104d9800be0090000001be00ebf10700400798003c
:104da800510798001e109000ae10900018c0b30074
:104db8004e019000de019000e0f10700e00f500086
:104dc80001003c000044eb00e04f540004003200b6
:104dd8004e009000de0090001017980021179800f0
:104de8009000200001002000600b07004003200015
:104df8000e004000a6120700e00f500008003a001d
:104e0800020520000e014100410320008e80400071
:104e1800200220000e004000bff9070010003700f4
:104e28001e109000ae109000602f9800712f98000f
:104e38006e289000fe289000402f9800512f98006f
:104e48004e289000de289000202f9800312f9800df
:104e58002e289000be289000002f9800112f98004f
:104e68000e2090009e20900018c0b30002aa2100d6
:104e7800f3ea23007bf10700e00f50000100340043
:104e88000044eb00e04f54001a0032001e1090005e
:104e9800ae10900018c0b300d2cc2c00c3ec230095
:104ea80070f10700e00f5000010034000044eb00ef
:104eb800e04f54000f0032006000b800602f9800e7
:104ec800712f98006e289000fe289000402f9800bf
:104ed800512f98004e289000de289000202f98002f
:104ee800312f98002e289000be289000002f98009f
:104ef800112f9800000520000e0040002b0a070023
:104f0800e50a070060079800710798001e00be00b8
:104f1800e00f5000e08f580003003a006e01900047
:104f2800fe019000028fbe006e009000fe0090000f
:104f38003e015000ae8158000200be00c0558800f6
:104f4800d15588002e189000be189000e0558800b2
:104f5800f15588004e189000de1890000056880021
:104f6800115688006e189000fe1890002056880090
:104f7800315688000e2090009e20900040568800f0
:104f880051568800c0538000d15380006056880075
:104f980071568800e0538000f153800080568800e5
:104fa800915688000054800011548000a056880053
:104fb800b15688001e109000ae109000c0568800b0
:104fc800d15688003e109000ce109000e056880020
:104fd800f15688005e109000ee109000005788008f
:104fe800115788007e1090008e1890002057880076
:104ff80031578800e0528000f15280004057880005
:105008005157880020548000315480006057880030
:105018007157880080548000915480008057880020
:1050280091578800e0548000f1548000a057880010
:10503800b15788004055800051558000c0578800fe
:10504800d15788004054800051548000e0578800b0
:10505800f1578800a0548000b1548000005888009f
:10506800115888000055800011558000205888008c
:10507800315888006055800071558000405888007c
:10508800515888006054800071548000605888002e
:1050980071588800c0548000d1548000805888001e
:1050a800915888002055800031558000a05888000c
:1050b800b15888008055800091558000c0588800fc
:1050c800d1588800c0528000d1528000e058880032
:1050d800f1588800a0558000b1558000005988001b
:1050e8001159880080ab2000c106200095110700e7
:1050f800acfe37000e00fa00008fbe0022079800b1
:1051080033079800440798005507980066079800e9
:105118006e0090003e1878002e1078006e00900007
:105128002e019000be0190002200980033009800e4
:105138006e0090004e019000de0190004200980041
:10514800530098006e0090000080fa0000000600ee
:105158000000fa00405f8000e00f500002003a00b3
:10516800e00020000c00370040598000e10f50009b
:1051780002003a000000eb00070037001000200092
:10518800405988008680a9001100200010002000e6
:10519800370d07000000eb000080fa000000060051
:1051a8000000fa00405f8000e00f500002003a0063
:1051b800e00020000e00370040598000e00f50004a
:1051c80002003a000000eb00090037008000eb0005
:1051d80010002000260d07008680a9000000eb00c3
:1051e800405988000000eb00006088000000eb00d8
:1051f8000080fa00000006000200fa00000f7800a4
:1052080040598000e00f500002003a00d000200012
:10521800020037001e007800210007000080fa0015
:10522800000006000200fa00000f780040598000d4
:10523800e00f500002003a00d000200007003700bd
:1052480000608000e00f500002003a00c00020001b
:10525800020037001e007800110007000080fa00e5
:10526800000006000200fa00000f78004059800094
:10527800e00f500002003a00d0002000060037007e
:105288000000000000608000e00f5000fdff3200c9
:105298001e007800020007000080fa0000000600e7
:1052a8003600fa00889fbe008a9fbe008c9fbe0011
:1052b800001f9800100280004500de006740600073
:1052c8000080fb00200798009002800030079800bb
:1052d800ff3ffc00e6cbbf00674060000080fb009a
:1052e800670060004500dd0012028000f1f12f0028
:1052f8008100610000807000100288003e0090006c
:1053080090028800000088002059800031598000f0
:105318000e1990002001980031019800c0598000b2
:10532800d1598000200f9800310f9800e059800073
:10533800f1598000400f9800510f9800005a8000e2
:10534800115a8000600f9800710f9800205a800051
:10535800315a80000017980011179800405a8000b1
:10536800515a80002017980031179800605a800021
:10537800715a80004017980051179800805a800091
:10538800915a80006017980071179800006080009b
:10539800400798000000eb00006088009002800041
:1053a80050079800ff3ffc002e0090000040780056
:1053b800674060000080fb00670060004500dd007a
:1053c80012028000f1f12f0081006100008070005e
:1053d800100288005e00900090028800000088009b
:1053e8004e009000e10f5000090036004e0090007a
:1053f80001002000b1f007000001be0000002000fd
:1054080001f82300aff00700008fbe00030037004b
:105418000000200001f82300008fbe002e08900035
:10542800be089000e9f007001e01be000ff007005b
:105438000004be0080818400cf80de00e3f0070016
:105448000001be000800be003ef007000002be00da
:1054580090818400a18184000001be000400be0088
:1054680002f007000e1990004001980051019800c1
:105478000e18900040029000d002900050828400e4
:10548800618284000001be000400be002df0070008
:1054980060079800710798000e1890006c00400093
:1054a800101f98000e1090009e109000c7f0070083
:1054b8001e01be00edef07000004be00108384004b
:1054c800218384006e019000fe019000e7ef070041
:1054d8000002be00f0828400018384000001be0047
:1054e8000400be0018f007000001be000800be005e
:1054f80014f007000002be0030828400418284005c
:105508000001be000400be00d8ef07000005be0081
:105518006e089000fe089000acf007001e01be0067
:10552800d2ef07000004be00d0828400e18284002c
:105538006e019000fe019000ccef07000002be0053
:10554800b0828400c18284000001be000400be0055
:10555800fdef07000001be000800be00f9ef0700dc
:105568000002be0030828400418284000001be0037
:105578000400be00bdef07000004be004e08900006
:10558800de08900091f007001e01be00b7ef07008b
:105598000006be0090828400a18284006e01900003
:1055a800fe019000b1ef07000002be007082840087
:1055b800818284000001be000400be00e2ef070003
:1055c8000001be000c00be00deef07000002be00b6
:1055d80030828400418284000001be000400be00c5
:1055e800a2ef07001e1b90000a02be000801be00c1
:1055f800c0fe07000e18900040029000d0029000f4
:10560800505f8000615f80000001be000400be00a2
:10561800ccef070060079800710798000e189000fb
:1056280078004000201f98006e109000fe10900037
:1056380066f007001e01be008cef07000004be00e4
:1056480010828400218284006e019000fe01900087
:1056580086ef07000002be00b05f8000c15f8000d7
:105668000001be000400be00b7ef07000001be0045
:105678000800be00b3ef07000002be00b08184003e
:10568800c18184000001be000400be0077ef07005e
:105698000005be004e109000de1090004bf0070091
:1056a8001e01be0071ef07000004be00f0818400f7
:1056b800018284006e019000fe0190006bef0700ec
:1056c8000002be00905f8000a15f80000001be0064
:1056d8000400be009cef07000001be000800be00e9
:1056e80098ef07000002be00b0818400c1818400e9
:1056f8000001be000400be005cef07000004be000d
:105708002e109000be10900030f007001e01be0061
:1057180056ef07000006be00d0818400e1818400b6
:105728006e019000fe01900050ef07000002be00dd
:10573800705f8000815f80000001be000400be0031
:1057480081ef07000001be000c00be007def0700de
:105758000002be00b0818400c18184000001be0047
:105768000400be0041ef07002e1b90000a02be0095
:105778000801be005ffe07004e009000e00f5000d9
:105788002d0032004e00900001002000cbef0700f2
:10579800000f9800110f9800d05f8000e15f800033
:1057a8000e0990009e09900066ef07000002be00f7
:1057b800b05f8000c15f80000001be000400be0031
:1057c8002aef07000004be006e109000fe10900043
:1057d800feef07001e01be0024ef07000005be0013
:1057e80010828400218284006e019000fe019000e6
:1057f8001eef07000001be000a00be0051ef0700bf
:105808000e0990009e09900018ef07000001be00e5
:105818000800be004cef07000002be00d05f800009
:10582800e15f80000001be000400be00a5ef070094
:10583800b05f8800c15f8800970807000e199000c4
:105848000089be000000eb004f06be004f05be00f9
:105858004f04be000080fa00000006000e00fa00a7
:10586800008fbe002207980033079800440798006d
:1058780055079800660798006e0090003e1878005b
:105888002e1078006e0090002e019000be0190004e
:1058980022009800330098006e0090004e0190009e
:1058a800de01900042009800530098006e009000be
:1058b8000080fa00000006002800fa00889fbe0059
:1058c8008a9fbe008c9fbe0010179800405f800022
:1058d800e00f500002003a00e0002000e40037002a
:1058e80040598000e00f500002003200b000200054
:1058f800df0037000000eb00000f7800660047006b
:1059080036010700000f78001e007800e00f5000f5
:10591800020032001e007800d50037005e0807003c
:105928001e1190000089be00205980003159800066
:1059380061004000e0804800205988003159880003
:1059480020598000315980001e11900020019800d4
:10595800310198003e019000ce01900080818400c2
:10596800cf80de00000051008180590097ef0700ca
:105978000002be0090818400a18184000001be0065
:105988000400be00b9ee07001e1190004001980007
:10599800510198001e10900040029000d002900023
:1059a80050828400618284000001be000400be00b1
:1059b800e4ee070010079800210798001e109000d9
:1059c8006c004000201798001e089000ae08900058
:1059d8007eef07000004be0010838400218384004a
:1059e8001e019000ae019000a0ee07000002be006c
:1059f800f0828400018384000001be000400be0020
:105a0800d1ee07000001be000800be00cdee070081
:105a18000002be0030828400418284000001be0082
:105a28000400be0091ee07000005be007e00900055
:105a38008e08900065ef07000004be00d082840045
:105a4800e18284001e019000ae01900087ee0700fd
