:020000040000fa
:080000000002040000000000f2
:020000040000fa
:10040000cfd620000e7f22000e01880000000000e1
:100410000c000700e09125000100200011000700fa
:10042000000020000000e000020032000000020096
:100430000000000066570200000000000040da00e3
:100440000000fe004440a900403e22000000e00001
:100450000300320000002000a00188004440a800f2
:100460000000060091018800800078000000eb0089
:1004700015003700e280400032a0b4009101ba00bc
:10048000e280400032a0b4009102ba00e280400055
:1004900032a0b4000002eb00472bde00f507b200eb
:1004a000602ce10004003a000059eb008301e900f0
:1004b000fdff3e00040037006128e100010032002a
:1004c0000082eb00040007001101ba000200e00006
:1004d000e8ff3a00000006003159ba008301e90044
:1004e0000c0032002159ba008301e90008003200f3
:1004f0000400e00003003a00e280400032a0b400b3
:10050000f5ff370011d9ba008301e900faff3a007c
:100510008100e800e180400032a0b4000000060045
:10052000ba700400000000009803040000000000fe
:10053000809fbe00829fbe000000fa008460a90078
:10054000b0698000c169800061004000e08048001f
:10055000b0698800c1698800b2698000c369800001
:10056000d0698000e1698000800f5100818f5900bf
:10057000080036000080eb008080eb00d069880026
:10058000e1698800f0698000e00f5000010032004e
:100590008bc0a8000080fa004f01be004f00be00d3
:1005a000004006003600f800809fbe00829fbe001b
:1005b000849fbe00869fbe000200fa008bc0a90087
:1005c000f0698000000f78001e007800e00f5000f6
:1005d000020032001e007800000001000080fa00d6
:1005e0004f03be004f02be004f01be004f00be00d1
:1005f0003600f900004006003600f800809fbe007b
:10060000829fbe00849fbe00869fbe000200fa004b
:100610008620a9004010800070006000e00f5000ac
:100620001a0032009620a9000000eb00306a880012
:10063000406a800000407800614060000080fb005c
:10064000610060004400dd00b2048000f1fe2f0074
:100650008100610000807000b0048800506a800052
:1006600000407800614060000080fb006100600095
:100670004d00dd00b2048000f1ff2d00810061001b
:1006800000807000b004880009003700306a8000e4
:10069000000f78001e007800e00f500003003200c9
:1006a0001e0078000000010001003700000000007b
:1006b0000080fa004f03be004f02be004f01be0093
:1006c0004f00be003600f900004006000000fa00ae
:1006d0008600a9000080fa00004006003600f800fd
:1006e000809fbe00829fbe00849fbe00869fbe008a
:1006f0000000fa008680a900803920002f31070011
:10070000e00f500003003a000000eb00e0688800b2
:100710000602a8000080fa004f03be004f02be0090
:100720004f01be004f00be003600f9000040060039
:100730000200fa008620a900411080000000280075
:1007400000806000e00f50000f003a004110800070
:100750000040200000806000e00f50000a003a00d6
:10076000411080000008200000806000e00f500071
:1007700005003a0041108000000420000080600065
:10078000e00f5000020032006c310700f00037002b
:10079000e0688000010020007200200003002000bb
:1007a000820f5000838f5800e6003e000060010079
:1007b000070037000f00370013003700160037001e
:1007c0001d00370023003700380037003c00370099
:1007d000a0482b00104078008080fb00e00f200034
:1007e000008060001010880010002000e068880081
:1007f000d6003700b0032000101088002000200031
:10080000e0688800d10037000622a80030002000f0
:10081000e0688800cd003700a0482b001040780029
:100820000004a0000080fb001010880040002000a1
:10083000e0688800c500370008c2a9000662a80069
:100840000000eb000069880050002000e06888008c
:10085000be00370002698000001080000040780070
:10086000a1bb200081004100804878000069800021
:100870000000e8000069880000698000ed0f50006a
:1008800005003e0006a2a9000682a8006000200024
:10089000e0688800ad00370006a2a8000682a80024
:1008a00070002000e0688800a800370008c2a90096
:1008b0000662a80050002000e0688800a30037000e
:1008c0001e310700bacbbf0010479800bbcbbf005a
:1008d000004f78001e0078000000ea00cf80de00a4
:1008e000605f8800715f8800bccbbf001047980034
:1008f000bdcbbf00004f78001e0078000000ea006a
:10090000cf80de00405f8800515f8800becbbf0013
:1009100010479800bfcbbf00004f78001e00780042
:100920000000ea00cf80de00805f8800915f8800d1
:10093000c0cbbf0010479800c1cbbf00004f78006c
:100940001e007800cf80de00205f8800315f8800c5
:10095000c2cbbf0010479800c3cbbf00004f780048
:100960001e0078000000ea00cf80de00c05f880033
:10097000d15f8800c4cbbf0010479800c5cbbf0033
:10098000004f78001e0078000000ea00cf80de00f3
:10099000a05f8800b15f8800c6cbbf0010479800f9
:1009a000c7cbbf00004f78001e0078000000ea00af
:1009b000cf80de00e05f8800f15f8800a05d8000ee
:1009c000b15d800061004000e0804800a05d8800cb
:1009d000b15d8800f0688000e00f50001d003a0013
:1009e000405f8000515f8000605e8800715e88001b
:1009f000605f8000715f8000805e8800915e88008b
:100a0000805f8000915f8000a05e8800b15e8800fa
:100a1000205f8000315f8000405e8800515e88006a
:100a2000a05f8000b15f8000c05e8800d15e88005a
:100a3000c05f8000d15f8000e05e8800f15e8800ca
:100a4000e05f8000f15f8000005f8800115f880038
:100a500038003700625e8000735e8000405f800077
:100a6000515f80000200400083804800605e880083
:100a7000715e8800825e8000935e8000605f80000f
:100a8000715f80000200400083804800805e880023
:100a9000915e8800a25e8000b35e8000805f80006f
:100aa000915f80000200400083804800a05e8800c3
:100ab000b15e8800425e8000535e8000205f80004f
:100ac000315f80000200400083804800405e880063
:100ad000515e8800c25e8000d35e8000a05f80000f
:100ae000b15f80000200400083804800c05e880043
:100af000d15e8800e25e8000f35e8000c05f80000f
:100b0000d15f80000200400083804800e05e8800e2
:100b1000f15e8800025f8000135f8000e05f80006c
:100b2000f15f80000200400083804800005f880081
:100b3000115f8800f06880000000e800f06888001d
:100b4000020037007d300700010037000000000080
:100b50000080fa0000000600809fbe00829fbe0059
:100b60000000fa0021e3a900001880006101b8002c
:100b700030698000416980000200400083804800a5
:100b80003069880041698800506980000000e800f1
:100b90005069880051698000f0032000808f500068
:100ba0001400360030698000416980000002b00006
:100bb0000180b0004a09dd004600de00000071003f
:100bc000c608de00000078002069880000022000ce
:100bd00050698800306980004169800061004000f0
:100be000e08048008100d1000080d3003069880097
:100bf0004169880085a0a90021e3a8000080fa00cf
:100c00004f01be004f00be0000400600809fbe00a6
:100c10000000fa000000eb00306288000000eb00ea
:100c2000406288003262a9003242a9003222a90043
:100c300090608000a160800061004000e08048007a
:100c400090608800a16088008c40a9000080fa00b4
:100c50004f00be0000400600809fbe00829fbe0085
:100c60000400fa008c003700b01180002047980083
:100c70000000eb00000f780020542b00904078001b
:100c80002e40900080cf500003003a00100020005a
:100c9000000f78000700370030542b009040780098
:100ca0002e40900080cf500002003a00200020002b
:100cb000000f7800306280006300b9000000780007
:100cc0001e00400080004000c0c1200000804000a5
:100cd000100078003062880030628000010020003f
:100ce0006200200003002000820f5000838f580014
:100cf00069003e00006001006600370065003700b3
:100d0000640037000300370062003700120037002c
:100d10003300370041628000b0608000808f500057
:100d200009003100416280000090200000804000f6
:100d3000ae40900001487800406280000000e8006a
:100d40004062880054003700b06080000000e80076
:100d5000406288005000370041628000b06080002f
:100d6000808f50000a0031004262800030542b0016
:100d700010407800019020008100410080487800f8
:100d8000406280000000e8004062880003003700f5
:100d9000b06080000000e80040628800416280008e
:100da000b0608000808f50000900310041628000f7
:100db0000090200000804000ae4090000148780084
:100dc000406280000000e800406288003200370086
:100dd000b06080000000e800406288002e0037000c
:100de00041628000b0608000808f50001e003e0095
:100df00040628000e00f500021003200506080000f
:100e00006160800061004000e08048005060880020
:100e1000616088000000eb00d06088000b003700a4
:100e2000d2608000d16080000090200000804000ef
:100e3000104078000188200081004100804878003f
:100e4000d06080000000e800d0608800d1608000a1
:100e500040628000808f5000f1ff390010002000b8
:100e6000c0608800060037007060800081608000ec
:100e700061004000e0804800706088008160880068
:100e80000000eb00306288000000eb004062880048
:100e90000100370000000000901180006100600038
:100ea000e00f500070ff3a0087c0a9000080fa00f0
:100eb0004f01be004f00be0000400600809fbe00f4
:100ec0000000fa0020608000e00f500016003200a1
:100ed0000c0037003160800000802000008040005e
:100ee000104078000080fb002011880030608000f6
:100ef0000000e80030608800206080000000e90009
:100f00002060880020608000e00f50001200320056
:100f1000111180000020200000806000e00f5000d0
:100f2000ecff32000c00370030542b0010407800ea
:100f30000080fb00201188000000000030542b00ce
:100f4000104078000080fb00201188009580a900e7
:100f500010002000106088008580a9000080fa0041
:100f60004f00be0000400600809fbe000000fa0057
:100f700013e1a9008500a9000000eb000003880030
:100f80000000eb00100388008660a900b0698000b3
:100f9000c1698000606788007167880010002000c8
:100fa0004067880010002000506788000000eb00b8
:100fb000306788000000eb00606688006220a800af
:100fc0000000eb005008880013e1a8000080fa0040
:100fd0004f00be00004006003600f800809fbe00b3
:100fe000829fbe00849fbe00869fbe001c00fa0048
:100ff0000000eb00000388000000eb0010038800f5
:101000008660a900ad2b0700008fbe0060668000df
:10101000010020005200200003002000820f500039
:10102000838f580088013e000060010005003700f2
:10103000140037002300370032003700410037002a
:1010400050003700911680000008200000806000ea
:10105000e00f50007e013200626680001e00be007c
:10106000c211dd00e2cc2000028141000089be00f7
:10107000606680000000e800606688006280a8006a
:101080007f00370091168000001020000080600073
:10109000e00f500070013200626680001e00be004a
:1010a000c211dd00e2cc2000028141000089be00b7
:1010b000606680000000e800606688006260a8004a
:1010c0006f00370091168000002020000080600033
:1010d000e00f500062013200626680001e00be0018
:1010e000c211dd00e2cc2000028141000089be0077
:1010f000606680000000e800606688006200a8006a
:101100005f00370051168000004020000080600022
:10111000e00f500054013200626680001e00be00e5
:10112000c211dd00e2cc2000028141000089be0036
:10113000606680000000e8006066880061e0a8004a
:101140004f003700511680000080200000806000b2
:10115000e00f500046013200626680001e00be00b3
:10116000c211dd00e2cc2000028141000089be00f6
:10117000606680000000e8006066880061e0a8000a
:101180003f00370051168000008020000080600082
:10119000e00f500038013a00626680001e00be0079
:1011a000c211dd00e2cc2000028141000089be00b6
:1011b000606680000000e8006066880000000000b3
:1011c00092668000a3668000706680008166800061
:1011d0000000510081805900400798005107980095
:1011e000b2668000c366800090668000a1668000c1
:1011f0000000510081805900600798007107980035
:10120000d2668000e3668000b0668000c166800020
:101210000000510081805900000f9800110f9800c4
:10122000f266800003678000d0668000e16680007f
:101230000000510081805900200f9800310f980064
:101240001267800023678000f066800001678000dd
:101250000000510081805900400f9800510f980004
:101260004e019000de019000e0a78500f1a7850007
:10127000800f5100818f59000001350001003700b7
:10128000020137004e019000de01900060a8850049
:1012900071a88500800f5100818f5900f7003c0034
:1012a0006e019000fe019000e0a78500f1a7850087
:1012b000800f5100818f5900f00035006e019000c1
:1012c000fe01900060a8850071a88500800f510084
:1012d000818f5900e9003c000e0990009e099000a2
:1012e000e0a78500f1a78500800f5100818f59008c
:1012f000e20035000e0990009e09900060a885006c
:1013000071a88500800f5100818f5900db003c00df
:101310002e099000be099000e0a78500f1a7850086
:10132000800f5100818f5900d40035002e099000a4
:10133000be09900060a8850071a88500800f51004b
:10134000818f5900cd003c004e099000de099000cd
:10135000e0a78500f1a78500800f5100818f59001b
:10136000c60035004e099000de09900060a8850097
:1013700071a88500800f5100818f5900bf003c008b
:101380004e019000de01900000a8850011a88500a4
:10139000800f5100818f590005003d0000a8850095
:1013a00011a8850040079800510798000b003700ee
:1013b0004e019000de01900040a8850051a88500f4
:1013c000800f5100818f59000400340040a885002f
:1013d00051a8850040079800510798006e019000c1
:1013e000fe01900000a8850011a88500800f510023
:1013f000818f590005003d0000a8850011a88500d7
:1014000060079800710798000b0037006e0190008c
:10141000fe01900040a8850051a88500800f510072
:10142000818f59000400340040a8850051a8850030
:1014300060079800710798000e0990009e099000bf
:1014400000a8850011a88500800f5100818f5900e8
:1014500005003d0000a8850011a88500000f980038
:10146000110f98000b0037000e0990009e099000a4
:1014700040a8850051a88500800f5100818f590038
:101480000400340040a8850051a88500000f980092
:10149000110f98002e099000be09900000a8850049
:1014a00011a88500800f5100818f590005003d0073
:1014b00000a8850011a88500200f9800310f980022
:1014c0000b0037002e099000be09900040a885004f
:1014d00051a88500800f5100818f5900040034000d
:1014e00040a8850051a88500200f9800310f980072
:1014f0004e099000de09900000a8850011a8850023
:10150000800f5100818f590005003d0000a8850023
:1015100011a88500400f9800510f98000b0037006c
:101520004e099000de09900040a8850051a8850072
:10153000800f5100818f59000400340040a88500bd
:1015400051a88500400f9800510f98004e0190005f
:10155000de01900020a8850031a885000000510020
:101560008180590080678800916788006e01900033
:10157000fe01900020a8850031a8850000005100e0
:1015800081805900a0678800b16788002e0990000b
:10159000be09900020a8850031a8850000005100f8
:1015a00081805900e0678800f16788000e0990008b
:1015b0009e09900000a8850011a885000000510038
:1015c00081805900c0678800d16788004e0990006b
:1015d000de09900020a8850031a88500800f510009
:1015e000818f590004003d006000b8000068880049
:1015f000116888000400370010002000010020005e
:101600000068880011688800b0698000c1698000a6
:1016100060678800716788001000200040678800bc
:101620000000eb0050678800100020003067880041
:1016300013e1a9008500a9000000eb005008880014
:1016400013e1a8000d003700000000000b00370078
:10165000000000000900370000000000070037000c
:101660000000000005003700000000000300370004
:101670000000000001003700000000000000eb0047
:10168000606688006220a800000000000080fa0068
:101690004f03be004f02be004f01be004f00be0010
:1016a0003600f900004006000040da000000fe00ad
:1016b000889fbe008a9fbe008c1f780060010700d3
:1016c0006701330003866c006450e100240032009f
:1016d0006420e100270032006150e1002200320066
:1016e0006120e100210032008b854200eb07b10050
:1016f0000134b800003ab8000804420089844a0066
:10170000013ab8000030b8008880400009014a0062
:1017100004003300000040008180480002014900bd
:101720008b05e900c909dd0083017000010032006a
:1017300013002000c814de004814dd004709de0055
:101740001200b200c808de000884700054010700cf
:1017500001f0a1000cf0a70001f0a0004901370042
:101760006120e1004b0132000801be000200be0012
:10177000f7ff37006150e100fcff3a0045013700f8
:10178000140020006c01370003f0a200889fbe0007
:101790008a9fbe008c1f78002901070030013300aa
:1017a0006450e1004f0032006420e100520032003a
:1017b00003826c0007003b000905d0000306d0003f
:1017c000820f54000c065d00020039000200320056
:1017d00089017800030678008582550004003d00e9
:1017e0000003fd008103fd008502ea008b854200b5
:1017f000840f720002003b0060001000e0801800bf
:101800006011b8000005eb007a28e1000a003900f9
:1018100006007800c75ddd00f707b200878075001d
:101820002d003700828171000a0178006105600097
:101830008180d1000080d3008502e900f9ff3b00e0
:10184000060440008784480002003b006004140046
:10185000e0841c000988a300070032008a8171001f
:1018600082817100610164008904d1000884d30081
:101870008b05e800170037000978a30013003a0031
:101880000b00e000130034008b05e900080444005d
:1018900089844c000a4474000978a3000d003a00c2
:1018a0000b00e000070034008b05e9000804440049
:1018b00089844c0001003a000b0020000978a30045
:1018c000f7ff32000001eb00020037008281710057
:1018d0000a017800f20007000cf0a70001f0a00058
:1018e000e80037006420e10002003a00838f6c00ba
:1018f000e80033000801be000200be00e10037002e
:10190000f4ff2f000c0137006011b80025013700eb
:10191000889fbe008a9fbe008c1f7800c800070009
:10192000cf00330003866c006450e1002e003200cb
:101930006420e100330032006150e1002f003200ea
:101940006120e1003100320085855500eb07b000d1
:1019500009002000080420000500370008044400a6
:1019600089844c000a0031000603430087834b0042
:101970000001530081815b00f8ff33000203be00c9
:101980000800a0000804440089844c00f6ff3900d8
:10199000c639dd008301730001003200130020000e
:1019a0008904d1000884d3000998a30005003200ff
:1019b0000800a7000300a0008904d1000884d30018
:1019c0008b05e8008904d1000884d3000001eb00f6
:1019d0000281d200b200070001f0a1000cf0a700c4
:1019e00001f0a000a70037006420e100a900320048
:1019f0000801be000200be00f7ff37006120e100d1
:101a0000a40032006000b800f3ff3700000020009f
:101a100001f82700f0ff37004f89de0082017800cf
:101a20000f013700889fbe008a9fbe008c1f780080
:101a30000004be001a0107000478a30026003a0043
:101a40006120e1002500320009f8a30025003a00da
:101a50006420e10021003200f507b1000508a30071
:101a60000200320000004000818048006044b8005d
:101a70000310200002002000000040008180480088
:101a80000805440089854c000a0541008b85490002
:101a90000a0550008b855800030033000a00be0081
:101aa00002047400838474008301d1000281d30096
:101ab000830f7100f0ff3a008904d1000884d3003d
:101ac0006001490082017800c1adde00fb07b00073
:101ad000730007006b0037000960a0000800be001b
:101ae0006800370012022000526b8800f0ff2f00c0
:101af000f1ff270063003700889fbe008a9fbe0069
:101b00008c1f78004e0007001002200002003b00ee
:101b1000506b8800520037008a0062006408e100c0
:101b200002003a00506b88005a0037006108e1005b
:101b3000fcff32000800be000304780074ff0700b9
:101b400001f0a100eb00070008f0a6000400370038
:101b50000001be0091042400b0fd20000aff070030
:101b600009f0a70001f0a200460037000001eb00d9
:101b7000450137000001be00c90007000470a7003e
:101b800003f0a10003f8a30013003a006509b100b7
:101b900010003200090035006928e100020035001c
:101ba000010028000000050000004000818048007e
:101bb0008502e900fcff3a0000000600f88f4200b1
:101bc000050035008100d1000080d3008502e800c7
:101bd000fcff3a00000006008000eb00000005005a
:101be0000001eb008f01070004003200020020001a
:101bf00003f8230001f0a700e3fe07000000060041
:101c00006022b800060220000000d0008180d200cf
:101c10000482d2008582d2000000a000020252009d
:101c200083825a00030031000202420083824a008c
:101c30000000a1000603e900f3ff3a0000000600df
:101c40000004be00960007000003be000405be00ad
:101c50000200be0092000700844f750000000600dd
:101c60000200be006450e100050036006420e1007f
:101c7000020036000968a30001003a000800be0017
:101c80000160a0004f0678004f05be004f04be0063
:101c900000000600f0ff2f00f1ff2700f9ff3700da
:101ca00081002000618055000b003d000b002000ea
:101cb00061fe2f000100e1001d00340082817100ef
:101cc000610164008904d1000884d3000000e800a9
:101cd000faff3a0071002000610064000300700008
:101ce000020060000900320061044400e0844c00fe
:101cf0000988a500050032008b05e8006808e100ae
:101d000002003a008904d1000884d300f20f2000b9
:101d10000258e10005003d00c75ddd00f907b20093
:101d20008980750008007800000006000bf8270085
:101d30008b00780000000500889fbe008a9fbe00cf
:101d4000841f7800beff07004f00780011003300a9
:101d5000f0ff2f00838f6c0006003b000405650038
:101d60000a00a7000800370009f0a60010002000b4
:101d700008003700820f5400838f5c000300390095
:101d80001000200001003e000000200009f0a70024
:101d90000000ea004f05be004f04be000000e00056
:101da00000000600889fbe008a9fbe00008270006f
:101db0000402710004827100260032000004be009b
:101dc0000200be006011b8006b09200095022000df
:101dd0000182cf000a0039000541b1000082cf0026
:101de000070039000541b1000982cf000400390025
:101df0000541b1000882cf00010039000541b10062
:101e000005425200120032000a003b00828171003c
:101e1000610164008100d1000080d3008984d30077
:101e20000884d3008b05e8000442e800f7ff3a007d
:101e3000070037000804440089844c000000480073
:101e4000818048008b05e9000442e900f9ff3a006f
:101e500093ff07004f05be004f04be0000000600c0
:101e6000881f7800030478000300e00007003d00ad
:101e700060001000e080180060011900e081190086
:101e800002003b0001f02d0003003700c5ff0700f2
:101e900008f0a70001f0a0004f0478000000060041
:101ea000c70ade00f107b200f50fb20008003200e9
:101eb000e1cf4200020032000170a00024000500c2
:101ec000810f700001003200040805004400050085
:101ed000810f700002003a00140005008502e9003d
:101ee0000000400081c04800fcff3b000170a000e2
:101ef00024000500889fbe008a9fbe008c9fbe0004
:101f00000004be00e6ff07000800be008906780056
:101f10006420e10008003900040032000160a000e4
:101f200012022000526b88005300370091fc2300fe
:101f3000b0fd20004e0037000006eb0009f0a100c4
:101f400003f82300020020000800be000cfe07007a
:101f50000600340001f82300000020000801be0044
:101f60006bfe07000004be002c0020000800be002d
:101f700093e82300320a230001fe07001200340018
:101f80000801be00d1fd2300703d2b00fffd0700be
:101f90000005be00b3f32300f27a26000800be005d
:101fa000c3fd070003f8230002002000f6fd070030
:101fb0000801be00f5fd07000a01be0054fe07003f
:101fc0000004be000c06e8000800be0001f0a100fd
:101fd0000200200003982300e9fd07000800be006e
:101fe000160035000801be00b1fd07000005be0067
:101ff00032cd2c0043fb2300e4fd0700809fbe0090
:102000001269280003d52b000a00be00a8fd0700b6
:10201000620f210013ef2b00dcfd07000a01be0058
:10202000a3fd07004f01be0039fe07000801be00f6
:102030009ffd07000801be00d4fd07000c00e00072
:102040000b0032000c10a70001f0a200b2fd20002e
:1020500093fc23006260e1000400320022a920000a
:1020600063f023000c10a70063f82300c7fd0700ee
:102070000df0a70001f0a2004f06be004f05be0004
:102080004f04be0000000600889fbe008a9fbe006d
:102090008c9fbe000206780001f0a7000cf0a000a3
:1020a0000004be007eff07000800be006420e100bf
:1020b0000700390002003a00f1ff2700f0ff2f006f
:1020c0000160a00012022000526b8800510037000e
:1020d00009f0a1000800be000200200003f8230060
:1020e00007fe0700f4ff3c000800be0002002000cd
:1020f00003982300a2fd07000800be003000350051
:102100000200200003f02300fdfd070005003c0055
:102110000800be000801be0065fd07000005be0006
:102120000e0037000c10a2000000200001f8230070
:102130000801be0094fd07000200200003f0230008
:102140005bfd07000005be0036fe07000200200010
:1021500003002c0056fd07000004be000a00be006c
:10216000b2d02800130b2c0088fd07000a01be0026
:102170004ffd0700020f2500330b240083fd0700ed
:10218000809fbe000a00be005206220013f02b0002
:1021900047fd0700b2662100f3f623007bfd070030
:1021a0000a01be0042fd07004f01be00d8fd070036
:1021b0000801be003efd07000801be0073fd0700d8
:1021c0000c00a70007003700b2fd200093fc23009d
:1021d0000c10a7006dfd07000cf0a70001f0a20095
:1021e0000c0037000cf0a7000200370001f0a2003d
:1021f00004003700b2fd2000930424000c10a60058
:1022000003003700b2fd200093fc23000c10a70050
:102210005efd07004f06be004f05be004f04be0026
:1022200000000600889fbe008a9fbe000003be001b
:102230001bff070085057800828152000200200004
:102240006220e10004003a00f307b1000400350009
:102250007718e100040035000600be0014003700c6
:102260006000b8000f003700f50f2000faff2f00c4
:102270008502d1000a85d3008301e900fcff3b0001
:102280008184620000046500890f7400f2ff32004f
:102290008582ea000a85ea00818462000004650004
:1022a0007ffe070007f0a70001f0a0000081eb000f
:1022b0000200e0004f05be004f04be000000060013
:020000040000fa
:0200000401f009
:04000c0078ff000079
:020000040000fa
:0200000401f009
:040010005eff00008f
:020000040000fa
:0200000401f009
:040014007fff00006a
:020000040000fa
:0200000401f009
:04001800eeff0000f7
:020000040000fa
:0200000401f009
:04001c00dfff000002
:020000040000fa
:10000800540b0000540b0000540b0000540b00006c
:10001800540b0000540b0000540b0000540b00005c
:10002800540b0000540b0000540b00009802000011
:10003800540b0000540b0000540b0000540b00003c
:10004800b4070000540b0000540b0000540b0000d0
:100058005e070000ac050000540b0000540b0000c4
:1000680066030000fc020000540b0000ec070000cf
:100078006e030000540b0000540b0000540b0000ea
:10008800540b0000540b0000540b0000540b0000ec
:10009800540b0000540b00002c060000540b000009
:1000a800540b0000540b0000540b0000540b0000cc
:1000b800540b0000540b0000540b0000540b0000bc
:1000c800540b0000540b0000540b0000540b0000ac
:1000d800540b0000540b0000540b0000540b00009c
:1000e800540b0000540b0000540b0000540b00008c
:1000f800540b0000540b0000540b0000540b00007c
:10010800540b0000540b0000540b0000540b00006b
:10011800540b0000540b0000d2020000540b0000e6
:10012800540b0000540b000006060000540b00009e
:10013800540b0000540b0000540b0000540b00003b
:10014800540b0000540b0000540b0000540b00002b
:10015800540b0000540b0000540b0000540b00001b
:10016800540b0000540b0000540b0000540b00000b
:10017800540b0000540b0000540b0000540b0000fb
:10018800540b0000540b0000540b0000540b0000eb
:10019800540b0000540b0000540b0000540b0000db
:1001a800540b0000540b0000540b0000540b0000cb
:1001b800540b0000540b0000540b0000540b0000bb
:1001c800540b0000540b0000540b0000540b0000ab
:1001d800540b0000540b0000540b0000540b00009b
:1001e800540b0000540b0000540b0000540b00008b
:0801f800540b0000540b000041
:020000040000fa
:10020800540b0000540b0000540b0000540b00006a
:10021800540b0000540b0000540b0000540b00005a
:10022800540b0000540b0000540b0000980200000f
:10023800540b0000540b0000540b0000540b00003a
:10024800b4070000540b0000540b0000540b0000ce
:100258005e070000ac050000540b0000540b0000c2
:1002680066030000fc020000540b0000ec070000cd
:100278006e030000540b0000540b0000540b0000e8
:10028800540b0000540b0000540b0000540b0000ea
:10029800540b0000540b00002c060000540b000007
:1002a800540b0000540b0000540b0000540b0000ca
:1002b800540b0000540b0000540b0000540b0000ba
:1002c800540b0000540b0000540b0000540b0000aa
:1002d800540b0000540b0000540b0000540b00009a
:1002e800540b0000540b0000540b0000540b00008a
:1002f800540b0000540b0000540b0000540b00007a
:10030800540b0000540b0000540b0000540b000069
:10031800540b0000540b0000d2020000540b0000e4
:10032800540b0000540b000006060000540b00009c
:10033800540b0000540b0000540b0000540b000039
:10034800540b0000540b0000540b0000540b000029
:10035800540b0000540b0000540b0000540b000019
:10036800540b0000540b0000540b0000540b000009
:10037800540b0000540b0000540b0000540b0000f9
:10038800540b0000540b0000540b0000540b0000e9
:10039800540b0000540b0000540b0000540b0000d9
:1003a800540b0000540b0000540b0000540b0000c9
:1003b800540b0000540b0000540b0000540b0000b9
:1003c800540b0000540b0000540b0000540b0000a9
:1003d800540b0000540b0000540b0000540b000099
:1003e800540b0000540b0000540b0000540b000089
:0803f800540b0000540b00003f
:020000040000fa
:1022c000ca0800001e000000000000001e00000000
:1022d000000000001e000000000000001e000000c2
:1022e000000000001e000000000000001e000000b2
:1022f000000000001e000000000000001e000000a2
:10230000000000001e000000000000001e00000091
:10231000000000001e000000000000001e00000081
:10232000000000001e000000000000001e00000071
:10233000000000001e000000000000001e00000061
:10234000000000001e000000000000001e00000051
:10235000000000001e000000000000001e00000041
:10236000000000001e000000000000001e00000031
:10237000000000001e000000000000001e00000021
:10238000000000001e000000000000001e00000011
:10239000000000001e000000000000001e00000001
:1023a000000000001e000000000000001e000000f1
:1023b000000000001e000000000000001e000000e1
:1023c000000000001e000000000000001e000000d1
:1023d000000000001e000000000000001e000000c1
:1023e000000000001e000000000000001e000000b1
:1023f000000000001e000000000000001e000000a1
:10240000000000001e000000000000001e00000090
:10241000000000001e000000000000001e00000080
:10242000000000001e000000000000001e00000070
:10243000000000001e000000000000001e00000060
:10244000000000001e000000000000001e00000050
:10245000000000001e000000000000001e00000040
:10246000000000001e000000000000001e00000030
:10247000000000001e000000000000001e00000020
:10248000000000001e000000000000001e00000010
:10249000000000001e000000000000001e00000000
:1024a000000000001e000000000000001e000000f0
:1024b000000000001e000000000000001e000000e0
:1024c000000000001e000000000000001e000000d0
:1024d000000000001e000000000000001e000000c0
:1024e000000000001e000000000000001e000000b0
:1024f000000000001e000000000000001e000000a0
:10250000000000001e000000000000001e0000008f
:10251000000000001e000000000000001e0000007f
:10252000000000001e000000000000001e0000006f
:10253000000000001e000000000000001e0000005f
:10254000000000001e000000000000001e0000004f
:10255000000000001e000000000000001e0000003f
:10256000000000001e000000000000001e0000002f
:10257000000000001e000000000000001e0000001f
:10258000000000001e000000000000001e0000000f
:10259000000000001e000000000000001e000000ff
:1025a000000000001e000000000000001e000000ef
:1025b000000000001e000000000000001e000000df
:1025c000000000001e000000000000001e000000cf
:1025d000000000001e000000000000001e000000bf
:1025e000000000001e000000000000001e000000af
:1025f000000000001e000000000000001e0000009f
:10260000000000001e000000000000001e0000008e
:10261000000000001e000000000000001e0000007e
:10262000000000001e000000000000001e0000006e
:10263000000000001e000000000000001e0000005e
:10264000000000001e000000000000001e0000004e
:10265000000000001e000000000000001e0000003e
:10266000000000001e000000000000001e0000002e
:10267000000000001e000000000000001e0000001e
:10268000000000001e000000000000001e0000000e
:10269000000000001e000000000000001e000000fe
:1026a000000000001e000000000000001e000000ee
:1026b000000000001e000000000000001e000000de
:1026c000000000001e000000000000001e000000ce
:1026d000000000001e000000000000001e000000be
:1026e000000000001e000000000000001e000000ae
:1026f000000000001e000000000000001e0000009e
:10270000000000001e000000000000001e0000008d
:10271000000000001e000000000000001e0000007d
:10272000000000001e000000000000001e0000006d
:10273000000000001e000000000000001e0000005d
:10274000000000001e000000000000001e0000004d
:10275000000000001e000000000000001e0000003d
:10276000000000001e000000000000001e0000002d
:10277000000000001e000000000000001e0000001d
:10278000000000001e000000000000001e0000000d
:10279000000000001e000000000000001e000000fd
:1027a000000000001e000000000000001e000000ed
:1027b000000000001e000000000000001e000000dd
:1027c000000000001e000000000000001e000000cd
:1027d000000000001e000000000000001e000000bd
:1027e000000000001e000000000000001e000000ad
:1027f000000000001e000000000000001e0000009d
:10280000000000001e000000000000001e0000008c
:10281000000000001e000000000000001e0000007c
:10282000000000001e000000000000001e0000006c
:10283000000000001e000000000000001e0000005c
:10284000000000001e000000000000001e0000004c
:10285000000000001e000000000000001e0000003c
:10286000000000001e000000000000001e0000002c
:10287000000000001e000000000000001e0000001c
:10288000000000001e000000000000001e0000000c
:10289000000000001e000000000000001e000000fc
:1028a000000000001e000000000000001e000000ec
:1028b000000000001e000000000000001e000000dc
:1028c000000000001e000000000000001e000000cc
:1028d000000000001e000000000000001e000000bc
:1028e000000000001e000000000000001e000000ac
:1028f000000000001e000000000000001e0000009c
:10290000000000001e000000000000001e0000008b
:10291000000000001e000000000000001e0000007b
:10292000000000001e000000000000001e0000006b
:10293000000000001e000000000000001e0000005b
:10294000000000001e000000000000001e0000004b
:10295000000000001e000000000000001e0000003b
:10296000000000001e000000000000001e0000002b
:10297000000000001e000000000000001e0000001b
:10298000000000001e000000000000001e0000000b
:10299000000000001e000000000000001e000000fb
:1029a000000000001e000000000000001e000000eb
:1029b000000000001e000000000000001e000000db
:1029c000000000001e000000000000001e000000cb
:1029d000000000001e000000000000001e000000bb
:1029e000000000001e000000000000001e000000ab
:1029f000000000001e000000000000001e0000009b
:102a0000000000001e000000000000001e0000008a
:102a1000000000001e000000000000001e0000007a
:102a2000000000001e000000000000001e0000006a
:102a3000000000001e000000000000001e0000005a
:102a4000000000001e000000000000001e0000004a
:102a5000000000001e000000000000001e0000003a
:102a6000000000001e000000000000001e0000002a
:102a7000000000001e000000000000001e0000001a
:102a8000000000001e000000000000001e0000000a
:102a9000000000005a000000000000005a00000082
:102aa000000000005a000000000000005a00000072
:102ab000000000005a000000000000005a00000062
:102ac000000000005a000000000000005a00000052
:102ad000000000005a000000000000005a00000042
:102ae000000000005a000000000000005a00000032
:102af000000000005a000000000000005a00000022
:102b0000000000005a000000000000005a00000011
:102b1000000000005a000000000000005a00000001
:102b2000000000005a000000000000005a000000f1
:102b3000000000005a000000000000005a000000e1
:102b4000000000005a000000000000005a000000d1
:102b5000000000005a000000000000005a000000c1
:102b6000000000005a000000000000005a000000b1
:102b7000000000005a000000000000005a000000a1
:102b8000000000005a000000000000005a00000091
:102b9000000000005a000000000000005a00000081
:102ba000000000005a000000000000005a00000071
:102bb000000000005a000000000000005a00000061
:102bc000000000005a000000000000005a00000051
:102bd000000000005a000000000000005a00000041
:102be000000000005a000000000000005a00000031
:102bf000000000005a000000000000005a00000021
:102c0000000000005a000000000000005a00000010
:102c1000000000005a000000000000005a00000000
:102c2000000000005a000000000000005a000000f0
:102c3000000000005a000000000000005a000000e0
:102c4000000000005a000000000000005a000000d0
:102c5000000000005a000000000000005a000000c0
:102c6000000000005a000000000000005a000000b0
:102c7000000000005a000000000000005a000000a0
:102c8000000000005a000000000000005a00000090
:102c9000000000005a000000000000005a00000080
:102ca000000000005a000000000000005a00000070
:102cb000000000005a000000000000005a00000060
:102cc000000000005a000000000000005a00000050
:102cd000000000005a000000000000005a00000040
:102ce000000000005a000000000000005a00000030
:102cf000000000005a000000000000005a00000020
:102d0000000000005a000000000000005a0000000f
:102d1000000000005a000000000000005a000000ff
:102d2000000000005a000000000000005a000000ef
:102d3000000000005a000000000000005a000000df
:102d4000000000005a000000000000005a000000cf
:102d5000000000005a000000000000005a000000bf
:102d6000000000005a000000000000005a000000af
:102d7000000000005a000000000000005a0000009f
:102d8000000000005a000000000000005a0000008f
:102d9000000000005a000000000000005a0000007f
:102da000000000005a000000000000005a0000006f
:102db000000000005a000000000000005a0000005f
:102dc000000000005a000000000000005a0000004f
:102dd000000000005a000000000000005a0000003f
:102de000000000005a000000000000005a0000002f
:102df000000000005a000000000000005a0000001f
:102e0000000000005a000000000000005a0000000e
:102e1000000000005a000000000000005a000000fe
:102e2000000000005a000000000000005a000000ee
:102e3000000000005a000000000000005a000000de
:102e4000000000005a000000000000005a000000ce
:102e5000000000005a000000000000005a000000be
:102e6000000000005a000000000000005a000000ae
:102e7000000000005a000000000000005a0000009e
:102e8000000000005a000000000000005a0000008e
:102e9000000000005a000000000000005a0000007e
:102ea000000000005a000000000000005a0000006e
:102eb000000000005a000000000000005a0000005e
:102ec000000000005a000000000000005a0000004e
:102ed000000000005a000000000000005a0000003e
:102ee000000000005a000000000000005a0000002e
:102ef000000000005a000000000000005a0000001e
:102f0000000000005a000000000000005a0000000d
:102f1000000000005a000000000000005a000000fd
:102f2000000000005a000000000000005a000000ed
:102f3000000000005a000000000000005a000000dd
:102f4000000000005a000000000000001e00000009
:102f5000000000001e000000000000001e00000035
:102f6000000000001e000000000000001e00000025
:102f7000000000001e000000000000001e00000015
:102f8000000000001e000000000000001e00000005
:102f9000000000001e000000000000001e000000f5
:102fa000000000001e000000000000001e000000e5
:102fb000000000001e000000000000001e000000d5
:102fc000000000001e000000000000001e000000c5
:102fd000000000001e000000000000001e000000b5
:102fe000000000001e000000000000001e000000a5
:102ff000000000001e000000000000001e00000095
:10300000000000001e000000000000001e00000084
:10301000000000001e000000000000001e00000074
:10302000000000001e000000000000001e00000064
:10303000000000001e000000000000001e00000054
:10304000000000001e000000000000001e00000044
:10305000000000001e000000000000001e00000034
:10306000000000001e000000000000001e00000024
:10307000000000001e000000000000001e00000014
:10308000000000001e000000000000001e00000004
:10309000000000001e000000000000001e000000f4
:1030a000000000001e000000000000001e000000e4
:1030b000000000001e000000000000001e000000d4
:1030c000000000001e000000000000001e000000c4
:1030d000000000001e000000000000001e000000b4
:1030e000000000001e000000000000001e000000a4
:1030f000000000001e000000000000001e00000094
:10310000000000001e000000000000001e00000083
:10311000000000001e000000000000001e00000073
:10312000000000001e000000000000001e00000063
:10313000000000001e000000000000001e00000053
:10314000000000001e000000000000001e00000043
:10315000000000001e000000000000001e00000033
:10316000000000001e000000000000001e00000023
:10317000000000001e000000000000001e00000013
:10318000000000001e000000000000001e00000003
:10319000000000001e000000000000001e000000f3
:1031a000000000001e000000000000001e000000e3
:1031b000000000001e000000000000001e000000d3
:1031c000000000001e000000000000001e000000c3
:1031d000000000001e000000000000001e000000b3
:1031e000000000001e000000000000001e000000a3
:1031f000000000001e000000000000001e00000093
:10320000000000001e000000000000001e00000082
:10321000000000001e000000000000001e00000072
:10322000000000001e000000000000001e00000062
:10323000000000001e000000000000001e00000052
:10324000000000001e000000000000001e00000042
:10325000000000001e000000000000001e00000032
:10326000000000001e000000000000001e00000022
:10327000000000001e000000000000001e00000012
:10328000000000001e000000000000001e00000002
:10329000000000001e000000000000001e000000f2
:1032a000000000001e000000000000001e000000e2
:1032b000000000001e000000000000001e000000d2
:1032c000000000001e000000000000001e000000c2
:1032d000000000001e000000000000001e000000b2
:1032e000000000001e000000000000001e000000a2
:1032f000000000001e000000000000001e00000092
:10330000000000001e000000000000001e00000081
:10331000000000001e000000000000001e00000071
:10332000000000001e000000000000001e00000061
:10333000000000001e000000000000001e00000051
:10334000000000001e000000000000001e00000041
:10335000000000001e000000000000001e00000031
:10336000000000001e000000000000001e00000021
:10337000000000001e000000000000001e00000011
:10338000000000001e000000000000001e00000001
:10339000000000001e000000000000001e000000f1
:1033a000000000001e000000000000001e000000e1
:1033b000000000001e000000000000001e000000d1
:1033c000000000001e000000000000001e000000c1
:1033d000000000001e000000000000001e000000b1
:1033e000000000001e000000000000001e000000a1
:1033f000000000001e000000000000001e00000091
:10340000000000001e000000000000001e00000080
:10341000000000001e000000000000001e00000070
:10342000000000001e000000000000001e00000060
:10343000000000001e000000000000001e00000050
:10344000000000001e000000000000001e00000040
:10345000000000001e000000000000001e00000030
:10346000000000001e000000000000001e00000020
:10347000000000001e000000000000001e00000010
:10348000000000001e000000000000001e00000000
:10349000000000001e000000000000001e000000f0
:1034a000000000001e000000000000001e000000e0
:1034b000000000001e000000000000001e000000d0
:1034c000000000001e000000000000001e000000c0
:1034d000000000001e000000000000001e000000b0
:1034e000000000001e000000000000001e000000a0
:1034f000000000001e000000000000001e00000090
:10350000000000001e000000000000001e0000007f
:10351000000000001e000000000000001e0000006f
:10352000000000001e000000000000001e0000005f
:10353000000000001e000000000000001e0000004f
:10354000000000001e000000000000001e0000003f
:10355000000000001e000000000000001e0000002f
:10356000000000001e000000000000001e0000001f
:10357000000000001e000000000000001e0000000f
:10358000000000001e000000000000001e000000ff
:10359000000000001e000000000000001e000000ef
:1035a000000000001e000000000000001e000000df
:1035b000000000001e000000000000001e000000cf
:1035c000000000001e000000000000001e000000bf
:1035d000000000001e000000000000001e000000af
:1035e000000000001e000000000000001e0000009f
:1035f000000000001e000000000000001e0000008f
:10360000000000001e000000000000001e0000007e
:10361000000000001e000000000000001e0000006e
:10362000000000001e000000000000001e0000005e
:10363000000000001e000000000000001e0000004e
:10364000000000001e000000000000001e0000003e
:10365000000000001e000000000000001e0000002e
:10366000000000001e000000000000001e0000001e
:10367000000000001e000000000000001e0000000e
:10368000000000001e000000000000001f000000fd
:10369000000000001f0000000000000020000000eb
:1036a00000000000200000000000000021000000d9
:1036b00000000000210000000000000022000000c7
:1036c00000000000220000000000000023000000b5
:1036d00000000000230000000000000024000000a3
:1036e0000000000024000000000000002500000091
:1036f000000000002500000000000000260000007f
:10370000000000002700000000000000270000006b
:103710000000000028000000000000002800000059
:103720000000000029000000000000002900000047
:10373000000000002a000000000000002a00000035
:10374000000000002b000000000000002b00000023
:10375000000000002c000000000000002c00000011
:10376000000000002d000000000000002d000000ff
:10377000000000002e000000000000002e000000ed
:10378000000000002f000000000000002f000000db
:1037900000000000300000000000000030000000c9
:1037a00000000000310000000000000031000000b7
:1037b00000000000320000000000000032000000a5
:1037c0000000000033000000000000003300000093
:1037d0000000000034000000000000003400000081
:1037e000000000003500000000000000350000006f
:1037f000000000003600000000000000360000005d
:10380000000000003700000000000000370000004a
:103810000000000038000000000000003800000038
:103820000000000039000000000000003900000026
:10383000000000003a000000000000003a00000014
:10384000000000003b000000000000003b00000002
:10385000000000003c000000000000003c000000f0
:10386000000000003d000000000000003d000000de
:10387000000000003e000000000000003e000000cc
:10388000000000003f000000000000003f000000ba
:1038900000000000400000000000000040000000a8
:1038a0000000000041000000000000004100000096
:1038b0000000000042000000000000004200000084
:1038c0000000000043000000000000004300000072
:1038d0000000000044000000000000004400000060
:1038e000000000004500000000000000450000004e
:1038f000000000004600000000000000460000003c
:103900000000000047000000000000004700000029
:103910000000000048000000000000004800000017
:103920000000000049000000000000004900000005
:10393000000000004a000000000000004a000000f3
:10394000000000004b000000000000004b000000e1
:10395000000000004c000000000000004c000000cf
:10396000000000004d000000000000004d000000bd
:10397000000000004e000000000000004e000000ab
:10398000000000004f000000000000004f00000099
:103990000000000050000000000000005000000087
:1039a0000000000051000000000000005100000075
:1039b0000000000052000000000000005200000063
:1039c0000000000053000000000000005300000051
:1039d000000000005400000000000000540000003f
:1039e000000000005500000000000000550000002d
:1039f000000000005600000000000000560000001b
:103a00000000000057000000000000005700000008
:103a100000000000580000000000000058000000f6
:103a200000000000590000000000000059000000e4
:103a3000000000005a000000000000005a000000d2
:103a4000000000005a000000000000005a000000c2
:103a5000000000005a000000000000005a000000b2
:103a6000000000005a000000000000005a000000a2
:103a7000000000005a000000000000005a00000092
:103a8000000000005a000000000000005a00000082
:103a9000000000005a000000000000005a00000072
:103aa000000000005a000000000000005a00000062
:103ab000000000005a000000000000005a00000052
:103ac000000000005a000000000000005a00000042
:103ad000000000005a000000000000005a00000032
:103ae000000000005a000000000000005a00000022
:103af000000000005a000000000000005a00000012
:103b0000000000005a000000000000005a00000001
:103b1000000000005a000000000000005a000000f1
:103b2000000000005a000000000000005a000000e1
:103b3000000000005a000000000000005a000000d1
:103b4000000000005a000000000000005a000000c1
:103b5000000000005a000000000000005a000000b1
:103b6000000000005a000000000000005a000000a1
:103b7000000000005a000000000000005a00000091
:103b8000000000005a000000000000005a00000081
:103b9000000000005a000000000000005a00000071
:103ba000000000005a000000000000005a00000061
:103bb000000000005a000000000000005a00000051
:103bc000000000005a000000000000005a00000041
:103bd000000000005a000000000000005a00000031
:103be000000000005a000000000000005a00000021
:103bf000000000005a000000000000005a00000011
:103c0000000000005a000000000000005a00000000
:103c1000000000005a000000000000005a000000f0
:103c2000000000005a000000000000005a000000e0
:103c3000000000005a000000000000005a000000d0
:103c4000000000005a000000000000005a000000c0
:103c5000000000005a000000000000005a000000b0
:103c6000000000005a000000000000005a000000a0
:103c7000000000005a000000000000005a00000090
:103c8000000000005a000000000000005a00000080
:103c9000000000005a000000000000005a00000070
:103ca000000000005a000000000000005a00000060
:103cb000000000005a000000000000005a00000050
:103cc000000000005a000000000000005a00000040
:103cd000000000005a000000000000005a00000030
:103ce000000000005a000000000000005a00000020
:103cf000000000005a000000000000005a00000010
:103d0000000000005a000000000000005a000000ff
:103d1000000000005a000000000000005a000000ef
:103d2000000000005a000000000000005a000000df
:103d3000000000005a000000000000005a000000cf
:103d4000000000005a000000000000005a000000bf
:103d5000000000005a0000000000000059000000b0
:103d600000000000590000000000000058000000a2
:103d70000000000058000000000000005700000094
:103d80000000000057000000000000005600000086
:103d90000000000056000000000000005500000078
:103da000000000005500000000000000540000006a
:103db000000000005400000000000000530000005c
:103dc000000000005300000000000000520000004e
:103dd0000000000052000000000000005100000040
:103de0000000000051000000000000005000000032
:103df0000000000050000000000000004f00000024
:103e0000000000004f000000000000004e00000015
:103e1000000000004e000000000000004d00000007
:103e2000000000004d000000000000004c000000f9
:103e3000000000004c000000000000004b000000eb
:103e4000000000004b000000000000004a000000dd
:103e5000000000004a0000000000000049000000cf
:103e600000000000490000000000000048000000c1
:103e700000000000480000000000000047000000b3
:103e800000000000470000000000000046000000a5
:103e90000000000046000000000000004500000097
:103ea0000000000045000000000000004400000089
:103eb000000000004400000000000000430000007b
:103ec000000000004300000000000000420000006d
:103ed000000000004200000000000000410000005f
:103ee0000000000041000000000000004000000051
:103ef0000000000040000000000000003f00000043
:103f0000000000003f000000000000003e00000034
:103f1000000000003e000000000000003d00000026
:103f2000000000003d000000000000003c00000018
:103f3000000000003c000000000000003b0000000a
:103f4000000000003b000000000000003a000000fc
:103f5000000000003a0000000000000039000000ee
:103f600000000000390000000000000038000000e0
:103f700000000000380000000000000037000000d2
:103f800000000000370000000000000036000000c4
:103f900000000000360000000000000035000000b6
:103fa00000000000350000000000000034000000a8
:103fb000000000003400000000000000330000009a
:103fc000000000003300000000000000320000008c
:103fd000000000003200000000000000310000007e
:103fe0000000000031000000000000003000000070
:103ff0000000000030000000000000002f00000062
:10400000000000002f000000000000002e00000053
:10401000000000002e000000000000002d00000045
:10402000000000002d000000000000002c00000037
:10403000000000002c000000000000002b00000029
:10404000000000002b000000000000002a0000001b
:10405000000000002a00000000000000290000000d
:1040600000000000290000000000000028000000ff
:1040700000000000280000000000000028000000f0
:1040800000000000280000000000000028000000e0
:1040900000000000280000000000000028000000d0
:1040a00000000000280000000000000028000000c0
:1040b00000000000280000000000000028000000b0
:1040c00000000000280000000000000028000000a0
:1040d0000000000028000000000000002800000090
:1040e0000000000028000000000000002800000080
:1040f0000000000028000000000000002800000070
:10410000000000002800000000000000280000005f
:10411000000000002800000000000000280000004f
:10412000000000002800000000000000280000003f
:10413000000000002800000000000000280000002f
:10414000000000002800000000000000280000001f
:10415000000000002800000000000000280000000f
:1041600000000000280000000000000028000000ff
:1041700000000000280000000000000028000000ef
:1041800000000000280000000000000028000000df
:1041900000000000280000000000000028000000cf
:1041a00000000000280000000000000028000000bf
:1041b00000000000280000000000000028000000af
:1041c000000000002800000000000000280000009f
:1041d000000000002800000000000000280000008f
:1041e000000000002800000000000000280000007f
:1041f000000000002800000000000000280000006f
:10420000000000002800000000000000280000005e
:10421000000000002800000000000000280000004e
:10422000000000002800000000000000280000003e
:10423000000000002800000000000000280000002e
:10424000000000002800000000000000280000001e
:10425000000000002800000000000000280000000e
:1042600000000000280000000000000028000000fe
:1042700000000000280000000000000028000000ee
:1042800000000000280000000000000028000000de
:1042900000000000280000000000000028000000ce
:1042a00000000000280000000000000028000000be
:1042b00000000000280000000000000028000000ae
:1042c000000000002800000000000000280000009e
:1042d000000000002800000000000000280000008e
:1042e000000000002800000000000000280000007e
:1042f000000000002800000000000000280000006e
:10430000000000002800000000000000280000005d
:10431000000000002800000000000000280000004d
:10432000000000002800000000000000280000003d
:10433000000000002800000000000000280000002d
:10434000000000002800000000000000280000001d
:10435000000000002800000000000000280000000d
:1043600000000000280000000000000028000000fd
:1043700000000000280000000000000028000000ed
:1043800000000000280000000000000028000000dd
:1043900000000000280000000000000028000000cd
:1043a00000000000280000000000000028000000bd
:1043b00000000000280000000000000028000000ad
:1043c000000000002800000000000000280000009d
:1043d000000000002800000000000000280000008d
:1043e000000000002800000000000000280000007d
:1043f000000000002800000000000000280000006d
:10440000000000002800000000000000280000005c
:10441000000000002800000000000000280000004c
:10442000000000002800000000000000280000003c
:10443000000000002800000000000000280000002c
:10444000000000002800000000000000280000001c
:10445000000000002800000000000000280000000c
:1044600000000000280000000000000028000000fc
:1044700000000000280000000000000028000000ec
:1044800000000000280000000000000028000000dc
:1044900000000000280000000000000028000000cc
:1044a00000000000280000000000000028000000bc
:1044b00000000000280000000000000028000000ac
:1044c000000000002800000000000000280000009c
:1044d000000000002800000000000000280000008c
:1044e000000000002800000000000000280000007c
:1044f000000000002800000000000000280000006c
:10450000000000002800000000000000280000005b
:10451000000000002800000000000000280000004b
:10452000000000002800000000000000280000003b
:10453000000000002800000000000000280000002b
:10454000000000002800000000000000280000001b
:10455000000000002800000000000000280000000b
:1045600000000000280000000000000028000000fb
:1045700000000000280000000000000028000000eb
:1045800000000000280000000000000028000000db
:1045900000000000280000000000000028000000cb
:1045a00000000000280000000000000028000000bb
:1045b00000000000280000000000000028000000ab
:1045c000000000002800000000000000280000009b
:1045d000000000002800000000000000280000008b
:1045e000000000002800000000000000280000007b
:1045f000000000002800000000000000280000006b
:10460000000000002800000000000000280000005a
:10461000000000002800000000000000280000004a
:10462000000000002800000000000000280000003a
:10463000000000002800000000000000280000002a
:10464000000000002800000000000000280000001a
:10465000000000002800000000000000280000000a
:1046600000000000280000000000000028000000fa
:1046700000000000280000000000000028000000ea
:1046800000000000280000000000000028000000da
:1046900000000000280000000000000028000000ca
:1046a00000000000280000000000000028000000ba
:1046b00000000000280000000000000028000000aa
:1046c000000000002800000000000000280000009a
:1046d000000000002800000000000000280000008a
:1046e000000000002800000000000000280000007a
:1046f000000000002800000000000000280000006a
:104700000000000028000000000000002800000059
:104710000000000028000000000000002800000049
:104720000000000028000000000000002800000039
:104730000000000028000000000000002800000029
:104740000000000028000000000000002800000019
:104750000000000028000000000000002800000009
:1047600000000000280000000000000028000000f9
:1047700000000000280000000000000028000000e9
:1047800000000000280000000000000028000000d9
:1047900000000000280000000000000028000000c9
:1047a00000000000280000000000000028000000b9
:1047b00000000000280000000000000028000000a9
:1047c0000000000028000000000000002800000099
:1047d0000000000028000000000000002800000089
:1047e0000000000028000000000000002800000079
:1047f0000000000028000000000000002800000069
:104800000000000028000000000000002800000058
:104810000000000028000000000000002800000048
:104820000000000028000000000000002800000038
:104830000000000028000000000000002800000028
:104840000000000028000000000000002800000018
:104850000000000028000000000000002800000008
:1048600000000000280000000000000028000000f8
:1048700000000000280000000000000028000000e8
:1048800000000000280000000000000028000000d8
:1048900000000000280000000000000028000000c8
:1048a00000000000280000000000000028000000b8
:1048b00000000000280000000000000028000000a8
:1048c0000000000028000000000000002800000098
:1048d0000000000028000000000000002800000088
:1048e0000000000028000000000000002800000078
:1048f0000000000028000000000000002800000068
:104900000000000028000000000000002800000057
:104910000000000028000000000000002800000047
:104920000000000028000000000000002800000037
:104930000000000028000000000000002800000027
:104940000000000028000000000000002800000017
:104950000000000028000000000000002800000007
:1049600000000000280000000000000028000000f7
:1049700000000000280000000000000028000000e7
:1049800000000000280000000000000028000000d7
:1049900000000000280000000000000028000000c7
:1049a00000000000280000000000000028000000b7
:1049b00000000000280000000000000028000000a7
:1049c0000000000028000000000000002800000097
:1049d0000000000028000000000000002814000073
:1049e000ec00000028140000ec0000002814000077
:1049f000ec00000028140000ec0000002814000067
:104a0000ec00000028140000ec0000002814000056
:104a1000ec00000028140000ec0000002814000046
:104a2000ec00000028140000ec0000002814000036
:104a3000ec00000028140000ec0000002814000026
:104a4000ec00000028140000ec0000002814000016
:104a5000ec00000028140000ec0000002814000006
:104a6000ec00000028140000ec00000028140000f6
:104a7000ec00000028140000ec00000028140000e6
:104a8000ec00000028140000ec00000028140000d6
:104a9000ec00000028140000ec00000028140000c6
:104aa000ec00000028140000ec00000028140000b6
:104ab000ec00000028140000ec00000028140000a6
:104ac000ec00000028140000ec0000002814000096
:104ad000ec00000028140000ec0000002814000086
:104ae000ec00000028140000ec0000002814000076
:104af000ec00000028140000ec0000002814000066
:104b0000ec00000028140000ec0000002814000055
:104b1000ec00000028140000ec0000002814000045
:104b2000ec00000028140000ec0000002814000035
:104b3000ec00000028140000ec0000002814000025
:104b4000ec00000028140000ec0000002814000015
:104b5000ec00000028140000ec0000002814000005
:104b6000ec00000028140000ec00000028140000f5
:104b7000ec00000028140000ec00000028140000e5
:104b8000ec00000028140000ec00000028140000d5
:104b9000ec00000028140000ec00000028140000c5
:104ba000ec00000028140000ec00000028140000b5
:104bb000ec00000028140000ec00000028140000a5
:104bc000ec00000028140000ec0000002814000095
:104bd000ec00000028140000ec0000002814000085
:104be000ec00000028140000ec0000002814000075
:104bf000ec00000028140000ec0000002814000065
:104c0000ec00000028140000ec0000002814000054
:104c1000ec00000028140000ec0000002814000044
:104c2000ec00000028140000ec0000002814000034
:104c3000ec00000028140000ec0000002814000024
:104c4000ec00000028140000ec0000002814000014
:104c5000ec00000028140000ec0000002814000004
:104c6000ec00000028140000ec00000028140000f4
:104c7000ec00000028140000ec00000028140000e4
:104c8000ec00000028140000ec00000028140000d4
:104c9000ec00000028140000ec00000028140000c4
:104ca000ec00000028140000ec00000028140000b4
:104cb000ec00000028140000ec00000028140000a4
:104cc000ec00000028140000ec0000002814000094
:104cd000ec00000028140000ec0000002814000084
:104ce000ec00000028140000ec0000002814000074
:104cf000ec00000028140000ec0000002814000064
:104d0000ec00000028140000ec0000002814000053
:104d1000ec00000028140000ec0000002814000043
:104d2000ec00000028140000ec0000002814000033
:104d3000ec00000028140000ec0000002814000023
:104d4000ec00000028140000ec0000002814000013
:104d5000ec00000028140000ec0000002814000003
:104d6000ec00000028140000ec00000028140000f3
:104d7000ec00000028140000ec00000028140000e3
:104d8000ec00000028140000ec00000028140000d3
:104d9000ec00000028140000ec00000028140000c3
:104da000ec00000028140000ec00000028140000b3
:104db000ec00000028140000ec00000028140000a3
:104dc000ec00000028140000ec0000002814000093
:104dd000ec00000028140000ec0000002814000083
:104de000ec00000028140000ec0000002814000073
:104df000ec00000028140000ec0000002814000063
:104e0000ec00000028140000ec0000002814000052
:104e1000ec00000028140000ec0000002814000042
:104e2000ec00000028140000ec0000002814000032
:104e3000ec00000028140000ec0000002814000022
:104e4000ec00000028140000ec0000002814000012
:104e5000ec00000028140000ec0000002814000002
:104e6000ec00000028140000ec00000028140000f2
:104e7000ec00000028140000ec00000028140000e2
:104e8000ec000000280000000000000028000000e6
:104e900000000000280000000000000028000000c2
:104ea00000000000280000000000000028000000b2
:104eb00000000000280000000000000028000000a2
:104ec0000000000028000000000000002800000092
:104ed0000000000028000000000000002800000082
:104ee0000000000028000000000000002800000072
:104ef0000000000028000000000000002800000062
:104f00000000000028000000000000002800000051
:104f10000000000028000000000000002800000041
:104f20000000000028000000000000002800000031
:104f30000000000028000000000000002800000021
:104f40000000000028000000000000002800000011
:104f50000000000028000000000000002800000001
:104f600000000000280000000000000028000000f1
:104f700000000000280000000000000028000000e1
:104f800000000000280000000000000028000000d1
:104f900000000000280000000000000028000000c1
:104fa00000000000280000000000000028000000b1
:104fb00000000000280000000000000028000000a1
:104fc0000000000028000000000000002800000091
:104fd0000000000028000000000000002800000081
:104fe0000000000028000000000000002800000071
:104ff0000000000028000000000000002800000061
:105000000000000028000000000000002800000050
:105010000000000028000000000000002800000040
:105020000000000028000000000000002800000030
:105030000000000028000000000000002800000020
:105040000000000028000000000000002800000010
:105050000000000028000000000000002800000000
:1050600000000000280000000000000028000000f0
:1050700000000000280000000000000028000000e0
:1050800000000000280000000000000028000000d0
:1050900000000000280000000000000028000000c0
:1050a00000000000280000000000000028000000b0
:1050b00000000000280000000000000028000000a0
:1050c0000000000028000000000000002800000090
:1050d0000000000028000000000000002800000080
:1050e0000000000028000000000000002800000070
:1050f0000000000028000000000000002800000060
:10510000000000002800000000000000280000004f
:10511000000000002800000000000000280000003f
:10512000000000002800000000000000280000002f
:10513000000000002800000000000000280000001f
:10514000000000002800000000000000280000000f
:1051500000000000280000000000000028000000ff
:1051600000000000280000000000000028000000ef
:1051700000000000280000000000000028000000df
:1051800000000000280000000000000028000000cf
:1051900000000000280000000000000028000000bf
:1051a00000000000280000000000000028000000af
:1051b000000000002800000000000000280000009f
:1051c000000000002800000000000000280000008f
:1051d000000000002800000000000000280000007f
:1051e000000000002800000000000000280000006f
:1051f000000000002800000000000000280000005f
:10520000000000002800000000000000280000004e
:10521000000000002800000000000000280000003e
:10522000000000002800000000000000280000002e
:10523000000000002800000000000000280000001e
:10524000000000002800000000000000280000000e
:1052500000000000280000000000000028000000fe
:1052600000000000280000000000000028000000ee
:1052700000000000280000000000000028000000de
:1052800000000000280000000000000028000000ce
:1052900000000000280000000000000028000000be
:1052a00000000000280000000000000028000000ae
:1052b000000000002800000000000000280000009e
:1052c000000000002800000000000000280000008e
:1052d000000000002800000000000000280000007e
:1052e000000000002800000000000000280000006e
:1052f000000000002800000000000000280000005e
:10530000000000002800000000000000280000004d
:10531000000000002800000000000000280000003d
:10532000000000002800000000000000280000002d
:10533000000000002800000000000000280000001d
:10534000000000002800000000000000280000000d
:1053500000000000280000000000000028000000fd
:1053600000000000280000000000000028000000ed
:1053700000000000280000000000000028000000dd
:1053800000000000280000000000000028000000cd
:1053900000000000280000000000000028000000bd
:1053a00000000000280000000000000028000000ad
:1053b000000000002800000000000000280000009d
:1053c000000000002800000000000000280000008d
:1053d000000000002800000000000000280000007d
:1053e000000000002800000000000000280000006d
:1053f000000000002800000000000000280000005d
:10540000000000002800000000000000280000004c
:10541000000000002800000000000000280000003c
:10542000000000002800000000000000280000002c
:10543000000000002800000000000000280000001c
:10544000000000002800000000000000280000000c
:1054500000000000280000000000000028000000fc
:1054600000000000280000000000000028000000ec
:1054700000000000280000000000000028000000dc
:1054800000000000280000000000000028000000cc
:1054900000000000280000000000000028000000bc
:1054a00000000000280000000000000028000000ac
:1054b000000000002800000000000000280000009c
:1054c000000000002800000000000000280000008c
:1054d000000000002800000000000000280000007c
:1054e000000000002800000000000000280000006c
:1054f000000000002800000000000000280000005c
:10550000000000002800000000000000280000004b
:10551000000000002800000000000000280000003b
:10552000000000002800000000000000280000002b
:10553000000000002800000000000000280000001b
:10554000000000002800000000000000280000000b
:1055500000000000280000000000000028000000fb
:1055600000000000280000000000000028000000eb
:1055700000000000280000000000000028000000db
:1055800000000000280000000000000028000000cb
:1055900000000000280000000000000028000000bb
:1055a00000000000280000000000000028000000ab
:1055b000000000002800000000000000280000009b
:1055c000000000002800000000000000280000008b
:1055d000000000002800000000000000280000007b
:1055e000000000002800000000000000280000006b
:1055f000000000002800000000000000280000005b
:10560000000000002800000000000000280000004a
:10561000000000002800000000000000280000003a
:10562000000000002800000000000000280000002a
:10563000000000002800000000000000280000001a
:10564000000000002800000000000000280000000a
:105650000000000028ec00001400000028ec00000e
:105660001400000028ec00001400000028ec0000ea
:105670001400000028ec00001400000028ec0000da
:105680001400000028ec00001400000028ec0000ca
:105690001400000028ec00001400000028ec0000ba
:1056a0001400000028ec00001400000028ec0000aa
:1056b0001400000028ec00001400000028ec00009a
:1056c0001400000028ec00001400000028ec00008a
:1056d0001400000028ec00001400000028ec00007a
:1056e0001400000028ec00001400000028ec00006a
:1056f0001400000028ec00001400000028ec00005a
:105700001400000028ec00001400000028ec000049
:105710001400000028ec00001400000028ec000039
:105720001400000028ec00001400000028ec000029
:105730001400000028ec00001400000028ec000019
:105740001400000028ec00001400000028ec000009
:105750001400000028ec00001400000028ec0000f9
:105760001400000028ec00001400000028ec0000e9
:105770001400000028ec00001400000028ec0000d9
:105780001400000028ec00001400000028ec0000c9
:105790001400000028ec00001400000028ec0000b9
:1057a0001400000028ec00001400000028ec0000a9
:1057b0001400000028ec00001400000028ec000099
:1057c0001400000028ec00001400000028ec000089
:1057d0001400000028ec00001400000028ec000079
:1057e0001400000028ec00001400000028ec000069
:1057f0001400000028ec00001400000028ec000059
:105800001400000028ec00001400000028ec000048
:105810001400000028ec00001400000028ec000038
:105820001400000028ec00001400000028ec000028
:105830001400000028ec00001400000028ec000018
:105840001400000028ec00001400000028ec000008
:105850001400000028ec00001400000028ec0000f8
:105860001400000028ec00001400000028ec0000e8
:105870001400000028ec00001400000028ec0000d8
:105880001400000028ec00001400000028ec0000c8
:105890001400000028ec00001400000028ec0000b8
:1058a0001400000028ec00001400000028ec0000a8
:1058b0001400000028ec00001400000028ec000098
:1058c0001400000028ec00001400000028ec000088
:1058d0001400000028ec00001400000028ec000078
:1058e0001400000028ec00001400000028ec000068
:1058f0001400000028ec00001400000028ec000058
:105900001400000028ec00001400000028ec000047
:105910001400000028ec00001400000028ec000037
:105920001400000028ec00001400000028ec000027
:105930001400000028ec00001400000028ec000017
:105940001400000028ec00001400000028ec000007
:105950001400000028ec00001400000028ec0000f7
:105960001400000028ec00001400000028ec0000e7
:105970001400000028ec00001400000028ec0000d7
:105980001400000028ec00001400000028ec0000c7
:105990001400000028ec00001400000028ec0000b7
:1059a0001400000028ec00001400000028ec0000a7
:1059b0001400000028ec00001400000028ec000097
:1059c0001400000028ec00001400000028ec000087
:1059d0001400000028ec00001400000028ec000077
:1059e0001400000028ec00001400000028ec000067
:1059f0001400000028ec00001400000028ec000057
:105a00001400000028ec00001400000028ec000046
:105a10001400000028ec00001400000028ec000036
:105a20001400000028ec00001400000028ec000026
:105a30001400000028ec00001400000028ec000016
:105a40001400000028ec00001400000028ec000006
:105a50001400000028ec00001400000028ec0000f6
