:020000040000fa
:080000000002040000000000f2
:020000040000fa
:100400008fb220000e7f22000e0188000000000045
:1004100000012000200288000c00070000a4210039
:100420000100200011000700000020000000e00093
:10043000020032000000020000000000c61d0200a1
:10044000000000000040da000000fe004440a90067
:10045000600220000000e0000300320000002000e5
:10046000a00188004440a800000006009101880017
:10047000800078000000eb0015003700e2804000ab
:1004800032a0b4009101ba00e280400032a0b40072
:100490009102ba00e280400032a0b4000002eb00fa
:1004a000472bde00f507b200602ce10004003a00a3
:1004b0000059eb008301e900fdff3e000400370016
:1004c0006128e100010032000082eb000400070017
:1004d0001101ba000200e000e8ff3a000000060047
:1004e0003159ba008301e9000c0032002159ba00e9
:1004f0008301e900080032000400e00003003a0034
:10050000e280400032a0b400f5ff370011d9ba00f4
:100510008301e900faff3a008100e800e180400031
:1005200032a0b40000000600d21e0400000000004b
:10053000841f78000000fa0013e1a9008500a900db
:100540000002eb00040388000002eb0014038800a3
:100550008660a900140020002457880014002000a1
:10056000345788000002eb00145788000002eb00ab
:100570004456880061e0a8000002eb00540888009f
:1005800013e1a8000080fa004f0278000040060046
:100590003600f800809fbe00829fbe00849fbe0090
:1005a000869fbe001800fa000002eb0004038800da
:1005b0000002eb00140388008660a900eb08070026
:1005c0000002be00048fbe004456800005002000db
:1005d0005600200007002000860f5200878f5a0027
:1005e00094013e000460010005003700140037004c
:1005f0002300370032003700410037005000370039
:10060000551680000480200004826200e00f520032
:100610008a013200465680001e02be00c233dd0051
:10062000a6ac200006834300048bbe004456800025
:100630000402e800445688006200a8008f003700da
:10064000551680000440200004826200e00f520032
:100650007c013200465680001e02be00c233dd001f
:10066000a6ac200006834300048bbe0044568000e5
:100670000402e800445688006260a8007f0037004a
:10068000951680000420200004826200e00f5200d2
:100690006e013200465680001e02be00c233dd00ed
:1006a000a6ac200006834300048bbe0044568000a5
:1006b0000402e800445688006280a8006f003700fa
:1006c000951680000410200004826200e00f5200a2
:1006d00060013200465680001e02be00c233dd00bb
:1006e000a6ac200006834300048bbe004456800065
:1006f0000402e800445688006220a8005f0037002a
:10070000951680000408200004826200e00f520069
:1007100052013200465680001e02be00c233dd0088
:10072000a6ac200006834300048bbe004456800024
:100730000402e800445688006220a8004f003700f9
:10074000951680000408200004826200e00f520029
:1007500044013a00465680001e02be00c233dd004e
:10076000a6ac200006834300048bbe0044568000e4
:100770000402e8004456880000000000f65680009d
:1007800007578000d4568000e556800004025300cd
:1007900085825b002407980035079800d6568000b4
:1007a000e7568000b4568000c5568000040353000d
:1007b00085835b0024ea2f00f5ff2f00060242002c
:1007c00087824a004407980055079800b656800073
:1007d000c756800094568000a5568000040353003d
:1007e00085835b0024ea2f00f5ff2f0006024200fc
:1007f00087824a0064079800750798009656800023
:10080000a75680007456800085568000040353006c
:1008100085835b0024ea2f00f5ff2f0006024200cb
:1008200087824a00040f9800150f980076568000c2
:10083000875680005456800065568000040353009c
:1008400085835b0024ea2f00f5ff2f00060242009b
:1008500087824a00240f9800350f98002e039000dd
:10086000be039000a47c8400b57c8400840f5300f8
:10087000858f5b00fc00350001003700fe0037006b
:100880002e039000be039000247d8400357d8400fb
:10089000840f5300858f5b00f3003c004e039000f3
:1008a000de039000a47c8400b57c8400840f530098
:1008b000858f5b00ec0035004e039000de03900056
:1008c000247d8400357d8400840f5300858f5b0078
:1008d000e5003c006e039000fe039000a47c8400c1
:1008e000b57c8400840f5300858f5b00de003500eb
:1008f0006e039000fe039000247d8400357d84000b
:10090000840f5300858f5b00d7003c000e0b9000d6
:100910009e0b9000a47c8400b57c8400840f53005f
:10092000858f5b00d00035000e0b90009e0b900071
:10093000247d8400357d8400840f5300858f5b0007
:10094000c9003c002e0b9000be0b9000a47c8400dc
:10095000b57c8400840f5300858f5b00c200350096
:100960002e0b9000be0b9000247d8400357d84000a
:10097000840f5300858f5b00bb003c002e0390006a
:10098000be039000c47c8400d57c8400840f530097
:10099000858f5b0005003d00c47c8400d57c84000d
:1009a00024079800350798000b0037002e039000ad
:1009b000be039000047d8400157d8400840f5300e5
:1009c000858f5b0004003400047d8400157d840065
:1009d00024079800350798004e039000de0390002e
:1009e000c47c8400d57c8400840f5300858f5b0019
:1009f00005003d00c47c8400d57c84004407980039
:100a0000550798000b0037004e039000de0390005e
:100a1000047d8400157d8400840f5300858f5b0066
:100a200004003400047d8400157d84004407980090
:100a3000550798006e039000fe039000c47c84006c
:100a4000d57c8400840f5300858f5b0005003d003a
:100a5000c47c8400d57c84006407980075079800e6
:100a60000b0037006e039000fe039000047d8400ad
:100a7000157d8400840f5300858f5b0004003400d3
:100a8000047d8400157d8400640798007507980034
:100a90000e0b90009e0b9000c47c8400d57c8400db
:100aa000840f5300858f5b0005003d00c47c8400eb
:100ab000d57c8400040f9800150f98000b003700b8
:100ac0000e0b90009e0b9000047d8400157d840029
:100ad000840f5300858f5b0004003400047d840084
:100ae000157d8400040f9800150f98002e0b9000c0
:100af000be0b9000c47c8400d57c8400840f53001e
:100b0000858f5b0005003d00c47c8400d57c84009b
:100b1000240f9800350f98000b0037002e0b900023
:100b2000be0b9000047d8400157d8400840f53006b
:100b3000858f5b0004003400047d8400157d8400f3
:100b4000240f9800350f98002e0b9000be0b9000dc
:100b5000c47c8400d57c84000402530085825b0041
:100b6000c4578800d55788000e0b90009e0b90004c
:100b7000e47c8400f57c84000402530085825b00e1
:100b8000a4578800b55788006e039000fe039000bc
:100b9000e47c8400f57c84000402530085825b00c1
:100ba00084578800955788004e039000de0390001c
:100bb000e47c8400f57c84000402530085825b00a1
:100bc00064578800755788002e039000be0390007c
:100bd000e47c8400f57c8400840f5300858f5b00e7
:100be00004003d006022b800445788005557880033
:100bf000040037001400200005002000445788003e
:100c00005557880014002000245788000002eb008c
:100c100034578800140020001457880013e1a900fd
:100c20008500a9000002eb005408880013e1a80029
:100c30000d003700000000000b003700000000002e
:100c40000900370000000000070037000000000026
:100c5000050037000000000003003700000000001e
:100c600001003700000000000002eb00445688003d
:100c700061e0a800000000000080fa004f03be0001
:100c80004f02be004f01be004f00be003600f9000b
:100c900000400600849fbe00869fbe000000fa0050
:100ca0008460a90004588000155880006102420049
:100cb000e0824a00045888001558880006588000d1
:100cc000175880002458800035588000840f530046
:100cd000858f5b00080036000082eb008082eb000d
:100ce000245888003558880044588000e00f52008e
:100cf000010032008bc0a8000080fa004f03be0044
:100d00004f02be00004006003600f800809fbe0083
:100d1000829fbe00849fbe00869fbe000200fa0034
:100d20008bc0a90044588000040f78001e02780090
:100d3000e00f5200020032001e02780004000100a1
:100d40000080fa004f03be004f02be004f01be00fc
:100d50004f00be003600f90000400600849fbe0030
:100d60000000fa0004598000e00f52001600320023
:100d70000c003700155980000490200004824200c6
:100d8000144278000482fb0024118800145980006a
:100d90000402e80014598800045980000402e900a4
:100da0000459880004598000e00f520012003200fc
:100db000151180000420200004826200e00f520020
:100dc000ecff32000c00370074fb2800144278005e
:100dd0000482fb00241188000000000074fb28003e
:100de000144278000482fb00241188009580a90039
:100df00014002000f45888008580a9000080fa00c3
:100e00004f02be00004006000040da000000fe0075
:100e100014002000a1033700f4ff2f009f033700c8
:100e20000001be00260007000470a70003f0a10027
:100e300003f8a30013003a006509b1001000320066
:100e4000090035006928e100020035000100280092
:100e50000000050000004000818048008502e90094
:100e6000fcff3a0000000600f88f42000500350044
:100e70008100d1000080d3008502e800fcff3a0029
:100e8000000006008000eb00000005004f89de0036
:100e9000820178009c0337006011b800aa03370074
:100ea0000001eb005603070004003200020020009e
:100eb00003f8230001f0a700160007000000060059
:100ec000c70ade00f107b200f50fb20008003200d9
:100ed000e1cf4200020032000170a00024000500b2
:100ee000810f700001003200040805004400050075
:100ef000810f700002003a00140005008502e9002d
:100f00000000400081c04800fcff3b000170a000d1
:100f10002400050007f82700078361000638e10078
:100f200004003a00f70720008783610087037100ff
:100f300001003a0003f0a200889fbe008a9fbe0015
:100f40008c9fbe00470ade000480a100c71ade00a5
:100f50000580a100070028000785600087856100e3
:100f6000f70f20000720e1009e0032000728e10073
:100f70009c003200010678000400e000b40032005a
:100f8000f7072000878060000170a0000500e000e6
:100f9000c0003200f7072000878161000370a000c5
:100fa000050652000f003a000b50e1000b00320022
:100fb0000308e10002003a000200e1007e00320076
:100fc0000204500083845800040031000001fd0039
:100fd0008101fd008402fd008a05fd006044b80027
:100fe000210037000520e10005003d000001fd0063
:100ff0008101fd008402fd008a05fd000506520006
:101000007a60e100050035000170a1004722dd0093
:10101000848070008a807000630037006044b800ec
:10102000ef02660007ff2f00070666000500e000dc
:1010300006003400f08312008714dd000511de0085
:10104000071bdd00060171008519de007060e100fc
:101050000500350009047800820478000301780057
:101060008001eb00700656000b50e10003003a00cf
:101070000200400083804800040037006004140030
:10108000e0841c0002005800838058000188a300ff
:10109000060032008100d1000080d3008984d30093
:1010a0000884d3000402e800270037000178a30079
:1010b00025003a000100e000030032008186cf00e5
:1010c000698656000a0037008c0020000000e0000e
:1010d00004003a0009007800880478000004eb005e
:1010e000700252008086cf000d0646000c06e90013
:1010f0007060e1000600350080007800090078008b
:10110000880478000004eb0070065600700252005c
:101110000c00e0000c0034008c08dd00f003160029
:101120000703de00868070000c00dd00074bde0048
:10113000060070008c4cdd000743de0086847400de
:101140000c44dd000c0252006120e100200035005b
:10115000610160000700280087816400f7ff270015
:1011600087836400070374000300e0000600320078
:1011700082037300040032000000e800e0804800b1
:101180000188a3000e003a00f70f20000720e100bd
:101190004a003d000170a1004722dd00810072007d
:1011a0008a8070000000be004f06be004f05be00e2
:1011b0004f04be00000006006000b800faff3700d0
:1011c0008100d1000080d3000402e800eeff370068
:1011d00004017800890174000c0207008a80700005
:1011e000f1ff370035030700070278000001fd001a
:1011f0008101fd003103070087027800850372003a
:101200000778a300040032000001fd008101fd0009
:10121000c2010700e4ff3700850362000768a300ee
:10122000080032000b50e10003003200f0ff2f00f5
:10123000f1ff2700dcff37000001fd008101fd0008
:10124000d9ff37000468a300d7ff3200faff370048
:10125000f8ff2700888360000b003a000000e000e0
:1012600009003a00830364008283730002003200a5
:101270000200be00ccff37000b50e100ceff3a0069
:101280000200be00c8ff3700140020008100640087
:101290003eff3700f8ff27008883610004003a0012
:1012a0000200e00002003a008c007800beff370028
:1012b000150020008301640039ff370001f8270082
:1012c0000000200081007500b7ff3700038368002d
:1012d0000700280007036300470ade000480a1001e
:1012e000c71ade000580a100f70f20000720e100eb
:1012f000420032000728e10040003200889fbe0013
:101300008a9fbe008c1f7800f107b200f307b2007d
:101310000400e000640032000170a0000500e0005d
:10132000680032000370a00085054200eb07b100a1
:101330000204b8000302b8008484440060854a00b7
:10134000020ab800848444000a854a00030ab800ef
:1013500004054500040033000804d0008984d2004d
:101360000a85d2008b05e9006158e1003d00350097
:10137000021020000901610003082000898161003a
:10138000f70720008783640008867300c84cde00de
:10139000c853dd00878474004855de000300e00078
:1013a0000600320082037600040032008904e8005f
:1013b00060054d000a88a3000c003a00f70f2000da
:1013c0000758e10044003d000a70a100c75ddd0040
:1013d0000a8575008a007300090078004f067800be
:1013e0004f05be004f04be00000006000a05d100f4
:1013f0008984d3008b05e800f0ff3700881f780050
:1014000006047800ad020700070278000001fd0025
:101410008101fd00a90207008702780085037200a0
:101420000778a300050032000001fd008101fd00e6
:101430003a0107004f04780000000600850372009f
:101440000748a30003003200f0ff2f00f1ff270040
:10145000f8ff37000000200001f8270088807000a6
:10146000f4ff3700880178004848dd008081710072
:101470004848de00c850dd0001007000c850de00a2
:10148000060478000b017800600107008880700076
:10149000d2ff37000500e0000500320017002000f1
:1014a000100007009dff370081037000f9ff3a002c
:1014b000860078004f0678004f05be004f04be003e
:1014c0000000050083037100f9ff320027002000af
:1014d0000400070094ff370001f8270086807000a1
:1014e000f4ff3700889fbe000004eb006138e10084
:1014f00016003a000100e00008003a00c800de00d3
:101500004800dd00880020000100e00003003a00f0
:10151000c800de004800dd00680444008184cf007c
:10152000e9845400060034008908dd00f0831400cb
:101530008703de00878070000900dd000904440095
:10154000610214004f04be00000006000300e0002a
:1015500008003a00c811de004811dd0088002000b4
:101560000300e00003003a00c811de004811dd006e
:10157000680444008384cf00e984540006003400ea
:101580008919dd00f08314008713de008781710064
:101590000911dd0009044400e1021400e9ff3700ed
:1015a000889fbe008a9fbe008c9fbe001b0020004b
:1015b0000202be00058668000600280006066600d6
:1015c0004709de00f20fb200820032000243e80059
:1015d00080003200c729de00f30fb2007d00320028
:1015e0000343e8007b003200f107b2000170a00065
:1015f000f507b2000570a000c708dd004903de0052
:10160000868070004700dd00c72add004923de0028
:10161000868272004722dd0003055100040350005a
:10162000858358000300310000004000818048009d
:101630000a05e9008c1f78008a9fbe000400500054
:10164000858058000402420085824a000000400064
:10165000818048000005eb000004be006033b80044
:101660000406be000d48e1005600310011000900db
:101670004dccd8000c01b8000d02b80084814100a7
:1016800060824a008283530003045c0084845c000f
:1016900060055d000a00e00025003a008005780042
:1016a0000d40e10049003100880078000700780013
:1016b000110009004d88d8000c01b8000d02b800d7
:1016c0008481410060824a006003110083835b00d3
:1016d00004045c00e0845c000900e00021003a00a2
:1016e0004f01be000300e0002b003200e301600068
:1016f000070673008c8171000100320064007000e5
:101700004200de004e5edd000c007000c258de00bc
:1017100001e0a000e7000700cf01780081807100a0
:101720004f06be004f05be004f04be00000006007d
:101730008c8343000d044c00e0844c0060054d0098
:101740000000e9000a00e000d4ff32008c8343006f
:101750000d044c00e0844c0060054d000000e900e1
:10176000ceff37000c0343008d834b0060044c0018
:10177000e0844c000000e9000900e000d8ff3200de
:101780000c0343008d834b0060044c00e0844c004c
:101790000000e900d2ff37004200de004e5edd00af
:1017a0000c007000c258de0001e0a000cf017800fc
:1017b0000300e000daff320060001000e080180053
:1017c000d7ff3700f0ff2f00aaff3700f0ff2f00f0
:1017d000b9ff37000404be00b8010700870678008f
:1017e0000004fd008104fd00b401070007836600ca
:1017f0000678a300030032000960a7000800be00bd
:101800002c0037000d78a300020032000800be0053
:10181000280037000778a30026003a0001f0a10055
:1018200009f0a1000668a30003003200f1ff2700c1
:10183000f0ff2f00baff37000d68a300030032004d
:101840000800be008c807000b5ff37000768a30059
:1018500007003a000648a30003003200f1ff27000a
:10186000f0ff2f00aeff37000d48a3000300320049
:101870006000b8008c807000a9ff37000748a30003
:101880000400320001f82700000020008c80700066
:10189000a3ff37002a0007000004fd008104fd00bb
:1018a00002057800260007000802be008a017800c1
:1018b00059ff37000160a000120220003259880051
:1018c00097ff37000100e000120032000500e00041
:1018d00010003200889fbe008a9fbe008c9fbe0011
:1018e0000006eb0001f8a3000300320060001000c6
:1018f000e08018000cf0a00005f8a30003003200ff
:1019000060021200e0821a000cf0a2008005eb00d9
:1019100041ff37006000b800020005000478a30012
:10192000040032000578a300030032000168a30020
:1019300001003a000200be000160a00000000600a5
:101940004f0ade004709de00f107b200f20fb200d5
:101950000b003200f207b1000170a000c708dd00e3
:10196000c901de00838070004700dd000400a6008e
:101970000000060060001000e08018000000060073
:10198000810f700001003a00000006008182cf0044
:101990000500e00010003e008082cf00ee82420091
:1019a0007028e1000400390007003e008000780044
:1019b0000000eb000e003700708312008600de008e
:1019c0000500dd000a003700708352008600dd004c
:1019d0000000eb0006003700e28252008508dd00bf
:1019e000708312000603de00868070000500dd00b3
:1019f0007507b0000501ea000400a600000006001b
:101a000060001000e0801800000006000100e00007
:101a100026003200610111007810e10023003c0033
:101a20006022b8007010e1000400350080027800e8
:101a3000010078008000eb00700151000200e0001e
:101a40000900340070031100062add00822ade003e
:101a50008603dd00878272000200de00860bdd0057
:101a6000070070008208de0084817100f4ff270007
:101a70000482620084817100040028008482620074
:101a80006102600005f0a6000000060004827100fb
:101a9000070032000000e800e08048000000060077
:101aa0000002be006000b800efff37006000b80021
:101ab0000000060081017000270032008002eb0068
:101ac00001f8a3000300320060001000e08018005d
:101ad00015002000f407200002024200200034001c
:101ae000f703200087036000060420000003630062
:101af00002082000000161004700de00c909dd0086
:101b000000807100c708de000600e0000800320017
:101b100087037100060032001000b0000180b000a1
:101b20000188a30002003200c108de000402e800c0
:101b3000f107b200f30f20000320e10003003d0095
:101b40004722dd00810072002900370001f82700dc
:101b50000000eb00260037006000b800000006001f
:101b6000680212007f20e100020034006000b8002b
:101b70001f0037006011b8007020e100040035003c
:101b800080017800010078008000eb0070025200b4
:101b90000400e00009003400f00312000719dd0022
:101ba0008419de000703dd00868171000400de0079
:101bb000070bdd00060070008408de00f7ff270039
:101bc000838363008703710006002800030363001a
:101bd000070032000700e00003003a0061016000e6
:101be00002817300020032001000b0000180b000da
:101bf0000500a6000000060001f0a000000006009d
:101c0000889fbe008a9fbe000003be00acfc070098
:101c10008505780082815200020020006220e100e8
:101c200004003a00f307b100040035007718e10022
:101c3000040035000600be00140037006000b80044
:101c40000f003700f50f2000faff2f008502d100aa
:101c50000a85d3008301e900fcff3b008184620018
:101c600000046500890f7400f2ff32008582ea00eb
:101c70000a85ea00818462000004650061000700b3
:101c800007f0a70001f0a0000081eb000200e000d7
:101c90004f05be004f04be0000000600889fbe0036
:101ca0008a9fbe00841f78007c0007004f007800e8
:101cb00011003300f0ff2f00838f6c0006003b0003
:101cc000040565000a00a7000800370009f0a60017
:101cd0001000200008003700820f5400838f5c0042
:101ce000030039001000200001003e000000200029
:101cf00009f0a7000000ea004f05be004f04be0037
:101d00000000e00000000600881f7800030478004f
:101d10000300e00007003d0060001000e0801800b4
:101d200060011900e081190002003b0001f02d0064
:101d3000030037000400070008f0a70001f0a0002e
:101d40004f04780000000600889fbe008a9fbe00f6
:101d500000827000040271000482710026003200cb
:101d60000004be000200be006011b8006b09200034
:101d7000950220000182cf000a0039000541b10020
:101d80000082cf00070039000541b1000982cf0071
:101d9000040039000541b1000882cf00010039007c
:101da0000541b10005425200120032000a003b001a
:101db00082817100610164008100d1000080d30044
:101dc0008984d3000884d3008b05e8000442e8002e
:101dd000f7ff3a00070037000804440089844c00ec
:101de00000004800818048008b05e9000442e900ba
:101df000f9ff3a00030007004f05be004f04be0084
:101e00000000060081002000618055000b003d00ad
:101e10000b00200061fe2f000100e1001d003400d6
:101e200082817100610164008904d1000884d300bb
:101e30000000e800faff3a00710020006100640031
:101e400003007000020060000900320061044400d9
:101e5000e0844c000988a500050032008b05e800ed
:101e60006808e10002003a008904d1000884d30028
:101e7000f20f20000258e10005003d00c75ddd00c3
:101e8000f907b2008980750008007800000006009c
:101e90000bf827008b007800000005000004be004e
:101ea00007fc07000003be000405be000200be00e0
:101eb00003fc0700844f7500000006002700200087
:101ec00001f0a70017002000470bde00f60fb2005c
:101ed000040032000643e8000a0032004702b30063
:101ee0000000060001037800f607b2000603700048
:101ef00002003a000703b300000006008702b300a7
:101f00000000060001037800f607b2000603700027
:101f1000020032000770a000000006000760a00069
:041f200000000600b7
:020000040000fa
:0200000401f009
:04000c0078ff000079
:020000040000fa
:0200000401f009
:040010005eff00008f
:020000040000fa
:0200000401f009
:040014007fff00006a
:020000040000fa
:0200000401f009
:04001800eeff0000f7
:020000040000fa
:0200000401f009
:04001c00dfff000002
:020000040000fa
:1000080004070000040700000407000004070000bc
:1000180004070000040700000407000004070000ac
:100028000407000004070000040700004a06000057
:10003800040700000407000004070000040700008c
:1000480098020000040700000407000004070000ed
:10005800ae060000040700000407000004070000c3
:10006800040700000407000004070000c80200009d
:10007800040700000407000004070000040700004c
:10008800040700000407000004070000040700003c
:10009800040700000407000004070000040700002c
:1000a800040700000407000004070000040700001c
:1000b800040700000407000004070000040700000c
:1000c80004070000040700000407000004070000fc
:1000d80004070000040700000407000004070000ec
:1000e80004070000040700000407000004070000dc
:1000f80004070000040700000407000004070000cc
:1001080004070000040700000407000004070000bb
:10011800040700000407000084060000040700002c
:10012800040700000407000004070000040700009b
:10013800040700000407000004070000040700008b
:10014800040700000407000004070000040700007b
:10015800040700000407000004070000040700006b
:10016800040700000407000004070000040700005b
:10017800040700000407000004070000040700004b
:10018800040700000407000004070000040700003b
:10019800040700000407000004070000040700002b
:1001a800040700000407000004070000040700001b
:1001b800040700000407000004070000040700000b
:1001c80004070000040700000407000004070000fb
:1001d80004070000040700000407000004070000eb
:1001e80004070000040700000407000004070000db
:0801f8000407000004070000e9
:020000040000fa
:1002080004070000040700000407000004070000ba
:1002180004070000040700000407000004070000aa
:100228000407000004070000040700004a06000055
:10023800040700000407000004070000040700008a
:1002480098020000040700000407000004070000eb
:10025800ae060000040700000407000004070000c1
:10026800040700000407000004070000c80200009b
:10027800040700000407000004070000040700004a
:10028800040700000407000004070000040700003a
:10029800040700000407000004070000040700002a
:1002a800040700000407000004070000040700001a
:1002b800040700000407000004070000040700000a
:1002c80004070000040700000407000004070000fa
:1002d80004070000040700000407000004070000ea
:1002e80004070000040700000407000004070000da
:1002f80004070000040700000407000004070000ca
:1003080004070000040700000407000004070000b9
:10031800040700000407000084060000040700002a
:100328000407000004070000040700000407000099
:100338000407000004070000040700000407000089
:100348000407000004070000040700000407000079
:100358000407000004070000040700000407000069
:100368000407000004070000040700000407000059
:100378000407000004070000040700000407000049
:100388000407000004070000040700000407000039
:100398000407000004070000040700000407000029
:1003a8000407000004070000040700000407000019
:1003b8000407000004070000040700000407000009
:1003c80004070000040700000407000004070000f9
:1003d80004070000040700000407000004070000e9
:1003e80004070000040700000407000004070000d9
:0803f8000407000004070000e7
:020000040000fa
:101f2400093d0000a00f000000000000881300001d
:101f3400000000004c1d00000000000010270000fd
:101f440000000000f82a00000000000017b700009d
:101f54005139000017b70000d13900000500000016
:0c1f6400530000005200000055aa0000cd
:020000040000fa
:101f70001200fa00881f78000300370000000000fc
:101f800001003700000000000e0078002800070064
:101f90001e02be0018c0b3000200200003f423009c
:101fa0000400be009afb070000027800e00f520018
:101fb000010035000044eb00e04f5400efff3a0011
:101fc00001003700000000000e0078001800070034
:101fd0001200070000027800e00f5200e9ff320013
:101fe0001e02be0018c0b300d2cc2c00c3dc2300fc
:101ff0000400be0088fb070000027800e00f5200da
:1020000001003c000044eb00e04f5400edff3a00bb
:102010004f0478000080fa00000006000000fa007b
:1020200014578000040078000080fa0000000600c9
:102030000200fa00000f7800000000002457800022
:10204000e00f5200fdff32001e0078000400070080
:1020500000027800040078000080fa00000006000a
:102060001c00fa00881f7800500f98002457800049
:10207000e00f520002003a000002eb00f6003700c9
:10208000140280004522de0067426200044f78009f
:102090009402800014079800ff3ffc0044ac20002d
:1020a00014427800674262000482fb00670262000b
:1020b0004522dd0016028000f5f12f008502630045
:1020c00004827200140288001e02900094028800ac
:1020d0000000880034578000e00f52005a003200a0
:1020e000a4578000b5578000672bb900060378001d
:1020f0006020b90080037800070343008402780061
:1021000074002000042ab80005034300860278000a
:102110004d2bdd004322de0004027300c3aade0063
:10212000a4578800b55788008457800095578000d1
:10213000672bb900060378006020b900800378009f
:10214000070343008402780074002000042ab800ca
:1021500005034300860278004d2bdd004322de009c
:1021600004027300c3aade008457880095578800d4
:102170006457800075578000672bb900060378000c
:102180006020b900800378000703430084027800d0
:1021900074002000042ab80005034300860278007a
:1021a0004d2bdd004322de0004027300c3aade00d3
:1021b0006457880075578800c4578000d557800041
:1021c000f607200006abb900060378006020b900ce
:1021d000800378000703430084027800f40720009e
:1021e000042ab8000503430086027800492bdd006d
:1021f0004722de0004027300c7aade00c45788002d
:10220000d5578800c6578000d7578000441f20004c
:1022100005002000840f5300858f5b00050034000b
:1022200014002000050020004457880055578800fe
:10223000030037006022b8004457880055578800d3
:102240000002eb0034578800445780005557800047
:102250003407980045079800645780007557800040
:1022600054079800650798008457800095578000b0
:1022700074079800050f9800a4578000b557800098
:10228000140f9800250f9800c4578000d557800080
:10229000340f9800450f98000002eb002457880087
:1022a0009402800024079800ff3ffc001e42780043
:1022b000674262000482fb00670262004522dd0083
:1022c00016028000f5f12f0085026300048272007f
:1022d000140288002e0290009402880000008800fa
:1022e0003e0a9000ce0a90000400be00e7fa070004
:1022f0000003be00447d8400557d84000401be00bf
:102300000600be00f1fb07000002be005e0b90005d
:10231000048bbe005e0a90001402be0005f0a1000e
:1023200018c0b300a2702d0033c223000400be0009
:10233000b7fa070000027800e00f520001003500f4
:102340000044eb00e04f5400030032005e0b9000ad
:102350006022b800048bbe001e0a9000ae0a9000f6
:102360000400be00c9fa07000003be00647d8400bb
:10237000757d84000401be000600be00d3fb07008b
:102380000002be005e0b9000240398003503980005
:102390007e0290008e0a90000400be00bbfa070087
:1023a0000003be00647d8400757d84000401be00ce
:1023b0000600be00c5fb07000002be005e0b9000d9
:1023c00044039800550398005e029000ee029000ce
:1023d0000400be00adfa07000003be00647d840067
:1023e000757d84000401be000600be00b7fb070037
:1023f0000002be005e0b9000640398007503980015
:102400005e0a900015002000050a98003e02900028
:10241000ce029000e00f5200e08f5a00030034001b
:10242000847d8400245988000a00370024598000e4
:10243000e00f520004003200245980000402e90039
:1024400024598800030037005e0a90008002eb00e8
:10245000050a980014002000040078004f0478005a
:102460000080fa00000006000800fa00200798002b
:1024700031079800ae02900014032000848f5200b0
:1024800002003e002403200024079800ae029000c2
:1024900004192000848f5200020036000419200025
:1024a000240798002e029000050020000400be00c2
:1024b00079fa07000002be000401be0000002000ff
:1024c000a147240036fc07000002be00048fbe00b6
:1024d0003e0190001e00be00020007000080fa00ce
:1024e000000006000600fa00881f7800008fbe007a
:1024f0002207980018c0b300020020000302240045
:102500001e00be0042fa070000027800e00f5200f1
:10251000010035000044eb00e04f5400030032009e
:102520000400200005022400048fbe0018c0b30080
:1025300002002000031a24001e00be0036fa070025
:1025400000027800e00f520001003c000044eb0064
:10255000e04f54000300320004002000051a24005c
:10256000048fbe00ae02900084382100848f520098
:102570000200360084382100240798002e019000c4
:102580001e00be00030007004f0478000080fa0020
:10259000000006000800fa00881f78001007980065
:1025a000210798003207980054588000e00f52002d
:1025b000bb003a001400200054588800340407007f
:1025c0000002eb00240c88000002eb00540c880091
:1025d0000002eb00840c88000002eb00b40c8800c1
:1025e0007207a9007227a9007247a9007267a900a3
:1025f0000002eb00840888007187a90018c0b300ae
:1026000002002000831424001e009000ae00900001
:1026100001fa070000027800e00f520001003c00c0
:102620000044eb00e04f54001e003200840880009c
:102630000440a1000450a000840888001427200052
:102640007458880004002400c54124008458880080
:102650009558880072712b0013ad23001e00900066
:10266000ae009000cefb07000002be00020020007a
:1026700003f023000400be002ffa07000002be0092
:102680000400be0006fa07000002be000400be00ff
:10269000e3f907000002be000402780064588800d5
:1026a0001d003700840880000440a0000450a100f1
:1026b00084088800843821007458880004002400ad
:1026c000c5592400845888009558880072712b00e1
:1026d000139523001e009000ae009000b0fb070091
:1026e0000002be000200200003f023000400be0030
:1026f00011fa07000002be000400be00e8f907005e
:102700000002be000400be00c5f907000002be00c2
:1027100004027800645888000002eb003408880046
:10272000645880006408880084e0a90094e0a9004f
:102730003e029000e00f52001300320074588000f7
:1027400004024200040f78001e027800140c880076
:102750001e027800040c88001e027800440c8800d9
:102760001e027800340c88001e027800740c880069
:102770001e027800640c88001e027800a40c8800f9
:102780001e027800940c8800c8e2a900cce2a900df
:10279000c902a900cd02a900c922a900cd22a90021
:1027a000d0c2a900d4c2a90035368000f40f2e0093
:1027b0008482620004202100048272003436880082
:1027c0004536800004fe2f00048262003401b3000d
:1027d0004436880045368000f40f2e008482620063
:1027e000044021000482720044368800b53680001f
:1027f00004fe2f00048262005401b300b436880046
:10280000240c80000400a1000410a0000420a000fb
:10281000240c8800540c80000400a1000410a000c7
:102820000420a000540c8800840c80000400a10047
:102830000410a0000420a000840c8800b40c8000c8
:102840000400a1000410a0000420a000b40c880023
:1028500011e1a8003e029000e00f5200110032008a
:102860003e029000050020000400be005400070056
:1028700074588000040c880074588000340c880060
:1028800074588000640c880074588000940c880090
:1028900080382100010020004900070001003700b6
:1028a000000000004f0478000080fa0000000600dd
:1028b0000a00fa00140280004522de00674262002e
:1028c000044f78009402800014079800ff3ffc003a
:1028d000e4af200014427800674262000482fb00eb
:1028e000670262004522dd0016028000f5f12f002c
:1028f0008502630004827200140288001e029000a8
:102900009402880000008800045880001558800058
:102910002407980035079800950280004507980025
:10292000ff3ffc001e427800674262000482fb0009
:10293000670262004522dd0016028000f5f12f00db
:102940008502630004827200140288004e02900027
:1029500094028800000088002e029000be029000c1
:102960000400be000080fa00000006000400fa0027
:10297000a4088000040f7800b408800014079800b1
:102980001e02be000400be000080fa000000060027
:102990000000fa00c6ff07000002be006402420009
:1029a000e0824a004d2bdd004322de00040273006a
:1029b000c32ade000400be000080fa00000006000a
:1029c0000400fa00008fbe001e00be000e000700cb
:1029d0000002be000400be00300007000080fa00c4
:1029e000000006000400fa00008fbe001e00be00ba
:1029f000130007000002be000400be00270007000d
:102a00000080fa00000006000400fa00008fbe00fb
:102a1000a7ff07000003be001e00be00430add0042
:102a2000cd02de00850272004302dd000602420094
:102a300087824a000400be000080fa000000060001
:102a40000400fa00008fbe0099ff07000002be00dc
:102a50003e034200ae834a000602be000400be00f0
:102a60000080fa00000006000400fa00008fbe009b
:102a70008fff07000002be00be0f5200ae8f5a004b
:102a80000200310014002000010037000002eb00ba
:102a9000040078000080fa00000006000400fa003c
:102aa000008fbe000000000081ff07000002be0092
:102ab000be0f5200ae8f5a00fbff39000080fa00b3
:102ac000000006000c00fa0030079800410798004b
:102ad00052079800140280004522de00674262001f
:102ae000044f78009402800014079800ff3ffc0018
:102af000e4af200014427800674262000482fb00c9
:102b0000670262004522dd0016028000f5f12f0009
:102b10008502630004827200140288001e02900085
:102b200094028800000088008bc0a9009bc0a80008
:102b30005e029000445888003e029000ce02900051
:102b4000432bdd00cd23de00870373004323dd002c
:102b500004588000155880000602420087824a000f
:102b60002458880035588800940280002407980073
:102b7000ff3ffc001e427800674262000482fb00b7
:102b8000670262004522dd0016028000f5f12f0089
:102b90008502630004827200140288002e029000f5
:102ba00094028800000088000080fa0000000600ff
:102bb0000600fa00140280004522de00674262002f
:102bc000044f78009402800014079800ff3ffc0037
:102bd000e4af200014427800674262000482fb00e8
:102be000670262004522dd0016028000f5f12f0029
:102bf0008502630004827200140288001e029000a5
:102c000094028800000088009bc0a9008bc0a90026
:102c10000082eb008082eb00245888003558880041
:102c20000002eb00445888009402800024079800ba
:102c3000ff3ffc001e427800674262000482fb00f6
:102c4000670262004522dd0016028000f5f12f00c8
:102c50008502630004827200140288002e02900034
:102c600094028800000088000080fa00000006003e
:102c70001200fa00881f7800000f98000e0a9000da
:102c80001403be0084588000955880000401be00e3
:102c90000600be008df907000002be00048fbe00d2
:102ca0000e0a900024039000b40390008458800022
:102cb000955880000401be000600be0083f907009d
:102cc0000002be0024079800350798000e0a900005
:102cd00044039000d40390008458800095588000ed
:102ce0000401be000600be0078f907000002be0025
:102cf00044079800550798000e0a9000640390005e
:102d0000f403900084588000955880000401be00b0
:102d10000600be006df907000002be0064079800bf
:102d20007507980018c0b3006011b8001e00be00ff
:102d300037f8070000027800e00f5200010035006c
:102d40000044eb00e04f5400030032006022b80062
:102d5000048fbe000f003700845880009558800013
:102d600018c0b3000401be001e00be002af8070010
:102d700000027800e00f520001003c000044eb002c
:102d8000e04f5400030032008458800095588000c2
:102d9000048fbe0018c0b3006011b8002e00900070
:102da000be0090001af8070000027800e00f520001
:102db000010035000044eb00e04f540004003200f5
:102dc0006022b800240798003507980011003700ea
:102dd000845880009558800018c0b3000401be00dc
:102de0002e009000be0090000bf807000002780053
:102df000e00f520001003c000044eb00e04f5400a3
:102e00000400320084588000955880002407980000
:102e10003507980018c0b3006011b8004e0090004c
:102e2000de009000faf7070000027800e00f520081
:102e3000010035000044eb00e04f54000400320074
:102e40006022b80044079800550798001100370029
:102e5000845880009558800018c0b3000401be005b
:102e60004e009000de009000ebf7070000027800b3
:102e7000e00f520001003c000044eb00e04f540022
:102e80000400320084588000955880004407980060
:102e90005507980018c0b3006011b8006e0090008c
:102ea000fe009000daf7070000027800e00f520001
:102eb000010035000044eb00e04f540004003200f4
:102ec0006022b80064079800750798001100370069
:102ed000845880009558800018c0b3000401be00db
:102ee0006e009000fe009000cbf707000002780013
:102ef000e00f520001003c000044eb00e04f5400a2
:102f000004003200845880009558800064079800bf
:102f1000750798001e00be00c1f707000002be0042
:102f2000840278007458800004824200040c8800f7
:102f30002e009000be009000b9f707000002be000e
:102f4000840278007458800004824200340c8800a7
:102f50004e009000de009000b1f707000002be00b6
:102f6000840278007458800004824200640c880057
:102f70006e009000fe009000a9f707000002be005e
:102f8000840278007458800004824200940c880007
:102f90004f0478000080fa00000006000000fa00ec
:102fa0002cc3a8002ce3a800d022a90085368000fd
:102fb000f40f2e008482620004302000048272002c
:102fc00084368800d002a80025358000f40f2e003a
:102fd000848262000400210004827200243588008b
:102fe00024358000f401b300243588000080fa0005
:102ff000000006000400fa00000f78001107980096
:103000001e027800e00f520002003a001400200077
:10301000040f78001e027800e70f5200020036000d
:1030200074002000040f78001e027800044278002b
:10303000044078001cebb7000002eb00041188008c
:1030400070a7a900d5ff0700041180000480a1002b
:103050000490a000041188000002eb001411880005
:1030600023e2a80023a2a9001e029000f80f52003c
:1030700041003200f80f520010003e00e40f5200f1
:1030800049003200e40f520005003e00e20f5200fa
:103090004b003200e30f5200460032004b00370075
:1030a000e80f52003a003200f00f520035003200b3
:1030b000e60f52003900320044003700a50f20000f
:1030c000850f520020003200a50f2000850f52000e
:1030d0000a003e0045062000850f52002000320005
:1030e000850c2000850f52001a00320005032000d5
:1030f000850f52001d00320034003700451f2000ac
:10310000850f52000a003200853e2000850f5200d4
:1031100004003200e5152000850f52000700320040
:103120002a0037000002eb00441188002a00370013
:1031300014002000441188002700370024002000dc
:103140004411880024003700340020004411880016
:103150002100370044002000441188001e00370081
:1031600094002000441188001b0037005401200007
:103170004411880018003700a40220004411880080
:1031800015003700040420004411880012003700a5
:1031900014082000441188000f003700d40a2000d2
:1031a000441188000c0037003410200044118800be
:1031b00009003700a41520004411880006003700dc
:1031c00084202000441188000300370014412000af
:1031d00044118800000000009580a9009560a900b6
:1031e0008580a9008560a900c4b120001442780040
:1031f000674262000482fb0067026200560580009d
:1032000085ff2f0085026300048272005405880048
:103210004405800004c0a10004d0a10004e0a10086
:103220004405880021e2a800000000002342a80015
:103230000080fa00000006000e00fa005007980017
:1032400061079800c4588000e00f5200010032006e
:10325000a3010700a4588000e00f520001003a00cb
:10326000f90207006b0107006e029000e00f5200a8
:10327000800032000002eb00040f78000002eb0037
:10328000140798000002eb00240798000002eb00ee
:10329000040f7800630037001e027800de02900001
:1032a00004824200144278000402fb0014079800d4
:1032b0009e02900004022000848f52000b003a000e
:1032c0002e029000e00f5200500034002e029000b9
:1032d0000402e900840242000480200004824200cb
:1032e00005382000050a78004d0037001e029000c6
:1032f0001404b100140798001e029000f90f520048
:10330000030034001e0290000402b100140798006c
:103310001e029000e00f52003e0035001e02900099
:10332000f90f52003d003c001e0290008402420052
:1033300004a9200004824200940278004507980006
:103340004e029000140278000402420084027800c9
:103350002e0290008482420004082000848f5200d4
:1033600035003e000002eb00340798001a003700d9
:10337000ce0290003e0290000482e80065427a008e
:103380000482fb00c722dd002e02900004034200ed
:103390000480200004024300050a78002e029000f9
:1033a0000402e800240798002e02900084024200e4
:1033b000048020000482420005082000050a7800ed
:1033c0002e0290000402e800240798003e029000bc
:1033d0000402e80034079800be0290004e029000fc
:1033e00014027800848f5200e1ff39002e02900011
:1033f0000402e900840242000480200004824200aa
:1034000005182000050a78000500370000000000bc
:10341000030037000000000001003700000000003a
:103420001e0fe8009e0278006e029000848f52000a
:1034300099ff390001003700000000002e029000c3
:103440000402e90084024200048020000482420059
:1034500005382000050a78002e029000c458880024
:1034600022ed21006000b80096fd0700000000007a
:1034700001003700000000000080fa000000060094
:020000040000fa
:10348000140b000008000000020000000000010012
:103490000000000000000000000800000001000023
:1034a00000000000000a0000c4000000020000004c
:1034b00002000100030400000301010001040000f8
:1034c00003010300010300000301010000010000eb
:1034d00001000400000101000301030000030300d8
:1034e00001000400000101000101020000010100cf
:1034f00004000100030303000300030001030000b4
:1035000004000100030101000200030003020000a7
:103510000301030000030300030004000001030093
:103520000301040000030300010303000001030082
:103530000100030000010100010001000003000080
:103540000300010001030000040001000101030069
:103550000300010003030000040003000101030055
:103560000400030001030300040003000301010041
:10357000000a04000a0a0a00100a16000a1a0a00c1
:10358000200a26000a2c0a00300a36000a3c0a00eb
:10359000420a46000a4a0a00500a56000a5c0a001b
:1035a000620a68000a6c0a00720a78000a7e0a0041
:1035b000840a8a000a0000000a0b00000a000000ca
:1035c00002000000000000000000000000000000f9
:1035d00000000000240b00000200000002000000b8
:1035e00000000000c40a00003800000002000000d3
:1035f00004000000000000000000000000000000c7
:1036000000000000000000000000000000000000ba
:1036100000000000000000000000000000000000aa
:10362000000000000000000000000000000000009a
:10363000000000000000000000000000fc0a000084
:103640000e00000002000000000002000000000068
:103650000000ff00ffffff00000000001c0b000047
:10366000080000000200000004000100000000004b
:103670000000000000090000000100000000000040
:10368000260b000002000000000000000000000007
:020000040000fa
:103690000000fa00e4af2000144278000482fb002e
:1036a00004007800020007000080fa000000060015
:1036b0000200fa00000f7800e4578000e00f52008b
:1036c0004a003a0014002000e45788001e027800e7
:1036d000e00f520002003a0014002000040f7800ae
:1036e0001e027800e70f520002003600740020002e
:1036f000040f78001e02780004427800044078002d
:10370000feeab7000002eb00f40888000002eb00bc
:103710000409880071c7a90071e7a9000002eb0045
:10372000a40888000002eb00c40888000082eb00b7
:10373000d40888000082eb00e40888001e61a8001d
:10374000f40880000440a0000450a100f4088800a0
:103750008780a9009780a9001fe1a8000002eb0064
:10376000240888007167a900240880000440a10093
:103770000450a100240888000002eb00040888001f
:103780007438210014088800e4af20001442780047
:10379000674262000482fb00670262004c22dd0087
:1037a00026058000f5ff2800850263000482720070
:1037b000240588008460a9009460a80005e1a800a1
:1037c0000002eb00343188007527a9009bc0a900d6
:1037d0008bc0a900140680000480a0000490a10002
:1037e00004a0a100140688000100370000000000ba
:1037f0000080fa00000006000000fa00c4588000b3
:10380000e00f520001003a00c542a8000080fa0013
:10381000000006000000fa00c4588000e00f5200cb
:1038200001003a00c542a9000080fa00000006002d
:103830000000fa00c4588000e00f52000d003a006a
:10384000241680004a22de00614262000404a200c5
:10385000614262000482fb00610262004a22dd00d4
:1038600026168000f5bf2f008502630004827200d7
:10387000241688000080fa00000006000400fa0008
:10388000000f780011079800c4588000e00f520024
:103890000100320012000700a4588000e00f52001f
:1038a00001003a0068010700daff07000002eb00a0
:1038b000d45888001e027800044088001e02900040
:1038c0001440880024002000c458880022ed210004
:1038d0006000b8007bfc07000080fa0000000600d2
:1038e0000000fa00c4588000e00f520004003200cb
:1038f000affc07000002eb00c4588800020037004c
:10390000c4ff0700000000000080fa00000006006d
:103910000400fa00000f780011079800f0ff07007c
:103920009e0090001e00780043fe0700ffff370056
:103930000000fa00253a800004fe2f000482620095
:103940000400a000243a8800353a800004e02f00eb
:10395000848262006402200004827200343a88008b
:10396000243a80000460a1000470a100243a880079
:103970003600200084072000a509200037742000ad
:10398000844b7800854b7800864b78001600200029
:10399000640420007505200027742000844b780003
:1039a000854b7800864b780000000000153a8000b7
:1039b000040027008482620004002300848f5200e8
:1039c000faff3a0000000000153a800004022000cf
:1039d00004826200e00f5200fbff32000002eb00a5
:1039e00004198800e4ff2f00843b88000082eb006c
:1039f000943b88000082eb00a43b88000002eb00af
:103a0000040488000002eb00140488000002eb00ac
:103a1000a40488000002eb00b40488000002eb005c
:103a2000c40488000002eb00d40488000002eb000c
:103a3000e40488000002eb00240488000002eb008c
:103a4000340488000002eb00440488000002eb000c
:103a5000540488000002eb00640488000080fa002f
:103a6000000006000200fa00000f78001e02780035
:103a7000e00f520002003c0014002000040f780008
:103a80001e027800e70f520002003400740020008c
:103a9000040f78001e027800044278000440780089
:103aa000c4eab700fafe0700d0e2a800d102a800dd
:103ab000d122a800c942a800c962a8006a20a800b3
:103ac0006a80a8006a60a8006a00a80069e0a800ef
:103ad0000002eb00040388000002eb0014038800de
:103ae0008660a90044ac200014427800674262005e
:103af0000482fb00670262004c22dd006605800044
:103b0000f5ff2800850263000482720064058800c6
:103b10009660a8000002eb009408880071a7a90035
:103b2000940880000440a1000450a000940888007c
:103b30008500a90044ac200014427800674262006e
:103b40000482fb00670262004605800085ff2f00ab
:103b50008502630004827200440588009500a80075
:103b6000947c8400740888000002eb0044568800ae
:103b70006220a8000002eb00540888008500a9001c
:103b800013e1a8000080fa00000006002200fa00fd
:103b900067ff070020002000c5fe0700aa000700fd
:103ba0001100200020fb2800a3fd0700419c2000fd
:103bb000200320002cfa070049ff070040002000e6
:103bc000a8ff0700010320006000200009fd070096
:103bd00009ff0700007d20000100200078fb07009e
:103be0000cff07001100200040fb280092fd070099
:103bf000dff807003aff0700fffe070070024700ea
:103c0000040078000af907000e129000e00f52003d
:103c10000f003a006022b80064079800750798000a
:103c20006e029000fe02900044079800550798002d
:103c30004e029000de02900024079800350798009d
:103c40002e029000be029000048fbe000f003700cd
:103c50000e0a90009e0a9000048fbe000e0a90008b
:103c60009e0a900024079800350798000e0a9000dd
:103c70009e0a900044079800550798000e0a90008d
:103c80009e0a900064079800750798000e0078005f
:103c9000f7fb0700700247002101200004007800b4
:103ca00002000700e2fe0700d4ff37000400fa001c
:103cb000000f78001107980000000000f458800001
:103cc000e00f5200fdff32009e0090001e007800c1
:103cd000020007000080fa00000006000600fa005b
:103ce0001007980021079800f4588000e00f520058
:103cf000290032000002eb00f4588800ae02900068
:103d000004102000848f52000200360004102000ae
:103d1000240798002e029000045988000002eb004e
:103d2000145988002e029000e00f52000e0032005d
:103d30000002eb00040f7800070037001e0290001d
:103d40001e02420014427800059020009e8242002c
:103d5000844a78001e0fe8002e0290009e02780030
:103d6000848f5200f5ff390064fb2800144278006c
:103d70000482fb00241188000000000064fb28007e
:103d8000144278000482fb00241188009580a8006a
:103d90000000000001003700000000000080fa0071
:103da000000006000000fa00c4588000e00f520036
:103db00022003200d5588000c4588000848f520001
:103dc00003003900c542a9000002eb00d458880066
:103dd000241680004a22de00614262000404a20030
:103de000614262000482fb00610262004a22dd003f
:103df00026168000f5bf2f00850263000482720042
:103e000024168800d45880008402420004802000d8
:103e100004824200140278000500200022ed2100f7
:103e20000400be0027fb0700d45880000402e8000d
:103e3000d458880000000000010037000000000096
:103e40000080fa00000006000000fa00a45880007c
:103e5000e00f520007003a0014002000a458880028
:103e60000bfe0700c142a900c542a90000000000e6
:103e700001003700000000000080fa00000006008a
:00000001FF
