:020000040000fa
:080000000002040000000000f2
:020000040000fa
:10040000cfb220000e7f22000e0188000000000005
:1004100000012000200288000c00070020fd2300be
:100420000100200011000700000020000000e00093
:10043000020032000000020000000000de43020063
:10044000000000000040da000000fe004440a90067
:10045000003522000000e000030032000000200010
:10046000a00188004440a800000006009101880017
:10047000800078000000eb0015003700e2804000ab
:1004800032a0b4009101ba00e280400032a0b40072
:100490009102ba00e280400032a0b4000002eb00fa
:1004a000472bde00f507b200602ce10004003a00a3
:1004b0000059eb008301e900fdff3e000400370016
:1004c0006128e100010032000082eb000400070017
:1004d0001101ba000200e000e8ff3a000000060047
:1004e0003159ba008301e9000c0032002159ba00e9
:1004f0008301e900080032000400e00003003a0034
:10050000e280400032a0b400f5ff370011d9ba00f4
:100510008301e900faff3a008100e800e180400031
:1005200032a0b400000006003844040000000000bf
:10053000841f78000000fa0013e1a9008500a900db
:100540000002eb00040388000002eb0014038800a3
:100550008660a900140020002457880014002000a1
:10056000345788000002eb00145788000002eb00ab
:100570004456880061e0a8000002eb00540888009f
:1005800013e1a8000080fa004f0278000040060046
:100590003600f800809fbe00829fbe00849fbe0090
:1005a000869fbe001800fa000002eb0004038800da
:1005b0000002eb00140388008660a900ed1a070012
:1005c0000002be00048fbe004456800005002000db
:1005d0005600200007002000860f5200878f5a0027
:1005e00094013e000460010005003700140037004c
:1005f0002300370032003700410037005000370039
:10060000551680000480200004826200e00f520032
:100610008a013200465680001e02be00c233dd0051
:10062000a6ac200006834300048bbe004456800025
:100630000402e800445688006200a8008f003700da
:10064000551680000440200004826200e00f520032
:100650007c013200465680001e02be00c233dd001f
:10066000a6ac200006834300048bbe0044568000e5
:100670000402e800445688006260a8007f0037004a
:10068000951680000420200004826200e00f5200d2
:100690006e013200465680001e02be00c233dd00ed
:1006a000a6ac200006834300048bbe0044568000a5
:1006b0000402e800445688006280a8006f003700fa
:1006c000951680000410200004826200e00f5200a2
:1006d00060013200465680001e02be00c233dd00bb
:1006e000a6ac200006834300048bbe004456800065
:1006f0000402e800445688006220a8005f0037002a
:10070000951680000408200004826200e00f520069
:1007100052013200465680001e02be00c233dd0088
:10072000a6ac200006834300048bbe004456800024
:100730000402e800445688006220a8004f003700f9
:10074000951680000408200004826200e00f520029
:1007500044013a00465680001e02be00c233dd004e
:10076000a6ac200006834300048bbe0044568000e4
:100770000402e8004456880000000000f65680009d
:1007800007578000d4568000e556800004025300cd
:1007900085825b002407980035079800d6568000b4
:1007a000e7568000b4568000c5568000040353000d
:1007b00085835b0024ea2f00f5ff2f00060242002c
:1007c00087824a004407980055079800b656800073
:1007d000c756800094568000a5568000040353003d
:1007e00085835b0024ea2f00f5ff2f0006024200fc
:1007f00087824a0064079800750798009656800023
:10080000a75680007456800085568000040353006c
:1008100085835b0024ea2f00f5ff2f0006024200cb
:1008200087824a00040f9800150f980076568000c2
:10083000875680005456800065568000040353009c
:1008400085835b0024ea2f00f5ff2f00060242009b
:1008500087824a00240f9800350f98002e039000dd
:10086000be039000c49c8500d59c8500840f530076
:10087000858f5b00fc00350001003700fe0037006b
:100880002e039000be039000449d8500559d850079
:10089000840f5300858f5b00f3003c004e039000f3
:1008a000de039000c49c8500d59c8500840f530016
:1008b000858f5b00ec0035004e039000de03900056
:1008c000449d8500559d8500840f5300858f5b00f6
:1008d000e5003c006e039000fe039000c49c850080
:1008e000d59c8500840f5300858f5b00de003500aa
:1008f0006e039000fe039000449d8500559d850089
:10090000840f5300858f5b00d7003c000e0b9000d6
:100910009e0b9000c49c8500d59c8500840f5300dd
:10092000858f5b00d00035000e0b90009e0b900071
:10093000449d8500559d8500840f5300858f5b0085
:10094000c9003c002e0b9000be0b9000c49c85009b
:10095000d59c8500840f5300858f5b00c200350055
:100960002e0b9000be0b9000449d8500559d850088
:10097000840f5300858f5b00bb003c002e0390006a
:10098000be039000e49c8500f59c8500840f530015
:10099000858f5b0005003d00e49c8500f59c85008b
:1009a00024079800350798000b0037002e039000ad
:1009b000be039000249d8500359d8500840f530063
:1009c000858f5b0004003400249d8500359d8500e3
:1009d00024079800350798004e039000de0390002e
:1009e000e49c8500f59c8500840f5300858f5b0097
:1009f00005003d00e49c8500f59c850044079800b7
:100a0000550798000b0037004e039000de0390005e
:100a1000249d8500359d8500840f5300858f5b00e4
:100a200004003400249d8500359d8500440798000e
:100a3000550798006e039000fe039000e49c85002b
:100a4000f59c8500840f5300858f5b0005003d00f9
:100a5000e49c8500f59c8500640798007507980064
:100a60000b0037006e039000fe039000249d85006c
:100a7000359d8500840f5300858f5b000400340092
:100a8000249d8500359d85006407980075079800b2
:100a90000e0b90009e0b9000e49c8500f59c850059
:100aa000840f5300858f5b0005003d00e49c8500aa
:100ab000f59c8500040f9800150f98000b00370077
:100ac0000e0b90009e0b9000249d8500359d8500a7
:100ad000840f5300858f5b0004003400249d850043
:100ae000359d8500040f9800150f98002e0b90007f
:100af000be0b9000e49c8500f59c8500840f53009c
:100b0000858f5b0005003d00e49c8500f59c850019
:100b1000240f9800350f98000b0037002e0b900023
:100b2000be0b9000249d8500359d8500840f5300e9
:100b3000858f5b0004003400249d8500359d850071
:100b4000240f9800350f98002e0b9000be0b9000dc
:100b5000e49c8500f59c85000402530085825b00bf
:100b6000c4578800d55788000e0b90009e0b90004c
:100b7000049d8500159d85000402530085825b005d
:100b8000a4578800b55788006e039000fe039000bc
:100b9000049d8500159d85000402530085825b003d
:100ba00084578800955788004e039000de0390001c
:100bb000049d8500159d85000402530085825b001d
:100bc00064578800755788002e039000be0390007c
:100bd000049d8500159d8500840f5300858f5b0063
:100be00004003d006022b800445788005557880033
:100bf000040037001400200005002000445788003e
:100c00005557880014002000245788000002eb008c
:100c100034578800140020001457880013e1a900fd
:100c20008500a9000002eb005408880013e1a80029
:100c30000d003700000000000b003700000000002e
:100c40000900370000000000070037000000000026
:100c5000050037000000000003003700000000001e
:100c600001003700000000000002eb00445688003d
:100c700061e0a800000000000080fa004f03be0001
:100c80004f02be004f01be004f00be003600f9000b
:100c900000400600849fbe00869fbe000000fa0050
:100ca0008460a90004588000155880006102420049
:100cb000e0824a00045888001558880006588000d1
:100cc000175880002458800035588000840f530046
:100cd000858f5b00080036000082eb008082eb000d
:100ce000245888003558880044588000e00f52008e
:100cf000010032008bc0a8000080fa004f03be0044
:100d00004f02be00004006003600f800809fbe0083
:100d1000829fbe00849fbe00869fbe000200fa0034
:100d20008bc0a90044588000040f78001e02780090
:100d3000e00f5200020032001e02780004000100a1
:100d40000080fa004f03be004f02be004f01be00fc
:100d50004f00be003600f90000400600849fbe0030
:100d60000000fa0004598000e00f52001600320023
:100d70000c003700155980000490200004824200c6
:100d8000144278000482fb0024118800145980006a
:100d90000402e80014598800045980000402e900a4
:100da0000459880004598000e00f520012003200fc
:100db000151180000420200004826200e00f520020
:100dc000ecff32000c003700b43b2b0014427800db
:100dd0000482fb002411880000000000b43b2b00bb
:100de000144278000482fb00241188009580a90039
:100df00014002000f45888008580a9000080fa00c3
:100e00004f02be00004006000040da000000fe0075
:100e1000140020000e043700f4ff2f000c043700ec
:100e20000001be00260007000470a70003f0a10027
:100e300003f8a30013003a006509b1001000320066
:100e4000090035006928e100020035000100280092
:100e50000000050000004000818048008502e90094
:100e6000fcff3a0000000600f88f42000500350044
:100e70008100d1000080d3008502e800fcff3a0029
:100e8000000006008000eb00000005004f89de0036
:100e900082017800090437006011b8001704370098
:100ea0000001eb00c3030700040032000200200031
:100eb00003f8230001f0a700160007000000060059
:100ec000c70ade00f107b200f50fb20008003200d9
:100ed000e1cf4200020032000170a00024000500b2
:100ee000810f700001003200040805004400050075
:100ef000810f700002003a00140005008502e9002d
:100f00000000400081c04800fcff3b000170a000d1
:100f10002400050007f82700078361000638e10078
:100f200004003a00f70720008783610087037100ff
:100f300001003a0003f0a200889fbe008a9fbe0015
:100f40008c9fbe00470ade000480a100c71ade00a5
:100f50000580a100070028000785600087856100e3
:100f6000f70f20000720e1009e0032000728e10073
:100f70009c003200010678000400e000b40032005a
:100f8000f7072000878060000170a0000500e000e6
:100f9000c0003200f7072000878161000370a000c5
:100fa000050652000f003a000b50e1000b00320022
:100fb0000308e10002003a000200e1007e00320076
:100fc0000204500083845800040031000001fd0039
:100fd0008101fd008402fd008a05fd006044b80027
:100fe000210037000520e10005003d000001fd0063
:100ff0008101fd008402fd008a05fd000506520006
:101000007a60e100050035000170a1004722dd0093
:10101000848070008a807000630037006044b800ec
:10102000ef02660007ff2f00070666000500e000dc
:1010300006003400f08312008714dd000511de0085
:10104000071bdd00060171008519de007060e100fc
:101050000500350009047800820478000301780057
:101060008001eb00700656000b50e10003003a00cf
:101070000200400083804800040037006004140030
:10108000e0841c0002005800838058000188a300ff
:10109000060032008100d1000080d3008984d30093
:1010a0000884d3000402e800270037000178a30079
:1010b00025003a000100e000030032008186cf00e5
:1010c000698656000a0037008c0020000000e0000e
:1010d00004003a0009007800880478000004eb005e
:1010e000700252008086cf000d0646000c06e90013
:1010f0007060e1000600350080007800090078008b
:10110000880478000004eb0070065600700252005c
:101110000c00e0000c0034008c08dd00f003160029
:101120000703de00868070000c00dd00074bde0048
:10113000060070008c4cdd000743de0086847400de
:101140000c44dd000c0252006120e100200035005b
:10115000610160000700280087816400f7ff270015
:1011600087836400070374000300e0000600320078
:1011700082037300040032000000e800e0804800b1
:101180000188a3000e003a00f70f20000720e100bd
:101190004a003d000170a1004722dd00810072007d
:1011a0008a8070000000be004f06be004f05be00e2
:1011b0004f04be00000006006000b800faff3700d0
:1011c0008100d1000080d3000402e800eeff370068
:1011d0000401780089017400790207008a80700098
:1011e000f1ff3700a2030700070278000001fd00ad
:1011f0008101fd009e0307008702780085037200cd
:101200000778a300040032000001fd008101fd0009
:101210002f020700e4ff3700850362000768a30080
:10122000080032000b50e10003003200f0ff2f00f5
:10123000f1ff2700dcff37000001fd008101fd0008
:10124000d9ff37000468a300d7ff3200faff370048
:10125000f8ff2700888360000b003a000000e000e0
:1012600009003a00830364008283730002003200a5
:101270000200be00ccff37000b50e100ceff3a0069
:101280000200be00c8ff3700140020008100640087
:101290003eff3700f8ff27008883610004003a0012
:1012a0000200e00002003a008c007800beff370028
:1012b000150020008301640039ff370001f8270082
:1012c0000000200081007500b7ff3700038368002d
:1012d0000700280007036300470ade000480a1001e
:1012e000c71ade000580a100f70f20000720e100eb
:1012f000420032000728e10040003200889fbe0013
:101300008a9fbe008c1f7800f107b200f307b2007d
:101310000400e000640032000170a0000500e0005d
:10132000680032000370a00085054200eb07b100a1
:101330000204b8000302b8008484440060854a00b7
:10134000020ab800848444000a854a00030ab800ef
:1013500004054500040033000804d0008984d2004d
:101360000a85d2008b05e9006158e1003d00350097
:10137000021020000901610003082000898161003a
:10138000f70720008783640008867300c84cde00de
:10139000c853dd00878474004855de000300e00078
:1013a0000600320082037600040032008904e8005f
:1013b00060054d000a88a3000c003a00f70f2000da
:1013c0000758e10044003d000a70a100c75ddd0040
:1013d0000a8575008a007300090078004f067800be
:1013e0004f05be004f04be00000006000a05d100f4
:1013f0008984d3008b05e800f0ff3700881f780050
:10140000060478001a030700070278000001fd00b7
:101410008101fd0016030700870278008503720032
:101420000778a300050032000001fd008101fd00e6
:10143000a70107004f047800000006008503720032
:101440000748a30003003200f0ff2f00f1ff270040
:10145000f8ff37000000200001f8270088807000a6
:10146000f4ff3700880178004848dd008081710072
:101470004848de00c850dd0001007000c850de00a2
:10148000060478000b017800cd0107008880700009
:10149000d2ff37000500e0000500320017002000f1
:1014a0007d0007009dff370081037000f9ff3a00bf
:1014b000860078004f0678004f05be004f04be003e
:1014c0000000050083037100f9ff320027002000af
:1014d0007100070094ff370001f827008680700034
:1014e000f4ff370002025000838258006100390087
:1014f00003037100620032000503720059003200dc
:101500000300e0005500330017003a000100e0003e
:101510004b0032000208e100060031001100090012
:101520004288d800010178008001eb008000eb00c8
:10153000000006006110e100550032000002be000c
:10154000110009008280d800800278000400780031
:10155000110009004288d800010178008001eb00e9
:101560008500780000000600889fbe008a9fbe00ac
:101570008c9fbe000386cf000c06e9008c1f78000c
:101580008c19dd00f00216000512de008481710066
:101590000c11dd000003be008004eb00053cde0002
:1015a0008c3bdd000532de00848373000c33dd00ec
:1015b0000700780088007800110009004388d800ef
:1015c0000202b8000306b8008c82420060854e001b
:1015d0008005eb000402530085825b000a055c0075
:1015e0008b855c000b0033008000eb004f06780019
:1015f0000c21de00700516000a2ddd000a017100c5
:101600008c29de004f06be004f05be004f04be0011
:10161000000006000202420083824a0060054d007d
:10162000e0854d000000e9000b00e000eeff3d000a
:101630000202420083824a000000e900eaff37000c
:101640000000e00012003200110009000280d80002
:10165000010178008000eb00000006000401be00dc
:10166000010037006011b800100020008000eb007e
:10167000000006000001be006000b8000000060087
:101680000001be00f0ff2f00f1ff2f000000060058
:101690006011b80000000600889fbe000004eb0047
:1016a0006138e10016003a000100e00008003a004d
:1016b000c800de004800dd00880020000100e000d6
:1016c00003003a00c800de004800dd006804440062
:1016d0008184cf00e9845400060034008908dd00cd
:1016e000f08314008703de00878070000900dd00ae
:1016f00009044400610214004f04be00000006000b
:101700000300e00008003a00c811de004811dd00c7
:10171000880020000300e00003003a00c811de004a
:101720004811dd00680444008384cf00e98454003c
:10173000060034008919dd00f08314008713de00f1
:10174000878171000911dd0009044400e1021400e1
:10175000e9ff3700889fbe008a9fbe008c9fbe00b5
:101760001b0020000202be0005866800060028005b
:10177000060666004709de00f20fb2008200320062
:101780000243e80080003200c729de00f30fb200f8
:101790007d0032000343e8007b003200f107b20015
:1017a0000170a000f507b2000570a000c708dd00b9
:1017b0004903de00868070004700dd00c72add0097
:1017c0004923de00868272004722dd0003055100b6
:1017d00004035000858358000300310000004000de
:1017e000818048000a05e9008c1f78008a9fbe00ae
:1017f00004005000858058000402420085824a009f
:1018000000004000818048000005eb000004be009d
:101810006033b8000406be000d48e10056003100f8
:10182000110009004dccd8000c01b8000d02b80021
:101830008481410060824a008283530003045c007b
:1018400084845c0060055d000a00e00025003a0029
:10185000800578000d40e1004900310088007800e3
:1018600007007800110009004d88d8000c01b8006d
:101870000d02b8008481410060824a0060031100bb
:1018800083835b0004045c00e0845c000900e000ea
:1018900021003a004f01be000300e0002b0032009f
:1018a000e3016000070673008c81710001003200c3
:1018b000640070004200de004e5edd000c0070002f
:1018c000c258de0001e0a000e7000700cf01780069
:1018d000818071004f06be004f05be004f04be0060
:1018e000000006008c8343000d044c00e0844c0093
:1018f00060054d000000e9000a00e000d4ff32005e
:101900008c8343000d044c00e0844c0060054d00c6
:101910000000e900ceff37000c0343008d834b002d
:1019200060044c00e0844c000000e9000900e00085
:10193000d8ff32000c0343008d834b0060044c0041
:10194000e0844c000000e900d2ff37004200de00d6
:101950004e5edd000c007000c258de0001e0a00009
:10196000cf0178000300e000daff320060001000d1
:10197000e0801800d7ff3700f0ff2f00aaff3700e4
:10198000f0ff2f00b9ff37000404be00b8010700c4
:10199000870678000004fd008104fd00b401070003
:1019a000078366000678a300030032000960a700e1
:1019b0000800be002c0037000d78a30002003200a2
:1019c0000800be00280037000778a30026003a0070
:1019d00001f0a10009f0a1000668a3000300320095
:1019e000f1ff2700f0ff2f00baff37000d68a300ba
:1019f000030032000800be008c807000b5ff370085
:101a00000768a30007003a000648a300030032005d
:101a1000f1ff2700f0ff2f00aeff37000d48a300b5
:101a2000030032006000b8008c807000a9ff37000e
:101a30000748a3000400320001f82700000020003e
:101a40008c807000a3ff37002a0007000004fd000f
:101a50008104fd0002057800260007000802be0090
:101a60008a01780059ff37000160a00012022000af
:101a70005259880097ff37000100e0001200320041
:101a80000500e00010003200889fbe008a9fbe0063
:101a90008c9fbe000006eb0001f8a300030032009b
:101aa00060001000e08018000cf0a00005f8a30012
:101ab0000300320060021200e0821a000cf0a20063
:101ac0008005eb0041ff37006000b8000200050010
:101ad0000478a300040032000578a300030032005c
:101ae0000168a30001003a000200be000160a000ee
:101af000000006004f0ade004709de00f107b200d1
:101b0000f20fb2000b003200f207b1000170a0002a
:101b1000c708dd00c901de00838070004700dd00da
:101b20000400a6000000060060001000e08018001d
:101b300000000600810f700001003a00000006005e
:101b40008182cf000500e00010003e008082cf00bf
:101b5000ee8242007028e1000400390007003e00d8
:101b6000800078000000eb000e0037007083120048
:101b70008600de000500dd000a0037007083520099
:101b80008600dd000000eb0006003700e282520014
:101b90008508dd00708312000603de008680700079
:101ba0000500dd007507b0000501ea000400a6008d
:101bb0000000060060001000e08018000000060031
:101bc0000100e00026003200610111007810e10000
:101bd00023003c006022b8007010e10004003500d2
:101be00080027800010078008000eb007001510055
:101bf0000200e0000900340070031100062add0035
:101c0000822ade008603dd00878272000200de0089
:101c1000860bdd00070070008208de008481710001
:101c2000f4ff270004826200848171000400280010
:101c3000848262006102600005f0a60000000600d8
:101c400004827100070032000000e800e0804800d4
:101c5000000006000002be006000b800efff370081
:101c60006000b8000000060081017000270032000b
:101c70008002eb0001f8a3000300320060001000b6
:101c8000e080180015002000f40720000202420046
:101c900020003400f70320008703600006042000c2
:101ca0000003630002082000000161004700de001d
:101cb000c909dd0000807100c708de000600e000f1
:101cc0000800320087037100060032001000b000e7
:101cd0000180b0000188a30002003200c108de00cc
:101ce0000402e800f107b200f30f20000320e10036
:101cf00003003d004722dd0081007200290037000b
:101d000001f827000000eb00260037006000b80053
:101d100000000600680212007f20e100020034008b
:101d20006000b8001f0037006011b8007020e100ab
:101d30000400350080017800010078008000eb008d
:101d4000700252000400e00009003400f0031200a9
:101d50000719dd008419de000703dd0086817100ac
:101d60000400de00070bdd00060070008408de00c2
:101d7000f7ff2700838363008703710006002800b4
:101d800003036300070032000700e00003003a008d
:101d90006101600002817300020032001000b00097
:101da0000180b0000500a6000000060001f0a000c0
:101db00000000600889fbe008a9fbe000003be0090
:101dc0003ffc070085057800828152000200200058
:101dd0006220e10004003a00f307b100040035007e
:101de0007718e100040035000600be00140037003b
:101df0006000b8000f003700f50f2000faff2f0039
:101e00008502d1000a85d3008301e900fcff3b0075
:101e10008184620000046500890f7400f2ff3200c3
:101e20008582ea000a85ea00818462000004650078
:101e30006100070007f0a70001f0a0000081eb009f
:101e40000200e0004f05be004f04be000000060087
:101e5000889fbe008a9fbe00841f78007c00070018
:101e60004f00780011003300f0ff2f00838f6c00cb
:101e700006003b00040565000a00a70008003700c3
:101e800009f0a6001000200008003700820f54005f
:101e9000838f5c00030039001000200001003e0029
:101ea0000000200009f0a7000000ea004f05be0076
:101eb0004f04be000000e00000000600881f78000c
:101ec000030478000300e00007003d0060001000fc
:101ed000e080180060011900e081190002003b0059
:101ee00001f02d00030037000400070008f0a700f0
:101ef00001f0a0004f04780000000600889fbe009b
:101f00008a9fbe000082700004027100048271008a
:101f1000260032000004be000200be006011b800be
:101f20006b092000950220000182cf000a003900d1
:101f30000541b1000082cf00070039000541b10022
:101f40000982cf00040039000541b1000882cf00aa
:101f5000010039000541b100054252001200320073
:101f60000a003b0082817100610164008100d100a0
:101f70000080d3008984d3000884d3008b05e80057
:101f80000442e800f7ff3a00070037000804440065
:101f900089844c0000004800818048008b05e900de
:101fa0000442e900f9ff3a00030007004f05be00b4
:101fb0004f04be0000000600810020006180550033
:101fc0000b003d000b00200061fe2f000100e1002e
:101fd0001d00340082817100610164008904d10018
:101fe0000884d3000000e800faff3a0071002000e6
:101ff000610064000300700002006000090032000c
:1020000061044400e0844c000988a500050032000a
:102010008b05e8006808e10002003a008904d1005d
:102020000884d300f20f20000258e10005003d00b3
:10203000c75ddd00f907b2008980750008007800ef
:10204000000006000bf827008b0078000000050058
:102050000004be009afb07000003be000405be009a
:102060000200be0096fb0700844f750000000600ca
:102070002700200001f0a70017002000470bde001a
:10208000f60fb200040032000643e8000a003200f6
:102090004702b3000000060001037800f607b20013
:1020a0000603700002003a000703b30000000600b8
:1020b0008702b3000000060001037800f607b200b3
:1020c00006037000020032000770a0000000060046
:0820d0000760a00000000600fb
:020000040000fa
:0200000401f009
:04000c0078ff000079
:020000040000fa
:0200000401f009
:040010005eff00008f
:020000040000fa
:0200000401f009
:040014007fff00006a
:020000040000fa
:0200000401f009
:04001800eeff0000f7
:020000040000fa
:0200000401f009
:04001c00dfff000002
:020000040000fa
:1000080004070000040700000407000004070000bc
:1000180004070000040700000407000004070000ac
:100028000407000004070000040700004a06000057
:10003800040700000407000004070000040700008c
:1000480098020000040700000407000004070000ed
:10005800ae060000040700000407000004070000c3
:10006800040700000407000004070000c80200009d
:10007800040700000407000004070000040700004c
:10008800040700000407000004070000040700003c
:10009800040700000407000004070000040700002c
:1000a800040700000407000004070000040700001c
:1000b800040700000407000004070000040700000c
:1000c80004070000040700000407000004070000fc
:1000d80004070000040700000407000004070000ec
:1000e80004070000040700000407000004070000dc
:1000f80004070000040700000407000004070000cc
:1001080004070000040700000407000004070000bb
:10011800040700000407000084060000040700002c
:10012800040700000407000004070000040700009b
:10013800040700000407000004070000040700008b
:10014800040700000407000004070000040700007b
:10015800040700000407000004070000040700006b
:10016800040700000407000004070000040700005b
:10017800040700000407000004070000040700004b
:10018800040700000407000004070000040700003b
:10019800040700000407000004070000040700002b
:1001a800040700000407000004070000040700001b
:1001b800040700000407000004070000040700000b
:1001c80004070000040700000407000004070000fb
:1001d80004070000040700000407000004070000eb
:1001e80004070000040700000407000004070000db
:0801f8000407000004070000e9
:020000040000fa
:1002080004070000040700000407000004070000ba
:1002180004070000040700000407000004070000aa
:100228000407000004070000040700004a06000055
:10023800040700000407000004070000040700008a
:1002480098020000040700000407000004070000eb
:10025800ae060000040700000407000004070000c1
:10026800040700000407000004070000c80200009b
:10027800040700000407000004070000040700004a
:10028800040700000407000004070000040700003a
:10029800040700000407000004070000040700002a
:1002a800040700000407000004070000040700001a
:1002b800040700000407000004070000040700000a
:1002c80004070000040700000407000004070000fa
:1002d80004070000040700000407000004070000ea
:1002e80004070000040700000407000004070000da
:1002f80004070000040700000407000004070000ca
:1003080004070000040700000407000004070000b9
:10031800040700000407000084060000040700002a
:100328000407000004070000040700000407000099
:100338000407000004070000040700000407000089
:100348000407000004070000040700000407000079
:100358000407000004070000040700000407000069
:100368000407000004070000040700000407000059
:100378000407000004070000040700000407000049
:100388000407000004070000040700000407000039
:100398000407000004070000040700000407000029
:1003a8000407000004070000040700000407000019
:1003b8000407000004070000040700000407000009
:1003c80004070000040700000407000004070000f9
:1003d80004070000040700000407000004070000e9
:1003e80004070000040700000407000004070000d9
:0803f8000407000004070000e7
:020000040000fa
:1020d800ca080000320000000000000032000000c2
:1020e8000000000032000000000000003200000084
:1020f8000000000032000000000000003200000074
:102108000000000032000000000000003200000063
:102118000000000032000000000000003200000053
:102128000000000032000000000000003200000043
:102138000000000032000000000000003200000033
:102148000000000032000000000000003200000023
:102158000000000032000000000000003200000013
:102168000000000032000000000000003200000003
:1021780000000000320000000000000032000000f3
:1021880000000000320000000000000032000000e3
:1021980000000000320000000000000032000000d3
:1021a80000000000320000000000000032000000c3
:1021b80000000000320000000000000032000000b3
:1021c80000000000320000000000000032000000a3
:1021d8000000000032000000000000003200000093
:1021e8000000000032000000000000003200000083
:1021f8000000000032000000000000003200000073
:102208000000000032000000000000003200000062
:102218000000000032000000000000003200000052
:102228000000000032000000000000003200000042
:102238000000000032000000000000003200000032
:102248000000000032000000000000003200000022
:102258000000000032000000000000003200000012
:102268000000000032000000000000003200000002
:1022780000000000320000000000000032000000f2
:1022880000000000320000000000000032000000e2
:1022980000000000320000000000000032000000d2
:1022a80000000000320000000000000032000000c2
:1022b80000000000320000000000000032000000b2
:1022c80000000000320000000000000032000000a2
:1022d8000000000032000000000000003200000092
:1022e8000000000032000000000000003200000082
:1022f8000000000032000000000000003200000072
:102308000000000032000000000000003200000061
:102318000000000032000000000000003200000051
:102328000000000032000000000000003200000041
:102338000000000032000000000000003200000031
:102348000000000032000000000000003200000021
:102358000000000032000000000000003200000011
:102368000000000032000000000000003200000001
:1023780000000000320000000000000032000000f1
:1023880000000000320000000000000032000000e1
:1023980000000000320000000000000032000000d1
:1023a80000000000320000000000000032000000c1
:1023b80000000000320000000000000032000000b1
:1023c80000000000320000000000000032000000a1
:1023d8000000000032000000000000003200000091
:1023e8000000000032000000000000003200000081
:1023f8000000000032000000000000003200000071
:102408000000000032000000000000003200000060
:102418000000000032000000000000003200000050
:102428000000000032000000000000003200000040
:102438000000000032000000000000003200000030
:102448000000000032000000000000003200000020
:102458000000000032000000000000003200000010
:102468000000000032000000000000003200000000
:1024780000000000320000000000000032000000f0
:1024880000000000320000000000000032000000e0
:1024980000000000320000000000000032000000d0
:1024a80000000000320000000000000032000000c0
:1024b80000000000320000000000000032000000b0
:1024c80000000000320000000000000032000000a0
:1024d8000000000032000000000000003200000090
:1024e8000000000032000000000000003200000080
:1024f8000000000032000000000000003200000070
:10250800000000003200000000000000320000005f
:10251800000000003200000000000000320000004f
:10252800000000003200000000000000320000003f
:10253800000000003200000000000000320000002f
:10254800000000003200000000000000320000001f
:10255800000000003200000000000000320000000f
:1025680000000000320000000000000032000000ff
:1025780000000000320000000000000032000000ef
:1025880000000000320000000000000032000000df
:1025980000000000320000000000000032000000cf
:1025a80000000000320000000000000032000000bf
:1025b80000000000320000000000000032000000af
:1025c800000000003200000000000000320000009f
:1025d800000000003200000000000000320000008f
:1025e800000000003200000000000000320000007f
:1025f800000000003200000000000000320000006f
:10260800000000003200000000000000320000005e
:10261800000000003200000000000000320000004e
:10262800000000003200000000000000320000003e
:10263800000000003200000000000000320000002e
:10264800000000003200000000000000320000001e
:10265800000000003200000000000000320000000e
:1026680000000000320000000000000032000000fe
:1026780000000000320000000000000032000000ee
:1026880000000000320000000000000032000000de
:1026980000000000320000000000000032000000ce
:1026a80000000000320000000000000032000000be
:1026b80000000000320000000000000032000000ae
:1026c800000000003200000000000000320000009e
:1026d800000000003200000000000000320000008e
:1026e800000000003200000000000000320000007e
:1026f800000000003200000000000000320000006e
:10270800000000003200000000000000320000005d
:10271800000000003200000000000000320000004d
:10272800000000003200000000000000320000003d
:10273800000000003200000000000000320000002d
:10274800000000003200000000000000320000001d
:10275800000000003200000000000000320000000d
:1027680000000000320000000000000032000000fd
:1027780000000000320000000000000032000000ed
:1027880000000000320000000000000032000000dd
:1027980000000000320000000000000032000000cd
:1027a80000000000320000000000000032000000bd
:1027b80000000000320000000000000032000000ad
:1027c800000000003200000000000000320000009d
:1027d800000000003200000000000000320000008d
:1027e800000000003200000000000000320000007d
:1027f800000000003200000000000000320000006d
:10280800000000003200000000000000320000005c
:10281800000000003200000000000000320000004c
:10282800000000003200000000000000320000003c
:10283800000000003200000000000000320000002c
:10284800000000003200000000000000320000001c
:10285800000000003200000000000000320000000c
:1028680000000000320000000000000032000000fc
:1028780000000000320000000000000032000000ec
:1028880000000000320000000000000032000000dc
:1028980000000000320000000000000032000000cc
:1028a80000000000320000000000000032000000bc
:1028b80000000000320000000000000032000000ac
:1028c800000000003200000000000000320000009c
:1028d800000000003200000000000000320000008c
:1028e800000000003200000000000000320000007c
:1028f800000000003200000000000000320000006c
:10290800000000003200000000000000320000005b
:10291800000000003200000000000000320000004b
:10292800000000003200000000000000320000003b
:10293800000000003200000000000000320000002b
:10294800000000003200000000000000320000001b
:10295800000000003200000000000000320000000b
:1029680000000000320000000000000032000000fb
:1029780000000000320000000000000032000000eb
:1029880000000000320000000000000032000000db
:1029980000000000320000000000000032000000cb
:1029a80000000000320000000000000032000000bb
:1029b80000000000320000000000000032000000ab
:1029c800000000003200000000000000320000009b
:1029d800000000003200000000000000320000008b
:1029e800000000003200000000000000320000007b
:1029f800000000003200000000000000320000006b
:102a0800000000003200000000000000320000005a
:102a1800000000003200000000000000320000004a
:102a2800000000003200000000000000320000003a
:102a3800000000003200000000000000320000002a
:102a4800000000003200000000000000320000001a
:102a5800000000003200000000000000320000000a
:102a680000000000320000000000000032000000fa
:102a780000000000320000000000000032000000ea
:102a880000000000320000000000000032000000da
:102a980000000000320000000000000032000000ca
:102aa80000000000320000000000000032000000ba
:102ab80000000000320000000000000032000000aa
:102ac800000000003200000000000000320000009a
:102ad800000000003200000000000000320000008a
:102ae800000000003200000000000000320000007a
:102af800000000003200000000000000320000006a
:102b08000000000032000000000000003200000059
:102b18000000000032000000000000003200000049
:102b28000000000032000000000000003200000039
:102b38000000000032000000000000003200000029
:102b48000000000032000000000000003200000019
:102b58000000000032000000000000003200000009
:102b680000000000320000000000000032000000f9
:102b780000000000320000000000000032000000e9
:102b880000000000320000000000000032000000d9
:102b980000000000320000000000000032000000c9
:102ba80000000000320000000000000032000000b9
:102bb80000000000320000000000000032000000a9
:102bc8000000000032000000000000003200000099
:102bd8000000000032000000000000003200000089
:102be8000000000032000000000000003200000079
:102bf8000000000032000000000000003200000069
:102c08000000000032000000000000003200000058
:102c18000000000032000000000000003200000048
:102c28000000000032000000000000003200000038
:102c38000000000032000000000000003200000028
:102c48000000000032000000000000003200000018
:102c58000000000032000000000000003200000008
:102c680000000000320000000000000032000000f8
:102c780000000000320000000000000032000000e8
:102c880000000000320000000000000032020000d6
:102c9800fe00000032040000fc00000032060000c4
:102ca800fa00000032080000f8000000320a0000b4
:102cb800f6000000320c0000f4000000320e0000a4
:102cc800f200000032100000f00000003212000094
:102cd800ee00000032140000ec0000003216000084
:102ce800ea00000032180000e8000000321a000074
:102cf800e6000000321c0000e4000000321e000064
:102d0800e200000032200000e00000003222000053
:102d1800de00000032240000dc0000003226000043
:102d2800da00000032280000d80000003228000035
:102d3800d800000032280000d80000003228000027
:102d4800d800000032280000d80000003228000017
:102d5800d800000032280000d80000003228000007
:102d6800d800000032280000d800000032280000f7
:102d7800d800000032280000d800000032280000e7
:102d8800d800000032280000d800000032280000d7
:102d9800d800000032280000d800000032280000c7
:102da800d800000032280000d800000032280000b7
:102db800d800000032280000d800000032280000a7
:102dc800d800000032280000d80000003228000097
:102dd800d800000032280000d80000003228000087
:102de800d800000032280000d80000003228000077
:102df800d800000032280000d80000003228000067
:102e0800d800000032280000d80000003228000056
:102e1800d800000032280000d80000003228000046
:102e2800d800000032280000d80000003228000036
:102e3800d800000032280000d80000003228000026
:102e4800d800000032280000d80000003228000016
:102e5800d800000032280000d80000003228000006
:102e6800d800000032280000d800000032280000f6
:102e7800d800000032280000d800000032280000e6
:102e8800d800000032280000d800000032280000d6
:102e9800d800000032280000d800000032280000c6
:102ea800d800000032280000d800000032280000b6
:102eb800d800000032280000d800000032280000a6
:102ec800d800000032280000d80000003228000096
:102ed800d800000032280000d80000003228000086
:102ee800d800000032280000d80000003228000076
:102ef800d800000032280000d80000003228000066
:102f0800d800000032280000d80000003228000055
:102f1800d800000032280000d80000003228000045
:102f2800d800000032280000d80000003228000035
:102f3800d800000032280000d80000003228000025
:102f4800d800000032280000d80000003228000015
:102f5800d800000032280000d80000003228000005
:102f6800d800000032280000d800000032280000f5
:102f7800d800000032280000d800000032280000e5
:102f8800d800000032260000da00000032240000d9
:102f9800dc00000032220000de00000032200000c9
:102fa800e0000000321e0000e2000000321c0000b9
:102fb800e4000000321a0000e600000032180000a9
:102fc800e800000032160000ea0000003214000099
:102fd800ec00000032120000ee0000003210000089
:102fe800f0000000320e0000f2000000320c000079
:102ff800f4000000320a0000f60000003208000069
:10300800f800000032060000fa0000003204000058
:10301800fc00000032020000fe0000003200000048
:103028000000000032000000000000003200000034
:103038000000000032000000000000003200000024
:103048000000000032000000000000003200000014
:103058000000000032000000000000003200000004
:1030680000000000320000000000000032000000f4
:1030780000000000320000000000000032000000e4
:1030880000000000320000000000000032000000d4
:1030980000000000320000000000000032000000c4
:1030a80000000000320000000000000032000000b4
:1030b80000000000320000000000000032000000a4
:1030c8000000000032000000000000003200000094
:1030d8000000000032000000000000003200000084
:1030e8000000000032000000000000003200000074
:1030f8000000000032000000000000003200000064
:103108000000000032000000000000003200000053
:103118000000000032000000000000003200000043
:103128000000000032000000000000003200000033
:103138000000000032000000000000003200000023
:103148000000000032000000000000003200000013
:103158000000000032000000000000003200000003
:1031680000000000320000000000000032000000f3
:1031780000000000320000000000000032000000e3
:1031880000000000320000000000000032000000d3
:1031980000000000320000000000000032000000c3
:1031a80000000000320000000000000032000000b3
:1031b80000000000320000000000000032000000a3
:1031c8000000000032000000000000003200000093
:1031d8000000000032000000000000003200000083
:1031e8000000000032000000000000003200000073
:1031f8000000000032000000000000003200000063
:103208000000000032000000000000003200000052
:103218000000000032000000000000003200000042
:103228000000000032000000000000003200000032
:103238000000000032000000000000003200000022
:103248000000000032000000000000003200000012
:103258000000000032000000000000003200000002
:1032680000000000320000000000000032000000f2
:1032780000000000320000000000000032000000e2
:1032880000000000320000000000000032000000d2
:1032980000000000320000000000000032000000c2
:1032a80000000000320000000000000032000000b2
:1032b80000000000320000000000000032000000a2
:1032c8000000000032000000000000003200000092
:1032d8000000000032000000000000003200000082
:1032e8000000000032000000000000003200000072
:1032f8000000000032000000000000003200000062
:103308000000000032000000000000003200000051
:103318000000000032000000000000003200000041
:103328000000000032000000000000003200000031
:103338000000000032000000000000003200000021
:103348000000000032000000000000003200000011
:1033580000000000320000000000000032fe000003
:103368000200000032fc00000400000032fa0000f5
:103378000600000032f800000800000032f60000e5
:103388000a00000032f400000c00000032f20000d5
:103398000e00000032f000001000000032ee0000c5
:1033a8001200000032ec00001400000032ea0000b5
:1033b8001600000032e800001800000032e60000a5
:1033c8001a00000032e400001c00000032e2000095
:1033d8001e00000032e000002000000032de000085
:1033e8002200000032dc00002400000032da000075
:1033f8002600000032d800002800000032d8000063
:103408002800000032d800002800000032d8000050
:103418002800000032d800002800000032d8000040
:103428002800000032d800002800000032d8000030
:103438002800000032d800002800000032d8000020
:103448002800000032d800002800000032d8000010
:103458002800000032d800002800000032d8000000
:103468002800000032d800002800000032d80000f0
:103478002800000032d800002800000032d80000e0
:103488002800000032d800002800000032d80000d0
:103498002800000032d800002800000032d80000c0
:1034a8002800000032d800002800000032d80000b0
:1034b8002800000032d800002800000032d80000a0
:1034c8002800000032d800002800000032d8000090
:1034d8002800000032d800002800000032d8000080
:1034e8002800000032d800002800000032d8000070
:1034f8002800000032d800002800000032d8000060
:103508002800000032d800002800000032d800004f
:103518002800000032d800002800000032d800003f
:103528002800000032d800002800000032d800002f
:103538002800000032d800002800000032d800001f
:103548002800000032d800002800000032d800000f
:103558002800000032d800002800000032d80000ff
:103568002800000032d800002800000032d80000ef
:103578002800000032d800002800000032d80000df
:103588002800000032d800002800000032d80000cf
:103598002800000032d800002800000032d80000bf
:1035a8002800000032d800002800000032d80000af
:1035b8002800000032d800002800000032d800009f
:1035c8002800000032d800002800000032d800008f
:1035d8002800000032d800002800000032d800007f
:1035e8002800000032d800002800000032d800006f
:1035f8002800000032d800002800000032d800005f
:103608002800000032d800002800000032d800004e
:103618002800000032d800002800000032d800003e
:103628002800000032d800002800000032d800002e
:103638002800000032d800002800000032d800001e
:103648002800000032d800002800000032d800000e
:103658002800000032da00002600000032dc0000fa
:103668002400000032de00002200000032e00000ea
:103678002000000032e200001e00000032e40000da
:103688001c00000032e600001a00000032e80000ca
:103698001800000032ea00001600000032ec0000ba
:1036a8001400000032ee00001200000032f00000aa
:1036b8001000000032f200000e00000032f400009a
:1036c8000c00000032f600000a00000032f800008a
:1036d8000800000032fa00000600000032fc00007a
:1036e8000400000032fe000002000000320000006a
:1036f800000000003200000000000000320000005e
:10370800000000003200000000000000320000004d
:10371800000000003200000000000000320000003d
:10372800000000003200000000000000320000002d
:10373800000000003200000000000000320000001d
:10374800000000003200000000000000320000000d
:1037580000000000320000000000000032000000fd
:1037680000000000320000000000000032000000ed
:1037780000000000320000000000000032000000dd
:1037880000000000320000000000000032000000cd
:1037980000000000320000000000000032000000bd
:1037a80000000000320000000000000032000000ad
:1037b800000000003200000000000000320000009d
:1037c800000000003200000000000000320000008d
:1037d800000000003200000000000000320000007d
:1037e800000000003200000000000000320000006d
:1037f800000000003200000000000000320000005d
:10380800000000003200000000000000320000004c
:10381800000000003200000000000000320000003c
:10382800000000003200000000000000320000002c
:10383800000000003200000000000000320000001c
:10384800000000003200000000000000320000000c
:1038580000000000320000000000000032000000fc
:1038680000000000320000000000000032000000ec
:1038780000000000320000000000000032000000dc
:1038880000000000320000000000000032000000cc
:1038980000000000320000000000000032000000bc
:1038a80000000000320000000000000032000000ac
:1038b800000000003200000000000000320000009c
:1038c800000000003200000000000000320000008c
:1038d800000000003200000000000000320000007c
:1038e800000000003200000000000000320000006c
:1038f800000000003200000000000000320000005c
:10390800000000003200000000000000320000004b
:10391800000000003200000000000000320000003b
:10392800000000003200000000000000320000002b
:10393800000000003200000000000000320000001b
:10394800000000003200000000000000320000000b
:1039580000000000320000000000000032000000fb
:1039680000000000320000000000000032000000eb
:1039780000000000320000000000000032000000db
:1039880000000000320000000000000032000000cb
:1039980000000000320000000000000032000000bb
:1039a80000000000320000000000000032000000ab
:1039b800000000003200000000000000320000009b
:1039c800000000003200000000000000320000008b
:1039d800000000003200000000000000320000007b
:1039e800000000003200000000000000320000006b
:1039f800000000003200000000000000320000005b
:103a0800000000003200000000000000320000004a
:103a1800000000003200000000000000320000003a
:103a2800000000003200000000000000320000002a
:103a3800000000003200000000000000320000001a
:103a4800000000003200000000000000320000000a
:103a580000000000320000000000000032000000fa
:103a680000000000320000000000000032000000ea
:103a780000000000320000000000000032000000da
:103a880000000000320000000000000032000000ca
:103a980000000000320000000000000032000000ba
:103aa80000000000320000000000000032000000aa
:103ab800000000003200000000000000320000009a
:103ac800000000003200000000000000320000008a
:103ad800000000003200000000000000320000007a
:103ae800000000003200000000000000320000006a
:103af800000000003200000000000000320000005a
:103b08000000000032000000000000003200000049
:103b18000000000032000000000000003200000039
:103b28000000000032000000000000003200000029
:103b38000000000032000000000000003200000019
:103b48000000000032000000000000003200000009
:103b580000000000320000000000000032000000f9
:103b68000000000032020000fe00000032040000e5
:103b7800fc00000032060000fa00000032080000d5
:103b8800f8000000320a0000f6000000320c0000c5
:103b9800f4000000320e0000f200000032100000b5
:103ba800f000000032120000ee00000032140000a5
:103bb800ec00000032160000ea0000003218000095
:103bc800e8000000321a0000e6000000321c000085
:103bd800e4000000321e0000e20000003220000075
:103be800e000000032220000de0000003224000065
:103bf800dc00000032260000da0000003228000055
:103c0800d8000000322a0000d6000000322c000044
:103c1800d4000000322e0000d20000003230000034
:103c2800d000000032320000ce0000003230000028
:103c3800d0000000322e0000d2000000322c00001c
:103c4800d4000000322a0000d6000000322800000c
:103c5800d800000032260000da00000032240000fc
:103c6800dc00000032220000de00000032200000ec
:103c7800e0000000321e0000e2000000321c0000dc
:103c8800e4000000321a0000e600000032180000cc
:103c9800e800000032160000ea00000032140000bc
:103ca800ec00000032120000ee00000032100000ac
:103cb800f0000000320e0000f2000000320c00009c
:103cc800f4000000320a0000f6000000320800008c
:103cd800f800000032060000fa000000320400007c
:103ce800fc00000032020000fe000000320000006c
:103cf8000000000032fe00000200000032fc00005c
:103d08000400000032fa00000600000032f800004b
:103d18000800000032f600000a00000032f400003b
:103d28000c00000032f200000e00000032f000002b
:103d38001000000032ee00001200000032ec00001b
:103d48001400000032ea00001600000032e800000b
:103d58001800000032e600001a00000032e40000fb
:103d68001c00000032e200001e00000032e00000eb
:103d78002000000032de00002200000032dc0000db
:103d88002400000032da00002600000032d80000cb
:103d98002800000032d600002a00000032d40000bb
:103da8002c00000032d200002e00000032d00000ab
:103db8003000000032ce00003200000032d0000097
:103dc8003000000032d200002e00000032d4000083
:103dd8002c00000032d600002a00000032d8000073
:103de8002800000032da00002600000032dc000063
:103df8002400000032de00002200000032e0000053
:103e08002000000032e200001e00000032e4000042
:103e18001c00000032e600001a00000032e8000032
:103e28001800000032ea00001600000032ec000022
:103e38001400000032ee00001200000032f0000012
:103e48001000000032f200000e00000032f4000002
:103e58000c00000032f600000a00000032f80000f2
:103e68000800000032fa00000600000032fc0000e2
:103e78000400000032fe00000200000032000000d2
:103e88000000000032020000fe00000032040000c2
:103e9800fc00000032060000fa00000032080000b2
:103ea800f8000000320a0000f6000000320c0000a2
:103eb800f4000000320e0000f20000003210000092
:103ec800f000000032120000ee0000003214000082
:103ed800ec00000032160000ea0000003218000072
:103ee800e8000000321a0000e6000000321c000062
:103ef800e4000000321e0000e20000003220000052
:103f0800e000000032220000de0000003224000041
:103f1800dc00000032260000da0000003228000031
:103f2800d8000000322a0000d6000000322c000021
:103f3800d4000000322e0000d20000003230000011
:103f4800d000000032320000ce0000003230000005
:103f5800d0000000322e0000d2000000322c0000f9
:103f6800d4000000322a0000d600000032280000e9
:103f7800d800000032260000da00000032240000d9
:103f8800dc00000032220000de00000032200000c9
:103f9800e0000000321e0000e2000000321c0000b9
:103fa800e4000000321a0000e600000032180000a9
:103fb800e800000032160000ea0000003214000099
:103fc800ec00000032120000ee0000003210000089
:103fd800f0000000320e0000f2000000320c000079
:103fe800f4000000320a0000f60000003208000069
:103ff800f800000032060000fa0000003204000059
:10400800fc00000032020000fe0000003200000048
:104018000000000032fe00000200000032fc000038
:104028000400000032fa00000600000032f8000028
:104038000800000032f600000a00000032f4000018
:104048000c00000032f200000e00000032f0000008
:104058001000000032ee00001200000032ec0000f8
:104068001400000032ea00001600000032e80000e8
:104078001800000032e600001a00000032e40000d8
:104088001c00000032e200001e00000032e00000c8
:104098002000000032de00002200000032dc0000b8
:1040a8002400000032da00002600000032d80000a8
:1040b8002800000032d600002a00000032d4000098
:1040c8002c00000032d200002e00000032d0000088
:1040d8003000000032ce00003200000032d0000074
:1040e8003000000032d200002e00000032d4000060
:1040f8002c00000032d600002a00000032d8000050
:104108002800000032da00002600000032dc00003f
:104118002400000032de00002200000032e000002f
:104128002000000032e200001e00000032e400001f
:104138001c00000032e600001a00000032e800000f
:104148001800000032ea00001600000032ec0000ff
:104158001400000032ee00001200000032f00000ef
:104168001000000032f200000e00000032f40000df
:104178000c00000032f600000a00000032f80000cf
:104188000800000032fa00000600000032fc0000bf
:104198000400000032fe00000200000032000000af
:1041a80000000000320000000000000032000000a3
:1041b8000000000032000000000000003200000093
:1041c8000000000032000000000000003200000083
:1041d8000000000032000000000000003200000073
:1041e8000000000032000000000000003200000063
:1041f8000000000032000000000000003200000053
:104208000000000032000000000000003200000042
:104218000000000032000000000000003200000032
:104228000000000032000000000000003200000022
:104238000000000032000000000000003200000012
:104248000000000032000000000000003200000002
:1042580000000000320000000000000032000000f2
:1042680000000000320000000000000032000000e2
:1042780000000000320000000000000032000000d2
:1042880000000000320000000000000032000000c2
:1042980000000000320000000000000032000000b2
:1042a80000000000320000000000000032000000a2
:1042b8000000000032000000000000003200000092
:1042c8000000000032000000000000003200000082
:1042d8000000000032000000000000003200000072
:1042e8000000000032000000000000003200000062
:1042f8000000000032000000000000003200000052
:104308000000000032000000000000003200000041
:104318000000000032000000000000003200000031
:104328000000000032000000000000003200000021
:104338000000000032000000000000003200000011
:104348000000000032000000000000003200000001
:1043580000000000320000000000000032000000f1
:1043680000000000320000000000000032000000e1
:1043780000000000320000000000000032000000d1
:1043880000000000320000000000000032000000c1
:1043980000000000320000000000000032000000b1
:1043a80000000000320000000000000032000000a1
:1043b8000000000032000000000000003200000091
:1043c8000000000032000000000000003200000081
:1043d8000000000032000000000000003200000071
:1043e8000000000032000000000000003200000061
:1043f8000000000032000000000000003200000051
:104408000000000032000000000000003200000040
:104418000000000032000000000000003200000030
:104428000000000032000000000000003200000020
:104438000000000032000000000000003200000010
:104448000000000032000000000000003200000000
:1044580000000000320000000000000032000000f0
:1044680000000000320000000000000032000000e0
:1044780000000000320000000000000032000000d0
:1044880000000000320000000000000032000000c0
:1044980000000000320000000000000032000000b0
:1044a80000000000320000000000000032000000a0
:1044b8000000000032000000000000003200000090
:1044c8000000000032000000000000003200000080
:1044d8000000000032000000000000003200000070
:1044e8000000000032000000000000003200000060
:1044f8000000000032000000000000003200000050
:10450800000000003200000000000000320000003f
:10451800000000003200000000000000320000002f
:10452800000000003200000000000000320000001f
:10453800000000003200000000000000320000000f
:1045480000000000320000000000000032000000ff
:1045580000000000320000000000000032000000ef
:1045680000000000320000000000000032000000df
:1045780000000000320000000000000032000000cf
:1045880000000000320000000000000032000000bf
:1045980000000000320000000000000032000000af
:1045a800000000003200000000000000320000009f
:1045b800000000003200000000000000320000008f
:1045c800000000003200000000000000320000007f
:1045d800000000003200000000000000320000006f
:1045e800000000003200000000000000320000005f
:1045f800000000003200000000000000320000004f
:10460800000000003200000000000000320000003e
:10461800000000003200000000000000320000002e
:10462800000000003200000000000000320000001e
:10463800000000003200000000000000320000000e
:1046480000000000320000000000000032000000fe
:1046580000000000320000000000000032000000ee
:1046680000000000320000000000000032000000de
:1046780000000000320000000000000032000000ce
:1046880000000000320000000000000032000000be
:1046980000000000320000000000000032000000ae
:1046a800000000003200000000000000320000009e
:1046b800000000003200000000000000320000008e
:1046c800000000003200000000000000320000007e
:1046d800000000003200000000000000320000006e
:1046e800000000003200000000000000320000005e
:1046f800000000003200000000000000320000004e
:10470800000000003200000000000000320000003d
:10471800000000003200000000000000320000002d
:10472800000000003200000000000000320000001d
:10473800000000003200000000000000320000000d
:1047480000000000320000000000000032000000fd
:1047580000000000320000000000000032000000ed
:1047680000000000320000000000000032000000dd
:1047780000000000320000000000000032000000cd
:1047880000000000320000000000000032000000bd
:1047980000000000320000000000000032000000ad
:1047a800000000003200000000000000320000009d
:1047b800000000003200000000000000320000008d
:1047c800000000003200000000000000320000007d
:1047d800000000003200000000000000320000006d
:1047e8000000000032000000000000003228000035
:1047f800d800000032280000d8000000322800004d
:10480800d800000032280000d8000000322800003c
:10481800d800000032280000d8000000322800002c
:10482800d800000032280000d8000000322800001c
:10483800d800000032280000d8000000322800000c
:10484800d800000032280000d800000032280000fc
:10485800d800000032280000d800000032280000ec
:10486800d800000032280000d800000032280000dc
:10487800d800000032280000d800000032280000cc
:10488800d800000032280000d800000032280000bc
:10489800d800000032280000d800000032280000ac
:1048a800d800000032280000d8000000322800009c
:1048b800d800000032280000d8000000322800008c
:1048c800d800000032280000d8000000322800007c
:1048d800d800000032280000d8000000322800006c
:1048e800d800000032280000d8000000322800005c
:1048f800d800000032280000d8000000322800004c
:10490800d800000032280000d8000000322800003b
:10491800d800000032280000d8000000322800002b
:10492800d800000032280000d8000000322800001b
:10493800d800000032280000d8000000322800000b
:10494800d800000032280000d800000032280000fb
:10495800d800000032280000d800000032280000eb
:10496800d800000032280000d800000032280000db
:10497800d800000032280000d800000032280000cb
:10498800d800000032280000d800000032280000bb
:10499800d800000032280000d800000032280000ab
:1049a800d800000032280000d8000000322800009b
:1049b800d800000032280000d8000000322800008b
:1049c800d800000032280000d8000000322800007b
:1049d800d800000032280000d8000000322800006b
:1049e800d800000032280000d8000000322800005b
:1049f800d800000032280000d8000000322800004b
:104a0800d800000032280000d8000000322800003a
:104a1800d800000032280000d8000000322800002a
:104a2800d800000032280000d8000000322800001a
:104a3800d800000032280000d8000000322800000a
:104a4800d800000032280000d800000032280000fa
:104a5800d800000032280000d800000032280000ea
:104a6800d800000032280000d800000032280000da
:104a7800d800000032280000d800000032280000ca
:104a8800d800000032280000d800000032280000ba
:104a9800d800000032280000d800000032280000aa
:104aa800d800000032280000d8000000322800009a
:104ab800d800000032280000d8000000322800008a
:104ac800d800000032280000d8000000322800007a
:104ad800d800000032280000d8000000322800006a
:104ae800d800000032280000d8000000322800005a
:104af800d800000032280000d8000000322800004a
:104b0800d800000032000000000000003200000061
:104b18000000000032000000000000003200000029
:104b28000000000032000000000000003200000019
:104b38000000000032000000000000003200000009
:104b480000000000320000000000000032000000f9
:104b580000000000320000000000000032000000e9
:104b680000000000320000000000000032000000d9
:104b780000000000320000000000000032000000c9
:104b880000000000320000000000000032000000b9
:104b980000000000320000000000000032000000a9
:104ba8000000000032000000000000003200000099
:104bb8000000000032000000000000003200000089
:104bc8000000000032000000000000003200000079
:104bd8000000000032000000000000003200000069
:104be8000000000032000000000000003200000059
:104bf8000000000032000000000000003200000049
:104c08000000000032000000000000003200000038
:104c18000000000032000000000000003200000028
:104c28000000000032000000000000003200000018
:104c38000000000032000000000000003200000008
:104c480000000000320000000000000032000000f8
:104c580000000000320000000000000032000000e8
:104c680000000000320000000000000032000000d8
:104c780000000000320000000000000032000000c8
:104c880000000000320000000000000032000000b8
:104c980000000000320000000000000032000000a8
:104ca8000000000032000000000000003200000098
:104cb8000000000032000000000000003200000088
:104cc8000000000032000000000000003200000078
:104cd8000000000032000000000000003200000068
:104ce8000000000032000000000000003200000058
:104cf8000000000032000000000000003200000048
:104d08000000000032000000000000003200000037
:104d18000000000032000000000000003200000027
:104d28000000000032000000000000003200000017
:104d38000000000032000000000000003200000007
:104d480000000000320000000000000032000000f7
:104d580000000000320000000000000032000000e7
:104d680000000000320000000000000032000000d7
:104d780000000000320000000000000032000000c7
:104d880000000000320000000000000032000000b7
:104d980000000000320000000000000032000000a7
:104da8000000000032000000000000003200000097
:104db8000000000032000000000000003200000087
:104dc8000000000032000000000000003200000077
:104dd8000000000032000000000000003200000067
:104de8000000000032000000000000003200000057
:104df8000000000032000000000000003200000047
:104e08000000000032000000000000003200000036
:104e18000000000032000000000000003200000026
:104e28000000000032d800002800000032d800003e
:104e38002800000032d800002800000032d8000006
:104e48002800000032d800002800000032d80000f6
:104e58002800000032d800002800000032d80000e6
:104e68002800000032d800002800000032d80000d6
:104e78002800000032d800002800000032d80000c6
:104e88002800000032d800002800000032d80000b6
:104e98002800000032d800002800000032d80000a6
:104ea8002800000032d800002800000032d8000096
:104eb8002800000032d800002800000032d8000086
:104ec8002800000032d800002800000032d8000076
:104ed8002800000032d800002800000032d8000066
:104ee8002800000032d800002800000032d8000056
:104ef8002800000032d800002800000032d8000046
:104f08002800000032d800002800000032d8000035
:104f18002800000032d800002800000032d8000025
:104f28002800000032d800002800000032d8000015
:104f38002800000032d800002800000032d8000005
:104f48002800000032d800002800000032d80000f5
:104f58002800000032d800002800000032d80000e5
:104f68002800000032d800002800000032d80000d5
:104f78002800000032d800002800000032d80000c5
:104f88002800000032d800002800000032d80000b5
:104f98002800000032d800002800000032d80000a5
:104fa8002800000032d800002800000032d8000095
:104fb8002800000032d800002800000032d8000085
:104fc8002800000032d800002800000032d8000075
:104fd8002800000032d800002800000032d8000065
:104fe8002800000032d800002800000032d8000055
:104ff8002800000032d800002800000032d8000045
:105008002800000032d800002800000032d8000034
:105018002800000032d800002800000032d8000024
:105028002800000032d800002800000032d8000014
:105038002800000032d800002800000032d8000004
:105048002800000032d800002800000032d80000f4
:105058002800000032d800002800000032d80000e4
:105068002800000032d800002800000032d80000d4
:105078002800000032d800002800000032d80000c4
:105088002800000032d800002800000032d80000b4
:105098002800000032d800002800000032d80000a4
:1050a8002800000032d800002800000032d8000094
:1050b8002800000032d800002800000032d8000084
:1050c8002800000032d800002800000032d8000074
:1050d8002800000032d800002800000032d8000064
:1050e8002800000032d800002800000032d8000054
:1050f8002800000032d800002800000032d8000044
:105108002800000032d800002800000032d8000033
:105118002800000032d800002800000032d8000023
:105128002800000032d800002800000032d8000013
:105138002800000032d800002800000032d8000003
:1051480028000000320000000000000032000000cb
:1051580000000000320000000000000032000000e3
:1051680000000000320000000000000032000000d3
:1051780000000000320000000000000032000000c3
:1051880000000000320000000000000032000000b3
:1051980000000000320000000000000032000000a3
:1051a8000000000032000000000000003200000093
:1051b8000000000032000000000000003200000083
:1051c8000000000032000000000000003200000073
:1051d8000000000032000000000000003200000063
:1051e8000000000032000000000000003200000053
:1051f8000000000032000000000000003200000043
:105208000000000032000000000000003200000032
:105218000000000032000000000000003200000022
:105228000000000032000000000000003200000012
:105238000000000032000000000000003200000002
:1052480000000000320000000000000032000000f2
:1052580000000000320000000000000032000000e2
:1052680000000000320000000000000032000000d2
:1052780000000000320000000000000032000000c2
:1052880000000000320000000000000032000000b2
:1052980000000000320000000000000032000000a2
:1052a8000000000032000000000000003200000092
:1052b8000000000032000000000000003200000082
:1052c8000000000032000000000000003200000072
:1052d8000000000032000000000000003200000062
:1052e8000000000032000000000000003200000052
:1052f8000000000032000000000000003200000042
:105308000000000032000000000000003200000031
:105318000000000032000000000000003200000021
:105328000000000032000000000000003200000011
:105338000000000032000000000000003200000001
:1053480000000000320000000000000032000000f1
:1053580000000000320000000000000032000000e1
:1053680000000000320000000000000032000000d1
:1053780000000000320000000000000032000000c1
:1053880000000000320000000000000032000000b1
:1053980000000000320000000000000032000000a1
:1053a8000000000032000000000000003200000091
:1053b8000000000032000000000000003200000081
:1053c8000000000032000000000000003200000071
:1053d8000000000032000000000000003200000061
:1053e8000000000032000000000000003200000051
:1053f8000000000032000000000000003200000041
:105408000000000032000000000000003200000030
:105418000000000032000000000000003200000020
:105428000000000032000000000000003200000010
:105438000000000032000000000000003200000000
:1054480000000000320000000000000032000000f0
:1054580000000000320000000000000032000000e0
:1054680000000000320000000000000032000000d0
:1054780000000000320000000000000032000000c0
:1054880000000000320000000000000032000000b0
:1054980000000000320000000000000032000000a0
:1054a8000000000032000000000000003200000090
:1054b8000000000032000000000000003200000080
:1054c8000000000032000000000000003200000070
:1054d8000000000032000000000000003200000060
:1054e8000000000032000000000000003200000050
:1054f8000000000032000000000000003200000040
:10550800000000003200000000000000320000002f
:10551800000000003200000000000000320000001f
:10552800000000003200000000000000320000000f
:1055380000000000320000000000000032000000ff
:1055480000000000320000000000000032000000ef
:1055580000000000320000000000000032000000df
:1055680000000000320000000000000032000000cf
:1055780000000000320000000000000032000000bf
:1055880000000000320000000000000032000000af
:10559800000000003200000000000000320000009f
:1055a800000000003200000000000000320000008f
:1055b800000000003200000000000000320000007f
:1055c800000000003200000000000000320000006f
:1055d800000000003200000000000000320000005f
:1055e800000000003200000000000000320000004f
:1055f8000000000032280000d80000003228000017
:10560800d800000032280000d8000000322800002e
:10561800d800000032280000d8000000322800001e
:10562800d800000032280000d8000000322800000e
:10563800d800000032280000d800000032280000fe
:10564800d800000032280000d800000032280000ee
:10565800d800000032280000d800000032280000de
:10566800d800000032280000d800000032280000ce
:10567800d800000032280000d800000032280000be
:10568800d800000032280000d800000032280000ae
:10569800d800000032280000d8000000322800009e
:1056a800d800000032280000d8000000322800008e
:1056b800d800000032280000d800000032000000a6
:1056c800000000003200000000000000320000006e
:1056d800000000003200000000000000320000005e
:1056e800000000003200000000000000320000004e
:1056f800000000003200000000000000320000003e
:10570800000000003200000000000000320000002d
:10571800000000003200000000000000320000001d
:10572800000000003200000000000000320000000d
:1057380000000000320000000000000032000000fd
:1057480000000000320000000000000032000000ed
:1057580000000000320000000000000032000000dd
:1057680000000000320000000000000032000000cd
:1057780000000000320000000000000032000000bd
:105788000000000032d800002800000032d80000d5
:105798002800000032d800002800000032d800009d
:1057a8002800000032d800002800000032d800008d
:1057b8002800000032d800002800000032d800007d
:1057c8002800000032d800002800000032d800006d
:1057d8002800000032d800002800000032d800005d
:1057e8002800000032d800002800000032d800004d
:1057f8002800000032d800002800000032d800003d
:105808002800000032d800002800000032d800002c
:105818002800000032d800002800000032d800001c
:105828002800000032d800002800000032d800000c
:105838002800000032d800002800000032d80000fc
:105848002800000032d800002800000032000000c4
:1058580000000000320000000000000032000000dc
:1058680000000000320000000000000032000000cc
:1058780000000000320000000000000032000000bc
:1058880000000000320000000000000032000000ac
:10589800000000003200000000000000320000009c
:1058a800000000003200000000000000320000008c
:1058b800000000003200000000000000320000007c
:1058c800000000003200000000000000320000006c
:1058d800000000003200000000000000320000005c
:1058e800000000003200000000000000320000004c
:1058f800000000003200000000000000320000003c
:10590800000000003200000000000000320000002b
:10591800000000003200000000000000320000001b
:10592800000000003200000000000000320000000b
:1059380000000000320000000000000032000000fb
:1059480000000000320000000000000032000000eb
:1059580000000000320000000000000032000000db
:1059680000000000320000000000000032000000cb
:1059780000000000320000000000000032000000bb
:1059880000000000320000000000000032000000ab
:10599800000000003200000000000000320000009b
:1059a800000000003200000000000000320000008b
:1059b800000000003200000000000000320000007b
:1059c800000000003200000000000000320000006b
:1059d800000000003200000000000000320000005b
:1059e800000000003200000000000000320000004b
:1059f800000000003200000000000000320000003b
:105a0800000000003200000000000000320000002a
:105a1800000000003200000000000000320000001a
:105a2800000000003200000000000000320000000a
:105a380000000000320000000000000032000000fa
:105a480000000000320000000000000032000000ea
:105a580000000000320000000000000032000000da
