:020000040000fa
:080000000002040000000000f2
:020000040000fa
:10040000afc420000e7f22000e0188000000000013
:1004100000012000200288000c000700a0b7240083
:100420000100200011000700000020000000e00093
:100430000200320000000200000000001a5c02000e
:10044000000000000040da000000fe004440a90067
:10045000200820000000e00003003200000020001f
:10046000a00188004440a800000006009101880017
:10047000800078000000eb0015003700e2804000ab
:1004800032a0b4009101ba00e280400032a0b40072
:100490009102ba00e280400032a0b4000002eb00fa
:1004a000472bde00f507b200602ce10004003a00a3
:1004b0000059eb008301e900fdff3e000400370016
:1004c0006128e100010032000082eb000400070017
:1004d0001101ba000200e000e8ff3a000000060047
:1004e0003159ba008301e9000c0032002159ba00e9
:1004f0008301e900080032000400e00003003a0034
:10050000e280400032a0b400f5ff370011d9ba00f4
:100510008301e900faff3a008100e800e180400031
:1005200032a0b40000000600dc5d04000000000002
:10053000ce020400000000000005040000000000de
:100540003600f800809fbe00829fbe00849fbe00e0
:10055000869fbe000000fa0087a0a900e42c2000be
:10056000040078000426070000027800e00f520023
:1005700003003a000002eb00245e88000602a80097
:100580000080fa004f03be004f02be004f01be00c4
:100590004f00be003600f900004006000200fa00dd
:1005a0008620a90045108000040028000482620013
:1005b000e00f52000f003a00451080000440200078
:1005c00004826200e00f52000a003a0045108000e9
:1005d0000408200004826200e00f520005003a0087
:1005e000451080000404200004826200e00f5200e5
:1005f0000200320043260700a2003700245e80007c
:10060000050020007600200007002000860f520021
:10061000878f5a0098003e000460010007003700f1
:100620000f00370013003700160037001d00370099
:1006300023003700380037003c00370084eb2900e6
:10064000144278008482fb00e40f200004826200e0
:100650001410880014002000245e880088003700f1
:10066000340020001410880024002000245e88003c
:10067000830037000622a80034002000245e880092
:100680007f00370084eb2900144278000404a000a6
:100690000482fb001410880044002000245e8800bf
:1006a0007700370008c2a9000662a8000002eb002c
:1006b000445e880054002000245e880070003700eb
:1006c000465e80000410800004427800a5bd200032
:1006d00085024300844a7800445e80000402e800fa
:1006e000445e8800445e8000e50f520005003e0035
:1006f00006a2a9000682a80064002000245e8800eb
:100700005f00370006a2a8000682a800740020003f
:10071000245e88005a00370008c2a9000662a800bb
:1007200054002000245e880055003700f52507009e
:10073000a4bd20001442780014479800b4bd2000e6
:1007400014427800044f78001e0278000402ea0088
:10075000cfa2de00045f8800155f8800c4bd2000c2
:100760001442780014479800d4bd20001442780049
:10077000044f78001e0278000402ea00cfa2de00d7
:10078000445f8800555f8800e4bd20001442780073
:1007900014479800f4bd200014427800044f7800fc
:1007a0001e027800cfa2de00245f8800355f88003b
:1007b000345e8000e00f52000d003a00045f8000bc
:1007c000155f8000745e8800855e8800245f80006d
:1007d000355f8000945e8800a55e8800445f8000dd
:1007e000555f8000b45e8800c55e88001800370041
:1007f000765e8000875e8000045f8000155f800069
:100800000602420087824a00745e8800855e880086
:10081000965e8000a75e8000245f8000355f8000c8
:100820000602420087824a00945e8800a55e880026
:10083000b65e8000c75e8000445f8000555f800028
:100840000602420087824a00b45e8800c55e8800c6
:10085000545e8000655e800061024200e0824a00d2
:10086000545e8800655e8800345e80000402e80003
:10087000345e880002003700a2250700010037001f
:10088000000000000080fa00000006003600f800ba
:10089000809fbe00829fbe00849fbe00869fbe00d8
:1008a0000200fa008620a900441080007002620055
:1008b000e00f5200270032009620a9000002eb0052
:1008c0008460880094608000044278006142620085
:1008d0000482fb00610262004422dd00b604800055
:1008e000f5fe2f008502630004827200b4048800c4
:1008f000a460800004427800614262000482fb0030
:10090000610262004522dd00a6048000f5fd2f0093
:100910008502630004827200a4048800b460800031
:1009200004427800614262000482fb0061026200be
:1009300004024200a6048000d5ff2f008502630058
:1009400004827200a4048800c4608000d46088001f
:100950000900370084608000040f78001e027800d0
:10096000e00f5200030032001e0278000400010074
:1009700001003700000000000080fa004f03be00b5
:100980004f02be004f01be004f00be003600f9000e
:10099000004006000000fa008600a9000080fa006e
:1009a000004006003600f800809fbe00829fbe0017
:1009b000849fbe00869fbe000000fa008680a900ca
:1009c0000450200004007800eb24070000027800a7
:1009d000e00f520003003a000002eb0024608800a0
:1009e0000602a8000080fa004f03be004f02be00be
:1009f0004f01be004f00be003600f9000040060067
:100a00000200fa008620a90045108000040028009a
:100a100004826200e00f52000f003a00451080008f
:100a20000440200004826200e00f52000a003a00f5
:100a3000451080000408200004826200e00f52008c
:100a400005003a0045108000040420000482620082
:100a5000e00f5200020032002a250700fe00370096
:100a600024608000050020007600200007002000a0
:100a7000860f5200878f5a00f4003e000460010088
:100a8000070037000f00370013003700160037004b
:100a90001d00370023003700380037003c003700c6
:100aa00044e62900144278008482fb00e40f200011
:100ab0000482620014108800140020002460880062
:100ac000e4003700b4032000141088002400200044
:100ad00024608800df0037000622a80034002000d0
:100ae00024608800db00370044e6290014427800c7
:100af0000404a0000482fb001410880044002000bd
:100b000024608800d300370008c2a9000662a8004c
:100b10000002eb004460880054002000246088003c
:100b2000cc0037004660800004108000044278004a
:100b300085b1200085024300844a7800446080002b
:100b40000402e8004460880044608000ed0f520019
:100b500005003e0006a2a9000682a800640020004d
:100b600024608800bb00370006a2a8000682a80007
:100b70007400200024608800b600370008c2a90075
:100b80000662a8005400200024608800b1003700ed
:100b9000dc24070084b12000144278001447980038
:100ba00094b1200014427800044f78001e027800af
:100bb0000402ea00cfa2de00545a8800655a880079
:100bc000a4b120001442780014479800b4b120006a
:100bd00014427800044f78001e0278000402ea00f4
:100be000cfa2de00345a8800455a8800c4b12000e4
:100bf0001442780014479800d4b1200014427800c1
:100c0000044f78001e0278000402ea00cfa2de0042
:100c1000745a8800855a8800e4b120001442780094
:100c200014479800f4b1200014427800044f780073
:100c30001e027800cfa2de00145a8800255a8800d0
:100c400004b22000144278001447980014b2200027
:100c500014427800044f78001e0278000402ea0073
:100c6000cfa2de00b45a8800c55a880024b2200002
:100c7000144278001447980034b2200014427800df
:100c8000044f78001e0278000402ea00cfa2de00c2
:100c9000945a8800a55a880044b220001442780073
:100ca0001447980054b2200014427800044f780092
:100cb0001e0278000402ea00cfa2de00d45a8800a7
:100cc000e55a880094588000a558800061024200cf
:100cd000e0824a0094588800a5588800346080005b
:100ce000e00f52001d003a00345a8000455a80003f
:100cf0005459880065598800545a8000655a80000c
:100d00007459880085598800745a8000855a80007b
:100d100094598800a5598800145a8000255a8000eb
:100d20003459880045598800945a8000a55a80009b
:100d3000b4598800c5598800b45a8000c55a80004b
:100d4000d4598800e5598800d45a8000e55a8000bb
:100d5000f4598800055a8800380037005659800039
:100d600067598000345a8000455a800006024200cc
:100d700087824a0054598800655988007659800056
:100d800087598000545a8000655a8000060242004c
:100d900087824a00745988008559880096598000d6
:100da000a7598000745a8000855a800006024200cc
:100db00087824a0094598800a559880036598000d6
:100dc00047598000145a8000255a800006024200cc
:100dd00087824a003459880045598800b6598000f6
:100de000c7598000945a8000a55a8000060242002c
:100df00087824a00b4598800c5598800d6598000b6
:100e0000e7598000b45a8000c55a800006024200ab
:100e100087824a00d4598800e5598800f659800035
:100e2000075a8000d45a8000e55a8000060242002a
:100e300087824a00f4598800055a8800346080008f
:100e40000402e80034608800020037002d24070007
:100e500001003700000000000080fa0000000600da
:100e6000841f78000000fa0013e1a9008500a900a2
:100e70000002eb00040388000002eb00140388006a
:100e80008660a90014002000f45b88001400200094
:100e9000045c88000002eb00e45b88000002eb00c9
:100ea000145b880061e0a8000002eb005408880091
:100eb00013e1a8000080fa004f027800004006000d
:100ec0003600f800809fbe00829fbe00849fbe0057
:100ed000869fbe001800fa000002eb0004038800a1
:100ee0000002eb00140388008660a900911f070030
:100ef0000002be00048fbe00145b800005002000cd
:100f00005600200007002000860f5200878f5a00ed
:100f100094013e0004600100050037001400370012
:100f200023003700320037004100370050003700ff
:100f3000551680000480200004826200e00f5200f9
:100f40008a013200165b80001e02be00c233dd0043
:100f500046b6200006834300048bbe00145b80006d
:100f60000402e800145b88006200a8008f003700cc
:100f7000551680000440200004826200e00f5200f9
:100f80007c013200165b80001e02be00c233dd0011
:100f900046b6200006834300048bbe00145b80002d
:100fa0000402e800145b88006260a8007f0037003c
:100fb000951680000420200004826200e00f520099
:100fc0006e013200165b80001e02be00c233dd00df
:100fd00046b6200006834300048bbe00145b8000ed
:100fe0000402e800145b88006280a8006f003700ec
:100ff000951680000410200004826200e00f520069
:1010000060013200165b80001e02be00c233dd00ac
:1010100046b6200006834300048bbe00145b8000ac
:101020000402e800145b88006220a8005f0037001b
:10103000951680000408200004826200e00f520030
:1010400052013200165b80001e02be00c233dd007a
:1010500046b6200006834300048bbe00145b80006c
:101060000402e800145b88006220a8004f003700eb
:10107000951680000408200004826200e00f5200f0
:1010800044013a00165b80001e02be00c233dd0040
:1010900046b6200006834300048bbe00145b80002c
:1010a0000402e800145b880000000000c65b8000ba
:1010b000d75b8000a45b8000b55b80000402530016
:1010c00085825b002407980035079800a65b8000a6
:1010d000b75b8000845b8000955b80000403530055
:1010e00085835b0024ea2f00f5ff2f0006024200f3
:1010f00087824a004407980055079800865b800065
:10110000975b8000645b8000755b80000403530084
:1011100085835b0024ea2f00f5ff2f0006024200c2
:1011200087824a006407980075079800665b800014
:10113000775b8000445b8000555b800004035300b4
:1011400085835b0024ea2f00f5ff2f000602420092
:1011500087824a00040f9800150f9800465b8000b4
:10116000575b8000245b8000355b800004035300e4
:1011700085835b0024ea2f00f5ff2f000602420062
:1011800087824a00240f9800350f98002e039000a4
:10119000be039000d4f48400e5f48400840f53006f
:1011a000858f5b00fc00350001003700fe00370032
:1011b0002e039000be03900054f5840065f5840072
:1011c000840f5300858f5b00f3003c004e039000ba
:1011d000de039000d4f48400e5f48400840f53000f
:1011e000858f5b00ec0035004e039000de0390001d
:1011f00054f5840065f58400840f5300858f5b00ef
:10120000e5003c006e039000fe039000d4f48400df
:10121000e5f48400840f5300858f5b00de00350009
:101220006e039000fe03900054f5840065f5840081
:10123000840f5300858f5b00d7003c000e0b90009d
:101240009e0b9000d4f48400e5f48400840f5300d6
:10125000858f5b00d00035000e0b90009e0b900038
:1012600054f5840065f58400840f5300858f5b007e
:10127000c9003c002e0b9000be0b9000d4f48400fb
:10128000e5f48400840f5300858f5b00c2003500b5
:101290002e0b9000be0b900054f5840065f5840081
:1012a000840f5300858f5b00bb003c002e03900031
:1012b000be039000f4f4840005f58400840f53000d
:1012c000858f5b0005003d00f4f4840005f5840083
:1012d00024079800350798000b0037002e03900074
:1012e000be03900034f5840045f58400840f53005c
:1012f000858f5b000400340034f5840045f58400dc
:1013000024079800350798004e039000de039000f4
:10131000f4f4840005f58400840f5300858f5b008e
:1013200005003d00f4f4840005f5840044079800ae
:10133000550798000b0037004e039000de03900025
:1013400034f5840045f58400840f5300858f5b00dd
:101350000400340034f5840045f584004407980007
:10136000550798006e039000fe039000f4f484008b
:1013700005f58400840f5300858f5b0005003d0058
:10138000f4f4840005f5840064079800750798005c
:101390000b0037006e039000fe03900034f58400cc
:1013a00045f58400840f5300858f5b0004003400f2
:1013b00034f5840045f584006407980075079800ab
:1013c0000e0b90009e0b9000f4f4840005f5840051
:1013d000840f5300858f5b0005003d00f4f484000a
:1013e00005f58400040f9800150f98000b003700d6
:1013f0000e0b90009e0b900034f5840045f58400a0
:10140000840f5300858f5b000400340034f58400a2
:1014100045f58400040f9800150f98002e0b9000de
:10142000be0b9000f4f4840005f58400840f530093
:10143000858f5b0005003d00f4f4840005f5840011
:10144000240f9800350f98000b0037002e0b9000ea
:10145000be0b900034f5840045f58400840f5300e2
:10146000858f5b000400340034f5840045f584006a
:10147000240f9800350f98002e0b9000be0b9000a3
:10148000f4f4840005f584000402530085825b00b7
:10149000945c8800a55c88000e0b90009e0b900069
:1014a00014f5840025f584000402530085825b0056
:1014b000745c8800855c88006e039000fe039000d9
:1014c00014f5840025f584000402530085825b0036
:1014d000545c8800655c88004e039000de03900039
:1014e00014f5840025f584000402530085825b0016
:1014f000345c8800455c88002e039000be03900099
:1015000014f5840025f58400840f5300858f5b005b
:1015100004003d006022b800145c8800255c88004f
:10152000040037001400200005002000145c88002f
:10153000255c880014002000f45b88000002eb00aa
:10154000045c880014002000e45b880013e1a9001b
:101550008500a9000002eb005408880013e1a800f0
:101560000d003700000000000b00370000000000f5
:1015700009003700000000000700370000000000ed
:1015800005003700000000000300370000000000e5
:1015900001003700000000000002eb00145b88002f
:1015a00061e0a800000000000080fa004f03be00c8
:1015b0004f02be004f01be004f00be003600f900d2
:1015c00000400600849fbe00869fbe000000fa0017
:1015d0008460a900046180001561800061024200fe
:1015e000e0824a000461880015618800066180007d
:1015f000176180002461800035618000840f5300f2
:10160000858f5b00080036000082eb008082eb00d3
:10161000246188003561880044618000e00f520039
:10162000010032008bc0a8000080fa004f03be000a
:101630004f02be00004006003600f800809fbe004a
:10164000829fbe00849fbe00869fbe000200fa00fb
:101650008bc0a90044618000040f78001e0278004e
:10166000e00f5200020032001e0278000400010068
:101670000080fa004f03be004f02be004f01be00c3
:101680004f00be003600f90000400600849fbe00f7
:101690000000fa0004628000e00f520016003200e1
:1016a0000c00370015628000049020000482420084
:1016b000144278000482fb00241188001462800028
:1016c0000402e80014628800046280000402e90059
:1016d0000462880004628000e00f520012003200b1
:1016e000151180000420200004826200e00f5200e7
:1016f000ecff32000c00370054ee29001442780051
:101700000482fb00241188000000000054ee290030
:10171000144278000482fb00241188009580a900ff
:1017200014002000f46188008580a9000080fa0080
:101730004f02be00004006000040da000000fe003c
:10174000889fbe008a9fbe008c1f78005c00070047
:101750001002200002003b00406288006000370059
:101760008a0062006408e10002003a0040628800da
:10177000680037006108e100fcff32000800be008d
:1017800003047800f403070001f0a1008e020700b3
:1017900008f0a600040037000001be0091042400f8
:1017a000b0fd20005e00070009f0a70001f0a200d4
:1017b000540037001400200017073700f4ff2f00f3
:1017c000150737000001be00280007000470a700bd
:1017d00003f0a10003f8a30013003a006509b1006b
:1017e00010003200090035006928e10002003500d0
:1017f0000100280000000500000040008180480032
:101800008502e900fcff3a0000000600f88f420064
:10181000050035008100d1000080d3008502e8007a
:10182000fcff3a00000006008000eb00000005000d
:101830004f89de0082017800120737006011b8007e
:10184000200737000001eb00cc060700040032003f
:101850000200200003f8230001f0a7003000070079
:101860000000060004002000eb063700c70ade0077
:10187000f107b200f50fb20008003200e1cf4200dc
:10188000020032000170a00024000500810f7000ea
:10189000010032000408050044000500810f7000bb
:1018a00002003a00140005008502e9000000400033
:1018b00081c04800fcff3b000170a000240005002f
:1018c0000004be00e9ff07000003be000405be00df
:1018d0000200be00e5ff0700844f7500000006000f
:1018e0000200be006450e100050036006420e10003
:1018f000020036000968a30001003a000800be009b
:101900000160a0004f0678004f05be004f04be00e6
:1019100000000600f0ff2f00f1ff2700f9ff37005d
:1019200007f82700078361000638e10004003a0049
:10193000f7072000878361008703710001003a00e8
:1019400003f0a200889fbe008a9fbe008c9fbe004d
:10195000470ade000480a100c71ade000580a1004e
:10196000070028000785600087856100f70f2000c9
:101970000720e1009e0032000728e1009c003200b1
:10198000010678000400e000b4003200f7072000f0
:10199000878060000170a0000500e000c0003200f8
:1019a000f7072000878161000370a0000506520040
:1019b0000f003a000b50e1000b0032000308e10079
:1019c00002003a000200e1007e00320002045000f2
:1019d00083845800040031000001fd008101fd00f6
:1019e0008402fd008a05fd006044b8002100370034
:1019f0000520e10005003d000001fd008101fd0022
:101a00008402fd008a05fd00050652007a60e100af
:101a1000050035000170a1004722dd0084807000c0
:101a20008a807000630037006044b800ef026600ef
:101a300007ff2f00070666000500e00006003400df
:101a4000f08312008714dd000511de00071bdd00a6
:101a5000060171008519de007060e10005003500a7
:101a60000904780082047800030178008001eb000b
:101a7000700656000b50e10003003a0002004000df
:101a8000838048000400370060041400e0841c00d8
:101a900002005800838058000188a300060032002d
:101aa0008100d1000080d3008984d3000884d30052
:101ab0000402e800270037000178a30025003a005f
:101ac0000100e000030032008186cf0069865600e5
:101ad0000a0037008c0020000000e00004003a00fb
:101ae00009007800880478000004eb0070025200be
:101af0008086cf000d0646000c06e9007060e1000c
:101b0000060035008000780009007800880478001d
:101b10000004eb0070065600700252000c00e0005a
:101b20000c0034008c08dd00f00316000703de0013
:101b3000868070000c00dd00074bde0006007000a0
:101b40008c4cdd000743de00868474000c44dd000d
:101b50000c0252006120e1002000350061016000ac
:101b60000700280087816400f7ff2700878364004f
:101b7000070374000300e0000600320082037300d4
:101b8000040032000000e800e08048000188a30063
:101b90000e003a00f70f20000720e1004a003d0048
:101ba0000170a1004722dd00810072008a80700070
:101bb0000000be004f06be004f05be004f04be0031
:101bc000000006006000b800faff37008100d10075
:101bd0000080d3000402e800eeff37000401780023
:101be00089017400600407008a807000f1ff3700eb
:101bf000ae060700070278000001fd008101fd002c
:101c0000aa06070087027800850372000778a30000
:101c1000040032000001fd008101fd00ad0307005a
:101c2000e4ff3700850362000768a3000800320064
:101c30000b50e10003003200f0ff2f00f1ff2700fe
:101c4000dcff37000001fd008101fd00d9ff3700f6
:101c50000468a300d7ff3200faff3700f8ff27001f
:101c6000888360000b003a000000e00009003a00a1
:101c70008303640082837300020032000200be000e
:101c8000ccff37000b50e100ceff3a000200be004f
:101c9000c8ff370014002000810064003eff3700b9
:101ca000f8ff27008883610004003a000200e0008a
:101cb00002003a008c007800beff370015002000bb
:101cc0008301640039ff370001f82700000020007d
:101cd00081007500b7ff3700038368000700280004
:101ce00007036300470ade000480a100c71ade0074
:101cf0000580a100f70f20000720e100420032001c
:101d00000728e10040003200889fbe008a9fbe0085
:101d10008c1f7800f107b200f307b2000400e00066
:101d2000640032000170a0000500e000680032008d
:101d30000370a00085054200eb07b1000204b80063
:101d40000302b8008484440060854a00020ab80097
:101d5000848444000a854a00030ab800040545004b
:101d6000040033000804d0008984d2000a85d20020
:101d70008b05e9006158e1003d00350002102000ac
:101d8000090161000308200089816100f707200034
:101d90008783640008867300c84cde00c853dd00ea
:101da000878474004855de000300e000060032001e
:101db00082037600040032008904e80060054d00cb
:101dc0000a88a3000c003a00f70f20000758e10032
:101dd00044003d000a70a100c75ddd000a85750062
:101de0008a007300090078004f0678004f05be0096
:101df0004f04be00000006000a05d1008984d3000c
:101e00008b05e800f0ff3700881f78000604780093
:101e100026060700070278000001fd008101fd0091
:101e20002206070087027800850372000778a30066
:101e3000050032000001fd008101fd0025030700bf
:101e40004f04780000000600850372000748a300d5
:101e500003003200f0ff2f00f1ff2700f8ff3700ea
:101e60000000200001f8270088807000f4ff370090
:101e7000880178004848dd00808171004848de0014
:101e8000c850dd0001007000c850de000604780074
:101e90000b017800b403070088807000d2ff370080
:101ea0000500e0000500320017002000fb010700dc
:101eb0009dff370081037000f9ff3a00860078002b
:101ec0004f0678004f05be004f04be00000005001d
:101ed00083037100f9ff320027002000ef010700a3
:101ee00094ff370001f8270086807000f4ff370068
:101ef0008c9fbe003400f80002002000a201880080
:101f0000020028000286600001f0a100020020000b
:101f100003f0230002015000838158000c003100bf
:101f20000200200003982300020150008381580022
:101f300003003900590307008b0007000404070061
:101f4000810076003400f9004f06be000000060054
:101f50008a9fbe00889fbe000200200003f8230075
:101f6000020150008381580019003100340007003d
:101f70006822b800046001000201e90014d52e00b7
:101f800075482600f3ff2f00a6030700000000009d
:101f9000000000002300370054552500555525004a
:101fa000e3ff2f00168e2400573024000800200085
:101fb000190107001b0037000201e80014d52e00ac
:101fc0007548260003002000910307001500370024
:101fd0000200e00006003a000300e00004003a00be
:101fe000b0fd200091fc2300810076000f00370037
:101ff00081007600ad0507000758a30004003a00f1
:102000000778a300020032000160a0000200370040
:10201000f0ff2f00f1ff270012022000426288002b
:1020200002003700ca030700810076004f04be009b
:102030004f05be003400f9004f06be000000060048
:10204000889fbe008a9fbe008c9fbe00723d2b0001
:10205000d3f5230002015000838158000d003100a8
:102060000e0307000002be00820178000600200077
:1020700007002c00f8ff2f00e70007000100e00038
:10208000020032000201e800370007000002eb0006
:1020900031003700e2352800c3f62300020150006a
:1020a0008381580010003100fc020700809fbe00b1
:1020b000821f78000201e8000002be008201780061
:1020c0000600200007002a0018002000d2000700a8
:1020d000cf0178004f02be008702070022000700f0
:1020e000140020001c003700ec0207008201e90008
:1020f0000002be000000200001002400f2ff2f00bb
:1021000046030700809fbe00821f7800e30307009c
:10211000ef0141000300e0000c0035000005be00a7
:10212000820478004f0178004f00be005300200069
:1021300004e529004b0107000a02be00890178006e
:102140006d0207002400200003003700cf01780053
:102150004f02be00240020004f06be004f05be0007
:102160004f04be00000006000100e0001500320030
:10217000ef01410013003500809fbe00821f7800f0
:10218000e401410006003c000002be00820178002c
:10219000590207005300200004e52900050037001c
:1021a0000002be0082017800530207007300200085
:1021b00084e429002b010700cf0178004f02be0004
:1021c0004d02070000000600889fbe008a9fbe00e7
:1021d0008c9fbe003400f80006002000a601880095
:1021e000060028008686600001f0a100060020009d
:1021f00007e02300060350008783580012003100d7
:10220000060020000798230006035000878358002b
:102210005c003900a10207000005be0082047800be
:102220000002be0082017800330207004300200054
:1022300044db2900680507000a02be008901780016
:102240002d0207004e003700060020000710240072
:102250000603500087835800380031000600200034
:1022600007fd230006035000878358000b00310050
:102270008a0207000005be00820478006201410066
:102280002405070000067800ef03070062015100f3
:10229000809fbe00821f7800080037007f02070081
:1022a0000005be00820478001a050700650640009c
:1022b000e5030700809fbe00821f78000a02be006f
:1022c0008901780007002400060020000800200093
:1022d000510007000005fd008105fd008204fd009e
:1022e000cf0178004f02be00cc0207000a02be00f8
:1022f00089017800e10107000104780008f8a300d3
:102300000200320060001000e08018002d0007007d
:1023100008f8a3000200320060001000e0801800fe
:1023200046dc29006665b800060345003602be009b
:1023300096017800bb02070011003700060020005c
:1023400007c824000603500087835800130031009b
:10235000520207000002be00820178000100240042
:102360000000200002002000c40107001500070043
:102370007548260014d52e0003002000a402070093
:10238000f30207008d8070003400f9004f06be0094
:102390004f05be004f04be0000000600c304070046
:1023a0000778a30003003a00b0fd200091fc230051
:1023b000f4ff37000160a00016022000466288008a
:1023c000f0ff37000100e0000d003200ef03410094
:1023d0000b003500809fbe00821f78000002be0007
:1023e00082017800c40107004300200044db29007b
:1023f000f9040700cf0178004f02be00be010700bc
:102400000000060060001000e080180002003700a5
:1024100060031300e0831b00889fbe008a9fbe00fc
:102420008c9fbe00830441000405b800050eb8006f
:102430000501b8008285450003064e00e0864e0087
:102440000409b8008285450003064e00e0864e0070
:102450000100e00002003d000406560085865e0093
:102460000500e00002003d000006560081865e0087
:102470000d00e000740032000700e000750032003b
:102480006022b8008783d1000683d3008582d30001
:10249000090054000000e9001b003c003b0035002f
:1024a0000804e8000a0042008b804a000c014b003f
:1024b0008d814b0072050700040454000300e00006
:1024c0000e003200090028000918e1000600320061
:1024d0000200be00080178004f06be004f05be0096
:1024e0004f04be00000006000200e000f8ff3a00c2
:1024f00003002c000804e800f5ff37006000b80076
:102500000001eb00f4ff37000804e8007e00e10062
:1025100001003400e0012000cfecde00ef0060009d
:102520000100e0000c003200f08110000155de00d7
:102530000359dd0002057500815dde000361dd00e9
:10254000828575000166de000369dd000206760003
:1025500081eede00010050004400de006501b8009d
:10256000026001000a0042008b804a000c014b000f
:102570008d814b00cfff37000b0042008c804a005a
:102580000d014b0089814b00caff37006284440073
:102590000000ea00030420000300e1000100340011
:1025a00000042000cfbcde00ef0060000a00320013
:1025b000f0811000032add00812ade000331dd00f6
:1025c000828272000133de000339dd0002037300f2
:1025d00081bbde00010050004400de006501b80050
:1025e000026001000a0042008b804a000c014b008f
:1025f0008d814b00afff37000a8042008b004b00fb
:102600000c814b008d814c00aaff37000a0043006b
:102610008b804b000c814c008d814c00a5ff370056
:102620000a8043008b804c000c814c008d814c0053
:10263000a0ff37000a8044008b804c000c814c00c6
:102640008d814c009bff37000600be00080178001a
:10265000a1ff37000c01be000a00be0062844400e6
:1026600094ff3700e102410002003500de0407005c
:1026700000000600e2024100020035001c030700d2
:1026800000000600e302410002003500e2030700fb
:10269000000006005004070000000600889fbe00ee
:1026a0000004eb006138e10016003a000100e00090
:1026b00008003a00c800de004800dd008800200065
:1026c0000100e00003003a00c800de004800dd0021
:1026d000680444008184cf00e9845400060034007b
:1026e0008908dd00f08314008703de008780700016
:1026f0000900dd0009044400610214004f04be001b
:10270000000006000300e00008003a00c811de00e7
:102710004811dd00880020000300e00003003a00bb
:10272000c811de004811dd00680444008384cf0036
:10273000e9845400060034008919dd00f083140098
:102740008713de00878171000911dd000904440050
:10275000e1021400e9ff3700889fbe008a9fbe0097
:102760008c9fbe001b0020000202be000586680090
:1027700006002800060666004709de00f20fb200d8
:10278000820032000243e80080003200c729de00e8
:10279000f30fb2007d0032000343e8007b003200fb
:1027a000f107b2000170a000f507b2000570a000ab
:1027b000c708dd004903de00868070004700dd00a9
:1027c000c72add004923de00868272004722dd0031
:1027d00003055100040350008583580003003100b5
:1027e00000004000818048000a05e9008c1f780045
:1027f0008a9fbe00040050008580580004024200f9
:1028000085824a0000004000818048000005eb00fe
:102810000004be006033b8000406be000d48e100ad
:1028200056003100110009004dccd8000c01b80051
:102830000d02b8008481410060824a008283530007
:1028400003045c0084845c0060055d000a00e00015
:1028500025003a00800578000d40e1004900310074
:102860008800780007007800110009004d88d80022
:102870000c01b8000d02b8008481410060824a005a
:102880006003110083835b0004045c00e0845c004f
:102890000900e00021003a004f01be000300e00003
:1028a0002b003200e3016000070673008c81710089
:1028b00001003200640070004200de004e5edd0068
:1028c0000c007000c258de0001e0a000a00107006b
:1028d000cf017800818071004f06be004f05be0019
:1028e0004f04be00000006008c8343000d044c0022
:1028f000e0844c0060054d000000e9000a00e000a3
:10290000d4ff32008c8343000d044c00e0844c0063
:1029100060054d000000e900ceff37000c034300c6
:102920008d834b0060044c00e0844c000000e90003
:102930000900e000d8ff32000c0343008d834b00f8
:1029400060044c00e0844c000000e900d2ff370036
:102950004200de004e5edd000c007000c258de005a
:1029600001e0a000cf0178000300e000daff3200b0
:1029700060001000e0801800d7ff3700f0ff2f0044
:10298000aaff3700f0ff2f00b9ff37000404be0094
:1029900046030700870678000004fd008104fd005f
:1029a00042030700078366000678a3000300320095
:1029b0000960a7000800be002c0037000d78a300b6
:1029c000020032000800be00280037000778a3008c
:1029d00026003a0001f0a10009f0a1000668a3005a
:1029e00003003200f1ff2700f0ff2f00baff37008d
:1029f0000d68a300030032000800be008c80700048
:102a0000b5ff37000768a30007003a000648a30097
:102a100003003200f1ff2700f0ff2f00aeff370068
:102a20000d48a300030032006000b8008c807000e5
:102a3000a9ff37000748a3000400320001f827006f
:102a4000000020008c807000a3ff37009300070077
:102a50000004fd008104fd00020578008f000700de
:102a60000802be008a01780059ff37000160a0000b
:102a7000120220004262880097ff37000100e00048
:102a8000120032000500e00010003200889fbe00f6
:102a90008a9fbe008c9fbe000006eb0001f8a300d9
:102aa0000300320060001000e08018000cf0a0006d
:102ab00005f8a3000300320060021200e0821a0051
:102ac0000cf0a2008005eb0041ff37006000b80069
:102ad000020005000478a300040032000578a3007a
:102ae000030032000168a30001003a000200be00aa
:102af0000160a00000000600889fbe008a9fbe0003
:102b00000004be000405be00030141000201e8000c
:102b10008000eb000a42b8000b43b80086824200f6
:102b200060804b000a4bb8008682420007004800d4
:102b3000e08048000b4bb80006004000878048004a
:102b40000103700002003a000001eb0012003700a0
:102b50000900e00002003d000a0050008b80580090
:102b60000b00e00002003d00080050008980580082
:102b70008582420000004800818048008101df001a
:102b80000300e0000400320085824200000048009b
:102b9000818048000201e9004f05be004f04be00dd
:102ba0000000060001f8a3001d003a004709de00fe
:102bb000f40f20000410e100260032000200e000c3
:102bc0002c003200f107b200c708dd004902de0028
:102bd000848070004700dd0001e0a000f207b10032
:102be0002e010700f207b0000404200084016000f9
:102bf0004700de00490add0004007000c708de005f
:102c00000300e0000200320061004000e080480064
:102c1000f107b2004711dd0082807000000006005d
:102c2000f4ff2700048260008002720001003a0075
:102c30000000060006f827000620e100120035001b
:102c40008102630006826a00040270000e003200f6
:102c50000600370004f827000482680003003a00e9
:102c60000400200000026a000b0032000160a00096
:102c7000000006000082700001003a00000006001b
:102c800006000700d6ff37001202200042628800cb
:102c9000f0ff2f00f1ff2700000006004f0ade00c2
:102ca0004709de00f107b200f20fb2000b0032005c
:102cb000f207b1000170a000c708dd00c901de0005
:102cc000838070004700dd000400a60000000600bd
:102cd00060001000e080180000000600810f700006
:102ce00001003a00000006008182cf000500e000ec
:102cf00010003e008082cf00ee8242007028e1008a
:102d00000400390007003e00800078000000eb005e
:102d10000e003700708312008600de000500dd0023
:102d20000a003700708352008600dd000000eb00cf
:102d300006003700e28252008508dd007083120031
:102d40000603de00868070000500dd007507b00018
:102d50000501ea000400a600000006006000100063
:102d6000e0801800000006000100e00026003200ac
:102d7000610111007810e10023003c006022b800de
:102d80007010e10004003500800278000100780036
:102d90008000eb00700151000200e00009003400e7
:102da00070031100062add00822ade008603dd00a2
:102db000878272000200de00860bdd0007007000d3
:102dc0008208de0084817100f4ff27000482620023
:102dd0008481710004002800848262006102600026
:102de00005f0a60000000600048271000700320012
:102df0000000e800e0804800000006000002be007d
:102e00006000b800efff37006000b8000000060067
:102e100060001000e080180002003700600212001d
:102e2000e0821a000100e0003f0032000500e000ef
:102e300039003200889fbe008a9fbe00820378005e
:102e40008304510004003d000002fd008102fd00ea
:102e50008904ea008303780001017800800078008b
:102e60000000eb0005037800840278000002eb000c
:102e700006056900070035000281d1008180d3007a
:102e80000080d3000683d1008582d3000482d30062
:102e90008703e8007048e100060035007f48e10044
:102ea00029003c0005027800860278004fb3de005e
:102eb000f08454000900e000080032000922de001e
:102ec000708514008a2ddd000b027200892ade0055
:102ed0008a35dd008b82720009b3de0004004000f9
:102ee00085804800060149007e0207008383530065
:102ef0000200e000090032000b0028000b10e10086
:102f00000c00320001007800820078000701780090
:102f10004f05be004f04be00000006006000b80070
:102f20000001eb00faff37000400be000301780047
:102f3000000006000100e000f2ff3a0002002c0051
:102f40008703e800efff3700f9012000d5ff3700c5
:102f500081017000270032008002eb0001f8a3001d
:102f60000300320060001000e0801800150020000f
:102f7000f40720000202420020003400f703200082
:102f8000870360000604200000036300020820009d
:102f9000000161004700de00c909dd00008071000a
:102fa000c708de000600e000080032008703710059
:102fb000060032001000b0000180b0000188a300bc
:102fc00002003200c108de000402e800f107b2008e
:102fd000f30f20000320e10003003d004722dd0045
:102fe000810072002900370001f827000000eb0083
:102ff000260037006000b8000000060068021200da
:103000007f20e100020034006000b8001f0037009c
:103010006011b8007020e1000400350080017800e4
:10302000010078008000eb00700252000400e00014
:1030300009003400f00312000719dd008419de00d6
:103040000703dd00868171000400de00070bdd0050
:10305000060070008408de00f7ff2700838363000a
:103060008703710006002800030363000700320095
:103070000700e00003003a00610160000281730074
:10308000020032001000b0000180b0000500a60070
:103090000000060001f0a00000000600810370009f
:1030a00068003200889fbe008a9fbe008c9fbe00d1
:1030b0003400f80008002000a80188000208a300de
:1030c000030032000000d0008180d2000201e9003c
:1030d00081017800800278000002eb00821f7800f6
:1030e0004a1cde000801b10089e1290069417c0029
:1030f0000281fb000214b8004644dd000340e100f9
:10310000010036000201e9004111dd001200b300a8
:103110000214b8004444dd000340e1000100360021
:103120000201e9004111dd001200b3000214b800f1
:103130004244dd000340e100010036000201e900e5
:103140004111dd001200b3000214b8000340e10099
:10315000010036000201e9000214b800088651009f
:103160004763dd00492cde00080373008204780009
:103170004834de000940e1002e0031001100090052
:103180000983d8004811dd00000171000214b80065
:103190000006eb00840678000885520089855900f6
:1031a000040031000201e9000214b8000885520051
:1031b00089855900820478000b04d1008a83d300ea
:1031c0000d83d3000938e1001c0031001100090013
:1031d00049bbd8008002eb000003b8000204b8002d
:1031e0000804440089844c00e0824a0087034400bc
:1031f00060824c00e0814a000603560087835e002f
:1032000004025d0083815d00010031000000e900df
:103210008200d1000080d3004f0178004191de0090
:103220003400f9004f06be004f05be004f04be003b
:1032300000000600f00f2000d2ff3700f0ff2f0043
:10324000e4ff3700020005000003eb008101df000e
:103250008301ea006f18e1000f0032000300e00074
:10326000060032008308dd00708211008402de0057
:10327000858070000300dd00030343000100e000cf
:1032800014003200040028000408e100130032009a
:103290007e011300000006008100d1008080d30071
:1032a0004f00dd00f60020008101df008301ea000d
:1032b0006f18e100e9ff3a008100d1008080d3005f
:1032c0000000eb00e60120008101df008301ea003d
:1032d000e2ff37006000b800020005000000e000d7
:1032e000ebff3a0001002c000603e900e8ff37007d
:1032f0006218e1001b003500889fbe008a9fbe0057
:103300008c9fbe008301e9000004be000205be00e0
:10331000040678003c00be000801be0095010700cd
:103320003c004100bc8049008b05e900faff3c00ed
:103330000103df008606ea00050034008d08dd0089
:10334000708216008402de00858070000d00dd00b2
:10335000060178004f06be004f05be004f04be00b8
:10336000000006000300e00002003a006000b80020
:10337000020005003400be0002000500889fbe0068
:103380008a9fbe000003be0038f90700850578005b
:1033900082815200020020006220e10004003a0015
:1033a000f307b100040035007718e1000400350090
:1033b0000600be00140037006000b8000f003700a0
:1033c000f50f2000faff2f008502d1000a85d300f7
:1033d0008301e900fcff3b0081846200000465007a
:1033e000890f7400f2ff32008582ea000a85ea0044
:1033f00081846200000465006100070007f0a700f7
:1034000001f0a0000081eb000200e0004f05be00cb
:103410004f04be0000000600889fbe008a9fbe00c9
:10342000841f780026f907004f0078001100330050
:10343000f0ff2f00838f6c0006003b000405650041
:103440000a00a7000800370009f0a60010002000bd
:1034500008003700820f5400838f5c00030039009e
:103460001000200001003e000000200009f0a7002d
:103470000000ea004f05be004f04be000000e0005f
:1034800000000600881f7800030478000300e000b5
:1034900007003d0060001000e08018006001190086
:1034a000e081190002003b0001f02d00030037000d
:1034b0000400070008f0a70001f0a0004f04780006
:1034c00000000600889fbe008a9fbe000082700038
:1034d0000402710004827100260032000004be0064
:1034e0000200be006011b8006b09200095022000a8
:1034f0000182cf000a0039000541b1000082cf00ef
:10350000070039000541b1000982cf0004003900ed
:103510000541b1000882cf00010039000541b1002a
:1035200005425200120032000a003b008281710005
:10353000610164008100d1000080d3008984d30040
:103540000884d3008b05e8000442e800f7ff3a0046
:10355000070037000804440089844c00000048003c
:10356000818048008b05e9000442e900f9ff3a0038
:10357000030007004f05be004f04be000000060018
:1035800081002000618055000b003d000b002000f1
:1035900061fe2f000100e1001d00340082817100f6
:1035a000610164008904d1000884d3000000e800b0
:1035b000faff3a007100200061006400030070000f
:1035c000020060000900320061044400e0844c0005
:1035d0000988a500050032008b05e8006808e100b5
:1035e00002003a008904d1000884d300f20f2000c1
:1035f0000258e10005003d00c75ddd00f907b2009b
:103600008980750008007800000006000bf827008c
:103610008b007800000005006218e1001d003500f5
:10362000889fbe008a9fbe008c9fbe008301e90078
:103630000004be000205be00040678003c00be0087
:103640000801be00cb0007008381d1000281d300b6
:103650003c004100bc8049008b05e900f8ff3c00bc
:103660000103df008606ea00050034008d08dd0056
:10367000708216008402de00858070000d00dd007f
:10368000060178004f06be004f05be004f04be0085
:10369000000006000300e00002003a006000b800ed
:1036a000020005003400be000200050027002000d3
:1036b00001f0a70017002000470bde00f60fb20054
:1036c000040032000643e8000a0032004702b3005b
:1036d0000000060001037800f607b2000603700040
:1036e00002003a000703b300000006008702b3009f
:1036f0000000060001037800f607b2000603700020
:10370000020032000770a000000006000760a00061
:10371000000006000100e000210032008201e80004
:103720002b0035007e0211001e0034006011b8002d
:103730007020e1000400350080017800010078006d
:10374000cf88de00700252000400e0000700320063
:1037500003017800700312008601dd000400de0022
:10376000860bdd00070070008488de00e102600047
:103770000600280003036300f7ff2700838363002c
:10378000828373000600e0000500320007817200aa
:103790000200e0000200320061004000e0804800ca
:1037a000000006007e10e10001003a000000060063
:1037b0000100e00003003500f1ff2700f0ff2f00bb
:1037c00000000600010028000000200000000600a4
:1037d0006000b800000006006218e1003b00350000
:1037e000889fbe008a9fbe008c9fbe008301e900b7
:1037f0000004be000205be00040678006205450014
:103800000a05ea003c00be007050e10017003500d8
:103810000d0032007f50e10001003400fa01200069
:10382000f00655000801be00520007000d99de00a9
:10383000cf99de003c004100bc8049008b05e900c7
:10384000f8ff3c00140037000801be0049000700e3
:1038500003017800cf99de003c004100bc804900a4
:103860008b05e900f8ff3c000b003700f00615005f
:103870000801be003f0007000a11de008d1add00be
:10388000050171008a99de003c004100bc804900be
:103890008b05e900f6ff3c000103df000605ea00a6
:1038a000050034008a08dd00700215008402de0085
:1038b000858070000a00dd00060178004f06be001a
:1038c0004f05be004f04be00000006000300e000ec
:1038d00002003a006000b800020005003400be009b
:1038e000020005008001eb000202df000402ea0092
:1038f0006f20e10010003a000201d1000181d300e5
:103900008080d3004f00dd00f30020000202df00c2
:103910000402ea006f20e10007003a000201d10032
:103920000181d3008080d3000000eb00e301200080
:103930000202df000402ea000400e0000900320095
:10394000f00212000411dd00050bde00060171001b
:103950008408dd000503de00868070000400dd00c1
:10396000848141000200e0000100320000000600f6
:1039700003000500889fbe008a9fbe008c1f780050
:103980000002be000203be000620b800062db800eb
:103990008a80400060814d000724b800072db800e0
:1039a0008a84440060864d008100440002814c00fe
:1039b000e0014e000700e000080035000500e000cf
:1039c00002003d0006015100878159004f06780032
:1039d0004f05be004f04be00000006000401510068
:1039e00085815900f5ff37006218e1001e0035009f
:1039f000889fbe008a9fbe008c9fbe008301e900a5
:103a00000004be000205be00040678003c00be00b3
:103a10000801be00d7ff07008100d0000281d2005c
:103a20008381d2003c004100bc8049008b05e90045
:103a3000f7ff3c000103df008606ea0005003400c2
:103a40008d08dd00708216008402de008580700023
:103a50000d00dd00060178004f06be004f05be00d8
:103a60004f04be00000006000300e00002003a0020
:103a70006000b800020005003400be00020005002e
:103a80000002eb008302df008502ea006f28e100fc
:103a900023003a008301d1008281d3000181d30049
:103aa0008080d3004f00dd00f40020008302df009f
:103ab0008502ea006f28e10019003a008301d10075
:103ac0008281d3000181d3008080d3000000eb000d
:103ad000e40120008302df008502ea006f28e10094
:103ae0000f003a008301d1008281d3000181d3000d
:103af0008000eb00d40220008302df008502ea0090
:103b00006f28e10006003a008301d1008281d300d2
:103b10000001eb00c40320008302df008502ea00fd
:103b20000500e0000c003200708312008519dd00f2
:103b30008613de00878171000511dd00860bde0033
:103b4000070171008508dd008603de0087807000b4
:103b50000500dd00050242000300e0000100320024
:083b600000000600040005004e
:020000040000fa
:0200000401f009
:04000c0078ff000079
:020000040000fa
:0200000401f009
:040010005eff00008f
:020000040000fa
:0200000401f009
:040014007fff00006a
:020000040000fa
:0200000401f009
:04001800eeff0000f7
:020000040000fa
:0200000401f009
:04001c00dfff000002
:020000040000fa
:100008009c0b00009c0b00009c0b00009c0b00004c
:100018009c0b00009c0b00009c0b00009c0b00003c
:100028009c0b00009c0b00009c0b0000e20a0000e7
:100038009c0b00009c0b00009c0b00009c0b00001c
:10004800300700009c0b00009c0b00009c0b00007c
:10005800460b00009c0b00009c0b00009c0b000052
:10006800ca040000460400009c0b00006007000062
:10007800d20400009c0b00009c0b00009c0b0000ad
:100088009c0b00009c0b00009c0b00009c0b0000cc
:100098009c0b0000a00200009c0b00009c0b0000c1
:1000a8009c0b00009c0b00009c0b00009c0b0000ac
:1000b8009c0b00009c0b00009c0b00009c0b00009c
:1000c8009c0b00009c0b00009c0b00009c0b00008c
:1000d8009c0b00009c0b00009c0b00009c0b00007c
:1000e8009c0b00009c0b00009c0b00009c0b00006c
:1000f8009c0b00009c0b00009c0b00009c0b00005c
:100108009c0b00009c0b00009c0b00009c0b00004b
:100118009c0b00009c0b00001c0b00009c0b0000bb
:100128009c0b00009c0b00009c0b00009c0b00002b
:100138009c0b00009c0b00009c0b00009c0b00001b
:100148009c0b00009c0b00009c0b00009c0b00000b
:100158009c0b00009c0b00009c0b00009c0b0000fb
:100168009c0b00009c0b00009c0b00009c0b0000eb
:100178009c0b00009c0b00009c0b00009c0b0000db
:100188009c0b00009c0b00009c0b00009c0b0000cb
:100198009c0b00009c0b00009c0b00009c0b0000bb
:1001a8009c0b00009c0b00009c0b00009c0b0000ab
:1001b8009c0b00009c0b00009c0b00009c0b00009b
:1001c8009c0b00009c0b00009c0b00009c0b00008b
:1001d8009c0b00009c0b00009c0b00009c0b00007b
:1001e8009c0b00009c0b00009c0b00009c0b00006b
:0801f8009c0b00009c0b0000b1
:020000040000fa
:100208009c0b00009c0b00009c0b00009c0b00004a
:100218009c0b00009c0b00009c0b00009c0b00003a
:100228009c0b00009c0b00009c0b0000e20a0000e5
:100238009c0b00009c0b00009c0b00009c0b00001a
:10024800300700009c0b00009c0b00009c0b00007a
:10025800460b00009c0b00009c0b00009c0b000050
:10026800ca040000460400009c0b00006007000060
:10027800d20400009c0b00009c0b00009c0b0000ab
:100288009c0b00009c0b00009c0b00009c0b0000ca
:100298009c0b0000a00200009c0b00009c0b0000bf
:1002a8009c0b00009c0b00009c0b00009c0b0000aa
:1002b8009c0b00009c0b00009c0b00009c0b00009a
:1002c8009c0b00009c0b00009c0b00009c0b00008a
:1002d8009c0b00009c0b00009c0b00009c0b00007a
:1002e8009c0b00009c0b00009c0b00009c0b00006a
:1002f8009c0b00009c0b00009c0b00009c0b00005a
:100308009c0b00009c0b00009c0b00009c0b000049
:100318009c0b00009c0b00001c0b00009c0b0000b9
:100328009c0b00009c0b00009c0b00009c0b000029
:100338009c0b00009c0b00009c0b00009c0b000019
:100348009c0b00009c0b00009c0b00009c0b000009
:100358009c0b00009c0b00009c0b00009c0b0000f9
:100368009c0b00009c0b00009c0b00009c0b0000e9
:100378009c0b00009c0b00009c0b00009c0b0000d9
:100388009c0b00009c0b00009c0b00009c0b0000c9
:100398009c0b00009c0b00009c0b00009c0b0000b9
:1003a8009c0b00009c0b00009c0b00009c0b0000a9
:1003b8009c0b00009c0b00009c0b00009c0b000099
:1003c8009c0b00009c0b00009c0b00009c0b000089
:1003d8009c0b00009c0b00009c0b00009c0b000079
:1003e8009c0b00009c0b00009c0b00009c0b000069
:0803f8009c0b00009c0b0000af
:020000040000fa
:103b68001c6c00000cf70000476b0000cc0c000038
:103b7800dbaa0000aaea00000000000000400000e4
:103b8800000000000000000000000000e4d7000072
:103b98006d7d0000fdff0000159c0000b17600005f
:103ba800feff00008c3e00005e520000ffff000098
:103bb80051ed000087640000ffff00005ef1000087
:103bc800b1720000ffff00004a2f0000cc7d00000a
:103bd800ffff00004b860000db46000000000000ed
:103be800ad5d0000f04f00000000000054320000fe
:103bf800da5400000000000054cc0000e557000033
:103c0800000000008e210000f659000000000000ae
:103c1800ee150000735b000000000000aa7e0000a3
:103c2800925c00000000000010100000111100005c
:103c380012120000131300001314000014150000e2
:103c480015150000161600001617000017170000bb
:103c58001818000018190000191900001a1a000095
:103c68001a1b00001b1b00001b1c00001c1c000072
:103c78001d1d00001d1d00001e1e00001e1e000050
:103c88001f1f00001f1f000071b500004702000041
:103c9800c54800000301000074f0000002020000a3
:103ca800eb210000da0200005dd70000cc04000020
:103cb80092aa0000aa0a00000000000000400000cc
:020000040000fa
:103cc800d00000007bcf0000c1c00000403b0000d6
:103cd800787d00008b3a0000713d00004abf00006b
:103ce8009a990000993f00005d6d0000c5bd000075
:103cf800000000008038000000000000c8410000fb
:103d0800cdcc000014c20000ae470000d1c00000b6
:103d18000000000090c200001f850000174100004d
:103d28000ad70000fc420000093d0000a00f000077
:103d38000000000088130000000000004c1d000077
:103d4800000000001027000000000000f82a000012
:103d58000000000017b700005139000017b7000035
:103d6800d1390000050000003c0000004861000057
:103d7800b4c20000ec51000014c200000ad70000d1
:103d8800f7c200006f120000833b00006f120000b2
:103d9800833b0000bd370000863600005700000056
:103da8004d000000410000004341000000000000f9
:103db80045410000005300004f5300000000000080
:043dc80055aa0000f8
:020000040000fa
:103dcc000600fa00889fbe00000f780011079800cb
:103ddc00220798001e0278001403be001e029000f9
:103dec001402be000401be000600be00b7f70700b7
:103dfc000002be000404be001e02780024039000e2
:103e0c00b40390001e029000f40290006402900033
:103e1c000401be000600be00acf707000002be00a5
:103e2c000401be000800be00c3f607000002be007d
:103e3c000404be001e02780044039000d4039000da
:103e4c001e029000d40a9000440a90000401be00a7
:103e5c000600be009df707000002be000401be0074
:103e6c000800be00b4f607000002be002e0390004e
:103e7c00048bbe001e0278001403be001e029000cc
:103e8c00b4029000240290000401be000600be00a3
:103e9c008ef707000002be000404be001e0278006c
:103eac0024039000b40390001e029000940a90002a
:103ebc00040a90000401be000600be0083f7070050
:103ecc000002be000401be000800be009af6070006
:103edc000002be000404be001e02780044039000e1
:103eec00d40390001e029000f40a9000640a900023
:103efc000401be000600be0074f707000002be00fd
:103f0c000401be000800be008bf607000002be00d4
:103f1c002e03900024039800350398001e027800ad
:103f2c001403be001e029000d402900044029000c4
:103f3c000401be000600be0064f707000002be00cc
:103f4c000404be001e02780024039000b403900009
:103f5c001e029000b40a9000240a90000401be00d6
:103f6c000600be0059f707000002be000401be00a7
:103f7c000800be0070f607000002be000404be007c
:103f8c001e02780044039000d40390001e0290009f
:103f9c0094129000041290000401be000600be00b2
:103fac004af707000002be000401be000800be0074
:103fbc0061f607000002be002e0390004403980037
:103fcc00550398001e02780064039000f4039000df
:103fdc001e0290001402be000401be000600be00ca
:103fec003af707000002be000404be001e0278006f
:103ffc00040b9000940b90001e029000f4029000b1
:10400c00640290000401be000600be002ff70700fa
:10401c000002be000401be000800be0046f6070008
:10402c000002be000404be001e027800240b9000a7
:10403c00b40b90001e029000d40a9000440a900029
:10404c000401be000600be0020f707000002be00ff
:10405c000401be000800be0037f607000002be00d7
:10406c002e03900064039800750398001e027800dc
:10407c0064039000f40390001e029000b4029000c0
:10408c00240290000401be000600be000ff70700da
:10409c000002be000404be001e027800040b900057
:1040ac00940b90001e029000940a9000040a900059
:1040bc000401be000600be0004f707000002be00ab
:1040cc000401be000800be001bf607000002be0083
:1040dc000404be001e027800240b9000b40b900068
:1040ec001e029000f40a9000640a90000401be00c5
:1040fc000600be00f5f607000002be000401be007b
:10410c000800be000cf607000002be002e03900053
:10411c00040b9800150b98001e02780064039000a5
:10412c00f40390001e029000d40290004402900010
:10413c000401be000600be00e4f607000002be004b
:10414c000404be001e027800040b9000940b900037
:10415c001e029000b40a9000240a90000401be00d4
:10416c000600be00d9f607000002be000401be0026
:10417c000800be00f0f507000002be000404be00fb
:10418c001e027800240b9000b40b90001e029000cd
:10419c0094129000041290000401be000600be00b0
:1041ac00caf607000002be000401be000800be00f3
:1041bc00e1f507000002be002e039000240b9800ce
:1041cc00350b98001e027800440b9000d40b900025
:1041dc001e0290001402be000401be000600be00c8
:1041ec00baf607000002be000404be001e027800ee
:1041fc00640b9000f40b90001e029000f4029000ef
:10420c00640290000401be000600be00aff6070079
:10421c000002be000401be000800be00c6f5070087
:10422c000002be000404be001e02780004139000bd
:10423c00941390001e029000d40a9000440a90003f
:10424c000401be000600be00a0f607000002be007e
:10425c000401be000800be00b7f507000002be0056
:10426c002e039000440b9800550b98001e0278000a
:10427c00440b9000d40b90001e029000b4029000ee
:10428c00240290000401be000600be008ff6070059
:10429c000002be000404be001e027800640b9000f5
:1042ac00f40b90001e029000940a9000040a9000f7
:1042bc000401be000600be0084f607000002be002a
:1042cc000401be000800be009bf507000002be0002
:1042dc000404be001e027800041390009413900096
:1042ec001e029000f40a9000640a90000401be00c3
:1042fc000600be0075f607000002be000401be00f9
:10430c000800be008cf507000002be002e039000d2
:10431c00640b9800750b98001e027800440b9000fb
:10432c00d40b90001e029000d40290004402900026
:10433c000401be000600be0064f607000002be00c9
:10434c000404be001e027800640b9000f40b900075
:10435c001e029000b40a9000240a90000401be00d2
:10436c000600be0059f607000002be000401be00a4
:10437c000800be0070f507000002be000404be0079
:10438c001e02780004139000941390001e029000fb
:10439c0094129000041290000401be000600be00ae
:1043ac004af607000002be000401be000800be0071
:1043bc0061f507000002be002e0390000413980064
:1043cc00151398002e029000040078004f04be00d4
:1043dc000080fa00000006000c00fa00889fbe0066
:1043ec0040079800510798006022b800048fbe0067
:1043fc004e0290001403be004e029000f402900096
:10440c00640290000401be000600be002ff60700f7
:10441c000002be000404be004e0290002403900073
:10442c00b40390004e029000940a9000040a90008d
:10443c000401be000600be0024f607000002be0008
:10444c000401be000800be003bf507000002be00e0
:10445c000404be004e02900044039000d40390006c
:10446c004e029000b40a9000240a90000401be0091
:10447c000600be0015f607000002be000401be00d7
:10448c000800be002cf507000002be00048fbe0021
:10449c0002002000030024001e00be00abf8070041
:1044ac000002be00048fbe004e0290001404be0039
:1044bc004e029000f4029000640290001e01be00b7
:1044cc000400be0001f607000002be000401be009d
:1044dc000800be000ff507000002be005e0390004e
:1044ec00048bbe004e02900024049000b404900093
:1044fc004e029000940a9000040a90001e01be0027
:10450c000400be00f1f507000002be000401be006d
:10451c000800be00fff407000002be005e0390001e
:10452c0024039800350398004e0290004404900038
:10453c00d40490004e029000b40a9000240a90001b
:10454c001e01be000400be00e0f507000002be0024
:10455c000401be000800be00eef407000002be001d
:10456c005e03900044039800550398004e0290009f
:10457c0064049000f40490004e0290001402be00fb
:10458c001e01be000400be00d0f507000002be00f4
:10459c000401be000800be00def407000002be00ed
:1045ac005e03900064039800750398004e0290001f
:1045bc00040c9000940c90004e029000b4029000f9
:1045cc00240290001e01be000400be00bff50700cf
:1045dc000002be000401be000800be00cdf40700be
:1045ec000002be005e039000040b9800150b9800af
:1045fc004e029000240c9000b40c90004e029000df
:10460c00d4029000440290001e01be000400be00c3
:10461c00aef507000002be000401be000800be009b
:10462c00bcf407000002be005e039000240b98004f
:10463c00350b98004e02900024039000b4039000b8
:10464c004e029000b40a9000240a90000401be00af
:10465c000600be009df507000002be000404be006b
:10466c004e02900044039000d40390004e02900040
:10467c00940a9000040a90000401be000600be00db
:10468c0092f507000002be000401be000800be0047
:10469c00a0f407000002be005e039000440b9800db
:1046ac00550b98004e02900044039000d4039000e8
:1046bc004e029000f4029000640290000401be00cf
:1046cc000600be0081f507000002be000404be0017
:1046dc004e0290001403be004e029000b40a9000eb
:1046ec00240a90000401be000600be0077f5070006
:1046fc000002be000401be000800be0085f40700e5
:10470c000002be005e039000640b9800750b9800cd
:10471c004e0290001403be004e029000940a9000ca
:10472c00040a90000401be000600be0067f50700f5
:10473c000002be000404be004e0290002403900050
:10474c00b40390004e029000f402900064029000ba
:10475c000401be000600be005cf507000002be00ae
:10476c000401be000800be006af407000002be008f
:10477c005e03900004139800151398005e029000dd
:10478c001403be005e0290001402be000401be00c1
:10479c000600be004df507000002be000404be007a
:1047ac005e02900024039000b40390005e0290001f
:1047bc00b4029000240290000401be000600be006a
:1047cc0042f507000002be000401be000800be0056
:1047dc0059f407000002be000404be005e02900003
:1047ec0044039000d40390005e029000d402900029
:1047fc00440290000401be000600be0033f5070021
:10480c000002be000401be000800be004af407000e
:10481c000002be000401be000000200001042400c0
:10482c003cf407000002be0002002000030024003c
:10483c000400be00c5f707000002be002407980064
:10484c00350798005e0290001402be002e01900005
:10485c00be0190000400be001cf507000002be0063
:10486c005e039000048bbe005e029000b4029000c8
:10487c00240290002e019000be0190000400be00a6
:10488c0012f507000002be005e039000240398009e
:10489c00350398005e029000d40290004402900010
:1048ac002e019000be0190000400be0007f5070029
:1048bc000002be005e03900044039800550398006c
:1048cc005e02900064039000f40390005e0290007e
:1048dc00f4029000640290000401be000600be00c9
:1048ec00faf407000002be000404be005e02900051
:1048fc00040b9000940b90005e029000940a9000c0
:10490c00040a90000401be000600be00eff407008c
:10491c000002be000401be000800be0006f4070041
:10492c000002be000404be005e029000240b900046
:10493c00b40b90005e029000b40a9000240a900020
:10494c000401be000600be00e0f407000002be0039
:10495c000401be000800be00f7f307000002be0011
:10496c000401be000000200001042400e9f307004c
:10497c000002be0002002000030024000400be0060
:10498c0072f707000002be00240798003507980054
:10499c005e029000f4029000640290002e019000e0
:1049ac00be0190000400be00c8f407000002be0067
:1049bc005e03900064039800750398005e029000fb
:1049cc00940a9000040a90002e019000be01900001
:1049dc000400be00bdf407000002be005e039000a0
:1049ec00040b9800150b98005e029000b40a90001e
:1049fc00240a90002e019000be0190000400be001d
:104a0c00b2f407000002be005e039000240b980075
:104a1c00350b98005e029000440b9000d40b900074
:104a2c005e029000d40a9000440a90000401be007b
:104a3c000600be00a5f407000002be000404be0080
:104a4c005e029000640b9000f40b90005e029000ec
:104a5c00f40a9000640a90000401be000600be0037
:104a6c009af407000002be000401be000800be005c
:104a7c00b1f307000002be000404be005e02900009
:104a8c0004139000941390005e0290009412900016
:104a9c00041290000401be000600be008bf4070057
:104aac000002be000401be000800be00a2f3070015
:104abc000002be000401be0000002000010424001e
:104acc0094f307000002be00020020000300240043
:104adc000400be001df707000002be00240798006a
:104aec00350798005e029000d40a9000440a9000aa
:104afc002e019000be0190000400be0073f407006c
:104b0c000002be005e039000440b9800550b980009
:104b1c005e029000f40a9000640a90002e0190004e
:104b2c00be0190000400be0068f407000002be0045
:104b3c005e039000640b9800750b98005e02900069
:104b4c0094129000041290002e019000be0190006f
:104b5c000400be005df407000002be005e0390007e
:104b6c0004139800151398005e029000040078005e
:104b7c004f04be000080fa00000006000e00fa0090
:104b8c00008fbe0022079800330798004407980056
:104b9c0055079800660798006e0290003e1a780040
:104bac002e1278006e0290002e039000be0390002f
:104bbc0026029800370298006e0290004e03900077
:104bcc00de03900046029800570298006e02900097
:104bdc00040078000080fa00000006000000fa00d3
:104bec00745f8000e00f520002003a00e4002000e5
:104bfc000b003700b4588000e10f520002003a005d
:104c0c000002eb000600370014002000b4588800a6
:104c1c008680a90010002000bd1407000002eb00e4
:104c2c00040078000080fa00000006000000fa0082
:104c3c00745f8000e00f520002003a00e400200094
:104c4c000d003700b4588000e00f520002003a000b
:104c5c000002eb000800370010002000da140700f7
:104c6c008680a9000002eb00b45888000002eb001b
:104c7c00346088000002eb00040078000080fa0029
:104c8c00000006000200fa00000f7800b458800003
:104c9c00e00f520002003a00d4002000030037005d
:104cac001e0078002700070000027800040078003e
:104cbc000080fa00000006000200fa00000f7800e5
:104ccc00b4588000e00f520002003a00d4002000db
:104cdc000800370034608000e00f520002003a00f8
:104cec00c4002000030037001e00780015000700e8
:104cfc0000027800040078000080fa000000060032
:104d0c000200fa00000f7800b4588000e00f520047
:104d1c0002003a00d4002000070037000000000019
:104d2c0034608000e00f5200fdff32001e0078005e
:104d3c000400070000027800040078000080fa00ec
:104d4c00000006003200fa00889fbe008a9fbe0059
:104d5c008c9fbe0060179800140280004522de0074
:104d6c00674262000482fb002407980094028000d2
:104d7c0034079800ff3ffc00c4be200014427800aa
:104d8c00674262000482fb00670262004522dd007c
:104d9c0016028000f5f12f00850263000482720078
:104dac00140288003e0290009402880000008800e3
:104dbc0094588000a55880006e139000240398002e
:104dcc00350398003459800045598000040f980031
:104ddc00150f98005459800065598000240f9800d5
:104dec00350f98007459800085598000440f980045
:104dfc00550f980094598000a5598000640f9800b5
:104e0c00750f9800b4598000c5598000041798009c
:104e1c0015179800d4598000e55980002417980084
:104e2c0035179800f4598000055a800044179800f3
:104e3c005517980034608000440798000002eb007e
:104e4c00346088009402800054079800ff3ffc00f7
:104e5c002e02900004427800674262000482fb003c
:104e6c00670262004522dd0016028000f5f12f007a
:104e7c008502630004827200140288005e029000b6
:104e8c009402880000008800a70f07000002be00f3
:104e9c006e139000048bbe004e029000e10f520086
:104eac000c0036004e029000050020000400be00ed
:104ebc005ff207000002be000401be0000002000eb
:104ecc0001f8230021f607000002be00048fbe008b
:104edc00030037000400200005f82300048fbe00f7
:104eec000e0a90009e0a90000400be004df20700ce
:104efc000002be001e01be000400be0073f30700da
:104f0c000002be000404be0034f38400cfa2de0015
:104f1c000400be0043f207000002be000401be0004
:104f2c000800be007bf207000002be000403be00b6
:104f3c0044f3840055f384000401be000600be0057
:104f4c0062f307000002be006e1390004403980049
:104f5c00550398006e12900044039000d403900007
:104f6c0004f4840015f484000401be000600be00a5
:104f7c0068f207000002be006407980075079800ed
:104f8c006e1290006c024200741798006e0a90002a
:104f9c00fe0a90000400be0022f207000002be00d0
:104fac001e01be000400be0048f307000002be0054
:104fbc000404be00a4f48400b5f484006e019000d7
:104fcc00fe0190000400be0040f307000002be008a
:104fdc000403be0004608000156080000401be0064
:104fec000600be0054f207000002be000401be0021
:104ffc000800be0047f207000002be000403be001a
:10500c00e4f38400f5f384000401be000600be0046
:10501c002ef307000002be000405be004e0a9000ed
:10502c00de0a90000400be00fef107000002be0084
:10503c001e01be000400be0024f307000002be00e7
:10504c000404be0084f4840095f484006e01900086
:10505c00fe0190000400be001cf307000002be001d
:10506c000403be0064f4840075f484000401be00e3
:10507c000600be0030f207000002be000401be00b4
:10508c000800be0023f207000002be000403be00ad
:10509c00e4f38400f5f384000401be000600be00b6
:1050ac000af307000002be000404be002e0a9000a2
:1050bc00be0a90000400be00daf107000002be0038
:1050cc001e01be000400be0000f307000002be007b
:1050dc000406be0044f4840055f484006e01900074
:1050ec00fe0190000400be00f8f207000002be00b2
:1050fc000403be0024f4840035f484000401be00d3
:10510c000600be000cf207000002be000401be0047
:10511c000c00be00fff107000002be000403be003d
:10512c00e4f38400f5f384000401be000600be0025
:10513c00e6f207000002be000400be007e139000e1
:10514c000a02be000801be008cfe07006e12900021
:10515c0044039000d4039000845f8000955f80002e
:10516c000401be000600be00eaf107000002be000a
:10517c0064079800750798006e1290007802420040
:10518c00041f98004e129000de1290000400be0026
:10519c00a4f107000002be001e01be000400be0008
:1051ac00caf207000002be000404be00c4f384006f
:1051bc00d5f384006e019000fe0190000400be0047
:1051cc00c2f207000002be000403be00e45f8000d0
:1051dc00f55f80000401be000600be00d6f107009a
:1051ec000002be000401be000800be00c9f10700a9
:1051fc000002be000403be0064f3840075f3840057
:10520c000401be000600be00b0f207000002be00a2
:10521c000405be002e129000be1290000400be00c9
:10522c0080f107000002be001e01be000400be009b
:10523c00a6f207000002be000404be00a4f3840022
:10524c00b5f384006e019000fe0190000400be00d6
:10525c009ef207000002be000403be00c45f800083
:10526c00d55f80000401be000600be00b2f107004d
:10527c000002be000401be000800be00a5f107003c
:10528c000002be000403be0064f3840075f38400c6
:10529c000401be000600be008cf207000002be0036
:1052ac000404be000e1290009e1290000400be007a
:1052bc005cf107000002be001e01be000400be002f
:1052cc0082f207000002be000406be0084f38400d4
:1052dc0095f384006e019000fe0190000400be0066
:1052ec007af207000002be000403be00a45f800037
:1052fc00b55f80000401be000600be008ef1070001
:10530c000002be000401be000c00be0081f10700cb
:10531c000002be000403be0064f3840075f3840035
:10532c000401be000600be0068f207000002be00c9
:10533c000400be000e1b90000a02be000801be0055
:10534c000efe07000002eb00040078004f06be00c2
:10535c004f05be004f04be000080fa00000006009e
:10536c003400fa00889fbe00001f9800111f98009f
:10537c00b4588000e00f520002003a00d400200024
:10538c00a5003700007d2000010020007b0e0700e7
:10539c00140280004522de00674262000482fb009a
:1053ac00240798009402800034079800ff3ffc000b
:1053bc00c4be200014427800674262000482fb00e5
:1053cc00670262004522dd0016028000f5f12f0015
:1053dc008502630004827200140288003e02900071
:1053ec0094028800000088003459800045598000e0
:1053fc00240f9800350f980054598000655980008f
:10540c00440f9800550f98007459800085598000fe
:10541c00640f9800750f980094598000a55980006e
:10542c000417980015179800b4598000c5598000ce
:10543c002417980035179800d4598000e55980003e
:10544c004417980055179800f4598000055a8000ad
:10545c006417980075179800346080004407980012
:10546c000002eb003460880094028000540798001e
:10547c00ff3ffc002e02900004427800674262005d
:10548c000482fb00670262004522dd0016028000e8
:10549c00f5f12f008502630004827200140288006b
:1054ac005e02900094028800000088004e0290007a
:1054bc00e10f52000c0036004e0290000500200057
:1054cc000400be00daf007000002be000401be00ba
:1054dc000000200001f823009cf407000002be002d
:1054ec00048fbe00030037000400200005f82300e1
:1054fc00048fbe002e0a9000be0a90000400be006d
:10550c00c8f007000002be001e01be000400be0071
:10551c00eef107000002be000404be0034f3840068
:10552c00cfa2de000400be00bef007000002be00e9
:10553c000401be000800be00f6f007000002be0029
:10554c000403be0044f3840055f384000401be0040
:10555c000600be00ddf107000002be0064079800e3
:10556c007507980004f4840015f484000401be004f
:10557c006e009000fe009000e6f007000002be00f6
:10558c00040f9800150f9800e4f38400f5f38400e1
:10559c000401be000e1890009e1890006bf40700da
:1055ac000002be000404be000e1290009e12900079
:1055bc000400be009bf007000002be001e01be00ee
:1055cc000400be00c1f107000002be000401be00d1
:1055dc000800be00d8f007000002be000404be00a4
:1055ec00a4f48400b5f484000e0990009e09900088
:1055fc000400be00b5f107000002be000401be00ad
:10560c000800be00c3f007000002be000460880062
:10561c00156088000002eb00040078004f04be0007
:10562c000080fa00000006002c00fa00889fbe00e3
:10563c00745f8000e00f520002003a00e40020008a
:10564c00ae003700b4588000e00f520002003a0060
:10565c00d4002000a9003700007d200001002000ac
:10566c00d80d07000002be002407980035079800eb
:10567c006022b800a45f8800b55f88006022b80083
:10568c00c45f8800d55f88006022b800e45f8800a2
:10569c00f55f88002e009000be009000ee0d070014
:1056ac00140280004522de00674262000482fb0087
:1056bc00440798009402800054079800ff3ffc00b8
:1056cc00c4be200014427800674262000482fb00d2
:1056dc00670262004522dd0016028000f5f12f0002
:1056ec008502630004827200140288005e0290003e
:1056fc0094028800000088003459800045598000cd
:10570c00040f9800150f98005459800065598000bb
:10571c00240f9800350f980074598000855980002b
:10572c00440f9800550f980094598000a55980009b
:10573c00640f9800750f9800b4598000c55980000b
:10574c000417980015179800d4598000e55980006b
:10575c002417980035179800f4598000055a8000da
:10576c00441798005517980034608000640798001f
:10577c000002eb00346088009402800074079800eb
:10578c00ff3ffc004e02900004427800674262002a
:10579c000482fb00670262004522dd0016028000d5
:1057ac00f5f12f0085026300048272001402880058
:1057bc007e02900094028800000088006e02900027
:1057cc00e10f52000c0036006e0290000500200024
:1057dc000400be0016f007000002be000401be006b
:1057ec000000200001f82300d8f307000002be00df
:1057fc00048fbe00030037000400200005f82300ce
:10580c00048fbe000e1290009e1290000400be0089
:10581c0004f007000002be001e01be000400be0022
:10582c002af107000002be00a45f8800b55f880063
:10583c002e129000be1290000400be00f9ef07007b
:10584c000002be001e01be000400be001ff10700d6
:10585c000002be00c45f8800d55f88004e12900025
:10586c00de1290000400be00eeef07000002be0046
:10587c001e01be000400be0014f107000002be00b1
:10588c00e45f8800f55f88000e0a90009e0a900085
:10589c000400be00e3ef07000002be001e01be00c4
:1058ac000400be0009f107000002be000404be00a3
:1058bc0034f38400cfa2de000400be00d9ef070051
:1058cc000002be000401be000800be0011f007007b
:1058dc000002be000403be0044f3840055f38400b0
:1058ec000401be000600be00f8f007000002be0076
:1058fc00845f8800955f88000002eb00040078004c
:10590c004f04be000080fa00000006000e00fa00f2
:10591c00008fbe00220798003307980044079800b8
:10592c0055079800660798006e0290003e1a7800a2
:10593c002e1278006e0290002e039000be03900091
:10594c0026029800370298006e0290004e039000d9
:10595c00de03900046029800570298006e029000f9
:10596c00040078000080fa00000006000400fa0031
:10597c00000f7800110798001e0278001402be0078
:10598c001e039000048bbe001e027800b40290002f
:10599c00240290001e039000240398003503980005
:1059ac001e027800d4029000440290001e03900066
:1059bc0044039800550398001e02900004007800e0
:1059cc000080fa00000006000600fa00889fbe0066
:1059dc00000f780011079800220798001e0278002b
:1059ec0024039000b40390001e029000d402900097
:1059fc00440290000401be000600be00b3f0070094
:105a0c000002be000404be001e0278004403900095
:105a1c00d40390001e029000b40290002402900067
:105a2c000401be000600be00a8f007000002be0084
:105a3c000401be000800be00b6ef07000002be0065
:105a4c002e039000048bbe001e02780044039000cd
