:020000040000fa
:080000000002040000000000f2
:020000040000fa
:10040000efcb20000e7f22000e01880000000000cc
:100410000c000700606f220001002000110007009f
:10042000000020000000e000020032000000020096
:1004300000000000462b0200000000000040da002f
:100440000000fe004440a900600520000000e0001c
:100450000300320000002000a00188004440a800f2
:100460000000060091018800800078000000eb0089
:1004700015003700e280400032a0b4009101ba00bc
:10048000e280400032a0b4009102ba00e280400055
:1004900032a0b4000002eb00472bde00f507b200eb
:1004a000602ce10004003a000059eb008301e900f0
:1004b000fdff3e00040037006128e100010032002a
:1004c0000082eb00040007001101ba000200e00006
:1004d000e8ff3a00000006003159ba008301e90044
:1004e0000c0032002159ba008301e90008003200f3
:1004f0000400e00003003a00e280400032a0b400b3
:10050000f5ff370011d9ba008301e900faff3a007c
:100510008100e800e180400032a0b4000000060045
:1005200032380400000000009803040000000000be
:10053000809fbe00829fbe000000fa008460a90078
:10054000f06480000165800061004000e0804800a8
:10055000f064880001658800f26480000365800013
:100560001065800021658000800f5100818f590047
:10057000080036000080eb008080eb0010658800ea
:100580002165880030658000e00f500001003200d6
:100590008bc0a8000080fa004f01be004f00be00d3
:1005a000004006003600f800809fbe00829fbe001b
:1005b000849fbe00869fbe000200fa008bc0a90087
:1005c00030658000000f78001e007800e00f5000ba
:1005d000020032001e007800000001000080fa00d6
:1005e0004f03be004f02be004f01be004f00be00d1
:1005f0003600f900004006003600f800809fbe007b
:10060000829fbe00849fbe00869fbe000200fa004b
:100610008620a9004010800070006000e00f5000ac
:100620001a0032009620a9000000eb0070658800d7
:100630008065800000407800614060000080fb0021
:10064000610060004400dd00b2048000f1fe2f0074
:100650008100610000807000b00488009065800017
:1006600000407800614060000080fb006100600095
:100670004d00dd00b2048000f1ff2d00810061001b
:1006800000807000b00488000900370070658000a9
:10069000000f78001e007800e00f500003003200c9
:1006a0001e0078000000010001003700000000007b
:1006b0000080fa004f03be004f02be004f01be0093
:1006c0004f00be003600f900004006000000fa00ae
:1006d0008600a9000080fa00004006003600f800fd
:1006e000809fbe00829fbe00849fbe00869fbe008a
:1006f0000000fa008680a90080392000ac150700b0
:10070000e00f500003003a000000eb002064880076
:100710000602a8000080fa004f03be004f02be0090
:100720004f01be004f00be003600f9000040060039
:100730000200fa008620a900411080000000280075
:1007400000806000e00f50000f003a004110800070
:100750000040200000806000e00f50000a003a00d6
:10076000411080000008200000806000e00f500071
:1007700005003a0041108000000420000080600065
:10078000e00f500002003200e9150700f0003700ca
:10079000206480000100200072002000030020007f
:1007a000820f5000838f5800e6003e000060010079
:1007b000070037000f00370013003700160037001e
:1007c0001d00370023003700380037003c00370099
:1007d000c0d02800104078008080fb00e00f20008f
:1007e0000080600010108800100020002064880045
:1007f000d6003700b0032000101088002000200031
:1008000020648800d10037000622a80030002000b4
:1008100020648800cd003700c0d028001040780048
:100820000004a0000080fb001010880040002000a1
:1008300020648800c500370008c2a9000662a8002d
:100840000000eb0040648800500020002064880015
:10085000be00370042648000001080000040780035
:10086000e1b92000810041008048780040648000a8
:100870000000e8004064880040648000ed0f5000f4
:1008800005003e0006a2a9000682a8006000200024
:1008900020648800ad00370006a2a8000682a800e8
:1008a0007000200020648800a800370008c2a9005a
:1008b0000662a8005000200020648800a3003700d2
:1008c0009b1507009ecbbf00104798009fcbbf0031
:1008d000004f78001e0078000000ea00cf80de00a4
:1008e000805e8800915e8800a0cbbf001047980012
:1008f000a1cbbf00004f78001e0078000000ea0086
:10090000cf80de00605e8800715e8800a2cbbf00f1
:1009100010479800a3cbbf00004f78001e0078005e
:100920000000ea00cf80de00a05e8800b15e880093
:10093000a4cbbf0010479800a5cbbf00004f7800a4
:100940001e007800cf80de00405e8800515e880087
:10095000a6cbbf0010479800a7cbbf00004f780080
:100960001e0078000000ea00cf80de00e05e880014
:10097000f15e8800a8cbbf0010479800a9cbbf004c
:10098000004f78001e0078000000ea00cf80de00f3
:10099000c05e8800d15e8800aacbbf0010479800d7
:1009a000abcbbf00004f78001e0078000000ea00cb
:1009b000cf80de00005f8800115f8800c05c80008f
:1009c000d15c800061004000e0804800c05c88008d
:1009d000d15c880030648000e00f50001d003a00b8
:1009e000605e8000715e8000805d8800915d88009f
:1009f000805e8000915e8000a05d8800b15d88000f
:100a0000a05e8000b15e8000c05d8800d15d88007e
:100a1000405e8000515e8000605d8800715d8800ee
:100a2000c05e8000d15e8000e05d8800f15d8800de
:100a3000e05e8000f15e8000005e8800115e88004c
:100a4000005f8000115f8000205e8800315e8800ba
:100a500038003700825d8000935d8000605e80001a
:100a6000715e80000200400083804800805d880045
:100a7000915d8800a25d8000b35d8000805e800093
:100a8000915e80000200400083804800a05d8800e5
:100a9000b15d8800c25d8000d35d8000a05e8000f3
:100aa000b15e80000200400083804800c05d880085
:100ab000d15d8800625d8000735d8000405e8000d3
:100ac000515e80000200400083804800605d880025
:100ad000715d8800e25d8000f35d8000c05e800093
:100ae000d15e80000200400083804800e05d880005
:100af000f15d8800025e8000135e8000e05e800091
:100b0000f15e80000200400083804800005e8800a3
:100b1000115e8800225e8000335e8000005f8000ee
:100b2000115f80000200400083804800205e880042
:100b3000315e8800306480000000e8003064880086
:100b400002003700fa14070001003700000000001f
:100b50000080fa0000000600809fbe00829fbe0059
:100b60000000fa0021e3a900001880006101b8002c
:100b7000706480008164800002004000838048002f
:100b80007064880081648800906480000000e80040
:100b90009064880091648000f0032000808f5000f2
:100ba0001400360070648000816480000002b00090
:100bb0000180b0004a09dd004600de00000071003f
:100bc000c608de0000007800606488000002200093
:100bd000906488007064800081648000610040003f
:100be000e08048008100d1000080d300706488005c
:100bf0008164880085a0a90021e3a8000080fa0094
:100c00004f01be004f00be0000400600809fbe00a6
:100c10000000fa000000eb00506188000000eb00cb
:100c2000606188003262a9003242a9003222a90024
:100c3000b05f8000c15f800061004000e08048003c
:100c4000b05f8800c15f88008c40a9000080fa0076
:100c50004f00be0000400600809fbe00829fbe0085
:100c60000400fa008c003700b01180002047980083
:100c70000000eb00000f780000d6280090407800bc
:100c80002e40900080cf500003003a00100020005a
:100c9000000f78000700370010d628009040780039
:100ca0002e40900080cf500002003a00200020002b
:100cb000000f7800506180006300b90000007800e8
:100cc0001e0040008000400000c020000080400066
:100cd0001000780050618800506180000100200001
:100ce0006200200003002000820f5000838f580014
:100cf00069003e00006001006600370065003700b3
:100d0000640037000300370062003700120037002c
:100d10003300370061618000d05f8000808f500019
:100d200009003100616180000090200000804000d7
:100d3000ae40900001487800606180000000e8004b
:100d40006061880054003700d05f80000000e80038
:100d5000606188005000370061618000d05f8000d2
:100d6000808f50000a0031006261800010d6280098
:100d700010407800019020008100410080487800f8
:100d8000606180000000e8006061880003003700b7
:100d9000d05f80000000e800606188006161800031
:100da000d05f8000808f50000900310061618000b9
:100db0000090200000804000ae4090000148780084
:100dc000606180000000e800606188003200370048
:100dd000d05f80000000e800606188002e003700ce
:100de00061618000d05f8000808f50001e003e0057
:100df00060618000e00f500021003200705f8000d1
:100e0000815f800061004000e0804800705f8800e2
:100e1000815f88000000eb00f05f88000b00370066
:100e2000f25f8000f15f80000090200000804000b1
:100e3000104078000188200081004100804878003f
:100e4000f05f80000000e800f05f8800f15f800044
:100e500060618000808f5000f1ff39001000200099
:100e6000e05f880006003700905f8000a15f80008f
:100e700061004000e0804800905f8800a15f88002a
:100e80000000eb00506188000000eb00606188000a
:100e90000100370000000000901180006100600038
:100ea000e00f500070ff3a0087c0a9000080fa00f0
:100eb0004f01be004f00be0000400600809fbe00f4
:100ec0000000fa00405f8000e00f50001600320082
:100ed0000c003700515f800000802000008040003f
:100ee000104078000080fb0020118800505f8000d7
:100ef0000000e800505f8800405f80000000e900cb
:100f0000405f8800405f8000e00f50001200320018
:100f1000111180000020200000806000e00f5000d0
:100f2000ecff32000c00370010d62800104078008b
:100f30000080fb00201188000000000010d628006f
:100f4000104078000080fb00201188009580a900e7
:100f500010002000305f88008580a9000080fa0022
:100f60004f00be00004006000040da000000fe0016
:100f70006011b8002f013700889fbe008a9fbe0015
:100f80008c1f78005a0107006101330003866c0052
:100f90006450e1002e0032006420e1003300320092
:100fa0006150e1002f0032006120e1003100320089
:100fb00085855500eb07b0000900200008042000db
:100fc000050037000804440089844c000a00310001
:100fd0000603430087834b000001530081815b00bf
:100fe000f8ff33000203be000800a000080444001c
:100ff00089844c00f6ff3900c639dd008301730097
:1010000001003200130020008904d1000884d300bd
:101010000998a300050032000800a7000300a00003
:101020008904d1000884d3008b05e8008904d1002d
:101030000884d3000001eb000281d20044010700c4
:1010400001f0a1000cf0a70001f0a0003901370069
:101050006420e1003b0132000801be000200be0036
:10106000f7ff37006120e100360132006000b80070
:10107000f3ff37000000200001f82700f0ff3700e1
:101080004f89de008201780057013700889fbe003b
:101090008a9fbe008c1f7800150107001c013300d9
:1010a00003866c006450e100240032006420e100fb
:1010b000270032006150e100220032006120e1008f
:1010c000210032008b854200eb07b1000134b800eb
:1010d000003ab8000804420089844a00013ab80086
:1010e0000030b8008880400009014a000400330045
:1010f0000000400081804800020149008b05e900a2
:10110000c909dd00830170000100320013002000d6
:10111000c814de004814dd004709de001200b200ea
:10112000c808de00088470000901070001f0a10072
:101130000cf0a70001f0a000fe0037006120e100e4
:10114000000132000801be000200be00f7ff3700b8
:101150006150e100fcff3a00fa00370003f0a20002
:10116000889fbe008a9fbe008c1f7800e0000700a9
:10117000e70033006450e1004f0032006420e100da
:101180005200320003826c0007003b000905d000ca
:101190000306d000820f54000c065d0002003900e7
:1011a000020032008901780003067800858255002c
:1011b00004003d000003fd008103fd008502ea00fc
:1011c0008b854200840f720002003b00600010001b
:1011d000e08018006011b8000005eb007a28e100fb
:1011e0000a00390006007800c75ddd00f707b2008d
:1011f000878075002d003700828171000a01780018
:10120000610560008180d1000080d3008502e90083
:10121000f9ff3b00060440008784480002003b00c1
:1012200060041400e0841c000988a3000700320059
:101230008a81710082817100610164008904d1009a
:101240000884d3008b05e800170037000978a30055
:1012500013003a000b00e000130034008b05e90096
:101260000804440089844c000a4474000978a300ef
:101270000d003a000b00e000070034008b05e90088
:101280000804440089844c0001003a000b0020004f
:101290000978a300f7ff32000001eb0002003700dd
:1012a000828171000a017800a90007000cf0a700f4
:1012b00001f0a0009f0037006420e10002003a0026
:1012c000838f6c009f0033000801be000200be0047
:1012d00098003700f4ff2f00d3003700889fbe002e
:1012e0008a9fbe008c1f78000004be00e900070042
:1012f0000478a30026003a006120e10025003200b6
:1013000009f8a30025003a006420e1002100320022
:10131000f507b1000508a3000200320000004000fc
:10132000818048006044b8000310200002002000c3
:1013300000004000818048000805440089854c0079
:101340000a0541008b8549000a0550008b8558002d
:10135000030033000a00be0002047400838474009a
:101360008301d1000281d300830f7100f0ff3a00a6
:101370008904d1000884d30060014900820178000b
:10138000c1adde00fb07b000710007006900370047
:101390000960a0000800be006600370012022000ad
:1013a000e2658800f0ff2f00f1ff270061003700a1
:1013b000140020009c003700889fbe008a9fbe005a
:1013c0008c1f78004a0007001002200002003b003a
:1013d000e06588004e0037008a0062006408e10082
:1013e00002003a00e0658800560037006108e1001d
:1013f000fcff32000800be0003047800defe070098
:1014000001f0a100b800070008f0a60004003700b2
:101410000001be0091042400b0fd20004fff070032
:1014200009f0a70001f0a200420037000001eb0024
:1014300012013700889fbe008a9fbe0000827000a4
:101440000402710004827100260032000004be0014
:101450000200be006011b8006b0920009502200058
:101460000182cf000a0039000541b1000082cf009f
:10147000070039000541b1000982cf00040039009e
:101480000541b1000882cf00010039000541b100db
:1014900005425200120032000a003b0082817100b6
:1014a000610164008100d1000080d3008984d300f1
:1014b0000884d3008b05e8000442e800f7ff3a00f7
:1014c000070037000804440089844c0000004800ed
:1014d000818048008b05e9000442e900f9ff3a00e9
:1014e0001b0007004f05be004f04be0000000600b1
:1014f0000004be00670007000003be000405be0034
:101500000200be0063000700844f75000000060063
:101510000200be006450e100050036006420e100d6
:10152000020036000968a30001003a000800be006e
:101530000160a0004f0678004f05be004f04be00ba
:1015400000000600f0ff2f00f1ff2700f9ff370031
:1015500081002000618055000b003d000b00200041
:1015600061fe2f000100e1001d0034008281710046
:10157000610164008904d1000884d3000000e80000
:10158000faff3a007100200061006400030070005f
:10159000020060000900320061044400e0844c0055
:1015a0000988a500050032008b05e8006808e10005
:1015b00002003a008904d1000884d300f20f200011
:1015c0000258e10005003d00c75ddd00f907b200eb
:1015d0008980750008007800000006000bf82700dd
:1015e0008b00780000000500881f78000304780055
:1015f0000300e00007003d0060001000e0801800dc
:1016000060011900e081190002003b0001f02d008b
:101610000300370087ff070008f0a70001f0a000d3
:101620004f04780000000600889fbe008a9fbe001d
:10163000841f7800aeff07004f00780011003300d0
:10164000f0ff2f00838f6c0006003b00040565004f
:101650000a00a7000800370009f0a60010002000cb
:1016600008003700820f5400838f5c0003003900ac
:101670001000200001003e000000200009f0a7003b
:101680000000ea004f05be004f04be000000e0006d
:1016900000000600c70ade00f107b200f50fb20035
:1016a00008003200e1cf4200020032000170a000c9
:1016b00024000500810f70000100320004080500bd
:1016c00044000500810f700002003a00140005007c
:1016d0008502e9000000400081c04800fcff3b009b
:1016e0000170a00024000500889fbe008a9fbe00f4
:1016f0008c9fbe000004be00e6ff07000800be008d
:10170000890678006420e1000800390004003200f6
:101710000160a00012022000e2658800530037003b
:1017200091fc2300b0fd20004e0037000006eb00c6
:1017300009f0a10003f82300020020000800be0009
:101740001bff07000600340001f823000000200002
:101750000801be0008fe07000004be002c002000a7
:101760000800be0093e82300320a230010ff0700a0
:10177000120034000801be00d1fd2300703d2b0093
:1017800077fe07000005be00b3f32300f27a2600bf
:101790000800be003dfe070003f823000200200001
:1017a0006efe07000801be006dfe07000a01be00c4
:1017b000f1fd07000004be000c06e8000800be00b2
:1017c00001f0a1000200200003982300f8fe0700aa
:1017d0000800be00160035000801be002bfe070001
:1017e0000005be0032cd2c0043fb23005cfe070049
:1017f000809fbe001269280003d52b000a00be009e
:1018000022fe0700620f210013ef2b0054fe070099
:101810000a01be001dfe07004f01be00d6fd0700f5
:101820000801be0019fe07000801be004cfe0700bb
:101830000c00e0000b0032000c10a70001f0a20029
:10184000b2fd200093fc23006260e100040032003e
:1018500022a9200063f023000c10a70063f82300e6
:101860003ffe07000df0a70001f0a2004f06be00ea
:101870004f05be004f04be0000000600889fbe005a
:101880008a9fbe008c9fbe000206780001f0a70070
:101890000cf0a0000004be007eff07000800be00a0
:1018a0006420e1000700390002003a00f1ff270040
:1018b000f0ff2f000160a00012022000e265880006
:1018c0005100370009f0a1000800be00020020000e
:1018d00003f823007ffe0700f4ff3c000800be0071
:1018e0000200200003982300b1fe07000800be009c
:1018f000300035000200200003f0230075fe0700d1
:1019000005003c000800be000801be00dffd070026
:101910000005be000e0037000c10a20000002000e1
:1019200001f823000801be000cfe070002002000a1
:1019300003f02300d5fd07000005be0067fe070089
:101940000200200003002c00d0fd07000004be00b0
:101950000a00be00b2d02800130b2c0000fe0700c6
:101960000a01be00c9fd0700020f2500330b240049
:10197000fbfd0700809fbe000a00be005206220049
:1019800013f02b00c1fd0700b2662100f3f623001f
:10199000f3fd07000a01be00bcfd07004f01be00b9
:1019a00075fd07000801be00b8fd07000801be0074
:1019b000ebfd07000c00a70007003700b2fd200078
:1019c00093fc23000c10a700e5fd07000cf0a70016
:1019d00001f0a2000c0037000cf0a7000200370055
:1019e00001f0a20004003700b2fd2000930424009f
:1019f0000c10a60003003700b2fd200093fc23006a
:101a00000c10a700d6fd07004f06be004f05be0014
:081a10004f04be0000000600b7
:020000040000fa
:0200000401f009
:04000c0078ff000079
:020000040000fa
:0200000401f009
:040010005eff00008f
:020000040000fa
:0200000401f009
:040014007fff00006a
:020000040000fa
:0200000401f009
:04001800eeff0000f7
:020000040000fa
:0200000401f009
:04001c00dfff000002
:020000040000fa
:10000800b4070000b4070000b4070000b4070000fc
:10001800b4070000b4070000b4070000b4070000ec
:10002800b4070000b4070000b407000098020000fd
:10003800b4070000b4070000b4070000b4070000cc
:10004800b4070000b4070000b4070000b4070000bc
:100058005e070000ac050000b4070000b40700000c
:1000680066030000fc020000b4070000b4070000ab
:100078006e030000b4070000b4070000b4070000d6
:10008800b4070000b4070000b4070000b40700007c
:10009800b4070000b40700002c060000b4070000f5
:1000a800b4070000b4070000b4070000b40700005c
:1000b800b4070000b4070000b4070000b40700004c
:1000c800b4070000b4070000b4070000b40700003c
:1000d800b4070000b4070000b4070000b40700002c
:1000e800b4070000b4070000b4070000b40700001c
:1000f800b4070000b4070000b4070000b40700000c
:10010800b4070000b4070000b4070000b4070000fb
:10011800b4070000b4070000d2020000b4070000d2
:10012800b4070000b407000006060000b40700008a
:10013800b4070000b4070000b4070000b4070000cb
:10014800b4070000b4070000b4070000b4070000bb
:10015800b4070000b4070000b4070000b4070000ab
:10016800b4070000b4070000b4070000b40700009b
:10017800b4070000b4070000b4070000b40700008b
:10018800b4070000b4070000b4070000b40700007b
:10019800b4070000b4070000b4070000b40700006b
:1001a800b4070000b4070000b4070000b40700005b
:1001b800b4070000b4070000b4070000b40700004b
:1001c800b4070000b4070000b4070000b40700003b
:1001d800b4070000b4070000b4070000b40700002b
:1001e800b4070000b4070000b4070000b40700001b
:0801f800b4070000b407000089
:020000040000fa
:10020800b4070000b4070000b4070000b4070000fa
:10021800b4070000b4070000b4070000b4070000ea
:10022800b4070000b4070000b407000098020000fb
:10023800b4070000b4070000b4070000b4070000ca
:10024800b4070000b4070000b4070000b4070000ba
:100258005e070000ac050000b4070000b40700000a
:1002680066030000fc020000b4070000b4070000a9
:100278006e030000b4070000b4070000b4070000d4
:10028800b4070000b4070000b4070000b40700007a
:10029800b4070000b40700002c060000b4070000f3
:1002a800b4070000b4070000b4070000b40700005a
:1002b800b4070000b4070000b4070000b40700004a
:1002c800b4070000b4070000b4070000b40700003a
:1002d800b4070000b4070000b4070000b40700002a
:1002e800b4070000b4070000b4070000b40700001a
:1002f800b4070000b4070000b4070000b40700000a
:10030800b4070000b4070000b4070000b4070000f9
:10031800b4070000b4070000d2020000b4070000d0
:10032800b4070000b407000006060000b407000088
:10033800b4070000b4070000b4070000b4070000c9
:10034800b4070000b4070000b4070000b4070000b9
:10035800b4070000b4070000b4070000b4070000a9
:10036800b4070000b4070000b4070000b407000099
:10037800b4070000b4070000b4070000b407000089
:10038800b4070000b4070000b4070000b407000079
:10039800b4070000b4070000b4070000b407000069
:1003a800b4070000b4070000b4070000b407000059
:1003b800b4070000b4070000b4070000b407000049
:1003c800b4070000b4070000b4070000b407000039
:1003d800b4070000b4070000b4070000b407000029
:1003e800b4070000b4070000b4070000b407000019
:0803f800b4070000b407000087
:020000040000fa
:101a1800d00000007bcf0000c1c00000403b0000a8
:101a2800787d00008b3a0000713d00004abf00003d
:101a38009a990000993f00005d6d0000c5bd000047
:101a4800000000008038000000000000c8410000cd
:101a5800cdcc000014c20000ae470000d1c0000089
:101a68000000000090c200001f8500001741000020
:101a780000300000054500000ad70000fc420000c5
:101a88006f120000833b00006f120000833b0000d0
:101a9800bd370000863600004541000000410000c7
:101aa8000054000000000000070300003601000099
:0c1ab8000cc900007d3b000055aa000096
:020000040000fa
:101ac4000600fa00889fbe00000f780011079800f6
:101ad400220798001e0078001002be001e0090002d
:101ae4001000be000001be000400be0066fd070039
:101af4000004be001e00780020029000b002900096
:101b04001e009000f0009000600090000001be00f4
:101b14000400be005cfd07000001be000800be001a
:101b24008efd07000004be001e00780040029000f5
:101b3400d00290001e009000d00890004008900051
:101b44000001be000400be004ffd07000001be00fe
:101b54000800be0081fd07002e0190000089be0030
:101b64001e0078001002be001e009000b00090001d
:101b7400200090000001be000400be0042fd0700ea
:101b84000004be001e00780020029000b002900005
:101b94001e00900090089000000890000001be0014
:101ba4000400be0038fd07000001be000800be00ae
:101bb4006afd07000004be001e0078004002900089
:101bc400d00290001e009000f00890006008900081
:101bd4000001be000400be002bfd07000001be0092
:101be4000800be005dfd07002e0190002001980052
:101bf400310198001e0078001002be001e00900003
:101c0400d0009000400090000001be000400be001f
:101c14001dfd07000004be001e0078002002900095
:101c2400b00290001e009000b008900020089000c0
:101c34000001be000400be0013fd07000001be0049
:101c44000800be0045fd07000004be001e00780029
:101c540040029000d00290001e009000901090006e
:101c6400001090000001be000400be0006fd070045
:101c74000001be000800be0038fd07002e019000e0
:101c840040019800510198001e0078006002900005
:101c9400f00290001e0090001000be000001be0083
:101ca4000400be00f8fc07000004be001e0078001b
:101cb400000a9000900a90001e009000f00090002e
:101cc400600090000001be000400be00eefc0700ae
:101cd4000001be000800be0020fd07000004be0095
:101ce4001e007800200a9000b00a90001e009000a8
:101cf400d0089000400890000001be000400be001f
:101d0400e1fc07000001be000800be0013fd07004f
:101d14002e01900060019800710198001e00780067
:101d240060029000f00290001e009000b00090004d
:101d3400200090000001be000400be00d2fc070099
:101d44000004be001e007800000a9000900a900073
:101d54001e00900090089000000890000001be0052
:101d64000400be00c8fc07000001be000800be005d
:101d7400fafc07000004be001e007800200a900050
:101d8400b00a90001e009000f008900060089000d7
:101d94000001be000400be00bbfc07000001be0041
:101da4000800be00edfc07002e0190000009980019
:101db400110998001e00780060029000f002900063
:101dc4001e009000d0009000400090000001be0072
:101dd4000400be00acfc07000004be001e00780036
:101de400000a9000900a90001e009000b008900035
:101df400200890000001be000400be00a2fc070001
:101e04000001be000800be00d4fc07000004be00b0
:101e14001e007800200a9000b00a90001e00900076
:101e240090109000001090000001be000400be005d
:101e340095fc07000001be000800be00c7fc0700b7
:101e44002e01900020099800310998001e007800a6
:101e5400400a9000d00a90001e0090001000be00be
:101e64000001be000400be0087fc07000004be00a1
:101e74001e007800600a9000f00a90001e00900096
:101e8400f0009000600090000001be000400be005d
:101e94007dfc07000001be000800be00affc070087
:101ea4000004be001e007800001290009012900002
:101eb4001e009000d0089000400890000001be0071
:101ec4000400be0070fc07000001be000800be0054
:101ed400a2fc07002e0190004009980051099800c7
:101ee4001e007800400a9000d00a90001e00900066
:101ef400b0009000200090000001be000400be006d
:101f040061fc07000004be001e007800600a900017
:101f1400f00a90001e0090009008900000089000c5
:101f24000001be000400be0057fc07000001be0013
:101f34000800be0089fc07000004be001e007800f3
:101f440000129000901290001e009000f008900083
:101f5400600890000001be000400be004afc0700b7
:101f64000001be000800be007cfc07002e019000aa
:101f740060099800710998001e007800400a9000da
:101f8400d00a90001e009000d00090004000900005
:101f94000001be000400be003bfc07000004be00bc
:101fa4001e007800600a9000f00a90001e00900065
:101fb400b0089000200890000001be000400be009c
:101fc40031fc07000001be000800be0063fc0700ee
:101fd4000004be001e0078000012900090129000d1
:101fe4001e00900090109000001090000001be00b0
:101ff4000400be0024fc07000001be000800be006f
:1020040056fc07002e019000001198001111980051
:102014002e0090004f04be000080fa00000006006d
:102024000600fa00889fbe00000f78001107980090
:10203400220798001e0078001002be001e009000c7
:102044001000be000001be000400be000efc07002c
:102054000004be001e00780020029000b002900030
:102064001e009000b0009000200090000001be000f
:102074000400be0004fc07000001be000800be000e
:1020840036fc07000004be001e00780040029000e9
:10209400d00290001e009000d000900040009000fc
:1020a4000001be000400be00f7fb07000001be00f3
:1020b4000800be0029fc07002e0190000089be0024
:1020c4001e00780060029000f00290001e00900054
:1020d4001000be000001be000400be00eafb0700c1
:1020e4000004be001e007800000a9000900a9000d0
:1020f4001e009000b0009000200090000001be007f
:102104000400be00e0fb07000001be000800be00a2
:1021140012fc07000004be001e007800200a900094
:10212400b00a90001e009000d00090004000900083
:102134000001be000400be00d3fb07000001be0086
:102144000800be0005fc07002e0190002001980045
:10215400310198001e007800400a9000d00a9000d7
:102164001e0090001000be000001be000400be006e
:10217400c5fb07000004be001e007800600a900042
:10218400f00a90001e009000b00090002000900023
:102194000001be000400be00bbfb07000001be003e
:1021a4000800be00edfb07000004be001e0078001e
:1021b40000129000901290001e009000d000900039
:1021c400400090000001be000400be00aefb07000a
:1021d4000001be000800be00e0fb07002e019000d5
:1021e40040019800510198002e0090004f04be0059
:1021f4000080fa00000006000600fa00889fbe0076
:10220400000f780011079800220798001e00900024
:102214001002be001e0078001000be000001be00c7
:102224000400be0098fb07000004be001e009000de
:1022340020029000b00290001e007800f000900090
:10224400600090000001be000400be008efb070089
:102254000001be000800be00c0fb07000004be0071
:102264001e00900040029000d00290001e007800f2
:10227400d0089000400890000001be000400be0099
:1022840081fb07000001be000800be00b3fb07008d
:102294002e0190000089be001e0090001002be00b6
:1022a4001e007800b0009000200090000001be00e5
:1022b4000400be0074fb07000004be001e00900072
:1022c40020029000b00290001e0078009008900058
:1022d400000890000001be000400be006afb070075
:1022e4000001be000800be009cfb07000004be0005
:1022f4001e00900040029000d00290001e00780062
:10230400f0089000600890000001be000400be00c8
:102314005dfb07000001be000800be008ffb070044
:102324002e01900020019800310198001e009000b9
:102334001002be001e007800d00090004000900003
:102344000001be000400be004ffb07000004be00f5
:102354001e00900020029000b00290001e00780041
:10236400b0089000200890000001be000400be00e8
:1023740045fb07000001be000800be0077fb070014
:102384000004be001e00900040029000d0029000a5
:102394001e00780090109000001090000001be0014
:1023a4000400be0038fb07000001be000800be00a8
:1023b4006afb07002e01900040019800510198002b
:1023c4002e0090004f04be000080fa0000000600ba
:1023d4000c00fa00889fbe0040079800510798003f
:1023e4006000b800008fbe004e0090001002be00d6
:1023f4004e009000f0009000600090000001be00cc
:102404000400be0020fb07000004be004e00900044
:1024140020029000b00290004e00900090089000be
:10242400000890000001be000400be0016fb070077
:102434000001be000800be0048fb07000004be0007
:102444004e00900040029000d00290004e00900098
:10245400b0089000200890000001be000400be00f7
:1024640009fb07000001be000800be003bfb07009b
:10247400008fbe0002002000030024001e00be00e6
:10248400bcfa0700008fbe004e0090001004be008e
:102494004e009000f0009000600090001e01be000d
:1024a400f9fa07000001be000800be002afb07007d
:1024b4005e0190000089be004e0090002004900050
:1024c400b00490004e009000900890000008900026
:1024d4001e01be00ecfa07000001be000800be00a9
:1024e4001dfb07005e019000200198003101980057
:1024f4004e00900040049000d00490004e009000e4
:10250400b0089000200890001e01be00defa07000b
:102514000001be000800be000ffb07005e01900032
:1025240040019800510198004e0090006004900012
:10253400f00490004e0090001000be001e01be008a
:10254400d1fa07000001be000800be0002fb07002c
:102554005e01900060019800710198004e009000a7
:10256400000c9000900c90004e009000b000900081
:10257400200090001e01be00c3fa07000001be0047
:102584000800be00f4fa07005e01900000099800fc
:10259400110998004e009000200c9000b00c90009f
:1025a4004e009000d0009000400090001e01be003c
:1025b400b5fa07000001be000800be00e6fa0700f5
:1025c4005e01900020099800310998004e009000a7
:1025d40020029000b00290004e009000b0089000dd
:1025e400200890000001be000400be00a6fa070007
:1025f4000004be004e00900040029000d002900003
:102604004e00900090089000000890000001be0069
:102614000400be009cfa07000001be000800be00d2
:10262400cdfa07005e019000400998005109980016
:102634004e00900040029000d00290004e009000a6
:10264400f0009000600090000001be000400be0095
:102654008dfa07000004be004e0090001002be0078
:102664004e009000b0089000200890000001be00c9
:102674000400be0084fa07000001be000800be008a
:10268400b5fa07005e01900060099800710998008e
:102694004e0090001002be004e0090009008900082
:1026a400000890000001be000400be0076fa070096
:1026b4000004be004e00900020029000b002900082
:1026c4004e009000f0009000600090000001be00f9
:1026d4000400be006cfa07000001be000800be0042
:1026e4009dfa07005e0190000011980011119800f6
:1026f4005e0090001002be005e0090001000be005c
:102704000001be000400be005ffa07000004be0022
:102714005e00900020029000b00290005e009000e5
:10272400b0009000200090000001be000400be0034
:1027340055fa07000001be000800be0087fa070032
:102744000004be005e00900040029000d0029000a1
:102754005e009000d0009000400090000001be0098
:102764000400be0048fa07000001be000800be00d5
:102774007afa07000001be000000200001042400d2
:1027840075fa07000200200003002400f9f907008d
:1027940020079800310798005e0090001000be00ea
:1027a4002e019000be01900037fa07005e019000f0
:1027b4000089be005e009000b000900020009000f0
:1027c4002e019000be0190002ffa07005e019000d8
:1027d40020019800310198005e009000d000900024
:1027e400400090002e019000be01900026fa0700e0
:1027f4005e01900040019800510198005e00900035
:1028040060029000f00290005e009000f0009000e2
:10281400600090000001be000400be001afa070028
:102824000004be005e009000000a9000900a900030
:102834005e00900090089000000890000001be0027
:102844000400be0010fa07000001be000800be002c
:1028540042fa07000004be005e009000200a9000c7
:10286400b00a90005e009000b0089000200890002c
:102874000001be000400be0003fa07000001be0010
:102884000800be0035fa07000001be000000200069
:102894000104240030fa0700020020000300240091
:1028a400b4f9070020079800310798005e009000f3
:1028b400f0009000600090002e019000be01900096
:1028c400f1f907005e019000600198007101980021
:1028d4005e00900090089000000890002e01900087
:1028e400be019000e8f907005e019000000998001d
:1028f400110998005e009000b00890002008900034
:102904002e019000be019000dff907005e019000e7
:1029140020099800310998005e009000400a900058
:10292400d00a90005e009000d0089000400890000b
:102934000001be000400be00d3f907000004be007d
:102944005e009000600a9000f00a90005e00900023
:10295400f0089000600890000001be000400be0072
:10296400c9f907000001be000800be00fbf907001a
:102974000004be005e0090000012900090129000cf
:102984005e00900090109000001090000001be00c6
:102994000400be00bcf907000001be000800be0030
:1029a400eef907000001be0000002000010424002d
:1029b400e9f9070002002000030024006df9070074
:1029c40020079800310798005e009000d00890001e
:1029d400400890002e019000be019000aaf9070063
:1029e4005e01900040099800510998005e00900033
:1029f400f0089000600890002e019000be01900045
:102a0400a1f907005e01900060099800710998001f
:102a14005e00900090109000001090002e01900035
:102a2400be01900098f907005e0190000011980023
:102a3400111198005e0090004f04be000080fa005f
:102a4400000006000e00fa00008fbe002207980066
:102a540033079800440798005507980066079800c4
:102a64006e0090003e1878002e1078006e009000e2
:102a74002e019000be0190002200980033009800bf
:102a84006e0090004e019000de019000420098001c
:102a9400530098006e0090000080fa0000000600c9
:102aa4000400fa00000f7800110798001e00780057
:102ab4001000be001e0190000089be001e007800b8
:102ac400b0009000200090001e01900020019800aa
:102ad400310198001e007800d00090004000900062
:102ae4001e01900040019800510198001e009000c2
:102af4000080fa00000006000600fa00889fbe006d
:102b0400000f780011079800220798001e00780033
:102b140020029000b00290001e009000d0009000af
:102b2400400090000001be000400be0056f90700fa
:102b34000004be001e00780040029000d002900005
:102b44001e009000b0009000200090000001be0024
:102b54000400be004cf907000001be000800be00de
:102b64007df907002e0190000089be001e00780048
:102b740040029000d00290001e0090001000be00a1
:102b84000001be000400be003ff907000004be00bf
:102b94001e0078001002be001e009000d0009000bd
:102ba400400090000001be000400be0036f907009a
:102bb4000001be000800be0067f907002e01900066
:102bc40020019800310198001e0078001002be0018
:102bd4001e009000b0009000200090000001be0094
:102be4000400be0028f907000004be001e0078009f
:102bf40020029000b00290001e0090001000be0061
:102c04000001be000400be001ff907000001be0061
:102c14000800be0050f907002e0190004001980002
:102c2400510198002e0090004f04be000080fa006d
:102c3400000006000600fa00000f78001107980053
:102c4400220798001e0078001002be001e009000ab
:102c54001000be000001be000400be003ff90700e2
:102c64002e0190000089be001e0078002002900012
:102c7400b00290001e009000b00090002000900070
:102c84000001be000400be0034f907002e019000cc
:102c940020019800310198001e0078004002900045
:102ca400d00290001e009000d000900040009000e0
:102cb4000001be000400be0028f907002e019000a8
:102cc40040019800510198002e0090000080fa0005
:102cd400000006000800fa00000f780012079800b0
:102ce40023079800310798001e0078001000be00ea
:102cf4001e019000ae019000e3f807003e01900031
:102d04000089be001e007800b000900020009000f2
:102d14001e019000ae019000dbf807003e01900018
:102d240020019800310198001e007800d000900026
:102d3400400090001e019000ae019000d2f8070000
:102d44003e01900040019800510198003e0090001f
:102d54000080fa00000006000200fa00889fbe000e
:102d6400000f78001e0078001002be001e007800dc
:102d74001000be000001be000400be00c2f807003f
:102d84000004be001e00780020029000b0029000f3
:102d94001e007800b0009000200090000001be00ea
:102da4000400be00b8f807000001be000800be0021
:102db400eaf807000004be001e00780040029000fc
:102dc400d00290001e007800d000900040009000d7
:102dd4000001be000400be00abf807000001be0005
:102de4000800be00ddf807003bf907004f04be00f1
:102df4000080fa00000006000c00fa00881f78002a
:102e040040079800510798004e009000d2ff070039
:102e1400008fbe0018c0b300c24d220043832200bd
:102e24001e00be0061f90700e00f500001003500ec
:102e34000044eb00e04f5400060032005e039000b3
:102e44006022b8006011b8006000b800fdfe070001
:102e54000b0037001e01be000000200001f8230013
:102e640044f807002007980031079800de0090001e
:102e74002e019000be0190004e00900095ff0700c7
:102e84004f0478000080fa00000006000200fa00f7
:102e9400000f78001e007800f00890006008900091
:102ea4006011b80041f90700e00f500009003a0032
:102eb4001e00780090109000001090006011b8007f
:102ec4003af90700e00f500002003a006000b80031
:102ed400090037001e007800901090000010900048
:102ee4001e017800620a9000f20a90000001be0000
:102ef4000400be002ff907000080fa00000006005d
:102f04000200fa00881f7800000f78001e00780085
:102f1400d00890004008900018c0b30002002000c0
:102f240003f82300eaf80700e00f500001003d0019
:102f34000044eb00e04f54000300320080fd200009
:102f440091fc2b00140037001e007800d00890007c
:102f54004008900018c0b3000200200003f82b00c2
:102f640012f90700e00f5000010034000044eb00a8
:102f7400e04f54000300320080fd200091fc230048
:102f8400050037001e007800d0089000400890002b
:102f940025f9070001f0a2004f0478000080fa0030
:102fa400000006000200fa00000f78001e007800fe
:102fb400f0009000600090006011b800fbf807007a
:102fc400e00f500008003a001e0078001000be0018
:102fd4006011b800f5f80700e00f500002003a0055
:102fe4006000b800080037001e0078001000be0022
:102ff4001e01780062029000f20290000001be00ff
:103004000400be00ebf807000080fa000000060090
:103014000400fa00889fbe00000f78001107980092
:103024001e00780000119000901190001e0078009e
:10303400f0089000600890001e027800440c900094
:10304400d40c90001e0390000202be000001be00da
:103054000800be007bfe07004f04be000080fa009b
:10306400000006000000fa000000200001f8230020
:1030740070628800816288007062800081628000d2
:10308400f061880001628800f061800001628000c4
:1030940070618800816188006000b8005062880017
:1030a4006162880050628000616280003062880042
:1030b40041628800306280004162800010628800b2
:1030c400216288001062800021628000d061880043
:1030d400e1618800d0618000e1618000b061880016
:1030e400c1618800b0618000c16180009061880086
:1030f400a16188000000eb00d06288006000b80085
:1031040090628800a16288006000b800b062880004
:10311400c162880000002000010a2400e0628800e7
:10312400f162880006c620006022b8006011b80071
:103134006000b80043fe07000080fa0000000600ab
:10314400ae00fa00881f78004097980051979800c5
:103154006297980090628000a16280006011b800bc
:1031640092f80700e00f50000a003a00d70d07005c
:1031740050f92b006145230090628800a162880009
:10318400cd070700b0628800c1628800d062800069
:10319400ba003700c80707002007980031079800d5
:1031a400b0628000c16280002e019000be019000d8
:1031b40000005100818059006cf707000002be0036
:1031c40090628000a16280000001be000400be0085
:1031d400adf70700008fbe002e009000be009000e7
:1031e400b0628800c162880018c0b300f2282c00c5
:1031f40053cf23001e00be0035f80700e00f500037
:1032040001003c000044eb00e04f54000300320096
:10321400f0282c0051cf2300008fbe007800470017
:10322400800078005e909000f3fe07006c00470079
:1032340080007800e0c2200075ff070042022000f1
:103244000e014100f80047006c0047002afe070009
:10325400d0628000e00f500012003200426a840005
:10326400536a8400010320008e8040004002200045
:103274000e00400097fe0700606a8400716a8400b3
:103284001e01be0080f707000001be00c10320003c
:103294008e804000400220000e0040008dfe07009a
:1032a4000e003700010320008e8040004002200001
:1032b4000e004000d2cc2c00c3dc230085fe0700a6
:1032c400c00320000e004000000378006022b80014
:1032d4006011b8006000b800dafd0700c0032000e8
:1032e4000e00400002c620008000780000c62000c6
:1032f40050fe0700810420008e804000000320005f
:103304000e0040000101780001c6200049fe0700bc
:10331400d0628000e00f500021003a0040022000fb
:103324000e0040008cfe07004007980051079800eb
:10333400e0628000f16280000200200003042400a7
:1033440051f707004e019000de01900083f707005b
:10335400020020000308240006f70700e06288004a
:10336400f1628800e4628000f5628000206a8400d3
:10337400316a840018c0b3000001be000400be001e
:103384000af80700e00f5000010035000044eb008c
:10339400e04f54000200320010002000d062880088
:1033a400400520000e004000800078001e01be0091
:1033b4004e90900047fe0700420520000e01410098
:1033c400810420008e804000400520000e00400053
:1033d40018fe0700010620008e80400040052000f2
:1033e4000e0040002e0c0700410820008e80400093
:1033f400000620000e0040000101780080007800e3
:10340400e0c22000aef90700400820000e00400092
:10341400e1c22000eefb0700e0c220009bfe070093
:103424006e9190000089be00e0c22000b4fe070047
:103434006e9190002001980031019800e0c22000b4
:10344400d8fe07006e919000400198005101980049
:1034540070628000816280006e919000600198002b
:10346400710198006e909000700040008000780018
:103474004e9090008afd0700d06280004f047800cf
:103484000080fa00000006000e00fa00008fbe0063
:1034940022079800330798004407980055079800be
:1034a400660798006e0090003e1878002e10780091
:1034b4006e0090002e019000be0190002200980042
:1034c400330098006e0090004e019000de019000e1
:1034d40042009800530098006e0090000080fa00ab
:1034e400000006000000fa0070638000e00f500046
:1034f40002003a00e00020000c003700e05c80008d
:10350400e10f500002003a000000eb000700370012
:1035140010002000e05c88008680a90011002000d3
:1035240010002000870a07000000eb000080fa006a
:10353400000006000000fa0070638000e00f5000f5
:1035440002003a00e00020000e003700e05c80003a
:10355400e00f500002003a000000eb0009003700c1
:103564008000eb0010002000760a07008680a90086
:103574000000eb00e05c88000000eb003064880091
:103584000000eb000080fa00000006000200fa00d0
:10359400000f7800e05c8000e00f500002003a0069
:1035a400d0002000020037001e0078001100070040
:1035b4000080fa00000006000200fa00000f780004
:1035c400e05c8000e00f500002003a00d0002000d0
:1035d400060037000000000030648000e00f500057
:1035e400fdff32001e007800020007000080fa0090
:1035f400000006003600fa00889fbe008a9fbe00c5
:103604008c9fbe00001f9800100280004500de0061
:10361400674060000080fb00200798009002800053
:1036240030079800ff3ffc006cccbf00674060008f
:103634000080fb00670060004500dd00120280008e
:10364400f1f12f00810061000080700010028800f9
:103654003e0090009002880000008800c05c80005a
:10366400d15c80000e19900020019800310198006f
:10367400605d8000715d8000200f9800310f98001c
:10368400805d8000915d8000400f9800510f98008c
:10369400a05d8000b15d8000600f9800710f9800fc
:1036a400c05d8000d15d800000179800111798005c
:1036b400e05d8000f15d80002017980031179800cc
:1036c400005e8000115e800040179800511798003a
:1036d400205e8000315e80006017980071179800aa
:1036e40030648000400798000000eb0030648800dc
:1036f4009002800050079800ff3ffc002e009000cd
:1037040000407800674060000080fb0067006000b4
:103714004500dd0012028000f1f12f0081006100fc
:1037240000807000100288005e0090009002880003
:10373400000088004e009000e10f500009003600a0
:103744004e0090000100200008f607000001be00b2
:103754000000200001f8230006f60700008fbe00d9
:10376400030037000000200001f82300008fbe0092
:103774002e089000be08900040f607001e01be000f
:1037840041f607000004be0070688400cf80de00ac
:103794003af607000001be000800be006ef60700fe
:1037a4000002be0080688400916884000001be00ad
:1037b4000400be0034f607000e1990004001980082
:1037c400510198000e18900040029000d002900021
:1037d40040698400516984000001be000400be00f9
:1037e4005df6070060079800710798000e189000b6
:1037f4006c004000101f98000e1090009e10900066
:103804001ef607001e01be001ff607000004be00de
:10381400006a8400116a84006e019000fe01900029
:1038240019f607000002be00e0698400f169840013
:103834000001be000400be0048f607000001be00ff
:103844000800be0044f607000002be0020698400a0
:10385400316984000001be000400be000af60700be
:103864000005be006e089000fe08900003f60700f5
:103874001e01be0004f607000004be00c0698400f7
:10388400d16984006e019000fe019000fef50700ee
:103894000002be00a0698400b16984000001be007a
:1038a4000400be002df607000001be000800be00a3
:1038b40029f607000002be002069840031698400f3
:1038c4000001be000400be00eff507000004be00c6
:1038d4004e089000de089000e8f507001e01be00c7
:1038e400e9f507000006be00806984009169840040
:1038f4006e019000fe019000e3f507000002be0097
:1039040060698400716984000001be000400be0087
:1039140012f607000001be000c00be000ef6070000
:103924000002be0020698400316984000001be00e9
:103934000400be00d4f507001e1b90000a02be005e
:103944000801be00d0fe07000e189000400290004f
:10395400d002900080638000916380000001be006b
:103964000400be00fcf5070060079800710798008a
:103974000e18900078004000201f98006e109000f0
:10398400fe109000bdf507001e01be00bef5070045
:103994000004be0000698400116984006e01900077
:1039a400fe019000b8f507000002be00e06380004d
:1039b400f16380000001be000400be00e7f50700cb
:1039c4000001be000800be00e3f507000002be00cf
:1039d400a0688400b16884000001be000400be0039
:1039e400a9f507000005be004e109000de109000ff
:1039f400a2f507001e01be00a3f507000004be00e7
:103a0400e0688400f16884006e019000fe0190007b
:103a14009df507000002be00c0638000d1638000f2
:103a24000001be000400be00ccf507000001be008a
:103a34000800be00c8f507000002be00a0688400ac
:103a4400b16884000001be000400be008ef50700ca
:103a54000004be002e109000be10900087f50700f1
:103a64001e01be0088f507000006be00c068840081
:103a7400d16884006e019000fe01900082f5070079
:103a84000002be00a0638000b16380000001be009c
:103a94000400be00b1f507000001be000c00be002a
:103aa400adf507000002be00a0688400b168840080
:103ab4000001be000400be0073f507002e1b900039
:103ac4000a02be000801be006ffe07004e0090000f
:103ad400e00f50002d0032004e0090000100200045
:103ae40022f50700000f9800110f98000064800071
:103af400116480000e0990009e09900096f507005d
:103b04000002be00e0638000f16380000001be009b
:103b14000400be005cf507000004be006e109000b7
:103b2400fe10900055f507001e01be0056f5070073
:103b34000005be0000698400116984006e019000d4
:103b4400fe01900050f507000001be000a00be000f
:103b540081f507000e0990009e0990004af50700c0
:103b64000001be000800be007cf507000002be0094
:103b740000648000116480000001be000400be00e7
:103b8400fcf40700e0638800f16388004a0507003d
:103b94000e1990000089be000000eb004f06be0025
:103ba4004f05be004f04be000080fa00000006006e
:103bb4000e00fa00008fbe00220798003307980019
:103bc4004407980055079800660798006e00900017
:103bd4003e1878002e1078006e0090002e019000a0
:103be400be01900022009800330098006e009000ff
:103bf4004e019000de0190004200980053009800ae
:103c04006e0090000080fa00000006002800fa0010
:103c1400889fbe008a9fbe008c9fbe00101798002c
:103c24000000eb00000f7800660047002c0107003d
:103c3400000f78001e007800e00f500002003200f0
:103c44001e007800d50037001b0507001e119000e8
:103c54000089be00c05c8000d15c8000610040002f
:103c6400e0804800c05c8800d15c8800c05c8000b3
:103c7400d15c80001e119000200198003101980051
:103c84003e019000ce01900070688400cf80de0079
:103c94000000510081805900f8f407000002be00c2
:103ca40080688400916884000001be000400be00a6
:103cb400f5f407001e11900040019800510198008e
:103cc4001e10900040029000d002900040698400d1
:103cd400516984000001be000400be001ef5070007
:103ce40010079800210798001e1090006c004000f7
:103cf400201798001e089000ae089000dff407001b
:103d04000004be00006a8400116a84001e01900051
:103d1400ae019000dcf407000002be00e0698400fc
:103d2400f16984000001be000400be000bf5070029
:103d34000001be000800be0007f507000002be0037
:103d440020698400316984000001be000400be00c3
:103d5400cdf407000005be007e0090008e089000a0
:103d6400c6f407000004be00c0698400d169840061
:103d74001e019000ae019000c3f407000002be00d3
:103d8400a0698400b16984000001be000400be0083
:103d9400f2f407000001be000800be00eef40700c4
:103da4000002be0020698400316984000001be0065
:103db4000400be00b4f407000004be005e009000de
:103dc400ee009000adf407000006be008069840098
:103dd400916984001e019000ae019000aaf40700ce
:103de4000002be0060698400716984000001be00a5
:103df4000400be00d9f407000001be000c00be00a0
:103e0400d5f407000002be002069840031698400f3
:103e14000001be000400be009bf407002e139000b6
:103e24000a02be000801be0061ff07001e109000d8
:103e340040029000d0029000806380009163800073
:103e44000001be000400be00c3f407001007980080
:103e5400210798001e109000780040003017980049
:103e64007e0890008e10900084f407000004be00c9
:103e740000698400116984001e019000ae01900065
:103e840081f407000002be00e0638000f16380005b
:103e94000001be000400be00b0f407000001be0033
:103ea4000800be00acf407000002be00a068840055
:103eb400b16884000001be000400be0072f4070073
:103ec4000005be005e089000ee0890006bf4070049
:103ed4000004be00e0688400f16884001e019000c4
:103ee400ae01900068f407000002be00c0638000c9
:103ef400d16380000001be000400be0097f40700f7
:103f04000001be000800be0093f407000002be00da
:103f1400a0688400b16884000001be000400be00f3
:103f240059f407000004be003e089000ce0890003b
:103f340052f407000006be00c0688400d168840003
:103f44001e019000ae0190004ff407000002be0075
:103f5400a0638000b16380000001be000400be00c5
:103f64007ef407000001be000c00be007af40700d6
:103f74000002be00a0688400b16884000001be0095
:103f84000400be0040f407003e1390000a02be0085
:103f94000801be0006ff07000000eb004f06be004c
:103fa4004f05be004f04be000080fa00000006006a
:103fb4000a00fa0040479800310798004207980029
:103fc40070638000e00f500002003a00e00020001f
:103fd4001b0037000000eb00100798000000eb0006
:103fe400000f78000100370000000000c0d0280056
:103ff40010407800ce0190003e019000ce40900029
:10400400ba020700100798001e009000e00f50004d
:1040140003003200e20f50000300320007003700b3
:104024000000eb00060037001e0fe800100320001c
:104034009e007800808f5000ebff36001e00900039
:104044000080fa00000006000a00fa0040479800c9
:10405400310798004207980070638000e00f500019
:1040640002003a00e00020001b0037000000eb00d3
:10407400100798000000eb00000f780001003700e3
:1040840000000000c0d0280010407800ce0190004d
:104094003e019000ce409000b8040700100798003d
:1040a4001e009000e00f500003003200e20f5000a9
:1040b40003003200070037000000eb000600370061
:1040c4001e0fe800100320009e007800808f50002f
:1040d400ebff36001e0090000080fa00000006008e
:1040e4001800fa00300f98000000eb001007980049
:1040f4000040eb004047980064004700100c0700a4
:10410400100798001e009000e00f500002003200db
:104114001e0090005e0037004e4090000080fb00bf
:1041240061006000e00f500009003a000000eb005d
:10413400000f7800010037001e0fe800703e2000d9
:104144009e007800808f5000fbff3400eaff3700a8
:1041540068004700e200200080007800b0c3b3008c
:1041640093ff0700100798001e009000e00f500016
:10417400020032001e009000450037000e489000f7
:10418400704798001e489000604798003e009000d9
:104194000000ea00cf80de003e0990004001980054
:1041a400510198002e489000704798003e489000b6
:1041b400604798003e0090000000ea00cf80de00d7
:1041c4003e09900020019800310198004e4890006b
:1041d400704798005e489000604798003e00900049
:1041e4000000ea00cf80de003e09900060019800e4
:1041f400710198006e489000704798007e489000c6
:10420400604798003e009000cf80de003e09900099
:104214000089be000e509000704798001e50900018
:10422400604798003e0090000000ea00cf80de0066
:104234003e09900020099800310998002e50900002
:10424400704798003e509000604798003e009000f0
:104254000000ea00cf80de003e09900000099800cb
:10426400110998004e509000704798005e509000dd
:10427400604798003e0090000000ea00cf80de0016
:104284003e09900040099800510998000000eb0095
:104294000080fa00000006004200fa00889fbe0079
:1042a40000c7980011c7980070638000e00f5000a9
:1042b40002003a00e000200049013700e05c800081
:1042c400e00f500002003200b0002000440137002b
:1042d4000000eb00000f780000c8b300205f9800d6
:1042e4007a0047001200200080007800b0c6b300b6
:1042f40055ff0700000f78001e007800e00f500003
:10430400020032001e007800350137000040eb0047
:10431400305f9800130037000000eb00000f7800b6
:10432400010037001e0fe800f0e124009e00780031
:10433400808f5000fbff36007b00470012002000f6
:1043440080007800b0c6b30019ff0700000f7800a2
:104354001e007800e00f5000020032001e007800ba
:104364001f013700be58900000c4b30080cf500036
:10437400e9ff3a0010c0b300405f98007c0047009a
:104384001200200080007800b0c6b3002eff0700a2
:10439400000f78001e007800e00f50000200320089
:1043a4001e0078000e01370000c8b300505f98006b
:1043b4007d004700120020008000780010c0b30088
:1043c40021ff0700000f78001e007800e00f500066
:1043d400020032001e007800010137000ec0900078
:1043e400605f98007e004700120020008000780083
:1043f40090c1b30014ff0700000f78001e0078007e
:10440400e00f5000020032001e007800f400370074
:104414001ec0900067406000705f98007e58900056
:10442400e64f50000200360060c0b300705f980091
:104434007f0047001200200080007800a0c1b30074
:1044440001ff0700000f78001e007800e00f500005
:10445400020032001e007800e100370080c1b30082
:1044640000679800000220000e00400012002000a7
:1044740080007800b0c1b300f3fe0700000f78009d
:104484001e007800e00f5000020032001e00780089
:10449400d30037000040eb001067980010022000a2
:1044a4000e0040001200200080007800c0c1b3005c
:1044b400e5fe0700000f78001e007800e00f5000b2
:1044c400020032001e007800c500370020c1b3008e
:1044d40020679800200220000e00400012002000f7
:1044e4008000780070c3b300d7fe0700000f780087
:1044f4001e007800e00f5000020032001e00780019
:10450400b700370010c0b3003067980030022000b5
:104514000e004000120020008000780080c3b30029
:10452400c9fe0700000f78001e007800e00f50005d
:10453400020032001e007800a90037006000b800b5
:10454400a0638800b16388006000b800c06388007d
:10455400d16388006000b800e0638800f1638800dc
:10456400dd0207000001be00007d200001002000e4
:104574000200400083804800300f9800410f9800eb
:10458400400220000e004000d5fe0700000f780016
:104594001e007800e00f5000020032001e00780078
:1045a4008f003700cc0207000001be003e089000d7
:1045b400ce089000800f5100818f5900f0ff390020
:1045c400c50207000001be00007d2000010020009c
:1045d4000200400083804800300f9800410f98008b
:1045e4006000b80010079800210798006000b80028
:1045f40030079800410798006000b8005007980001
:10460400610798006000b80070079800010f9800d7
:104614006000b800100f9800210f9800400220009d
:104624000e004000aefe0700000f78001e00780068
:10463400e00f5000020032001e00780068003700ce
:104644002e189000be1890001e019000ae0190003c
:10465400020040008380480010079800210798005a
:104664004e189000de1890003e019000ce0190009c
:1046740002004000838048003007980041079800fa
:104684006e189000fe1890005e019000ee019000fc
:10469400020040008380480050079800610798009a
:1046a4002e109000be1090007e0190008e099000a4
:1046b400020040008380480070079800010f9800b2
:1046c4000200200003f823001e089000ae089000aa
:1046d400a2f20700100f9800210f98007e02070035
:1046e4000001be003e089000ce089000800f5100eb
:1046f400818f5900c9ff39001e009000ae00900060
:104704005ef207001e099000ae09900019f207003e
:10471400a0638800b16388003e009000ce00900042
:1047240056f207001e099000ae09900011f207002e
:10473400c0638800d16388005e009000ee009000a2
:104744004ef207001e099000ae09900009f207001e
:10475400e0638800f16388007e0090008e0890007a
:1047640046f207001e099000ae09900001f207000e
:104774000004be0070688400cf80de003ff20700b2
:104784000001be000800be0073f207000002be0074
:1047940080688400916884000001be000400be00ab
:1047a40039f2070080638800916388000864800000
:1047b400196480000ec090000080fb000000e80037
:1047c400cf80de002df207000001be000800be000d
:1047d400e8f1070000648800116488000000eb0021
:1047e4004f04be000080fa00000006000000fa003a
:1047f400705f8000815f80000080fa000000060086
:104804000200fa00000f7800705f8000815f800072
:104814001e0178000089be00905f8000a15f8000c7
:104824001e0178002001980031019800b05f8000db
:10483400c15f80001e01780040019800510198007a
:104844000080fa00000006000200fa00000f780061
:10485400605f8000e00f500022003a000008200052
:104864009e007800808f500002003600000820006f
:10487400000f78006000b800705f8800815f8800d6
:104884006000b800905f8800a15f88006000b800f5
:10489400b05f8800c15f88001e007800d05f880088
:1048a4000000eb00e05f88000000eb00f05f880090
:1048b4000000eb00506188000000eb00606188009c
:1048c40087c0a9008c40a90031e2a8009c40a80040
:1048d40097c0a80010002000605f8800000000005e
:1048e40001003700000000000080fa00000006000c
:1048f4000000fa00605f8000e00f500016003200f4
:1049040031e2a90097c0a9009c40a90087c0a90072
:104914008c40a9003262a9003242a9003222a900c7
:104924000000eb00d05f88000000eb00e05f88002f
:104934000000eb00f05f88000000eb00506188008d
:104944000000eb00606188000000eb00605f8800fd
:104954000000000001003700000000000080fa00a1
:10496400000006000400fa00000f78001107980008
:10497400605f8000e00f500002003a000000eb008e
:104984000700370000000000e05f8000e00f5000e7
:10499400fdff32009e0090001e0078000200070018
:1049a4000080fa00000006000e00fa00500798008c
:1049b40061079800605f8000e00f500002003a0039
:1049c4000000eb0047003700e05f8000e00f50007c
:1049d40002003a000000eb00420037006e00900035
:1049e400000f7800100280004500de006740600080
:1049f4000080fb0020079800900280003007980098
:104a0400ff3ffc00e5cbbf00674060000080fb0077
:104a1400670060004500dd0012028000f1f12f0004
:104a24008100610000807000100288003e00900048
:104a34009002880000008800f05f80009e007800eb
:104a4400808f500002003600f05f8000000f780075
:104a54000000eb00100798000b003700de00900008
:104a64001e009000808040001e01900000882000fd
:104a74000000410010407800804878001e0090003b
:104a84000000e800100798001e0090009e0f5000e0
:104a9400f2ff39000000eb00e05f88009002800024
:104aa40040079800ff3ffc002e0090000040780073
:104ab400674060000080fb00670060004500dd0087
:104ac40012028000f1f12f0081006100008070006b
:104ad400100288004e0090009002880000008800b8
:104ae4001e0078000080fa00000006001800fa009a
:104af4002057980031579800220f9800330f9800e0
:104b040050658000e00f500002003a006000200071
:104b1400b30037000000eb00100798000000eb0022
:104b2400000f7800100280004500de00674060003e
:104b34000080fb00500798009002800060079800f6
:104b4400ff3ffc00a8ccbf00674060000080fb0072
:104b5400670060004500dd0012028000f1f12f00c3
:104b64008100610000807000100288006e009000d7
:104b7400900288000000880070658000e00f5000fb
:104b84000300320090002000000f7800240037005a
:104b940060658000e00f50000300320080002000b8
:104ba400000f78001e0037003010800061006000a4
:104bb400e00f500015003a003010800064006000df
:104bc400e00f500011003a003010800068006000cf
:104bd400e00f50000d003a003010800062006000c9
:104be400e00f500009003a003010800070006000af
:104bf400e00f500005003a0041108000000024003e
:104c040000806000e00f500003003200a00020008c
:104c1400000f780002003700100020006065880053
:104c24009002800070079800ff3ffc005e00900037
:104c340000407800674060000080fb00670060006f
:104c44004500dd0012028000f1f12f0081006100b7
:104c540000807000100288007e009000900288009e
:104c6400000088001e007800e00f500004003200ad
:104c740068005000e20f500024003e00110037008d
:104c8400ae509000e0cfb30000c060000057980021
:104c94002e5090000004a000105798000000eb0074
:104ca400000f78006b0507000e5090007805070090
:104cb400000f78001e007800e00f50003d003a001d
:104cc400140037009e00900010032000808f5000d5
:104cd4000e003e000000eb002007980003003700a0
:104ce4002e0090000000e80020079800ae0090001d
:104cf400301f2000808f5000f9ff34001e00900008
:104d04000000e8001007980084ff37001e007800b8
:104d1400330037003e5090005d050700000f780017
:104d24001e007800e00f500024003a004e050700f2
:104d34001e50900056050700000f78001e007800f2
:104d4400e00f50001f003a0008c2a9003e0890007e
:104d5400400798000000eb0030079800100037006f
:104d64004e0090000000e90040079800ce0090003b
:104d74002e08900069050700000f78001e007800d7
:104d8400e00f500011003a002e0890000000e800e7
:104d9400200f98003e0090000000e80030079800c3
:104da400be0090003e089000808f5000ecff390058
:104db4000700370000000000050037000000000075
:104dc400030037000000000001003700000000006d
:104dd4002a0507000000eb00606588001e007800cb
:084de4000080fa000000060047
:020000040000fa
:104dec00440b00005400000000000000b40c000054
:104dfc00080000000200000000000100000000009c
:104e0c00000000008009000000010000000000000c
:104e1c00800a0000c4000000020000000200010033
:104e2c00030400000301010001040000030103005e
:104e3c000103000003010100000100000100040057
:104e4c000001010003010300000303000100040042
:104e5c000001010001010200000101000400010039
:104e6c00030303000300030001030000040001001e
:104e7c000301010002000300030200000301030010
:104e8c0000030300030004000001030003010400fd
:104e9c0000030300010303000001030001000300f1
:104eac0000010100010001000003000003000100eb
:104ebc0001030000040001000101030003000100d4
:104ecc0003030000040003000101030004000300bd
:104edc00010303000400030003010100800a8400a5
:104eec000a8a0a00900a96000a9a0a00a00aa600ea
:104efc000aac0a00b00ab6000abc0a00c20ac60014
:104f0c000aca0a00d00ad6000adc0a00e20ae80043
:104f1c000aec0a00f20af8000afe0a00040b0a0066
:104f2c000b0000009a0c00000e00000002000000b4
:104f3c0000000200000000000000ff00ffffff0067
:104f4c0000000000a80c00000c0000000200000093
:104f5c000000000000000000000000000000000045
:104f6c006c0c00001e00000002000000000000009d
:104f7c000000000000000000000000000000000025
:104f8c0000000000000000000020460000000000af
:104f9c0000000000980b00004c0000000000000016
:104fac008a0c000010000000020000000400000049
:104fbc0000000000000000000000000000000000e5
:104fcc0000000000e40b00004a000000020000009a
:104fdc0004040100000000000000000000000000bc
:104fec0000000000000000000000000000000000b5
:104ffc0000000000000000000100000000000000a4
:10500c000200000000030000030004000003000085
:10501c00030004000005000005000600000300006a
:10502c00030004000000000001000000000000006c
:10503c0000000000000800008001000000000000db
:10504c002e0c00003e00000002000000000080005a
:10505c003f00000000000000000000000000000005
:10506c0000000000803f0000000000000000000075
:10507c00000000000000000000803f000000000065
:10508c00000000000000000000000000a040000034
:10509c000000000000000000000000000000000004
:1050ac00bc0c00000200000000000000000000002a
:020000040000fa
:1050bc000400fa00a0088000000f7800b0088000ff
:1050cc00100798001e00be000080fa0000000600c9
:1050dc000a00fa00100280004500de006740600004
:1050ec00004f78009002800010079800ff3ffc00f2
:1050fc009cccbf00674060000080fb006700600034
:10510c004500dd0012028000f1f12f0081006100ea
:10511c0000807000100288001e0090009002880031
:10512c0000008800f0648000016580002007980072
:10513c00310798009002800040079800ff3ffc0068
:10514c001e407800674060000080fb006700600034
:10515c004500dd0012028000f1f12f00810061009a
:10516c0000807000100288004e00900090028800b1
:10517c00000088002e009000be0090000080fa0015
:10518c00000006000c00fa00400798005107980038
:10519c00cfff0700008fbe004e009000de00900095
:1051ac003e014000ae8148000200be00200798007e
:1051bc003107980002003700c5ff0700008fbe00c2
:1051cc002e009000be0090001e01be00800f51000a
:1051dc00818f5900f8ff39000080fa0000000600aa
:1051ec000c00fa003007980041079800520798000d
:1051fc00100280004500de0067406000004f780020
:10520c009002800010079800ff3ffc009cccbf0070
:10521c00674060000080fb00670060004500dd0017
:10522c0012028000f1f12f008100610000807000fb
:10523c00100288001e009000900288000000880078
:10524c008bc0a9009bc0a8005e0090003065880050
:10525c00f2648000036580003e009000ce00900058
:10526c00020040008380480010658800216588009a
:10527c009002800020079800ff3ffc001e40780041
:10528c00674060000080fb00670060004500dd00a7
:10529c0012028000f1f12f0081006100008070008b
:1052ac00100288002e0090009002880000008800f8
:1052bc000080fa00000006000600fa0010028000d0
:1052cc004500de0067406000004f780090028000cf
:1052dc0010079800ff3ffc009cccbf0067406000ab
:1052ec000080fb00670060004500dd0012028000ba
:1052fc00f1f12f0081006100008070001002880025
:10530c001e00900090028800000088009bc0a9003d
:10531c008bc0a9000080eb008080eb00106588003a
:10532c00216588000000eb00306588009002800049
:10533c0020079800ff3ffc001e407800674060008b
:10534c000080fb00670060004500dd001202800059
:10535c00f1f12f00810061000080700010028800c4
:10536c002e00900090028800000088000080fa0057
:10537c00000006001600fa0000579800115798001c
:10538c00120f9800230f980050658000e00f50001a
:10539c0002003a0060002000a10037000000eb0082
:1053ac00100798000000eb00000f7800100280003e
:1053bc004500de00674060000080fb00400798005d
:1053cc009002800050079800ff3ffc00a8ccbf0063
:1053dc00674060000080fb00670060004500dd0056
:1053ec0012028000f1f12f0081006100008070003a
:1053fc00100288005e009000900288000000880077
:10540c0070658000e00f5000030032009000200017
:10541c00000f78002400370060658000e00f50001a
:10542c000300320080002000000f78001e003700bf
:10543c003010800061006000e00f500015003a0051
:10544c003010800064006000e00f500011003a0042
:10545c003010800068006000e00f50000d003a0032
:10546c003010800062006000e00f500009003a002c
:10547c003010800070006000e00f500005003a0012
:10548c00411080000000240000806000e00f5000fc
:10549c0003003200a0002000000f7800020037004b
:1054ac001000200060658800900280006007980062
:1054bc00ff3ffc004e009000004078006740600009
:1054cc000080fb00670060004500dd0012028000d8
:1054dc00f1f12f0081006100008070001002880043
:1054ec006e00900090028800000088001e0078007a
:1054fc00e00f50000400320068005000e20f500032
:10550c0021003e000e0037008e509000e0cfb3001b
:10551c0000c06000604f98000000eb00000f7800a6
:10552c004a0307006e48900057030700000f7800ed
:10553c001e007800e00f500030003a0014003700d5
:10554c009e00900010032000808f50000e003e0043
:10555c000000eb0020079800030037002e0090009d
:10556c000000e80020079800ae009000301f2000db
:10557c00808f5000f9ff34001e0090000000e800fe
:10558c001007980087ff37001e00780024003700b2
:10559c001e5090003c030700000f78001e0078009e
:1055ac00e00f500017003a000000eb0030079800a5
:1055bc000d0037001e0890001040780032030700e1
:1055cc00000f78001e007800e00f50000f003a002a
:1055dc001e0890000000e800100f98003e0090009c
:1055ec000000e80030079800be0090002e089000e4
:1055fc00808f5000efff39000500370000000000dd
:10560c00030037000000000001003700000000001c
:10561c00180307000000eb00606588001e0078008e
:10562c000080fa00000006000400fa00000f780069
:10563c00110798001e0078001000be001e0190009b
:10564c000089be001e007800b00090002000900081
:10565c001e01900020019800310198001e00780076
:10566c00d0009000400090001e0190004001980076
:10567c00510198001e0090000080fa000000060006
:10568c003c00fa00350507002000200093040700b9
:10569c00b906070030002000b80307000103200002
:1056ac00600020004c020700110020005000200078
:1056bc0077050700803e200001002000b1fe0700a6
:1056cc00d804070011c0b3000040eb0034060700fb
:1056dc00e00f5000030032002100200000d528000c
:1056ec0016050700d60407000000eb0050079800d1
:1056fc007af70700e00f5000030032001100200081
:10570c0030d528000d05070078004700a8f70700e2
:10571c00500798005e009000e00f5000030032002c
:10572c001100200050d52800040507000000eb00f4
:10573c00000f78006000b80010079800210798004f
:10574c00b804070045f6070016003700780047003c
:10575c0097f70700500798005e009000e00f50008c
:10576c00030032001100200050d52800f30407007c
:10577c0078004700ec0040007800470078004000bb
:10578c00c2b420006cf60700000f78001e009000d9
:10579c00ae00900061004000e080480010079800c7
:1057ac00210798001e007800e00f5000e7ff320040
:1057bc00a30407003efe07006007980071079800dd
:1057cc006000b800000f9800110f980040fe070011
:1057dc0030079800410798006000b800200f98002f
:1057ec00310f9800010037000000000078004700de
:1057fc0064f707002efe0700000f9800110f9800a9
:10580c0078004700ec00400078004700780040002a
:10581c00c2b4200048f6070025fe07000001be00b8
:10582c000e0890009e0890000000510081805900e5
:10583c00405a8800515a880025fe0700200f980016
:10584c00310f98002e099000be0990003e00900088
:10585c00ce009000000151008181590040062000cb
:10586c0001002000800f5100818f5900deff3600af
:10587c002e089000be089000300798004107980051
:10588c00780047006c00400081b6200066ff0700de
:10589c00c2b8200001b8200040b72000fa0307006e
:1058ac0003fe07000001be006e009000fe00900099
:1058bc000000510081805900205a8800315a88001c
:1058cc0040b4200041052000810507006304070057
:1058dc00c6ff37000400fa00000f7800110798008b
:1058ec002c83a8002ca3a8001e007800e00f500009
:1058fc0002003c0010002000000f78001e00780011
:10590c00e70f50000200340070002000000f7800f8
:10591c001e00780000407800e5ebb7000000eb00bb
:10592c008011880070c7a9003135800000f021007b
:10593c0000807000303588003135800000fe2f006b
:10594c00008060003000b3003035880011368000d4
:10595c0000fe2f00008060005000b300103688005d
:10596c0081118000f0cf2f0080806000002020008b
:10597c0000807000801188000000eb0090118800fe
:10598c001e009000cf80de000203200003002000e8
:10599c00820f5000838f58004d003e0000600100c4
:1059ac00300037004a00370046003700420037000d
:1059bc003e003700460037003900370044003700fe
:1059cc0034003700420037004100370040003700f8
:1059dc003f0037003e0037003d0037003c003700e9
:1059ec00290037003a0037003900370038003700fb
:1059fc0037003700360037003500370034003700e9
:105a0c001e003700320037003100370030003700fd
:105a1c002f0037002e0037002d0037002c003700e8
:105a2c002b0037002a0037002900370028003700e8
:105a3c0027003700260037002500370024003700e8
