:020000040000fa
:080000000002040000000000f2
:020000040000fa
:100400006fbb20000e7f22000e018800000000005c
:1004100000012000200288000c00070020c92200f3
:100420000100200011000700000020000000e00093
:100430000200320000000200000000000c2f020049
:10044000000000000040da000000fe004440a90067
:10045000e00420000000e000030032000000200063
:10046000a00188004440a800000006009101880017
:10047000800078000000eb0015003700e2804000ab
:1004800032a0b4009101ba00e280400032a0b40072
:100490009102ba00e280400032a0b4000002eb00fa
:1004a000472bde00f507b200602ce10004003a00a3
:1004b0000059eb008301e900fdff3e000400370016
:1004c0006128e100010032000082eb000400070017
:1004d0001101ba000200e000e8ff3a000000060047
:1004e0003159ba008301e9000c0032002159ba00e9
:1004f0008301e900080032000400e00003003a0034
:10050000e280400032a0b400f5ff370011d9ba00f4
:100510008301e900faff3a008100e800e180400031
:1005200032a0b40000000600e8340400000000001f
:100530005a030400000000007206040000000000de
:100540003600f800809fbe00829fbe00849fbe00e0
:10055000869fbe000200fa008620a9004410800099
:1005600070026200e00f5200270032009620a900be
:100570000002eb00545c8800645c80000442780058
:10058000614262000482fb00610262004422dd00dd
:10059000b6048000f5fe2f0085026300048272001d
:1005a000b4048800745c80000442780061426200f8
:1005b0000482fb00610262004522dd00a604800087
:1005c000f5fd2f008502630004827200a4048800f8
:1005d000845c800004427800614262000482fb0077
:1005e0006102620004024200a6048000d5ff2f00d1
:1005f0008502630004827200a4048800945c800079
:10060000a45c880009003700545c8000040f780067
:100610001e027800e00f5200030032001e02780034
:100620000400010001003700000000000080fa0013
:100630004f03be004f02be004f01be004f00be0080
:100640003600f900004006000000fa008600a9000c
:100650000080fa00004006003600f800809fbe00cf
:10066000829fbe00849fbe00869fbe000000fa00ed
:100670008680a900a435200004007800d511070069
:1006800000027800e00f520003003a000002eb0085
:10069000f45b88000602a8000080fa004f03be0049
:1006a0004f02be004f01be004f00be003600f900f1
:1006b000004006000200fa008620a90045108000d4
:1006c0000400280004826200e00f52000f003a008c
:1006d000451080000440200004826200e00f5200b8
:1006e0000a003a00451080000408200004826200dd
:1006f000e00f520005003a0045108000040420007d
:1007000004826200e00f520002003200141207005f
:10071000fe003700f45b800005002000760020001a
:1007200007002000860f5200878f5a00f4003e0019
:1007300004600100070037000f0037001300370086
:10074000160037001d00370023003700380037003f
:100750003c003700a4f62800144278008482fb0095
:10076000e40f2000048262001410880014002000ae
:10077000f45b8800e4003700b40320001410880004
:1007800024002000f45b8800df0037000622a80068
:1007900034002000f45b8800db003700a4f628005a
:1007a000144278000404a0000482fb0014108800a6
:1007b00044002000f45b8800d300370008c2a90081
:1007c0000662a8000002eb00145c880054002000c0
:1007d000f45b8800cc003700165c800004108000b9
:1007e00004427800a5ac200085024300844a7800ca
:1007f000145c80000402e800145c8800145c800033
:10080000ed0f520005003e0006a2a9000682a800d6
:1008100064002000f45b8800bb00370006a2a8003b
:100820000682a80074002000f45b8800b600370040
:1008300008c2a9000662a80054002000f45b8800ea
:10084000b1003700c6110700a4ac200014427800a4
:1008500014479800b4ac200014427800044f78008c
:100860001e0278000402ea00cfa2de00e4578800ee
:10087000f5578800c4ac2000144278001447980053
:10088000d4ac200014427800044f78001e02780097
:100890000402ea00cfa2de00c4578800d5578800c2
:1008a000e4ac20001442780014479800f4ac200017
:1008b00014427800044f78001e0278000402ea0017
:1008c000cfa2de00045888001558880004ad20002f
:1008d000144278001447980014ad200014427800a8
:1008e000044f78001e027800cfa2de00a4578800d3
:1008f000b557880024ad20001442780014479800b2
:1009000034ad200014427800044f78001e027800b5
:100910000402ea00cfa2de0044588800555888003f
:1009200044ad2000144278001447980054ad2000d4
:1009300014427800044f78001e0278000402ea0096
:10094000cfa2de00245888003558880064ad20000e
:10095000144278001447980074ad200014427800c7
:10096000044f78001e0278000402ea00cfa2de00e5
:1009700064588800755888002456800035568000d9
:1009800061024200e0824a00245688003556880001
:10099000045c8000e00f52001d003a00c457800044
:1009a000d5578000e4568800f5568800e45780004b
:1009b000f5578000045788001557880004588000b8
:1009c000155880002457880035578800a4578000a8
:1009d000b5578000c4568800d5568800245880003a
:1009e0003558800044578800555788004458800087
:1009f00055588000645788007557880064588000f7
:100a00007558800084578800955788003800370053
:100a1000e6568000f7568000c4578000d557800006
:100a20000602420087824a00e4568800f556880094
:100a30000657800017578000e4578000f557800064
:100a40000602420087824a00045788001557880032
:100a500026578000375780000458800015588000c2
:100a60000602420087824a002457880035578800d2
:100a7000c6568000d7568000a4578000b557800026
:100a80000602420087824a00c4568800d556880074
:100a90004657800057578000245880003558800002
:100aa0000602420087824a00445788005557880052
:100ab0006657800077578000445880005558800062
:100ac0000602420087824a006457880075578800f2
:100ad00086578000975780006458800075588000c2
:100ae0000602420087824a00845788009557880092
:100af000045c80000402e800045c88000200370007
:100b00001711070001003700000000000080fa0004
:100b100000000600849fbe00869fbe000000fa0011
:100b20008460a900d45c8000e55c80006102420022
:100b3000e0824a00d45c8800e55c8800d65c8000d6
:100b4000e75c8000f45c8000055d8000840f53004a
:100b5000858f5b00080036000082eb008082eb008e
:100b6000f45c8800055d8800145d8000e00f520091
:100b7000010032008bc0a8000080fa004f03be00c5
:100b80004f02be00004006003600f800809fbe0005
:100b9000829fbe00849fbe00869fbe000200fa00b6
:100ba0008bc0a900145d8000040f78001e0278003d
:100bb000e00f5200020032001e0278000400010023
:100bc0000080fa004f03be004f02be004f01be007e
:100bd0004f00be003600f90000400600849fbe00b2
:100be0000000fa00845d8000e00f52001600320021
:100bf0000c003700955d80000490200004824200c4
:100c0000144278000482fb0024118800945d800067
:100c10000402e800945d8800845d80000402e9001d
:100c2000845d8800845d8000e00f52001200320075
:100c3000151180000420200004826200e00f5200a1
:100c4000ecff32000c00370074fb280014427800df
:100c50000482fb00241188000000000074fb2800bf
:100c6000144278000482fb00241188009580a900ba
:100c700014002000745d88008580a9000080fa00bf
:100c80004f02be00004006003600f800809fbe0004
:100c9000829fbe00849fbe00869fbe000000fa00b7
:100ca00084a0a900246720000400780049100700f0
:100cb00000027800e00f520003003a000002eb004f
:100cc000f45988000602a8000080fa004f03be0015
:100cd0004f02be004f01be004f00be003600f900bb
:100ce000004006000200fa004510800004002800c1
:100cf00004826200e00f52000f003a0045108000ad
:100d00000440200004826200e00f52000a003a0012
:100d1000451080000408200004826200e00f5200a9
:100d200005003a004510800004042000048262009f
:100d3000e00f52000200320089100700a2003700c5
:100d4000f4598000050020007600200007002000f4
:100d5000860f5200878f5a0098003e000460010001
:100d6000070037000f003700130037001600370068
:100d70001d00370023003700380037003c003700e3
:100d8000e4f92800144278008482fb00e40f20007c
:100d9000048262001410880014002000f4598800b6
:100da0008800370034002000141088002400200040
:100db000f4598800830037000622a8003400200080
:100dc000f45988007f003700e4f9280014427800c5
:100dd0000404a0000482fb001410880044002000da
:100de000f45988007700370008c2a9000662a800fd
:100df0000002eb00145a880054002000f4598800c7
:100e000070003700165a80000410800004427800f9
:100e100045b5200085024300844a7800145a8000ba
:100e20000402e800145a8800145a8000e50f5200aa
:100e300005003e0006a2a9000682a800640020006a
:100e4000f45988005f00370006a2a8000682a800b7
:100e500074002000f45988005a00370008c2a90025
:100e60000662a80054002000f4598800550037009d
:100e70003b10070044b52000144278001447980046
:100e800054b5200014427800044f78001e02780008
:100e90000402ea00cfa2de00d45a8800e55a880096
:100ea00064b52000144278001447980074b52000ff
:100eb00014427800044f78001e0278000402ea0011
:100ec000cfa2de00145b8800255b880084b520007b
:100ed000144278001447980094b52000144278001a
:100ee000044f78001e027800cfa2de00f45a88007a
:100ef000055b8800045a8000e00f52000d003a00a4
:100f0000d45a8000e55a8000445a8800555a880017
:100f1000f45a8000055b8000645a8800755a880086
:100f2000145b8000255b8000845a8800955a8800f5
:100f300018003700465a8000575a8000d45a800063
:100f4000e55a80000602420087824a00445a88001f
:100f5000555a8800665a8000775a8000f45a8000fb
:100f6000055b80000602420087824a00645a8800be
:100f7000755a8800865a8000975a8000145b80005a
:100f8000255b80000602420087824a00845a88005e
:100f9000955a8800245a8000355a80006102420028
:100fa000e0824a00245a8800355a8800045a80009a
:100fb0000402e800045a880002003700e80f070026
:100fc00001003700000000000080fa000000060069
:100fd0000040da000000fe004f89de008201780048
:100fe0003d0337006011b8004b03370007f82700b6
:100ff000078361000638e10004003a00f70720008b
:10100000878361008703710001003a0003f0a200aa
:10101000889fbe008a9fbe008c9fbe00470ade00ec
:101020000480a100c71ade000580a1000700280087
:101030000785600087856100f70f20000720e10029
:101040009e0032000728e1009c0032000106780073
:101050000400e000b4003200f70720008780600041
:101060000170a0000500e000c0003200f70720007a
:10107000878161000370a000050652000f003a004e
:101080000b50e1000b0032000308e10002003a00bf
:101090000200e1007e003200020450008384580008
:1010a000040031000001fd008101fd008402fd000b
:1010b0008a05fd006044b800210037000520e100ea
:1010c00005003d000001fd008101fd008402fd00de
:1010d0008a05fd00050652007a60e1000500350032
:1010e0000170a1004722dd00848070008a807000ba
:1010f000630037006044b800ef02660007ff2f006e
:10110000070666000500e00006003400f0831200c8
:101110008714dd000511de00071bdd0006017100ec
:101120008519de007060e1000500350009047800d3
:1011300082047800030178008001eb0070065600fd
:101140000b50e10003003a00020040008380480099
:101150000400370060041400e0841c000200580002
:10116000838058000188a300060032008100d1006e
:101170000080d3008984d3000884d3000402e800ef
:10118000270037000178a30025003a000100e000a5
:10119000030032008186cf00698656000a003700be
:1011a0008c0020000000e00004003a0009007800f4
:1011b000880478000004eb00700252008086cf00a3
:1011c0000d0646000c06e9007060e10006003500df
:1011d0008000780009007800880478000004eb00a3
:1011e00070065600700252000c00e0000c00340043
:1011f0008c08dd00f00316000703de008680700017
:101200000c00dd00074bde00060070008c4cdd009a
:101210000743de00868474000c44dd000c0252009b
:101220006120e10020003500610160000700280016
:1012300087816400f7ff2700878364000703740039
:101240000300e00006003200820373000400320055
:101250000000e800e08048000188a3000e003a008a
:10126000f70f20000720e1004a003d000170a100b7
:101270004722dd00810072008a8070000000be00fd
:101280004f06be004f05be004f04be000000060022
:101290006000b800faff37008100d1000080d30061
:1012a0000402e800eeff37000401780089017400b1
:1012b0000c0207008a807000f1ff3700eb02070084
:1012c000070278000001fd008101fd00e702070030
:1012d00087027800850372000778a30004003200bb
:1012e0000001fd008101fd00c2010700e4ff37009d
:1012f000850362000768a300080032000b50e1007c
:1013000003003200f0ff2f00f1ff2700dcff370061
:101310000001fd008101fd00d9ff37000468a30032
:10132000d7ff3200faff3700f8ff270088836000fc
:101330000b003a000000e00009003a00830364005b
:1013400082837300020032000200be00ccff37002f
:101350000b50e100ceff3a000200be00c8ff37008c
:1013600014002000810064003eff3700f8ff2700d2
:101370008883610004003a000200e00002003a00a5
:101380008c007800beff3700150020008301640048
:1013900039ff370001f827000000200081007500a8
:1013a000b7ff3700038368000700280007036300c6
:1013b000470ade000480a100c71ade000580a100f4
:1013c000f70f20000720e100420032000728e1006b
:1013d00040003200889fbe008a9fbe008c1f7800ac
:1013e000f107b200f307b2000400e000640032002d
:1013f0000170a0000500e000680032000370a0004a
:1014000085054200eb07b1000204b8000302b800f2
:101410008484440060854a00020ab8008484440041
:101420000a854a00030ab800040545000400330099
:101430000804d0008984d2000a85d2008b05e90017
:101440006158e1003d0035000210200009016100f3
:101450000308200089816100f7072000878364006a
:1014600008867300c84cde00c853dd008784740012
:101470004855de000300e0000600320082037600db
:10148000040032008904e80060054d000a88a300ca
:101490000c003a00f70f20000758e10044003d001f
:1014a0000a70a100c75ddd000a8575008a0073001f
:1014b000090078004f0678004f05be004f04be00bb
:1014c000000006000a05d1008984d3008b05e800de
:1014d000f0ff3700881f78000604780063020700d9
:1014e000070278000001fd008101fd005f02070096
:1014f00087027800850372000778a3000500320098
:101500000001fd008101fd003a0107004f04780051
:1015100000000600850372000748a30003003200a4
:10152000f0ff2f00f1ff2700f8ff37000000200038
:1015300001f8270088807000f4ff370088017800e8
:101540004848dd00808171004848de00c850dd0059
:1015500001007000c850de00060478000b0178001e
:101560006001070088807000d2ff37000500e000ae
:101570000500320017002000100007009dff370013
:1015800081037000f9ff3a00860078004f0678006a
:101590004f05be004f04be0000000500830371002c
:1015a000f9ff3200270020000400070094ff3700f5
:1015b00001f8270086807000f4ff3700889fbe0086
:1015c0000004eb006138e10016003a000100e00081
:1015d00008003a00c800de004800dd008800200056
:1015e0000100e00003003a00c800de004800dd0012
:1015f000680444008184cf00e9845400060034006c
:101600008908dd00f08314008703de008780700006
:101610000900dd0009044400610214004f04be000b
:10162000000006000300e00008003a00c811de00d8
:101630004811dd00880020000300e00003003a00ac
:10164000c811de004811dd00680444008384cf0027
:10165000e9845400060034008919dd00f083140089
:101660008713de00878171000911dd000904440041
:10167000e1021400e9ff3700889fbe008a9fbe0088
:101680008c9fbe001b0020000202be000586680081
:1016900006002800060666004709de00f20fb200c9
:1016a000820032000243e80080003200c729de00d9
:1016b000f30fb2007d0032000343e8007b003200ec
:1016c000f107b2000170a000f507b2000570a0009c
:1016d000c708dd004903de00868070004700dd009a
:1016e000c72add004923de00868272004722dd0022
:1016f00003055100040350008583580003003100a6
:1017000000004000818048000a05e9008c1f780035
:101710008a9fbe00040050008580580004024200e9
:1017200085824a0000004000818048000005eb00ef
:101730000004be006033b8000406be000d48e1009e
:1017400056003100110009004dccd8000c01b80042
:101750000d02b8008481410060824a0082835300f8
:1017600003045c0084845c0060055d000a00e00006
:1017700025003a00800578000d40e1004900310065
:101780008800780007007800110009004d88d80013
:101790000c01b8000d02b8008481410060824a004b
:1017a0006003110083835b0004045c00e0845c0040
:1017b0000900e00021003a004f01be000300e000f4
:1017c0002b003200e3016000070673008c8171007a
:1017d00001003200640070004200de004e5edd0059
:1017e0000c007000c258de0001e0a000e700070016
:1017f000cf017800818071004f06be004f05be000a
:101800004f04be00000006008c8343000d044c0012
:10181000e0844c0060054d000000e9000a00e00093
:10182000d4ff32008c8343000d044c00e0844c0054
:1018300060054d000000e900ceff37000c034300b7
:101840008d834b0060044c00e0844c000000e900f4
:101850000900e000d8ff32000c0343008d834b00e9
:1018600060044c00e0844c000000e900d2ff370027
:101870004200de004e5edd000c007000c258de004b
:1018800001e0a000cf0178000300e000daff3200a1
:1018900060001000e0801800d7ff3700f0ff2f0035
:1018a000aaff3700f0ff2f00b9ff37000404be0085
:1018b0006e010700870678000004fd008104fd002a
:1018c0006a010700078366000678a3000300320060
:1018d0000960a7000800be002c0037000d78a300a7
:1018e000020032000800be00280037000778a3007d
:1018f00026003a0001f0a10009f0a1000668a3004b
:1019000003003200f1ff2700f0ff2f00baff37007d
:101910000d68a300030032000800be008c80700038
:10192000b5ff37000768a30007003a000648a30088
:1019300003003200f1ff2700f0ff2f00aeff370059
:101940000d48a300030032006000b8008c807000d6
:10195000a9ff37000748a3000400320001f8270060
:10196000000020008c807000a3ff37002a000700d1
:101970000004fd008104fd00020578002600070038
:101980000802be008a01780059ff37000160a000fc
:1019900012022000a25d880097ff37000100e000de
:1019a000120032000500e00010003200889fbe00e7
:1019b0008a9fbe008c9fbe000006eb0001f8a300ca
:1019c0000300320060001000e08018000cf0a0005e
:1019d00005f8a3000300320060021200e0821a0042
:1019e0000cf0a2008005eb0041ff37006000b8005a
:1019f000020005000478a300040032000578a3006b
:101a0000030032000168a30001003a000200be009a
:101a10000160a000000006004f0ade004709de005a
:101a2000f107b200f20fb2000b003200f207b10072
:101a30000170a000c708dd00c901de0083807000ce
:101a40004700dd000400a600000006006000100052
:101a5000e080180000000600810f700001003a00cd
:101a6000000006008182cf000500e00010003e006b
:101a70008082cf00ee8242007028e100040039002d
:101a800007003e00800078000000eb000e003700e9
:101a9000708312008600de000500dd000a003700ba
:101aa000708352008600dd000000eb000600370066
:101ab000e28252008508dd00708312000603de001a
:101ac000868070000500dd007507b0000501ea00a2
:101ad0000400a6000000060060001000e08018006e
:101ae000000006000100e000260032006101110044
:101af0007810e10023003c006022b8007010e10083
:101b00000400350080027800010078008000eb00be
:101b1000700151000200e000090034007003110060
:101b2000062add00822ade008603dd00878272003d
:101b30000200de00860bdd00070070008208de0078
:101b400084817100f4ff27000482620084817100a7
:101b500004002800848262006102600005f0a60093
:101b60000000060004827100070032000000e80057
:101b7000e0804800000006000002be006000b800df
:101b8000efff37006000b800000006008101700020
:101b9000270032008002eb0001f8a30003003200ae
:101ba00060001000e080180015002000f4072000fd
:101bb0000202420020003400f70320008703600087
:101bc00006042000000363000208200000016100f9
:101bd0004700de00c909dd0000807100c708de0093
:101be0000600e000080032008703710006003200a2
:101bf0001000b0000180b0000188a3000200320094
:101c0000c108de000402e800f107b200f30f200073
:101c10000320e10003003d004722dd008100720047
:101c20002900370001f827000000eb0026003700ec
:101c30006000b80000000600680212007f20e1008a
:101c4000020034006000b8001f0037006011b800c7
:101c50007020e10004003500800178000100780068
:101c60008000eb00700252000400e0000900340024
:101c7000f00312000719dd008419de000703dd0000
:101c8000868171000400de00070bdd000600700095
:101c90008408de00f7ff2700838363008703710059
:101ca0000600280003036300070032000700e0007d
:101cb00003003a00610160000281730002003200fb
:101cc0001000b0000180b0000500a6000000060072
:101cd00001f0a00000000600881f780003047800cf
:101ce0000300e00007003d0060001000e0801800e5
:101cf00060011900e081190002003b0001f02d0095
:101d0000030037000400070008f0a70001f0a0005e
:101d10004f04780000000600889fbe008a9fbe0026
:101d200000827000040271000482710026003200fb
:101d30000004be000200be006011b8006b09200064
:101d4000950220000182cf000a0039000541b10050
:101d50000082cf00070039000541b1000982cf00a1
:101d6000040039000541b1000882cf0001003900ac
:101d70000541b10005425200120032000a003b004a
:101d800082817100610164008100d1000080d30074
:101d90008984d3000884d3008b05e8000442e8005e
:101da000f7ff3a00070037000804440089844c001c
:101db00000004800818048008b05e9000442e900ea
:101dc000f9ff3a00030007004f05be004f04be00b4
:101dd0000000060081002000618055000b003d00de
:101de0000b00200061fe2f000100e1001d00340007
:101df00082817100610164008904d1000884d300ec
:101e00000000e800faff3a00710020006100640061
:101e10000300700002006000090032006104440009
:101e2000e0844c000988a500050032008b05e8001d
:101e30006808e10002003a008904d1000884d30058
:101e4000f20f20000258e10005003d00c75ddd00f3
:101e5000f907b200898075000800780000000600cc
:101e60000bf827008b0078000000050027002000f9
:101e700001f0a70017002000470bde00f60fb200ac
:101e8000040032000643e8000a0032004702b300b3
:101e90000000060001037800f607b2000603700098
:101ea00002003a000703b300000006008702b300f7
:101eb0000000060001037800f607b2000603700078
:101ec000020032000770a000000006000760a000ba
:041ed0000000060008
:020000040000fa
:0200000401f009
:04000c0078ff000079
:020000040000fa
:0200000401f009
:040010005eff00008f
:020000040000fa
:0200000401f009
:040014007fff00006a
:020000040000fa
:0200000401f009
:04001800eeff0000f7
:020000040000fa
:0200000401f009
:04001c00dfff000002
:020000040000fa
:10000800e8070000e8070000e8070000e80700002c
:10001800e8070000e8070000e8070000e80700001c
:10002800e8070000e8070000e80700008a0500006c
:10003800e807000044060000e8070000e8070000a1
:10004800e8070000e8070000e8070000e8070000ec
:10005800ee050000e8070000e8070000e8070000d8
:1000680024030000a0020000e8070000e8070000e1
:100078002c030000e8070000e8070000e80700007c
:10008800e8070000e8070000e8070000e8070000ac
:10009800e8070000e8070000e8070000e80700009c
:1000a800e8070000e8070000e8070000e80700008c
:1000b800e8070000e8070000e8070000e80700007c
:1000c800e8070000e8070000e8070000e80700006c
:1000d800e8070000e8070000e8070000e80700005c
:1000e800e8070000e8070000e8070000e80700004c
:1000f800e8070000e8070000e8070000e80700003c
:10010800e8070000e8070000e8070000e80700002b
:10011800e8070000e8070000c4050000e807000041
:10012800e8070000e8070000e8070000e80700000b
:10013800e8070000e8070000e8070000e8070000fb
:10014800e8070000e8070000e8070000e8070000eb
:10015800e8070000e8070000e8070000e8070000db
:10016800e8070000e8070000e8070000e8070000cb
:10017800e8070000e8070000e8070000e8070000bb
:10018800e8070000e8070000e8070000e8070000ab
:10019800e8070000e8070000e8070000e80700009b
:1001a800e8070000e8070000e8070000e80700008b
:1001b800e8070000e8070000e8070000e80700007b
:1001c800e8070000e8070000e8070000e80700006b
:1001d800e8070000e8070000e8070000e80700005b
:1001e800e8070000e8070000e8070000e80700004b
:0801f800e8070000e807000021
:020000040000fa
:10020800e8070000e8070000e8070000e80700002a
:10021800e8070000e8070000e8070000e80700001a
:10022800e8070000e8070000e80700008a0500006a
:10023800e807000044060000e8070000e80700009f
:10024800e8070000e8070000e8070000e8070000ea
:10025800ee050000e8070000e8070000e8070000d6
:1002680024030000a0020000e8070000e8070000df
:100278002c030000e8070000e8070000e80700007a
:10028800e8070000e8070000e8070000e8070000aa
:10029800e8070000e8070000e8070000e80700009a
:1002a800e8070000e8070000e8070000e80700008a
:1002b800e8070000e8070000e8070000e80700007a
:1002c800e8070000e8070000e8070000e80700006a
:1002d800e8070000e8070000e8070000e80700005a
:1002e800e8070000e8070000e8070000e80700004a
:1002f800e8070000e8070000e8070000e80700003a
:10030800e8070000e8070000e8070000e807000029
:10031800e8070000e8070000c4050000e80700003f
:10032800e8070000e8070000e8070000e807000009
:10033800e8070000e8070000e8070000e8070000f9
:10034800e8070000e8070000e8070000e8070000e9
:10035800e8070000e8070000e8070000e8070000d9
:10036800e8070000e8070000e8070000e8070000c9
:10037800e8070000e8070000e8070000e8070000b9
:10038800e8070000e8070000e8070000e8070000a9
:10039800e8070000e8070000e8070000e807000099
:1003a800e8070000e8070000e8070000e807000089
:1003b800e8070000e8070000e8070000e807000079
:1003c800e8070000e8070000e8070000e807000069
:1003d800e8070000e8070000e8070000e807000059
:1003e800e8070000e8070000e8070000e807000049
:0803f800e8070000e80700001f
:020000040000fa
:101ed400d00000007bcf0000c1c00000403b0000e8
:101ee400787d00008b3a0000713d00004abf00007d
:101ef4009a990000993f00005d6d0000c5bd000087
:101f0400000000008038000000000000c84100000c
:101f1400cdcc000014c20000ae470000d1c00000c8
:101f24000000000090c200001f850000174100005f
:101f34000ad70000fc4200003c0000004861000099
:101f4400b4c20000ec51000014c200000ad7000023
:101f5400f7c2000045410000004500004d000000ac
:0c1f6400410000004d00000055aa0000e4
:020000040000fa
:101f70000e00fa00008fbe00220798003307980079
:101f80004407980055079800660798006e02900075
:101f90003e1a78002e1278006e0290002e039000f8
:101fa000be03900026029800370298006e0290004f
:101fb0004e039000de0390004602980057029800fe
:101fc0006e029000040078000080fa000000060015
:101fd0000000fa00445b8000e00f520002003a006b
:101fe000e40020000b00370044568000e10f52004f
:101ff00002003a000002eb00060037001400200047
:10200000445688008680a90010002000da0b0700e3
:102010000002eb00040078000080fa0000000600d7
:102020000000fa00445b8000e00f520002003a001a
:10203000e40020000d00370044568000e00f5200fd
:1020400002003a000002eb000800370010002000f8
:10205000f70b07008680a9000002eb0044568800b9
:102060000002eb00045c88000002eb000400780032
:102070000080fa00000006000200fa00000f78005d
:1020800044568000e00f520002003a00d4002000c5
:10209000030037001e0078002700070000027800c8
:1020a000040078000080fa00000006000200fa0038
:1020b000000f780044568000e00f520002003a0002
:1020c000d400200008003700045c8000e00f5200bc
:1020d00002003a00c4002000030037001e00780010
:1020e0001500070000027800040078000080fa0064
:1020f000000006000200fa00000f7800445680003d
:10210000e00f520002003a00d40020000700370020
:1021100000000000045c8000e00f5200fdff320070
:102120001e00780004000700000278000400780018
:102130000080fa00000006003200fa00889fbe000e
:102140008a9fbe008c9fbe0060179800140280001a
:102150004522de00674262000482fb0024079800eb
:102160009402800034079800ff3ffc0064b6200012
:1021700014427800674262000482fb00670262003a
:102180004522dd0016028000f5f12f008502630074
:1021900004827200140288003e02900094028800bb
:1021a0000000880024568000355680006e13900091
:1021b0002403980035039800c4568000d55680004b
:1021c000040f9800150f9800e4568000f556800023
:1021d000240f9800350f9800045780001557800091
:1021e000440f9800550f9800245780003557800001
:1021f000640f9800750f9800445780005557800071
:1022000004179800151798006457800075578000d0
:102210002417980035179800845780009557800040
:102220004417980055179800045c800044079800f4
:102230000002eb00045c88009402800054079800c0
:10224000ff3ffc002e0290000442780067426200cb
:102250000482fb00670262004522dd001602800056
:10226000f5f12f00850263000482720014028800d9
:102270005e02900094028800000088006508070054
:102280000002be006e139000048bbe004e02900050
:10229000e10f52000c0036004e02900005002000b5
:1022a0000400be004ffb07000002be000401be0098
:1022b0000000200001f82300effc07000002be0030
:1022c000048fbe00030037000400200005f823003f
:1022d000048fbe000e0a90009e0a90000400be000b
:1022e0003dfb07000002be001e01be000400be0050
:1022f0002cfc07000002be000404be00647b8400c6
:10230000cfa2de000400be0033fb07000002be00c7
:102310000401be000800be0034fb07000002be003e
:102320000403be00747b8400857b84000401be002e
:102330000600be001bfc07000002be006e139000ea
:1023400044039800550398006e12900044039000d7
:10235000d4039000347c8400457c84000401be00da
:102360000600be0021fb07000002be0064079800c3
:10237000750798006e1290006c0242007417980066
:102380006e0a9000fe0a90000400be0012fb0700d7
:102390000002be001e01be000400be0001fc0700da
:1023a0000002be000404be00d47c8400e57c8400ee
:1023b0006e019000fe0190000400be00f9fb0700d2
:1023c0000002be000403be00d45b8000e55b800019
:1023d0000401be000600be000dfb07000002be00a7
:1023e0000401be000800be0000fb07000002be00a2
:1023f0000403be00147c8400257c84000401be001c
:102400000600be00e7fb07000002be000405be0098
:102410004e0a9000de0a90000400be00eefa0700ab
:102420000002be001e01be000400be00ddfb07006e
:102430000002be000404be00b47c8400c57c84009d
:102440006e019000fe0190000400be00d5fb070065
:102450000002be000403be00947c8400a57c8400be
:102460000401be000600be00e9fa07000002be003b
:102470000401be000800be00dcfa07000002be0036
:102480000403be00147c8400257c84000401be008b
:102490000600be00c3fb07000002be000404be002d
:1024a0002e0a9000be0a90000400be00cafa07007f
:1024b0000002be001e01be000400be00b9fb070002
:1024c0000002be000406be00747c8400857c84008b
:1024d0006e019000fe0190000400be00b1fb0700f9
:1024e0000002be000403be00547c8400657c8400ae
:1024f0000401be000600be00c5fa07000002be00cf
:102500000401be000c00be00b8fa07000002be00c5
:102510000403be00147c8400257c84000401be00fa
:102520000600be009ffb07000002be000400be00c4
:102530007e1390000a02be000801be008cfe070058
:102540006e12900044039000d4039000545b80000e
:10255000655b80000401be000600be00a3fa070010
:102560000002be0064079800750798006e12900084
:1025700078024200041f98004e129000de12900074
:102580000400be0094fa07000002be001e01be0057
:102590000400be0083fb07000002be000404be006e
:1025a000f47b8400057c84006e019000fe019000a5
:1025b0000400be007bfb07000002be000403be0057
:1025c000b45b8000c55b80000401be000600be0055
:1025d0008ffa07000002be000401be000800be0022
:1025e00082fa07000002be000403be00947b840050
:1025f000a57b84000401be000600be0069fb070045
:102600000002be000405be002e129000be12900013
:102610000400be0070fa07000002be001e01be00ea
:102620000400be005ffb07000002be000404be0001
:10263000d47b8400e57b84006e019000fe01900055
:102640000400be0057fb07000002be000403be00ea
:10265000945b8000a55b80000401be000600be0004
:102660006bfa07000002be000401be000800be00b5
:102670005efa07000002be000403be00947b8400e3
:10268000a57b84000401be000600be0045fb0700d8
:102690000002be000404be000e1290009e129000c4
:1026a0000400be004cfa07000002be001e01be007e
:1026b0000400be003bfb07000002be000406be0093
:1026c000b47b8400c57b84006e019000fe01900005
:1026d0000400be0033fb07000002be000403be007e
:1026e000745b8000855b80000401be000600be00b4
:1026f00047fa07000002be000401be000c00be0045
:102700003afa07000002be000403be00947b840076
:10271000a57b84000401be000600be0021fb07006b
:102720000002be000400be000e1b90000a02be00a4
:102730000801be000efe07000002eb000400780056
:102740004f06be004f05be004f04be000080fa00d9
:10275000000006003400fa00889fbe00001f9800a9
:10276000111f980044568000e00f520002003a000a
:10277000d4002000a5003700007d200001002000cb
:1027800039070700140280004522de00674262001c
:102790000482fb002407980094028000340798000c
:1027a000ff3ffc0064b620001442780067426200dc
:1027b0000482fb00670262004522dd0016028000f1
:1027c000f5f12f0085026300048272001402880074
:1027d0003e0290009402880000008800c4568000e9
:1027e000d5568000240f9800350f9800e4568000dd
:1027f000f5568000440f9800550f9800045780004c
:1028000015578000640f9800750f980024578000ba
:10281000355780000417980015179800445780001a
:10282000555780002417980035179800645780008a
:1028300075578000441798005517980084578000fa
:10284000955780006417980075179800045c800005
:10285000440798000002eb00045c880094028000aa
:1028600054079800ff3ffc002e02900004427800bd
:10287000674262000482fb00670262004522dd00bd
:1028800016028000f5f12f008502630004827200b9
:10289000140288005e029000940288000000880004
:1028a0004e029000e10f52000c0036004e029000e4
:1028b000050020000400be00caf907000002be00a7
:1028c0000401be000000200001f823006afb07009d
:1028d0000002be00048fbe00030037000400200089
:1028e00005f82300048fbe002e0a9000be0a900057
:1028f0000400be00b8f907000002be001e01be00c1
:102900000400be00a7fa07000002be000404be00d7
:10291000647b8400cfa2de000400be00aef9070095
:102920000002be000401be000800be00aff90700af
:102930000002be000403be00747b8400857b84001b
:102940000401be000600be0096fa07000002be00a9
:102950006407980075079800347c8400457c8400e7
:102960000401be006e009000fe0090009ff9070079
:102970000002be00040f9800150f9800147c84001c
:10298000257c84000401be000e1890009e18900063
:1029900039fb07000002be000404be000e129000c6
:1029a0009e1290000400be008bf907000002be00da
:1029b0001e01be000400be007afa07000002be003d
:1029c0000401be000800be0091f907000002be002d
:1029d0000404be00d47c8400e57c84000e099000d1
:1029e0009e0990000400be006efa07000002be00bf
:1029f0000401be000800be007cf907000002be0012
:102a0000d45b8800e55b88000002eb0004007800de
:102a10004f04be000080fa00000006002c00fa00ff
:102a2000889fbe00445b8000e00f520002003a0025
:102a3000e4002000ae00370044568000e00f520052
:102a400002003a00d4002000a9003700007d2000d9
:102a500001002000960607000002be00240798002f
:102a6000350798006022b800745b8800855b880099
:102a70006022b800945b8800a55b88006022b800e3
:102a8000b45b8800c55b88002e009000be009000fb
:102a9000ac060700140280004522de006742620097
:102aa0000482fb00440798009402800054079800b9
:102ab000ff3ffc0064b620001442780067426200c9
:102ac0000482fb00670262004522dd0016028000de
:102ad000f5f12f0085026300048272001402880061
:102ae0005e0290009402880000008800c4568000b6
:102af000d5568000040f9800150f9800e45680000a
:102b0000f5568000240f9800350f98000457800078
:102b100015578000440f9800550f980024578000e7
:102b200035578000640f9800750f98004457800057
:102b300055578000041798001517980064578000b7
:102b40007557800024179800351798008457800027
:102b5000955780004417980055179800045c800032
:102b6000640798000002eb00045c88009402800077
:102b700074079800ff3ffc004e029000044278006a
:102b8000674262000482fb00670262004522dd00aa
:102b900016028000f5f12f008502630004827200a6
:102ba000140288007e0290009402880000008800d1
:102bb0006e029000e10f52000c0036006e02900091
:102bc000050020000400be0006f907000002be0058
:102bd0000401be000000200001f82300a6fa07004f
:102be0000002be00048fbe00030037000400200076
:102bf00005f82300048fbe000e1290009e12900074
:102c00000400be00f4f807000002be001e01be0072
:102c10000400be00e3f907000002be00745b8800f8
:102c2000855b88002e129000be1290000400be004a
:102c3000e9f807000002be001e01be000400be004d
:102c4000d8f907000002be00945b8800a55b8800ed
:102c50004e129000de1290000400be00def8070065
:102c60000002be001e01be000400be00cdf9070038
:102c70000002be00b45b8800c55b88000e0a9000ad
:102c80009e0a90000400be00d3f807000002be00b8
:102c90001e01be000400be00c2f907000002be0013
:102ca0000404be00647b8400cfa2de000400be00ea
:102cb000c9f807000002be000401be000800be0003
:102cc000caf807000002be000403be00747b840043
:102cd000857b84000401be000600be00b1f9070038
:102ce0000002be00545b8800655b88000002eb00b8
:102cf000040078004f04be000080fa0000000600c7
:102d00000e00fa00008fbe002207980033079800db
:102d10004407980055079800660798006e029000d7
:102d20003e1a78002e1278006e0290002e0390005a
:102d3000be03900026029800370298006e029000b1
:102d40004e039000de039000460298005702980060
:102d50006e029000040078000080fa000000060077
:102d60002800fa00889fbe008a9fbe008c9fbe008c
:102d700010179800445b8000e00f520002003a00f8
:102d8000e40020001101370044568000e00f52009b
:102d900002003200b40020000c0137000002eb00fa
:102da000040f7800660247000400780069010700fc
:102db00000027800040f78001e027800e00f520035
:102dc000020032001e027800000137009105070062
:102dd0000002be001e139000048bbe00245680002b
:102de0003556800061024200e0824a002456880085
:102df0003556880024568000355680001e139000fa
:102e000024039800350398003e039000ce03900001
:102e1000647b8400cfa2de000402530085825b0045
:102e20000400be006cf807000003be00747b840041
:102e3000857b84000401be000600be0059f907002e
:102e40000002be001e139000440398005503980032
:102e50001e12900044039000d4039000347c840040
:102e6000457c84000401be000600be005ff8070038
:102e70000002be0014079800250798001e1290005b
:102e80006c024200241798001e0a9000ae0a9000bf
:102e90000400be0050f807000004be00d47c84008b
:102ea000e57c84001e019000ae0190000400be008d
:102eb0003cf907000002be000403be00d45b8000a2
:102ec000e55b80000401be000600be0050f807006c
:102ed0000002be000401be000800be0043f8070067
:102ee0000002be000403be00147c8400257c840024
:102ef0000401be000600be002af907000002be0061
:102f00000405be007e0290008e0a90000400be0000
:102f100031f807000004be00b47c8400c57c840046
:102f20001e019000ae0190000400be001df90700d4
:102f30000002be000403be00947c8400a57c8400d3
:102f40000401be000600be0031f807000002be000a
:102f50000401be000800be0024f807000002be0005
:102f60000403be00147c8400257c84000401be00a0
:102f70000600be000bf907000002be000404be00fc
:102f80005e029000ee0290000400be0012f80700fe
:102f90000006be00747c8400857c84001e019000c5
:102fa000ae0190000400be00fef807000002be0063
:102fb0000403be00547c8400657c84000401be00d0
:102fc0000600be0012f807000002be000401be00a9
:102fd0000c00be0005f807000002be000403be009e
:102fe000147c8400257c84000401be000600be0021
:102ff000ecf807000002be000400be002e13900093
:103000000a02be000801be003dff07001e1290002c
:1030100044039000d4039000545b8000655b800003
:103020000401be000600be00f0f707000002be006b
:1030300014079800250798001e129000780242009d
:10304000341798007e0a90008e1290000400be0093
:10305000e1f707000004be00f47b8400057c8400d7
:103060001e019000ae0190000400be00cdf80700e4
:103070000002be000403be00b45b8000c55b80009c
:103080000401be000600be00e1f707000002be001a
:103090000401be000800be00d4f707000002be0015
:1030a0000403be00947b8400a57b84000401be0061
:1030b0000600be00bbf807000002be000405be000b
:1030c0005e0a9000ee0a90000400be00c2f70700fe
:1030d0000004be00d47b8400e57b84001e019000c8
:1030e000ae0190000400be00aef807000002be0072
:1030f0000403be00945b8000a55b80000401be0059
:103100000600be00c2f707000002be000401be00b8
:103110000800be00b5f707000002be000403be00b1
:10312000947b8400a57b84000401be000600be00e1
:103130009cf807000002be000404be003e0a900096
:10314000ce0a90000400be00a3f707000006be00f0
:10315000b47b8400c57b84001e019000ae0190000a
:103160000400be008ff807000002be000403be008a
:10317000745b8000855b80000401be000600be0019
:10318000a3f707000002be000401be000c00be0051
:1031900096f707000002be000403be00947b840083
:1031a000a57b84000401be000600be007df8070078
:1031b0000002be000400be003e1390000a02be00e2
:1031c0000801be00cefe07000002eb0004007800fc
:1031d0004f06be004f05be004f04be000080fa003f
:1031e000000006000a00fa004047980031079800e6
:1031f00042079800445b8000e00f520002003a0052
:10320000e40020002200370044568000e00f520006
:1032100002003200b40020001d0037000002eb0065
:10322000140798000002eb00040f7800010037003b
:1032300000000000a4f6280014427800ce0190009f
:103240003e019000ce40900004407800a6070700a1
:1032500000027800140798001e029000e00f520050
:1032600003003200e20f5200030032000700370073
:103270000002eb00060037001e0fe80014032000d8
:103280009e027800848f5200e9ff36001e029000f3
:10329000040078000080fa00000006000a00fa002e
:1032a000404798003107980042079800445b80002f
:1032b000e00f520002003a00e40020002200370034
:1032c00044568000e00f520002003200b40020009b
:1032d0001d0037000002eb00140798000002eb000d
:1032e000040f78000100370000000000a4f6280059
:1032f00014427800ce0190003e019000ce40900034
:103300000440780034080700000278001407980091
:103310001e029000e00f520003003200e20f520044
:1033200003003200070037000002eb000600370000
:103330001e0fe800140320009e027800848f5200c4
:10334000e9ff36001e029000040078000080fa00b9
:10335000000006001800fa00300f98000002eb0091
:10336000140798000042eb004447980064024700ad
:1033700004007800d30d07000002780014079800bd
:103380001e029000e00f5200020032001e02900068
:103390005f0037004e4290000482fb006102620031
:1033a000e00f520009003a000002eb00040f780021
:1033b000010037001e0fe800743e20009e027800d6
:1033c000848f5200fbff3400e8ff3700680247009b
:1033d000e200200084007800b0c3b30081ff070042
:1033e00000027800140798001e029000e00f5200bf
:1033f000020032001e029000450037000e4a900085
:10340000744798001e4a9000644798003e0290005e
:103410000402ea00cfa2de003e0b900044039800b5
:10342000550398002e4a9000744798003e4a900039
:10343000644798003e0290000402ea00cfa2de003a
:103440003e0b900024039800350398004e4a9000ec
:10345000744798005e4a9000644798003e029000ce
:103460000402ea00cfa2de003e0b90006403980045
:10347000750398006e4a9000744798007e4a900049
:10348000644798003e029000cfa2de003e0b900001
:10349000048bbe000e529000744798001e5290009c
:1034a000644798003e0290000402ea00cfa2de00ca
:1034b0003e0b9000240b9800350b98002e52900084
:1034c000744798003e529000644798003e02900076
:1034d0000402ea00cfa2de003e0b9000040b98002d
:1034e000150b98004e529000744798005e52900061
:1034f000644798003e0290000402ea00cfa2de007a
:103500003e0b9000440b9800550b98000002eb0016
:10351000040078000080fa00000006003600fa007f
:10352000889fbe00445b8000e00f520002003a001a
:10353000e40020009f00370044568000e00f520056
:1035400002003200b40020009a003700007d200005
:1035500001002000d60307000002be00240f9800df
:10356000350f98006022b800048fbe006022b800ba
:1035700024079800350798006022b8004407980097
:10358000550798006022b8006407980075079800f6
:103590006022b800040f9800150f98000002eb009d
:1035a000440f98006022b800745b8800855b880037
:1035b0006022b800945b8800a55b88006022b80098
:1035c000b45b8800c55b88007a024700040078007d
:1035d00060ff070000027800440f98004e0a900038
:1035e000e00f5200020032004e0a900071003700d6
:1035f0005e129000ee1290001e0f42005e974a008d
:103600007e1290008e1a90002e039000be03900050
:103610000602420087824a00240798003507980076
:103620001e1a9000ae1a90004e039000de03900028
:103630000602420087824a00440798005507980016
:103640005e0a9000ee0a90006e039000fe03900068
:103650000602420087824a006407980075079800b6
:103660000e0a90009e0a900061024200e0824a0029
:10367000040f9800150f98002e089000be089000c7
:10368000a303070000027800e00f5200ceff3200d3
:103690001e00be0050f607000004be000e08900099
:1036a0009e0890004cf607000002be000401be0018
:1036b0000800be00f0f707000002be00745b88003f
:1036c000855b88002e009000be00900042f6070047
:1036d0000004be000e0890009e0890003ef6070011
:1036e0000002be000401be000800be00e2f70700b1
:1036f0000002be00945b8800a55b88004e0090002d
:10370000de00900034f607000004be000e089000b2
:103710009e08900030f607000002be000401be00c3
:103720000800be00d4f707000002be00b45b8800aa
:10373000c55b88006e009000fe00900026f6070032
:103740000004be000e0890009e08900022f60700bc
:103750000002be000401be000800be00c6f707005c
:103760000002be000404be00647b8400cfa2de0021
:103770000400be0018f607000002be000401be00ef
:103780000800be0019f607000002be000403be00d8
:10379000747b8400857b84000401be000600be00ab
:1037a00000f707000002be00545b8800655b8800dc
:1037b0000002eb00040078004f04be000080fa0015
:1037c000000006000e00fa00008fbe0022079800dd
:1037d000330798004407980055079800660798003b
:1037e0006e0290003e1a78002e1278006e02900051
:1037f0002e039000be039000260298003702980026
:103800006e0290004e039000de0390004602980086
:10381000570298006e029000040078000080fa00c1
:10382000000006000400fa00889fbe00000f780028
:10383000110798001e0278001403be001e029000bb
:103840001402be000401be000600be00d5f607004b
:103850000002be000404be001e0278002403900093
:10386000b40390001e029000b40290002402900065
:103870000401be000600be00caf607000002be003a
:103880000401be000800be00e1f507000002be0012
:103890000404be001e02780044039000d40390008c
:1038a0001e029000d4029000440290000401be0069
:1038b0000600be00bbf607000002be000401be0009
:1038c0000800be00d2f507000002be000400be00e2
:1038d0004f04be000080fa00000006001c00fa0041
:1038e000889fbe008a9fbe008c1f7800500f9800f2
:1038f0000002eb00040f78006e024700040078001d
:10390000d000070000027800040f78001e02780043
:10391000e00f5200020032001e02780071003700f2
:10392000bc0207000002be005e0b9000048bbe00cc
:10393000245a8000355a800061024200e0824a0029
:10394000245a8800355a8800245a8000355a80004d
:103950005e0b900024039800350398005e0a9000e7
:10396000680642003e0a9000ce0a90000400be00a5
:1039700099f507000003be00a4588000b5588000e8
:103980000401be000600be0086f607000002be006d
:103990000403be00447d8400557d84000401be0004
:1039a0000600be0091f507000002be000405be003f
:1039b0001e0a9000ae0a90000400be0086f50700c3
:1039c0000003be00a4588000b55880000401be006a
:1039d0000600be0073f607000002be000403be002e
:1039e000247d8400357d84000401be000600be00f5
:1039f0007ef507000002be000404be007e029000b7
:103a00008e0a90000400be0073f507000003be009c
:103a1000a4588000b55880000401be000600be0016
:103a200060f607000002be000403be00047d8400af
:103a3000157d84000401be000600be006bf5070082
:103a40000002be000400be000c0378000a02be00a3
:103a50000801be005bff07005e0a9000680242009a
:103a60008400780080b120006eff07000002be00d5
:103a700014079800250798005e0a9000680242002b
:103a80008400780040b2200066ff07000002be00fc
:103a900034079800450798005e0a900068024200cb
:103aa0008400780000b320005eff07000002be0023
:103ab00054079800650798005e0a9000680242006b
:103ac000040378005e029000ee0290003e01900038
:103ad000ce0190001e009000ae00900039ff07005c
:103ae0000002eb00040078004f0678004f05be008e
:103af0004f04be000080fa00000006000a00fa0031
:103b00004047980031079800420798009458800079
:103b1000e00f520002003a00e40020001d003700d0
:103b20000002eb00140798000002eb00040f78007d
:103b30000100370000000000e4f92800144278007a
:103b4000ce0190003e019000ce40900004407800ed
:103b50006505070000027800140798001e02900017
:103b6000e00f520003003200e20f52000300320067
:103b7000070037000002eb00060037001e0fe800c8
:103b8000140320009e027800848f5200e9ff360063
:103b90001e029000040078000080fa000000060079
:103ba0000a00fa0040479800310798004207980041
:103bb00094588000e00f520002003a00e400200018
:103bc0001d0037000002eb00140798000002eb0014
:103bd000040f78000100370000000000e4f928001d
:103be00014427800ce0190003e019000ce4090003b
:103bf00004407800f80507000002780014079800d8
:103c00001e029000e00f520003003200e20f52004b
:103c100003003200070037000002eb000600370007
:103c20001e0fe800140320009e027800848f5200cb
:103c3000e9ff36001e029000040078000080fa00c0
:103c4000000006000e00fa00600798000002eb007a
:103c5000040f78000042eb00244798000e82e80031
:103c600004007800c709070000027800040f7800fc
:103c70001e027800e00f5200020032001e0278009f
:103c8000440037002e4290000482fb006102620073
:103c9000e00f520004003a00200020000100200044
:103ca000fa010700edff37006602470062002000be
:103cb0008400780030c0b30090ff07000002780055
:103cc000040f78001e027800e00f5200020032005c
:103cd0001e0278002f0037006e4290005447980073
:103ce0007e42900044479800ae02900004802f006e
:103cf000848f520002003d00f400200025003700b0
:103d00002e0290000402ea00cfa2de006e039000b3
:103d1000048bbe000e4a9000544798001e4a900043
:103d200044479800ae02900004802f00848f520018
:103d300002003d00f4002000160037002e02900023
:103d40000402ea00cfa2de006e0390004403980054
:103d5000550398002e4a9000544798003e4a900020
:103d600044479800ae02900004802f00848f5200d8
:103d700002003d00f4002000060037002e029000f3
:103d8000cfa2de006e039000240398003503980054
:103d90000002eb00040078000080fa00000006003a
:103da0000e00fa00008fbe0022079800330798002b
:103db0004407980055079800660798006e02900027
:103dc0003e1a78002e1278006e0290002e039000aa
:103dd000be03900026029800370298006e02900001
:103de0004e039000de0390004602980057029800b0
:103df0006e029000040078000080fa0000000600c7
:103e00000400fa00889fbe00000f78001107980098
:103e10001e0278001403be001e0290001402be00b1
:103e20000401be000600be005ef507000002be00f1
:103e30000404be001e02780024039000b403900026
:103e40001e029000b4029000240290000401be0003
:103e50000600be0053f507000002be000401be00cc
:103e60000800be006af407000002be000404be00a1
:103e70001e02780044039000d40390001e029000bc
:103e8000d4029000440290000401be000600be006f
:103e900044f507000002be000401be000800be0099
:103ea0005bf407000002be000400be004f04be0029
:103eb0000080fa00000006000000fa00945880001c
:103ec000e00f520002003a00e40020000b0037002f
:103ed000e4598000e10f520002003a000002eb00ba
:103ee0000600370014002000e459880084a0a900cf
:103ef00020002000200407000002eb0004007800ee
:103f00000080fa00000006000000fa0094588000cb
:103f1000e00f520002003a00e40020000d003700dc
:103f2000e4598000e00f520002003a000002eb006a
:103f300008003700200020003d04070084a0a900ed
:103f40000002eb00e45988000002eb00045a8800ec
:103f50000002eb00040078000080fa000000060078
:103f60000200fa00000f7800e4598000e00f5200d0
:103f700002003a00d4002000030037001e00780041
:103f80002700070000027800040078000080fa0093
:103f9000000006000200fa00000f7800e4598000db
:103fa000e00f520002003a00d40020000800370061
:103fb000045a8000e00f520002003a00c4002000c2
:103fc000030037001e00780015000700000278008b
:103fd000040078000080fa00000006000200fa00e9
:103fe000000f7800e4598000e00f520002003a0010
:103ff000d40020000700370000000000045a8000b1
:10400000e00f5200fdff32001e00780004000700a0
:1040100000027800040078000080fa00000006002a
:104020002600fa00889fbe008a9fbe008c1f780081
:1040300020179800140280004522de0067426200cb
:104040000482fb0024079800940280003407980043
:10405000ff3ffc0004b12000144278006742620078
:104060000482fb00670262004522dd001602800028
:10407000f5f12f00850263000482720014028800ab
:104080003e0290009402880000008800245a8000bc
:10409000355a80002e1390002403980035039800b1
:1040a000445a8000555a8000440f9800550f9800dc
:1040b000645a8000755a8000640f9800750f98004c
:1040c000845a8000955a80000417980015179800ac
:1040d000045a8000440798000002eb00045a88004c
:1040e0009402800054079800ff3ffc002e029000cd
:1040f00004427800674262000482fb0067026200ab
:104100004522dd0016028000f5f12f0085026300d4
:1041100004827200140288005e02900094028800fb
:10412000000088004e029000e10f52000c003600a3
:104130004e029000050020000400be00a9f3070015
:104140000002be000401be000000200001f82300b0
:1041500049f507000002be00048fbe0003003700cf
:104160000400200005f82300048fbe002e129000ea
:10417000680642000e1290009e1290000400be00dd
:1041800095f307000002be001e01be000400be0041
:1041900084f407000002be000403be00a45880009f
:1041a000b55880000401be000600be007df4070083
:1041b0000002be000403be00447d8400557d8400df
:1041c0000401be000600be0088f307000002be0026
:1041d0000405be006e0a9000fe0a90000400be00b6
:1041e0007df307000002be001e01be000400be00f9
:1041f0006cf407000002be000403be00a458800057
:10420000b55880000401be000600be0065f407003a
:104210000002be000403be00247d8400357d8400be
:104220000401be000600be0070f307000002be00dd
:104230000404be004e0a9000de0a90000400be0096
:1042400065f307000002be001e01be000400be00b0
:1042500054f407000002be000403be00a45880000e
:10426000b55880000401be000600be004df40700f2
:104270000002be000403be00047d8400157d84009e
:104280000401be000600be0058f307000002be0095
:104290000400be000c0378000a02be000801be0044
:1042a000bffe07002e1290006802420084007800d2
:1042b00080b12000d2fe07000002be006407980013
:1042c000750798002e129000680242008400780062
:1042d00040b22000cafe07000002be00040f980092
:1042e000150f98002e12900068024200840078009a
:1042f00000b32000c2fe07000002be00240f980099
:10430000350f98002e1290006802420004037800d6
:104310002e0a9000be0a90000e0990009e0990009f
:104320006e009000fe0090009dfe0700390007001f
:104330000002be002e139000048bbe000002eb00b2
:10434000040078004f0678004f05be004f04be0001
:104350000080fa00000006000a00fa001402800043
:104360004522de0067426200044f7800940280001c
:1043700014079800ff3ffc0084b920001442780025
:10438000674262000482fb00670262004522dd0092
:1043900016028000f5f12f0085026300048272008e
:1043a000140288001e029000940288000000880019
:1043b000d45c8000e55c80002407980035079800f5
:1043c0009502800045079800ff3ffc001e427800e0
:1043d000674262000482fb00670262004522dd0042
:1043e00016028000f5f12f0085026300048272003e
:1043f000140288004e029000940288000000880099
:104400002e029000be0290000400be000080fa0060
:10441000000006000400fa00a4088000040f7800e1
:10442000b4088000140798001e02be000400be00fd
:104430000080fa00000006000000fa00c6ff070036
:104440000002be0064024200e0824a004d2bdd0003
:104450004322de0004027300c32ade000400be0013
:104460000080fa00000006000400fa00008fbe0081
:104470001e00be000e0007000002be000400be00c9
:10448000300007000080fa00000006000400fa0077
:10449000008fbe001e00be00130007000002be0019
:1044a0000400be00270007000080fa00000006009c
:1044b0000400fa00008fbe00a7ff07000003be0043
:1044c0001e00be00430add00cd02de008502720040
:1044d0004302dd000602420087824a000400be005b
:1044e0000080fa00000006000400fa00008fbe0001
:1044f00099ff07000002be003e034200ae834a005f
:104500000602be000400be000080fa0000000600a3
:104510000400fa00008fbe008fff07000002be00fb
:10452000be0f5200ae8f5a0002003100140020006e
:10453000010037000002eb00040078000080fa0060
:10454000000006000400fa00008fbe00000000001a
:1045500081ff07000002be00be0f5200ae8f5a005e
:10456000fbff39000080fa00000006000c00fa0092
:104570003007980041079800520798001402800005
:104580004522de0067426200044f780094028000fa
:1045900014079800ff3ffc0084b920001442780003
:1045a000674262000482fb00670262004522dd0070
:1045b00016028000f5f12f0085026300048272006c
:1045c000140288001e0290009402880000008800f7
:1045d0008bc0a9009bc0a8005e029000145d8800fb
:1045e0003e029000ce029000432bdd00cd23de0082
:1045f000870373004323dd00d45c8000e55c80000a
:104600000602420087824a00f45c8800055d88004b
:104610009402800024079800ff3ffc001e427800af
:10462000674262000482fb00670262004522dd00ef
:1046300016028000f5f12f008502630004827200eb
:10464000140288002e029000940288000000880066
:104650000080fa00000006000600fa001402800044
:104660004522de0067426200044f78009402800019
:1046700014079800ff3ffc0084b920001442780022
:10468000674262000482fb00670262004522dd008f
:1046900016028000f5f12f0085026300048272008b
:1046a000140288001e029000940288000000880016
:1046b0009bc0a9008bc0a9000082eb008082eb00a8
:1046c000f45c8800055d88000002eb00145d880042
:1046d0009402800024079800ff3ffc001e427800ef
:1046e000674262000482fb00670262004522dd002f
:1046f00016028000f5f12f0085026300048272002b
:10470000140288002e0290009402880000008800a5
:104710000080fa00000006000000fa00d082a80025
:1047200075348000f40f2e00848262000440210062
:1047300004827200743488000080fa0000000600d1
:104740000600fa0020479800314798004247980039
:10475000fe08070000427800044f78001e427800ef
:10476000e04f520002003a006400200024003700ad
:1047700094588000e00f5200020032000002eb006b
:104780001f00370014002000945888001e40780055
:1047900010ebb7000002eb00340a88007327a90071
:1047a000ddff070094a0a90084a0a90004b12000a7
:1047b00014427800674262000482fb0067026200d4
:1047c0004422dd0036058000f5f82f0085026300e5
:1047d0000482720034058800340a80000400a000be
:1047e0000410a0000420a100340a88004e4190006b
:1047f000be4090002e4090000400070000027800a8
:10480000040078000080fa00000006001600fa009c
:1048100020579800315798004257980094588000cc
:10482000e00f520002003a00e40020008f00370041
:10483000e4598000e00f520002003200b400200072
:104840008a0037002e529000674262002457980079
:104850002e529000e64f52000200360064c0b300b2
:10486000245798002e529000250020000522dd00dc
:10487000245798003e5290006742620034579800d7
:104880004e52900063426200445798004e5290008e
:10489000550020000522dd00445798003e5290004c
:1048a0000482fb00cfa2de0076002000070020007b
:1048b000860f5200878f5a0030003e0004600100ce
:1048c000070037000b0037000f00370013003700d8
:1048d000170037001b0037001f0037002300370088
:1048e000f4c72d00a5f32300a4588800b55888000c
:1048f0002700370024cc2d00a5f62300a4588800fb
:10490000b558880022003700848f2100c5f92300a4
:10491000a4588800b55888001d00370004082f00ef
:1049200015fc2300a4588800b558880018003700eb
:10493000c445270015012400a4588800b5588800f4
:104940001300370034a4210045022400a458880035
:10495000b55888000e003700c4072f001504240046
:10496000a4588800b5588800090037004416220072
:10497000b5082400a4588800b5588800f4c72d0055
:10498000a5f32300a4588800b55888000000000053
:104990000002eb0014079800ae5290004e529000b7
:1049a00004c27200444798003e5290005500200017
:1049b0000522dd00544798004e40900099060700fc
:1049c00000027800140798001e029000e00f5200c9
:1049d000020032001e029000240037005e4090006a
:1049e000a406070000027800140798001e02900039
:1049f000e00f5200020032001e0290001b00370040
:104a00000040eb00730607000002780014079800ce
:104a10001e029000e00f5200020032001e029000c1
:104a2000120037000002eb00040f78000b00370083
:104a3000660247000400780082fc0700000278004c
:104a4000140798001e029000e00f5200020032008e
:104a50001e029000050037001e0fe8001e027800bd
:104a6000ef0f5200f2ff34000002eb000400780068
:104a70000080fa00000006002e00fa00406f980047
:104a8000516f9800445b8000e00f520002003a0032
:104a9000e4002000bb00370044568000e00f5200c5
:104aa00002003200b4002000b60037000002eb0024
:104ab000040f780004c8b3006447980066024700fa
:104ac0001200200084007800b0c6b300f3f907009c
:104ad00000027800040f78001e027800e00f5200f8
:104ae000020032001e027800a60037000042eb00f0
:104af000744798000f00370040002000010020009c
:104b000059fe070067024700120020008400780069
:104b1000b0c6b300b3f9070000027800040f7800b4
:104b20001e027800e00f5200020032001e027800e0
:104b300094003700fe42900004c4b30084cf5200ba
:104b4000edff3a0014c0b300044f9800680247001c
:104b50001200200084007800b0c6b300cff907002f
:104b600000027800040f78001e027800e00f520067
:104b7000020032001e0278008200370004c8b30031
:104b8000144f98006902470012002000840078004a
:104b900010c0b300c1f9070000027800040f7800cc
:104ba0001e027800e00f5200020032001e02780060
:104bb000740037004e6a9000244f98006a02470044
:104bc000120020008400780090c1b300b3f9070000
:104bd00000027800040f78001e027800e00f5200f7
:104be000020032001e027800660037005e6a900004
:104bf00067426200344f98003e4a9000e64f5200f0
:104c00000200360064c0b300344f98006b024700c6
:104c10001200200084007800a0c1b3009ff90700b3
:104c200000027800040f78001e027800e00f5200a6
:104c3000020032001e0278005200370084c1b30027
:104c4000444f98006c024700120020008400780056
:104c5000b0c1b30091f9070000027800040f78009a
:104c60001e027800e00f5200020032001e0278009f
:104c7000440037000042eb00544f98006d0247009b
:104c80001200200084007800c0c1b30083f907003f
:104c900000027800040f78001e027800e00f520036
:104ca000020032001e0278003600370024c1b30033
:104cb000644f98006e0247001200200084007800c4
:104cc00070c3b30075f9070000027800040f780084
:104cd0001e027800e00f5200020032001e0278002f
:104ce0002800370014c0b300744f98006f024700cb
:104cf000120020008400780080c3b30067f9070029
:104d000000027800040f78001e027800e00f5200c5
:104d1000020032001e0278001a003700c6fd0700ac
:104d20000003be00047d20000500200006024200b2
:104d300087824a00140798002507980070024700f0
:104d40000400780083f9070000027800040f78005f
:104d50001e027800e00f5200020032001e027800ae
:104d600008003700b4fd07000003be001e029000db
:104d7000ae029000840f5300858f5b00efff390077
:104d80000002eb00040078000080fa00000006003a
:104d90000000fa00445b8000e00f520002003a007d
:104da000e40020000800370044568000e00f520065
:104db0000300320019f707000002780002003700f4
:104dc000d6f9070000027800040078000080fa009d
:104dd000000006000a00fa0040079800345c8000da
:104de000e00f520002003a00640020005900370032
:104df0000002eb00040f7800140280004522de0060
:104e000067426200244798009402800024079800bb
:104e1000ff3ffc0044b82000144278006742620063
:104e20000482fb00670262004522dd00160280005a
:104e3000f5f12f00850263000482720014028800dd
:104e40002e0290009402880000008800545c8000cc
:104e5000e00f52000300320094002000040f78009d
:104e60002b003700445c8000e00f5200030032004a
:104e700084002000040f78002500370034108000e3
:104e800061026200e00f520015003a003410800009
:104e900064026200e00f520011003a0034108000fa
:104ea00068026200e00f52000d003a0034108000ea
:104eb00062026200e00f520009003a0034108000e4
:104ec00070026200e00f520005003a0045108000b9
:104ed0000400240004826200e00f5200030032004c
:104ee000a4002000040f7800090037008620a900e4
:104ef0004e029000545c88009620a8009680a9007d
:104f000094a0a9009420a9000002eb00a45c8800f2
:104f10009402800034079800ff3ffc002e4290006e
:104f2000674262000482fb00670262004522dd00e6
:104f300016028000f5f12f008502630004827200e2
:104f4000140288003e02900094028800000088004d
:104f50001e027800040078000080fa0000000600bd
:104f60000000fa000002eb00441088000642a8008e
:104f70000080fa00000006000200fa00000f78002e
:104f80001e0278006123b8000082eb008082eb00f3
:104f90000602420087824a003600200007002000f7
:104fa000860f5200878f5a001f003e0004600100e8
:104fb00003003700090037000f00370015003700e5
:104fc0009680a800b40480004422de0061426200a2
:104fd0000482fb00645c88001300370094a0a800e2
:104fe000a40480004522de00614262000482fb00ce
:104ff000745c88000c0037009420a800a404800092
:105000000402d100614262000482fb00845c8800db
:105010000500370014002000a45c8800a45c800018
:10502000945c8800000000000080fa000000060088
:105030000200fa00000f78001e0278006123b80019
:105040000082eb008082eb000602420087824a0069
:105050003600200007002000860f5200878f5a007c
:105060001f003e0004600100030037000900370004
:105070000f003700150037009680a900b4048000a7
:105080004422de00614262000482fb00645c88000e
:105090001300370094a0a900a40480004522de007c
:1050a000614262000482fb00745c88000c003700df
:1050b0009420a900a40480000402d100614262008f
:1050c0000482fb00845c8800050037000002eb00ce
:1050d000a45c8800a45c8000945c88000000000050
:1050e0000080fa00000006001600fa000057980041
:1050f00011579800120f9800230f9800345c80001d
:10510000e00f520002003a0064002000af003700b8
:105110000002eb00140798000002eb00040f780077
:10512000140280004522de0067426200044f9800ae
:105130009402800054079800ff3ffc0044b8200010
:1051400014427800674262000482fb00670262003a
:105150004522dd0016028000f5f12f008502630074
:1051600004827200140288005e029000940288009b
:1051700000008800545c8000e00f52000300320001
:1051800094002000040f780024003700445c800065
:10519000e00f52000300320084002000040f78006a
:1051a0001e0037003410800061026200e00f5200e0
:1051b00015003a003410800064026200e00f5200d3
:1051c00011003a003410800068026200e00f5200c3
:1051d0000d003a003410800062026200e00f5200bd
:1051e00009003a003410800070026200e00f5200a3
:1051f00005003a004510800004002400048262008b
:10520000e00f520003003200a4002000040f7800d9
:105210000200370014002000445c880094028000e3
:1052200064079800ff3ffc000e4a9000674262004e
:105230000482fb00670262004522dd001602800046
:10524000f5f12f00850263000482720014028800c9
:105250006e02900094028800000088001e02780010
:10526000e00f52000400320068025200e20f5200c8
:105270001e003e00120037008e529000e4cfb300b3
:1052800004c26200644f98000e5290000404a00013
:10529000744f98000002eb00040f780074030700bd
:1052a0006e4890008103070000027800040f780028
:1052b0001e027800e00f520039003a000d0037005e
:1052c0009e02900014032000848f520007003e00cd
:1052d00010002000010020006cfc07001e0290005e
:1052e0000402e800140798008bff37001e027800c4
:1052f000360037001e5090006c0307000002780053
:10530000040f78001e027800e00f520026003a00d9
:105310005c0307007e4890006403070000027800e9
:10532000040f78001e027800e00f520020003a00bf
:1053300008c2a9002e0a9000340798000002eb0072
:1053400024079800110037003e0290000402e90093
:1053500034079800be0090001e08900077030700f5
:1053600000027800040f78001e027800e00f52005f
:1053700011003a001e0a90000402e800140f980081
:105380002e0290000402e80024079800ae0290006c
:105390002e0a9000848f5200ebff3900070037007f
:1053a0000000000005003700000000000300370087
:1053b0000000000001003700000000003603070075
:1053c0000002eb00445c88001e02780004007800b4
:1053d0000080fa00000006001400fa00604f9800f8
:1053e000714f9800020f9800130f9800345c8000f2
:1053f000e00f520002003a00640020009f003700d6
:105400000002eb00140798000002eb00040f780084
:10541000140280004522de00674262000482fb0025
:10542000340798009402800044079800ff3ffc0076
:1054300044b8200014427800674262000482fb00f6
:10544000670262004522dd0016028000f5f12f00a0
:105450008502630004827200140288004e029000ec
:105460009402880000008800545c8000e00f520025
:105470000300320094002000040f7800240037005d
:10548000445c8000e00f52000300320084002000e2
:10549000040f78001e0037003410800061026200a3
:1054a000e00f520015003a003410800064026200e0
:1054b000e00f520011003a003410800068026200d0
:1054c000e00f52000d003a003410800062026200ca
:1054d000e00f520009003a003410800070026200b0
:1054e000e00f520005003a0045108000040024003f
:1054f00004826200e00f520003003200a40020008a
:10550000040f78000200370014002000445c88007b
:105510009402800054079800ff3ffc003e02900078
:1055200004427800674262000482fb006702620066
:105530004522dd0016028000f5f12f008502630090
:1055400004827200140288005e02900094028800b7
:10555000000088001e027800e00f520004003200b4
:1055600068025200e20f52001b003e000f0037009d
:10557000ee4a9000e4cfb30004c26200444f9800aa
:105580000002eb00040f7800b90207004e489000bb
:10559000c602070000027800040f78001e0278009f
:1055a000e00f52002c003a000d0037009e029000e0
:1055b00014032000848f520007003e0010002000da
:1055c00001002000b1fb07001e0290000402e80069
:1055d000140798008cff37001e0278002700370060
:1055e0007e489000b102070000027800040f7800a6
:1055f0001e027800e00f520019003a000002eb0092
:10560000240798000f0037000e0a9000144278001b
:1056100004407800a502070000027800040f78001b
:105620001e027800e00f52000f003a000e0a9000b0
:105630000402e800040f98002e0290000402e80023
:1056400024079800ae0290001e0a9000848f52003a
:10565000edff3900050037000000000003003700af
:105660000000000001003700000000008a0207006f
:105670000002eb00445c88001e0278000400780001
:105680000080fa00000006000000fa002cc3a80009
:105690002ce3a800d022a90085368000f40f2e004c
:1056a0008482620004302000048272008436880004
:1056b000d002a80025358000f40f2e0084826200fd
:1056c0000400210004827200243588002435800003
:1056d000f401b300243588000080fa0000000600c1
:1056e0000400fa00000f7800110798001e027800ed
:1056f000e00f520002003a0014002000040f78006e
:105700001e027800e70f52000200360074002000ed
:10571000040f78001e0278000442780004407800ec
:10572000acebb7000002eb000411880070a7a900e1
:10573000d5ff0700041180000480a1000490a000a0
:10574000041188000002eb001411880023e2a80075
:1057500023a2a9001e029000f80f5200410032005f
:10576000f80f520010003e00e40f520049003200d2
:10577000e40f520005003e00e20f52004b003200e1
:10578000e30f5200460032004b003700e80f520092
:105790003a003200f00f520035003200e60f52009e
:1057a0003900320044003700a50f2000850f520059
:1057b00020003200a50f2000850f52000a003e0095
:1057c00045062000850f520020003200850c200085
:1057d000850f52001a00320005032000850f520089
:1057e0001d00320034003700451f2000850f520095
:1057f0000a003200853e2000850f5200040032006e
:10580000e5152000850f5200070032002a003700fe
:105810000002eb00441188002a0037001400200029
:10582000441188002700370024002000441188001c
:105830002400370034002000441188002100370084
:1058400044002000441188001e003700940020000e
:10585000441188001b0037005401200044118800c7
:1058600018003700a40220004411880015003700fa
:10587000040420004411880012003700140820009e
:10588000441188000f003700d40a2000441188001a
:105890000c00370034102000441188000900370044
:1058a000a415200044118800060037008420200041
:1058b000441188000300370014412000441188007f
:1058c000000000009580a9009560a9008580a900ce
:1058d0008560a900c4ba20001442780067426200c3
:1058e0000482fb00670262005605800085ff2f00de
:1058f000850263000482720054058800440580001c
:1059000004c0a10004d0a10004e0a1004405880067
:1059100021e2a800000000002342a8000080fa0055
:04592000000006007d
:020000040000fa
:10592400a40b0000080000000200000000000100b9
:10593400000000000000000000080000000100005a
:1059440000000000000a0000c40000000200000083
:10595400020001000304000003010100010400002f
:105964000301030001030000030101000001000022
:10597400010004000001010003010300000303000f
:105984000100040000010100010102000001010006
:1059940004000100030303000300030001030000eb
:1059a40004000100030101000200030003020000df
:1059b40003010300000303000300040000010300cb
:1059c40003010400000303000103030000010300ba
:1059d40001000300000101000100010000030000b8
:1059e40003000100010300000400010001010300a1
:1059f400030001000303000004000300010103008d
:105a04000400030001030300040003000301010078
:105a1400000a04000a0a0a00100a16000a1a0a00f8
:105a2400200a26000a2c0a00300a36000a3c0a0022
:105a3400420a46000a4a0a00500a56000a5c0a0052
:105a4400620a68000a6c0a00720a78000a7e0a0078
