:020000040000fa
:080000000002040000000000f2
:020000040000fa
:100400008fea20000e7f22000e018800000000000d
:100410000c000700c0e221000100200011000700cd
:10042000000020000000e000020032000000020096
:1004300000000000b6380200000000000040da00b2
:100440000000fe004440a900a00720000000e000da
:100450000300320000002000a00188004440a800f2
:100460000000060091018800800078000000eb0089
:1004700015003700e280400032a0b4009101ba00bc
:10048000e280400032a0b4009102ba00e280400055
:1004900032a0b4000002eb00472bde00f507b200eb
:1004a000602ce10004003a000059eb008301e900f0
:1004b000fdff3e00040037006128e100010032002a
:1004c0000082eb00040007001101ba000200e00006
:1004d000e8ff3a00000006003159ba008301e90044
:1004e0000c0032002159ba008301e90008003200f3
:1004f0000400e00003003a00e280400032a0b400b3
:10050000f5ff370011d9ba008301e900faff3a007c
:100510008100e800e180400032a0b4000000060045
:10052000783b040000000000809fbe00829fbe0058
:100530000000fa008460a900a0748000b1748000fb
:1005400061004000e0804800a0748800b174880019
:10055000a2748000b3748000c0748000d1748000e5
:10056000800f5100818f5900080036000080eb0099
:100570008080eb00c0748800d1748800e074800033
:10058000e00f5000010032008bc0a8000080fa008c
:100590004f01be004f00be00004006003600f800cc
:1005a000809fbe00829fbe00849fbe00869fbe00cb
:1005b0000200fa008bc0a900e0748000000f7800f0
:1005c0001e007800e00f5000020032001e0078008c
:1005d000000001000080fa004f03be004f02be0081
:1005e0004f01be004f00be003600f900004006007b
:1005f0000040da000000fe000003b1000b003500ef
:100600009000b100080034008000b1000700350000
:100610009001b100040034007000b1000300350007
:100620009001b10001003c00100005000000050031
:100630006022b800060220000000d0008180d200b5
:100640000482d2008582d2000000a0000202520083
:1006500083825a00030031000202420083824a0072
:100660000000a1000603e900f3ff3a0000000600c5
:10067000800078000041eb00b14f1100fdff3a000f
:100680000080ea0000804000000006008001780041
:1006900002003700b1597800040178000202e90035
:1006a000e00f5100fbff3a000000060080017800d7
:1006b0000200370081597800040178000202e90045
:0c06c000e00f5100fbff3a0000000600b4
:020000040000fa
:0200000401f009
:04000c0078ff000079
:020000040000fa
:0200000401f009
:040010005eff00008f
:020000040000fa
:0200000401f009
:040014007fff00006a
:020000040000fa
:0200000401f009
:04001800feff0000e7
:020000040000fa
:0200000401f009
:04001c00dfff000002
:020000040000fa
:10000800f8020000f8020000f8020000f802000000
:10001800f8020000f8020000f8020000f8020000f0
:10002800f8020000f8020000f80200009402000044
:10003800f8020000f8020000f8020000f8020000d0
:10004800f8020000f8020000f8020000f8020000c0
:10005800f8020000f8020000f8020000f8020000b0
:10006800f8020000f8020000f8020000f8020000a0
:10007800f8020000f8020000f8020000f802000090
:10008800f8020000f8020000f8020000f802000080
:10009800f8020000f8020000f8020000f802000070
:1000a800f8020000f8020000f8020000f802000060
:1000b800f8020000f8020000f8020000f802000050
:1000c800f8020000f8020000f8020000f802000040
:1000d800f8020000f8020000f8020000f802000030
:1000e800f8020000f8020000f8020000f802000020
:1000f800f8020000f8020000f8020000f802000010
:10010800f8020000f8020000f8020000f8020000ff
:10011800f8020000f8020000ce020000f802000019
:10012800f8020000f8020000f8020000f8020000df
:10013800f8020000f8020000f8020000f8020000cf
:10014800f8020000f8020000f8020000f8020000bf
:10015800f8020000f8020000f8020000f8020000af
:10016800f8020000f8020000f8020000f80200009f
:10017800f8020000f8020000f8020000f80200008f
:10018800f8020000f8020000f8020000f80200007f
:10019800f8020000f8020000f8020000f80200006f
:1001a800f8020000f8020000f8020000f80200005f
:1001b800f8020000f8020000f8020000f80200004f
:1001c800f8020000f8020000f8020000f80200003f
:1001d800f8020000f8020000f8020000f80200002f
:1001e800f8020000f8020000f8020000f80200001f
:0801f800f8020000f80200000b
:020000040000fa
:10020800f8020000f8020000f8020000f8020000fe
:10021800f8020000f8020000f8020000f8020000ee
:10022800f8020000f8020000f80200009402000042
:10023800f8020000f8020000f8020000f8020000ce
:10024800f8020000f8020000f8020000f8020000be
:10025800f8020000f8020000f8020000f8020000ae
:10026800f8020000f8020000f8020000f80200009e
:10027800f8020000f8020000f8020000f80200008e
:10028800f8020000f8020000f8020000f80200007e
:10029800f8020000f8020000f8020000f80200006e
:1002a800f8020000f8020000f8020000f80200005e
:1002b800f8020000f8020000f8020000f80200004e
:1002c800f8020000f8020000f8020000f80200003e
:1002d800f8020000f8020000f8020000f80200002e
:1002e800f8020000f8020000f8020000f80200001e
:1002f800f8020000f8020000f8020000f80200000e
:10030800f8020000f8020000f8020000f8020000fd
:10031800f8020000f8020000ce020000f802000017
:10032800f8020000f8020000f8020000f8020000dd
:10033800f8020000f8020000f8020000f8020000cd
:10034800f8020000f8020000f8020000f8020000bd
:10035800f8020000f8020000f8020000f8020000ad
:10036800f8020000f8020000f8020000f80200009d
:10037800f8020000f8020000f8020000f80200008d
:10038800f8020000f8020000f8020000f80200007d
:10039800f8020000f8020000f8020000f80200006d
:1003a800f8020000f8020000f8020000f80200005d
:1003b800f8020000f8020000f8020000f80200004d
:1003c800f8020000f8020000f8020000f80200003d
:1003d800f8020000f8020000f8020000f80200002d
:1003e800f8020000f8020000f8020000f80200001d
:0803f800f8020000f802000009
:020000040000fa
:1006cc0000950000000000000000000001f900008f
:1006dc00000000000000000008870000040000007b
:1006ec000000000009af0000000000000100000045
:1006fc000a1b000000000000010000000daf00000c
:10070c00020000000000000010ff000000000000cc
:10071c000000000011ff00000000000001000000bc
:10072c0018ff0000000000000100000029ff00007d
:10073c0004000000000000003773000000000000ff
:10074c00000000003a25000004000000000000003a
:10075c003b25000000000000000000006c6f000052
:10076c00673100002e740000787400000030000027
:10077c003120000030320000203000003320000017
:10078c0030340000203000003520000030360000ee
:10079c0020300000372000003038000020300000ee
:1007ac0039000000534f00005300000052000000bd
:0407bc004f000000ea
:020000040000fa
:1007c0000200fa000000eb00000f780024cebf000a
:1007d0006040600024eeb70025cebf00604060009e
:1007e00025eeb70026cebf006040600026eeb700c1
:1007f00027cebf006040600027eeb70081e22000f6
:100800009140780000c0eb0000c0700028eeb700f7
:1008100091e220009140780000c0eb0000c0700021
:1008200029eeb700a1e220009140780000c0eb0063
:1008300000c070002aeeb700b1e2200091407800bd
:1008400000c0eb0000c070002beeb700a104070051
:10085000e00f500002003200300020000f0037008f
:1008600044cebf006040600044eeb70045cebf00fc
:10087000604060000014a00045eeb70009000700ca
:10088000000f78001e007800e00f500002003200d8
:100890001e00780001003700cb0007000080fa003e
:1008a000000006000a00fa00cc1807002007980094
:1008b0000000eb00300798000000eb0040079800b4
:1008c0002e009000000178006000b800b703070018
:1008d000e14f500002003200b0002000b8003700a5
:1008e0002e009000300798003e009000e0f8930042
:1008f00050c5b30080cf500005003a003e00900084
:10090000f0f89300a0cab30080cf5000020032007c
:1009100040002000aa003700ae0090004107980078
:100920004e00900010407800f74f40000900320060
:100930004e00900010407800f54f400031003a0022
:100940004e009000a040900000c9b30080cf50003e
:100950002c003a004e009000e070900060c4b3009c
:1009600080cf500011003a004e009000f0709000cf
:1009700010c4b30080cf50000c003a004e0090002d
:100980008078900040c5b30080cf500007003a0047
:100990004e009000e060900090c2b30080cf500005
:1009a00002003a000000eb00850037004e00900086
:1009b000a0d0900060c4b30080cf500011003a0076
:1009c0004e009000b0d0900010c4b30080cf500013
:1009d0000c003a004e009000c0d0900040c5b3001b
:1009e00080cf500007003a004e009000a0c0900059
:1009f00090c2b30080cf500002003a000000eb002c
:100a00006f0037003e009000e11b2000010f400006
:100a10000000eb0010079800650037001e0078000a
:100a2000404090000080fb006b005000e10f500040
:100a30005a003e001e017800824990000382fb00ac
:100a4000924990008381fb00c819dd008481710008
:100a500003007800a24990008381fb003249900096
:100a60000281fb004811dd00030171008200780063
:100a7000f20f20008201600042e220001241780063
:100a800060416100034171000001fd0024eeb700e8
:100a90000001fd00c801de0052e220001241780092
:100aa00060416100034171000200780025eeb7004b
:100ab000f20f20008281600062e220001241780083
:100ac00060416100034171000200780026eeb7002a
:100ad000c808de0027cebf00604060000140700003
:100ae00027eeb7001e017800c24990000382fb0088
:100af000d24990008381fb00c819dd008481710018
:100b000003007800e24990008381fb007249900065
:100b10000281fb004811dd000301710082007800b2
:100b2000f20f20008201600082e220001241780072
:100b300060416100034171000001fd0028eeb70033
:100b40000001fd00c801de0092e2200012417800a1
:100b500060416100034171000200780029eeb70096
:100b6000f20f200082816000a2e220001241780092
:100b70006041610003417100020078002aeeb70075
:100b8000c808de002bcebf0060406000014070004e
:100b90002beeb7000000eb00090037001e007800c4
:100ba000700f40001e0090000000e8001007980041
:100bb0001e009000e30f500098ff340060002000fa
:100bc0000080fa00000006001000fa00889fbe00b6
:100bd00002180700000f78000000eb0010079800d3
:100be0009e01780042e22000124178000282fb0060
:100bf00052e22000124178000281fb004811dd0022
:100c0000040171000200780062e2200012417800c5
:100c10000282fb0072e22000124178000281fb0098
:100c20004811dd00040171008200780003017800a2
:100c3000de020700e14f500002003200b000200049
:100c40008f0237001e007800100798001e009000e9
:100c5000e0f8930050c5b30080cf500005003a0083
:100c60001e009000f0f89300a0cab30080cf50009f
:100c70000200320040002000810237001e00900078
:100c800010407800f74f40000b0032001e0090002b
:100c900010407800f54f400005003a001e0090001b
:100ca000a040900000c9b30080cf50000200320085
:100cb000400020007202370044cebf008080fb005d
:100cc00045cebf000080fb004800dd000100700041
:100cd000000178009e009000314890008081fb0068
:100ce000414890000080fb004800dd0003007000d8
:100cf000800f5100020032004000200060023700e7
:100d00009e009000315090000081fb004150900007
:100d10000080fb004800dd0002007000e00f500082
:100d2000090032009e009000315090000081fb00cd
:100d3000415090000080fb004800dd000200700080
:100d4000010020000f0037001e019000826190001a
:100d50000382fb00926190008381fb00c819dd00d3
:100d60008481710003007800a26190008381fb0000
:100d7000326190000281fb004811dd000301710027
:100d800082007800200798003107980082e2200056
:100d9000124178008281fb0092e22000124178002b
:100da0000281fb004811dd000301710002007800a0
:100db000a2e22000124178008281fb00b2e2200012
:100dc000124178000281fb004811dd00030171002f
:100dd000820078002e019000be019000820f50002a
:100de000838f5800020031004000200024023700a9
:100df000ae009000f00f20008080600028cebf0081
:100e0000604060000140700028eeb7002e009000a6
:100e1000c800de0029cebf006040600001407000c5
:100e200029eeb700be009000f00f20008080600027
:100e30002acebf0060406000014070002aeeb7007b
:100e40003e009000c800de002bcebf006040600076
:100e5000014070002beeb7001e0090000050900083
:100e600046eeb7009e009000615090000081fb00ac
:100e7000715090000080fb004800dd00020070000f
:100e8000e00f5000090032009e0090006150900079
:100e90000081fb00715090000080fb004800dd00e5
:100ea00002007000010020000f0037001e019000ba
:100eb000c26190000382fb00d26190008381fb003d
:100ec000c819dd008481710003007800e2619000a0
:100ed0008381fb00726190000281fb004811dd00fc
:100ee0000301710082007800f20f2000820160008f
:100ef00002e320001241780060416100034171006b
:100f00000001fd0030eeb7000001fd00c801de0069
:100f100012e320001241780060416100034171003a
:100f20000200780031eeb700f20f200082816000ed
:100f300022e320001241780060416100034171000a
:100f40000200780032eeb700c808de0033cebf00e2
:100f5000604060000140700033eeb7009e009000da
:100f6000115090000081fb00215090000080fb0098
:100f70004800dd00020070004501dd009e00900089
:100f8000314890008081fb00414890000080fb00c8
:100f90004800dd0003007000000041000001e9008e
:100fa0009e009000314890008081fb0041489000f5
:100fb0000080fb004800dd00030070008001780025
:100fc000110009000381d8000100200040079800ab
:100fd000510798009e009000614890000081fb003e
:100fe000714890000080fb004800dd0002007000a6
:100ff0006103b80046cebf000081fb000300200063
:1010000004e32000144278008482fb0014e32000f3
:10101000144278000482fb004822dd0005027200c1
:101020000400780024e32000144278008482fb004e
:1010300034e32000144278000482fb004822dd00e3
:101040000502720084007800009ab900040278005a
:10105000028cb90088027800050242000010b80036
:1010600001024200840078000601400087814800a8
:101070004e009000de009000020040008380480097
:101080002e019000be0190000000510081805900a7
:1010900060079800710798001e009000504890006b
:1010a00047eeb70047cebf000080fb0001002000e4
:1010b0000001be006e009000fe0090005cfd070085
:1010c000f20f200082016000c2e32000124178008c
:1010d00060416100034171000001fd003ceeb7007a
:1010e0000001fd00c801de00d2e3200012417800bb
:1010f0006041610003417100020078003deeb700dd
:10110000f20f200082816000e2e3200012417800ab
:101110006041610003417100020078003eeeb700bb
:10112000c808de003fcebf00604060000140700094
:101130003feeb700c2e32000124178008281fb003d
:10114000d2e32000124178000281fb004811dd004b
:101150000301710002007800e2e3200012417800f0
:101160008281fb00f2e32000124178000281fb0043
:101170004811dd0003017100820078006100400029
:10118000e0804800f20f20008201600002e42000ad
:101190001241780060416100034171000001fd00cf
:1011a00040eeb7000001fd00c801de0012e420009f
:1011b0001241780060416100034171000200780033
:1011c00041eeb700f20f20008281600022e420008f
:1011d0001241780060416100034171000200780013
:1011e00042eeb700c808de0043cebf00604060009a
:1011f0000140700043eeb70042e220001241780047
:101200008281fb0052e22000124178000281fb0043
:101210004811dd00030171000200780062e2200045
:10122000124178008281fb0072e2200012417800b6
:101230000281fb004811dd0003017100820078008b
:101240009e019000634990000282fb007349900068
:101250000281fb004811dd00040171000300200041
:101260000000410081804900f20f200082016000ef
:10127000c2e2200012417800604161000341710028
:101280000001fd002ceeb7000001fd00c801de00ea
:10129000d2e22000124178006041610003417100f8
:1012a000020078002deeb700f20f2000828160006e
:1012b000e2e22000124178006041610003417100c8
:1012c000020078002eeeb700c808de002fcebf0067
:1012d00060406000014070002feeb700c2e32000c4
:1012e000124178008281fb00d2e320001241780095
:1012f0000281fb004811dd0003017100020078004b
:10130000e2e32000124178008281fb00f2e320003a
:10131000124178000281fb004811dd0003017100d9
:101320008200780042ff200003002000820f50005e
:10133000838f580002003e0060002000d00037007c
:10134000c2e32000124178008281fb00d2e320003a
:10135000124178000281fb004811dd000301710099
:1013600002007800e2e32000124178008281fb0055
:10137000f2e32000124178000281fb004811dd00f9
:10138000030171008200780042ff2f00030020005b
:10139000820f5000838f580002003e006000200042
:1013a000b70037001e019000c26990000382fb0065
:1013b000d26990008381fb00c819dd00848171002f
:1013c00003007800e26990008381fb00726990005d
:1013d0000281fb004811dd000301710082007800ea
:1013e000f20f20008201600082e3200012417800a9
:1013f00060416100034171000001fd0038eeb7005b
:101400000001fd00c801de0092e3200012417800d7
:1014100060416100034171000200780039eeb700bd
:10142000f20f200082816000a2e3200012417800c8
:101430006041610003417100020078003aeeb7009c
:10144000c808de003bcebf00604060000140700075
:101450003beeb7002ccebf008080fb002dcebf003e
:101460000080fb004800dd000100700000027800f1
:101470002ecebf008080fb002fcebf000080fb007f
:101480004800dd00010070008002780046cebf00f9
:101490000081fb000300200006e3200016437800d3
:1014a0008683fb0016e32000164378000683fb00ca
:1014b0004833dd00070373000600780026e32000b0
:1014c000164378008683fb0036e32000164378003d
:1014d0000683fb004833dd000703730086007800b5
:1014e000009bb90006037800028cb90088037800dd
:1014f000070343000010b800010343008600780092
:101500000400400085804800f20f20008201600046
:1015100042e3200012417800604161000341710004
:101520000001fd0034eeb7000001fd00c801de003f
:1015300052e32000124178006041610003417100d4
:101540000200780035eeb700f20f200082816000c3
:1015500062e32000124178006041610003417100a4
:101560000200780036eeb700c808de0037cebf00b4
:10157000604060000140700037eeb7009e009000b0
:10158000315090000081fb00415090000080fb0032
:101590004800dd0002007000e00f500035003a0006
:1015a0001e00900040709000e04f500031003a0063
:1015b0001e00900050709000e04f50002d003a0047
:1015c0001e00900060709000e04f500029003a002b
:1015d0001e00900070709000e04f500025003a000f
:1015e0001e00900000789000e04f500021003a006b
:1015f0001e00900010789000e04f50001d003a004f
:101600001e00900020789000e04f500019003a0032
:101610001e00900030789000e04f500015003a0016
:101620001e00900040789000e04f500011003a00fa
:101630001e00900050789000e04f50000d003a00de
:101640001e00900060789000e04f500009003a00c2
:101650001e00900070789000e04f500005003a00a6
:101660001e009000a0c0900090c2b30080cf500038
:101670000200320040002000010037000000eb00b3
:101680004f04be000080fa00000006000200fa00cd
:10169000000f78000000eb00001288001e007800a8
:1016a00010128800101280007f0060001012880065
:1016b00042a2a80042c2a8004302a9000000eb0019
:1016c0002012880041e2a8000080fa000000060015
:1016d0000400fa00204798002e4090000080fb0094
:1016e00040128800000000000012800061006000cd
:1016f000e00f5000fcff320040128000004f7800e5
:101700000080fa00000006000000fa00f00f200040
:10171000401288000000000000128000610060009c
:10172000e00f5000fcff32004012800000407800c3
:101730000080fa00000006000000fa00307480000b
:101740000080fa00000006000000fa0030748000fb
:10175000e00f500002003a00507480000100370092
:101760000000eb000080fa00000006000000fa0014
:1017700030748000e00f500003003a006074800075
:1017800071748000010037006000b8000080fa002a
:10179000000006000000fa000000eb0000128800c4
:1017a000cde2a8000080fa00000006001a00fa004e
:1017b000881f7800200f9800310f9800420f980082
:1017c0004e089000e00f500002003a000040eb008d
:1017d0005100370030748000e00f500002003200ea
:1017e0000040eb004c0037002e089000be0890002f
:1017f000008fbe00ce089000310798000000eb007b
:101800002007980040748000e00f500006003a0066
:101810001e01be004918dd00c710de008100700007
:101820004910dd00008fbe006e0047001e01be00a3
:1018300071002000fe1107006e489000e04f50003c
:101840002e003a003c140700a00fb0000180b00049
:101850004007980051079800010037000000000081
:10186000a9ff0700404f98004e489000e14f40000c
:10187000040032004e489000e24f400021003a0040
:10188000080037002c1407000001be004e00900035
:10189000de009000800f5100818f5900efff36006d
:1018a000190037000000eb002007980008003700ff
:1018b000be0090002e0090000084400092ff0700c0
:1018c000004c78002e0090000000e80020079800ef
:1018d000ae009000f01f2000808f5000f4ff360013
:1018e00089ff070088ff0700cde2a80000c0eb00d9
:1018f00077ff070010c0b3000700370000000000aa
:101900000100370000000000cde2a80000c0eb009d
:101910006fff07000040eb004f0478000080fa00e2
:10192000000006001a00fa00100f9800210f98001e
:10193000320f9800035f98000e589000e04f50005f
:1019400007003a001e089000ae089000e00f50001b
:10195000e08f580002003a000040eb005b003700c7
:101960003e089000e00f500002003a0010c0b300a3
:101970005600370030748000e00f50000200320043
:101980000040eb00510037001e089000ae089000a8
:10199000008fbe00be089000310798000000eb00e9
:1019a0002007980040748000e00f500006003a00c5
:1019b0001e01be004918dd00c710de008100700066
:1019c0004910dd00008fbe006c0047001e01be0004
:1019d00081002000961107004e489000e04f500013
:1019e00033003a00e0cfb30039ff07000000eb00fe
:1019f0002007980008003700be0090002e009000dd
:101a0000008040001040780031ff07002e00900059
:101a10000000e80020079800ae009000f01f2000b2
:101a2000808f5000f4ff360000c0eb0028ff070055
:101a300000c0eb0026ff070033ff07000080fb001b
:101a40007f006000e50f50001b003a0000c0eb0073
:101a50001fff0700b8130700401fb0000180b0004f
:101a6000400798005107980001003700000000006f
:101a700025ff0700e04f500005003200cde2a8002e
:101a800000c0eb0012ff070010c0b3000f003700ca
:101a9000a91307000001be004e009000de00900078
:101aa000800f5100818f5900f0ff3600030037008e
:101ab000000000000100370000000000cde2a80097
:101ac00000c0eb0002ff07000040eb000080fa00be
:101ad000000006002e00fa00be100700e04f500084
:101ae00004003a0010002000307488003074800038
:101af000bc01370030748000e00f500002003a0053
:101b000030748000b7013700ec100700200020007f
:101b1000307488000000eb00407488006000b8005a
:101b20006074880071748800cde2a8002074800081
:101b3000d6fe0700e001200001002000ab130700e3
:101b40000000eb00000f78000300370000c0eb003e
:101b5000dffe07001e0fe8001e007800e90f5000ae
:101b6000faff360074130700401fb0000180b00078
:101b7000200798003107980001003700000000009e
:101b8000cde2a80000c0eb00d1fe07006e004700c8
:101b90006011b8008000eb00251107007e00900066
:101ba00061006000e00f500023003200800220003e
:101bb0000e004000a21a2000030020002100200097
:101bc0001b1107004e109000de1090007007980067
:101bd000010f9800ee109000110f98000e09900070
:101be0009e099000f0ff2000010020000202780012
:101bf0000301780080017800010078000302620090
:101c00000000610001002000c000dd000000200095
:101c10000001be006120b8000001710081817100e7
:101c2000a01a200001002000800f5100818f590070
:101c30000b003200670037003f1307000001be00b1
:101c40002e009000be009000800f5100818f59003f
:101c5000caff3100cde2a800307480006101370076
:101c60007e00900064006000e00f500059003a00d0
:101c7000800220000e0040006011b800b10020007a
:101c8000eb1007004e109000de10900070079800d7
:101c9000010f9800ee109000110f98002613070016
:101ca0000001be00007d2000010020000200400075
:101cb0008380480020079800310798000100370012
:101cc00000000000800220000e0040006011b800fb
:101cd000a1002000d6100700800220000e00400066
:101ce000020020000300240091002000d010070013
:101cf0004e109000de10900070079800010f9800c1
:101d0000ee109000110f98006e489000e04f5000c8
:101d100020003a00800220000e0040006011b80050
:101d2000b1002000c21007004e109000de1090009d
:101d300070079800010f9800ee109000110f9800a6
:101d40000e0990009e099000000020000100240070
:101d50000202780003017800800178000100780019
:101d6000030262000000610001002000c000dd00ed
:101d7000000020000001be006120b80000017100d9
:101d800081817100e00f5100e08f59000b003a0093
:101d90000d003700e81207000001be002e00900081
:101da000be009000800f5100818f5900c4ff3600a3
:101db000cde2a800307480000a0137001000200036
:101dc000407488002d0037000000eb00407488004c
:101dd0002a0037000000eb0040748800cde2a80024
:101de000200020000100200000130700cde2a90020
:101df000d11207000001be00007d2000010020007c
:101e000002004000838048002007980031079800b6
:101e10000100370000000000800220000e0040009a
:101e20006011b80011002000811007004e109000d2
:101e3000de10900070079800010f9800ee109000df
:101e4000110f98006e489000e04f50000a003200d9
:101e5000b91207000001be002e009000be009000e5
:101e6000800f5100818f5900eaff3600cde2a800b3
:101e700030748000db00370000000000cde2a800d5
:101e80001074800001fe0700cde2a900400120008f
:101e9000000f7800010037000000000080022000e1
:101ea0000e0040006011b8003100200060100700f3
:101eb0004e109000de10900070079800010f9800ff
:101ec000ee109000110f98006e489000e04f500007
:101ed00005003a000000eb00100798000000eb003e
:101ee000000f7800180037001e0fe9001e00780070
:101ef000e00f5000e8ff3a00cde2a8003074800007
:101f0000b800370000fe0700740147009e009000f3
:101f100081004100804878001e0090000000e80029
:101f2000100798001e007800e00f500005003a00ee
:101f30004e509000e24f400002003a000000eb00db
:101f4000100798001e0fe8001e007800f30f5000e5
:101f5000ecff36004e5090008080fb00000c20000b
:101f600000806000e00f50002e0032003e589000cc
:101f70000081fb0003002000f0032000010020008e
:101f800002027800030178008001780001007800e7
:101f9000030262000000610001002000c000dd00bb
:101fa000000020000001be006120b80000017100a7
:101fb00081817100c011dd00020020004e589000a8
:101fc0000080fb004800dd000100200000017100de
:101fd000818171005e5890000080fb0001002000ac
:101fe000000071008180710040079800510798003f
:101ff0004e009000de00900061014000e08148004a
:102000004a18dd00c610de00810070004a10dd00b5
:1020100061005000e080580060748800717488008e
:10202000610037002e5890000080fb000100200066
:10203000c001dd00020020003e5890000080fb003f
:102040004800dd0001002000000171008181710065
:102050004e5890000080fb0001002000000071003d
:102060008180710040079800510798004e01900050
:10207000de01900000fc2f003100200002027800f9
:1020800003017800800178000100780003026200fb
:102090000000610001002000c000dd000000200001
:1020a0000001be006120b800000171008181710053
:1020b00042079800530798004e009000de00900001
:1020c0004a09dd004600de0000007100c608de009f
:1020d00040079800510798005e58900063406000e8
:1020e00000404000804078006e5890000080fb0067
:1020f0004700de000040780000c07000404f9800ac
:102100001e5890006f406000504f98005e4890004d
:102110000080fb0069005000110020000008dd0075
:10212000504f98004e009000de009000610140008a
:10213000e08148004e4890000080fb000080e800ed
:10214000110020000008dd0001002000009ab90005
:1021500004027800028bb900860278000502420072
:102160000010b80001024200840078005e4990002f
:102170000281fb0003002000028ab90004027800fb
:10218000009bb90086027800050242000200b800f8
:10219000010242008400780061005000e080580095
:1021a0006074880071748800800220000e00400076
:1021b0006011b800c10020009d0f070080022000c0
:1021c0000e004000022020000300200061002000db
:1021d000970f0700cde2a8000000eb0030748800e4
:1021e000307480000080fa00000006000200fa004f
:1021f000000f78001e0078002008900001002000e9
:10220000c001dd00020020001e0078005008900090
:102210000100200000007100818071001e01780023
:1022200050119800611198001e0178006000b800fc
:1022300070119800011998001e0078008000eb00d2
:10224000211898001e0078008000eb0011189800fb
:102250000000eb000080fa00000006000200fa0017
:10226000000f78001e007800f008900060089000d1
:102270000001be001e007800fc0f07000080fa007d
:10228000000006000200fa00000f78001e0078002f
:10229000304890000080fb00700060000080fa0071
:1022a000000006000200fa00000f78001e0078000f
:1022b000304890000080fb00610060000080fa0060
:1022c000000006000400fa00000f780011079800d3
:1022d000820320009e0090001e007800ebf80700ab
:1022e0000080fa00000006000200fa00000f7800eb
:1022f0009e007800415090000081fb0051509000fa
:102300000080fb004800dd0002007000010020009a
:10231000c001dd00020020009e00780021589000de
:102320000082fb00315890000080fb004800dd0077
:102330000400700001002000000071008180710025
:102340000080fa00000006000600fa00000f780086
:1023500012079800230798001e019000ae0190001c
:1023600000002000f1ff2000020278000301780045
:102370008001780001007800030262000000610023
:1023800001002000c000dd00000020000001be00b0
:102390006120b80000017100818171004018de00e9
:1023a00001002000000178001e007800f10f2000dd
:1023b00081016100c0509000e0c0600083c07000e7
:1023c000415098004811de00d0509000e0c06000fd
:1023d00082c07000515098001e0190001e007800cd
:1023e000f10f200081016100a0589000e0c0600062
:1023f00083c07000215898004811de00b05890004a
:10240000e0c0600082c07000315898000080fa007f
:10241000000006001400fa0070079800010f9800f1
:10242000120f980030758000e00f500002003a0053
:10243000800020009a0037007e009000e00f5000de
:1024400002003a00f0002000950037001e089000be
:10245000e00f500002003a00f0002000900037002a
:102460000000eb00000f78000e80e8000001eb0098
:10247000800078007e0090000c0a0700e00f5000fa
:1024800002003a00000120008500370080e42000af
:1024900056ff07000e80e800000278008001eb0084
:1024a0000001eb009e08900080e420006903070013
:1024b000000f78001e007800f90f50004400320031
:1024c0001e007800e00f5000020032001e0078006d
:1024d000730037001e0890006aff0700e00f5000ed
:1024e000060032000001eb008000eb001e089000a7
:1024f0000408070020012000690037000e08900042
:10250000010020003200200003002000820f500054
:10251000838f580028003e00006001000300370050
:102520000e003700200037001a0037001e08900008
:1025300085000700000f78001e007800e00f5000b3
:10254000250032000001eb008000eb001e08900027
:10255000ec0707001e007800510037001e089000ad
:102560003eff0700000f78001e007800e00f5000cb
:10257000060032000001eb008000eb001e08900016
:10258000e00707001e007800450037000000eb0060
:10259000430037001e089000304890000004a0005f
:1025a0009e089000b04898001e0890000fff07009a
:1025b0000000eb003a0037000001eb008000eb0068
:1025c0001e089000cf070700f000200034003700fd
:1025d0000000000001003700000000000e0890001d
:1025e000e20f500003003600e30f500009003200f4
:1025f0000e0037009e08900080e42000c302070010
:10260000000f78001e007800e00f50000d003a0027
:102610000e0037000001eb008000eb001e08900068
:10262000b8070700300120001d0037000001eb0053
:102630008000eb001e089000b2070700f0002000a9
:10264000170037001e007800150037001e089000a4
:102650002f080700000f78001e007800e00f5000e0
:10266000060032000001eb008000eb001e08900025
:10267000a40707001e007800090037001e0890001c
:102680008e80e800b200200000f807009e0890004d
:1026900000c2b300b04898001e0890000200070076
:1026a0000080fa00000006000400fa0010079800fd
:1026b00030758000e00f500002003a0080002000da
:1026c0001f0037001e009000e00f500002003a008b
:1026d000f00020001a0037001e009000f1fe0700f5
:1026e000e00f500015003a001e009000c01190004d
:1026f0001e0190001e009000b0109000201090006d
:1027000004022000a0110700000f78001e007800ce
:10271000e00f5000020032001e0078000800370071
:102720005a110700000f78001e007800e00f5000db
:10273000020032001e007800010037000000eb00ac
:102740000080fa00000006000800fa003007980038
:1027500030758000e00f500002003a008000200039
:102760003b0037003e009000e00f500002003a00ae
:10277000f0002000360037003e009000c1fe070048
:10278000e00f50000200320040012000300037000e
:102790003e009000c3fe0700e00f50000200320030
:1027a000100120002a0037000000eb00000f780025
:1027b0003e009000ccfe070010079800210798000b
:1027c0001e009000ae009000a30b0700000f7800e1
:1027d0001e007800e00f5000020032001e0078005a
:1027e0001b0037004e0a07001007980021079800c9
:1027f0001e019000ae0190000080eb008080eb0095
:10280000800f5100818f590002003a009000200093
:102810000f003700be00900050ceb3008048780013
:102820003e009000a0ff0700000f78001e00780017
:10283000e00f5000020032001e0078000400370054
:102840000001eb008000eb003e0090002d07070028
:102850000080fa00000006008600fa001087980049
:102860002187980030758000e00f500002003a0088
:10287000800020004a0037001e809000e00f5000ca
:1028800002003a00f0002000450037002e80900042
:10289000e00f500002003a00f00020004000370036
:1028a0001e809000304890000080fb0061006000b6
:1028b00000407800e04f500002003200100120007c
:1028c000370037000000eb00000f78006000b80010
:1028d0001007980021079800660047000001eb00f0
:1028e000800078002e809000f0080700e00f500074
:1028f00002003a0000012000290037001e809000ed
:1029000079fe070010079800210798007200470021
:10291000020120008000eb00fa0607007200470069
:102920001e019000ae01900087fe07001e0090007f
:10293000ae009000601f9800711f9800660147006c
:10294000a10420008e80400072004700020278003f
:102950008001eb000001eb003e020700000f780051
:102960001e007800e00f500002003a002001200015
:102970000b0037001e007800f90f500002003200f3
:102980001e007800060037001e809000e600470019
:10299000b20020003df707001e80900042ff0700b4
:1029a0000080fa00000006000a00fa00000f78001c
:1029b00011079800220798003307980044079800f1
:1029c00030758000e00f500002003a0080002000c7
:1029d000350037001e007800e00f500002003a007a
:1029e000f0002000300037003e009000e00f500063
:1029f00002003a00f00020002b0037004e0090004b
:102a0000e00f500002003a00f000200026003700de
:102a10000001eb008000eb004e009000b9060700bb
:102a20003e00900012002000800078001e00780018
:102a30009e080700e00f500002003a00000120004d
:102a4000190037003e0090009e0090006100980041
:102a50003e009000ae009000710098003e00900093
:102a60007000400081e4200016fe07003e00900048
:102a700070004000ddfd0700be0190003e009000a8
:102a8000700190003e009000e00090003e00900039
:102a90007000400003027800820178000101780094
:102aa000ce009000eb0107000080fa000000060055
:102ab0000400fa00000f78001107980030758000bc
:102ac000e00f500002003a00800020001a0037009a
:102ad0001e007800e00f500002003a00f0002000d5
:102ae000150037001e009000e00f500002003a0071
:102af000f0002000100037000001eb008000eb0028
:102b00001e0090007f0607009e0178001e007800de
:102b1000700190001e007800e00090001e02780016
:102b20007000420003027800820178000101780001
:102b30009e009000c70107000080fa000000060018
:102b40000200fa00000f78001e00780020089000b4
:102b500001002000c001dd00020020001e007800fe
:102b60005008900001002000000071008180710079
:102b70001e01780050119800611198001e01780024
:102b80006000b80070119800011998001e007800cc
:102b90008000eb00211898001e0078008000eb00f8
:102ba000111898000000eb000080fa0000000600f9
:102bb0000400fa00008fbe00e0ff2f00f1ff2f009d
:102bc0003e014000ae81480047cebf000080fb00c0
:102bd00001002000009ab90004027800028bb900bd
:102be00086027800050242000010b800010242008f
:102bf0008400780044e32000144278008482fb00c3
:102c000054e32000144278000482fb004822dd00d7
:102c1000050272000401780064e320001442780089
:102c20008482fb0074e32000144278000482fb00dd
:102c30004822dd0005027200840178000000410096
:102c4000818049000080fa00000006000200fa00be
:102c5000000f78009e007800415090000081fb003a
:102c6000515090000080fb004800dd000200700021
:102c700001002000c001dd00020020009e0078005d
:102c8000215890000082fb00315890000080fb002a
:102c90004800dd0004007000010020000000710009
:102ca000818071000080fa00000006000600fa0032
:102cb000000f780012079800230798001e0190006b
:102cc000ae01900000002000f1ff20000202780019
:102cd000030178008001780001007800030262009f
:102ce0000000610001002000c000dd0000002000a5
:102cf0000001be006120b8000001710081817100f7
:102d00004018de0001002000000178001e0078005d
:102d1000f10f200081016100c0509000e0c0600010
:102d200083c07000415098004811de00d0509000e0
:102d3000e0c0600082c07000515098001e019000f9
:102d40001e007800f10f200081016100a058900062
:102d5000e0c0600083c07000215898004811de0078
:102d6000b0589000e0c0600082c0700031589800f8
:102d70000080fa00000006000200fa00000f780050
:102d80001e007800e00f500002003a00f000200022
:102d900040003700020120008000eb001e00780098
:102da000d80507009e007800c0c5b30080487800b1
:102db00082e32000124178008281fb0092e3200030
:102dc000124178000281fb004811dd00030171000f
:102dd00002007800a2e32000124178008281fb000b
:102de000b2e32000124178000281fb004811dd00af
:102df00003017100820078001e0278000001be000d
:102e000004007800a9ff07001e0178000080eb0095
:102e10008080eb0000119800111198001e017800cd
:102e20000080eb008080eb002011980031119800a9
:102e30001e0078008000eb004110980082e3200023
:102e4000124178008281fb0092e320001241780059
:102e50000281fb004811dd000301710002007800cf
:102e6000a2e32000124178008281fb00b2e320003f
:102e7000124178000281fb004811dd00030171005e
:102e8000820078001e0178005011980061119800ae
:102e90000000eb000080fa00000006000600fa00c7
:102ea000000f780011079800220798001e00780094
:102eb000e00f500002003a00f00020005e003700f2
:102ec0001e009000e00f500005003a001e00780040
:102ed000b200200001022000f4f5070009003700cd
:102ee0001e0078000001eb00800078001e009000ba
:102ef0006e070700e00f500002003a0000012000ba
:102f00004d0037002e009000004078009e007800b1
:102f1000b04898001e007800c0509000e0c06000eb
:102f200041509800d0509000e0c06000515098008f
:102f30001e007800a0589000e0c060002158980062
:102f4000b0589000e0c06000315898001e00780032
:102f5000e0509000e0c0600061509800f050900098
:102f6000e0c06000715098001e007800805890000a
:102f700060c1600011c2b300814071000158980027
:102f80009058900060c1600021c4b300814071007e
:102f9000115898001e007800c0589000e0c06000f2
:102fa00041589800d0589000e0c0600051589800f7
:102fb000e0589000e0c0600061589800f058900020
:102fc000e0c06000715898009e0078000040eb005f
:102fd000c04898009e0078000040eb00d048980060
:102fe0001e007800e0489000e0c060006148980052
:102ff000f0489000e0c06000714898001e00780022
:1030000080509000e0c06000015098009050900007
:10301000e0c06000115098001e007800a0509000a1
:10302000e0c0600021509800b0509000e0c0600007
:10303000315098000000eb000080fa00000006000c
:103040000800fa0020079800310798002e00900031
:10305000e00f500002003a00f00020002900370085
:103060003e009000e00f500002003a00f000200007
:10307000240037002e009000304890000080fb00b4
:1030800070006000e00f500005003a006001200071
:103090001c003700000000000100370000000000a5
:1030a0000e80e8008001780002022000be0090003f
:1030b0002e009000e1090700000f78001e00780044
:1030c000e00f5000020032001e0078000d003700b3
:1030d0003e009000304890000080fb0068006000d7
:1030e000e00f5000ebff3a003e00900030489000a7
:1030f0000080fb006f006000ef0f5000e7ff320020
:103100000000eb000080fa00000006000800fa0052
:1031100020079800310798002e009000e00f500023
:1031200002003a00f0002000480037000000eb00e9
:10313000000f78002e00900081fe0700010037008c
:10314000000000003e009000800078002e009000fb
:10315000bbff0700000f78001e007800f90f500039
:103160000a003a002e00900069050700000f780061
:103170001e007800e00f5000020032001e007800b0
:103180003200370000000000eeff37001e0078001c
:10319000e00f5000020032001e0078002b003700c4
:1031a0003e00900010407800204798002e4090008c
:1031b000fb4f4000040032002e409000e04f5000d2
:1031c000dfff3a0001003700000000000001eb00c3
:1031d0008000eb003e009000ca0407002e00900023
:1031e0009afe07003e01900000119800111198000e
:1031f0002e009000e0109000501090006cfe070030
:103200000001be002e009000101890000100200068
:1032100002004000838048003e0190002011980089
:10322000311198002e0090002018900001fe2f0010
:10323000808040003e00900041109800be00900049
:1032400050ceb300804878000000eb000080fa0008
:10325000000006000e00fa002007980031079800d1
:103260004207980053079800640798003e009000ba
:10327000e00f50002a003a00f000200066003700fe
:103280003e00900010407800204798002e409000ab
:10329000e04f500002003a00900120005e0037002d
:1032a0002e409000fb4f40001f003200ae409000c7
:1032b000e0c2b30080cf50001d0032003e009000fd
:1032c000304890008080fb004e00900080806000bd
:1032d0004e009000808f500017003a003e00900092
:1032e000304890008080fb005e009000008060000d
:1032f000e00f500012003a006e009000e00f500006
:103300001a0032003e009000800078006e009000ad
:10331000c0060700e00f500016003a000900370011
:103320000000000007003700000000000500370023
:10333000000000000300370000000000010037001b
:10334000000000003e009000800078002e009000f9
:103350003bff0700000f78001e007800e00f5000d0
:10336000c7ff32001e0078002b003700000000006d
:1033700001003700000000002e00900033fe07001f
:103380003e01900000119800111198002e0090004d
:10339000e01090005010900005fe07000001be00f4
:1033a0002e00900010189000010020000200400044
:1033b000838048003e019000201198003111980050
:1033c0002e0090002018900001fe2f008080400009
:1033d0003e009000411098003e0090001bfe070048
:1033e0003e01900050119800611198003e0190003c
:1033f0006000b80070119800011998003e0090001c
:103400008000eb00111898003e0090008000eb0057
:10341000211898000000eb000080fa000000060070
:103420000200fa00000f78001e00780020089000cb
:1034300001002000c001dd00020020001e00780015
:103440005008900001002000000071008180710090
:103450001e01780050119800611198001e0178003b
:103460006000b80070119800011998001e007800e3
:103470008000eb00211898001e0078008000eb000f
:10348000111898000000eb000080fa000000060010
:103490000200fa00000f78001e007800304890000b
:1034a0000080fb00700060000080fa000000060051
:1034b0000400fa00000f7800110798008203200032
:1034c0009e0090001e00780070f407000080fa0053
:1034d000000006000200fa00000f78009e0078004d
:1034e000415090000081fb00515090000080fb0093
:1034f0004800dd000200700001002000c001dd0076
:10350000020020009e007800215890000082fb00fd
:10351000315890000080fb004800dd00040070007e
:103520000100200000007100818071000080fa001d
:10353000000006000600fa00000f7800120798004d
:10354000230798001e019000ae01900000002000ab
:10355000f1ff20000202780003017800800178006a
:1035600001007800030262000000610001002000f9
:10357000c000dd00000020000001be006120b80096
:1035800000017100818171004018de0001002000ff
:10359000000178001e007800f10f20008101610019
:1035a000c0509000e0c0600083c07000415098009f
:1035b0004811de00d0509000e0c0600082c0700072
:1035c000515098001e0190001e007800f10f20005d
:1035d00081016100a0589000e0c0600083c07000cd
:1035e000215898004811de00b0589000e0c06000fb
:1035f00082c07000315898000080fa000000060078
:103600000200fa00000f780030758000e00f5000d3
:1036100002003a00800020000a0037001e007800f7
:10362000e00f500002003a00f000200005003700d3
:1036300081e420001e0078009dff07001e00780036
:1036400077ff07000080fa00000006003800fa004b
:10365000101f9800211f9800321f980030758000bd
:10366000e00f500002003a00800020008400370084
:103670001e189000e00f500002003a0000012000e8
:103680007f0037003e189000e00f500002003a0023
:10369000f00020007a003700660047000001eb00d0
:1036a000800078001e18900080050700e00f500091
:1036b00002003a00000120007100370080e4200081
:1036c00057ff070066004700000278008001eb000a
:1036d0000001eb00be18900080e42000ddfe070032
:1036e000200798002e009000e00f50000c003a00d8
:1036f0003e18900066ff0700e00f50000200320005
:103700000000eb005e0037000001eb008000eb00e2
:103710003e1890007b03070020012000580037006e
:103720002e009000f90f5000020032002e00900091
:1037300053003700be18900080e4200073fe07009d
:10374000200798002e009000e00f50000200320089
:103750002e0090004a0037003e189000e600470017
:10376000b2002000c9f30700be18900000c3b300e8
:10377000b04898003e189000e50307002007980025
:103780002e009000e00f5000060032000001eb0018
:103790008000eb003e1890005a0307002e009000b6
:1037a0003700370071004700020120008000eb0065
:1037b000bafd0700e0c2b300105798003e18900011
:1037c00044ff0700008fbe00710047001e01be00cd
:1037d00058ff0700710047000202200080007800b7
:1037e0003e189000c2080700e0c2b30020579800be
:1037f00080e4200037ff0700008fbe0082e3200036
:10380000124178008281fb0092e32000124178008f
:103810000281fb004811dd00030171000200780005
:10382000a2e32000124178008281fb00b2e3200075
:10383000124178000281fb004811dd000301710094
:1038400082007800be0f5000ae8f580002003a0090
:103850006000b800008fbe00710047001e01be006e
:1038600034ff07007100470002022000800078004a
:103870003e1890009e0807003e1890008afb070043
:103880000080fa00000006000200fa00000f780035
:1038900030758000e00f500002003a0080002000e8
:1038a0000f0037001e007800e00f500002003a00c1
:1038b000f00020000a0037001e007800f4fe070028
:1038c000e00f500002003a006001200004003700c1
:1038d0009e00780080e42000f5fe07000000eb0069
:1038e0000080fa00000006007800fa0030758000c1
:1038f000e00f500002003a0080002000c4003700b2
:1039000080e42000f3fe07000001be0084e32000f5
:10391000144278008482fb0094e320001442780073
:103920000482fb004822dd000502720004007800da
:10393000a4e32000144278008482fb00b4e320005a
:10394000144278000482fb004822dd000502720068
:1039500084007800800f5100818f590002003a00e6
:1039600070012000aa003700660047000001eb004c
:103970008000eb00e3020700e00320000e0040009f
:103980000001eb008000eb00de02070080e4200075
:10399000a3fe0700610720008e80400066004700fc
:1039a00081017800020220008000780080e420007d
:1039b000a2070700000f78001e007800e00f5000fb
:1039c000020032001e00780091003700ee409000a7
:1039d000e0c2b30080cf500002003200500020004f
:1039e0008b003700610720008e8040006600470092
:1039f00081017800020220008000780080e420002d
:103a00008e070700000f78001e007800e00f5000be
:103a1000020032001e0078007d003700ee4090006a
:103a2000e0c2b30080cf500004003a00fe40900096
:103a3000e0c2b30080cf50000200320050002000ee
:103a40007300370066004700a2fe070010079800c9
:103a5000210798001e009000ae009000e00f50007b
:103a6000e08f580003003a0080e42000c2fc070009
:103a7000670037001e009000ae009000001f980005
:103a8000111f9800620720000e014100e103200091
:103a90008e8040006600470082017800020220000c
:103aa00066070700000f78001e007800e00f500046
:103ab000020032001e00780055003700ee789000ba
:103ac000e0c2b30080cf500002003200500020005e
:103ad0004f003700620720000e014100e103200083
:103ae0008e804000660047008201780002022000bc
:103af00052070700000f78001e007800e00f50000a
:103b0000020032001e00780041003700ee7890007d
:103b1000e0c2b30080cf500004003a00fe7890006d
:103b2000e0c2b30080cf50000200320050002000fd
:103b300037003700e00320000e00400065fe07005c
:103b4000e00f5000e08f580004003a00e00320002e
:103b50000e00400088fc070005003700e00320004d
:103b60000e0040005bfe0700403798005137980078
:103b7000e6004700e00320000e0040000002eb00da
:103b80008001eb0002012000b2fd0700000f780069
:103b900016003700660047004efe07000001be0019
:103ba0001e009000ae009000800f5100818f5900e0
:103bb00006003a00660047008000780080e420009c
:103bc0003bfe07000000eb0011003700e600470055
:103bd000e00320000e0040000002eb008001eb003b
:103be000020120009bfd0700000f78001e007800f6
:103bf000e00f5000e7ff32001e007800f90f500080
:103c000002003a0050002000010037001e0078003a
:103c10000080fa00000006000000fa003075800005
:103c2000e00f500002003a00800020000200370040
:103c300080e4200050fc07000080fa00000006002d
:103c40000400fa00000f7800110798000000eb0054
:083c50000080fa0000000600ec
:020000040000fa
:103c58009e0e0000080000000200000000000100a5
:103c68000000000000000000600c000000010000df
:103c780000000000600d0000c40000000200000009
:103c88000200010003040000030101000104000018
:103c9800030103000103000003010100000100000b
:103ca80001000400000101000301030000030300f8
:103cb80001000400000101000101020000010100ef
:103cc80004000100030303000300030001030000d4
:103cd80004000100030101000200030003020000c8
:103ce80003010300000303000300040000010300b4
:103cf80003010400000303000103030000010300a3
:103d080001000300000101000100010000030000a0
:103d18000300010001030000040001000101030089
:103d28000300010003030000040003000101030075
:103d38000400030001030300040003000301010061
:103d4800600d64000d6a0d00700d76000d7a0d008f
:103d5800800d86000d8c0d00900d96000d9c0d00b9
:103d6800a20da6000daa0d00b00db6000dbc0d00e9
:103d7800c20dc8000dcc0d00d20dd8000dde0d000f
:103d8800e40dea000d000000900e00000e00000097
:103d98000200000000000200000000000000ff0018
:103da800ffffff0000000000800e00001000000070
:103db80002000000000000000000000001000000f8
:103dc8000000020000000000000000005008000091
:103dd80008020000020000000000000000000000cf
:103de80000000000000000000000000000000000cb
:103df80000000000000000000000000000000000bb
:103e080000000000000000000000000000000000aa
:103e1800000000000000000000000000000000009a
:104088000000ff00ffffff0000000000000000002c
:10409800580a0000080200000200000000000000aa
:1040a8000000000000000000000000000000000008
:1040b80000000000000000000000000000000000f8
:1040c80000000000000000000000000000000000e8
:1040d80000000000000000000000000000000000d8
:1043580000000000a60e000002000000020000009d
:1043680000000000240e00005c00000000000000b7
:044378000000000041
:020000040000fa
:10437c000200fa00000f78001e0078003048900010
:10438c000080fb00700060000080fa000000060056
:10439c000400fa00008fbe00e0ff2f00f1ff2f0099
:1043ac003e014000ae81480047cebf000080fb00bc
:1043bc0001002000009ab90004027800028bb900b9
:1043cc0086027800050242000010b800010242008b
:1043dc008400780044e32000144278008482fb00bf
:1043ec0054e32000144278000482fb004822dd00d4
:1043fc00050272000401780064e320001442780086
:10440c008482fb0074e32000144278000482fb00d9
:10441c004822dd0005027200840178000000410092
:10442c00818049000080fa00000006000600fa00b6
:10443c00000f780012079800230798001e019000c7
:10444c00ae01900000002000f1ff20000202780075
:10445c0003017800800178000100780003026200fb
:10446c000000610001002000c000dd000000200001
:10447c000001be006120b800000171008181710053
:10448c004018de0001002000000178001e007800ba
:10449c00f10f200081016100c0509000e0c060006d
:1044ac0083c07000415098004811de00d05090003d
:1044bc00e0c0600082c07000515098001e01900056
:1044cc001e007800f10f200081016100a0589000bf
:1044dc00e0c0600083c07000215898004811de00d5
:1044ec00b0589000e0c0600082c070003158980055
:1044fc000080fa00000006000600fa00000f7800a9
:10450c0011079800220798001e007800e00f500059
:10451c0002003a00f0002000220037001e00780054
:10452c002e0190009e00900059fa0700e00f5000f9
:10453c0002003200000120001a0037001e01780032
:10454c006000b80000119800111198001e0178004d
:10455c006000b80020119800311198001e007800fe
:10456c008000eb00411098001e0178006000b8003c
:10457c0050119800611198001e0178006000b8007d
:10458c0070119800011998001e0078008000eb0053
:10459c00111898001e0078008000eb00211898007c
:1045ac000000eb000080fa00000006000c00fa008e
:1045bc0040079800510798004e009000de009000d4
:1045cc0073ff070010079800210798000040eb00cc
:1045dc00004f78000a0037001e009000ae009000db
:1045ec000d0a0700300798003e009000e00f5000c5
:1045fc00020032003e009000050037001e4fe8001c
:10460c0047cebf009e4f5000f3ff3e009c090700b1
:10461c000080fa00000006000600fa00200798004f
:10462c002e009000e010900050109000f602070051
:10463c00008fbe001e01be000080eb008080eb00ee
:10464c00800f5100818f590002003a00b000200009
:10465c002a00370070ff2f00f1ff20001e01be0062
:10466c00800f5100818f590002003600900120000c
:10467c002200370002e42000124178008281fb0006
:10468c0012e42000124178000281fb004811dd0089
:10469c00030171000200780022e42000124178002e
:1046ac008281fb0032e42000124178000281fb0081
:1046bc004811dd000301710082007800be0f50002c
:1046cc00ae8f580002003100c00020000b003700f4
:1046dc002e0090001e01be0052109800631098002e
:1046ec002e0090008000eb00111898002e00900016
:1046fc008000eb00211898000000eb000080fa000d
:10470c00000006000e00fa00600798006e00900092
:10471c0050119000e01190001000200001002000ca
:10472c00800f5100818f5900190036006e009000e7
:10473c00e010900050109000b30207002007980082
:10474c00310798002e019000be0190000080eb0014
:10475c008080eb00800f5100818f590002003a00dd
:10476c0090002000b80037002e019000be01900090
:10477c0070ff2f00f1ff2000800f5100818f590036
:10478c0003003e006e009000a3ff0700ae00370050
:10479c006e009000e010900050109000e00f500060
:1047ac00e08f5800060032006e009000e010900080
:1047bc005010900061004000e0804800020037007b
:1047cc0020002000010020004007980051079800ad
:1047dc004e009000de009000008fbe0016003700e7
:1047ec001e00be00880207002007980031079800c1
:1047fc002e019000be0190000080eb008080eb0049
:10480c00800f5100818f590002003a00b000200047
:10481c008d0037002e009000be009000e00f50007d
:10482c00e08f5800410032001200200003002000ed
:10483c001e0f41005e97490002e4200012417800ef
:10484c008281fb0012e42000124178000281fb00ff
:10485c004811dd00030171000200780022e4200001
:10486c00124178008281fb0032e420001241780072
:10487c000281fb004811dd00030171008200780009
:10488c00be0f5000ae8f5800d5ff31004e00900087
:10489c00de00900062005000e08058004007980055
:1048ac00510798002000200001002000008fbe005e
:1048bc00160037001e00be005302070020079800a8
:1048cc00310798002e019000be0190000080eb0093
:1048dc008080eb00800f5100818f590002003a005c
:1048ec00b0002000580037002e009000be00900051
:1048fc00e00f5000e08f58000e0032001000200036
:10490c00010020001e0f40005e9748004e009000f2
:10491c00de0090001e01be00800f5100818f5900f7
:10492c00e4ff3600e00020004700370000000000e4
:10493c00010037000000000082ff2f00f3ff200071
:10494c001e00be00b802070020079800310798002f
:10495c002e019000be0190000080eb008080eb00e7
:10496c00800f5100818f590002003a009000200006
:10497c0035003700e70107000001be000080eb00a6
:10498c008080eb00800f5100818f590002003a00ab
:10499c00900020002c0037006e009000e01090007a
:1049ac0050109000e00f5000e08f580004003a00c7
:1049bc006e0090001e01be009cfe07001000370028
:1049cc006e009000e0109000501090001e01be0090
:1049dc009502070020079800310798002e019000df
:1049ec00be0190000080eb008080eb00800f510036
:1049fc00818f590002003a0090002000120037000d
:104a0c006e0090001e01be005210980063109800ba
:104a1c006e0090008000eb00111898006e00900062
:104a2c008000eb00211898006e00900050fe0700eb
:104a3c00e00f5000030032001e00be00dbfe07003a
:104a4c00010037000000eb000080fa0000000600b7
:104a5c000c00fa0040079800510798000000eb008a
:104a6c00200798004e009000feee070020079800eb
:104a7c002e009000e00f5000030032002e0090003a
:104a8c00ec0f5000020036000000eb0082003700f3
:104a9c000000eb00000f78000000eb0010079800fe
:104aac00780037001e009000ce009000008040007f
:104abc001040780060479800ee40900000c2b300b0
:104acc0080cf500050003600ee40900020c2b30062
:104adc0080cf50004c003200ee409000a0c2b300da
:104aec0080cf500003003a005e009000e00f5000b1
:104afc0045003200ee409000b0c2b30080cf5000b1
:104b0c0003003a005e009000e00f50003e003200bf
:104b1c00ee409000c0c2b30080cf50003a0032008b
:104b2c00ee409000e0c2b30080cf500003003a008a
:104b3c001e007800e10f500033003200ee40900070
:104b4c00f0c2b30080cf50002f003200ee40900036
:104b5c00a0c3b30080cf50002b003200ee40900079
:104b6c00b0c3b30080cf500027003200ee4090005d
:104b7c00c0c3b30080cf500023003200ee40900041
:104b8c00d0c3b30080cf50001f003200ee40900025
:104b9c00e0c3b30080cf50001b003200ee40900009
:104bac00f0c3b30080cf500003003a005e009000c9
:104bbc00e00f500014003200ee409000b0c5b3007e
:104bcc0080cf500010003200ee409000c0c5b30002
:104bdc0080cf50000c003200ee409000d0c5b300e6
:104bec0080cf500008003200ee409000c0c7b300e8
:104bfc0080cf500004003200ee409000e0c7b300bc
:104c0c0080cf5000020036000000eb00220037007d
:104c1c00ee409000e0c2b30080cf50000e003a008e
:104c2c001e009000e00f500002003a000000eb0064
:104c3c001900370010002000000f78001e009000b3
:104c4c00ae00900000805000e40f500002003600cf
:104c5c000000eb00100037001e007800e00f500041
:104c6c0005003a001e009000e70f500002003400cf
:104c7c000000eb00080037001e0090000000e80068
:104c8c00100798009e0090002e009000808f50001e
:104c9c0084ff3900100020000080fa00000006009c
:104cac000e00fa0040079800510798006207980020
:104cbc00ee0090004e00900065ff07002007980062
:104ccc002e009000e00f500002003a002e009000e1
:104cdc004b0037004e00900062ee07003007980042
:104cec000000eb00000f78000000eb0010079800ac
:104cfc00080037001e009000de009000808040000d
:104d0c0000c2b300804878001e0090000000e8004c
:104d1c00100798001e009000ea0f5000f5ff3400b9
:104d2c000000eb0010079800300037001e009000c8
:104d3c00ce0090000080400090407800e0c2b300ac
:104d4c0080cf500003003a0080002000000f780054
:104d5c00230037001e009000ce0090000080400021
:104d6c009040780000c6b30080cf50001300340090
:104d7c001e009000ce009000008040009040780013
:104d8c00a0c7b30080cf50000c003c001e00780080
:104d9c00de009000008140001e009000ce009000cc
:104dac0000804000104078008040780000ceb300b6
:104dbc0000c0400000497800080037001e00780051
:104dcc00de009000808040001e0090004e0190009c
:104ddc000000410010407800804878001e0fe80069
:104dec001e0090000000e800100798009e00900044
:104dfc003e009000808f5000ccff3500100020004a
:104e0c000080fa00000006000a00fa003007980043
:104e1c00410798000000eb00000f78000000eb0049
:104e2c00100798000000eb0020079800980037004e
:104e3c001e0078006101b8000080eb008080eb0060
:104e4c000200400083804800320020000300200054
:104e5c00820f5000838f580057003e000060010005
:104e6c002f003700410037000100370015003700d4
:104e7c00be0090001e009000008040009040780022
:104e8c00a0c2b30080cf500007003200be009000db
:104e9c001e009000008040009040780000c2b300db
:104eac0080cf500004003a001e0090000000e80083
:104ebc00100798007600370040002000000f7800a3
:104ecc0073003700be0090001e0090000080400070
:104edc00904078004e0190002e00900000004100a0
:104eec001040780080cf500009003a001e0090005e
:104efc000000e800100798002e0090000000e80069
:104f0c00200798000000eb00000f780060003700cd
:104f1c002e0090000000e800200798005c0037008d
:104f2c00ce0090002e0090000080400010407800d1
:104f3c000000fb00aded0700e00f5000090032004f
:104f4c001e0090000000e800100798002e00900052
:104f5c000000e800200798000000eb00000f78002c
:104f6c004b0037000000eb0068003700ce009000cb
:104f7c002e00900000804000104078000000fb00e4
:104f8c000003b100e90f500009003e001e00900024
:104f9c000000e800100798002e0090000000e800c8
:104fac00200798000000eb00000f78003800370055
:104fbc000000eb0055003700be0090001e00900072
:104fcc000080400090407800a0c2b30080cf500019
:104fdc0006003a0030002000000f78001e00900000
:104fec000000e8001007980029003700be00900070
:104ffc001e0090000080400090407800f0c3b30089
:10500c0080cf500003003a0010002000000f780001
:10501c001f003700be0090001e0090000080400072
:10502c0090407800b0c2b30080cf500003003a002b
:10503c0020002000000f780015003700be00900003
:10504c001e00900000804000904078004e019000bf
:10505c002e009000000041001040780080cf5000de
:10506c00020032000000eb00280037001e00900008
:10507c000000e800100798002e0090000000e800e7
:10508c00200798000000eb00000f780000000000e3
:10509c001e009000ea0f500010003e002e00900001
:1050ac00ea0f500062ff36000c003700be00900083
:1050bc001e009000008040009040780000c2b300b9
:1050cc0080cf5000020032000000eb000f003700d0
:1050dc001e0090000000e800100798001e009000d1
:1050ec00ea0f5000f1ff36001e007800e00f500070
:1050fc00030032001e007800e30f500002003a005b
:10510c0010002000010037000000eb000080fa00c6
:10511c00000006000600fa008252800093528000c4
:10512c000080eb008080eb00800f5100818f5900d4
:10513c0003003200a0528000e00f500002003a0041
:10514c006000b8002e0037000000eb00a052880071
:10515c008052800091528000008fbe000000eb0056
:10516c0020079800200037008041eb0002852000ca
:10517c001e00be00e8f10700e04f500003003a00ab
:10518c000080eb008080eb001d00370002e3200064
:10519c00124178008281fb0012e32000124178005a
:1051ac000281fb004811dd00030171000200780050
:1051bc0022e32000124178008281fb0032e32000c0
:1051cc00124178000281fb004811dd0003017100df
:1051dc00820078001e0f40005e9748002e00900061
:1051ec000000e8002007980046cebf008080fb003e
:1051fc002e009000808f5000dbff3c006000b80058
:10520c000080fa00000006001400fa00889fbe001f
:10521c00000f9800110f980002e420001241780052
:10522c008281fb0012e42000124178000281fb0015
:10523c004811dd00030171000200780022e4200017
:10524c00124178008281fb0032e420001241780088
:10525c000281fb004811dd0003017100820078001f
:10526c000e0990009e099000820f5000838f580009
:10527c00030031000080eb008080eb0067003700fa
:10528c000e0990009e0990004218dd00ce10de0041
:10529c00810070004210dd00008fbe002ccebf00dc
:1052ac008080fb002dcebf000080fb004800dd009d
:1052bc0001007000000478002ecebf008080fb003f
:1052cc002fcebf000080fb004800dd000100700005
:1052dc008004780044cebf008080fb0045cebf0028
:1052ec000080fb004800dd00010070000100200080
:1052fc000001be001e00be00caec07000800400002
:10530c0089804800200798003107980044cebf00e0
:10531c008080fb0045cebf000080fb004800dd0014
:10532c00010070000000e9006101b8001e00be0021
:10533c0002027800030178008001780001007800f7
:10534c00030262000000610001002000c000dd00cb
:10535c00000020000001be006120b80000017100b7
:10536c008181710042079800530798006000b800d3
:10537c006007980071079800825280009352800059
:10538c002e009000be009000800f5100818f5900bc
:10539c001a0032005fff0700e00f5000e08f58004a
:1053ac00030032000080eb008080eb001b00370014
:1053bc00028520002e009000be009000f8f007003f
:1053cc00e04f500007003a000080eb008080eb00bb
:1053dc008052880091528800805280009152800047
:1053ec000e0037002e009000be0090008052880006
:1053fc00915288000000eb00a0528800018520002b
:10540c004e009000008040001001be006207980022
:10541c00730798006e009000fe0090004f04be00d1
:10542c000080fa00000006001400fa00889fbe00fd
:10543c006007980071079800020f9800130f9800ee
:10544c0002e42000124178008281fb0012e420006b
:10545c00124178000281fb004811dd00030171004c
:10546c000200780022e42000124178008281fb00c7
:10547c0032e42000124178000281fb004811dd006b
:10548c0003017100820078006e019000fe01900013
:10549c00820f5000838f5800030031000080eb0016
:1054ac008080eb00660037006e019000fe019000da
:1054bc004218dd00ce10de00810070004210dd00cd
:1054cc00008fbe002ccebf008080fb002dcebf0015
:1054dc000080fb004800dd00010070000004780033
:1054ec002ecebf008080fb002fcebf000080fb00c3
:1054fc004800dd00010070008004780044cebf003d
:10550c008080fb0045cebf000080fb004800dd0022
:10551c0001007000010020000001be001e00be0052
:10552c0040ec0700080040008980480020079800e4
:10553c003107980044cebf008080fb0045cebf00f1
:10554c000080fb004800dd00010070000000e90055
:10555c006101b8001e00be00020278000301780051
:10556c0080017800010078000302620000006100f5
:10557c0001002000c000dd00000020000001be0082
:10558c006120b80000017100818171004207980010
:10559c005307980082528000935280002e00900096
:1055ac00be009000800f5100818f59000c0032001a
:1055bc006e009000fe00900013ff07000001be007b
:1055cc000080eb008080eb00800f5100818f590030
:1055dc0003003a000080eb008080eb0018003700dd
:1055ec00018520004e009000008240000e099000c2
:1055fc009e099000f0ff2f00f1ff2000820278003e
:10560c000301780080017800010078008382620039
:10561c000000610001002000c000dd00000020003f
:10562c000001be006128b800000171008181710089
:10563c00028abe0010002000a05288006000b80052
:10564c004f04be000080fa00000006000e00fa00b5
:10565c0050079800610798005e009000ee009000e3
:10566c00008fbe006000b80030079800410798001a
:10567c005e019000ee01900010002000010020005f
:10568c00800f5100818f590002003e00d000200095
:10569c003e0037000000eb00200798003300370075
:1056ac001e00be00d8fe0700300798004107980086
:1056bc003e019000ce0190000080eb008080eb005a
:1056cc00800f5100818f590003003a00d000200058
:1056dc00200798002b0037006011b8001e00be0098
:1056ec0051ff07000001be000080eb008080eb0042
:1056fc00800f5100818f590003003a00d000200028
:10570c00200798001f0037003e009000ce0090004c
:10571c00e00f5000e08f58000e0032003e01900068
:10572c00ce0190001000200001002000800f5100dd
:10573c00818f5900070032003e019000ce0190008d
:10574c0070ff2f00f1ff2000800f5100818f590056
:10575c0003003a00d0002000200798000900370011
:10576c003e009000ce009000008fbe0070ff2f0016
:10577c00f1ff20001e01be00800f5100818f5900e7
:10578c00c7ff360063fe07002e0090000080fa0071
:10579c00000006000400fa00008fbe00e0ff2f009e
:1057ac00f1ff2f003e014000ae81480047cebf0004
:1057bc000080fb0001002000009ab9000402780070
:1057cc00028bb90086027800050242000010b80076
:1057dc00010242008400780044e320001442780067
:1057ec008482fb0054e32000144278000482fb0006
:1057fc004822dd00050272000401780064e32000f9
:10580c00144278008482fb0074e320001442780078
:10581c000482fb004822dd0005027200840178003e
:10582c0000004100818049000080fa000000060061
:10583c001200fa0050079800610798007207980050
:10584c00030f980030758000e00f500002003a0002
:10585c0080002000a10037005e009000e00f500097
:10586c0002003a00f00020009c0037006e0090000f
:10587c00e00f500002003a00f000200097003700c3
:10588c007e009000e00f500002003a00f000200073
:10589c00920037006e009000000f78000e08900008
:1058ac008000eb0001087800880037005e00900053
:1058bc00a018900044cebf000081fb0045cebf0075
:1058cc000080fb004800dd0002007000808f50005b
:1058dc0017003a005e0090009018900047cebf0071
:1058ec000080fb000000e900808f500008003a00a7
:1058fc005e00900048fb0700200798002e009000e7
:10590c00e00f50000a0032002e00900073003700a8
:10591c005e009000101890008000e8005e0090007f
:10592c00111898005e0090008000eb002118980080
:10593c005e009000e01090005010900095ff070062
:10594c000001be005e0090001018900001002000c5
:10595c0002004000838048003007980041079800ff
:10596c0044cebf008080fb0045cebf000080fb0012
:10597c004800dd0001007000800078005e0090009f
:10598c002018900000805000fe009000810f500005
:10599c000100360001007800100798005e009000ae
:1059ac00304890000080fb0070006000e00f500059
:1059bc0017003a005e009000701190008019900062
:1059cc001e0090000100200002014000838148006d
:1059dc005e009000f008900060089000800f51006d
:1059ec00818f59000a0036005e009000f00890008c
:1059fc0060089000000178005e0090008018900014
:105a0c007010900000007800000051001007980002
:105a1c001e009000e00f500002003a0090012000a0
:105a2c002e0037005e009000201890001e027800b7
:105a3c009e019000000178003e009000ce00900086
:105a4c00a8040700200798002e009000e00f5000db
:105a5c00020032002e00900020003700fe00900063
:105a6c001e00900000805000700798001e009000ef
:105a7c001e0f40000e089000900078001e00900051
:105a8c00808040000e089000010878005e009000b5
:105a9c00a01890001e009000808040005e009000d6
:105aac00211898005e0090007011900080199000f1
:105abc001e0090000100200002004000838048007e
:105acc005e01900070119800011998007e00900002
:105adc00e00f500075ff3a000000eb000080fa0068
:105aec00000006001000fa005007980061079800ab
:105afc007207980030758000e00f500002003a00e9
:105b0c0080002000940037005e009000e00f5000f1
:105b1c0002003a00f00020008f0037005e00900079
:105b2c00304890000080fb0061006000004078006d
:105b3c00e04f5000020032001001200086003700b8
:105b4c006e009000e00f500002003a00f0002000c0
:105b5c00810037007e009000e00f500002003a00f8
:105b6c00f00020007c0037006e009000000f7800e1
:105b7c00750037005e009000a018900044cebf0066
:105b8c000081fb0045cebf000080fb004800dd001b
:105b9c0002007000808f50001d003a005e009000e3
:105bac009018900047cebf000080fb000000e90079
:105bbc00808f50000e003a005e00900096fa0700ad
:105bcc00100798001e009000f90f500003003a00d7
:105bdc005e009000cbfa0700100798001e009000a2
:105bec00e00f50000a0032001e0090005a003700ef
:105bfc005e009000101890008000e8005e0090009d
:105c0c00111898005e0090008000eb00211898009d
:105c1c005e009000e010900050109000ddfe070038
:105c2c000001be005e0090001018900001002000e2
:105c3c00020040008380480020079800310798003c
:105c4c0044cebf008080fb0045cebf000080fb002f
:105c5c004800dd0001007000800078005e009000bc
:105c6c002018900000805000fe009000810f500022
:105c7c000100360001007800400798005e0090009b
:105c8c00201890004e029000800178001e017800d0
:105c9c002e009000be0090003804070010079800fa
:105cac001e009000e00f5000020032001e00900019
:105cbc0029003700fe0090004e009000008050003c
:105ccc00700798004e0090001e0f40005e00900080
:105cdc00a01890004e009000808040005e00900064
:105cec00211898005e0090007011900080199000af
:105cfc004e0090000100200002004000838048000c
:105d0c005e01900070119800011998005e009000df
:105d1c0060099000f00990005e00900080189000df
:105d2c0070109000800f5100818f590006003100d7
:105d3c005e00900080189000701090005e01900042
:105d4c0060099800710998007e009000e00f5000e7
:105d5c0088ff3a000000eb000080fa00000006000b
:105d6c000400fa00204798002e4090000080fb00b1
:105d7c0040128800000000000012800061006000ea
:105d8c00e00f5000fcff320040128000004f780002
:105d9c000080fa00000006000000fa00f00f20005e
:105dac0040128800000000000012800061006000ba
:105dbc00e00f5000fcff32004012800000407800e1
:105dcc000080fa00000006000200fa00380007000c
:105ddc00501680004b00de00614060000080fb002c
:105dec00000f7800501680004b00de006140600010
:105dfc000080fb00000f7800501680004b00de0086
:105e0c00614060000080fb00000f7800501680009d
:105e1c004b00de00614060000080fb00000f78004a
:105e2c00501680004b00de00614060000080fb00db
:105e3c00000f7800501680004b00de0061406000bf
:105e4c000080fb00000f7800501680004b00de0035
:105e5c00614060000080fb00000f7800501680004d
:105e6c004b00de00614060000080fb00000f7800fa
:105e7c001e007800e00f50000a003a000000eb0012
:105e8c00000f7800010037001e0fe800f0cf27004c
:105e9c009e007800808f5000fbff360010c0b300ce
:105eac00010037000040eb000080fa000000060003
:105ebc000600fa0080cebf00e04f500056003a00ba
:105ecc00c962a80069e0a800c9e2a900cde2a80057
:105edc000000eb00001288000000eb00101288009c
:105eec000000eb00201288007067a900c9a2a9006d
:105efc0061368000f00f2e00808060000080200052
:105f0c000080700060368800c9c2a900713680001c
