:020000040000fa
:080000000002040000000000f2
:020000040000fa
:100400004f4021000e7f22000e01880000000000f6
:100410000c000700606022000100200011000700ae
:10042000000020000000e000020032000000020096
:1004300000000000fa410200000000000040da0065
:100440000000fe004440a900200720000000e0005a
:100450000300320000002000a00188004440a800f2
:100460000000060091018800800078000000eb0089
:1004700015003700e280400032a0b4009101ba00bc
:10048000e280400032a0b4009102ba00e280400055
:1004900032a0b4000002eb00472bde00f507b200eb
:1004a000602ce10004003a000059eb008301e900f0
:1004b000fdff3e00040037006128e100010032002a
:1004c0000082eb00040007001101ba000200e00006
:1004d000e8ff3a00000006003159ba008301e90044
:1004e0000c0032002159ba008301e90008003200f3
:1004f0000400e00003003a00e280400032a0b400b3
:10050000f5ff370011d9ba008301e900faff3a007c
:100510008100e800e180400032a0b4000000060045
:100520008c45040000000000809fbe00829fbe003a
:100530000000fa008460a900509f8000619f800045
:1005400061004000e0804800509f8800619f880063
:10055000529f8000639f8000709f8000819f800079
:10056000800f5100818f5900080036000080eb0099
:100570008080eb00709f8800819f8800909f8000a2
:10058000e00f5000010032008bc0a8000080fa008c
:100590004f01be004f00be00004006003600f800cc
:1005a000809fbe00829fbe00849fbe00869fbe00cb
:1005b0000200fa008bc0a900909f8000000f780015
:1005c0001e007800e00f5000020032001e0078008c
:1005d000000001000080fa004f03be004f02be0081
:1005e0004f01be004f00be003600f900004006007b
:1005f000809fbe000000fa000000eb00809e880093
:100600000000eb00909e88002262a9002242a9000f
:100610002222a900e09c8000f19c80006100400043
:10062000e0804800e09c8800f19c88008c20a900b4
:100630000080fa004f00be00004006000200fa00f1
:10064000004f7800919e8000009d8000808f5000b8
:1006500008003100919e8000008d20000080400045
:100660001e487800909e80000000e800909e880060
:1006700003003700009d80000000e800909e880085
:100680000080fa00000006003600f800809fbe00df
:10069000829fbe00849fbe00869fbe000800fa00b5
:1006a0005301370030118000404798000000eb00f4
:1006b000000f780060732800904078004e40900052
:1006c00080cf500003003a0010002000000f780097
:1006d0000700370070732800904078004e4090006b
:1006e00080cf500002003a0020002000000f780068
:1006f000809e80006300b900000078001e0040006a
:1007000080004000603a2100008040001000780026
:10071000809e8800809e80000100200062002000f2
:1007200003002000820f5000838f580030013e00ec
:10073000006001002b0137002a0137000400370058
:100740000d003700270137000e0037001300370077
:10075000509c8000e00f500024013200607328009c
:1007600010407800b5ff0700607328001040780043
:10077000b2ff07001e0137004e409000afff070098
:100780001b0137007073280010407800abff070092
:100790004e409000a9ff070015013700509c8000d3
:1007a000e00f5000060032007073280010407800ff
:1007b000a2ff070070732800104078009fff070019
:1007c000919e8000009d8000808f5000f8003e00c8
:1007d000909e8000e00f5000fd003200809c800061
:1007e000919c800061004000e0804800809c88006f
:1007f000919c8800909e8000209d8800609c8000d5
:10080000e00f5000d6003200909e8000209d8800ae
:10081000209d8000e40f50004c003600a19e800017
:10082000402020000088b900000078008080e800a7
:100830000095200000804000104178008280fb007d
:10084000104090000080fb004800dd0001007000b7
:1008500080007800209d800080804000f01f2000f4
:10086000808f500039003e00229d8000a19e8000b4
:10087000402020000088b90000007800e40040001b
:100880000095200080814000a19e80004020200033
:100890000088b900000078008080e8000095200002
:1008a00000804000104278008480fb0010409000df
:1008b0000080fb004800dd00010070000080410066
:1008c000018d2000fd000700a39e80004020200035
:1008d0000098b900000078008080e80000952000b2
:1008e00000804000104178008280fb0010409000a2
:1008f0000080fb004800dd000100700080007800ef
:10090000209d800000814000402020000098b90018
:10091000800078002095200000804000f10f20002a
:100920008101610090407800e0c0600083c07000e9
:10093000014878004811de0090409000e0c060005f
:1009400082c0700011409800a1003700a09e800076
:100950000000a200300798000000eb00100798008c
:10096000be009000402020000088b9008000780080
:100970000095200000804000904178008380fb00bb
:10098000104090000080fb004800dd000100700076
:10099000e00f50006b003200be00900040202000ad
:1009a0000088b90080007800009520000080400099
:1009b00090407800e0c060000148780090409000ce
:1009c000e0c0600011409800209d8000e40f5000be
:1009d00003003e000000eb00209d88002c00370043
:1009e000a19e8000402020000088b900000078000f
:1009f0008080e800009520000080400010427800d0
:100a00008480fb00104090000080fb004800dd0067
:100a100001007000012020000080500010079800a5
:100a2000a19e8000402020000088b90000007800ce
:100a3000e40040000095200000814000a19e80005d
:100a4000402020000088b900000078008080e80085
:100a50000095200000804000904178008380fb00da
:100a6000104090000080fb004800dd000100700095
:100a7000000041001e019000018d20008f00070042
:100a8000219d80001e00900000805000209d880065
:100a9000a19e8000402020000088b900000078005e
:100aa0008080e8000095200000804000109d8800b4
:100ab0003e029000a49e8800a19e8000229d80009e
:100ac000402020000088b900800078002095200098
:100ad00000804000f10f200081016100904078000b
:100ae000e0c0600083c07000014878004811de005b
:100af00090409000e0c0600082c0700011409800fb
:100b0000209d8000e00f500030003200229d8000c8
:100b10009e009000008d200080814000a19e8000fa
:100b2000402020000088b90000007800e400400068
:100b30000095200000804000830078005f000700df
:100b400023003700a09c8000b19c80006100400021
:100b5000e0804800a09c8800b19c88001c00370001
:100b6000109d8000e00f50000a003a00909e800027
:100b7000209d8800209d800000017800018d2000cc
:100b8000008520004d00070010002000109d880007
:100b90000f003700a09c8000b19c800061004000e5
:100ba000e0804800a09c8800b19c880008003700c5
:100bb000c09c8000d19c800061004000e080480023
:100bc000c09c8800d19c8800010037000000000014
:100bd0000000eb00809e88000000eb00909e8800e3
:100be0000300370000000000010037000000000093
:100bf0001011800061006000e00f5000a9fe3a0073
:100c00008560a9000080fa004f03be004f02be00bd
:100c10004f01be004f00be003600f9000040060044
:100c20000040da000000fe000003b1000b003500b8
:100c30009000b100080034008000b10007003500ca
:100c40009001b100040034007000b10003003500d1
:100c50009001b10001003c001000050000000500fb
:100c60006022b800060220000000d0008180d2007f
:100c70000482d2008582d2000000a000020252004d
:100c800083825a00030031000202420083824a003c
:100c90000000a1000603e900f3ff3a00000006008f
:100ca000800078000041eb00b14f1100fdff3a00d9
:100cb0000080ea000080400000000600800178000b
:100cc00002003700b1597800040178000202e900ff
:100cd000e00f5100fbff3a000000060080017800a1
:100ce0000200370081597800040178000202e9000f
:100cf000e00f5100fbff3a000000060002c2b30003
:100d0000010037000000e8009040780082cf5000da
:100d1000fcff3200e9cf5000faff3200d2c2b3002c
:100d200082cf500003003a000000e80012c0b30078
:100d3000050037000041eb00b3c2b30083cf500081
:100d400001003a000000e8008000eb0005003700d9
:100d50006a0ab90001fd2f008480400083804000b2
:100d60000000e8009001fb0004fd2f000302420098
:100d7000e90f5200f6ff3600e04f5100010032004b
:0c0d80008100ea0001007800000006007d
:020000040000fa
:0200000401f009
:04000c0078ff000079
:020000040000fa
:0200000401f009
:040010005eff00008f
:020000040000fa
:0200000401f009
:040014007fff00006a
:020000040000fa
:0200000401f009
:04001800feff0000e7
:020000040000fa
:0200000401f009
:04001c00dfff000002
:020000040000fa
:100008001006000010060000100600001006000090
:100018001006000010060000100600001006000080
:1000280010060000100600001006000094020000f0
:100038001006000010060000100600001006000060
:10004800100600001006000010060000440300001f
:100058001006000010060000100600001006000040
:100068001006000010060000100600001006000030
:100078001006000010060000100600001006000020
:100088001006000010060000100600001006000010
:100098001006000010060000100600001006000000
:1000a80010060000100600001006000010060000f0
:1000b80010060000100600001006000010060000e0
:1000c80010060000100600001006000010060000d0
:1000d80010060000100600001006000010060000c0
:1000e80010060000100600001006000010060000b0
:1000f80010060000100600001006000010060000a0
:10010800100600001006000010060000100600008f
:100118001006000010060000ce02000010060000c5
:1001280010060000f802000010060000100600008b
:10013800100600001006000010060000100600005f
:10014800100600001006000010060000100600004f
:10015800100600001006000010060000100600003f
:10016800100600001006000010060000100600002f
:10017800100600001006000010060000100600001f
:10018800100600001006000010060000100600000f
:1001980010060000100600001006000010060000ff
:1001a80010060000100600001006000010060000ef
:1001b80010060000100600001006000010060000df
:1001c80010060000100600001006000010060000cf
:1001d80010060000100600001006000010060000bf
:1001e80010060000100600001006000010060000af
:0801f8001006000010060000d3
:020000040000fa
:10020800100600001006000010060000100600008e
:10021800100600001006000010060000100600007e
:1002280010060000100600001006000094020000ee
:10023800100600001006000010060000100600005e
:10024800100600001006000010060000440300001d
:10025800100600001006000010060000100600003e
:10026800100600001006000010060000100600002e
:10027800100600001006000010060000100600001e
:10028800100600001006000010060000100600000e
:1002980010060000100600001006000010060000fe
:1002a80010060000100600001006000010060000ee
:1002b80010060000100600001006000010060000de
:1002c80010060000100600001006000010060000ce
:1002d80010060000100600001006000010060000be
:1002e80010060000100600001006000010060000ae
:1002f800100600001006000010060000100600009e
:10030800100600001006000010060000100600008d
:100318001006000010060000ce02000010060000c3
:1003280010060000f8020000100600001006000089
:10033800100600001006000010060000100600005d
:10034800100600001006000010060000100600004d
:10035800100600001006000010060000100600003d
:10036800100600001006000010060000100600002d
:10037800100600001006000010060000100600001d
:10038800100600001006000010060000100600000d
:1003980010060000100600001006000010060000fd
:1003a80010060000100600001006000010060000ed
:1003b80010060000100600001006000010060000dd
:1003c80010060000100600001006000010060000cd
:1003d80010060000100600001006000010060000bd
:1003e80010060000100600001006000010060000ad
:0803f8001006000010060000d1
:020000040000fa
:100d8c0000950000000000000000000001f90000c8
:100d9c0000000000000000000887000004000000b4
:100dac000000000009af000000000000010000007e
:100dbc000a1b000000000000010000000daf000045
:100dcc00020000000000000010ff00000000000006
:100ddc000000000011ff00000000000001000000f6
:100dec0018ff0000000000000100000029ff0000b7
:100dfc000400000000000000377300000000000039
:100e0c00000000003a250000040000000000000073
:100e1c003b2500000000000000000000534f0000c4
:100e2c0053000000520000004f0000006c6f0000e7
:100e3c00672b00002b2b00002b2b00002e740000c6
:100e4c0078740000004c00004f4700003030000068
:100e5c0030300000302e00005458000054000000c8
:040e6c0055aa000083
:020000040000fa
:100e70000200fa000000eb00000f78002cd3bf0046
:100e8000604060002cf3b7002dd3bf0060406000cd
:100e90002df3b7002ed3bf00604060002ef3b700e3
:100ea0002fd3bf00604060002ff3b7000133210053
:100eb0009140780000c0eb0000c0700030f3b70034
:100ec000113321009140780000c0eb0000c0700099
:100ed00031f3b700213321009140780000c0eb00ce
:100ee00000c0700032f3b700313321009140780028
:100ef00000c0eb0000c0700033f3b700a10407008e
:100f0000e00f500002003200300020000f003700d8
:100f10004cd3bf00604060004cf3b7004dd3bf001e
:100f2000604060000014a0004df3b7000900070006
:100f3000000f78001e007800e00f50000200320021
:100f40001e00780001003700cb0007000080fa0087
:100f5000000006000a00fa00b51a070020079800f2
:100f60000000eb00300798000000eb0040079800fd
:100f70002e009000000178006000b800b703070061
:100f8000e14f500002003200b0002000b8003700ee
:100f90002e009000300798003e009000e0f893008b
:100fa00050c5b30080cf500005003a003e009000cd
:100fb000f0f89300a0cab30080cf500002003200c6
:100fc00040002000aa003700ae00900041079800c2
:100fd0004e00900010407800f74f400009003200aa
:100fe0004e00900010407800f54f400031003a006c
:100ff0004e009000a040900000c9b30080cf500088
:101000002c003a004e009000e070900060c4b300e5
:1010100080cf500011003a004e009000f070900018
:1010200010c4b30080cf50000c003a004e00900076
:101030008078900040c5b30080cf500007003a0090
:101040004e009000e060900090c2b30080cf50004e
:1010500002003a000000eb00850037004e009000cf
:10106000a0d0900060c4b30080cf500011003a00bf
:101070004e009000b0d0900010c4b30080cf50005c
:101080000c003a004e009000c0d0900040c5b30064
:1010900080cf500007003a004e009000a0c09000a2
:1010a00090c2b30080cf500002003a000000eb0075
:1010b0006f0037003e009000e11b2000010f400050
:1010c0000000eb0010079800650037001e00780054
:1010d000404090000080fb006b005000e10f50008a
:1010e0005a003e001e017800824990000382fb00f6
:1010f000924990008381fb00c819dd008481710052
:1011000003007800a24990008381fb0032499000df
:101110000281fb004811dd000301710082007800ac
:10112000f20f200082016000c232210012417800db
:1011300060416100034171000001fd002cf3b70024
:101140000001fd00c801de00d2322100124178000a
:101150006041610003417100020078002df3b70087
:10116000f20f200082816000e232210012417800fb
:101170006041610003417100020078002ef3b70066
:10118000c808de002fd3bf0060406000014070003f
:101190002ff3b7001e017800c24990000382fb00c4
:1011a000d24990008381fb00c819dd008481710061
:1011b00003007800e24990008381fb0072499000af
:1011c0000281fb004811dd000301710082007800fc
:1011d000f20f2000820160000233210012417800ea
:1011e00060416100034171000001fd0030f3b70070
:1011f0000001fd00c801de00123321001241780019
:1012000060416100034171000200780031f3b700d2
:10121000f20f200082816000223321001241780009
:1012200060416100034171000200780032f3b700b1
:10123000c808de0033d3bf0060406000014070008a
:1012400033f3b7000000eb00090037001e00780000
:10125000700f40001e0090000000e800100798008a
:101260001e009000e30f500098ff34006000200043
:101270000080fa00000006001000fa00889fbe00ff
:10128000eb190700000f78000000eb001007980032
:101290009e017800c2322100124178000282fb00d8
:1012a000d2322100124178000281fb004811dd009a
:1012b0000401710002007800e2322100124178003e
:1012c0000282fb00f2322100124178000281fb0011
:1012d0004811dd00040171008200780003017800ec
:1012e000de020700e14f500002003200b000200093
:1012f0008f0237001e007800100798001e00900033
:10130000e0f8930050c5b30080cf500005003a00cc
:101310001e009000f0f89300a0cab30080cf5000e8
:101320000200320040002000810237001e009000c1
:1013300010407800f74f40000b0032001e00900074
:1013400010407800f54f400005003a001e00900064
:10135000a040900000c9b30080cf500002003200ce
:1013600040002000720237004cd3bf008080fb0099
:101370004dd3bf000080fb004800dd00010070007d
:10138000000178009e009000314890008081fb00b1
:10139000414890000080fb004800dd000300700021
:1013a000800f510002003200400020006002370030
:1013b0009e009000315090000081fb004150900051
:1013c0000080fb004800dd0002007000e00f5000cc
:1013d000090032009e009000315090000081fb0017
:1013e000415090000080fb004800dd0002007000ca
:1013f000010020000f0037001e0190008261900064
:101400000382fb00926190008381fb00c819dd001c
:101410008481710003007800a26190008381fb0049
:10142000326190000281fb004811dd000301710070
:1014300082007800200798003107980002332100cd
:10144000124178008281fb001233210012417800a2
:101450000281fb004811dd000301710002007800e9
:1014600022332100124178008281fb0032332100b7
:10147000124178000281fb004811dd000301710078
:10148000820078002e019000be019000820f500073
:10149000838f5800020031004000200024023700f2
:1014a000ae009000f00f20008080600030d3bf00bd
:1014b000604060000140700030f3b7002e009000e3
:1014c000c800de0031d3bf00604060000140700002
:1014d00031f3b700be009000f00f20008080600064
:1014e00032d3bf00604060000140700032f3b700ab
:1014f0003e009000c800de0033d3bf0060406000b3
:101500000140700033f3b7001e00900000509000bf
:101510004ef3b7009e009000615090000081fb00e8
:10152000715090000080fb004800dd000200700058
:10153000e00f5000090032009e00900061509000c2
:101540000081fb00715090000080fb004800dd002e
:1015500002007000010020000f0037001e01900003
:10156000c26190000382fb00d26190008381fb0086
:10157000c819dd008481710003007800e2619000e9
:101580008381fb00726190000281fb004811dd0045
:101590000301710082007800f20f200082016000d8
:1015a00082332100124178006041610003417100e3
:1015b0000001fd0038f3b7000001fd00c801de00a6
:1015c00092332100124178006041610003417100b3
:1015d0000200780039f3b700f20f2000828160002a
:1015e000a233210012417800604161000341710083
:1015f000020078003af3b700c808de003bd3bf0012
:1016000060406000014070003bf3b7009e00900016
:10161000115090000081fb00215090000080fb00e1
:101620004800dd00020070004501dd009e009000d2
:10163000314890008081fb00414890000080fb0011
:101640004800dd0003007000000041000001e900d7
:101650009e009000314890008081fb00414890003e
:101660000080fb004800dd0003007000800178006e
:10167000110009000381d8000100200040079800f4
:10168000510798009e009000614890000081fb0087
:10169000714890000080fb004800dd0002007000ef
:1016a0006103b8004ed3bf000081fb00030020009f
:1016b00084332100144278008482fb00943321009b
:1016c000144278000482fb004822dd00050272000b
:1016d00004007800a4332100144278008482fb00c7
:1016e000b4332100144278000482fb004822dd005c
:1016f0000502720084007800009ab90004027800a4
:10170000028cb90088027800050242000010b8007f
:1017100001024200840078000601400087814800f1
:101720004e009000de0090000200400083804800e0
:101730002e019000be0190000000510081805900f0
:1017400060079800710798001e00900050489000b4
:101750004ff3b7004fd3bf000080fb000100200013
:101760000001be006e009000fe0090003cfd0700ee
:10177000f20f200082016000423421001241780003
:1017800060416100034171000001fd0044f3b700b6
:101790000001fd00c801de00523421001241780032
:1017a00060416100034171000200780045f3b70019
:1017b000f20f200082816000623421001241780023
:1017c00060416100034171000200780046f3b700f8
:1017d000c808de0047d3bf006040600001407000d1
:1017e00047f3b70042342100124178008281fb00a8
:1017f00052342100124178000281fb004811dd00c3
:101800000301710002007800623421001241780067
:101810008281fb0072342100124178000281fb00ba
:101820004811dd0003017100820078006100400072
:10183000e0804800f20f2000820160008234210025
:101840001241780060416100034171000001fd0018
:1018500048f3b7000001fd00c801de00923421000a
:10186000124178006041610003417100020078007c
:1018700049f3b700f20f200082816000a2342100fa
:10188000124178006041610003417100020078005c
:101890004af3b700c808de004bd3bf0060406000c9
:1018a000014070004bf3b700c232210012417800b2
:1018b0008281fb00d2322100124178000281fb00bc
:1018c0004811dd000301710002007800e2322100be
:1018d000124178008281fb00f2322100124178002f
:1018e0000281fb004811dd000301710082007800d5
:1018f0009e019000634990000282fb0073499000b2
:101900000281fb004811dd0004017100030020008a
:101910000000410081804900f20f20008201600038
:10192000423321001241780060416100034171009f
:101930000001fd0034f3b7000001fd00c801de0026
:10194000523321001241780060416100034171006f
:101950000200780035f3b700f20f200082816000aa
:10196000623321001241780060416100034171003f
:101970000200780036f3b700c808de0037d3bf0096
:10198000604060000140700037f3b700423421002e
:10199000124178008281fb0052342100124178000c
:1019a0000281fb004811dd00030171000200780094
:1019b00062342100124178008281fb0072342100e0
:1019c000124178000281fb004811dd000301710023
:1019d0008200780042ff200003002000820f5000a8
:1019e000838f580002003e0060002000d0003700c6
:1019f00042342100124178008281fb0052342100e0
:101a0000124178000281fb004811dd0003017100e2
:101a10000200780062342100124178008281fb00cc
:101a200072342100124178000281fb004811dd0070
:101a3000030171008200780042ff2f0003002000a4
:101a4000820f5000838f580002003e00600020008b
:101a5000b70037001e019000c26990000382fb00ae
:101a6000d26990008381fb00c819dd008481710078
:101a700003007800e26990008381fb0072699000a6
:101a80000281fb004811dd00030171008200780033
:101a9000f20f200082016000023421001241780020
:101aa00060416100034171000001fd0040f3b70097
:101ab0000001fd00c801de0012342100124178004f
:101ac00060416100034171000200780041f3b700fa
:101ad000f20f200082816000223421001241780040
:101ae00060416100034171000200780042f3b700d9
:101af000c808de0043d3bf006040600001407000b2
:101b000043f3b70034d3bf008080fb0035d3bf0060
:101b10000080fb004800dd0001007000000278003a
:101b200036d3bf008080fb0037d3bf000080fb00ae
:101b30004800dd0001007000800278004ed3bf0035
:101b40000081fb000300200086332100164378004b
:101b50008683fb0096332100164378000683fb0042
:101b60004833dd000703730006007800a633210028
:101b7000164378008683fb00b633210016437800b5
:101b80000683fb004833dd000703730086007800fe
:101b9000009bb90006037800028cb9008803780026
:101ba000070343000010b8000103430086007800db
:101bb0000400400085804800f20f20008201600090
:101bc000c23321001241780060416100034171007d
:101bd0000001fd003cf3b7000001fd00c801de007c
:101be000d23321001241780060416100034171004d
:101bf000020078003df3b700f20f20008281600000
:101c0000e23321001241780060416100034171001c
:101c1000020078003ef3b700c808de003fd3bf00e3
:101c200060406000014070003ff3b7009e009000ec
:101c3000315090000081fb00415090000080fb007b
:101c40004800dd0002007000e00f500035003a004f
:101c50001e00900040709000e04f500031003a00ac
:101c60001e00900050709000e04f50002d003a0090
:101c70001e00900060709000e04f500029003a0074
:101c80001e00900070709000e04f500025003a0058
:101c90001e00900000789000e04f500021003a00b4
:101ca0001e00900010789000e04f50001d003a0098
:101cb0001e00900020789000e04f500019003a007c
:101cc0001e00900030789000e04f500015003a0060
:101cd0001e00900040789000e04f500011003a0044
:101ce0001e00900050789000e04f50000d003a0028
:101cf0001e00900060789000e04f500009003a000c
:101d00001e00900070789000e04f500005003a00ef
:101d10001e009000a0c0900090c2b30080cf500081
:101d20000200320040002000010037000000eb00fc
:101d30004f04be000080fa00000006000200fa0016
:101d4000000f78000000eb00001288001e007800f1
:101d500010128800101280007f00600010128800ae
:101d600042a2a80042c2a8004302a9000000eb0062
:101d70002012880041e2a8000080fa00000006005e
:101d80000400fa00204798002e4090000080fb00dd
:101d90004012880000000000001280006100600016
:101da000e00f5000fcff320040128000004f78002e
:101db0000080fa00000006000000fa00f00f20008a
:101dc00040128800000000000012800061006000e6
:101dd000e00f5000fcff320040128000004078000d
:101de0000080fa00000006000000fa00e09e80007b
:101df0000080fa00000006000000fa00e09e80006b
:101e0000e00f500002003a00009f80000100370000
:101e10000000eb000080fa00000006000000fa005d
:101e2000e09e8000e00f500003003a00109f800009
:101e3000219f8000010037006000b8000080fa0098
:101e4000000006000000fa000000eb00001288000d
:101e5000cde2a8000080fa00000006001a00fa0097
:101e6000881f7800200f9800310f9800420f9800cb
:101e70004e089000e00f500002003a000040eb00d6
:101e800051003700e09e8000e00f50000200320059
:101e90000040eb004c0037002e089000be08900078
:101ea000008fbe00ce089000310798000000eb00c4
:101eb00020079800f09e8000e00f500006003a00d6
:101ec0001e01be004918dd00c710de008100700051
:101ed0004910dd00008fbe006e0047001e01be00ed
:101ee00071002000f11207006e489000e04f500092
:101ef0002e003a0025160700a00fb0000180b000a8
:101f000040079800510798000100370000000000ca
:101f1000a9ff0700404f98004e489000e14f400055
:101f2000040032004e489000e24f400021003a0089
:101f300008003700151607000001be004e00900093
:101f4000de009000800f5100818f5900efff3600b6
:101f5000190037000000eb00200798000800370048
:101f6000be0090002e0090000084400092ff070009
:101f7000004c78002e0090000000e8002007980038
:101f8000ae009000f01f2000808f5000f4ff36005c
:101f900089ff070088ff0700cde2a80000c0eb0022
:101fa00077ff070010c0b3000700370000000000f3
:101fb0000100370000000000cde2a80000c0eb00e7
:101fc0006fff07000040eb004f0478000080fa002c
:101fd000000006001a00fa00100f9800210f980068
:101fe000320f9800035f98000e589000e04f5000a9
:101ff00007003a001e089000ae089000e00f500065
:10200000e08f580002003a000040eb005b00370010
:102010003e089000e00f500002003a0010c0b300ec
:1020200056003700e09e8000e00f500002003200b2
:102030000040eb00510037001e089000ae089000f1
:10204000008fbe00be089000310798000000eb0032
:1020500020079800f09e8000e00f500006003a0034
:102060001e01be004918dd00c710de0081007000af
:102070004910dd00008fbe006c0047001e01be004d
:1020800081002000891207004e489000e04f500068
:1020900033003a00e0cfb30039ff07000000eb0047
:1020a0002007980008003700be0090002e00900026
:1020b000008040001040780031ff07002e009000a3
:1020c0000000e80020079800ae009000f01f2000fc
:1020d000808f5000f4ff360000c0eb0028ff07009f
:1020e00000c0eb0026ff070033ff07000080fb0065
:1020f0007f006000e50f50001b003a0000c0eb00bd
:102100001fff0700a1150700401fb0000180b000ad
:1021100040079800510798000100370000000000b8
:1021200025ff0700e04f500005003200cde2a80077
:1021300000c0eb0012ff070010c0b3000f00370013
:10214000921507000001be004e009000de009000d6
:10215000800f5100818f5900f0ff360003003700d7
:10216000000000000100370000000000cde2a800e0
:1021700000c0eb0002ff07000040eb000080fa0007
:10218000000006002e00fa00b1110700e04f5000d9
:1021900004003a0010002000e09e8800e09e8000cd
:1021a000bc013700e09e8000e00f500002003a00c2
:1021b000e09e8000b7013700df11070020002000fb
:1021c000e09e88000000eb00f09e88006000b800f0
:1021d000109f8800219f8800cde2a800d09e80003b
:1021e000d6fe0700e0012000010020009415070042
:1021f0000000eb00000f78000300370000c0eb0088
:10220000dffe07001e0fe8001e007800e90f5000f7
:10221000faff36005d150700401fb0000180b000d6
:1022200020079800310798000100370000000000e7
:10223000cde2a80000c0eb00d1fe07006e00470011
:102240006011b8008000eb00181207007e009000bb
:1022500061006000e00f5000230032008002200087
:102260000e004000a21a20000300200021002000e0
:102270000e1207004e109000de10900070079800bc
:10228000010f9800ee109000110f98000e099000b9
:102290009e099000f0ff200001002000020278005b
:1022a00003017800800178000100780003026200d9
:1022b0000000610001002000c000dd0000002000df
:1022c0000001be006120b800000171008181710031
:1022d000a01a200001002000800f5100818f5900ba
:1022e0000b00320067003700281507000001be0010
:1022f0002e009000be009000800f5100818f590089
:10230000caff3100cde2a800e09e800061013700e5
:102310007e00900064006000e00f500059003a0019
:10232000800220000e0040006011b800b1002000c3
:10233000de1107004e109000de109000700798002c
:10234000010f9800ee109000110f98000f15070074
:102350000001be00007d20000100200002004000be
:10236000838048002007980031079800010037005b
:1023700000000000800220000e0040006011b80044
:10238000a1002000c9110700800220000e004000bb
:10239000020020000300240091002000c311070068
:1023a0004e109000de10900070079800010f98000a
:1023b000ee109000110f98006e489000e04f500012
:1023c00020003a00800220000e0040006011b8009a
:1023d000b1002000b51107004e109000de109000f3
:1023e00070079800010f9800ee109000110f9800f0
:1023f0000e0990009e0990000000200001002400ba
:102400000202780003017800800178000100780062
:10241000030262000000610001002000c000dd0036
:10242000000020000001be006120b8000001710022
:1024300081817100e00f5100e08f59000b003a00dc
:102440000d003700d11407000001be002e009000df
:10245000be009000800f5100818f5900c4ff3600ec
:10246000cde2a800e09e80000a01370010002000a5
:10247000f09e88002d0037000000eb00f09e8800e1
:102480002a0037000000eb00f09e8800cde2a80093
:102490002000200001002000e9140700cde2a9007f
:1024a000ba1407000001be00007d200001002000da
:1024b0000200400083804800200798003107980000
:1024c0000100370000000000800220000e004000e4
:1024d0006011b80011002000741107004e10900028
:1024e000de10900070079800010f9800ee10900029
:1024f000110f98006e489000e04f50000a00320023
:10250000a21407000001be002e009000be00900043
:10251000800f5100818f5900eaff3600cde2a800fc
:10252000e09e8000db00370000000000cde2a80044
:10253000c09e800001fe0700cde2a90040012000fe
:10254000000f78000100370000000000800220002a
:102550000e0040006011b800310020005311070048
:102560004e109000de10900070079800010f980048
:10257000ee109000110f98006e489000e04f500050
:1025800005003a000000eb00100798000000eb0087
:10259000000f7800180037001e0fe9001e007800b9
:1025a000e00f5000e8ff3a00cde2a800e09e800076
:1025b000b800370000fe0700740147009e0090003d
:1025c00081004100804878001e0090000000e80073
:1025d000100798001e007800e00f500005003a0038
:1025e0004e509000e24f400002003a000000eb0025
:1025f000100798001e0fe8001e007800f30f50002f
:10260000ecff36004e5090008080fb00000c200054
:1026100000806000e00f50002e0032003e58900015
:102620000081fb0003002000f003200001002000d7
:102630000202780003017800800178000100780030
:10264000030262000000610001002000c000dd0004
:10265000000020000001be006120b80000017100f0
:1026600081817100c011dd00020020004e589000f1
:102670000080fb004800dd00010020000001710027
:10268000818171005e5890000080fb0001002000f5
:102690000000710081807100400798005107980088
:1026a0004e009000de00900061014000e081480093
:1026b0004a18dd00c610de00810070004a10dd00ff
:1026c00061005000e0805800109f8800219f880022
:1026d000610037002e5890000080fb0001002000b0
:1026e000c001dd00020020003e5890000080fb0089
:1026f0004800dd00010020000001710081817100af
:102700004e5890000080fb00010020000000710086
:102710008180710040079800510798004e01900099
:10272000de01900000fc2f00310020000202780042
:102730000301780080017800010078000302620044
:102740000000610001002000c000dd00000020004a
:102750000001be006120b80000017100818171009c
:1027600042079800530798004e009000de0090004a
:102770004a09dd004600de0000007100c608de00e8
:1027800040079800510798005e5890006340600031
:1027900000404000804078006e5890000080fb00b0
:1027a0004700de000040780000c07000404f9800f5
:1027b0001e5890006f406000504f98005e48900097
:1027c0000080fb0069005000110020000008dd00bf
:1027d000504f98004e009000de00900061014000d4
:1027e000e08148004e4890000080fb000080e80037
:1027f000110020000008dd0001002000009ab9004f
:1028000004027800028bb9008602780005024200bb
:102810000010b80001024200840078005e49900078
:102820000281fb0003002000028ab9000402780044
:10283000009bb90086027800050242000200b80041
:10284000010242008400780061005000e0805800de
:10285000109f8800219f8800800220000e00400009
:102860006011b800c1002000901007008002200015
:102870000e00400002202000030020006100200024
:102880008a100700cde2a8000000eb00e09e88005f
:10289000e09e80000080fa00000006000200fa00be
:1028a000000f78001e007800200890000100200032
:1028b000c001dd00020020001e00780050089000da
:1028c0000100200000007100818071001e0178006d
:1028d00050119800611198001e0178006000b80046
:1028e00070119800011998001e0078008000eb001c
:1028f000211898001e0078008000eb001118980045
:102900000000eb000080fa00000006000200fa0060
:10291000000f78001e007800f0089000600890001a
:102920000001be001e007800ef1007000080fa00d2
:10293000000006000200fa00000f78001e00780078
:10294000304890000080fb00700060000080fa00ba
:10295000000006000200fa00000f78001e00780058
:10296000304890000080fb00610060000080fa00a9
:10297000000006000400fa00000f7800110798001c
:10298000820320009e0090001e007800cbf8070014
:102990000080fa00000006000200fa00000f780034
:1029a0009e007800415090000081fb005150900043
:1029b0000080fb004800dd000200700001002000e4
:1029c000c001dd00020020009e0078002158900028
:1029d0000082fb00315890000080fb004800dd00c1
:1029e000040070000100200000007100818071006f
:1029f0000080fa00000006000600fa00000f7800d0
:102a000012079800230798001e019000ae01900065
:102a100000002000f1ff200002027800030178008e
:102a2000800178000100780003026200000061006c
:102a300001002000c000dd00000020000001be00f9
:102a40006120b80000017100818171004018de0032
:102a500001002000000178001e007800f10f200026
:102a600081016100c0509000e0c0600083c0700030
:102a7000415098004811de00d0509000e0c0600046
:102a800082c07000515098001e0190001e00780016
:102a9000f10f200081016100a0589000e0c06000ab
:102aa00083c07000215898004811de00b058900093
:102ab000e0c0600082c07000315898000080fa00c9
:102ac000000006001400fa0070079800010f98003b
:102ad000120f980010a08000e00f500002003a0092
:102ae000800020009a0037007e009000e00f500028
:102af00002003a00f0002000950037001e08900008
:102b0000e00f500002003a00f00020009000370073
:102b10000000eb00000f78000e80e8000001eb00e1
:102b2000800078007e009000720c0700e00f5000db
:102b300002003a0000012000850037000035210026
:102b400056ff07000e80e800000278008001eb00cd
:102b50000001eb009e08900000352100bb03070038
:102b6000000f78001e007800fb0f50004400320078
:102b70001e007800e00f5000020032001e007800b6
:102b8000730037001e0890006aff0700e00f500036
:102b9000060032000001eb008000eb001e089000f0
:102ba0006a0a070040012000690037000e08900003
:102bb000010020003200200003002000820f50009e
:102bc000838f580028003e0000600100030037009a
:102bd0000e003700200037001a0037001e08900052
:102be00085000700000f78001e007800e00f5000fd
:102bf000250032000001eb008000eb001e08900071
:102c0000520a07001e007800510037001e0890008d
:102c10003eff0700000f78001e007800e00f500014
:102c2000060032000001eb008000eb001e0890005f
:102c3000460a07001e007800450037000000eb0040
:102c4000430037001e089000304890000004a000a8
:102c50009e089000b04898001e0890000fff0700e3
:102c60000000eb003a0037000001eb008000eb00b1
:102c70001e089000350a0700f000200034003700dd
:102c80000000000001003700000000000e08900066
:102c9000e20f500003003600e30f5000090032003d
:102ca0000e0037009e089000003521001503070034
:102cb000000f78001e007800e00f50000d003a0071
:102cc0000e0037000001eb008000eb001e089000b2
:102cd0001e0a0700500120001d0037000001eb0014
:102ce0008000eb001e089000180a0700f00020008a
:102cf000170037001e007800150037001e089000ee
:102d0000950a0700000f78001e007800e00f5000c1
:102d1000060032000001eb008000eb001e0890006e
:102d20000a0a07001e007800090037001e089000fc
:102d30008e80e800b2002000e0f707009e089000b7
:102d400000c2b300b04898001e08900002000700bf
:102d50000080fa00000006000400fa001007980046
:102d600010a08000e00f500002003a008000200018
:102d70001f0037001e009000e00f500002003a00d4
:102d8000f00020001a0037001e009000f1fe07003e
:102d9000e00f500015003a001e009000c011900096
:102da0001e0190001e009000b010900020109000b6
:102db0000402200089130700000f78001e0078002d
:102dc000e00f5000020032001e00780008003700bb
:102dd00043130700000f78001e007800e00f50003a
:102de000020032001e007800010037000000eb00f6
:102df0000080fa00000006000800fa003007980082
:102e000010a08000e00f500002003a008000200077
:102e10003b0037003e009000e00f500002003a00f7
:102e2000f0002000360037003e009000c1fe070091
:102e3000e00f500002003200600120003000370037
:102e40003e009000c3fe0700e00f50000200320079
:102e5000300120002a0037000000eb00000f78004e
:102e60003e009000ccfe0700100798002107980054
:102e70001e009000ae009000090e0700000f7800c1
:102e80001e007800e00f5000020032001e007800a3
:102e90001b003700b40c07001007980021079800aa
:102ea0001e019000ae0190000080eb008080eb00de
:102eb000800f5100818f590002003a0090002000dd
:102ec0000f003700be00900050ceb300804878005d
:102ed0003e009000a0ff0700000f78001e00780061
:102ee000e00f5000020032001e007800040037009e
:102ef0000001eb008000eb003e009000930907000a
:102f00000080fa00000006008600fa001087980092
:102f10002187980010a08000e00f500002003a00c6
:102f2000800020004a0037001e809000e00f500013
:102f300002003a00f0002000450037002e8090008b
:102f4000e00f500002003a00f0002000400037007f
:102f50001e809000304890000080fb0061006000ff
:102f600000407800e04f50000200320030012000a5
:102f7000370037000000eb00000f78006000b80059
:102f80001007980021079800660047000001eb0039
:102f9000800078002e809000560b0700e00f500054
:102fa00002003a0000012000290037001e80900036
:102fb00079fe07001007980021079800720047006b
:102fc000020120008000eb0060090700720047004a
:102fd0001e019000ae01900087fe07001e009000c9
:102fe000ae009000601f9800711f980066014700b6
:102ff000a10420008e804000720047000202780089
:103000008001eb000001eb0090020700000f780048
:103010001e007800e00f500002003a00400120003e
:103020000b0037001e007800fb0f5000020032003a
:103030001e007800060037001e809000e600470062
:10304000b20020001df707001e80900042ff07001d
:103050000080fa00000006000a00fa00000f780065
:10306000110798002207980033079800440798003a
:1030700010a08000e00f500002003a008000200005
:10308000350037001e007800e00f500002003a00c3
:10309000f0002000300037003e009000e00f5000ac
:1030a00002003a00f00020002b0037004e00900094
:1030b000e00f500002003a00f00020002600370028
:1030c0000001eb008000eb004e0090001f0907009c
:1030d0003e00900012002000800078001e00780062
:1030e000040b0700e00f500002003a00000120002e
:1030f000190037003e0090009e009000610098008b
:103100003e009000ae009000710098003e009000dc
:10311000700040000135210016fe07003e009000bf
:1031200070004000ddfd0700be0190003e009000f1
:10313000700190003e009000e00090003e00900082
:1031400070004000030278008201780001017800dd
:10315000ce0090003d0207000080fa00000006004b
:103160000400fa00000f78001107980010a08000fa
:10317000e00f500002003a00800020001a003700e3
:103180001e007800e00f500002003a00f00020001e
:10319000150037001e009000e00f500002003a00ba
:1031a000f0002000100037000001eb008000eb0071
:1031b0001e009000e50807009e0178001e007800c0
:1031c000700190001e007800e00090001e02780060
:1031d000700042000302780082017800010178004b
:1031e0009e009000190207000080fa00000006000f
:1031f0000a00fa002007980031079800420798005b
:1032000010a08000e00f500002003a008000200073
:10321000470037002e009000e00f500002003a00f7
:10322000f0002000420037004e009000e00f5000f8
:1032300002003a00f00020003d0037003e00900000
:10324000ec0f500002003e00100120003800370053
:103250004e00900010407800e04f500002003a000d
:1032600020012000320037004e009000904078008e
:1032700000c2b30080cf500002003a0020012000bd
:103280002b0037003e0190008000eb002e009000e4
:1032900092f607000000eb00000f78000000eb0042
:1032a000100798000000eb00100798001c00370082
:1032b000ce0090001e0090000080400090407800fa
:1032c00000c2b30080cf5000110032001e009000f9
:1032d000e80f500005003a002e0090009e004000cc
:1032e000e0c2b300804878001e0fe8002e00900076
:1032f0009e0040004e0190001e0090000000410022
:1033000010407800804878001e0fe8000100370068
:10331000000000001e0090000000e8001007980068
:103320001e009000ea0f5000e1ff36000000eb00a5
:103330000080fa00000006000200fa00000f78008a
:103340001e0078002008900001002000c001dd0070
:10335000020020001e0078005008900001002000ac
:1033600000007100818071001e01780050119800ea
:10337000611198001e0178006000b800701198007b
:10338000011998001e0078008000eb0021189800b9
:103390001e0078008000eb00111898000000eb0080
:1033a0000080fa00000006000400fa00008fbe0052
:1033b000e0ff2f00f1ff2f003e014000ae814800ea
:1033c0004fd3bf000080fb0001002000009ab9002d
:1033d00004027800028bb9008602780005024200e0
:1033e0000010b8000102420084007800c4332100bc
:1033f000144278008482fb00d43321001442780008
:103400000482fb004822dd000502720004017800fe
:10341000e4332100144278008482fb00f43321005d
:10342000144278000482fb004822dd00050272008d
:103430008401780000004100818049000080fa008a
:10344000000006000200fa00000f78009e007800dd
:10345000415090000081fb00515090000080fb0023
:103460004800dd000200700001002000c001dd0006
:10347000020020009e007800215890000082fb008e
:10348000315890000080fb004800dd00040070000f
:103490000100200000007100818071000080fa00ae
:1034a000000006000600fa00000f780012079800de
:1034b000230798001e019000ae019000000020003c
:1034c000f1ff2000020278000301780080017800fb
:1034d000010078000302620000006100010020008a
:1034e000c000dd00000020000001be006120b80027
:1034f00000017100818171004018de000100200090
:10350000000178001e007800f10f200081016100a9
:10351000c0509000e0c0600083c07000415098002f
:103520004811de00d0509000e0c0600082c0700002
:10353000515098001e0190001e007800f10f2000ed
:1035400081016100a0589000e0c0600083c070005d
:10355000215898004811de00b0589000e0c060008b
:1035600082c07000315898000080fa000000060008
:103570000200fa00000f78001e007800e00f5000f3
:1035800002003a00f0002000400037000201200055
:103590008000eb001e007800ec0707009e0078001a
:1035a000c0c5b30080487800023421001241780081
:1035b0008281fb0012342100124178000281fb005d
:1035c0004811dd000301710002007800223421005f
:1035d000124178008281fb003234210012417800d0
:1035e0000281fb004811dd000301710082007800b8
:1035f0001e0278000001be0004007800a9ff070049
:103600001e0178000080eb008080eb000011980024
:10361000111198001e0178000080eb008080eb0003
:1036200020119800311198001e0078008000eb00f6
:103630004110980002342100124178008281fb0081
:1036400012342100124178000281fb004811dd0094
:103650000301710002007800223421001241780039
:103660008281fb0032342100124178000281fb008c
:103670004811dd0003017100820078001e0178000e
:1036800050119800611198000000eb000080fa00d2
:10369000000006000600fa00000f780011079800ed
:1036a000220798001e007800e00f500002003a0048
:1036b000f00020005e0037001e009000e00f500078
:1036c00005003a001e007800b20020000102200030
:1036d00082f50700090037001e0078000001eb00aa
:1036e000800078001e00900082090700e00f500063
:1036f00002003a00000120004d0037002e0090002b
:10370000004078009e007800b04898001e007800c5
:10371000c0509000e0c0600041509800d050900030
:10372000e0c06000515098001e007800a058900042
:10373000e0c0600021589800b0589000e0c06000e0
:10374000315898001e007800e0509000e0c0600002
:1037500061509800f0509000e0c0600071509800f7
:103760001e0078008058900060c1600011c2b30054
:1037700081407100015898009058900060c160002d
:1037800021c4b30081407100115898001e007800d8
:10379000c0589000e0c0600041589800d058900098
:1037a000e0c0600051589800e0589000e0c0600010
:1037b00061589800f0589000e0c06000715898007f
:1037c0009e0078000040eb00c04898009e00780002
:1037d0000040eb00d04898001e007800e0489000c0
:1037e000e0c0600061489800f0489000e0c06000d0
:1037f000714898001e00780080509000e0c0600082
:103800000150980090509000e0c060001150980066
:103810001e007800a0509000e0c060002150980089
:10382000b0509000e0c06000315098000000eb0004
:103830000080fa00000006000800fa002007980047
:10384000310798002e009000e00f500002003a006f
:10385000f0002000290037003e009000e00f5000eb
:1038600002003a00f0002000240037002e009000f3
:10387000304890000080fb0070006000e00f5000b6
:1038800005003a00800120001c0037000000000005
:1038900001003700000000000e80e8008001780081
:1038a00002022000be0090002e0090000f030700cf
:1038b000000f78001e007800e00f50000200320078
:1038c0001e0078000d0037003e0090003048900048
:1038d0000080fb0068006000e00f5000ebff3a0042
:1038e0003e009000304890000080fb006f006000b8
:1038f000ef0f5000e7ff32000000eb000080fa00fd
:10390000000006000800fa00200798003107980020
:103910002e009000e00f500002003a00f00020005e
:10392000480037000000eb00000f78002e009000e8
:1039300081fe070001003700000000003e009000fb
:10394000800078002e009000bbff0700000f780079
:103950001e007800fb0f50000a003a002e00900075
:103960007d070700000f78001e007800e00f500070
:10397000020032001e007800320037000000000014
:10398000eeff37001e007800e00f5000020032000a
:103990001e0078002b0037003e0090001040780099
:1039a000204798002e409000fb4f4000040032005a
:1039b0002e409000e04f5000dfff3a00010037003a
:1039c000000000000001eb008000eb003e009000d2
:1039d000de0607002e0090009afe07003e019000d0
:1039e00000119800111198002e009000e010900036
:1039f000501090006cfe07000001be002e009000e9
:103a00001018900001002000020040008380480050
:103a10003e01900020119800311198002e00900076
:103a20002018900001fe2f00808040003e00900092
:103a300041109800be00900050ceb300804878003e
:103a40000000eb000080fa00000006000e00fa0003
:103a50002007980031079800420798005307980004
:103a6000640798003e009000e00f50002a003a00e2
:103a7000f0002000660037003e0090001040780003
:103a8000204798002e409000e04f500002003a007e
:103a9000b00120005e0037002e409000fb4f400038
:103aa0001f003200ae409000e0c2b30080cf500053
:103ab0001d0032003e009000304890008080fb00e6
:103ac0004e009000808060004e009000808f50007b
:103ad00017003a003e009000304890008080fb00c4
:103ae0005e00900000806000e00f500012003a007d
:103af0006e009000e00f50001a0032003e0090006f
:103b0000800078006e009000d4080700e00f50009d
:103b100016003a00090037000000000007003700d7
:103b2000000000000500370000000000030037001f
:103b30000000000001003700000000003e0090007f
:103b4000800078002e0090003bff0700000f7800f7
:103b50001e007800e00f5000c7ff32001e00780002
:103b60002b003700000000000100370000000000bb
:103b70002e00900033fe07003e01900000119800d7
:103b8000111198002e009000e0109000501090004d
:103b900005fe07000001be002e00900010189000e6
:103ba0000100200002004000838048003e01900098
:103bb00020119800311198002e00900020189000dc
:103bc00001fe2f00808040003e00900041109800d0
:103bd0003e0090001bfe07003e019000501198002f
:103be000611198003e0190006000b80070119800cb
:103bf000011998003e0090008000eb001118980019
:103c00003e0090008000eb00211898000000eb00bf
:103c10000080fa00000006000200fa00000f7800a1
:103c20001e0078002008900001002000c001dd0087
:103c3000020020001e0078005008900001002000c3
:103c400000007100818071001e0178005011980001
:103c5000611198001e0178006000b8007011980092
:103c6000011998001e0078008000eb0021189800d0
:103c70001e0078008000eb00111898000000eb0097
:103c80000080fa00000006000200fa00000f780031
:103c90001e007800304890000080fb00700060003b
:103ca0000080fa00000006000400fa00000f78000f
:103cb00011079800820320009e0090001e007800eb
:103cc000fef307000080fa00000006000200fa0080
:103cd000000f78009e007800415090000081fb00aa
:103ce000515090000080fb004800dd000200700091
:103cf00001002000c001dd00020020009e007800cd
:103d0000215890000082fb00315890000080fb0099
:103d10004800dd0004007000010020000000710078
:103d2000818071000080fa00000006000600fa00a1
:103d3000000f780012079800230798001e019000da
:103d4000ae01900000002000f1ff20000202780088
:103d5000030178008001780001007800030262000e
:103d60000000610001002000c000dd000000200014
:103d70000001be006120b800000171008181710066
:103d80004018de0001002000000178001e007800cd
:103d9000f10f200081016100c0509000e0c0600080
:103da00083c07000415098004811de00d050900050
:103db000e0c0600082c07000515098001e01900069
:103dc0001e007800f10f200081016100a0589000d2
:103dd000e0c0600083c07000215898004811de00e8
:103de000b0589000e0c0600082c070003158980068
:103df0000080fa00000006000200fa00000f7800c0
:103e000010a08000e00f500002003a008000200067
:103e10000a0037001e007800e00f500002003a0050
:103e2000f000200005003700013521001e00780059
:103e30009dff07001e00780077ff07000080fa0052
:103e4000000006003800fa00101f9800211f98009b
:103e5000321f980010a08000e00f500002003a00ce
:103e600080002000840037001e189000e00f5000f2
:103e700002003a00000120007f0037003e18900049
:103e8000e00f500002003a00f00020007a003700f6
:103e9000660047000001eb00800078001e189000cb
:103ea00094070700e00f500002003a0000012000d4
:103eb000710037000035210057ff070066004700fa
:103ec000000278008001eb000001eb00be189000ba
:103ed00000352100ddfe0700200798002e0090002d
:103ee000e00f50000c003a003e18900066ff0700fb
:103ef000e00f5000020032000000eb005e003700cf
:103f00000001eb008000eb003e1890008f050700d9
:103f100040012000580037002e009000fb0f500099
:103f2000020032002e00900053003700be189000af
:103f30000035210073fe0700200798002e00900036
:103f4000e00f5000020032002e0090004a003700bf
:103f50003e189000e6004700b200200057f307002b
:103f6000be18900000c3b300b04898003e189000ff
:103f7000f9050700200798002e009000e00f500080
:103f8000060032000001eb008000eb003e189000bc
:103f90006e0507002e0090003700370071004700c3
:103fa000020120008000eb00bafd0700e0c2b30070
:103fb000105798003e18900044ff0700008fbe0085
:103fc000710047001e01be0058ff07007100470046
:103fd00002022000800078003e189000f0010700e7
:103fe000e0c2b300205798000035210037ff0700da
:103ff000008fbe0002342100124178008281fb0054
:1040000012342100124178000281fb004811dd00ca
:10401000030171000200780022342100124178006f
:104020008281fb0032342100124178000281fb00c2
:104030004811dd000301710082007800be0f5000be
:10404000ae8f580002003a006000b800008fbe003a
:10405000710047001e01be0034ff070071004700d9
:1040600002022000800078003e189000cc0107007a
:104070003e18900038fb07000080fa0000000600a0
:104080000200fa00000f780010a08000e00f50003e
:1040900002003a00800020000f0037001e00780068
:1040a000e00f500002003a00f00020000a00370044
:1040b0001e007800f4fe0700e00f500002003a00f6
:1040c00080012000040037009e00780000352100a8
:1040d000f5fe07000000eb000080fa00000006007b
:1040e0007800fa0010a08000e00f500002003a00b3
:1040f00080002000c400370000352100f3fe0700d7
:104100000001be0004342100144278008482fb00c8
:1041100014342100144278000482fb004822dd00a0
:104120000502720004007800243421001442780053
:104130008482fb0034342100144278000482fb00a6
:104140004822dd000502720084007800800f5100d3
:10415000818f590002003a0090012000aa00370028
:10416000660047000001eb008000eb00f704070049
:10417000e00320000e0040000001eb008000eb0097
:10418000f204070000352100a3fe070061072000ac
:104190008e80400066004700810178000202200006
:1041a0008000780000352100d0000700000f780063
:1041b0001e007800e00f5000020032001e00780060
:1041c00091003700ee409000e0c2b30080cf500075
:1041d00002003200500020008b00370061072000f1
:1041e0008e804000660047008101780002022000b6
:1041f0008000780000352100bc000700000f780027
:104200001e007800e00f5000020032001e0078000f
:104210007d003700ee409000e0c2b30080cf500038
:1042200004003a00fe409000e0c2b30080cf50008e
:104230000200320050002000730037006600470083
:10424000a2fe070010079800210798001e009000aa
:10425000ae009000e00f5000e08f580003003a00dd
:1042600000352100c2fc0700670037001e009000e7
:10427000ae009000001f9800111f980062072000f8
:104280000e014100e10320008e80400066004700df
:10429000820178000202200094000700000f7800dd
:1042a0001e007800e00f5000020032001e0078006f
:1042b00055003700ee789000e0c2b30080cf500088
:1042c00002003200500020004f003700620720003b
:1042d0000e014100e10320008e804000660047008f
:1042e000820178000202200080000700000f7800a1
:1042f0001e007800e00f5000020032001e0078001f
:1043000041003700ee789000e0c2b30080cf50004b
:1043100004003a00fe789000e0c2b30080cf500065
:10432000020032005000200037003700e003200078
:104330000e00400065fe0700e00f5000e08f5800bf
:1043400004003a00e00320000e00400088fc070053
:1043500005003700e00320000e0040005bfe070070
:104360004037980051379800e6004700e0032000ee
:104370000e0040000002eb008001eb000201200073
:10438000b2fd0700000f78001600370066004700f6
:104390004efe07000001be001e009000ae0090001f
:1043a000800f5100818f590006003a0066004700d7
:1043b00080007800003521003bfe07000000eb0084
:1043c00011003700e6004700e00320000e00400027
:1043d0000002eb008001eb00020120009bfd0700c2
:1043e000000f78001e007800e00f5000e7ff320059
:1043f0001e007800fb0f500002003a005000200021
:10440000010037001e0078000080fa00000006005e
:104410000000fa0010a08000e00f500002003a00f7
:1044200080002000020037000035210050fc07000a
:104430000080fa00000006000400fa00000f780077
:10444000110798000000eb000080fa000000060051
:104450000400fa00008fbe00e0ff2f00f1ff2f00e4
:104460003e014000ae8148004fd3bf000080fb00fa
:1044700001002000009ab90004027800028bb90004
:1044800086027800050242000010b80001024200d6
:1044900084007800c4332100144278008482fb0039
:1044a000d4332100144278000482fb004822dd004e
:1044b0000502720004017800e43321001442780000
:1044c0008482fb00f4332100144278000482fb0054
:1044d0004822dd00050272008401780000004100de
:1044e000818049000080fa00000006001200fa00f6
:1044f000500798006107980072079800030f980012
:1045000010a08000e00f500002003a008000200060
:10451000a10037005e009000e00f500002003a005a
:10452000f00020009c0037006e009000e00f50006b
:1045300002003a00f0002000970037007e00900053
:10454000e00f500002003a00f00020009200370017
:104550006e009000000f78000e0890008000eb00c5
:1045600001087800880037005e009000a0189000d5
:104570004cd3bf000081fb004dd3bf000080fb0087
:104580004800dd0002007000808f500017003a00e4
:104590005e009000901890004fd3bf000080fb0099
:1045a0000000e900808f500008003a005e00900093
:1045b0002e040700200798002e009000e00f500006
:1045c0000a0032002e009000730037005e00900059
:1045d000101890008000e8005e009000111898000c
:1045e0005e0090008000eb00211898005e009000b3
:1045f000e01090005010900095ff07000001be00f1
:104600005e009000101890000100200002004000a1
:104610008380480030079800410798004cd3bf00c2
:104620008080fb004dd3bf000080fb004800dd0010
:1046300001007000800078005e009000201890005b
:1046400000805000fe009000810f500001003600f5
:1046500001007800100798005e009000304890003c
:104660000080fb0070006000e00f500017003a006f
:104670005e00900070119000801990001e00900064
:104680000100200002014000838148005e0090008c
:10469000f008900060089000800f5100818f590051
:1046a0000a0036005e009000f0089000600890005c
:1046b000000178005e00900080189000701090005b
:1046c0000000780000005100100798001e009000c4
:1046d000e00f500002003a00b00120002e00370029
:1046e0005e009000201890001e0278009e0190004d
:1046f000000178003e009000ce009000110d0700f0
:10470000200798002e009000e00f500002003200b9
:104710002e00900020003700fe0090001e00900048
:1047200000805000700798001e0090001e0f40008f
:104730000e089000900078001e00900080804000dd
:104740000e089000010878005e009000a01890000c
:104750001e009000808040005e00900021189800ac
:104760005e00900070119000801990001e00900073
:104770000100200002004000838048005e0190009c
:1047800070119800011998007e009000e00f500011
:1047900075ff3a000000eb000080fa000000060000
:1047a0001000fa00500798006107980072079800ff
:1047b00010a08000e00f500002003a0080002000ae
:1047c000940037005e009000e00f500002003a00b5
:1047d000f00020008f0037005e009000304890000d
:1047e0000080fb006100600000407800e04f500056
:1047f0000200320030012000860037006e00900079
:10480000e00f500002003a00f00020008100370065
:104810007e009000e00f500002003a00f0002000ff
:104820007c0037006e009000000f780075003700a4
:104830005e009000a01890004cd3bf000081fb00e8
:104840004dd3bf000080fb004800dd000200700077
:10485000808f50001d003a005e009000901890007c
:104860004fd3bf000080fb000000e900808f5000a4
:104870000e003a005e0090007c03070010079800cd
:104880001e009000fb0f500003003a005e009000f5
:10489000b1030700100798001e009000e00f5000c1
:1048a0000a0032001e0090005a0037005e0090009f
:1048b000101890008000e8005e0090001118980029
:1048c0005e0090008000eb00211898005e009000d0
:1048d000e010900050109000ddfe07000001be00c7
:1048e0005e009000101890000100200002004000bf
:1048f0008380480020079800310798004cd3bf0000
:104900008080fb004dd3bf000080fb004800dd002d
:1049100001007000800078005e0090002018900078
:1049200000805000fe009000810f50000100360012
:1049300001007800400798005e0090002018900069
:104940004e029000800178001e0178002e00900039
:10495000be009000a10c0700100798001e009000f8
:10496000e00f5000020032001e00900029003700c6
:10497000fe0090004e0090000080500070079800ec
:104980004e0090001e0f40005e009000a0189000a6
:104990004e009000808040005e009000211898003a
:1049a0005e00900070119000801990004e00900001
:1049b0000100200002004000838048005e0190005a
:1049c00070119800011998005e0090006009900035
:1049d000f00990005e009000801890007010900028
:1049e000800f5100818f5900060031005e00900059
:1049f00080189000701090005e019000600998008f
:104a0000710998007e009000e00f500088ff3a0086
:104a10000000eb000080fa00000006000e00fa0023
:104a2000500798006107980010a08000e00f500028
:104a300002003a0080002000720037005e00900003
:104a4000e00f500002003a00f00020006d00370037
:104a50005e009000304890000080fb006100600024
:104a600000407800e04f500002003200300120008a
:104a7000640037006e009000e00f500002003a0022
:104a8000f00020005f0037006e00900010079800d3
:104a90005e00900020189000e00f50001d003200d2
:104aa0005e009000901890004fd3bf000080fb0084
:104ab0000000e900808f50000e003a005e00900078
:104ac000ea020700000f78001e007800fb0f50007c
:104ad00003003a005e0090001f030700000f7800fb
:104ae0001e007800e00f50000a0032001e0078001f
:104af000440037005e009000101890008000e8002d
:104b00005e009000111898005e0090008000eb009d
:104b1000211898005e009000e01090005010900066
:104b20004bfe07000001be005e00900010189000d0
:104b30000100200002004000838048002007980008
:104b4000310798004cd3bf008080fb004dd3bf00dd
:104b50000080fb004800dd00010070004007980065
:104b60008041eb001e0190002e009000be009000de
:104b700018f50700e04f500002003a00a0002000a6
:104b8000200037005e009000a01890004e009000ba
:104b9000808040005e009000211898005e00900028
:104ba00070119000801990004e00900001002000cc
:104bb00002004000838048005e0190007011980060
:104bc000011998005e00900060099000f0099000c3
:104bd0005e0090008018900070109000800f5100cf
:104be000818f5900060031005e009000801890000f
:104bf000701090005e0190006009980071099800a3
:0c4c00000000eb000080fa00000006003d
:020000040000fa
:104c0c00f413000008000000020000000000010086
:104c1c00000000000000000068110000000100000e
:104c2c000000000068120000c40000000200000038
:104c3c000200010003040000030101000104000054
:104c4c000301030001030000030101000001000047
:104c5c000100040000010100030103000003030034
:104c6c00010004000001010001010200000101002b
:104c7c000400010003030300030003000103000010
:104c8c000400010003010100020003000302000004
:104c9c0003010300000303000300040000010300f0
:104cac0003010400000303000103030000010300df
:104cbc0001000300000101000100010000030000dd
:104ccc0003000100010300000400010001010300c6
:104cdc0003000100030300000400030001010300b2
:104cec00040003000103030004000300030101009e
:104cfc0068126c001272120078127e00128212007e
:104d0c0088128e001294120098129e0012a41200a7
:104d1c00aa12ae0012b21200b812be0012c41200d7
:104d2c00ca12d00012d41200da12e00012e61200fd
:104d3c00ec12f20012000000e61300000e0000005e
:104d4c000200000000000200000000000000ff0054
:104d5c00ffffff0000000000d61300001000000051
:104d6c000200000000000000000000000100000034
:104d7c00000002000000000000000000580d0000c0
:104d8c00080200000200000000000000000000000b
:104d9c000000000000000000000000000000000007
:104dac0000000000000000000000000000000000f7
:104dbc0000000000000000000000000000000000e7
:104dcc0000000000000000000000000000000000d7
:10503c000000ff00ffffff00000000000000000068
:10504c00600f0000080200000200000000000000d9
:10505c000000000000000000000000000000000044
:10506c000000000000000000000000000000000034
:10507c000000000000000000000000000000000024
:10508c000000000000000000000000000000000014
:10530c000000000002140000020000000200000077
:10531c00000000002c1300005c00000000000000e6
:10532c00fc1300000600000002000000000000005a
:10533c0000000000881300004e0000000200000076
:10534c00040000000000000000000000000000004d
:10535c000000000000000000000000000000000041
:10536c000000000000000000000001000000000030
:10537c000000020000000000030003000004000015
:10538c0003000300000400000500050000060000f7
:10539c0003000300000400000000010000000000f6
:1053ac00000000000000000050080000080500008c
:0853bc000000000000000000e9
:020000040000fa
:1053c4000200fa00000f78001e00780030489000b8
:1053d4000080fb00700060000080fa0000000600fe
:1053e4000400fa00008fbe00e0ff2f00f1ff2f0041
:1053f4003e014000ae8148004fd3bf000080fb0057
:1054040001002000009ab90004027800028bb90060
:1054140086027800050242000010b8000102420032
:1054240084007800c4332100144278008482fb0095
:10543400d4332100144278000482fb004822dd00aa
:105444000502720004017800e4332100144278005c
:105454008482fb00f4332100144278000482fb00b0
:105464004822dd000502720084017800000041003a
:10547400818049000080fa00000006000600fa005e
:10548400000f780012079800230798001e0190006f
:10549400ae01900000002000f1ff2000020278001d
:1054a40003017800800178000100780003026200a3
:1054b4000000610001002000c000dd0000002000a9
:1054c4000001be006120b8000001710081817100fb
:1054d4004018de0001002000000178001e00780062
:1054e400f10f200081016100c0509000e0c0600015
:1054f40083c07000415098004811de00d0509000e5
:10550400e0c0600082c07000515098001e019000fd
:105514001e007800f10f200081016100a058900066
:10552400e0c0600083c07000215898004811de007c
:10553400b0589000e0c0600082c0700031589800fc
:105544000080fa00000006000600fa00000f780050
:1055540011079800220798001e007800e00f500001
:1055640002003a00f0002000220037001e007800fc
:105574002e0190009e00900045f80700e00f5000b7
:1055840002003200000120001a0037001e017800da
:105594006000b80000119800111198001e017800f5
:1055a4006000b80020119800311198001e007800a6
:1055b4008000eb00411098001e0178006000b800e4
:1055c40050119800611198001e0178006000b80025
:1055d40070119800011998001e0078008000eb00fb
:1055e400111898001e0078008000eb002118980024
:1055f4000000eb000080fa00000006000c00fa0036
:1056040040079800510798004e009000de0090007b
:1056140073ff070010079800210798000040eb0073
:10562400004f78000a0037001e009000ae00900082
:1056340090090700300798003e009000e00f5000ea
:10564400020032003e009000050037001e4fe800c3
:105654004fd3bf009e4f5000f3ff3e001f090700c9
:105664000080fa00000006000600fa0020079800f7
:105674002e009000e010900050109000f6020700f9
:10568400008fbe001e01be000080eb008080eb0096
:10569400800f5100818f590002003a00b0002000b1
:1056a4002a00370070ff2f00f1ff20001e01be000a
:1056b400800f5100818f590002003600b001200094
:1056c4002200370082342100124178008281fb00dd
:1056d40092342100124178000281fb004811dd0060
:1056e4000301710002007800a23421001241780005
:1056f4008281fb00b2342100124178000281fb0058
:105704004811dd000301710082007800be0f5000d3
:10571400ae8f580002003100c00020000b0037009b
:105724002e0090001e01be005210980063109800d5
:105734002e0090008000eb00111898002e009000bd
:105744008000eb00211898000000eb000080fa00b4
:10575400000006000e00fa00600798006e0090003a
:1057640050119000e0119000100020000100200072
:10577400800f5100818f5900190036006e0090008f
:10578400e010900050109000b3020700200798002a
:10579400310798002e019000be0190000080eb00bc
:1057a4008080eb00800f5100818f590002003a0085
:1057b40090002000b80037002e019000be01900038
:1057c40070ff2f00f1ff2000800f5100818f5900de
:1057d40003003e006e009000a3ff0700ae003700f8
:1057e4006e009000e010900050109000e00f500008
:1057f400e08f5800060032006e009000e010900028
:105804005010900061004000e08048000200370022
:105814002000200001002000400798005107980054
:105824004e009000de009000008fbe00160037008e
:105834001e00be0088020700200798003107980068
:105844002e019000be0190000080eb008080eb00f0
:10585400800f5100818f590002003a00b0002000ef
:105864008d0037002e009000be009000e00f500025
:10587400e08f580041003200120020000300200095
:105884001e0f41005e9749008234210012417800c6
:105894008281fb0092342100124178000281fb00d6
:1058a4004811dd000301710002007800a2342100d8
:1058b400124178008281fb00b23421001241780049
:1058c4000281fb004811dd000301710082007800b1
:1058d400be0f5000ae8f5800d5ff31004e0090002f
:1058e400de00900062005000e080580040079800fd
:1058f400510798002000200001002000008fbe0006
:10590400160037001e00be0053020700200798004f
:10591400310798002e019000be0190000080eb003a
:105924008080eb00800f5100818f590002003a0003
:10593400b0002000580037002e009000be009000f8
:10594400e00f5000e08f58000e00320010002000dd
:10595400010020001e0f40005e9748004e0090009a
:10596400de0090001e01be00800f5100818f59009f
:10597400e4ff3600e000200047003700000000008c
:10598400010037000000000082ff2f00f3ff200019
:105994001e00be00b80207002007980031079800d7
:1059a4002e019000be0190000080eb008080eb008f
:1059b400800f5100818f590002003a0090002000ae
:1059c40035003700e70107000001be000080eb004e
:1059d4008080eb00800f5100818f590002003a0053
:1059e400900020002c0037006e009000e010900022
:1059f40050109000e00f5000e08f580004003a006f
:105a04006e0090001e01be009cfe070010003700cf
:105a14006e009000e0109000501090001e01be0037
:105a24009502070020079800310798002e01900086
:105a3400be0190000080eb008080eb00800f5100dd
:105a4400818f590002003a009000200012003700b4
:105a54006e0090001e01be00521098006310980062
:105a64006e0090008000eb00111898006e0090000a
:105a74008000eb00211898006e00900050fe070093
:105a8400e00f5000030032001e00be00dbfe0700e2
:105a9400010037000000eb000080fa00000006005f
:105aa4000c00fa0040079800510798000000eb0032
:105ab400200798004e00900078ec0700200798001b
:105ac4002e009000e00f5000030032002e009000e2
:105ad400ec0f5000020036000000eb00820037009b
:105ae4000000eb00000f78000000eb0010079800a6
:105af400780037001e009000ce0090000080400027
:105b04001040780060479800ee40900000c2b30057
:105b140080cf500050003600ee40900020c2b30009
:105b240080cf50004c003200ee409000a0c2b30081
:105b340080cf500003003a005e009000e00f500058
:105b440045003200ee409000b0c2b30080cf500058
:105b540003003a005e009000e00f50003e00320067
:105b6400ee409000c0c2b30080cf50003a00320033
:105b7400ee409000e0c2b30080cf500003003a0032
:105b84001e007800e10f500033003200ee40900018
:105b9400f0c2b30080cf50002f003200ee409000de
:105ba400a0c3b30080cf50002b003200ee40900021
:105bb400b0c3b30080cf500027003200ee40900005
:105bc400c0c3b30080cf500023003200ee409000e9
:105bd400d0c3b30080cf50001f003200ee409000cd
:105be400e0c3b30080cf50001b003200ee409000b1
:105bf400f0c3b30080cf500003003a005e00900071
:105c0400e00f500014003200ee409000b0c5b30025
:105c140080cf500010003200ee409000c0c5b300a9
:105c240080cf50000c003200ee409000d0c5b3008d
:105c340080cf500008003200ee409000c0c7b3008f
:105c440080cf500004003200ee409000e0c7b30063
:105c540080cf5000020036000000eb002200370025
:105c6400ee409000e0c2b30080cf50000e003a0036
:105c74001e009000e00f500002003a000000eb000c
:105c84001900370010002000000f78001e0090005b
:105c9400ae00900000805000e40f50000200360077
:105ca4000000eb00100037001e007800e00f5000e9
:105cb40005003a001e009000e70f50000200340077
:105cc4000000eb00080037001e0090000000e80010
:105cd400100798009e0090002e009000808f5000c6
:105ce40084ff3900100020000080fa000000060044
:105cf4000e00fa00400798005107980062079800c8
:105d0400ee0090004e00900065ff07002007980009
:105d14002e009000e00f500002003a002e00900088
:105d24004b0037004e009000dceb07003007980072
:105d34000000eb00000f78000000eb001007980053
:105d4400080037001e009000de00900080804000b4
:105d540000c2b300804878001e0090000000e800f4
:105d6400100798001e009000ea0f5000f5ff340061
:105d74000000eb0010079800300037001e00900070
:105d8400ce0090000080400090407800e0c2b30054
:105d940080cf500003003a0080002000000f7800fc
:105da400230037001e009000ce00900000804000c9
:105db4009040780000c6b30080cf50001300340038
:105dc4001e009000ce0090000080400090407800bb
:105dd400a0c7b30080cf50000c003c001e00780028
:105de400de009000008140001e009000ce00900074
:105df40000804000104078008040780000ceb3005e
:105e040000c0400000497800080037001e007800f8
:105e1400de009000808040001e0090004e01900043
:105e24000000410010407800804878001e0fe80010
:105e34001e0090000000e800100798009e009000eb
:105e44003e009000808f5000ccff350010002000f1
:105e54000080fa00000006000a00fa0030079800eb
:105e6400410798000000eb00000f78000000eb00f1
:105e7400100798000000eb002007980098003700f6
:105e84001e0078006101b8000080eb008080eb0008
:105e940002004000838048003200200003002000fc
:105ea400820f5000838f580057003e0000600100ad
:105eb4002f0037004100370001003700150037007c
:105ec400be0090001e0090000080400090407800ca
:105ed400a0c2b30080cf500007003200be00900083
:105ee4001e009000008040009040780000c2b30083
:105ef40080cf500004003a001e0090000000e8002b
:105f0400100798007600370040002000000f78004a
:105f140073003700be0090001e0090000080400017
