:020000040000fa
:080000000002040000000000f2
:020000040000fa
:100400006fd020000e7f22000e0188000000000047
:1004100000012000200288000c000700a0c8250071
:100420000100200011000700000020000000e00093
:100430000200320000000200000000009e250200c1
:10044000000000000040da000000fe004440a90067
:10045000400c20000000e0000300320000002000fb
:10046000a00188004440a800000006009101880017
:10047000800078000000eb0015003700e2804000ab
:1004800032a0b4009101ba00e280400032a0b40072
:100490009102ba00e280400032a0b4000002eb00fa
:1004a000472bde00f507b200602ce10004003a00a3
:1004b0000059eb008301e900fdff3e000400370016
:1004c0006128e100010032000082eb000400070017
:1004d0001101ba000200e000e8ff3a000000060047
:1004e0003159ba008301e9000c0032002159ba00e9
:1004f0008301e900080032000400e00003003a0034
:10050000e280400032a0b400f5ff370011d9ba00f4
:100510008301e900faff3a008100e800e180400031
:1005200032a0b400000006003e7404000000000089
:1005300066030400000000009605040000000000af
:10054000809fbe00849fbe00869fbe000400fa000c
:1005500021e3a900041880006123b80084658000ad
:10056000956580000602420087824a008465880003
:1005700095658800a46580000402e800a4658800f1
:10058000a5658000f4072000848f520031003600fa
:1005900084658000956580000404b0000580b0008b
:1005a000492bdd004722de0004027300c72ade006b
:1005b000048fbe006465800075658000e00f520006
:1005c000e08f5a0004003a001e02be0064658800f5
:1005d00075658800150037006465800075658000ca
:1005e0006f2bb900060378006020b9008003780003
:1005f0000703430084027800f4002000042ab800b6
:1006000005034300860278003e034200ae834a00a1
:100610000602be00cc2bdd004422de000482730003
:10062000c42ade0064658800756588000404200023
:10063000a4658800846580009565800061024200a1
:10064000e0824a008502d1000482d30084658800dc
:100650009565880085a0a90021e3a8000080fa0024
:100660004f03be004f02be004f00be000040060018
:100670003600f800809fbe00829fbe00849fbe00af
:10068000869fbe000000fa0084a0a9006436200006
:10069000040078000830070000027800e00f5200e4
:1006a00003003a000002eb00a46188000602a800e3
:1006b0000080fa004f03be004f02be004f01be0093
:1006c0004f00be003600f900004006000200fa00ac
:1006d000451080000400280004826200e00f5200f0
:1006e0000f003a00451080000440200004826200a0
:1006f000e00f52000a003a00451080000408200074
:1007000004826200e00f520005003a0045108000ac
:100710000404200004826200e00f52000200320054
:1007200048300700a2003700a461800005002000c7
:100730007600200007002000860f5200878f5a00a5
:1007400098003e0004600100070037000f003700ea
:1007500013003700160037001d0037002300370054
:10076000380037003c003700641d2a00144278002e
:100770008482fb00e40f20000482620014108800d1
:1007800014002000a4618800880037003400200095
:100790001410880024002000a46188008300370022
:1007a0000622a80034002000a46188007f003700e2
:1007b000641d2a00144278000404a0000482fb0097
:1007c0001410880044002000a461880077003700de
:1007d00008c2a9000662a8000002eb00c4618800fc
:1007e00054002000a461880070003700c6618000ba
:1007f0000410800004427800a5c720008502430051
:10080000844a7800c46180000402e800c461880062
:10081000c4618000e50f520005003e0006a2a90059
:100820000682a80064002000a46188005f003700f1
:1008300006a2a8000682a80074002000a461880017
:100840005a00370008c2a9000662a8005400200020
:10085000a461880055003700fa2f0700a4c72000c4
:100860001442780014479800b4c72000144278005e
:10087000044f78001e0278000402ea00cfa2de00d6
:100880000464880015648800c4c7200014427800fe
:1008900014479800d4c7200014427800044f780011
:1008a0001e0278000402ea00cfa2de004464880041
:1008b00055648800e4c7200014427800144798006b
:1008c000f4c7200014427800044f78001e0278001c
:1008d000cfa2de002464880035648800b461800003
:1008e000e00f52000d003a0004648000156480009f
:1008f0007463880085638800246480003564800008
:1009000094638800a5638800446480005564800077
:10091000b4638800c56388001800370076638000e0
:100920008763800004648000156480000602420032
:1009300087824a007463880085638800966380001c
:10094000a7638000246480003564800006024200b2
:1009500087824a0094638800a5638800b66380009c
:10096000c763800044648000556480000602420032
:1009700087824a00b4638800c5638800546380009e
:100980006563800061024200e0824a00546388008f
:1009900065638800b46180000402e800b4618800e7
:1009a00002003700a72f07000100370000000000f9
:1009b0000080fa00000006003600f800809fbe00ac
:1009c000829fbe00849fbe00869fbe000200fa0088
:1009d0008620a9004410800070026200e00f5200df
:1009e000270032009620a9000002eb003466880040
:1009f0004466800004427800614262000482fb0089
:100a0000610262004422dd00b6048000f5fe2f0082
:100a10008502630004827200b4048800546680007a
:100a200004427800614262000482fb0061026200bd
:100a30004522dd00a6048000f5fd2f00850263003d
:100a400004827200a4048800646680000442780076
:100a5000614262000482fb00610262000402420003
:100a6000a6048000d5ff2f00850263000482720077
:100a7000a40488007466800084668800090037003a
:100a800034668000040f78001e027800e00f5200e8
:100a9000030032001e02780004000100010037004c
:100aa000000000000080fa004f03be004f02be00ad
:100ab0004f01be004f00be003600f90000400600a6
:100ac0000000fa008600a9000080fa00004006003d
:100ad0003600f800809fbe00829fbe00849fbe004b
:100ae000869fbe000000fa008680a900645920009d
:100af00004007800f02e070000027800e00f52009a
:100b000003003a000002eb00246588000602a800fa
:100b10000080fa004f03be004f02be004f01be002e
:100b20004f00be003600f900004006000200fa0047
:100b30008620a9004510800004002800048262007d
:100b4000e00f52000f003a004510800004402000e2
:100b500004826200e00f52000a003a004510800053
:100b60000408200004826200e00f520005003a00f1
:100b7000451080000404200004826200e00f52004f
:100b8000020032002f2f0700fe003700246580008e
:100b9000050020007600200007002000860f52008c
:100ba000878f5a00f4003e00046001000700370000
:100bb0000f00370013003700160037001d00370004
:100bc00023003700380037003c00370024152a0086
:100bd000144278008482fb00e40f2000048262004b
:100be000141088001400200024658800e4003700f9
:100bf000b40320001410880024002000246588001d
:100c0000df0037000622a800340020002465880099
:100c1000db00370024152a00144278000404a000e9
:100c20000482fb0014108800440020002465880022
:100c3000d300370008c2a9000662a8000002eb003a
:100c4000446588005400200024658800cc003700eb
:100c500046658000041080000442780085b82000ba
:100c600085024300844a7800446580000402e8005d
:100c70004465880044658000ed0f520005003e0089
:100c800006a2a9000682a80064002000246588004e
:100c9000bb00370006a2a8000682a800740020004e
:100ca00024658800b600370008c2a9000662a800c3
:100cb0005400200024658800b1003700e12e0700b1
:100cc00084b82000144278001447980094b820009b
:100cd00014427800044f78001e0278000402ea00f3
:100ce000cfa2de00d45d8800e55d8800a4b82000b6
:100cf0001442780014479800b4b8200014427800d9
:100d0000044f78001e0278000402ea00cfa2de0041
:100d1000b45d8800c55d8800c4b820001442780026
:100d200014479800d4b8200014427800044f78008b
:100d30001e0278000402ea00cfa2de00f45d880003
:100d4000055e8800e4b8200014427800144798003b
:100d5000f4b8200014427800044f78001e02780096
:100d6000cfa2de00945d8800a55d880004b9200054
:100d7000144278001447980014b9200014427800f7
:100d8000044f78001e0278000402ea00cfa2de00c1
:100d9000345e8800455e880024b920001442780043
:100da0001447980034b9200014427800044f7800aa
:100db0001e0278000402ea00cfa2de00145e880062
:100dc000255e880044b9200014427800144798003a
:100dd00054b9200014427800044f78001e027800b5
:100de0000402ea00cfa2de00545e8800655e88003f
:100df000145c8000255c800061024200e0824a00b1
:100e0000145c8800255c880034658000e00f520087
:100e10001d003a00b45d8000c55d8000d45c880090
:100e2000e55c8800d45d8000e55d8000f45c8800ae
:100e3000055d8800f45d8000055e8000145d88001b
:100e4000255d8800945d8000a55d8000b45c88000d
:100e5000c55c8800145e8000255e8000345d8800db
:100e6000455d8800345e8000455e8000545d8800ea
:100e7000655d8800545e8000655e8000745d88005a
:100e8000855d880038003700d65c8000e75c800014
:100e9000b45d8000c55d80000602420087824a0082
:100ea000d45c8800e55c8800f65c8000075d80000b
:100eb000d45d8000e55d80000602420087824a0022
:100ec000f45c8800055d8800165d8000275d800069
:100ed000f45d8000055e80000602420087824a00c1
:100ee000145d8800255d8800b65c8000c75c8000ca
:100ef000945d8000a55d80000602420087824a0062
:100f0000b45c8800c55c8800365d8000475d800069
:100f1000145e8000255e80000602420087824a003f
:100f2000345d8800455d8800565d8000675d800007
:100f3000345e8000455e80000602420087824a00df
:100f4000545d8800655d8800765d8000875d800067
:100f5000545e8000655e80000602420087824a007f
:100f6000745d8800855d8800346580000402e800b7
:100f70003465880002003700322e07000100370078
:100f8000000000000080fa0000000600841f7800c6
:100f90000000fa0013e1a9008500a9000002eb009f
:100fa000040388000002eb00140388008660a90097
:100fb00014002000745f880014002000845f880003
:100fc0000002eb00645f88000002eb00945e880082
:100fd00061e0a8000002eb005408880013e1a800bb
:100fe0000080fa004f027800004006003600f8004a
:100ff000809fbe00829fbe00849fbe00869fbe0071
:101000001800fa000002eb00040388000002eb0065
:10101000140388008660a9007d2907000002be0035
:10102000048fbe00945e8000050020005600200062
:1010300007002000860f5200878f5a0094013e005f
:10104000046001000500370014003700230037005a
:10105000320037004100370050003700551680003d
:101060000480200004826200e00f52008a013200f6
:10107000965e80001e02be00c233dd0046bd200029
:1010800006834300048bbe00945e80000402e800e7
:10109000945e88006200a8008f003700551680001b
:1010a0000440200004826200e00f52007c01320004
:1010b000965e80001e02be00c233dd0046bd2000e9
:1010c00006834300048bbe00945e80000402e800a7
:1010d000945e88006260a8007f003700951680004b
:1010e0000420200004826200e00f52006e013200f2
:1010f000965e80001e02be00c233dd0046bd2000a9
:1011000006834300048bbe00945e80000402e80066
:10111000945e88006280a8006f00370095168000fa
:101120000410200004826200e00f520060013200cf
:10113000965e80001e02be00c233dd0046bd200068
:1011400006834300048bbe00945e80000402e80026
:10115000945e88006220a8005f003700951680002a
:101160000408200004826200e00f520052013200a5
:10117000965e80001e02be00c233dd0046bd200028
:1011800006834300048bbe00945e80000402e800e6
:10119000945e88006220a8004f00370095168000fa
:1011a0000408200004826200e00f520044013a006b
:1011b000965e80001e02be00c233dd0046bd2000e8
:1011c00006834300048bbe00945e80000402e800a6
:1011d000945e880000000000465f8000575f80003a
:1011e000245f8000355f80000402530085825b002d
:1011f0002407980035079800265f8000375f80003d
:10120000045f8000155f80000403530085835b004a
:1012100024ea2f00f5ff2f000602420087824a00d1
:101220004407980055079800065f8000175f80000c
:10123000e45e8000f55e80000403530085835b005c
:1012400024ea2f00f5ff2f000602420087824a00a1
:101250006407980075079800e65e8000f75e8000de
:10126000c45e8000d55e80000403530085835b006c
:1012700024ea2f00f5ff2f000602420087824a0071
:10128000040f9800150f9800c65e8000d75e80009e
:10129000a45e8000b55e80000403530085835b007c
:1012a00024ea2f00f5ff2f000602420087824a0041
:1012b000240f9800350f98002e039000be03900075
:1012c000c40d8500d50d8500840f5300858f5b000c
:1012d000fc00350001003700fe0037002e039000af
:1012e000be039000440e8500550e8500840f530008
:1012f000858f5b00f3003c004e039000de039000fe
:10130000c40d8500d50d8500840f5300858f5b00cb
:10131000ec0035004e039000de039000440e850083
:10132000550e8500840f5300858f5b00e5003c005f
:101330006e039000fe039000c40d8500d50d85005e
:10134000840f5300858f5b00de0035006e03900034
:10135000fe039000440e8500550e8500840f530057
:10136000858f5b00d7003c000e0b90009e0b900019
:10137000c40d8500d50d8500840f5300858f5b005b
:10138000d00035000e0b90009e0b9000440e85009f
:10139000550e8500840f5300858f5b00c9003c000b
:1013a0002e0b9000be0b9000c40d8500d50d85005e
:1013b000840f5300858f5b00c20035002e0b900018
:1013c000be0b9000440e8500550e8500840f53001f
:1013d000858f5b00bb003c002e039000be03900095
:1013e000e40d8500f50d8500840f5300858f5b00ab
:1013f00005003d00e40d8500f50d850024079800eb
:10140000350798000b0037002e039000be039000b4
:10141000240e8500350e8500840f5300858f5b00f8
:1014200004003400240e8500350e85002407980042
:10143000350798004e039000de039000e40d850010
:10144000f50d8500840f5300858f5b0005003d007e
:10145000e40d8500f50d85004407980055079800b8
:101460000b0037004e039000de039000240e850031
:10147000350e8500840f5300858f5b000400340017
:10148000240e8500350e8500440798005507980006
:101490006e039000fe039000e40d8500f50d8500bd
:1014a000840f5300858f5b0005003d00e40d85002f
:1014b000f50d850064079800750798000b0037004c
:1014c0006e039000fe039000240e8500350e85000b
:1014d000840f5300858f5b0004003400240e8500c8
:1014e000350e850064079800750798000e0b900074
:1014f0009e0b9000e40d8500f50d8500840f5300d0
:10150000858f5b0005003d00e40d8500f50d85002d
:10151000040f9800150f98000b0037000e0b900079
:101520009e0b9000240e8500350e8500840f53001d
:10153000858f5b0004003400240e8500350e850085
:10154000040f9800150f98002e0b9000be0b900012
:10155000e40d8500f50d8500840f5300858f5b0039
:1015600005003d00e40d8500f50d8500240f980071
:10157000350f98000b0037002e0b9000be0b90002b
:10158000240e8500350e8500840f5300858f5b0087
:1015900004003400240e8500350e8500240f9800c9
:1015a000350f98002e0b9000be0b9000e40d8500c7
:1015b000f50d85000402530085825b0014608800ed
:1015c000256088000e0b90009e0b9000040e850095
:1015d000150e85000402530085825b00f45f8800cd
:1015e000056088006e039000fe039000040e8500e5
:1015f000150e85000402530085825b00d45f8800cd
:10160000e55f88004e039000de039000040e850025
:10161000150e85000402530085825b00b45f8800cc
:10162000c55f88002e039000be039000040e850065
:10163000150e8500840f5300858f5b0004003d006c
:101640006022b800945f8800a55f8800040037001e
:101650001400200005002000945f8800a55f88002a
:1016600014002000745f88000002eb00845f880093
:1016700014002000645f880013e1a9008500a90020
:101680000002eb005408880013e1a8000d003700a9
:10169000000000000b0037000000000009003700c8
:1016a00000000000070037000000000005003700c0
:1016b00000000000030037000000000001003700b8
:1016c000000000000002eb00945e880061e0a800ca
:1016d000000000000080fa004f03be004f02be0071
:1016e0004f01be004f00be003600f900004006006a
:1016f000849fbe00869fbe000000fa008460a9009f
:10170000b4668000c566800061024200e0824a0043
:10171000b4668800c5668800b6668000c76680002b
:10172000d4668000e5668000840f5300858f5b00df
:10173000080036000082eb008082eb00d46688004f
:10174000e5668800f4668000e00f52000100320078
:101750008bc0a8000080fa004f03be004f02be00fd
:10176000004006003600f800809fbe00829fbe0049
:10177000849fbe00869fbe000200fa008bc0a900b5
:10178000f4668000040f78001e027800e00f52001b
:10179000020032001e027800040001000080fa00fe
:1017a0004f03be004f02be004f01be004f00be00ff
:1017b0003600f90000400600849fbe000000fa00d9
:1017c000b4678000e00f5200160032000c003700b2
:1017d000c567800004902000048242001442780013
:1017e0000482fb0024118800c46780000402e80022
:1017f000c4678800b46780000402e900b467880009
:10180000b4678000e00f5200120032001511800012
:101810000420200004826200e00f5200ecff32003e
:101820000c00370054212a00144278000482fb0087
:10183000241188000000000054212a00144278007e
:101840000482fb00241188009580a9001400200068
:10185000a46788008580a9000080fa004f02be00be
:10186000004006000040da000000fe00889fbe0035
:101870008a9fbe008c1f78005c00070010022000c9
:1018800002003b0020688800600037008a00620088
:101890006408e10002003a00206888006800370010
:1018a0006108e100fcff32000800be00030478007c
:1018b000bc04070001f0a1005603070008f0a600d1
:1018c000040037000001be0091042400b0fd200098
:1018d0002601070009f0a70001f0a200540037001c
:1018e0001400200025083700f4ff2f0023083700dc
:1018f0000001be00280007000470a70003f0a1004b
:1019000003f8a30013003a006509b100100032008b
:10191000090035006928e1000200350001002800b7
:101920000000050000004000818048008502e900b9
:10193000fcff3a0000000600f88f42000500350069
:101940008100d1000080d3008502e800fcff3a004e
:10195000000006008000eb00000005004f89de005b
:1019600082017800200837006011b8002e08370087
:101970000001eb00da07070004003200020020003b
:1019800003f8230001f0a700f8000700000006009c
:1019900004002000f9073700c70ade00f107b20093
:1019a000f50fb20008003200e1cf42000200320021
:1019b0000170a00024000500810f700001003200ba
:1019c0000408050044000500810f700002003a0081
:1019d000140005008502e9000000400081c04800b5
:1019e000fcff3b000170a000240005000004be00c5
:1019f000e9ff07000003be000405be000200be00b0
:101a0000e5ff0700844f7500000006000200be00dd
:101a10006450e100050036006420e1000200360059
:101a20000968a30001003a000800be000160a000a0
:101a30004f0678004f05be004f04be0000000600b0
:101a4000f0ff2f00f1ff2700f9ff3700889fbe004d
:101a50003400f80003002000a301880003002800e0
:101a60008384600001f0a100b2fd200093f4230004
:101a700002015000838158000c0031000200200058
:101a800003982300020150008381580003003900ad
:101a900095050700390007004006070089806800a7
:101aa0003400f9004f04be00000006008a9fbe000b
:101ab0008c9fbe000200200003982400000151000a
:101ac000818159001e003900870507003e07070085
:101ad0000005eb000100e00003003d006000100085
:101ae000e08018000a002800630362006333b80036
:101af0000660010021000700000000000800370018
:101b00006d0007000005eb00050037001b00070013
:101b10000af0a20002003700670007000a00280050
:101b20001e060700898068008a8068004f06be0094
:101b30004f05be003400f9004f04be00000006004f
:101b4000700007000778a300050032000160a000c4
:101b5000898070001202200022688800f3ff37009d
:101b60000768a30003003200f0ff2f00f1ff2700f9
:101b7000f8ff37006000b800f6ff37000100e00012
:101b8000120032006f03410010003500809fbe003c
:101b9000821f78000002be0082017800e90407007d
:101ba0006403410003003d004300200024112a008b
:101bb0000200370053002000e4102a00bc03070095
:101bc000cf0178004f02be00de04070000000600cf
:101bd000889fbe003400f80003002000a3018800a5
:101be000030028008384600001f0a100b2fd200002
:101bf00093f423000201500083815800100031004b
:101c00000200200003982300020150008381580045
:101c1000060039003405070027000700df0507002c
:101c20003400f9004f04be000000060001f8230054
:101c3000000020003400f9004f04be000000060040
:101c40008a9fbe008c9fbe000200200003982400e3
:101c50000001510081815900b9ff390022050700b8
:101c6000d90607000005eb000100e00003003d007d
:101c700060001000e08018000a0028006303620082
:101c80006333b8008004eb00066001000a0007001f
:101c90000005eb00a2ff3700b8ff07000af0a20022
:101ca0009fff3700040007000a0028009cff370050
:101cb000b2ff07009aff37000100e0000e0032007b
:101cc0006f0341000c0035000002be008201780065
:101cd0009c0407006403410003003d004300200012
:101ce00064122a00020037005300200024122a0048
:101cf0006f03070000000600000020000100240020
:101d0000020005002700200001f0a70017002000b6
:101d1000470bde00f60fb200040032000643e80075
:101d20000a0032004702b3000000060001037800f9
:101d3000f607b2000603700002003a000703b30082
:101d4000000006008702b3000000060001037800cf
:101d5000f607b20006037000020032000770a00010
:101d6000000006000760a0000000060007f827003a
:101d7000078361000638e10004003a00f7072000fd
:101d8000878361008703710001003a0003f0a2001d
:101d9000889fbe008a9fbe008c9fbe00470ade005f
:101da0000480a100c71ade000580a10007002800fa
:101db0000785600087856100f70f20000720e1009c
:101dc0009e0032000728e1009c00320001067800e6
:101dd0000400e000b4003200f707200087806000b4
:101de0000170a0000500e000c0003200f7072000ed
:101df000878161000370a000050652000f003a00c1
:101e00000b50e1000b0032000308e10002003a0031
:101e10000200e1007e00320002045000838458007a
:101e2000040031000001fd008101fd008402fd007d
:101e30008a05fd006044b800210037000520e1005c
:101e400005003d000001fd008101fd008402fd0050
:101e50008a05fd00050652007a60e10005003500a4
:101e60000170a1004722dd00848070008a8070002c
:101e7000630037006044b800ef02660007ff2f00e0
:101e8000070666000500e00006003400f08312003b
:101e90008714dd000511de00071bdd00060171005f
:101ea0008519de007060e100050035000904780046
:101eb00082047800030178008001eb007006560070
:101ec0000b50e10003003a0002004000838048000c
:101ed0000400370060041400e0841c000200580075
:101ee000838058000188a300060032008100d100e1
:101ef0000080d3008984d3000884d3000402e80062
:101f0000270037000178a30025003a000100e00017
:101f1000030032008186cf00698656000a00370030
:101f20008c0020000000e00004003a000900780066
:101f3000880478000004eb00700252008086cf0015
:101f40000d0646000c06e9007060e1000600350051
:101f50008000780009007800880478000004eb0015
:101f600070065600700252000c00e0000c003400b5
:101f70008c08dd00f00316000703de008680700089
:101f80000c00dd00074bde00060070008c4cdd000d
:101f90000743de00868474000c44dd000c0252000e
:101fa0006120e10020003500610160000700280089
:101fb00087816400f7ff27008783640007037400ac
:101fc0000300e000060032008203730004003200c8
:101fd0000000e800e08048000188a3000e003a00fd
:101fe000f70f20000720e1004a003d000170a1002a
:101ff0004722dd00810072008a8070000000be0070
:102000004f06be004f05be004f04be000000060094
:102010006000b800faff37008100d1000080d300d3
:102020000402e800eeff3700040178008901740023
:10203000600407008a807000f1ff370031ff07005d
:10204000070278000001fd008101fd002dff07005f
:1020500087027800850372000778a300040032002d
:102060000001fd008101fd00ad030700e4ff370022
:10207000850362000768a300080032000b50e100ee
:1020800003003200f0ff2f00f1ff2700dcff3700d4
:102090000001fd008101fd00d9ff37000468a300a5
:1020a000d7ff3200faff3700f8ff2700888360006f
:1020b0000b003a000000e00009003a0083036400ce
:1020c00082837300020032000200be00ccff3700a2
:1020d0000b50e100ceff3a000200be00c8ff3700ff
:1020e00014002000810064003eff3700f8ff270045
:1020f0008883610004003a000200e00002003a0018
:102100008c007800beff37001500200083016400ba
:1021100039ff370001f8270000002000810075001a
:10212000b7ff370003836800070028000703630038
:10213000470ade000480a100c71ade000580a10066
:10214000f70f20000720e100420032000728e100dd
:1021500040003200889fbe008a9fbe008c1f78001e
:10216000f107b200f307b2000400e000640032009f
:102170000170a0000500e000680032000370a000bc
:1021800085054200eb07b1000204b8000302b80065
:102190008484440060854a00020ab80084844400b4
:1021a0000a854a00030ab80004054500040033000c
:1021b0000804d0008984d2000a85d2008b05e9008a
:1021c0006158e1003d003500021020000901610066
:1021d0000308200089816100f707200087836400dd
:1021e00008867300c84cde00c853dd008784740085
:1021f0004855de000300e00006003200820376004e
:10220000040032008904e80060054d000a88a3003c
:102210000c003a00f70f20000758e10044003d0091
:102220000a70a100c75ddd000a8575008a00730091
:10223000090078004f0678004f05be004f04be002d
:10224000000006000a05d1008984d3008b05e80050
:10225000f0ff3700881f780006047800a9fe070009
:10226000070278000001fd008101fd00a5fe0700c6
:1022700087027800850372000778a300050032000a
:102280000001fd008101fd00250307004f047800d7
:1022900000000600850372000748a3000300320017
:1022a000f0ff2f00f1ff2700f8ff370000002000ab
:1022b00001f8270088807000f4ff3700880178005b
:1022c0004848dd00808171004848de00c850dd00cc
:1022d00001007000c850de00060478000b01780091
:1022e000b403070088807000d2ff37000500e000cb
:1022f0000500320017002000fb0107009dff37009a
:1023000081037000f9ff3a00860078004f067800dc
:102310004f05be004f04be0000000500830371009e
:10232000f9ff320027002000ef01070094ff37007b
:1023300001f8270086807000f4ff37008c9fbe00f4
:102340003400f80002002000a201880002002800ea
:102350000286600001f0a1000200200003f02300cb
:1023600002015000838158000c003100020020005f
:1023700003982300020150008381580003003900b4
:10238000590307008b000700040407008100760052
:102390003400f9004f06be00000006008a9fbe0010
:1023a000889fbe000200200003f8230002015000b5
:1023b0008381580019003100340007006822b800fa
:1023c000046001000201e90014d52e0075482600c2
:1023d000f3ff2f00a603070000000000000000002c
:1023e000230037005455250055552500e3ff2f00e5
:1023f000168e240057302400080020001901070021
:102400001b0037000201e80014d52e007548260095
:102410000300200091030700150037000200e000d0
:1024200006003a000300e00004003a00b0fd20007e
:1024300091fc2300810076000f00370081007600b8
:1024400030fe07000758a30004003a000778a300f5
:10245000020032000160a00002003700f0ff2f00f0
:10246000f1ff2700120220002268880002003700d6
:10247000ca030700810076004f04be004f05be006e
:102480003400f9004f06be0000000600889fbe0021
:102490008a9fbe008c9fbe00723d2b00d3f52300a7
:1024a00002015000838158000d0031000e03070027
:1024b0000002be00820178000600200007002c0008
:1024c000f8ff2f00e70007000100e00002003200e3
:1024d0000201e800370007000002eb00310037007e
:1024e000e2352800c3f62300020150008381580022
:1024f00010003100fc020700809fbe00821f7800a0
:102500000201e8000002be008201780006002000ff
:1025100007002a0018002000d2000700cf01780031
:102520004f02be00870207002200070014002000af
:102530001c003700ec0207008201e9000002be0027
:102540000000200001002400f2ff2f0046030700d6
:10255000809fbe00821f7800e3030700ef01410067
:102560000300e0000c0035000005be008204780086
:102570004f0178004f00be0053002000e4132a00f2
:102580004b0107000a02be00890178006d020700b6
:102590002400200003003700cf0178004f02be0066
:1025a000240020004f06be004f05be004f04be00b1
:1025b000000006000100e00015003200ef014100bc
:1025c00013003500809fbe00821f7800e4014100a7
:1025d00006003c000002be0082017800590207009c
:1025e00053002000e4132a00050037000002be005b
:1025f00082017800530207007300200064132a0050
:102600002b010700cf0178004f02be004d020700ea
:1026100000000600889fbe008a9fbe008c9fbe00ff
:102620003400f80006002000a601880006002800fb
:102630008686600001f0a1000600200007e023006c
:102640000603500087835800120031000600200066
:102650000798230006035000878358005c00390068
:10266000a10207000005be00820478000002be003f
:1026700082017800330207004300200024032a006f
:10268000940507000a02be00890178002d020700a8
:102690004e003700060020000710240006035000fb
:1026a00087835800380031000600200007fd230012
:1026b00006035000878358000b0031008a02070090
:1026c0000005be0082047800620141005005070049
:1026d00000067800ef03070062015100809fbe00f2
:1026e000821f7800080037007f0207000005be0047
:1026f000820478004605070065064000e5030700f0
:10270000809fbe00821f78000a02be008901780007
:1027100007002400060020000800200051000700e8
:102720000005fd008105fd008204fd00cf01780059
:102730004f02be00cc0207000a02be0089017800e9
:10274000e10107000104780008f8a300020032004c
:1027500060001000e08018002d00070008f8a300ba
:102760000200320060001000e080180026042a00f9
:102770006665b800060345003602be009601780083
:10278000bb020700110037000600200007c8240024
:1027900006035000878358001300310052020700df
:1027a0000002be0082017800010024000000200029
:1027b00002002000c401070015000700754826002c
:1027c00014d52e0003002000a4020700f302070026
:1027d0008d8070003400f9004f06be004f05be002a
:1027e0004f04be000000060046fd07000778a30066
:1027f00003003a00b0fd200091fc2300f4ff3700f5
:102800000160a0001602200026688800f0ff370053
:102810000100e0000d003200ef0341000b00350025
:10282000809fbe00821f78000002be0082017800f7
:10283000c40107004300200024032a0025050700e7
:10284000cf0178004f02be00be0107000000060065
:1028500060001000e08018000200370060031300e1
:10286000e0831b00889fbe008a9fbe008c9fbe0035
:10287000830441000405b800050eb8000501b80046
:102880008285450003064e00e0864e000409b8002c
:102890008285450003064e00e0864e000100e00000
:1028a00002003d000406560085865e000500e0003b
:1028b00002003d000006560081865e000d00e0002b
:1028c000740032000700e000750032006022b8009a
:1028d0008783d1000683d3008582d300090054008a
:1028e0000000e9001b003c003b0035000804e80044
:1028f0000a0042008b804a000c014b008d814b0086
:102900009e050700040454000300e0000e0032009e
:10291000090028000918e100060032000200be008c
:10292000080178004f06be004f05be004f04be00f0
:10293000000006000200e000f8ff3a0003002c004f
:102940000804e800f5ff37006000b8000001eb0064
:10295000f4ff37000804e8007e00e10001003400c5
:10296000e0012000cfecde00ef0060000100e0009d
:102970000c003200f08110000155de000359dd002b
:1029800002057500815dde000361dd008285750052
:102990000166de000369dd000206760081eede00de
:1029a000010050004400de006501b8000260010033
:1029b0000a0042008b804a000c014b008d814b00c5
:1029c000cfff37000b0042008c804a000d014b0006
:1029d00089814b00caff3700628444000000ea008e
:1029e000030420000300e100010034000004200083
:1029f000cfbcde00ef0060000a003200f081100062
:102a0000032add00812ade000331dd0082827200ac
:102a10000133de000339dd000203730081bbde00f9
:102a2000010050004400de006501b80002600100b2
:102a30000a0042008b804a000c014b008d814b0044
:102a4000afff37000a8042008b004b000c814b0027
:102a50008d814c00aaff37000a0043008b804b0099
:102a60000c814c008d814c00a5ff37000a8043008b
:102a70008b804c000c814c008d814c00a0ff3700f6
:102a80000a8044008b804c000c814c008d814c00ee
:102a90009bff37000600be0008017800a1ff370049
:102aa0000c01be000a00be006284440094ff37009f
:102ab000e1024100020035000a050700000006009f
:102ac000e2024100020035001c030700000006007e
:102ad000e302410002003500280407000000060060
:102ae0007c04070000000600889fbe000004eb0085
:102af0006138e10016003a000100e00008003a00e9
:102b0000c800de004800dd00880020000100e00071
:102b100003003a00c800de004800dd0068044400fd
:102b20008184cf00e9845400060034008908dd0068
:102b3000f08314008703de00878070000900dd0049
:102b400009044400610214004f04be0000000600a6
:102b50000300e00008003a00c811de004811dd0063
:102b6000880020000300e00003003a00c811de00e6
:102b70004811dd00680444008384cf00e9845400d8
:102b8000060034008919dd00f08314008713de008d
:102b9000878171000911dd0009044400e10214007d
:102ba000e9ff3700889fbe008a9fbe008c9fbe0051
:102bb0001b0020000202be000586680006002800f7
:102bc000060666004709de00f20fb20082003200fe
:102bd0000243e80080003200c729de00f30fb20094
:102be0007d0032000343e8007b003200f107b200b1
:102bf0000170a000f507b2000570a000c708dd0055
:102c00004903de00868070004700dd00c72add0032
:102c10004923de00868272004722dd000305510051
:102c20000403500085835800030031000000400079
:102c3000818048000a05e9008c1f78008a9fbe0049
:102c400004005000858058000402420085824a003a
:102c500000004000818048000005eb000004be0039
:102c60006033b8000406be000d48e1005600310094
:102c7000110009004dccd8000c01b8000d02b800bd
:102c80008481410060824a008283530003045c0017
:102c900084845c0060055d000a00e00025003a00c5
:102ca000800578000d40e10049003100880078007f
:102cb00007007800110009004d88d8000c01b80009
:102cc0000d02b8008481410060824a006003110057
:102cd00083835b0004045c00e0845c000900e00086
:102ce00021003a004f01be000300e0002b0032003b
:102cf000e3016000070673008c817100010032005f
:102d0000640070004200de004e5edd000c007000ca
:102d1000c258de0001e0a000a0010700cf0178004a
:102d2000818071004f06be004f05be004f04be00fb
:102d3000000006008c8343000d044c00e0844c002e
:102d400060054d000000e9000a00e000d4ff3200f9
:102d50008c8343000d044c00e0844c0060054d0062
:102d60000000e900ceff37000c0343008d834b00c9
:102d700060044c00e0844c000000e9000900e00021
:102d8000d8ff32000c0343008d834b0060044c00dd
:102d9000e0844c000000e900d2ff37004200de0072
:102da0004e5edd000c007000c258de0001e0a000a5
:102db000cf0178000300e000daff3200600010006d
:102dc000e0801800d7ff3700f0ff2f00aaff370080
:102dd000f0ff2f00b9ff37000404be00c9fb070055
:102de000870678000004fd008104fd00c5fb070094
:102df000078366000678a300030032000960a7007d
:102e00000800be002c0037000d78a300020032003d
:102e10000800be00280037000778a30026003a000b
:102e200001f0a10009f0a1000668a3000300320030
:102e3000f1ff2700f0ff2f00baff37000d68a30055
:102e4000030032000800be008c807000b5ff370020
:102e50000768a30007003a000648a30003003200f9
:102e6000f1ff2700f0ff2f00aeff37000d48a30051
:102e7000030032006000b8008c807000a9ff3700aa
:102e80000748a3000400320001f8270000002000da
:102e90008c807000a3ff3700930007000004fd0042
:102ea0008104fd00020578008f0007000802be00c3
:102eb0008a01780059ff37000160a000120220004b
:102ec0002268880097ff37000100e00012003200fe
:102ed0000500e00010003200889fbe008a9fbe00ff
:102ee0008c9fbe000006eb0001f8a3000300320037
:102ef00060001000e08018000cf0a00005f8a300ae
:102f00000300320060021200e0821a000cf0a200fe
:102f10008005eb0041ff37006000b80002000500ab
:102f20000478a300040032000578a30003003200f7
:102f30000168a30001003a000200be000160a00089
:102f400000000600889fbe008a9fbe000004be00ed
:102f50000405be00030141000201e8008000eb000f
:102f60000a42b8000b43b8008682420060804b00e2
:102f70000a4bb8008682420007004800e080480003
:102f80000b4bb8000600400087804800010370002a
:102f900002003a000001eb00120037000900e000d7
:102fa00002003d000a0050008b8058000b00e0003a
:102fb00002003d00080050008980580085824200d0
:102fc00000004800818048008101df000300e0002c
:102fd00004003200858242000000480081804800e1
:102fe0000201e9004f05be004f04be0000000600cc
:102ff00001f8a3001d003a004709de00f40f20008d
:103000000410e100260032000200e0002c00320033
:10301000f107b200c708dd004902de0084807000bd
:103020004700dd0001e0a000f207b1002e0107001b
:10303000f207b00004042000840160004700de00b5
:10304000490add0004007000c708de000300e0004c
:103050000200320061004000e0804800f107b20049
:103060004711dd008280700000000600f4ff270099
:10307000048260008002720001003a000000060035
:1030800006f827000620e1001200350081026300e7
:1030900006826a00040270000e003200060037004b
:1030a00004f827000482680003003a0004002000ae
:1030b00000026a000b0032000160a0000000060060
:1030c0000082700001003a000000060006000700c0
:1030d000d6ff37001202200022688800f0ff2f0080
:1030e000f1ff2700000006004f0ade004709de005e
:1030f000f107b200f20fb2000b003200f207b1008c
:103100000170a000c708dd00c901de0083807000e7
:103110004700dd000400a60000000600600010006b
:10312000e080180000000600810f700001003a00e6
:10313000000006008182cf000500e00010003e0084
:103140008082cf00ee8242007028e1000400390046
:1031500007003e00800078000000eb000e00370002
:10316000708312008600de000500dd000a003700d3
:10317000708352008600dd000000eb00060037007f
:10318000e28252008508dd00708312000603de0033
:10319000868070000500dd007507b0000501ea00bb
:1031a0000400a6000000060060001000e080180087
:1031b000000006000100e00026003200610111005d
:1031c0007810e10023003c006022b8007010e1009c
:1031d0000400350080027800010078008000eb00d8
:1031e000700151000200e00009003400700311007a
:1031f000062add00822ade008603dd008782720057
:103200000200de00860bdd00070070008208de0091
:1032100084817100f4ff27000482620084817100c0
:1032200004002800848262006102600005f0a600ac
:103230000000060004827100070032000000e80070
:10324000e0804800000006000002be006000b800f8
:10325000efff37006000b8000000060060001000bb
:10326000e08018000200370060021200e0821a00bd
:103270000100e0003f0032000500e00039003200ac
:10328000889fbe008a9fbe0082037800830451009d
:1032900004003d000002fd008102fd008904ea00f7
:1032a0008303780001017800800078000000eb00c3
:1032b00005037800840278000002eb00060569002f
:1032c000070035000281d1008180d3000080d30047
:1032d0000683d1008582d3000482d3008703e800ef
:1032e0007048e100060035007f48e10029003c00fd
:1032f00005027800860278004fb3de00f0845400a7
:103300000900e000080032000922de007085140088
:103310008a2ddd000b027200892ade008a35dd006d
:103320008b82720009b3de000400400085804800f3
:1033300006014900aa020700838353000200e0004f
:10334000090032000b0028000b10e1000c003200d5
:103350000100780082007800070178004f05be0068
:103360004f04be00000006006000b8000001eb0042
:10337000faff37000400be000301780000000600d9
:103380000100e000f2ff3a0002002c008703e80091
:10339000efff3700f9012000d5ff370081017000f1
:1033a000270032008002eb0001f8a3000300320086
:1033b00060001000e080180015002000f4072000d5
:1033c0000202420020003400f7032000870360005f
:1033d00006042000000363000208200000016100d1
:1033e0004700de00c909dd0000807100c708de006b
:1033f0000600e0000800320087037100060032007a
:103400001000b0000180b0000188a300020032006b
:10341000c108de000402e800f107b200f30f20004b
:103420000320e10003003d004722dd00810072001f
:103430002900370001f827000000eb0026003700c4
:103440006000b80000000600680212007f20e10062
:10345000020034006000b8001f0037006011b8009f
:103460007020e10004003500800178000100780040
:103470008000eb00700252000400e00009003400fc
:10348000f00312000719dd008419de000703dd00d8
:10349000868171000400de00070bdd00060070006d
:1034a0008408de00f7ff2700838363008703710031
:1034b0000600280003036300070032000700e00055
:1034c00003003a00610160000281730002003200d3
:1034d0001000b0000180b0000500a600000006004a
:1034e00001f0a000000006008103700068003200b7
:1034f000889fbe008a9fbe008c9fbe003400f800eb
:1035000008002000a80188000208a3000300320080
:103510000000d0008180d2000201e9008101780022
:10352000800278000002eb00821f78004a1cde0057
:103530000801b100e90d2a0069417c000281fb000d
:103540000214b8004644dd000340e10001003600eb
:103550000201e9004111dd001200b3000214b800bd
:103560004444dd000340e100010036000201e900af
:103570004111dd001200b3000214b8004244dd0026
:103580000340e100010036000201e9004111dd00c5
:103590001200b3000214b8000340e100010036003d
:1035a0000201e9000214b800088651004763dd00fb
:1035b000492cde0008037300820478004834de00e2
:1035c0000940e1002e003100110009000983d800f4
:1035d0004811dd00000171000214b8000006eb0084
:1035e000840678000885520089855900040031005e
:1035f0000201e9000214b8000885520089855900cb
:10360000820478000b04d1008a83d3000d83d30099
:103610000938e1001c0031001100090049bbd80045
:103620008002eb000003b8000204b8000804440064
:1036300089844c00e0824a008703440060824c0089
:10364000e0814a000603560087835e0004025d00a5
:1036500083815d00010031000000e9008200d1009b
:103660000080d3004f0178004191de003400f90062
:103670004f06be004f05be004f04be00000006000e
:10368000f00f2000d2ff3700f0ff2f00e4ff3700db
:10369000020005000003eb008101df008301ea0066
:1036a0006f18e1000f0032000300e0000600320056
:1036b0008308dd00708211008402de0085807000c6
:1036c0000300dd00030343000100e00014003200aa
:1036d000040028000408e100130032007e011300fa
:1036e000000006008100d1008080d3004f00dd0083
:1036f000f60020008101df008301ea006f18e1007d
:10370000e9ff3a008100d1008080d3000000eb0087
:10371000e60120008101df008301ea00e2ff3700bb
:103720006000b800020005000000e000ebff3a0076
:1037300001002c000603e900e8ff37006218e100f1
:103740001b003500889fbe008a9fbe008c9fbe0074
:103750008301e9000004be000205be0004067800f3
:103760003c00be000801be00c10107003c00410052
:10377000bc8049008b05e900faff3c000103df0033
:103780008606ea00050034008d08dd007082160010
:103790008402de00858070000d00dd0006017800e7
:1037a0004f06be004f05be004f04be0000000600dd
:1037b0000300e00002003a006000b80002000500cb
:1037c0003400be0002000500889fbe008a9fbe0034
:1037d0008c9fbe000006be0082057800741b2c0082
:1037e000c5172500f3ff2f00d6fd070008010700cd
:1037f000809fbe008101700036003200e70150005a
:10380000608258000d0031000000e90069092a00bb
:103810006c00b800890440000c00be000b01780069
:103820003902be00b90178008ffe07003902be00e0
:10383000b90178008cfe07002100370095ff0700d2
:1038400014d52e0075482600030020000c03be008e
:103850000b0478000006be0082057800fcfb070020
:10386000d3ff2f00838145000218e10014003400cb
:103870000003be00020478000c00be000b017800bb
:1038800094462800152d2400e3fd2f00f0fb0700cf
:10389000e3fd2f00838145000218e1000800340099
:1038a0000003be00020478000c00be000b0178008b
:1038b000b4282600654c2400f3fb2f00e4fb07002e
:1038c0004f02be004f06be004f05be004f04be00b3
:1038d000000006000c00be000b017800f8ff370066
:1038e000889fbe008a9fbe000003be002af8070022
:1038f0008505780082815200020020006220e100ec
:1039000004003a00f307b100040035007718e10025
:10391000040035000600be00140037006000b80047
:103920000f003700f50f2000faff2f008502d100ad
:103930000a85d3008301e900fcff3b00818462001b
:1039400000046500890f7400f2ff32008582ea00ee
:103950000a85ea00818462000004650061000700b6
:1039600007f0a70001f0a0000081eb000200e000da
:103970004f05be004f04be0000000600889fbe0039
:103980008a9fbe00841f780018f807004f00780057
:1039900011003300f0ff2f00838f6c0006003b0006
:1039a000040565000a00a7000800370009f0a6001a
:1039b0001000200008003700820f5400838f5c0045
:1039c000030039001000200001003e00000020002c
:1039d00009f0a7000000ea004f05be004f04be003a
:1039e0000000e00000000600881f78000304780053
:1039f0000300e00007003d0060001000e0801800b8
:103a000060011900e081190002003b0001f02d0067
:103a1000030037000400070008f0a70001f0a00031
:103a20004f04780000000600889fbe008a9fbe00f9
:103a300000827000040271000482710026003200ce
:103a40000004be000200be006011b8006b09200037
:103a5000950220000182cf000a0039000541b10023
:103a60000082cf00070039000541b1000982cf0074
:103a7000040039000541b1000882cf00010039007f
:103a80000541b10005425200120032000a003b001d
:103a900082817100610164008100d1000080d30047
:103aa0008984d3000884d3008b05e8000442e80031
:103ab000f7ff3a00070037000804440089844c00ef
:103ac00000004800818048008b05e9000442e900bd
:103ad000f9ff3a00030007004f05be004f04be0087
:103ae0000000060081002000618055000b003d00b1
:103af0000b00200061fe2f000100e1001d003400da
:103b000082817100610164008904d1000884d300be
:103b10000000e800faff3a00710020006100640034
:103b200003007000020060000900320061044400dc
:103b3000e0844c000988a500050032008b05e800f0
:103b40006808e10002003a008904d1000884d3002b
:103b5000f20f20000258e10005003d00c75ddd00c6
:103b6000f907b2008980750008007800000006009f
:103b70000bf827008b007800000005006218e100b8
:103b80001d003500889fbe008a9fbe008c9fbe002e
:103b90008301e9000004be000205be0004067800af
:103ba0003c00be000801be00b10007008381d100c7
:103bb0000281d3003c004100bc8049008b05e90034
:103bc000f8ff3c000103df008606ea000500340030
:103bd0008d08dd00708216008402de008580700092
:103be0000d00dd00060178004f06be004f05be0047
:103bf0004f04be00000006000300e00002003a008f
:103c00006000b800020005003400be00020005009c
:103c10000100e000210032008201e8002b003500a5
:103c20007e0211001e0034006011b8007020e10017
:103c3000040035008001780001007800cf88de00a4
:103c4000700252000400e000070032000301780017
:103c5000700312008601dd000400de00860bdd002b
:103c6000070070008488de00e10260000600280082
:103c700003036300f7ff27008383630082837300dd
:103c80000600e00005003200078172000200e0003b
:103c90000200320061004000e080480000000600a1
:103ca0007e10e10001003a00000006000100e00083
:103cb00003003500f1ff2700f0ff2f000000060091
:103cc0000100280000002000000006006000b8008d
:103cd000000006006218e1003b003500889fbe002e
:103ce0008a9fbe008c9fbe008301e9000004be00d5
:103cf0000205be0004067800620545000a05ea00d8
:103d00003c00be007050e100170035000d0032008d
:103d10007f50e10001003400fa012000f006550058
:103d20000801be00520007000d99de00cf99de00a9
:103d30003c004100bc8049008b05e900f8ff3c00d5
:103d4000140037000801be00490007000301780095
:103d5000cf99de003c004100bc8049008b05e900a2
:103d6000f8ff3c000b003700f00615000801be000c
:103d70003f0007000a11de008d1add000501710009
:103d80008a99de003c004100bc8049008b05e900b7
:103d9000f6ff3c000103df000605ea0005003400e1
:103da0008a08dd00700215008402de008580700044
:103db0000a00dd00060178004f06be004f05be0078
:103dc0004f04be00000006000300e00002003a00bd
:103dd0006000b800020005003400be0002000500cb
:103de0008001eb000202df000402ea006f20e10024
:103df00010003a000201d1000181d3008080d3007d
:103e00004f00dd00f30020000202df000402ea00a0
:103e10006f20e10007003a000201d1000181d300c8
:103e20008080d3000000eb00e30120000202df00ed
:103e30000402ea000400e00009003200f00212006f
:103e40000411dd00050bde00060171008408dd00b1
:103e50000503de00868070000400dd0084814100df
:103e60000200e0000100320000000600030005002f
:103e7000889fbe008a9fbe008c1f78000002be0093
:103e80000203be000620b800062db8008a8040005c
:103e900060814d000724b800072db8008a844400d3
:103ea00060864d008100440002814c00e0014e001c
:103eb0000700e000080035000500e00002003d00ba
:103ec00006015100878159004f0678004f05be005a
:103ed0004f04be0000000600040151008581590016
:103ee000f5ff37006218e1001e003500889fbe0014
:103ef0008a9fbe008c9fbe008301e9000004be00c3
:103f00000205be00040678003c00be000801be00a9
:103f1000d7ff07008100d0000281d2008381d20048
:103f20003c004100bc8049008b05e900f7ff3c00e4
:103f30000103df008606ea00050034008d08dd007d
:103f4000708216008402de00858070000d00dd00a6
:103f5000060178004f06be004f05be004f04be00ac
:103f6000000006000300e00002003a006000b80014
:103f7000020005003400be00020005000002eb0054
:103f80008302df008502ea006f28e10023003a0087
:103f90008301d1008281d3000181d3008080d300ce
:103fa0004f00dd00f40020008302df008502ea00fc
:103fb0006f28e10019003a008301d1008281d3000b
:103fc0000181d3008080d3000000eb00e4012000d9
:103fd0008302df008502ea006f28e1000f003a004b
:103fe0008301d1008281d3000181d3008000eb00e6
:103ff000d40220008302df008502ea006f28e1007e
:1040000006003a008301d1008281d3000001eb0059
:10401000c40320008302df008502ea000500e000ff
:104020000c003200708312008519dd008613de005b
:10403000878171000511dd00860bde00070171002c
:104040008508dd008603de00878070000500dd0046
:10405000050242000300e0000100320000000600fb
:044060000400050053
:020000040000fa
:0200000401f009
:04000c0078ff000079
:020000040000fa
:0200000401f009
:040010005eff00008f
:020000040000fa
:0200000401f009
:040014007fff00006a
:020000040000fa
:0200000401f009
:04001800eeff0000f7
:020000040000fa
:0200000401f009
:04001c00dfff000002
:020000040000fa
:10000800320c0000320c0000320c0000320c0000f0
:10001800320c0000320c0000320c0000320c0000e0
:10002800320c0000320c0000320c0000780b00008b
:10003800320c000038030000320c0000320c0000c3
:10004800c6070000320c0000320c0000320c000021
:10005800dc0b0000a0020000320c0000320c000093
:1000680060050000dc040000320c0000f607000008
:1000780068050000320c0000320c0000320c000051
:10008800320c0000320c0000320c0000320c000070
:10009800320c0000320c0000320c0000320c000060
:1000a800320c0000320c0000320c0000320c000050
:1000b800320c0000320c0000320c0000320c000040
:1000c800320c0000320c0000320c0000320c000030
:1000d800320c0000320c0000320c0000320c000020
:1000e800320c0000320c0000320c0000320c000010
:1000f800320c0000320c0000320c0000320c000000
:10010800320c0000320c0000320c0000320c0000ef
:10011800320c0000320c0000b20b0000320c000060
:10012800320c0000320c0000320c0000320c0000cf
:10013800320c0000320c0000320c0000320c0000bf
:10014800320c0000320c0000320c0000320c0000af
:10015800320c0000320c0000320c0000320c00009f
:10016800320c0000320c0000320c0000320c00008f
:10017800320c0000320c0000320c0000320c00007f
:10018800320c0000320c0000320c0000320c00006f
:10019800320c0000320c0000320c0000320c00005f
:1001a800320c0000320c0000320c0000320c00004f
:1001b800320c0000320c0000320c0000320c00003f
:1001c800320c0000320c0000320c0000320c00002f
:1001d800320c0000320c0000320c0000320c00001f
:1001e800320c0000320c0000320c0000320c00000f
:0801f800320c0000320c000083
:020000040000fa
:10020800320c0000320c0000320c0000320c0000ee
:10021800320c0000320c0000320c0000320c0000de
:10022800320c0000320c0000320c0000780b000089
:10023800320c000038030000320c0000320c0000c1
:10024800c6070000320c0000320c0000320c00001f
:10025800dc0b0000a0020000320c0000320c000091
:1002680060050000dc040000320c0000f607000006
:1002780068050000320c0000320c0000320c00004f
:10028800320c0000320c0000320c0000320c00006e
:10029800320c0000320c0000320c0000320c00005e
:1002a800320c0000320c0000320c0000320c00004e
:1002b800320c0000320c0000320c0000320c00003e
:1002c800320c0000320c0000320c0000320c00002e
:1002d800320c0000320c0000320c0000320c00001e
:1002e800320c0000320c0000320c0000320c00000e
:1002f800320c0000320c0000320c0000320c0000fe
:10030800320c0000320c0000320c0000320c0000ed
:10031800320c0000320c0000b20b0000320c00005e
:10032800320c0000320c0000320c0000320c0000cd
:10033800320c0000320c0000320c0000320c0000bd
:10034800320c0000320c0000320c0000320c0000ad
:10035800320c0000320c0000320c0000320c00009d
:10036800320c0000320c0000320c0000320c00008d
:10037800320c0000320c0000320c0000320c00007d
:10038800320c0000320c0000320c0000320c00006d
:10039800320c0000320c0000320c0000320c00005d
:1003a800320c0000320c0000320c0000320c00004d
:1003b800320c0000320c0000320c0000320c00003d
:1003c800320c0000320c0000320c0000320c00002d
:1003d800320c0000320c0000320c0000320c00001d
:1003e800320c0000320c0000320c0000320c00000d
:0803f800320c0000320c000081
:020000040000fa
:104064001c6c00000cf70000476b0000cc0c000037
:10407400dbaa0000aaea00000000000000400000e3
:10408400000000000000000000000000e4d7000071
:104094006d7d0000fdff0000159c0000b17600005e
:1040a400feff00008c3e00005e520000ffff000097
:1040b40051ed000087640000ffff00005ef1000086
:1040c400b1720000ffff00004a2f0000cc7d000009
:1040d400ffff00004b860000db46000000000000ec
:1040e400ad5d0000f04f00000000000054320000fd
:1040f400da5400000000000054cc0000e557000032
:10410400000000008e210000f659000000000000ad
:10411400ee150000735b000000000000aa7e0000a2
:10412400925c00000000000051ed00008764000074
:104134000000000069840000d1420000deff00009e
:1041440051ed000087640000010000006984000054
:10415400d1420000dfff0000fcf10000654b0000cd
:104164000200000069a4000043660000e3ff0000b1
:1041740051ed000087640000020000006984000023
:10418400d1420000e0ff0000a5e80000a97d000086
:104194000200000060790000e1540000e2ff00002a
:1041a400fcf10000654b00000300000069a400005e
:1041b40043660000e4ff000010100000111100002d
:1041c4001212000013130000131400001415000051
:1041d400151500001616000016170000171700002a
:1041e4001818000018190000191900001a1a000004
:1041f4001a1b00001b1b00001b1c00001c1c0000e1
:104204001d1d00001d1d00001e1e00001e1e0000be
:104214001f1f00001f1f0000690b000000000000aa
:10422400ddbf0000fcff000085880000880000005e
:104234005555000055f50000000000000040000046
:104244006e66000000000000503f0000e9ff00001f
:104254008aaa0000aa0200000100000000e0000099
:10426400000000000040000071b50000470200009b
:10427400c54800000301000074f0000002020000c1
:10428400eb210000da0200005dd70000cc0400003e
:1042940092aa0000aa0a00000000000000400000ea
:020000040000fa
:1042a400d00000007bcf0000c1c00000403b0000f4
:1042b400787d00008b3a0000713d00004abf000089
:1042c4009a990000993f00005d6d0000c5bd000093
:1042d400000000008038000000000000c841000019
:1042e400cdcc000014c20000ae470000d1c00000d5
:1042f4000000000090c200001f850000174100006c
:104304000ad70000fc42000000000000000000008a
:104314009a990000993e000033330000b33e000038
:104324009a990000993e0000cdcc0000cc3d0000dd
:10433400cdcc0000ccbd00003d0a0000d73e0000fb
:10434400295c00008f3d00003d0a0000d73e0000bc
:10435400295c00008f3d0000cdcc0000cc3e000065
:10436400cdcc00004c3e0000093d0000a00f000031
:104374000000000088130000000000004c1d000035
:10438400000000001027000000000000f82a0000d0
:104394000000000017b700005139000017b70000f3
:1043a400d1390000050000003c0000004861000015
:1043b400b4c20000ec51000014c200000ad700008f
:1043c400f7c200006f120000833b00006f12000070
:1043d400833b0000bd370000863600005700000014
:1043e4004d000000410000004341000000000000b7
:1043f400454d000000450000410000004900000058
:104404004100000039030000040100000cc9000051
:104414007d3b0000536f0000530000005344000034
:084424000000000055aa000091
:020000040000fa
:10442c000200fa00000f78001e0378006022b8002a
:10443c0064039800750398001e027800f402900043
:10444c00640290001e037800440398005503980002
:10445c001e027800d4029000440290001e037800e3
:10446c0024039800350398001e027800b4029000d3
:10447c00240290001e037800048bbe001e027800fc
:10448c008002eb00050a98001e02780004007800f8
:10449c000080fa00000006000400fa00000f78000b
:1044ac00110798001e0278001402be001e03900033
:1044bc00048bbe001e027800b4029000240290000f
:1044cc001e03900024039800350398001e02780008
:1044dc00d4029000440290001e0390004403980004
:1044ec00550398001e027800f402900064029000bc
:1044fc001e03900064039800750398001e02780058
:10450c00840a90001e029000050a98001e0290007a
:10451c00040078000080fa00000006000e00fa008b
:10452c00008fbe00220798003307980044079800bc
:10453c0055079800660798006e0290003e1a7800a6
:10454c002e1278006e0290002e039000be03900095
:10455c0026029800370298006e0290004e039000dd
:10456c00de03900046029800570298006e029000fd
:10457c00040078000080fa00000006000400fa0035
:10458c00889fbe00000f7800110798001e0278006b
:10459c001403be001e0290001402be000401be00f3
:1045ac000600be00dcf607000002be000404be00dc
:1045bc001e02780024039000b40390001e029000a9
:1045cc00b4029000240290000401be000600be005c
:1045dc00d1f607000002be000401be000800be00b8
:1045ec00e8f507000002be000404be001e027800bd
:1045fc0044039000d40390001e029000d40290005b
:10460c00440290000401be000600be00c2f6070082
:10461c000002be000401be000800be00d9f5070070
:10462c000002be000400be004f04be000080fa0071
:10463c00000006000200fa00000f78001e0378004c
:10464c000400200005f823000413980015139800ab
:10465c001e02780094129000041290001e03780041
:10466c00040b9800150b98001e027800940a900019
:10467c00040a90001e037800048bbe001e03780011
:10468c006022b800240b9800350b98001e027800ad
:10469c00b40a9000240a90001e037800440398008a
:1046ac00550398001e027800d4029000440290003a
:1046bc001e037800640b9800750b98001e0278009e
:1046cc00f40a9000640a90001e03780024039800fa
:1046dc00350398001e027800b4029000240290006a
:1046ec001e037800440b9800550b98001e027800ae
:1046fc00d40a9000440a90001e03780064039800ca
:10470c00750398001e027800040078000080fa00ff
:10471c00000006000e00fa004007980051079800b0
:10472c00620798004e009000de009000c4f4070071
:10473c000002be00048fbe004e009000de00900010
:10474c0020f507000002be002407980035079800ea
:10475c006e0290002e039000be039000068abe00ed
:10476c006e0290001e03be0066029800770298004d
:10477c006e0390006022b800440b9800550b980013
:10478c001e02be0005f0a2006e03900024039800e8
:10479c00350398006e0290002e039000be0390002b
:1047ac00060a9800170a98006e0390006022b80061
:1047bc00640b9800750b98006e0390006022b80093
:1047cc0044039800550398006e0390006022b800d3
:1047dc00240b9800350b98006e0390000400200009
:1047ec0005f8230004139800151398006e0290002e
:1047fc00040078000080fa00000006000600fa00b1
:10480c00889fbe00000f78001107980022079800bf
:10481c001e029000e10f520003003200e20f520022
:10482c000f0032001d0037001e027800d4029000e9
:10483c00440290001e03780026009000b600900001
:10484c001e0378001604be002e0390000001be006b
:10485c000800be0031ff0700000278001d00370081
:10486c001e027800b40a9000240a90001e037800ff
:10487c0006089000960890001e03780066049000cd
:10488c00f60490002e0390000001be000800be004c
:10489c0022ff0700000278000e0037001e0278008d
:1048ac0094129000041290001e0378006608900089
:1048bc00f60890001e037800460c9000d60c900071
:1048cc002e0390000001be000800be0013ff07007d
:1048dc0000027800040078004f04be000080fa004b
:1048ec00000006001200fa0060079800710798009b
:1048fc00020f98000e017800110020006e0090004d
:10490c00beff070000027800fe0090000400780053
:10491c001aff07000002be000e0b9000048bbe00b5
:10492c000e017800210020006e009000b3ff0700fc
:10493c0000027800fe009000040078000fff0700d2
:10494c000002be000e0b9000240398003503980063
:10495c000e017800310020006e009000a7ff0700c8
:10496c0000027800fe0090000400780003ff0700ae
:10497c000002be000e0b90004403980055039800f3
:10498c000e0a9000040078000080fa000000060077
:10499c000400fa00881f7800008fbe0018c0b30016
:1049ac00b2fd200093042c001e00be00c9f30700ca
:1049bc0000027800e00f5200010035000044eb00cb
:1049cc00e04f540006003200b2fd2000930c24008e
:1049dc001e00be00ebf407000002be001200370000
:1049ec0018c0b300b2fd2000930424001e00be00ca
:1049fc00baf3070000027800e00f520001003c00ff
:104a0c000044eb00e04f540006003200b2fd2000e1
:104a1c00930c24001e00be00d1f407000002be005f
:104a2c00010037001e02be000400be004f047800d7
:104a3c000080fa00000006000200fa00881f7800cf
:104a4c00000f78001e027800b4029000240290003f
:104a5c00a299290093f123000400be00aef50700d3
:104a6c000002be001e037800240398003503980052
:104a7c001e027800d402900044029000a2992900f2
:104a8c0093f123000400be00a3f507000002be0052
:104a9c001e0378004403980055039800e4678000d7
:104aac00e00f5200140032001e027800f402900055
:104abc006402900005f0a10018c0b300d2cc2c0009
:104acc00c3dc23000400be0082f307000002780060
:104adc00e00f5200010035000044eb00e04f5400a1
:104aec00100032001e0378006022b80064039800a6
:104afc00750398000b0037001e027800f40290003a
:104b0c006402900002002000030424000400be0094
:104b1c0081f507000002be001e03780064039800b4
:104b2c00750398004f0478000080fa00000006001e
:104b3c000e01fa00889fbe0091250700200020007e
:104b4c00412407009b27070021032000200320009d
:104b5c005e250700429c200000002000010224007a
:104b6c008619070030002000362207004000200084
:104b7c00d025070011002000500020005b26070004
:104b8c00e1152000600020000b2107000041eb0024
:104b9c0011c0b30060c0b300541c070000027800c1
:104bac00e00f52000300320021002000a01f2a0059
:104bbc006b25070031c0b3000040eb00cb2607008b
:104bcc0000027800e00f52000300320021002000a8
:104bdc00d01f2a0062250700552507006022b80067
:104bec00048fbe006022b800440798005507980057
:104bfc00b92407000002be006407980075079800ee
:104c0c00d4678000e00f52000700320064052000da
:104c1c000e02420004017800b0fd200091f42b003c
:104c2c00bcfe070004003700640520000e024200a1
:104c3c00040078007ffe0700810c2000800c20000f
:104c4c0022250700db160700392507006022b80073
:104c5c00048fbe001100200000202a0067210700ed
:104c6c00040220000e024200040078000117070025
:104c7c0004003700040220000e02420004007800f9
:104c8c00fc1607000e1a9000e00f5200f9ff3200dc
:104c9c000e1290009e12900018c0b300d2cc2c00c3
:104cac00c3dc23000400be000cf3070000027800f4
:104cbc00e00f520001003c000044eb00e04f5400b8
:104ccc00ecff3a001a250700040220000e024200f5
:104cdc000400780058ff0700240320000e02420055
:104cec0004007800cefd07002103200040062000c0
:104cfc00f62407005a22070041062000200320005a
:104d0c00f2240700d9020700e40920000e02420039
:104d1c0004007800a726070000027800e00f52007c
:104d2c00030032001100200020202a000c2507006f
:104d3c00ff240700c4240700a0002000010020006d
:104d4c00571a07000002be00440798005507980048
:104d5c002c1a07000002be00040f9800150f9800d3
:104d6c001e02be00e00f5200e08f5a0003003a0012
:104d7c000e0a90009e0a9000048fbe0004022000d0
:104d8c000e02420004007800c616070000027800ec
:104d9c00e00f520028003200040220000e024200f4
:104dac000400780024ff0700d4678000e00f520055
:104dbc00210032006e129000fe1290004e109000f6
:104dcc00de1090002e149000be149000e60d200012
:104ddc000e0343000001be000800be00cffd07001b
:104dec00a60e20000e034300e50d20008e8242002b
:104dfc00640520000e024200060178008500780050
:104e0c0004007800b7fe07005eb29000eeb290008e
:104e1c0024179800351798007eb290008eba900037
:104e2c0044179800551798001eba9000aeba90001f
:104e3c0064179800751798003e1b9000ce1b9000cd
:104e4c002e129000be1290000401be000600be009f
:104e5c00ccf307000002be000200200003f0230088
:104e6c000400be00acf407000002be00341f980022
:104e7c00451f98005e1b9000ee1b90004e12900098
:104e8c00de1290000401be000600be00bdf3070058
:104e9c000002be000200200003f023000400be004c
:104eac009df407000002be00541f9800651f980077
:104ebc00e4678000e00f5200130032007e1c90006b
:104ecc008e2490006e129000fe129000a2702d00a5
:104edc0033c223000400be008ff407000002be00a2
:104eec000401be000800be00a6f307000002be00cd
:104efc000400be00a6fe07000002be00741f98004e
:104f0c00052798000f0037007e1b90008e23900021
:104f1c006e129000fe1290000401be000600be004e
:104f2c0098f307000002be000200200003f02300eb
:104f3c000400be0078f407000002be00741f980045
:104f4c0005279800d52307000002be00240f980007
:104f5c00350f98000e1390009e13900026079800b2
:104f6c003707980018c0b30002002000030024008b
:104f7c002e089000be08900058f20700000278003e
:104f8c00e00f520001003c000044eb00e04f5400e5
:104f9c000d0032006e019000fe0190002e0090007a
:104fac00be0090005cf407000002be002e099000c9
:104fbc00be0990000400be00f7f607000002be0018
:104fcc0024079800350798001e1a9000ae1a90001e
:104fdc002e019000be0190000400be0069f3070092
:104fec000002be000200200003f023000400be00fb
:104ffc0049f407000002be00141f9800251f9800fa
:10500c000e1a9000142798001e229000e00f5200f8
:10501c0020003a006022b80054af980065af9800a9
:10502c005eaa9000eeaa900034af980045af9800ad
:10503c003eaa9000ceaa900014af980025af98001d
:10504c001eaa9000aeaa900074a7980005af980015
:10505c00e40c20000e02420004007800c81c07007b
:10506c00a0002000010020007b1907008000eb004d
:10507c000000eb006b250700a000200001002000c1
:10508c00751907008000eb000000eb006525070098
:10509c00eefe3700d12407000002be00440f98003a
:1050ac00550f980018c0b3003233230033eb2300a4
:1050bc004e089000de08900006f20700000278000f
:1050cc00e00f5200010035000044eb00e04f5400ab
:1050dc00190032004e0a9000de0a90000401be0056
:1050ec000400be0027f307000002be00640f980006
:1050fc00750f98001e1a9000ae1a900018c0b300dd
:10510c006e099000fe0990000400be00f3f1070048
:10511c0000027800e00f520001003c000044eb005c
:10512c00e04f5400040032006e0a9000fe0a90001a
:10513c00141f9800251f9800450420008e82420001
:10514c00240320000e024200850078000400780041
:10515c00d1fc0700e40920000e0242000400780094
:10516c00a925070000027800e00f520037003a0032
:10517c00e4678000e00f5200290032005e9290003c
:10518c00ee92900005f0a200a60720000e0343004b
:10519c00060178000400be005efd07007e1a900038
:1051ac008e2290005e189000ee1890003e1c90002d
:1051bc00ce1c9000660f20000e0343000001be00c1
:1051cc000800be00d5fc0700261020000e0343008b
:1051dc00650f20008e824200a40720000e024200c0
:1051ec00060178008500780004007800bdfd0700fa
:1051fc001e029100ae02910044279800552798009a
:10520c003e029100ce029100642798007527980009
:10521c005e029100ee029100042f9800152f980069
:10522c00e60c20000e034300e50920008e824200ac
:10523c00440420000e02420006017800850078002c
:10524c00040078008f010700100037002e22900018
:10525c00be22900054af980065af98005eaa9000f3
:10526c00eeaa900034af980045af98003eaa90008b
:10527c00ceaa900014af980025af98001eaa9000fb
:10528c00aeaa900074a7980005af98007e9290008b
:10529c008e9a900018c0b3000200200003f0230087
:1052ac000400be008bf1070000027800e00f5200f2
:1052bc00010034000044eb00e04f54001c003200ad
:1052cc002e229000be22900018c0b300d2cc2c002d
:1052dc00c3ec23000400be007ef10700000278003e
:1052ec00e00f5200010034000044eb00e04f54008a
:1052fc000f0032006022b80054af980065af9800e0
:10530c005eaa9000eeaa900034af980045af9800ca
:10531c003eaa9000ceaa900014af980025af98003a
:10532c001eaa9000aeaa900074a7980005af980032
:10533c00e40c20000e02420004007800101c070050
:10534c000e0a90009e0a90003e035200ae835a0053
:10535c000602be00d4618800e56188001e929000b0
:10536c00ae929000f4618800056288003e92900035
:10537c00ce92900014628800256288005e929000a4
:10538c00ee92900034628800456288007e92900014
:10539c008e9a900054628800656288001e9a900074
:1053ac00ae9a900074628800856288002e2290006c
:1053bc00be22900094628800a56288004e22900064
:1053cc00de229000b4628800c56288006e229000d4
:1053dc00fe229000d4628800e56288000e2a9000bc
:1053ec009e2a9000f462880005638800c4568000f1
:1053fc00d55680001463880025638800a722070017
:10540c000002be003463880045638800a4c32000fa
:10541c000103200004007800822407004e00900055
:10542c00de009000c318070043fe37000400fa00aa
:10543c00881f7800008fbe0018c0b300b2fd20009a
:10544c0093042c001e00be0022f10700000278001d
:10545c00e00f5200010035000044eb00e04f540017
:10546c0006003200b2fd2000930c24001e00be008a
:10547c0044f207000002be001200370018c0b3004f
:10548c00b2fd2000930424001e00be0013f107009f
:10549c0000027800e00f520001003c000044eb00d9
:1054ac00e04f540006003200b2fd2000930c2400a3
:1054bc001e00be002af207000002be0001003700e9
:1054cc001e02be000400be004f0478000080fa00eb
:1054dc00000006000400fa00881f7800008fbe0050
:1054ec0018c0b300b2fd200093fc2b001e00be00c0
:1054fc00f8f0070000027800e00f520001003500c0
:10550c000044eb00e04f540006003200b2fd2000d6
:10551c00930424001e00be001af207000002be0015
:10552c001200370018c0b300b2fd200093fc23001a
:10553c001e00be00e9f0070000027800e00f5200e8
:10554c0001003c000044eb00e04f54000600320028
:10555c00b2fd2000930424001e00be0000f20700e0
:10556c000002be00010037001e02be000400be0097
:10557c004f0478000080fa00000006000400fa00d6
:10558c00889fbe00c6568000d7568000740c8500dc
:10559c00850c850018c0b3000401be000600be00d7
:1055ac00ccf0070000027800e00f5200010035003b
:1055bc000044eb00e04f54000a0032006022b800b7
:1055cc0044578800555788006022b80064578800fb
:1055dc00755788006022b80084578800955788005a
:1055ec009f0037004656800057568000940c85006b
:1055fc00a50c85000401be000600be00c6f2070023
:10560c000002be00048fbe0048578000595780002e
:10561c00e4568000f55680001e01be000400be005a
:10562c00bdf207000002be000401be000800be006f
:10563c00d4f107000002be0044578800555788007b
:10564c0068578000795780000457800015578000f8
:10565c001e01be000400be00aff207000002be0037
:10566c000401be000800be00c6f107000002be0027
:10567c0064578800755788008857800099578000b8
:10568c0024578000355780001e01be000400be0068
:10569c00a1f207000002be000401be000800be001b
:1056ac00b8f107000002be008457880095578800a7
:1056bc004657800057578000b40c8500c50c8500f8
:1056cc0018c0b3000401be000600be0083f0070042
:1056dc0000027800e00f520001003c000044eb0097
:1056ec00e04f540004003200b40c8500c50c85005a
:1056fc0044578800555788004657800057578000fc
:10570c00d40c8500e50c850018c0b3000401be0064
:10571c000600be006ff0070000027800e00f520098
:10572c00010035000044eb00e04f5400040032004f
:10573c00d40c8500e50c850044578800555788002b
:10574c006657800077578000b40c8500c50c850027
:10575c0018c0b3000401be000600be005ff00700d5
:10576c0000027800e00f520001003c000044eb0006
:10577c00e04f540004003200b40c8500c50c8500c9
:10578c0064578800755788006657800077578000eb
:10579c00d40c8500e50c850018c0b3000401be00d4
:1057ac000600be004bf0070000027800e00f52002c
:1057bc00010035000044eb00e04f540004003200bf
:1057cc00d40c8500e50c850064578800755788005b
:1057dc008657800097578000b40c8500c50c850057
:1057ec0018c0b3000401be000600be003bf0070069
:1057fc0000027800e00f520001003c000044eb0076
:10580c00e04f540004003200b40c8500c50c850038
:10581c0084578800955788008657800097578000da
:10582c00d40c8500e50c850018c0b3000401be0043
:10583c000600be0027f0070000027800e00f5200bf
:10584c00010035000044eb00e04f5400040032002e
:10585c00d40c8500e50c850084578800955788008a
:10586c004f04be000080fa00000006000000fa00a1
:10587c006022b80024568800355688000080fa0053
:10588c00000006001600fa00881f7800000f980030
:10589c00110f9800220f98001e0a90001403be00ee
:1058ac00260798003707980024568000355680004c
:1058bc00e00f5200e08f5a0013003a006022b8004b
:1058cc0044568800555688001e0a9000b402900079
:1058dc002402900064568800755688001e0a9000b9
:1058ec00d40290004402900084568800955688009b
:1058fc001e0a9000f402900064029000a4568800e6
:10590c00b5568800100037002456800035568000ac
:10591c002e039000be0390000402530085825b00ae
:10592c000400be000df007000002be0052f92b006f
:10593c00634523000400be00f7f107000002be001f
:10594c0044568800555688002e029000be029000e6
:10595c0024568800355688000e0a90001402be00aa
:10596c00c4568800d55688001e0a9000940a9000f0
:10597c00040a900018c0b3006011b8000400be0007
:10598c00d6ef070000027800e00f520001003c0047
:10599c000044eb00e04f54001a0032001e0a900045
:1059ac00040b9000940b9000068fbe0018c0b3003f
:1059bc00d2cc2c00c3f423001e00be00c5ef0700a0
:1059cc0000027800e00f5200010035000044eb00ab
:1059dc00e04f540003003200d4cc2c00c5f423005b
:1059ec00048fbe00c4568000d55680001e01be0038
:1059fc000400be0068f407000002be00c456880014
:105a0c00d5568800c4568000d556800018c0b30007
:105a1c00a299290093f523000400be00afef070004
:105a2c0000027800e00f520001003c000044eb0043
:105a3c00e04f540004003200a499290095f523008e
:105a4c00c4568800d55688000e0a90002403900096
