:020000040000fa
:080000000002040000000000f2
:020000040000fa
:10040000afb920000e7f22000e018800000000001e
:1004100000012000200288000c000700e079230082
:100420000100200011000700000020000000e00093
:10043000020032000000020000000000743f0200d1
:10044000000000000040da000000fe004440a90067
:10045000000220000000e000030032000000200045
:10046000a00188004440a800000006009101880017
:10047000800078000000eb0015003700e2804000ab
:1004800032a0b4009101ba00e280400032a0b40072
:100490009102ba00e280400032a0b4000002eb00fa
:1004a000472bde00f507b200602ce10004003a00a3
:1004b0000059eb008301e900fdff3e000400370016
:1004c0006128e100010032000082eb000400070017
:1004d0001101ba000200e000e8ff3a000000060047
:1004e0003159ba008301e9000c0032002159ba00e9
:1004f0008301e900080032000400e00003003a0034
:10050000e280400032a0b400f5ff370011d9ba00f4
:100510008301e900faff3a008100e800e180400031
:1005200032a0b40000000600e03f0400000000001c
:10053000ca020400000000003600f800809fbe00e0
:10054000829fbe00849fbe00869fbe000000fa000e
:1005500084a0a900a42c200004007800a3170700a1
:1005600000027800e00f520003003a000002eb00a6
:10057000045a88000602a8000080fa004f03be005b
:100580004f02be004f01be004f00be003600f90012
:10059000004006000200fa00451080000400280018
:1005a00004826200e00f52000f003a004510800004
:1005b0000440200004826200e00f52000a003a006a
:1005c000451080000408200004826200e00f520001
:1005d00005003a00451080000404200004826200f7
:1005e000e00f520002003200e3170700a2003700bc
:1005f000045a80000500200076002000070020003b
:10060000860f5200878f5a0098003e000460010058
:10061000070037000f0037001300370016003700bf
:100620001d00370023003700380037003c0037003a
:10063000a47b2900144278008482fb00e40f200090
:10064000048262001410880014002000045a8800fc
:100650008800370034002000141088002400200097
:10066000045a8800830037000622a80034002000c6
:10067000045a88007f003700a47b290014427800c8
:100680000404a0000482fb00141088004400200031
:10069000045a88007700370008c2a9000662a80043
:1006a0000002eb00245a880054002000045a8800fd
:1006b00070003700265a8000041080000442780041
:1006c00065b5200085024300844a7800245a8000e2
:1006d0000402e800245a8800245a8000e50f5200e2
:1006e00005003e0006a2a9000682a80064002000c2
:1006f000045a88005f00370006a2a8000682a800fe
:1007000074002000045a88005a00370008c2a9006b
:100710000662a80054002000045a880055003700e3
:100720009517070064b5200014427800144798001c
:1007300074b5200014427800044f78001e0278003f
:100740000402ea00cfa2de00e45a8800f55a8800cd
:1007500084b52000144278001447980094b5200016
:1007600014427800044f78001e0278000402ea0068
:10077000cfa2de00245b8800355b8800a4b5200092
:100780001442780014479800b4b520001442780051
:10079000044f78001e027800cfa2de00045b8800c0
:1007a000155b8800145a8000e00f52000d003a00db
:1007b000e45a8000f55a8000545a8800655a88002f
:1007c000045b8000155b8000745a8800855a88009d
:1007d000245b8000355b8000945a8800a55a88000d
:1007e00018003700565a8000675a8000e45a80008b
:1007f000f55a80000602420087824a00545a880057
:10080000655a8800765a8000875a8000045b800011
:10081000155b80000602420087824a00745a8800f5
:10082000855a8800965a8000a75a8000245b800071
:10083000355b80000602420087824a00945a880095
:10084000a55a8800345a8000455a8000610242004f
:10085000e0824a00345a8800455a8800145a8000c1
:100860000402e800145a880002003700421707000b
:1008700001003700000000000080fa0000000600c0
:100880003600f800809fbe00829fbe00849fbe009d
:10089000869fbe000200fa008620a9004410800056
:1008a00070026200e00f5200270032009620a9007b
:1008b0000002eb00745b8800845b800004427800d7
:1008c000614262000482fb00610262004422dd009a
:1008d000b6048000f5fe2f008502630004827200da
:1008e000b4048800945b8000044278006142620096
:1008f0000482fb00610262004522dd00a604800044
:10090000f5fd2f008502630004827200a4048800b4
:10091000a45b800004427800614262000482fb0014
:100920006102620004024200a6048000d5ff2f008d
:100930008502630004827200a4048800b45b800016
:10094000c45b880009003700745b8000040f7800e6
:100950001e027800e00f5200030032001e027800f1
:100960000400010001003700000000000080fa00d0
:100970004f03be004f02be004f01be004f00be003d
:100980003600f900004006000000fa008600a900c9
:100990000080fa0000400600849fbe00869fbe00d3
:1009a0000000fa008460a900f45b8000055c800010
:1009b00061024200e0824a00f45b8800055c880026
:1009c000f65b8000075c8000145c8000255c800082
:1009d000840f5300858f5b00080036000082eb0017
:1009e0008082eb00145c8800255c8800345c800009
:1009f000e00f5200010032008bc0a8000080fa0016
:100a00004f03be004f02be00004006003600f80053
:100a1000809fbe00829fbe00849fbe00869fbe0056
:100a20000200fa008bc0a900345c8000040f78003b
:100a30001e027800e00f5200020032001e02780011
:100a4000040001000080fa004f03be004f02be0008
:100a50004f01be004f00be003600f9000040060006
:100a6000849fbe000000fa00a45c8000e00f5200ea
:100a7000160032000c003700b55c800004902000a6
:100a800004824200144278000482fb002411880092
:100a9000b45c80000402e800b45c8800a45c8000c0
:100aa0000402e900a45c8800a45c8000e00f52000e
:100ab0001200320015118000042020000482620020
:100ac000e00f5200ecff32000c003700947d29004b
:100ad000144278000482fb0024118800000000000a
:100ae000947d2900144278000482fb0024118800c0
:100af0009580a90014002000945c88008580a900de
:100b00000080fa004f02be00004006000040da00fc
:100b10000000fe00889fbe008a9fbe008c1f7800e8
:100b2000240007001002200002003b00c05c880087
:100b3000280037008a0062006408e10002003a00e1
:100b4000c05c8800300037006108e100fcff320023
:100b50000800be0003047800bc03070001f0a100f8
:100b60005602070008f0a600040037000001be008e
:100b700091042400b0fd20002600070009f0a70022
:100b800001f0a2001c00370014002000b806370056
:100b9000f4ff2f00b60637004f89de00820178008f
:100ba000ce0637006011b800dc06370004002000d4
:100bb000af0637000004be002d0707000003be008b
:100bc0000405be000200be0029070700844f75001f
:100bd000000006000200be006450e100050036007f
:100be0006420e100020036000968a30001003a0019
:100bf0000800be000160a0004f0678004f05be004f
:100c00004f04be0000000600f0ff2f00f1ff270098
:100c1000f9ff370007f82700078361000638e10075
:100c200004003a00f7072000878361008703710002
:100c300001003a0003f0a200889fbe008a9fbe0018
:100c40008c9fbe00470ade000480a100c71ade00a8
:100c50000580a100070028000785600087856100e6
:100c6000f70f20000720e1009e0032000728e10076
:100c70009c003200010678000400e000b40032005d
:100c8000f7072000878060000170a0000500e000e9
:100c9000c0003200f7072000878161000370a000c8
:100ca000050652000f003a000b50e1000b00320025
:100cb0000308e10002003a000200e1007e00320079
:100cc0000204500083845800040031000001fd003c
:100cd0008101fd008402fd008a05fd006044b8002a
:100ce000210037000520e10005003d000001fd0066
:100cf0008101fd008402fd008a05fd000506520009
:100d00007a60e100050035000170a1004722dd0096
:100d1000848070008a807000630037006044b800ef
:100d2000ef02660007ff2f00070666000500e000df
:100d300006003400f08312008714dd000511de0088
:100d4000071bdd00060171008519de007060e100ff
:100d5000050035000904780082047800030178005a
:100d60008001eb00700656000b50e10003003a00d2
:100d70000200400083804800040037006004140033
:100d8000e0841c0002005800838058000188a30002
:100d9000060032008100d1000080d3008984d30096
:100da0000884d3000402e800270037000178a3007c
:100db00025003a000100e000030032008186cf00e8
:100dc000698656000a0037008c0020000000e00011
:100dd00004003a0009007800880478000004eb0061
:100de000700252008086cf000d0646000c06e90016
:100df0007060e1000600350080007800090078008e
:100e0000880478000004eb0070065600700252005f
:100e10000c00e0000c0034008c08dd00f00316002c
:100e20000703de00868070000c00dd00074bde004b
:100e3000060070008c4cdd000743de0086847400e1
:100e40000c44dd000c0252006120e100200035005e
:100e5000610160000700280087816400f7ff270018
:100e600087836400070374000300e000060032007b
:100e700082037300040032000000e800e0804800b4
:100e80000188a3000e003a00f70f20000720e100c0
:100e90004a003d000170a1004722dd008100720080
:100ea0008a8070000000be004f06be004f05be00e5
:100eb0004f04be00000006006000b800faff3700d3
:100ec0008100d1000080d3000402e800eeff37006b
:100ed0000401780089017400600407008a807000b2
:100ee000f1ff37009c060700070278000001fd00b3
:100ef0008101fd00980607008702780085037200d3
:100f00000778a300040032000001fd008101fd000c
:100f1000ad030700e4ff3700850362000768a30004
:100f2000080032000b50e10003003200f0ff2f00f8
:100f3000f1ff2700dcff37000001fd008101fd000b
:100f4000d9ff37000468a300d7ff3200faff37004b
:100f5000f8ff2700888360000b003a000000e000e3
:100f600009003a00830364008283730002003200a8
:100f70000200be00ccff37000b50e100ceff3a006c
:100f80000200be00c8ff370014002000810064008a
:100f90003eff3700f8ff27008883610004003a0015
:100fa0000200e00002003a008c007800beff37002b
:100fb000150020008301640039ff370001f8270085
:100fc0000000200081007500b7ff37000383680030
:100fd0000700280007036300470ade000480a10021
:100fe000c71ade000580a100f70f20000720e100ee
:100ff000420032000728e10040003200889fbe0016
:101000008a9fbe008c1f7800f107b200f307b20080
:101010000400e000640032000170a0000500e00060
:10102000680032000370a00085054200eb07b100a4
:101030000204b8000302b8008484440060854a00ba
:10104000020ab800848444000a854a00030ab800f2
:1010500004054500040033000804d0008984d20050
:101060000a85d2008b05e9006158e1003d0035009a
:10107000021020000901610003082000898161003d
:10108000f70720008783640008867300c84cde00e1
:10109000c853dd00878474004855de000300e0007b
:1010a0000600320082037600040032008904e80062
:1010b00060054d000a88a3000c003a00f70f2000dd
:1010c0000758e10044003d000a70a100c75ddd0043
:1010d0000a8575008a007300090078004f067800c1
:1010e0004f05be004f04be00000006000a05d100f7
:1010f0008984d3008b05e800f0ff3700881f780053
:101100000604780014060700070278000001fd00bd
:101110008101fd0010060700870278008503720038
:101120000778a300050032000001fd008101fd00e9
:10113000250307004f0478000000060085037200b5
:101140000748a30003003200f0ff2f00f1ff270043
:10115000f8ff37000000200001f8270088807000a9
:10116000f4ff3700880178004848dd008081710075
:101170004848de00c850dd0001007000c850de00a5
:10118000060478000b017800b40307008880700023
:10119000d2ff37000500e0000500320017002000f4
:1011a000fb0107009dff370081037000f9ff3a0043
:1011b000860078004f0678004f05be004f04be0041
:1011c0000000050083037100f9ff320027002000b2
:1011d000ef01070094ff370001f8270086807000b8
:1011e000f4ff37008c9fbe003400f800020020009e
:1011f000a2018800020028000286600001f0a10020
:101200000200200003f023000201500083815800f7
:101210000c0031000200200003982300020150005e
:101220008381580003003900590307008b00070031
:1012300004040700810076003400f9004f06be0068
:10124000000006008a9fbe00889fbe0002002000aa
:1012500003f8230002015000838158001900310077
:10126000340007006822b800046001000201e900b0
:1012700014d52e0075482600f3ff2f00a6030700a3
:101280000000000000000000230037005455250036
:1012900055552500e3ff2f00168e240057302400fb
:1012a00008002000190107001b0037000201e800b8
:1012b00014d52e0075482600030020009103070076
:1012c000150037000200e00006003a000300e000cd
:1012d00004003a00b0fd200091fc2300810076005c
:1012e0000f003700810076009b0507000758a30018
:1012f00004003a000778a300020032000160a00059
:1013000002003700f0ff2f00f1ff2700120220003b
:10131000c25c880002003700ca0307008100760023
:101320004f04be004f05be003400f9004f06be005a
:1013300000000600889fbe008a9fbe008c9fbe00f2
:10134000723d2b00d3f52300020150008381580029
:101350000d0031000e0307000002be00820178007c
:101360000600200007002c00f8ff2f00e700070010
:101370000100e000020032000201e800370007002f
:101380000002eb0031003700e2352800c3f62300ed
:10139000020150008381580010003100fc02070058
:1013a000809fbe00821f78000201e8000002be009c
:1013b000820178000600200007002a0018002000a3
:1013c000d2000700cf0178004f02be00870207005d
:1013d00022000700140020001c003700ec02070068
:1013e0008201e9000002be0000002000010024008c
:1013f000f2ff2f0046030700809fbe00821f780087
:10140000e3030700ef0141000300e0000c0035009a
:101410000005be00820478004f0178004f00be0036
:1014200053002000647a29004b0107000a02be0025
:10143000890178006d0207002400200003003700b6
:10144000cf0178004f02be00240020004f06be00ee
:101450004f05be004f04be00000006000100e00082
:1014600015003200ef01410013003500809fbe00df
:10147000821f7800e401410006003c000002be002b
:10148000820178005902070053002000647a290085
:10149000050037000002be008201780053020700f9
:1014a00073002000e47929002b010700cf017800a8
:1014b0004f02be004d02070000000600889fbe00dc
:1014c0008a9fbe008c9fbe003400f80006002000fa
:1014d000a6018800060028008686600001f0a100b1
:1014e0000600200007e02300060350008783580011
:1014f0001200310006002000079823000603500068
:10150000878358005c003900a10207000005be0077
:10151000820478000002be008201780033020700d6
:1015200043002000a4702900560507000a02be00ef
:10153000890178002d0207004e00370006002000c8
:10154000071024000603500087835800380031003c
:101550000600200007fd2300060350008783580083
:101560000b0031008a0207000005be0082047800eb
:10157000620141001205070000067800ef03070032
:1015800062015100809fbe00821f78000800370072
:101590007f0207000005be008204780008050700ee
:1015a00065064000e5030700809fbe00821f7800ab
:1015b0000a02be008901780007002400060020000e
:1015c00008002000510007000005fd008105fd0016
:1015d0008204fd00cf0178004f02be00cc0207005c
:1015e0000a02be0089017800e101070001047800c9
:1015f00008f8a3000200320060001000e08018002c
:101600002d00070008f8a30002003200600010005f
:10161000e0801800a67129006665b8000603450041
:101620003602be0096017800bb02070011003700a9
:101630000600200007c824000603500087835800d6
:1016400013003100520207000002be008201780040
:10165000010024000000200002002000c401070057
:10166000150007007548260014d52e000300200041
:10167000a4020700f30207008d8070003400f90017
:101680004f06be004f05be004f04be00000006001e
:10169000b10407000778a30003003a00b0fd200062
:1016a00091fc2300f4ff37000160a0001602200027
:1016b000c65c8800f0ff37000100e0000d0032003a
:1016c000ef0341000b003500809fbe00821f7800b1
:1016d0000002be0082017800c40107004300200020
:1016e000a4702900e7040700cf0178004f02be0074
:1016f000be0107000000060060001000e080180036
:101700000200370060031300e0831b00889fbe00c7
:101710008a9fbe008c9fbe00830441000405b80070
:10172000050eb8000501b8008285450003064e008d
:10173000e0864e000409b8008285450003064e008d
:10174000e0864e000100e00002003d000406560065
:1017500085865e000500e00002003d0000065600a0
:1017600081865e000d00e000740032000700e0009a
:10177000750032006022b8008783d1000683d30051
:101780008582d300090054000000e9001b003c00e2
:101790003b0035000804e8000a0042008b804a0044
:1017a0000c014b008d814b006005070004045400c0
:1017b0000300e0000e003200090028000918e100d3
:1017c000060032000200be00080178004f06be008d
:1017d0004f05be004f04be00000006000200e000fe
:1017e000f8ff3a0003002c000804e800f5ff37007a
:1017f0006000b8000001eb00f4ff37000804e800c7
:101800007e00e10001003400e0012000cfecde00aa
:10181000ef0060000100e0000c003200f0811000d9
:101820000155de000359dd0002057500815dde0013
:101830000361dd00828575000166de000369dd005d
:101840000206760081eede00010050004400de005a
:101850006501b800026001000a0042008b804a0066
:101860000c014b008d814b00cfff37000b00420075
:101870008c804a000d014b0089814b00caff370064
:10188000628444000000ea00030420000300e10039
:101890000100340000042000cfbcde00ef00600037
:1018a0000a003200f0811000032add00812ade00e8
:1018b0000331dd00828272000133de000339dd0076
:1018c0000203730081bbde00010050004400de0013
:1018d0006501b800026001000a0042008b804a00e6
:1018e0000c014b008d814b00afff37000a80420096
:1018f0008b004b000c814b008d814c00aaff370000
:101900000a0043008b804b000c814c008d814c0001
:10191000a5ff37000a8043008b804c000c814c00ef
:101920008d814c00a0ff37000a8044008b804c0062
:101930000c814c008d814c009bff37000600be00df
:1019400008017800a1ff37000c01be000a00be00ac
:101950006284440094ff3700e10241000200350038
:10196000cc04070000000600e2024100020035003e
:101970001c03070000000600e302410002003500de
:10198000d0030700000006003e0407000000060028
:10199000889fbe000004eb006138e10016003a00a9
:1019a0000100e00008003a00c800de004800dd0049
:1019b000880020000100e00003003a00c800de00bb
:1019c0004800dd00680444008184cf00e9845400ad
:1019d000060034008908dd00f08314008703de0070
:1019e000878070000900dd000904440061021400d2
:1019f0004f04be00000006000300e00008003a00ab
:101a0000c811de004811dd00880020000300e0005e
:101a100003003a00c811de004811dd0068044400ec
:101a20008384cf00e9845400060034008919dd0066
:101a3000f08314008713de00878171000911dd0037
:101a400009044400e1021400e9ff3700889fbe004a
:101a50008a9fbe008c9fbe001b0020000202be00b9
:101a60000586680006002800060666004709de00b5
:101a7000f20fb200820032000243e8008000320020
:101a8000c729de00f30fb2007d0032000343e800f7
:101a90007b003200f107b2000170a000f507b20030
:101aa0000570a000c708dd004903de0086807000d5
:101ab0004700dd00c72add004923de008682720070
:101ac0004722dd00030551000403500085835800c0
:101ad0000300310000004000818048000a05e90051
:101ae0008c1f78008a9fbe0004005000858058003b
:101af0000402420085824a000000400081804800c4
:101b00000005eb000004be006033b8000406be0010
:101b10000d48e10056003100110009004dccd800fd
:101b20000c01b8000d02b8008481410060824a00b7
:101b30008283530003045c0084845c0060055d00c4
:101b40000a00e00025003a00800578000d40e10021
:101b50004900310088007800070078001100090072
:101b60004d88d8000c01b8000d02b80084814100f6
:101b700060824a006003110083835b0004045c0000
:101b8000e0845c000900e00021003a004f01be0043
:101b90000300e0002b003200e30160000706730041
:101ba0008c81710001003200640070004200de0090
:101bb0004e5edd000c007000c258de0001e0a000a7
:101bc000a0010700cf017800818071004f06be00a0
:101bd0004f05be004f04be00000006008c8343008a
:101be0000d044c00e0844c0060054d000000e9004d
:101bf0000a00e000d4ff32008c8343000d044c0047
:101c0000e0844c0060054d000000e900ceff370085
:101c10000c0343008d834b0060044c00e0844c00b7
:101c20000000e9000900e000d8ff32000c03430087
:101c30008d834b0060044c00e0844c000000e90000
:101c4000d2ff37004200de004e5edd000c00700067
:101c5000c258de0001e0a000cf0178000300e000e0
:101c6000daff320060001000e0801800d7ff370074
:101c7000f0ff2f00aaff3700f0ff2f00b9ff370059
:101c80000404be0034030700870678000004fd004a
:101c90008104fd0030030700078366000678a30077
:101ca000030032000960a7000800be002c003700c6
:101cb0000d78a300020032000800be0028003700a3
:101cc0000778a30026003a0001f0a10009f0a10066
:101cd0000668a30003003200f1ff2700f0ff2f0089
:101ce000baff37000d68a300030032000800be00f1
:101cf0008c807000b5ff37000768a30007003a002a
:101d00000648a30003003200f1ff2700f0ff2f0078
:101d1000aeff37000d48a300030032006000b8009a
:101d20008c807000a9ff37000748a3000400320030
:101d300001f82700000020008c807000a3ff37000e
:101d4000930007000004fd008104fd0002057800f7
:101d50008f0007000802be008a01780059ff370093
:101d60000160a00012022000c25c880097ff3700cb
:101d70000100e000120032000500e0001000320017
:101d8000889fbe008a9fbe008c9fbe000006eb00ad
:101d900001f8a3000300320060001000e08018008a
:101da0000cf0a00005f8a30003003200600212004e
:101db000e0821a000cf0a2008005eb0041ff370022
:101dc0006000b800020005000478a300040032009f
:101dd0000578a300030032000168a30001003a0067
:101de0000200be000160a00000000600889fbe0047
:101df0008a9fbe000004be000405be00030141002e
:101e00000201e8008000eb000a42b8000b43b80072
:101e10008682420060804b000a4bb80086824200f6
:101e200007004800e08048000b4bb8000600400067
:101e3000878048000103700002003a000001eb00b7
:101e4000120037000900e00002003d000a005000c7
:101e50008b8058000b00e00002003d00080050009d
:101e60008980580085824200000048008180480037
:101e70008101df000300e00004003200858242009f
:101e800000004800818048000201e9004f05be00c3
:101e90004f04be000000060001f8a3001d003a0038
:101ea0004709de00f40f20000410e1002600320094
:101eb0000200e0002c003200f107b200c708dd008c
:101ec0004902de00848070004700dd0001e0a000d0
:101ed000f207b1002e010700f207b0000404200051
:101ee000840160004700de00490add000400700044
:101ef000c708de000300e00002003200610040007d
:101f0000e0804800f107b2004711dd0082807000d8
:101f100000000600f4ff27000482600080027200c7
:101f200001003a000000060006f827000620e10044
:101f3000120035008102630006826a00040270000c
:101f40000e0032000600370004f827000482680003
:101f500003003a000400200000026a000b00320077
:101f60000160a000000006000082700001003a003d
:101f70000000060006000700d6ff3700120220000e
:101f8000c25c8800f0ff2f00f1ff27000000060070
:101f90004f0ade004709de00f107b200f20fb2007f
:101fa0000b003200f207b1000170a000c708dd008d
:101fb000c901de00838070004700dd000400a60038
:101fc0000000060060001000e0801800000006001d
:101fd000810f700001003a00000006008182cf00ee
:101fe0000500e00010003e008082cf00ee8242003b
:101ff0007028e1000400390007003e0080007800ee
:102000000000eb000e003700708312008600de0037
:102010000500dd000a003700708352008600dd00f5
:102020000000eb0006003700e28252008508dd0068
:10203000708312000603de00868070000500dd005c
:102040007507b0000501ea000400a60000000600c4
:1020500060001000e0801800000006000100e000b1
:1020600026003200610111007810e10023003c00dd
:102070006022b8007010e100040035008002780092
:10208000010078008000eb00700151000200e000c8
:102090000900340070031100062add00822ade00e8
:1020a0008603dd00878272000200de00860bdd0001
:1020b000070070008208de0084817100f4ff2700b1
:1020c000048262008481710004002800848262001e
:1020d0006102600005f0a6000000060004827100a5
:1020e000070032000000e800e08048000000060021
:1020f0000002be006000b800efff37006000b800cb
:102100000000060060001000e080180002003700a8
:1021100060021200e0821a000100e0003f0032007d
:102120000500e00039003200889fbe008a9fbe0093
:10213000820378008304510004003d000002fd008a
:102140008102fd008904ea00830378000101780020
:10215000800078000000eb0005037800840278001e
:102160000002eb0006056900070035000281d1007e
:102170008180d3000080d3000683d1008582d30004
:102180000482d3008703e8007048e10006003500b0
:102190007f48e10029003c000502780086027800b3
:1021a0004fb3de00f08454000900e0000800320064
:1021b0000922de00708514008a2ddd000b027200fa
:1021c000892ade008a35dd008b82720009b3de00c9
:1021d0000400400085804800060149006c020700a9
:1021e000838353000200e000090032000b00280046
:1021f0000b10e1000c003200010078008200780032
:10220000070178004f05be004f04be000000060025
:102210006000b8000001eb00faff37000400be00c8
:1022200003017800000006000100e000f2ff3a0020
:1022300002002c008703e800efff3700f9012000bf
:10224000d5ff370081017000270032008002eb00cb
:1022500001f8a3000300320060001000e0801800c5
:1022600015002000f4072000020242002000340084
:10227000f7032000870360000604200000036300ca
:1022800002082000000161004700de00c909dd00ee
:1022900000807100c708de000600e0000800320080
:1022a00087037100060032001000b0000180b0000a
:1022b0000188a30002003200c108de000402e80029
:1022c000f107b200f30f20000320e10003003d00fe
:1022d0004722dd00810072002900370001f8270045
:1022e0000000eb00260037006000b8000000060088
:1022f000680212007f20e100020034006000b80094
:102300001f0037006011b8007020e10004003500a4
:1023100080017800010078008000eb00700252001c
:102320000400e00009003400f00312000719dd008a
:102330008419de000703dd00868171000400de00e1
:10234000070bdd00060070008408de00f7ff2700a1
:102350008383630087037100060028000303630082
:10236000070032000700e00003003a00610160004e
:1023700002817300020032001000b0000180b00042
:102380000500a6000000060001f0a0000000060005
:102390008103700068003200889fbe008a9fbe00e3
:1023a0008c9fbe003400f80008002000a8018800bf
:1023b0000208a300030032000000d0008180d20098
:1023c0000201e90081017800800278000002eb0040
:1023d000821f78004a1cde000801b100e97629005e
:1023e00069417c000281fb000214b8004644dd0014
:1023f0000340e100010036000201e9004111dd0067
:102400001200b3000214b8004444dd000340e100b0
:10241000010036000201e9004111dd001200b300a5
:102420000214b8004244dd000340e1000100360020
:102430000201e9004111dd001200b3000214b800ee
:102440000340e100010036000201e9000214b80077
:10245000088651004763dd00492cde000803730045
:10246000820478004834de000940e1002e0031008b
:10247000110009000983d8004811dd000001710036
:102480000214b8000006eb008406780008855200ac
:1024900089855900040031000201e9000214b800e6
:1024a0000885520089855900820478000b04d10008
:1024b0008a83d3000d83d3000938e1001c0031006a
:1024c0001100090049bbd8008002eb000003b800ee
:1024d0000204b8000804440089844c00e0824a00e9
:1024e0008703440060824c00e0814a0006035600e6
:1024f00087835e0004025d0083815d00010031007e
:102500000000e9008200d1000080d3004f01780074
:102510004191de003400f9004f06be004f05be00b9
:102520004f04be0000000600f00f2000d2ff37006d
:10253000f0ff2f00e4ff3700020005000003eb006e
:102540008101df008301ea006f18e1000f00320013
:102550000300e000060032008308dd0070821100f5
:102560008402de00858070000300dd000303430069
:102570000100e00014003200040028000408e1001b
:10258000130032007e011300000006008100d1001c
:102590008080d3004f00dd00f60020008101df00c5
:1025a0008301ea006f18e100e9ff3a008100d100e1
:1025b0008080d3000000eb00e60120008101df00f5
:1025c0008301ea00e2ff37006000b8000200050066
:1025d0000000e000ebff3a0001002c000603e900d8
:1025e000e8ff37006218e1001b003500889fbe003d
:1025f0008a9fbe008c9fbe008301e9000004be00dc
:102600000205be00040678003c00be000801be00c2
:10261000830107003c004100bc8049008b05e900b4
:10262000faff3c000103df008606ea0005003400e3
:102630008d08dd00708216008402de008580700047
:102640000d00dd00060178004f06be004f05be00fc
:102650004f04be00000006000300e00002003a0044
:102660006000b800020005003400be000200050052
:10267000889fbe008a9fbe00841f78004df9070026
:102680004f00780011003300f0ff2f00838f6c00a3
:1026900006003b00040565000a00a700080037009b
:1026a00009f0a6001000200008003700820f540037
:1026b000838f5c00030039001000200001003e0001
:1026c0000000200009f0a7000000ea004f05be004e
:1026d0004f04be000000e00000000600881f7800e4
:1026e000030478000300e00007003d0060001000d4
:1026f000e080180060011900e081190002003b0031
:1027000001f02d00030037000400070008f0a700c7
:1027100001f0a0004f04780000000600889fbe0072
:102720008a9fbe0000827000040271000482710062
:10273000260032000004be000200be006011b80096
:102740006b092000950220000182cf000a003900a9
:102750000541b1000082cf00070039000541b100fa
:102760000982cf00040039000541b1000882cf0082
:10277000010039000541b10005425200120032004b
:102780000a003b0082817100610164008100d10078
:102790000080d3008984d3000884d3008b05e8002f
:1027a0000442e800f7ff3a0007003700080444003d
:1027b00089844c0000004800818048008b05e900b6
:1027c0000442e900f9ff3a00030007004f05be008c
:1027d0004f04be000000060081002000618055000b
:1027e0000b003d000b00200061fe2f000100e10006
:1027f0001d00340082817100610164008904d100f0
:102800000884d3000000e800faff3a0071002000bd
:1028100061006400030070000200600009003200e3
:1028200061044400e0844c000988a50005003200e2
:102830008b05e8006808e10002003a008904d10035
:102840000884d300f20f20000258e10005003d008b
:10285000c75ddd00f907b2008980750008007800c7
:10286000000006000bf827008b0078000000050030
:10287000c70ade00f107b200f50fb200080032000f
:10288000e1cf4200020032000170a00024000500e8
:10289000810f7000010032000408050044000500ab
:1028a000810f700002003a00140005008502e90063
:1028b0000000400081c04800fcff3b000170a00008
:1028c000240005006218e1001d003500889fbe004d
:1028d0008a9fbe008c9fbe008301e9000004be00f9
:1028e0000205be00040678003c00be000801be00e0
:1028f000cb0007008381d1000281d3003c0041005e
:10290000bc8049008b05e900f8ff3c000103df00b3
:102910008606ea00050034008d08dd00708216008e
:102920008402de00858070000d00dd000601780065
:102930004f06be004f05be004f04be00000006005b
:102940000300e00002003a006000b8000200050049
:102950003400be00020005002700200001f0a7009f
:1029600017002000470bde00f60fb2000400320013
:102970000643e8000a0032004702b30000000600e8
:1029800001037800f607b2000603700002003a0067
:102990000703b300000006008702b3000000060032
:1029a00001037800f607b20006037000020032004f
:1029b0000770a000000006000760a00000000600ed
:1029c0000100e000210032008201e8002b00350008
:1029d0007e0211001e0034006011b8007020e1007a
:1029e000040035008001780001007800cf88de0007
:1029f000700252000400e00007003200030178007a
:102a0000700312008601dd000400de00860bdd008d
:102a1000070070008488de00e102600006002800e4
:102a200003036300f7ff270083836300828373003f
:102a30000600e00005003200078172000200e0009d
:102a40000200320061004000e08048000000060003
:102a50007e10e10001003a00000006000100e000e5
:102a600003003500f1ff2700f0ff2f0000000600f3
:102a70000100280000002000000006006000b800ef
:102a8000000006006218e1003b003500889fbe0090
:102a90008a9fbe008c9fbe008301e9000004be0037
:102aa0000205be0004067800620545000a05ea003a
:102ab0003c00be007050e100170035000d003200f0
:102ac0007f50e10001003400fa012000f0065500bb
:102ad0000801be00520007000d99de00cf99de000c
:102ae0003c004100bc8049008b05e900f8ff3c0038
:102af000140037000801be004900070003017800f8
:102b0000cf99de003c004100bc8049008b05e90004
:102b1000f8ff3c000b003700f00615000801be006e
:102b20003f0007000a11de008d1add00050171006b
:102b30008a99de003c004100bc8049008b05e90019
:102b4000f6ff3c000103df000605ea000500340043
:102b50008a08dd00700215008402de0085807000a6
:102b60000a00dd00060178004f06be004f05be00da
:102b70004f04be00000006000300e00002003a001f
:102b80006000b800020005003400be00020005002d
:102b90008001eb000202df000402ea006f20e10086
:102ba00010003a000201d1000181d3008080d300df
:102bb0004f00dd00f30020000202df000402ea0003
:102bc0006f20e10007003a000201d1000181d3002b
:102bd0008080d3000000eb00e30120000202df0050
:102be0000402ea000400e00009003200f0021200d2
:102bf0000411dd00050bde00060171008408dd0014
:102c00000503de00868070000400dd008481410041
:102c10000200e00001003200000006000300050091
:102c2000889fbe008a9fbe008c1f78000002be00f5
:102c30000203be000620b800062db8008a804000be
:102c400060814d000724b800072db8008a84440035
:102c500060864d008100440002814c00e0014e007e
:102c60000700e000080035000500e00002003d001c
:102c700006015100878159004f0678004f05be00bc
:102c80004f04be0000000600040151008581590078
:102c9000f5ff37006218e1001e003500889fbe0076
:102ca0008a9fbe008c9fbe008301e9000004be0025
:102cb0000205be00040678003c00be000801be000c
:102cc000d7ff07008100d0000281d2008381d200ab
:102cd0003c004100bc8049008b05e900f7ff3c0047
:102ce0000103df008606ea00050034008d08dd00e0
:102cf000708216008402de00858070000d00dd0009
:102d0000060178004f06be004f05be004f04be000e
:102d1000000006000300e00002003a006000b80076
:102d2000020005003400be00020005000002eb00b6
:102d30008302df008502ea006f28e10023003a00e9
:102d40008301d1008281d3000181d3008080d30030
:102d50004f00dd00f40020008302df008502ea005e
:102d60006f28e10019003a008301d1008281d3006d
:102d70000181d3008080d3000000eb00e40120003b
:102d80008302df008502ea006f28e1000f003a00ad
:102d90008301d1008281d3000181d3008000eb0048
:102da000d40220008302df008502ea006f28e100e0
:102db00006003a008301d1008281d3000001eb00bc
:102dc000c40320008302df008502ea000500e00062
:102dd0000c003200708312008519dd008613de00be
:102de000878171000511dd00860bde00070171008f
:102df0008508dd008603de00878070000500dd00a9
:102e0000050242000300e00001003200000006005d
:042e100004000500b5
:020000040000fa
:0200000401f009
:04000c0078ff000079
:020000040000fa
:0200000401f009
:040010005eff00008f
:020000040000fa
:0200000401f009
:040014007fff00006a
:020000040000fa
:0200000401f009
:04001800eeff0000f7
:020000040000fa
:0200000401f009
:04001c00dfff000002
:020000040000fa
:1000080086050000860500008605000086050000bc
:1000180086050000860500008605000086050000ac
:10002800860500008605000086050000cc04000057
:10003800860500009c020000860500008605000079
:10004800860500008605000086050000860500007c
:1000580030050000860500008605000086050000c2
:10006800c404000040040000860500008605000066
:10007800860500008605000086050000860500004c
:10008800860500008605000086050000860500003c
:10009800860500008605000086050000860500002c
:1000a800860500008605000086050000860500001c
:1000b800860500008605000086050000860500000c
:1000c80086050000860500008605000086050000fc
:1000d80086050000860500008605000086050000ec
:1000e80086050000860500008605000086050000dc
:1000f80086050000860500008605000086050000cc
:1001080086050000860500008605000086050000bb
:10011800860500008605000006050000860500002b
:10012800860500008605000086050000860500009b
:10013800860500008605000086050000860500008b
:10014800860500008605000086050000860500007b
:10015800860500008605000086050000860500006b
:10016800860500008605000086050000860500005b
:10017800860500008605000086050000860500004b
:10018800860500008605000086050000860500003b
:10019800860500008605000086050000860500002b
:1001a800860500008605000086050000860500001b
:1001b800860500008605000086050000860500000b
:1001c80086050000860500008605000086050000fb
:1001d80086050000860500008605000086050000eb
:1001e80086050000860500008605000086050000db
:0801f8008605000086050000e9
:020000040000fa
:1002080086050000860500008605000086050000ba
:1002180086050000860500008605000086050000aa
:10022800860500008605000086050000cc04000055
:10023800860500009c020000860500008605000077
:10024800860500008605000086050000860500007a
:1002580030050000860500008605000086050000c0
:10026800c404000040040000860500008605000064
:10027800860500008605000086050000860500004a
:10028800860500008605000086050000860500003a
:10029800860500008605000086050000860500002a
:1002a800860500008605000086050000860500001a
:1002b800860500008605000086050000860500000a
:1002c80086050000860500008605000086050000fa
:1002d80086050000860500008605000086050000ea
:1002e80086050000860500008605000086050000da
:1002f80086050000860500008605000086050000ca
:1003080086050000860500008605000086050000b9
:100318008605000086050000060500008605000029
:100328008605000086050000860500008605000099
:100338008605000086050000860500008605000089
:100348008605000086050000860500008605000079
:100358008605000086050000860500008605000069
:100368008605000086050000860500008605000059
:100378008605000086050000860500008605000049
:100388008605000086050000860500008605000039
:100398008605000086050000860500008605000029
:1003a8008605000086050000860500008605000019
:1003b8008605000086050000860500008605000009
:1003c80086050000860500008605000086050000f9
:1003d80086050000860500008605000086050000e9
:1003e80086050000860500008605000086050000d9
:0803f8008605000086050000e7
:020000040000fa
:102e14001c6c00000cf70000476b0000cc0c000099
:102e2400dbaa0000aaea0000000000000040000045
:102e3400000000000000000000000000e4d70000d3
:102e44006d7d0000fdff0000159c0000b1760000c0
:102e5400feff00008c3e00005e520000ffff0000f9
:102e640051ed000087640000ffff00005ef10000e8
:102e7400b1720000ffff00004a2f0000cc7d00006b
:102e8400ffff00004b860000db460000000000004e
:102e9400ad5d0000f04f000000000000543200005f
:102ea400da5400000000000054cc0000e557000094
:102eb400000000008e210000f65900000000000010
:102ec400ee150000735b000000000000aa7e000005
:102ed400925c0000000000001010000011110000be
:102ee4001212000013130000131400001415000044
:102ef400151500001616000016170000171700001d
:102f04001818000018190000191900001a1a0000f6
:102f14001a1b00001b1b00001b1c00001c1c0000d3
:102f24001d1d00001d1d00001e1e00001e1e0000b1
:102f34001f1f00001f1f000071b5000047020000a2
:102f4400c54800000301000074f000000202000004
:102f5400eb210000da0200005dd70000cc04000081
:102f640092aa0000aa0a000000000000004000002d
:020000040000fa
:102f74003c00000048610000b4c20000ec510000b5
:102f840014c200000ad70000f7c200006f1200004c
:102f9400833b00006f120000833b0000bd3700003c
:102fa400863600004d0000004500000055aa0000d0
:020000040000fa
:102fb4000600fa00889fbe00000f780011079800f1
:102fc400220798001e0278001403be001e0290001f
:102fd4001402be000401be000600be00faf707009a
:102fe4000002be000404be001e0278002403900008
:102ff400b40390001e029000f4029000640290005a
:103004000401be000600be00eff707000002be0088
:103014000401be000800be0006f707000002be005f
:103024000404be001e02780044039000d403900000
:103034001e029000d40a9000440a90000401be00cd
:103044000600be00e0f707000002be000401be0057
:103054000800be00f7f607000002be002e03900031
:10306400048bbe001e0278001403be001e029000f2
:10307400b4029000240290000401be000600be00c9
:10308400d1f707000002be000404be001e0278004f
:1030940024039000b40390001e029000940a900050
:1030a400040a90000401be000600be00c6f7070033
:1030b4000002be000401be000800be00ddf60700e9
:1030c4000002be000404be001e0278004403900007
:1030d400d40390001e029000f40a9000640a900049
:1030e4000401be000600be00b7f707000002be00e0
:1030f4000401be000800be00cef607000002be00b8
:103104002e03900024039800350398001e027800d3
:103114001403be001e029000d402900044029000ea
:103124000401be000600be00a7f707000002be00af
:103134000404be001e02780024039000b40390002f
:103144001e029000b40a9000240a90000401be00fc
:103154000600be009cf707000002be000401be008a
:103164000800be00b3f607000002be000404be005f
:103174001e02780044039000d40390001e029000c5
:1031840094129000041290000401be000600be00d8
:103194008df707000002be000401be000800be0057
:1031a400a4f607000002be002e039000440398001a
:1031b400550398001e02780064039000f403900005
:1031c4001e0290001402be000401be000600be00f0
:1031d4007df707000002be000404be001e02780052
:1031e400040b9000940b90001e029000f4029000d7
:1031f400640290000401be000600be0072f70700de
:103204000002be000401be000800be0089f60700eb
:103214000002be000404be001e027800240b9000cd
:10322400b40b90001e029000d40a9000440a90004f
:103234000401be000600be0063f707000002be00e2
:103244000401be000800be007af607000002be00ba
:103254002e03900064039800750398001e02780002
:1032640064039000f40390001e029000b4029000e6
:10327400240290000401be000600be0052f70700bd
:103284000002be000404be001e027800040b90007d
:10329400940b90001e029000940a9000040a90007f
:1032a4000401be000600be0047f707000002be008e
:1032b4000401be000800be005ef607000002be0066
:1032c4000404be001e027800240b9000b40b90008e
:1032d4001e029000f40a9000640a90000401be00eb
:1032e4000600be0038f707000002be000401be005d
:1032f4000800be004ff607000002be002e03900037
:10330400040b9800150b98001e02780064039000cb
:10331400f40390001e029000d40290004402900036
:103324000401be000600be0027f707000002be002d
:103334000404be001e027800040b9000940b90005d
:103344001e029000b40a9000240a90000401be00fa
:103354000600be001cf707000002be000401be0008
:103364000800be0033f607000002be000404be00dd
:103374001e027800240b9000b40b90001e029000f3
:1033840094129000041290000401be000600be00d6
:103394000df707000002be000401be000800be00d5
:1033a40024f607000002be002e039000240b9800b0
:1033b400350b98001e027800440b9000d40b90004b
:1033c4001e0290001402be000401be000600be00ee
:1033d400fdf607000002be000404be001e027800d1
:1033e400640b9000f40b90001e029000f402900015
:1033f400640290000401be000600be00f2f607005d
:103404000002be000401be000800be0009f6070069
:103414000002be000404be001e02780004139000e3
:10342400941390001e029000d40a9000440a900065
:103434000401be000600be00e3f607000002be0061
:103444000401be000800be00faf507000002be0039
:103454002e039000440b9800550b98001e02780030
:10346400440b9000d40b90001e029000b402900014
:10347400240290000401be000600be00d2f607003c
:103484000002be000404be001e027800640b90001b
:10349400f40b90001e029000940a9000040a90001d
:1034a4000401be000600be00c7f607000002be000d
:1034b4000401be000800be00def507000002be00e5
:1034c4000404be001e0278000413900094139000bc
:1034d4001e029000f40a9000640a90000401be00e9
:1034e4000600be00b8f607000002be000401be00dc
:1034f4000800be00cff507000002be002e039000b6
:10350400640b9800750b98001e027800440b900021
:10351400d40b90001e029000d4029000440290004c
:103524000401be000600be00a7f607000002be00ac
:103534000404be001e027800640b9000f40b90009b
:103544001e029000b40a9000240a90000401be00f8
:103554000600be009cf607000002be000401be0087
:103564000800be00b3f507000002be000404be005c
:103574001e02780004139000941390001e02900021
:1035840094129000041290000401be000600be00d4
:103594008df607000002be000401be000800be0054
:1035a400a4f507000002be002e0390000413980047
:1035b400151398002e029000040078004f04be00fa
:1035c4000080fa00000006000c00fa00889fbe008c
:1035d40040079800510798006022b800048fbe008d
:1035e4004e0290001403be004e029000f4029000bc
:1035f400640290000401be000600be0072f60700db
:103604000002be000404be004e0290002403900099
:10361400b40390004e029000940a9000040a9000b3
:103624000401be000600be0067f607000002be00eb
:103634000401be000800be007ef507000002be00c3
:103644000404be004e02900044039000d403900092
:103654004e029000b40a9000240a90000401be00b7
:103664000600be0058f607000002be000401be00ba
:103674000800be006ff507000002be00048fbe0004
:1036840002002000030024001e00be00eef8070024
:103694000002be00048fbe004e0290001404be005f
:1036a4004e029000f4029000640290001e01be00dd
:1036b4000400be0044f607000002be000401be0080
:1036c4000800be0052f507000002be005e03900031
:1036d400048bbe004e02900024049000b4049000b9
:1036e4004e029000940a9000040a90001e01be004d
:1036f4000400be0034f607000002be000401be0050
:103704000800be0042f507000002be005e03900000
:1037140024039800350398004e029000440490005e
:10372400d40490004e029000b40a9000240a900041
:103734001e01be000400be0023f607000002be0006
:103744000401be000800be0031f507000002be00ff
:103754005e03900044039800550398004e029000c5
:1037640064049000f40490004e0290001402be0021
:103774001e01be000400be0013f607000002be00d6
:103784000401be000800be0021f507000002be00cf
:103794005e03900064039800750398004e02900045
:1037a400040c9000940c90004e029000b40290001f
:1037b400240290001e01be000400be0002f60700b1
:1037c4000002be000401be000800be0010f50700a0
:1037d4000002be005e039000040b9800150b9800d5
:1037e4004e029000240c9000b40c90004e02900005
:1037f400d4029000440290001e01be000400be00ea
:10380400f1f507000002be000401be000800be007e
:10381400fff407000002be005e039000240b980032
:10382400350b98004e02900024039000b4039000de
:103834004e029000b40a9000240a90000401be00d5
:103844000600be00e0f507000002be000404be004e
:103854004e02900044039000d40390004e02900066
:10386400940a9000040a90000401be000600be0001
:10387400d5f507000002be000401be000800be002a
:10388400e3f407000002be005e039000440b9800be
:10389400550b98004e02900044039000d40390000e
:1038a4004e029000f4029000640290000401be00f5
:1038b4000600be00c4f507000002be000404be00fa
:1038c4004e0290001403be004e029000b40a900011
:1038d400240a90000401be000600be00baf50700e9
:1038e4000002be000401be000800be00c8f40700c8
:1038f4000002be005e039000640b9800750b9800f4
:103904004e0290001403be004e029000940a9000f0
:10391400040a90000401be000600be00aaf50700d8
:103924000002be000404be004e0290002403900076
:10393400b40390004e029000f402900064029000e0
:103944000401be000600be009ff507000002be0091
:103954000401be000800be00adf407000002be0072
:103964005e03900004139800151398005e02900003
:103974001403be005e0290001402be000401be00e7
:103984000600be0090f507000002be000404be005d
:103994005e02900024039000b40390005e02900045
:1039a400b4029000240290000401be000600be0090
:1039b40085f507000002be000401be000800be0039
:1039c4009cf407000002be000404be005e029000e6
:1039d40044039000d40390005e029000d40290004f
:1039e400440290000401be000600be0076f5070004
:1039f4000002be000401be000800be008df40700f2
:103a04000002be000401be000000200001042400e6
:103a14007ff407000002be0002002000030024001f
:103a24000400be0008f807000002be002407980046
:103a3400350798005e0290001402be002e0190002b
:103a4400be0190000400be005ff507000002be0046
:103a54005e039000048bbe005e029000b4029000ee
:103a6400240290002e019000be0190000400be00cc
:103a740055f507000002be005e0390002403980081
:103a8400350398005e029000d40290004402900036
:103a94002e019000be0190000400be004af507000c
:103aa4000002be005e039000440398005503980092
:103ab4005e02900064039000f40390005e029000a4
:103ac400f4029000640290000401be000600be00ef
:103ad4003df507000002be000404be005e02900033
:103ae400040b9000940b90005e029000940a9000e6
:103af400040a90000401be000600be0032f507006f
:103b04000002be000401be000800be0049f4070024
:103b14000002be000404be005e029000240b90006c
:103b2400b40b90005e029000b40a9000240a900046
:103b34000401be000600be0023f507000002be001b
:103b44000401be000800be003af407000002be00f3
:103b54000401be0000002000010424002cf407002e
:103b64000002be0002002000030024000400be0086
:103b7400b5f707000002be00240798003507980037
:103b84005e029000f4029000640290002e01900006
:103b9400be0190000400be000bf507000002be0049
:103ba4005e03900064039800750398005e02900021
:103bb400940a9000040a90002e019000be01900027
:103bc4000400be0000f507000002be005e03900082
:103bd400040b9800150b98005e029000b40a900044
:103be400240a90002e019000be0190000400be0043
:103bf400f5f407000002be005e039000240b980059
:103c0400350b98005e029000440b9000d40b90009a
:103c14005e029000d40a9000440a90000401be00a1
:103c24000600be00e8f407000002be000404be0063
:103c34005e029000640b9000f40b90005e02900012
:103c4400f40a9000640a90000401be000600be005d
:103c5400ddf407000002be000401be000800be003f
:103c6400f4f307000002be000404be005e029000ec
:103c740004139000941390005e029000941290003c
:103c8400041290000401be000600be00cef407003a
:103c94000002be000401be000800be00e5f30700f8
:103ca4000002be000401be00000020000104240044
:103cb400d7f307000002be00020020000300240026
:103cc4000400be0060f707000002be00240798004d
:103cd400350798005e029000d40a9000440a9000d0
:103ce4002e019000be0190000400be00b6f407004f
:103cf4000002be005e039000440b9800550b980030
:103d04005e029000f40a9000640a90002e01900074
:103d1400be0190000400be00abf407000002be0028
:103d24005e039000640b9800750b98005e0290008f
:103d340094129000041290002e019000be01900095
:103d44000400be00a0f407000002be005e03900061
:103d540004139800151398005e0290000400780084
:103d64004f04be000080fa00000006000e00fa00b6
:103d7400008fbe002207980033079800440798007c
:103d840055079800660798006e0290003e1a780066
:103d94002e1278006e0290002e039000be03900055
:103da40026029800370298006e0290004e0390009d
:103db400de03900046029800570298006e029000bd
:103dc400040078000080fa00000006000400fa00f5
:103dd400000f7800110798001e0278001402be003c
:103de4001e039000048bbe001e027800b4029000f3
:103df400240290001e0390002403980035039800c9
:103e04001e027800d4029000440290001e03900029
:103e140044039800550398001e02900004007800a3
:103e24000080fa00000006000600fa00889fbe0029
:103e3400000f780011079800220798001e027800ee
:103e440024039000b40390001e029000d40290005a
:103e5400440290000401be000600be005af40700ac
:103e64000002be000404be001e0278004403900059
:103e7400d40390001e029000b4029000240290002b
:103e84000401be000600be004ff407000002be009d
:103e94000401be000800be005df307000002be007e
:103ea4002e039000048bbe001e0278004403900091
:103eb400d40390001e0290001402be000401be0050
:103ec4000600be0040f407000002be000404be0069
:103ed4001e0278001403be001e029000d40290005b
:103ee400440290000401be000600be0036f4070040
:103ef4000002be000401be000800be0044f3070037
:103f04000002be002e03900024039800350398009d
:103f14001e0278001403be001e029000b40290003a
:103f2400240290000401be000600be0026f407002f
:103f34000002be000404be001e02780024039000a8
:103f4400b40390001e0290001402be000401be00df
:103f54000600be001cf407000002be000401be00ff
:103f64000800be002af307000002be002e039000e2
:103f740044039800550398002e0290000400780032
:103f84004f04be000080fa00000006000600fa009c
:103f9400000f780011079800220798001e0278008d
:103fa4001403be001e0290001402be000401be00f1
:103fb4000600be001ff307000002be002e0390009f
:103fc400048bbe001e02780024039000b40390000a
:103fd4001e029000b4029000240290000401be006e
:103fe4000600be0013f307000002be002e0390007b
:103ff40024039800350398001e02780044039000bf
:10400400d40390001e029000d40290004402900059
:104014000401be000600be0006f307000002be0055
:104024002e03900044039800550398002e0290003c
:10403400040078000080fa00000006000800fa007e
:10404400000f7800120798002307980031079800a2
:104054001e0278001402be001e019000ae01900002
:104064000400be00d8f307000002be003e03900027
:10407400048bbe001e027800b4029000240290005b
:104084001e019000ae0190000400be00cef30700b4
:104094000002be003e0390002403980035039800fc
:1040a4001e027800d4029000440290001e01900089
:1040b400ae0190000400be00c3f307000002be007e
:1040c4003e03900044039800550398003e0290007c
:1040d400040078000080fa00000006000200fa00e4
:1040e400889fbe00000f78001e0278001403be00f3
:1040f4001e0278001402be000401be000600be00c9
:10410400b1f307000002be000404be001e027800e2
:1041140024039000b40390001e027800b4029000bf
:10412400240290000401be000600be00a6f30700ae
:104134000002be000401be000800be00bdf207007c
:104144000002be000404be001e0278004403900076
:10415400d40390001e027800d40290004402900020
:104164000401be000600be0097f307000002be0073
:104174000401be000800be00aef207000002be004b
:104184000400be0043f707000002be000400be00a6
:104194004f04be000080fa00000006000c00fa0084
:1041a400881f780040079800510798004e0090003f
:1041b400caff07000002be00048fbe0018c0b3008f
:1041c400d27b2300635823001e00be006df207005b
:1041d40000027800e00f5200010035000044eb00bb
:1041e400e04f5400070032005e0390006022b800e4
:1041f4006011b8006000b800dcfe0700000278001f
:104204000d0037001e01be000000200001f823004d
:104214000df607000002be00240798003507980039
:10422400de0090002e019000be0190004e00900030
:1042340082ff070000027800040078004f04780031
:104244000080fa00000006000200fa00000f780067
:104254001e027800f40a9000640a90006011b8000d
:104264000400be0047f2070000027800e00f52008d
:104274000b003a001e027800941290000412900081
:104284006011b8000400be003ef20700000278008e
:10429400e00f520002003a006022b8000a00370022
:1042a4001e02780094129000041290001e037800fd
:1042b400f60b9000660b90000401be000600be00e1
:1042c40013f207000002be000400be000080fa00e2
:1042d400000006000200fa00881f7800000f780032
:1042e4001e027800d40a9000440a900018c0b3005b
:1042f4000200200003f823000400be0023f207009c
:1043040000027800e00f520001003d000044eb0081
:10431400e04f54000300320084fd200095fc2b0084
:10432400180037001e027800d40a9000440a900056
:1043340018c0b3000200200003f82b000400be00e4
:1043440010f2070000027800e00f52000100340070
:104354000044eb00e04f54000300320084fd2000d1
:1043640095fc2300070037001e027800d40a900051
:10437400440a90000400be0099f307000002be0046
:1043840005f0a2000400be004f0478000080fa008b
:10439400000006000200fa00000f78001e027800f8
:1043a400f4029000640290006011b8000400be00a2
:1043b400f4f1070000027800e00f52000a003a000e
:1043c4001e0278001402be006011b8000400be0092
:1043d400ecf1070000027800e00f520002003a00fe
:1043e4006022b800090037001e0278001402be00e3
:1043f4001e037800f6039000660390000401be00db
:104404000600be00c2f107000002be000400be00a8
:104414000080fa00000006000200fa00000f780095
:104424001e02780094129000041290000400be0052
:104434000080fa00000006000400fa00889fbe0015
:10444400000f7800110798001e0278009412900063
:10445400041290001e03780066089000f60890008d
:104464001e037800460c9000d60c90001e039000aa
:104474000001be000800be003cfe070000027800f8
:10448400040078004f04be000080fa00000006001b
:104494000000fa000400200005f8230024578800d7
:1044a400355788002457800035578000a45688006b
:1044b400b5568800a4568000b5568000245688005e
:1044c400355688006022b8000457880015578800c4
:1044d4000457800015578000e4568800f55688007c
:1044e400e4568000f5568000c4568800d5568800ee
:1044f400c4568000d556800084568800955688009e
:10450400845680009556800064568800755688004d
:1045140064568000755680004456880055568800bd
:104524006022b8004457880055578800c6ae200062
:104534006022b8006011b8006000b8000bfe0700ec
:104544000002eb00045888006022b800c4578800b9
:10455400d55788006022b800e4578800f5578800d2
:1045640004002000050a24001458880025588800f7
:1045740066b020006022b8006011b8006000b80086
:10458400fafd07000080fa00000006000200fa00ad
:10459400000f7800c1ae20001e007800b2020700b0
:1045a40064578000755780006011b8000400be0095
:1045b4007df1070000027800e00f520008003a0085
:1045c40084578000955780006011b8000400be0035
:1045d40075f1070000027800e00f52000c00320071
:1045e4006457800075578000865780009757800075
:1045f40007f0a2000401be000600be0044f107005b
:104604000002be0044578800555788000300370055
:104614006022b80044578800555788000080fa008b
:1046240000000600ae00fa00881f7800209798006a
:104634003197980042979800539798006497980090
:10464400c4578000d55780006011b8000400be0034
:104654004cf1070000027800e00f52000b003a0012
:10466400550c070054f92b0065452300c4578800f6
:10467400d55788002e929000be929000e45788008f
:10468400f557880004588000f0003700e457800094
:10469400f55780002e939000be93900004025300bf
:1046a40085825b000400be003df107000003be00ec
:1046b400c4578000d55780000401be000600be0028
:1046c40041f207000002be00048fbe002e9390004a
:1046d400be939000e6578800f757880018c0b300cf
:1046e400f2282c0053cf23001e00be0027f1070040
:1046f40000027800e00f520001003c000044eb008f
:10470400e04f540003003200f4282c0055cf23005e
:10471400048fbe0074024700840078005e9090000d
:104724009efe0700680247008400780040ac200029
:1047340041ff0700060220000e034300f402470075
:1047440068024700060178008500780004007800bc
:10475400b5fd070004588000e00f52001900320034
:1047640064be840075be8400c70220008e834300ab
:10477400060220000e034300870078000401be00f7
:10478400060078002dfe070084be840095be8400d8
:104794001e01be000400be000bf207000002be00b2
:1047a400870320008e834300060220000e0343008b
:1047b400870078000401be00060078001ffe070091
:1047c40010003700c50220008e824200040220003f
:1047d4000e02420085007800d2cc2c00c3dc2300fa
:1047e4000400780015fe0700840320000e02420036
:1047f400040378006022b8006011b8006000b800bb
:104804005afd0700840320000e02420062b020001b
:104814008400780060b02000dcfd0700450420001f
:104824008e824200c40220000e024200050178007c
:1048340061b0200004007800d4fd07000458800013
:10484400e00f52002a003a00040220000e02420047
:104854000400780021fe07000002be00240798002f
:104864003507980014588000255880000200200065
:10487400030424000400be00d3f107000002be00bc
:104884002e019000be0190000400be00e9f0070074
:104894000002be0002002000030824000400be0041
:1048a40069f407000002be001458880025588800e7
:1048b400165880002758800044be840055be8400ea
:1048c40018c0b3000401be000600be00adf007002e
:1048d40000027800e00f5200010035000044eb00b4
:1048e400e04f5400020032001400200004588800f5
:1048f400040520000e024200840078001e01be0060
:104904004e909000cdfd0700060520000e034300e5
:10491400450420008e824200040520000e0242005d
:1049240006017800850078000400780097fd0700f0
:10493400c50520008e824200040520000e024200bc
:104944008500780004007800610b0700050820004a
:104954008e824200c40520000e0242000501780048
:104964008400780040ac200091f90700040820007e
:104974000e02420041ac20000400780012fb070044
:1049840040ac200030fe07000002be006e93900091
:10499400240398003503980040ac20004dfe070026
:1049a4000002be006e9390004403980055039800e3
:1049b40040ac200077fe07000002be006e9390001a
:1049c400640398007503980040ac200092fe070031
:1049d4000002be006e939000040b9800150b980023
:1049e4006e92900064039000f4039000445780009a
:1049f400555780000401be000600be008df007007c
:104a04000002be006e939000240b9800350b9800b2
:104a14006e9290002e939000be939000068abe0082
:104a24006e92900078024200840078004e909000cc
:104a3400e6fc07006e9290004402b0008400780007
:104a44005e909000e1fc07000458800004007800a8
:104a54004f0478000080fa00000006000e00fa00ff
:104a6400008fbe002207980033079800440798007f
:104a740055079800660798006e0290003e1a780069
:104a84002e1278006e0290002e039000be03900058
:104a940026029800370298006e0290004e039000a0
:104aa400de03900046029800570298006e029000c0
:104ab400040078000080fa00000006000400fa00f8
:104ac400889fbe00000f7800110798001e0278002e
:104ad4001403be001e0290001402be000401be00b6
:104ae4000600be0038f107000002be000404be0048
:104af4001e02780024039000b40390001e0290006c
:104b0400b4029000240290000401be000600be001e
:104b14002df107000002be000401be000800be0023
:104b240044f007000002be000404be001e02780028
:104b340044039000d40390001e029000d40290001d
:104b4400440290000401be000600be001ef10700ee
:104b54000002be000401be000800be0035f00700dc
:104b64000002be000400be004f04be000080fa0034
:104b7400000006000600fa00889fbe00000f7800bf
:104b840011079800220798001e029000e10f5200be
:104b940003003200e20f52000f0032001d00370004
:104ba4001e027800d4029000440290001e03780094
:104bb40026009000b60090001e0378001604be0084
:104bc4002e0390000001be000800be00a3ff0700f2
:104bd400000278001d0037001e027800b40a90001d
:104be400240a90001e03780006089000960890009e
:104bf4001e03780066049000f60490002e039000d3
:104c04000001be000800be0094ff07000002780007
:104c14000e0037001e0278009412900004129000d7
:104c24001e03780066089000f60890001e037800c2
:104c3400460c9000d60c90002e0390000001be009c
:104c44000800be0085ff0700000278000400780019
:104c54004f04be000080fa00000006000600fa00bf
:104c6400889fbe00000f7800110798002207980063
:104c74001e029000e10f520003003200e20f5200c6
:104c84000f0032001d0037001e027800d40a900085
:104c9400440a90001e03780066009000f60090001d
:104ca4001e0378001604be002e0390000001be000f
:104cb4000800be0069ff0700000278001d003700ed
:104cc4001e027800f40a9000640a90001e03780023
:104cd40006089000960890001e03780026049000b1
:104ce400b60490002e0390000001be000800be0030
:104cf4005aff0700000278000e0037001e027800f9
:104d040094129000041290001e037800260890006c
:104d1400b60890001e03780046049000d604900064
:104d24002e0390000001be000800be004bff0700e8
:104d340000027800040078004f04be000080fa00ee
:104d4400000006001200fa0060079800710798003e
:104d5400020f98000e017800110020006e009000f0
:104d640084ff070000027800fe0090000400780031
:104d740052ff07000002be000e0b9000048bbe0021
:104d84000e017800210020006e00900079ff0700da
:104d940000027800fe0090000400780047ff07003e
:104da4000002be000e0b9000240398003503980007
:104db4000e017800310020006e0090006dff0700a6
:104dc40000027800fe009000040078003bff07001a
:104dd4000002be000e0b9000440398005503980097
:104de4000e0a9000040078000080fa00000006001b
:104df4001200fa006007980071079800020f9800eb
:104e04000e017800110020007e00900093ff07003f
:104e140000027800840078006e00900027ff0700ed
:104e24000002be000e0b9000048bbe000e01780041
:104e3400210020007e00900088ff07000002780017
:104e4400840078006e0090001cff07000002be0082
:104e54000e0b900024039800350398000e0178008f
:104e6400310020007e0090007cff070000027800e3
:104e7400840078006e00900010ff07000002be005e
:104e84000e0b900044039800550398000e0a9000fe
:104e9400040078000080fa00000006000400fa0014
:104ea400889fbe00000f7800110798001e0278004a
:104eb400d4029000440290001e0378002600900063
:104ec400b60090001e0378001604be001e03900076
:104ed4000001be000800be00e0fe070000027800ea
:104ee400040078004f04be000080fa0000000600b1
:104ef4000400fa00889fbe00000f78001107980094
:104f04001e027800b40a9000240a90001e03780060
:104f140006089000960890001e037800660490002e
:104f2400f60490001e0390000001be000800be00bd
:104f3400cafe070000027800040078004f04be0097
:104f44000080fa00000006000400fa00889fbe00fa
:104f5400000f7800110798001e0278009412900048
:104f6400041290001e03780066089000f608900072
:104f74001e037800460c9000d60c90001e0390008f
:104f84000001be000800be00b4fe07000002780065
:104f9400040078004f04be000080fa000000060000
:104fa4000200fa00000f7800245680003556800075
:104fb4001e037800048bbe004456800055568000c2
:104fc4001e0378002403980035039800645680007b
:104fd400755680001e03780044039800550398001a
:104fe40084568000955680001e0378006403980060
:104ff40075039800a4568000b55680001e037800ff
:10500400040b9800150b9800c4568000d5568000f8
:105014001e037800240b9800350b9800e45680009a
:10502400f55680001e037800440b9800550b980039
:1050340004578000155780001e037800640b980005
:10504400750b980024578000355780001e037800a4
:1050540004139800151398001e02780004007800c9
:105064000080fa00000006000400fa00000f780037
:105074001107980044ac20001e0190009e007800a7
:10508400040078002fff0700000278000400780075
:105094000080fa00000006000400fa00000f780007
:1050a4001107980044ac20001e0190008400780091
:1050b4001e0078004eff070000027800040078000c
:1050c4000080fa00000006000200fa00000f7800d9
:1050d4009e00780040ac200070ff070000027800ba
:1050e400040078000080fa00000006000200fa00c4
:1050f400000f78009e00780040ac20007cff070081
:1051040000027800040078000080fa000000060025
:105114000200fa00000f78009e00780040ac2000e6
:1051240089ff070000027800040078000080fa007c
:10513400000006000e00fa00008fbe00220798004f
:1051440033079800440798005507980066079800ad
:105154006e0290003e1a78002e1278006e029000c3
:105164002e039000be039000260298003702980098
:105174006e0290004e039000de03900046029800f9
:10518400570298006e029000040078000080fa0034
:10519400000006000400fa00889fbe00000f78009b
:1051a400110798001e0278001403be001e0290002e
:1051b4001402be000401be000600be0082ef070018
:1051c4000002be000404be001e0278002403900006
:1051d400b40390001e029000b402900024029000d8
:1051e4000401be000600be0077ef07000002be0007
:1051f4000401be000800be008eee07000002be00df
:105204000404be001e02780044039000d4039000fe
:105214001e029000d4029000440290000401be00db
:105224000600be0068ef07000002be000401be00d5
:105234000800be007fee07000002be000400be00ae
:105244004f04be000080fa00000006001c00fa00b3
:10525400889fbe008a9fbe008c1f7800500f980064
:105264000002eb00040f78006e024700040078008f
:10527400d000070000027800040f78001e027800b6
:10528400e00f5200020032001e0278007100370065
:10529400bc0207000002be005e0b9000048bbe003f
:1052a400345a8000455a800061024200e0824a007c
:1052b400345a8800455a8800345a8000455a800080
:1052c4005e0b900024039800350398005e0a90005a
:1052d400680642003e0a9000ce0a90000400be0018
:1052e4002cee07000003be00b4588000c5588000af
:1052f4000401be000600be0033ef07000002be003a
:105304000403be0024be840035be84000401be0034
:105314000600be003eee07000002be000405be000b
:105324001e0a9000ae0a90000400be0019ee0700a9
:105334000003be00b4588000c55880000401be00bc
:105344000600be0020ef07000002be000403be00fa
:1053540004be840015be84000401be000600be0025
:105364002bee07000002be000404be007e02900083
:105374008e0a90000400be0006ee07000003be0083
:10538400b4588000c55880000401be000600be0069
:105394000def07000002be000403be00e4bd84005c
:1053a400f5bd84000401be000600be0018ee07002f
:1053b4000002be000400be000c0378000a02be0016
:1053c4000801be005bff07005e0a9000680242000d
:1053d40084007800a0b120006eff07000002be0028
:1053e40014079800250798005e0a9000680242009e
:1053f4008400780060b2200066ff07000002be004f
:1054040034079800450798005e0a9000680242003d
:105414008400780020b320005eff07000002be0075
:1054240054079800650798005e0a900068024200dd
:10543400040378005e029000ee0290003e019000aa
:10544400ce0190001e009000ae00900039ff0700ce
:105454000002eb00040078004f0678004f05be0000
:105464004f04be000080fa00000006000a00fa00a3
:10547400404798003107980042079800a4588000dc
:10548400e00f520002003a00e40020001d00370043
:105494000002eb00140798000002eb00040f7800f0
:1054a4000100370000000000a47b290014427800aa
:1054b400ce0190003e019000ce4090000440780060
:1054c4008e04070000027800140798001e02900062
:1054d400e00f520003003200e20f520003003200da
:1054e400070037000002eb00060037001e0fe8003b
:1054f400140320009e027800848f5200e9ff3600d6
:105504001e029000040078000080fa0000000600eb
:105514000a00fa00404798003107980042079800b3
:10552400a4588000e00f520002003a00e40020007a
:105534001d0037000002eb00140798000002eb0086
:10554400040f78000100370000000000a47b29004c
:1055540014427800ce0190003e019000ce409000ad
:105564000440780021050700000278001407980021
:105574001e029000e00f520003003200e20f5200be
:1055840003003200070037000002eb00060037007a
:105594001e0fe800140320009e027800848f52003e
:1055a400e9ff36001e029000040078000080fa0033
:1055b400000006000e00fa00600798000002eb00ed
:1055c400040f78000042eb00244798000e82e800a4
:1055d40004007800e208070000027800040f780055
:1055e4001e027800e00f5200020032001e02780012
:1055f400440037002e4290000482fb0061026200e6
:10560400e00f520004003a002000200001002000b6
:10561400fa010700edff3700660247006200200030
:105624008400780030c0b30090ff070000027800c7
:10563400040f78001e027800e00f520002003200ce
:105644001e0278002f0037006e42900054479800e5
:105654007e42900044479800ae02900004802f00e0
:10566400848f520002003d00f40020002500370022
:105674002e0290000402ea00cfa2de006e03900026
:10568400048bbe000e4a9000544798001e4a9000b6
:1056940044479800ae02900004802f00848f52008b
:1056a40002003d00f4002000160037002e02900096
:1056b4000402ea00cfa2de006e03900044039800c7
:1056c400550398002e4a9000544798003e4a900093
:1056d40044479800ae02900004802f00848f52004b
:1056e40002003d00f4002000060037002e02900066
:1056f400cfa2de006e0390002403980035039800c7
:105704000002eb00040078000080fa0000000600ac
:105714000e00fa00008fbe0022079800330798009d
:105724004407980055079800660798006e02900099
:105734003e1a78002e1278006e0290002e0390001c
:10574400be03900026029800370298006e02900073
:105754004e039000de039000460298005702980022
:105764006e029000040078000080fa000000060039
:105774000400fa00889fbe00000f7800110798000b
:105784001e0278001403be001e0290001402be0024
:105794000401be000600be000bee07000002be00be
:1057a4000404be001e02780024039000b403900099
:1057b4001e029000b4029000240290000401be0076
:1057c4000600be0000ee07000002be000401be0099
:1057d4000800be0017ed07000002be000404be006e
:1057e4001e02780044039000d40390001e0290002f
:1057f400d4029000440290000401be000600be00e2
:10580400f1ed07000002be000401be000800be0066
:1058140008ed07000002be000400be004f04be00f5
:105824000080fa00000006000000fa00a45880007e
:10583400e00f520002003a00e40020000b003700a1
:10584400f4598000e10f520002003a000002eb001c
:105854000600370014002000f459880084a0a90031
:1058640020002000490307000002eb000400780038
:105874000080fa00000006000000fa00a45880002e
:10588400e00f520002003a00e40020000d0037004f
:10589400f4598000e00f520002003a000002eb00cd
:1058a40008003700200020006603070084a0a90038
:1058b4000002eb00f45988000002eb00145a88003f
:1058c4000002eb00040078000080fa0000000600eb
:1058d4000200fa00000f7800f4598000e00f520033
:1058e40002003a00d4002000030037001e007800b4
:1058f4002700070000027800040078000080fa0006
:10590400000006000200fa00000f7800f45980003d
:10591400e00f520002003a00d400200008003700d3
:10592400145a8000e00f520002003a00c400200024
:10593400030037001e0078001500070000027800fd
:10594400040078000080fa00000006000200fa005b
:10595400000f7800f4598000e00f520002003a0072
:10596400d40020000700370000000000145a800013
:10597400e00f5200fdff32001e0078000400070013
:1059840000027800040078000080fa00000006009d
:105994002600fa00889fbe008a9fbe008c1f7800f4
:1059a40020179800140280004522de00674262003e
:1059b4000482fb00240798009402800034079800b6
:1059c400ff3ffc0024b120001442780067426200cb
:1059d4000482fb00670262004522dd00160280009b
:1059e400f5f12f008502630004827200140288001e
:1059f4003e0290009402880000008800345a80001f
:105a0400455a80002e139000240398003503980013
:105a1400545a8000655a8000440f9800550f98002e
:105a2400745a8000855a8000640f9800750f98009e
:105a3400945a8000a55a80000417980015179800fe
:105a4400145a8000440798000002eb00145a88009e
