:020000040000fa
:080000000002040000000000f2
:020000040000fa
:10040000efd120000e7f22000e01880000000000c6
:1004100000012000200288000c000700209f270018
:100420000100200011000700000020000000e00093
:1004300002003200000002000000000054640200cc
:10044000000000000040da000000fe004440a90067
:10045000203f22000000e0000300320000002000e6
:10046000a00188004440a800000006009101880017
:10047000800078000000eb0015003700e2804000ab
:1004800032a0b4009101ba00e280400032a0b40072
:100490009102ba00e280400032a0b4000002eb00fa
:1004a000472bde00f507b200602ce10004003a00a3
:1004b0000059eb008301e900fdff3e000400370016
:1004c0006128e100010032000082eb000400070017
:1004d0001101ba000200e000e8ff3a000000060047
:1004e0003159ba008301e9000c0032002159ba00e9
:1004f0008301e900080032000400e00003003a0034
:10050000e280400032a0b400f5ff370011d9ba00f4
:100510008301e900faff3a008100e800e180400031
:1005200032a0b40000000600349304000000000074
:10053000f203040000000000bc0a040000000000f8
:10054000809fbe00849fbe00869fbe000400fa000c
:1005500021e3a900041880006123b80044668000ec
:10056000556680000602420087824a004466880081
:1005700055668800646680000402e80064668800ae
:1005800065668000f4072000848f52003100360039
:1005900044668000556680000404b0000580b00009
:1005a000492bdd004722de0004027300c72ade006b
:1005b000048fbe002466800035668000e00f520084
:1005c000e08f5a0004003a001e02be002466880034
:1005d0003566880015003700246680003566800087
:1005e0006f2bb900060378006020b9008003780003
:1005f0000703430084027800f4002000042ab800b6
:1006000005034300860278003e034200ae834a00a1
:100610000602be00cc2bdd004422de000482730003
:10062000c42ade00246688003566880004042000a1
:10063000646688004466800055668000610242005e
:10064000e0824a008502d1000482d300446688001b
:100650005566880085a0a90021e3a8000080fa0063
:100660004f03be004f02be004f00be000040060018
:100670003600f800809fbe00829fbe00849fbe00af
:10068000869fbe000200fa008620a9004410800068
:1006900070026200e00f5200270032009620a9008d
:1006a0000002eb00f46688000467800004427800d2
:1006b000614262000482fb00610262004422dd00ac
:1006c000b6048000f5fe2f008502630004827200ec
:1006d000b40488001467800004427800614262001c
:1006e0000482fb00610262004522dd00a604800056
:1006f000f5fd2f008502630004827200a4048800c7
:100700002467800004427800614262000482fb009a
:100710006102620004024200a6048000d5ff2f009f
:100720008502630004827200a4048800346780009c
:100730004467880009003700f4668000040f7800e1
:100740001e027800e00f5200030032001e02780003
:100750000400010001003700000000000080fa00e2
:100760004f03be004f02be004f01be004f00be004f
:100770003600f900004006000000fa008600a900db
:100780000080fa00004006003600f800809fbe009e
:10079000829fbe00849fbe00869fbe000000fa00bc
:1007a0008680a900243f2000040078003d3f070018
:1007b00000027800e00f520003003a000002eb0054
:1007c000e46588000602a8000080fa004f03be001e
:1007d0004f02be004f01be004f00be003600f900c0
:1007e000004006000200fa008620a90045108000a3
:1007f0000400280004826200e00f52000f003a005b
:10080000451080000440200004826200e00f520086
:100810000a003a00451080000408200004826200ab
:10082000e00f520005003a0045108000040420004b
:1008300004826200e00f5200020032007c3f070099
:10084000fe003700e46580000500200076002000ef
:1008500007002000860f5200878f5a00f4003e00e8
:1008600004600100070037000f0037001300370055
:10087000160037001d00370023003700380037000e
:100880003c003700e4242c00144278008482fb00f2
:10089000e40f20000482620014108800140020007d
:1008a000e4658800e4003700b403200014108800d9
:1008b00024002000e4658800df0037000622a8003d
:1008c00034002000e4658800db003700e4242c00bd
:1008d000144278000404a0000482fb001410880075
:1008e00044002000e4658800d300370008c2a90056
:1008f0000662a8000002eb00046688005400200095
:10090000e4658800cc003700066680000410800093
:100910000442780085b8200085024300844a7800ac
:10092000046680000402e800046688000466800013
:10093000ed0f520005003e0006a2a9000682a800a5
:1009400064002000e4658800bb00370006a2a80010
:100950000682a80074002000e4658800b600370015
:1009600008c2a9000662a80054002000e4658800bf
:10097000b10037002e3f070084b8200014427800f1
:100980001447980094b8200014427800044f78006f
:100990001e0278000402ea00cfa2de00d45d8800c7
:1009a000e55d8800a4b82000144278001447980040
:1009b000b4b8200014427800044f78001e0278007a
:1009c0000402ea00cfa2de00b45d8800c55d8800a5
:1009d000c4b820001442780014479800d4b820000e
:1009e00014427800044f78001e0278000402ea00e6
:1009f000cfa2de00f45d8800055e8800e4b8200028
:100a00001442780014479800f4b82000144278008b
:100a1000044f78001e027800cfa2de00945d8800ab
:100a2000a55d880004b9200014427800144798009e
:100a300014b9200014427800044f78001e02780098
:100a40000402ea00cfa2de00345e8800455e880022
:100a500024b92000144278001447980034b92000cb
:100a600014427800044f78001e0278000402ea0065
:100a7000cfa2de00145e8800255e880044b9200005
:100a8000144278001447980054b9200014427800aa
:100a9000044f78001e0278000402ea00cfa2de00b4
:100aa000545e8800655e8800145c8000255c8000d0
:100ab00061024200e0824a00145c8800255c8800e4
:100ac000f4658000e00f52001d003a00b45d800024
:100ad000c55d8000d45c8800e55c8800d45d800042
:100ae000e55d8000f45c8800055d8800f45d8000b1
:100af000055e8000145d8800255d8800945d80009f
:100b0000a55d8000b45c8800c55c8800145e800030
:100b1000255e8000345d8800455d8800345e80007d
:100b2000455e8000545d8800655d8800545e8000ed
:100b3000655e8000745d8800855d88003800370040
:100b4000d65c8000e75c8000b45d8000c55d8000fd
:100b50000602420087824a00d45c8800e55c880077
:100b6000f65c8000075d8000d45d8000e55d80005c
:100b70000602420087824a00f45c8800055d880016
:100b8000165d8000275d8000f45d8000055e8000ba
:100b90000602420087824a00145d8800255d8800b5
:100ba000b65c8000c75c8000945d8000a55d80001d
:100bb0000602420087824a00b45c8800c55c880057
:100bc000365d8000475d8000145e8000255e8000f9
:100bd0000602420087824a00345d8800455d880035
:100be000565d8000675d8000345e8000455e800059
:100bf0000602420087824a00545d8800655d8800d5
:100c0000765d8000875d8000545e8000655e8000b8
:100c10000602420087824a00745d8800855d880074
:100c2000f46580000402e800f465880002003700e3
:100c30007f3e070001003700000000000080fa003e
:100c400000000600841f78000000fa0013e1a900ec
:100c50008500a9000002eb00040388000002eb00fd
:100c6000140388008660a90014002000b461880085
:100c700014002000c46188000002eb00a461880019
:100c80000002eb00d460880061e0a8000002eb00e5
:100c90005408880013e1a8000080fa004f02780091
:100ca000004006003600f800809fbe00829fbe0014
:100cb000849fbe00869fbe001800fa000002eb0071
:100cc000040388000002eb00140388008660a9007a
:100cd000033907000002be00048fbe00d46080000c
:100ce000050020005600200007002000860f52005b
:100cf000878f5a0094013e00046001000500370010
:100d0000140037002300370032003700410037005d
:100d100050003700551680000480200004826200d5
:100d2000e00f52008a013200d66080001e02be0031
:100d3000c233dd00c6c1200006834300048bbe0021
:100d4000d46080000402e800d46088006200a8003b
:100d50008f00370055168000044020000482620096
:100d6000e00f52007c013200d66080001e02be00ff
:100d7000c233dd00c6c1200006834300048bbe00e1
:100d8000d46080000402e800d46088006260a8009b
:100d90007f00370095168000042020000482620046
:100da000e00f52006e013200d66080001e02be00cd
:100db000c233dd00c6c1200006834300048bbe00a1
:100dc000d46080000402e800d46088006280a8003b
:100dd0006f00370095168000041020000482620026
:100de000e00f520060013200d66080001e02be009b
:100df000c233dd00c6c1200006834300048bbe0061
:100e0000d46080000402e800d46088006220a8005a
:100e10005f003700951680000408200004826200fd
:100e2000e00f520052013200d66080001e02be0068
:100e3000c233dd00c6c1200006834300048bbe0020
:100e4000d46080000402e800d46088006220a8001a
:100e50004f003700951680000408200004826200cd
:100e6000e00f520044013a00d66080001e02be002e
:100e7000c233dd00c6c1200006834300048bbe00e0
:100e8000d46080000402e800d46088000000000004
:100e900086618000976180006461800075618000d8
:100ea0000402530085825b002407980035079800f0
:100eb0006661800077618000446180005561800038
:100ec0000403530085835b0024ea2f00f5ff2f0005
:100ed0000602420087824a0044079800550798009e
:100ee0004661800057618000246180003561800088
:100ef0000403530085835b0024ea2f00f5ff2f00d5
:100f00000602420087824a0064079800750798002d
:100f100026618000376180000461800015618000d7
:100f20000403530085835b0024ea2f00f5ff2f00a4
:100f30000602420087824a00040f9800150f9800ad
:100f40000661800017618000e4608000f560800029
:100f50000403530085835b0024ea2f00f5ff2f0074
:100f60000602420087824a00240f9800350f98003d
:100f70002e039000be039000a4158600b5158600d0
:100f8000840f5300858f5b00fc00350001003700a3
:100f9000fe0037002e039000be039000241686004a
:100fa00035168600840f5300858f5b00f3003c00ec
:100fb0004e039000de039000a4158600b515860050
:100fc000840f5300858f5b00ec0035004e039000ca
:100fd000de0390002416860035168600840f530029
:100fe000858f5b00e5003c006e039000fe039000df
:100ff000a4158600b5158600840f5300858f5b000d
:10100000de0035006e039000fe039000241686007b
:1010100035168600840f5300858f5b00d7003c0097
:101020000e0b90009e0b9000a4158600b51586004f
:10103000840f5300858f5b00d00035000e0b9000ad
:101040009e0b90002416860035168600840f5300f0
:10105000858f5b00c9003c002e0b9000be0b9000fa
:10106000a4158600b5158600840f5300858f5b009c
:10107000c20035002e0b9000be0b90002416860097
:1010800035168600840f5300858f5b00bb003c0043
:101090002e039000be039000c4158600d51586006f
:1010a000840f5300858f5b0005003d00c41586004a
:1010b000d515860024079800350798000b003700e7
:1010c0002e039000be0390000416860015168600bd
:1010d000840f5300858f5b000400340004168600e3
:1010e0001516860024079800350798004e039000d7
:1010f000de039000c4158600d5158600840f5300ca
:10110000858f5b0005003d00c4158600d51586005f
:1011100044079800550798000b0037004e039000d5
:10112000de0390000416860015168600840f530017
:10113000858f5b00040034000416860015168600b7
:1011400044079800550798006e039000fe03900036
:10115000c4158600d5158600840f5300858f5b006b
:1011600005003d00c4158600d5158600640798006b
:10117000750798000b0037006e039000fe03900087
:101180000416860015168600840f5300858f5b00b9
:1011900004003400041686001516860064079800c3
:1011a000750798000e0b90009e0b9000c4158600ea
:1011b000d5158600840f5300858f5b0005003d0028
:1011c000c4158600d5158600040f9800150f9800e9
:1011d0000b0037000e0b90009e0b9000041686004b
:1011e00015168600840f5300858f5b0004003400c1
:1011f0000416860015168600040f9800150f980037
:101200002e0b9000be0b9000c4158600d5158600ed
:10121000840f5300858f5b0005003d00c4158600d8
:10122000d5158600240f9800350f98000b00370065
:101230002e0b9000be0b900004168600151686003b
:10124000840f5300858f5b00040034000416860071
:1012500015168600240f9800350f98002e0b90006d
:10126000be0b9000c4158600d515860004025300fd
:1012700085825b0054628800656288000e0b9000d6
:101280009e0b9000e4158600f515860004025300bd
:1012900085825b0034628800456288006e0390009e
:1012a000fe039000e4158600f51586000402530045
:1012b00085825b0014628800256288004e039000de
:1012c000de039000e4158600f51586000402530045
:1012d00085825b00f4618800056288002e0390001f
:1012e000be039000e4158600f5158600840f5300b8
:1012f000858f5b0004003d006022b800d461880047
:10130000e56188000400370014002000050020007b
:10131000d4618800e561880014002000b461880071
:101320000002eb00c461880014002000a461880062
:1013300013e1a9008500a9000002eb005408880011
:1013400013e1a8000d003700000000000b0037007b
:10135000000000000900370000000000070037000f
:101360000000000005003700000000000300370007
:101370000000000001003700000000000002eb0048
:10138000d460880061e0a800000000000080fa003e
:101390004f03be004f02be004f01be004f00be0013
:1013a0003600f90000400600849fbe00869fbe0004
:1013b0000000fa008460a9007467800085678000df
:1013c00061024200e0824a007467880085678800f5
:1013d000766780008767800094678000a56780003b
:1013e000840f5300858f5b00080036000082eb00fd
:1013f0008082eb0094678800a5678800b46780004e
:10140000e00f5200010032008bc0a8000080fa00fb
:101410004f03be004f02be00004006003600f80039
:10142000809fbe00829fbe00849fbe00869fbe003c
:101430000200fa008bc0a900b4678000040f780096
:101440001e027800e00f5200020032001e027800f7
:10145000040001000080fa004f03be004f02be00ee
:101460004f01be004f00be003600f90000400600ec
:10147000849fbe000000fa0074688000e00f5200f4
:10148000160032000c0037008568800004902000b0
:1014900004824200144278000482fb002411880078
:1014a000846880000402e800846888007468800012
:1014b0000402e9007468880074688000e00f52003c
:1014c0001200320015118000042020000482620006
:1014d000e00f5200ecff32000c00370054312c00ba
:1014e000144278000482fb002411880000000000f0
:1014f00054312c00144278000482fb00241188002f
:101500009580a90014002000646888008580a900e7
:101510000080fa004f02be00004006003600f800ce
:10152000809fbe00829fbe00849fbe00869fbe003b
:101530000000fa0084a0a900c4ab200004007800d9
:10154000d83b070000027800e00f520003003a0089
:101550000002eb00e46388000602a8000080fa00a5
:101560004f03be004f02be004f01be004f00be0041
:101570003600f900004006000200fa004510800025
:101580000400280004826200e00f52000f003a00bd
:10159000451080000440200004826200e00f5200e9
:1015a0000a003a004510800004082000048262000e
:1015b000e00f520005003a004510800004042000ae
:1015c00004826200e00f520002003200183c070063
:1015d000a2003700e46380000500200076002000b0
:1015e00007002000860f5200878f5a0098003e00a7
:1015f00004600100070037000f00370013003700b8
:10160000160037001d003700230037003800370070
:101610003c003700242d2c00144278008482fb000b
:10162000e40f2000048262001410880014002000df
:10163000e46388008800370034002000141088001c
:1016400024002000e4638800830037000622a800fd
:1016500034002000e46388007f003700242d2c0034
:10166000144278000404a0000482fb0014108800d7
:1016700044002000e46388007700370008c2a90016
:101680000662a8000002eb000464880054002000f9
:10169000e463880070003700066480000410800056
:1016a0000442780025c9200085024300844a78005e
:1016b000046480000402e80004648800046480007c
:1016c000e50f520005003e0006a2a9000682a80010
:1016d00064002000e46388005f00370006a2a800d1
:1016e0000682a80074002000e46388005a003700d6
:1016f00008c2a9000662a80054002000e463880024
:1017000055003700ca3b070024c920001442780066
:101710001447980034c9200014427800044f780020
:101720001e0278000402ea00cfa2de00c464880032
:10173000d564880044c920001442780014479800fa
:1017400054c9200014427800044f78001e0278002b
:101750000402ea00cfa2de00046588001565880057
:1017600064c92000144278001447980074c920000e
:1017700014427800044f78001e027800cfa2de00e9
:10178000e4648800f5648800f4638000e00f520090
:101790000d003a00c4648000d56480003464880081
:1017a00045648800e4648000f56480005464880027
:1017b0006564880004658000156580007464880095
:1017c0008564880018003700366480004764800014
:1017d000c4648000d56480000602420087824a000b
:1017e0003464880045648800566480006764800023
:1017f000e4648000f56480000602420087824a00ab
:101800005464880065648800766480008764800082
:1018100004658000156580000602420087824a0048
:1018200074648800856488001464800025648000e6
:1018300061024200e0824a00146488002564880046
:10184000f46380000402e800f463880002003700bb
:10185000773b070001003700000000000080fa001d
:10186000000006000040da000000fe00889fbe0075
:101870008a9fbe008c1f78005c00070010022000c9
:1018800002003b00e0688800600037008a006200c8
:101890006408e10002003a00e06888006800370050
:1018a0006108e100fcff32000800be00030478007c
:1018b0006104070001f0a100fb02070008f0a60088
:1018c000040037000001be0091042400b0fd200098
:1018d0005e00070009f0a70001f0a20054003700e5
:1018e0001400200084073700f4ff2f008207370020
:1018f0000001be00280007000470a70003f0a1004b
:1019000003f8a30013003a006509b100100032008b
:10191000090035006928e1000200350001002800b7
:101920000000050000004000818048008502e900b9
:10193000fcff3a0000000600f88f42000500350069
:101940008100d1000080d3008502e800fcff3a004e
:10195000000006008000eb00000005004f89de005b
:10196000820178007f0737006011b8008d073700cb
:101970000001eb00390707000400320002002000dc
:1019800003f8230001f0a700300007000000060064
:101990000400200058073700c70ade00f107b20034
:1019a000f50fb20008003200e1cf42000200320021
:1019b0000170a00024000500810f700001003200ba
:1019c0000408050044000500810f700002003a0081
:1019d000140005008502e9000000400081c04800b5
:1019e000fcff3b000170a000240005000004be00c5
:1019f000e9ff07000003be000405be000200be00b0
:101a0000e5ff0700844f7500000006000200be00dd
:101a10006450e100050036006420e1000200360059
:101a20000968a30001003a000800be000160a000a0
:101a30004f0678004f05be004f04be0000000600b0
:101a4000f0ff2f00f1ff2700f9ff370007f827000c
:101a5000078361000638e10004003a00f707200020
:101a6000878361008703710001003a0003f0a20040
:101a7000889fbe008a9fbe008c9fbe00470ade0082
:101a80000480a100c71ade000580a100070028001d
:101a90000785600087856100f70f20000720e100bf
:101aa0009e0032000728e1009c0032000106780009
:101ab0000400e000b4003200f707200087806000d7
:101ac0000170a0000500e000c0003200f707200010
:101ad000878161000370a000050652000f003a00e4
:101ae0000b50e1000b0032000308e10002003a0055
:101af0000200e1007e00320002045000838458009e
:101b0000040031000001fd008101fd008402fd00a0
:101b10008a05fd006044b800210037000520e1007f
:101b200005003d000001fd008101fd008402fd0073
:101b30008a05fd00050652007a60e10005003500c7
:101b40000170a1004722dd00848070008a8070004f
:101b5000630037006044b800ef02660007ff2f0003
:101b6000070666000500e00006003400f08312005e
:101b70008714dd000511de00071bdd000601710082
:101b80008519de007060e100050035000904780069
:101b900082047800030178008001eb007006560093
:101ba0000b50e10003003a0002004000838048002f
:101bb0000400370060041400e0841c000200580098
:101bc000838058000188a300060032008100d10004
:101bd0000080d3008984d3000884d3000402e80085
:101be000270037000178a30025003a000100e0003b
:101bf000030032008186cf00698656000a00370054
:101c00008c0020000000e00004003a000900780089
:101c1000880478000004eb00700252008086cf0038
:101c20000d0646000c06e9007060e1000600350074
:101c30008000780009007800880478000004eb0038
:101c400070065600700252000c00e0000c003400d8
:101c50008c08dd00f00316000703de0086807000ac
:101c60000c00dd00074bde00060070008c4cdd0030
:101c70000743de00868474000c44dd000c02520031
:101c80006120e100200035006101600007002800ac
:101c900087816400f7ff27008783640007037400cf
:101ca0000300e000060032008203730004003200eb
:101cb0000000e800e08048000188a3000e003a0020
:101cc000f70f20000720e1004a003d000170a1004d
:101cd0004722dd00810072008a8070000000be0093
:101ce0004f06be004f05be004f04be0000000600b8
:101cf0006000b800faff37008100d1000080d300f7
:101d00000402e800eeff3700040178008901740046
:101d1000cd0407008a807000f1ff37001b07070021
:101d2000070278000001fd008101fd001707070090
:101d300087027800850372000778a3000400320050
:101d40000001fd008101fd001a040700e4ff3700d7
:101d5000850362000768a300080032000b50e10011
:101d600003003200f0ff2f00f1ff2700dcff3700f7
:101d70000001fd008101fd00d9ff37000468a300c8
:101d8000d7ff3200faff3700f8ff27008883600092
:101d90000b003a000000e00009003a0083036400f1
:101da00082837300020032000200be00ccff3700c5
:101db0000b50e100ceff3a000200be00c8ff370022
:101dc00014002000810064003eff3700f8ff270068
:101dd0008883610004003a000200e00002003a003b
:101de0008c007800beff37001500200083016400de
:101df00039ff370001f8270000002000810075003e
:101e0000b7ff37000383680007002800070363005b
:101e1000470ade000480a100c71ade000580a10089
:101e2000f70f20000720e100420032000728e10000
:101e300040003200889fbe008a9fbe008c1f780041
:101e4000f107b200f307b2000400e00064003200c2
:101e50000170a0000500e000680032000370a000df
:101e600085054200eb07b1000204b8000302b80088
:101e70008484440060854a00020ab80084844400d7
:101e80000a854a00030ab80004054500040033002f
:101e90000804d0008984d2000a85d2008b05e900ad
:101ea0006158e1003d003500021020000901610089
:101eb0000308200089816100f70720008783640000
:101ec00008867300c84cde00c853dd0087847400a8
:101ed0004855de000300e000060032008203760071
:101ee000040032008904e80060054d000a88a30060
:101ef0000c003a00f70f20000758e10044003d00b5
:101f00000a70a100c75ddd000a8575008a007300b4
:101f1000090078004f0678004f05be004f04be0050
:101f2000000006000a05d1008984d3008b05e80073
:101f3000f0ff3700881f780006047800930607003a
:101f4000070278000001fd008101fd008f060700f7
:101f500087027800850372000778a300050032002d
:101f60000001fd008101fd00920307004f0478008d
:101f700000000600850372000748a300030032003a
:101f8000f0ff2f00f1ff2700f8ff370000002000ce
:101f900001f8270088807000f4ff3700880178007e
:101fa0004848dd00808171004848de00c850dd00ef
:101fb00001007000c850de00060478000b017800b4
:101fc0002104070088807000d2ff37000500e00080
:101fd0000500320017002000680207009dff37004f
:101fe00081037000f9ff3a00860078004f06780000
:101ff0004f05be004f04be000000050083037100c2
:10200000f9ff3200270020005c02070094ff370030
:1020100001f8270086807000f4ff370002025000ac
:1020200083825800610039000303710062003200ae
:1020300005037200590032000300e0005500330030
:1020400017003a000100e0004b0032000208e100f6
:1020500006003100110009004288d8000101780013
:102060008001eb008000eb00000006006110e10041
:10207000550032000002be00110009008280d80025
:102080008002780004007800110009004288d8001e
:10209000010178008001eb00850078000000060057
:1020a000889fbe008a9fbe008c9fbe000386cf0023
:1020b0000c06e9008c1f78008c19dd00f002160078
:1020c0000512de00848171000c11dd000003be00ea
:1020d0008004eb00053cde008c3bdd000532de00b9
:1020e000848373000c33dd000700780088007800db
:1020f000110009004388d8000202b8000306b800a6
:102100008c82420060854e008005eb000402530083
:1021100085825b000a055c008b855c000b00330048
:102120008000eb004f0678000c21de0070051600e1
:102130000a2ddd000a0171008c29de004f06be0069
:102140004f05be004f04be00000006000202420020
:1021500083824a0060054d00e0854d000000e900e3
:102160000b00e000eeff3d000202420083824a00c5
:102170000000e900eaff37000000e0001200320032
:10218000110009000280d800010178008000eb00f6
:10219000000006000401be00010037006011b80015
:1021a000100020008000eb00000006000001be00cf
:1021b0006000b800000006000001be00f0ff2f0024
:1021c000f1ff2f00000006006011b80000000600bb
:1021d0008c9fbe003400f80002002000a20188009d
:1021e000020028000286600001f0a1000200200029
:1021f00003f0230002015000838158000c003100dd
:10220000020020000398230002015000838158003f
:1022100003003900590307008b000700040407007e
:10222000810076003400f9004f06be000000060071
:102230008a9fbe00889fbe000200200003f8230092
:10224000020150008381580019003100340007005a
:102250006822b800046001000201e90014d52e00d4
:1022600075482600f3ff2f00a603070000000000ba
:102270000000000023003700545525005555250067
:10228000e3ff2f00168e24005730240008002000a2
:10229000190107001b0037000201e80014d52e00c9
:1022a0007548260003002000910307001500370041
:1022b0000200e00006003a000300e00004003a00db
:1022c000b0fd200091fc2300810076000f00370054
:1022d00081007600ad0507000758a30004003a000e
:1022e0000778a300020032000160a000020037005e
:1022f000f0ff2f00f1ff270012022000e2688800a3
:1023000002003700ca030700810076004f04be00b8
:102310004f05be003400f9004f06be000000060065
:10232000889fbe008a9fbe008c9fbe00723d2b001e
:10233000d3f5230002015000838158000d003100c5
:102340000e0307000002be00820178000600200094
:1023500007002c00f8ff2f00e70007000100e00055
:10236000020032000201e800370007000002eb0023
:1023700031003700e2352800c3f623000201500087
:102380008381580010003100fc020700809fbe00ce
:10239000821f78000201e8000002be00820178007e
:1023a0000600200007002a0018002000d2000700c5
:1023b000cf0178004f02be0087020700220007000d
:1023c000140020001c003700ec0207008201e90025
:1023d0000002be000000200001002400f2ff2f00d8
:1023e00046030700809fbe00821f7800e3030700ba
:1023f000ef0141000300e0000c0035000005be00c5
:10240000820478004f0178004f00be005300200086
:10241000243b2c004b0107000a02be008901780012
:102420006d0207002400200003003700cf01780070
:102430004f02be00240020004f06be004f05be0024
:102440004f04be00000006000100e000150032004d
:10245000ef01410013003500809fbe00821f78000d
:10246000e401410006003c000002be008201780049
:102470005902070053002000243b2c0005003700c0
:102480000002be00820178005302070073002000a2
:10249000a43a2c002b010700cf0178004f02be00a8
:1024a0004d02070000000600889fbe008a9fbe0004
:1024b0008c9fbe003400f80006002000a6018800b2
:1024c000060028008686600001f0a10006002000ba
:1024d00007e02300060350008783580012003100f4
:1024e0000600200007982300060350008783580049
:1024f0005c003900a10207000005be0082047800dc
:102500000002be0082017800330207004300200071
:1025100064312c00680507000a02be0089017800ba
:102520002d0207004e00370006002000071024008f
:102530000603500087835800380031000600200051
:1025400007fd230006035000878358000b0031006d
:102550008a0207000005be00820478006201410083
:102560002405070000067800ef0307006201510010
:10257000809fbe00821f7800080037007f0207009e
:102580000005be00820478001a05070065064000b9
:10259000e5030700809fbe00821f78000a02be008c
:1025a00089017800070024000600200008002000b0
:1025b000510007000005fd008105fd008204fd00bb
:1025c000cf0178004f02be00cc0207000a02be0015
:1025d00089017800e10107000104780008f8a300f0
:1025e0000200320060001000e08018002d0007009b
:1025f00008f8a3000200320060001000e08018001c
:1026000066322c006665b800060345003602be003f
:1026100096017800bb020700110037000600200079
:1026200007c82400060350008783580013003100b8
:10263000520207000002be0082017800010024005f
:102640000000200002002000c40107001500070060
:102650007548260014d52e0003002000a4020700b0
:10266000f30207008d8070003400f9004f06be00b1
:102670004f05be004f04be0000000600c304070063
:102680000778a30003003a00b0fd200091fc23006e
:10269000f4ff37000160a00016022000e668880001
:1026a000f0ff37000100e0000d003200ef034100b1
:1026b0000b003500809fbe00821f78000002be0024
:1026c00082017800c40107004300200064312c001f
:1026d000f9040700cf0178004f02be00be010700d9
:1026e0000000060060001000e080180002003700c3
:1026f00060031300e0831b00889fbe008a9fbe001a
:102700008c9fbe00830441000405b800050eb8008c
:102710000501b8008285450003064e00e0864e00a4
:102720000409b8008285450003064e00e0864e008d
:102730000100e00002003d000406560085865e00b0
:102740000500e00002003d000006560081865e00a4
:102750000d00e000740032000700e0007500320058
:102760006022b8008783d1000683d3008582d3001e
:10277000090054000000e9001b003c003b0035004c
:102780000804e8000a0042008b804a000c014b005c
:102790008d814b0072050700040454000300e00023
:1027a0000e003200090028000918e100060032007e
:1027b0000200be00080178004f06be004f05be00b3
:1027c0004f04be00000006000200e000f8ff3a00df
:1027d00003002c000804e800f5ff37006000b80093
:1027e0000001eb00f4ff37000804e8007e00e10080
:1027f00001003400e0012000cfecde00ef006000bb
:102800000100e0000c003200f08110000155de00f4
:102810000359dd0002057500815dde000361dd0006
:10282000828575000166de000369dd000206760020
:1028300081eede00010050004400de006501b800ba
:10284000026001000a0042008b804a000c014b002c
:102850008d814b00cfff37000b0042008c804a0077
:102860000d014b0089814b00caff37006284440090
:102870000000ea00030420000300e100010034002e
:1028800000042000cfbcde00ef0060000a00320030
:10289000f0811000032add00812ade000331dd0013
:1028a000828272000133de000339dd00020373000f
:1028b00081bbde00010050004400de006501b8006d
:1028c000026001000a0042008b804a000c014b00ac
:1028d0008d814b00afff37000a8042008b004b0018
:1028e0000c814b008d814c00aaff37000a00430089
:1028f0008b804b000c814c008d814c00a5ff370074
:102900000a8043008b804c000c814c008d814c0070
:10291000a0ff37000a8044008b804c000c814c00e3
:102920008d814c009bff37000600be000801780037
:10293000a1ff37000c01be000a00be006284440003
:1029400094ff3700e102410002003500de04070079
:1029500000000600e2024100020035001c030700ef
:1029600000000600e302410002003500e203070018
:10297000000006005004070000000600889fbe000b
:102980000004eb006138e10016003a000100e000ad
:1029900008003a00c800de004800dd008800200082
:1029a0000100e00003003a00c800de004800dd003e
:1029b000680444008184cf00e98454000600340098
:1029c0008908dd00f08314008703de008780700033
:1029d0000900dd0009044400610214004f04be0038
:1029e000000006000300e00008003a00c811de0005
:1029f0004811dd00880020000300e00003003a00d9
:102a0000c811de004811dd00680444008384cf0053
:102a1000e9845400060034008919dd00f0831400b5
:102a20008713de00878171000911dd00090444006d
:102a3000e1021400e9ff3700889fbe008a9fbe00b4
:102a40008c9fbe001b0020000202be0005866800ad
:102a500006002800060666004709de00f20fb200f5
:102a6000820032000243e80080003200c729de0005
:102a7000f30fb2007d0032000343e8007b00320018
:102a8000f107b2000170a000f507b2000570a000c8
:102a9000c708dd004903de00868070004700dd00c6
:102aa000c72add004923de00868272004722dd004e
:102ab00003055100040350008583580003003100d2
:102ac00000004000818048000a05e9008c1f780062
:102ad0008a9fbe0004005000858058000402420016
:102ae00085824a0000004000818048000005eb001c
:102af0000004be006033b8000406be000d48e100cb
:102b000056003100110009004dccd8000c01b8006e
:102b10000d02b8008481410060824a008283530024
:102b200003045c0084845c0060055d000a00e00032
:102b300025003a00800578000d40e1004900310091
:102b40008800780007007800110009004d88d8003f
:102b50000c01b8000d02b8008481410060824a0077
:102b60006003110083835b0004045c00e0845c006c
:102b70000900e00021003a004f01be000300e00020
:102b80002b003200e3016000070673008c817100a6
:102b900001003200640070004200de004e5edd0085
:102ba0000c007000c258de0001e0a000a001070088
:102bb000cf017800818071004f06be004f05be0036
:102bc0004f04be00000006008c8343000d044c003f
:102bd000e0844c0060054d000000e9000a00e000c0
:102be000d4ff32008c8343000d044c00e0844c0081
:102bf00060054d000000e900ceff37000c034300e4
:102c00008d834b0060044c00e0844c000000e90020
:102c10000900e000d8ff32000c0343008d834b0015
:102c200060044c00e0844c000000e900d2ff370053
:102c30004200de004e5edd000c007000c258de0077
:102c400001e0a000cf0178000300e000daff3200cd
:102c500060001000e0801800d7ff3700f0ff2f0061
:102c6000aaff3700f0ff2f00b9ff37000404be00b1
:102c700046030700870678000004fd008104fd007c
:102c800042030700078366000678a30003003200b2
:102c90000960a7000800be002c0037000d78a300d3
:102ca000020032000800be00280037000778a300a9
:102cb00026003a0001f0a10009f0a1000668a30077
:102cc00003003200f1ff2700f0ff2f00baff3700aa
:102cd0000d68a300030032000800be008c80700065
:102ce000b5ff37000768a30007003a000648a300b5
:102cf00003003200f1ff2700f0ff2f00aeff370086
:102d00000d48a300030032006000b8008c80700002
:102d1000a9ff37000748a3000400320001f827008c
:102d2000000020008c807000a3ff37009300070094
:102d30000004fd008104fd00020578008f000700fb
:102d40000802be008a01780059ff37000160a00028
:102d500012022000e268880097ff37000100e000bf
:102d6000120032000500e00010003200889fbe0013
:102d70008a9fbe008c9fbe000006eb0001f8a300f6
:102d80000300320060001000e08018000cf0a0008a
:102d900005f8a3000300320060021200e0821a006e
:102da0000cf0a2008005eb0041ff37006000b80086
:102db000020005000478a300040032000578a30097
:102dc000030032000168a30001003a000200be00c7
:102dd0000160a00000000600889fbe008a9fbe0020
:102de0000004be000405be00030141000201e8002a
:102df0008000eb000a42b8000b43b8008682420014
:102e000060804b000a4bb8008682420007004800f1
:102e1000e08048000b4bb800060040008780480067
:102e20000103700002003a000001eb0012003700bd
:102e30000900e00002003d000a0050008b805800ad
:102e40000b00e00002003d0008005000898058009f
:102e50008582420000004800818048008101df0037
:102e60000300e000040032008582420000004800b8
:102e7000818048000201e9004f05be004f04be00fa
:102e80000000060001f8a3001d003a004709de001b
:102e9000f40f20000410e100260032000200e000e0
:102ea0002c003200f107b200c708dd004902de0045
:102eb000848070004700dd0001e0a000f207b1004f
:102ec0002e010700f207b000040420008401600016
:102ed0004700de00490add0004007000c708de007c
:102ee0000300e0000200320061004000e080480082
:102ef000f107b2004711dd0082807000000006007b
:102f0000f4ff2700048260008002720001003a0092
:102f10000000060006f827000620e1001200350038
:102f20008102630006826a00040270000e00320013
:102f30000600370004f827000482680003003a0006
:102f40000400200000026a000b0032000160a000b3
:102f5000000006000082700001003a000000060038
:102f600006000700d6ff370012022000e268880042
:102f7000f0ff2f00f1ff2700000006004f0ade00df
:102f80004709de00f107b200f20fb2000b00320079
:102f9000f207b1000170a000c708dd00c901de0022
:102fa000838070004700dd000400a60000000600da
:102fb00060001000e080180000000600810f700023
:102fc00001003a00000006008182cf000500e00009
:102fd00010003e008082cf00ee8242007028e100a7
:102fe0000400390007003e00800078000000eb007c
:102ff0000e003700708312008600de000500dd0041
:103000000a003700708352008600dd000000eb00ec
:1030100006003700e28252008508dd00708312004e
:103020000603de00868070000500dd007507b00035
:103030000501ea000400a600000006006000100080
:10304000e0801800000006000100e00026003200c9
:10305000610111007810e10023003c006022b800fb
:103060007010e10004003500800278000100780053
:103070008000eb00700151000200e0000900340004
:1030800070031100062add00822ade008603dd00bf
:10309000878272000200de00860bdd0007007000f0
:1030a0008208de0084817100f4ff27000482620040
:1030b0008481710004002800848262006102600043
:1030c00005f0a6000000060004827100070032002f
:1030d0000000e800e0804800000006000002be009a
:1030e0006000b800efff37006000b8000000060085
:1030f00060001000e080180002003700600212003b
:10310000e0821a000100e0003f0032000500e0000c
:1031100039003200889fbe008a9fbe00820378007b
:103120008304510004003d000002fd008102fd0007
:103130008904ea00830378000101780080007800a8
:103140000000eb0005037800840278000002eb0029
:1031500006056900070035000281d1008180d30097
:103160000080d3000683d1008582d3000482d3007f
:103170008703e8007048e100060035007f48e10061
:1031800029003c0005027800860278004fb3de007b
:10319000f08454000900e000080032000922de003b
:1031a000708514008a2ddd000b027200892ade0072
:1031b0008a35dd008b82720009b3de000400400016
:1031c00085804800060149007e0207008383530082
:1031d0000200e000090032000b0028000b10e100a3
:1031e0000c003200010078008200780007017800ae
:1031f0004f05be004f04be00000006006000b8008e
:103200000001eb00faff37000400be000301780064
:10321000000006000100e000f2ff3a0002002c006e
:103220008703e800efff3700f9012000d5ff3700e2
:1032300081017000270032008002eb0001f8a3003a
:103240000300320060001000e0801800150020002c
:10325000f40720000202420020003400f70320009f
:1032600087036000060420000003630002082000ba
:10327000000161004700de00c909dd000080710027
:10328000c708de000600e000080032008703710076
:10329000060032001000b0000180b0000188a300d9
:1032a00002003200c108de000402e800f107b200ab
:1032b000f30f20000320e10003003d004722dd0062
:1032c000810072002900370001f827000000eb00a0
:1032d000260037006000b8000000060068021200f7
:1032e0007f20e100020034006000b8001f003700ba
:1032f0006011b8007020e100040035008001780002
:10330000010078008000eb00700252000400e00031
:1033100009003400f00312000719dd008419de00f3
:103320000703dd00868171000400de00070bdd006d
:10333000060070008408de00f7ff27008383630027
:1033400087037100060028000303630007003200b2
:103350000700e00003003a00610160000281730091
:10336000020032001000b0000180b0000500a6008d
:103370000000060001f0a0000000060081037000bc
:1033800068003200889fbe008a9fbe008c9fbe00ee
:103390003400f80008002000a80188000208a300fb
:1033a000030032000000d0008180d2000201e90059
:1033b00081017800800278000002eb00821f780013
:1033c0004a1cde000801b100a9372c0069417c00cd
:1033d0000281fb000214b8004644dd000340e10016
:1033e000010036000201e9004111dd001200b300c6
:1033f0000214b8004444dd000340e100010036003f
:103400000201e9004111dd001200b3000214b8000e
:103410004244dd000340e100010036000201e90002
:103420004111dd001200b3000214b8000340e100b6
:10343000010036000201e9000214b80008865100bc
:103440004763dd00492cde00080373008204780026
:103450004834de000940e1002e003100110009006f
:103460000983d8004811dd00000171000214b80082
:103470000006eb0084067800088552008985590013
:10348000040031000201e9000214b800088552006e
:1034900089855900820478000b04d1008a83d30007
:1034a0000d83d3000938e1001c0031001100090030
:1034b00049bbd8008002eb000003b8000204b8004a
:1034c0000804440089844c00e0824a0087034400d9
:1034d00060824c00e0814a000603560087835e004c
:1034e00004025d0083815d00010031000000e900fd
:1034f0008200d1000080d3004f0178004191de00ae
:103500003400f9004f06be004f05be004f04be0058
:1035100000000600f00f2000d2ff3700f0ff2f0060
:10352000e4ff3700020005000003eb008101df002b
:103530008301ea006f18e1000f0032000300e00091
:10354000060032008308dd00708211008402de0074
:10355000858070000300dd00030343000100e000ec
:1035600014003200040028000408e10013003200b7
:103570007e011300000006008100d1008080d3008e
:103580004f00dd00f60020008101df008301ea002a
:103590006f18e100e9ff3a008100d1008080d3007c
:1035a0000000eb00e60120008101df008301ea005a
:1035b000e2ff37006000b800020005000000e000f4
:1035c000ebff3a0001002c000603e900e8ff37009a
:1035d0006218e1001b003500889fbe008a9fbe0074
:1035e0008c9fbe008301e9000004be000205be00fe
:1035f000040678003c00be000801be0095010700eb
:103600003c004100bc8049008b05e900faff3c000a
:103610000103df008606ea00050034008d08dd00a6
:10362000708216008402de00858070000d00dd00cf
:10363000060178004f06be004f05be004f04be00d5
:10364000000006000300e00002003a006000b8003d
:10365000020005003400be0002000500889fbe0085
:103660008a9fbe000003be00cbf8070085057800e6
:1036700082815200020020006220e10004003a0032
:10368000f307b100040035007718e10004003500ad
:103690000600be00140037006000b8000f003700bd
:1036a000f50f2000faff2f008502d1000a85d30014
:1036b0008301e900fcff3b00818462000004650097
:1036c000890f7400f2ff32008582ea000a85ea0061
:1036d00081846200000465006100070007f0a70014
:1036e00001f0a0000081eb000200e0004f05be00e9
:1036f0004f04be0000000600889fbe008a9fbe00e7
:10370000841f7800b9f807004f00780011003300db
:10371000f0ff2f00838f6c0006003b00040565005e
:103720000a00a7000800370009f0a60010002000da
:1037300008003700820f5400838f5c0003003900bb
:103740001000200001003e000000200009f0a7004a
:103750000000ea004f05be004f04be000000e0007c
:1037600000000600881f7800030478000300e000d2
:1037700007003d0060001000e080180060011900a3
:10378000e081190002003b0001f02d00030037002a
:103790000400070008f0a70001f0a0004f04780023
:1037a00000000600889fbe008a9fbe000082700055
:1037b0000402710004827100260032000004be0081
:1037c0000200be006011b8006b09200095022000c5
:1037d0000182cf000a0039000541b1000082cf000c
:1037e000070039000541b1000982cf00040039000b
:1037f0000541b1000882cf00010039000541b10048
:1038000005425200120032000a003b008281710022
:10381000610164008100d1000080d3008984d3005d
:103820000884d3008b05e8000442e800f7ff3a0063
:10383000070037000804440089844c000000480059
:10384000818048008b05e9000442e900f9ff3a0055
:10385000030007004f05be004f04be000000060035
:1038600081002000618055000b003d000b0020000e
:1038700061fe2f000100e1001d0034008281710013
:10388000610164008904d1000884d3000000e800cd
:10389000faff3a007100200061006400030070002c
:1038a000020060000900320061044400e0844c0022
:1038b0000988a500050032008b05e8006808e100d2
:1038c00002003a008904d1000884d300f20f2000de
:1038d0000258e10005003d00c75ddd00f907b200b8
:1038e0008980750008007800000006000bf82700aa
:1038f0008b007800000005006218e1001d00350013
:10390000889fbe008a9fbe008c9fbe008301e90095
:103910000004be000205be00040678003c00be00a4
:103920000801be00cb0007008381d1000281d300d3
:103930003c004100bc8049008b05e900f8ff3c00d9
:103940000103df008606ea00050034008d08dd0073
:10395000708216008402de00858070000d00dd009c
:10396000060178004f06be004f05be004f04be00a2
:10397000000006000300e00002003a006000b8000a
:10398000020005003400be000200050027002000f0
:1039900001f0a70017002000470bde00f60fb20071
:1039a000040032000643e8000a0032004702b30078
:1039b0000000060001037800f607b200060370005d
:1039c00002003a000703b300000006008702b300bc
:1039d0000000060001037800f607b200060370003d
:1039e000020032000770a000000006000760a0007f
:1039f000000006000100e000210032008201e80022
:103a00002b0035007e0211001e0034006011b8004a
:103a10007020e1000400350080017800010078008a
:103a2000cf88de00700252000400e0000700320080
:103a300003017800700312008601dd000400de003f
:103a4000860bdd00070070008488de00e102600064
:103a50000600280003036300f7ff27008383630049
:103a6000828373000600e0000500320007817200c7
:103a70000200e0000200320061004000e0804800e7
:103a8000000006007e10e10001003a000000060080
:103a90000100e00003003500f1ff2700f0ff2f00d8
:103aa00000000600010028000000200000000600c1
:103ab0006000b800000006006218e1003b0035001d
:103ac000889fbe008a9fbe008c9fbe008301e900d4
:103ad0000004be000205be00040678006205450031
:103ae0000a05ea003c00be007050e10017003500f6
:103af0000d0032007f50e10001003400fa01200087
:103b0000f00655000801be00520007000d99de00c6
:103b1000cf99de003c004100bc8049008b05e900e4
:103b2000f8ff3c00140037000801be004900070000
:103b300003017800cf99de003c004100bc804900c1
:103b40008b05e900f8ff3c000b003700f00615007c
:103b50000801be003f0007000a11de008d1add00db
:103b6000050171008a99de003c004100bc804900db
:103b70008b05e900f6ff3c000103df000605ea00c3
:103b8000050034008a08dd00700215008402de00a2
:103b9000858070000a00dd00060178004f06be0037
:103ba0004f05be004f04be00000006000300e00009
:103bb00002003a006000b800020005003400be00b8
:103bc000020005008001eb000202df000402ea00af
:103bd0006f20e10010003a000201d1000181d30002
:103be0008080d3004f00dd00f30020000202df00e0
:103bf0000402ea006f20e10007003a000201d10050
:103c00000181d3008080d3000000eb00e30120009d
:103c10000202df000402ea000400e00009003200b2
:103c2000f00212000411dd00050bde000601710038
:103c30008408dd000503de00868070000400dd00de
:103c4000848141000200e000010032000000060013
:103c500003000500889fbe008a9fbe008c1f78006d
:103c60000002be000203be000620b800062db80008
:103c70008a80400060814d000724b800072db800fd
:103c80008a84440060864d008100440002814c001b
:103c9000e0014e000700e000080035000500e000ec
:103ca00002003d0006015100878159004f0678004f
:103cb0004f05be004f04be00000006000401510085
:103cc00085815900f5ff37006218e1001e003500bc
:103cd000889fbe008a9fbe008c9fbe008301e900c2
:103ce0000004be000205be00040678003c00be00d1
:103cf0000801be00d7ff07008100d0000281d2007a
:103d00008381d2003c004100bc8049008b05e90062
:103d1000f7ff3c000103df008606ea0005003400df
:103d20008d08dd00708216008402de008580700040
:103d30000d00dd00060178004f06be004f05be00f5
:103d40004f04be00000006000300e00002003a003d
:103d50006000b800020005003400be00020005004b
:103d60000002eb008302df008502ea006f28e10019
:103d700023003a008301d1008281d3000181d30066
:103d80008080d3004f00dd00f40020008302df00bc
:103d90008502ea006f28e10019003a008301d10092
:103da0008281d3000181d3008080d3000000eb002a
:103db000e40120008302df008502ea006f28e100b1
:103dc0000f003a008301d1008281d3000181d3002a
:103dd0008000eb00d40220008302df008502ea00ad
:103de0006f28e10006003a008301d1008281d300f0
:103df0000001eb00c40320008302df008502ea001b
:103e00000500e0000c003200708312008519dd000f
:103e10008613de00878171000511dd00860bde0050
:103e2000070171008508dd008603de0087807000d1
:103e30000500dd00050242000300e0000100320041
:083e400000000600040005006b
:020000040000fa
:0200000401f009
:04000c0078ff000079
:020000040000fa
:0200000401f009
:040010005eff00008f
:020000040000fa
:0200000401f009
:040014007fff00006a
:020000040000fa
:0200000401f009
:04001800eeff0000f7
:020000040000fa
:0200000401f009
:04001c00dfff000002
:020000040000fa
:10000800320c0000320c0000320c0000320c0000f0
:10001800320c0000320c0000320c0000320c0000e0
:10002800320c0000320c0000320c0000d409000031
:10003800320c00008e0a0000320c0000320c000066
:1000480022060000320c0000320c0000320c0000c6
:10005800380a0000a0020000320c0000320c000038
:10006800bc03000038030000320c000052060000f8
:10007800c4030000320c0000320c0000320c0000f7
:10008800320c0000320c0000320c0000320c000070
:10009800320c0000320c0000320c0000320c000060
:1000a800320c0000320c0000320c0000320c000050
:1000b800320c0000320c0000320c0000320c000040
:1000c800320c0000320c0000320c0000320c000030
:1000d800320c0000320c0000320c0000320c000020
:1000e800320c0000320c0000320c0000320c000010
:1000f800320c0000320c0000320c0000320c000000
:10010800320c0000320c0000320c0000320c0000ef
:10011800320c0000320c00000e0a0000320c000005
:10012800320c0000320c0000320c0000320c0000cf
:10013800320c0000320c0000320c0000320c0000bf
:10014800320c0000320c0000320c0000320c0000af
:10015800320c0000320c0000320c0000320c00009f
:10016800320c0000320c0000320c0000320c00008f
:10017800320c0000320c0000320c0000320c00007f
:10018800320c0000320c0000320c0000320c00006f
:10019800320c0000320c0000320c0000320c00005f
:1001a800320c0000320c0000320c0000320c00004f
:1001b800320c0000320c0000320c0000320c00003f
:1001c800320c0000320c0000320c0000320c00002f
:1001d800320c0000320c0000320c0000320c00001f
:1001e800320c0000320c0000320c0000320c00000f
:0801f800320c0000320c000083
:020000040000fa
:10020800320c0000320c0000320c0000320c0000ee
:10021800320c0000320c0000320c0000320c0000de
:10022800320c0000320c0000320c0000d40900002f
:10023800320c00008e0a0000320c0000320c000064
:1002480022060000320c0000320c0000320c0000c4
:10025800380a0000a0020000320c0000320c000036
:10026800bc03000038030000320c000052060000f6
:10027800c4030000320c0000320c0000320c0000f5
:10028800320c0000320c0000320c0000320c00006e
:10029800320c0000320c0000320c0000320c00005e
:1002a800320c0000320c0000320c0000320c00004e
:1002b800320c0000320c0000320c0000320c00003e
:1002c800320c0000320c0000320c0000320c00002e
:1002d800320c0000320c0000320c0000320c00001e
:1002e800320c0000320c0000320c0000320c00000e
:1002f800320c0000320c0000320c0000320c0000fe
:10030800320c0000320c0000320c0000320c0000ed
:10031800320c0000320c00000e0a0000320c000003
:10032800320c0000320c0000320c0000320c0000cd
:10033800320c0000320c0000320c0000320c0000bd
:10034800320c0000320c0000320c0000320c0000ad
:10035800320c0000320c0000320c0000320c00009d
:10036800320c0000320c0000320c0000320c00008d
:10037800320c0000320c0000320c0000320c00007d
:10038800320c0000320c0000320c0000320c00006d
:10039800320c0000320c0000320c0000320c00005d
:1003a800320c0000320c0000320c0000320c00004d
:1003b800320c0000320c0000320c0000320c00003d
:1003c800320c0000320c0000320c0000320c00002d
:1003d800320c0000320c0000320c0000320c00001d
:1003e800320c0000320c0000320c0000320c00000d
:0803f800320c0000320c000081
:020000040000fa
:103e4800ca08000032000000000000003200000034
:103e580000000000320000000000000032000000f6
:103e680000000000320000000000000032000000e6
:103e780000000000320000000000000032000000d6
:103e880000000000320000000000000032000000c6
:103e980000000000320000000000000032000000b6
:103ea80000000000320000000000000032000000a6
:103eb8000000000032000000000000003200000096
:103ec8000000000032000000000000003200000086
:103ed8000000000032000000000000003200000076
:103ee8000000000032000000000000003200000066
:103ef8000000000032000000000000003200000056
:103f08000000000032000000000000003200000045
:103f18000000000032000000000000003200000035
:103f28000000000032000000000000003200000025
:103f38000000000032000000000000003200000015
:103f48000000000032000000000000003200000005
:103f580000000000320000000000000032000000f5
:103f680000000000320000000000000032000000e5
:103f780000000000320000000000000032000000d5
:103f880000000000320000000000000032000000c5
:103f980000000000320000000000000032000000b5
:103fa80000000000320000000000000032000000a5
:103fb8000000000032000000000000003200000095
:103fc8000000000032000000000000003200000085
:103fd8000000000032000000000000003200000075
:103fe8000000000032000000000000003200000065
:103ff8000000000032000000000000003200000055
:104008000000000032000000000000003200000044
:104018000000000032000000000000003200000034
:104028000000000032000000000000003200000024
:104038000000000032000000000000003200000014
:104048000000000032000000000000003200000004
:1040580000000000320000000000000032000000f4
:1040680000000000320000000000000032000000e4
:1040780000000000320000000000000032000000d4
:1040880000000000320000000000000032000000c4
:1040980000000000320000000000000032000000b4
:1040a80000000000320000000000000032000000a4
:1040b8000000000032000000000000003200000094
:1040c8000000000032000000000000003200000084
:1040d8000000000032000000000000003200000074
:1040e8000000000032000000000000003200000064
:1040f8000000000032000000000000003200000054
:104108000000000032000000000000003200000043
:104118000000000032000000000000003200000033
:104128000000000032000000000000003200000023
:104138000000000032000000000000003200000013
:104148000000000032000000000000003200000003
:1041580000000000320000000000000032000000f3
:1041680000000000320000000000000032000000e3
:1041780000000000320000000000000032000000d3
:1041880000000000320000000000000032000000c3
:1041980000000000320000000000000032000000b3
:1041a80000000000320000000000000032000000a3
:1041b8000000000032000000000000003200000093
:1041c8000000000032000000000000003200000083
:1041d8000000000032000000000000003200000073
:1041e8000000000032000000000000003200000063
:1041f8000000000032000000000000003200000053
:104208000000000032000000000000003200000042
:104218000000000032000000000000003200000032
:104228000000000032000000000000003200000022
:104238000000000032000000000000003200000012
:104248000000000032000000000000003200000002
:1042580000000000320000000000000032000000f2
:1042680000000000320000000000000032000000e2
:1042780000000000320000000000000032000000d2
:1042880000000000320000000000000032000000c2
:1042980000000000320000000000000032000000b2
:1042a80000000000320000000000000032000000a2
:1042b8000000000032000000000000003200000092
:1042c8000000000032000000000000003200000082
:1042d8000000000032000000000000003200000072
:1042e8000000000032000000000000003200000062
:1042f8000000000032000000000000003200000052
:104308000000000032000000000000003200000041
:104318000000000032000000000000003200000031
:104328000000000032000000000000003200000021
:104338000000000032000000000000003200000011
:104348000000000032000000000000003200000001
:1043580000000000320000000000000032000000f1
:1043680000000000320000000000000032000000e1
:1043780000000000320000000000000032000000d1
:1043880000000000320000000000000032000000c1
:1043980000000000320000000000000032000000b1
:1043a80000000000320000000000000032000000a1
:1043b8000000000032000000000000003200000091
:1043c8000000000032000000000000003200000081
:1043d8000000000032000000000000003200000071
:1043e8000000000032000000000000003200000061
:1043f8000000000032000000000000003200000051
:104408000000000032000000000000003200000040
:104418000000000032000000000000003200000030
:104428000000000032000000000000003200000020
:104438000000000032000000000000003200000010
:104448000000000032000000000000003200000000
:1044580000000000320000000000000032000000f0
:1044680000000000320000000000000032000000e0
:1044780000000000320000000000000032000000d0
:1044880000000000320000000000000032000000c0
:1044980000000000320000000000000032000000b0
:1044a80000000000320000000000000032000000a0
:1044b8000000000032000000000000003200000090
:1044c8000000000032000000000000003200000080
:1044d8000000000032000000000000003200000070
:1044e8000000000032000000000000003200000060
:1044f8000000000032000000000000003200000050
:10450800000000003200000000000000320000003f
:10451800000000003200000000000000320000002f
:10452800000000003200000000000000320000001f
:10453800000000003200000000000000320000000f
:1045480000000000320000000000000032000000ff
:1045580000000000320000000000000032000000ef
:1045680000000000320000000000000032000000df
:1045780000000000320000000000000032000000cf
:1045880000000000320000000000000032000000bf
:1045980000000000320000000000000032000000af
:1045a800000000003200000000000000320000009f
:1045b800000000003200000000000000320000008f
:1045c800000000003200000000000000320000007f
:1045d800000000003200000000000000320000006f
:1045e800000000003200000000000000320000005f
:1045f800000000003200000000000000320000004f
:10460800000000003200000000000000320000003e
:10461800000000003200000000000000320000002e
:10462800000000003200000000000000320000001e
:10463800000000003200000000000000320000000e
:1046480000000000320000000000000032000000fe
:1046580000000000320000000000000032000000ee
:1046680000000000320000000000000032000000de
:1046780000000000320000000000000032000000ce
:1046880000000000320000000000000032000000be
:1046980000000000320000000000000032000000ae
:1046a800000000003200000000000000320000009e
:1046b800000000003200000000000000320000008e
:1046c800000000003200000000000000320000007e
:1046d800000000003200000000000000320000006e
:1046e800000000003200000000000000320000005e
:1046f800000000003200000000000000320000004e
:10470800000000003200000000000000320000003d
:10471800000000003200000000000000320000002d
:10472800000000003200000000000000320000001d
:10473800000000003200000000000000320000000d
:1047480000000000320000000000000032000000fd
:1047580000000000320000000000000032000000ed
:1047680000000000320000000000000032000000dd
:1047780000000000320000000000000032000000cd
:1047880000000000320000000000000032000000bd
:1047980000000000320000000000000032000000ad
:1047a800000000003200000000000000320000009d
:1047b800000000003200000000000000320000008d
:1047c800000000003200000000000000320000007d
:1047d800000000003200000000000000320000006d
:1047e800000000003200000000000000320000005d
:1047f800000000003200000000000000320000004d
:10480800000000003200000000000000320000003c
:10481800000000003200000000000000320000002c
:10482800000000003200000000000000320000001c
:10483800000000003200000000000000320000000c
:1048480000000000320000000000000032000000fc
:1048580000000000320000000000000032000000ec
:1048680000000000320000000000000032000000dc
:1048780000000000320000000000000032000000cc
:1048880000000000320000000000000032000000bc
:1048980000000000320000000000000032000000ac
:1048a800000000003200000000000000320000009c
:1048b800000000003200000000000000320000008c
:1048c800000000003200000000000000320000007c
:1048d800000000003200000000000000320000006c
:1048e800000000003200000000000000320000005c
:1048f800000000003200000000000000320000004c
:10490800000000003200000000000000320000003b
:10491800000000003200000000000000320000002b
:10492800000000003200000000000000320000001b
:10493800000000003200000000000000320000000b
:1049480000000000320000000000000032000000fb
:1049580000000000320000000000000032000000eb
:1049680000000000320000000000000032000000db
:1049780000000000320000000000000032000000cb
:1049880000000000320000000000000032000000bb
:1049980000000000320000000000000032000000ab
:1049a800000000003200000000000000320000009b
:1049b800000000003200000000000000320000008b
:1049c800000000003200000000000000320000007b
:1049d800000000003200000000000000320000006b
:1049e800000000003200000000000000320000005b
:1049f8000000000032000000000000003202000049
:104a0800fe00000032040000fc0000003206000036
:104a1800fa00000032080000f8000000320a000026
:104a2800f6000000320c0000f4000000320e000016
:104a3800f200000032100000f00000003212000006
:104a4800ee00000032140000ec00000032160000f6
:104a5800ea00000032180000e8000000321a0000e6
:104a6800e6000000321c0000e4000000321e0000d6
:104a7800e200000032200000e000000032220000c6
:104a8800de00000032240000dc00000032260000b6
:104a9800da00000032280000d800000032280000a8
:104aa800d800000032280000d8000000322800009a
:104ab800d800000032280000d8000000322800008a
:104ac800d800000032280000d8000000322800007a
:104ad800d800000032280000d8000000322800006a
:104ae800d800000032280000d8000000322800005a
:104af800d800000032280000d8000000322800004a
:104b0800d800000032280000d80000003228000039
:104b1800d800000032280000d80000003228000029
:104b2800d800000032280000d80000003228000019
:104b3800d800000032280000d80000003228000009
:104b4800d800000032280000d800000032280000f9
:104b5800d800000032280000d800000032280000e9
:104b6800d800000032280000d800000032280000d9
:104b7800d800000032280000d800000032280000c9
:104b8800d800000032280000d800000032280000b9
:104b9800d800000032280000d800000032280000a9
:104ba800d800000032280000d80000003228000099
:104bb800d800000032280000d80000003228000089
:104bc800d800000032280000d80000003228000079
:104bd800d800000032280000d80000003228000069
:104be800d800000032280000d80000003228000059
:104bf800d800000032280000d80000003228000049
:104c0800d800000032280000d80000003228000038
:104c1800d800000032280000d80000003228000028
:104c2800d800000032280000d80000003228000018
:104c3800d800000032280000d80000003228000008
:104c4800d800000032280000d800000032280000f8
:104c5800d800000032280000d800000032280000e8
:104c6800d800000032280000d800000032280000d8
:104c7800d800000032280000d800000032280000c8
:104c8800d800000032280000d800000032280000b8
:104c9800d800000032280000d800000032280000a8
:104ca800d800000032280000d80000003228000098
:104cb800d800000032280000d80000003228000088
:104cc800d800000032280000d80000003228000078
:104cd800d800000032280000d80000003228000068
:104ce800d800000032280000d80000003228000058
:104cf800d800000032260000da000000322400004c
:104d0800dc00000032220000de000000322000003b
:104d1800e0000000321e0000e2000000321c00002b
:104d2800e4000000321a0000e6000000321800001b
:104d3800e800000032160000ea000000321400000b
:104d4800ec00000032120000ee00000032100000fb
:104d5800f0000000320e0000f2000000320c0000eb
:104d6800f4000000320a0000f600000032080000db
:104d7800f800000032060000fa00000032040000cb
:104d8800fc00000032020000fe00000032000000bb
:104d980000000000320000000000000032000000a7
:104da8000000000032000000000000003200000097
:104db8000000000032000000000000003200000087
:104dc8000000000032000000000000003200000077
:104dd8000000000032000000000000003200000067
:104de8000000000032000000000000003200000057
:104df8000000000032000000000000003200000047
:104e08000000000032000000000000003200000036
:104e18000000000032000000000000003200000026
:104e28000000000032000000000000003200000016
:104e38000000000032000000000000003200000006
:104e480000000000320000000000000032000000f6
:104e580000000000320000000000000032000000e6
:104e680000000000320000000000000032000000d6
:104e780000000000320000000000000032000000c6
:104e880000000000320000000000000032000000b6
:104e980000000000320000000000000032000000a6
:104ea8000000000032000000000000003200000096
:104eb8000000000032000000000000003200000086
:104ec8000000000032000000000000003200000076
:104ed8000000000032000000000000003200000066
:104ee8000000000032000000000000003200000056
:104ef8000000000032000000000000003200000046
:104f08000000000032000000000000003200000035
:104f18000000000032000000000000003200000025
:104f28000000000032000000000000003200000015
:104f38000000000032000000000000003200000005
:104f480000000000320000000000000032000000f5
:104f580000000000320000000000000032000000e5
:104f680000000000320000000000000032000000d5
:104f780000000000320000000000000032000000c5
:104f880000000000320000000000000032000000b5
:104f980000000000320000000000000032000000a5
:104fa8000000000032000000000000003200000095
:104fb8000000000032000000000000003200000085
:104fc8000000000032000000000000003200000075
:104fd8000000000032000000000000003200000065
:104fe8000000000032000000000000003200000055
:104ff8000000000032000000000000003200000045
:105008000000000032000000000000003200000034
:105018000000000032000000000000003200000024
:105028000000000032000000000000003200000014
:105038000000000032000000000000003200000004
:1050480000000000320000000000000032000000f4
:1050580000000000320000000000000032000000e4
:1050680000000000320000000000000032000000d4
:1050780000000000320000000000000032000000c4
:1050880000000000320000000000000032000000b4
:1050980000000000320000000000000032000000a4
:1050a8000000000032000000000000003200000094
:1050b8000000000032000000000000003200000084
:1050c80000000000320000000000000032fe000076
:1050d8000200000032fc00000400000032fa000068
:1050e8000600000032f800000800000032f6000058
:1050f8000a00000032f400000c00000032f2000048
:105108000e00000032f000001000000032ee000037
:105118001200000032ec00001400000032ea000027
:105128001600000032e800001800000032e6000017
:105138001a00000032e400001c00000032e2000007
:105148001e00000032e000002000000032de0000f7
:105158002200000032dc00002400000032da0000e7
:105168002600000032d800002800000032d80000d5
:105178002800000032d800002800000032d80000c3
:105188002800000032d800002800000032d80000b3
:105198002800000032d800002800000032d80000a3
:1051a8002800000032d800002800000032d8000093
:1051b8002800000032d800002800000032d8000083
:1051c8002800000032d800002800000032d8000073
:1051d8002800000032d800002800000032d8000063
:1051e8002800000032d800002800000032d8000053
:1051f8002800000032d800002800000032d8000043
:105208002800000032d800002800000032d8000032
:105218002800000032d800002800000032d8000022
:105228002800000032d800002800000032d8000012
:105238002800000032d800002800000032d8000002
:105248002800000032d800002800000032d80000f2
:105258002800000032d800002800000032d80000e2
:105268002800000032d800002800000032d80000d2
:105278002800000032d800002800000032d80000c2
:105288002800000032d800002800000032d80000b2
:105298002800000032d800002800000032d80000a2
:1052a8002800000032d800002800000032d8000092
:1052b8002800000032d800002800000032d8000082
:1052c8002800000032d800002800000032d8000072
:1052d8002800000032d800002800000032d8000062
:1052e8002800000032d800002800000032d8000052
:1052f8002800000032d800002800000032d8000042
:105308002800000032d800002800000032d8000031
:105318002800000032d800002800000032d8000021
:105328002800000032d800002800000032d8000011
:105338002800000032d800002800000032d8000001
:105348002800000032d800002800000032d80000f1
:105358002800000032d800002800000032d80000e1
:105368002800000032d800002800000032d80000d1
:105378002800000032d800002800000032d80000c1
:105388002800000032d800002800000032d80000b1
:105398002800000032d800002800000032d80000a1
:1053a8002800000032d800002800000032d8000091
:1053b8002800000032d800002800000032d8000081
:1053c8002800000032da00002600000032dc00006d
:1053d8002400000032de00002200000032e000005d
:1053e8002000000032e200001e00000032e400004d
:1053f8001c00000032e600001a00000032e800003d
:105408001800000032ea00001600000032ec00002c
:105418001400000032ee00001200000032f000001c
:105428001000000032f200000e00000032f400000c
:105438000c00000032f600000a00000032f80000fc
:105448000800000032fa00000600000032fc0000ec
:105458000400000032fe00000200000032000000dc
:1054680000000000320000000000000032000000d0
:1054780000000000320000000000000032000000c0
:1054880000000000320000000000000032000000b0
:1054980000000000320000000000000032000000a0
:1054a8000000000032000000000000003200000090
:1054b8000000000032000000000000003200000080
:1054c8000000000032000000000000003200000070
:1054d8000000000032000000000000003200000060
:1054e8000000000032000000000000003200000050
:1054f8000000000032000000000000003200000040
:10550800000000003200000000000000320000002f
:10551800000000003200000000000000320000001f
:10552800000000003200000000000000320000000f
:1055380000000000320000000000000032000000ff
:1055480000000000320000000000000032000000ef
:1055580000000000320000000000000032000000df
:1055680000000000320000000000000032000000cf
:1055780000000000320000000000000032000000bf
:1055880000000000320000000000000032000000af
:10559800000000003200000000000000320000009f
:1055a800000000003200000000000000320000008f
:1055b800000000003200000000000000320000007f
:1055c800000000003200000000000000320000006f
:1055d800000000003200000000000000320000005f
:1055e800000000003200000000000000320000004f
:1055f800000000003200000000000000320000003f
:10560800000000003200000000000000320000002e
:10561800000000003200000000000000320000001e
:10562800000000003200000000000000320000000e
:1056380000000000320000000000000032000000fe
:1056480000000000320000000000000032000000ee
:1056580000000000320000000000000032000000de
:1056680000000000320000000000000032000000ce
:1056780000000000320000000000000032000000be
:1056880000000000320000000000000032000000ae
:10569800000000003200000000000000320000009e
:1056a800000000003200000000000000320000008e
:1056b800000000003200000000000000320000007e
:1056c800000000003200000000000000320000006e
:1056d800000000003200000000000000320000005e
:1056e800000000003200000000000000320000004e
:1056f800000000003200000000000000320000003e
:10570800000000003200000000000000320000002d
:10571800000000003200000000000000320000001d
:10572800000000003200000000000000320000000d
:1057380000000000320000000000000032000000fd
:1057480000000000320000000000000032000000ed
:1057580000000000320000000000000032000000dd
:1057680000000000320000000000000032000000cd
:1057780000000000320000000000000032000000bd
:1057880000000000320000000000000032000000ad
:10579800000000003200000000000000320000009d
:1057a800000000003200000000000000320000008d
:1057b800000000003200000000000000320000007d
:1057c800000000003200000000000000320000006d
:1057d800000000003200000000000000320000005d
:1057e800000000003200000000000000320000004d
:1057f800000000003200000000000000320000003d
:10580800000000003200000000000000320000002c
:10581800000000003200000000000000320000001c
:10582800000000003200000000000000320000000c
:1058380000000000320000000000000032000000fc
:1058480000000000320000000000000032000000ec
:1058580000000000320000000000000032000000dc
:1058680000000000320000000000000032000000cc
:1058780000000000320000000000000032000000bc
:1058880000000000320000000000000032000000ac
:10589800000000003200000000000000320000009c
:1058a800000000003200000000000000320000008c
:1058b800000000003200000000000000320000007c
:1058c800000000003200000000000000320000006c
:1058d8000000000032020000fe0000003204000058
:1058e800fc00000032060000fa0000003208000048
:1058f800f8000000320a0000f6000000320c000038
:10590800f4000000320e0000f20000003210000027
:10591800f000000032120000ee0000003214000017
:10592800ec00000032160000ea0000003218000007
:10593800e8000000321a0000e6000000321c0000f7
:10594800e4000000321e0000e200000032200000e7
:10595800e000000032220000de00000032240000d7
:10596800dc00000032260000da00000032280000c7
:10597800d8000000322a0000d6000000322c0000b7
:10598800d4000000322e0000d200000032300000a7
:10599800d000000032320000ce000000323000009b
:1059a800d0000000322e0000d2000000322c00008f
:1059b800d4000000322a0000d6000000322800007f
:1059c800d800000032260000da000000322400006f
:1059d800dc00000032220000de000000322000005f
:1059e800e0000000321e0000e2000000321c00004f
:1059f800e4000000321a0000e6000000321800003f
:105a0800e800000032160000ea000000321400002e
:105a1800ec00000032120000ee000000321000001e
:105a2800f0000000320e0000f2000000320c00000e
:105a3800f4000000320a0000f600000032080000fe
:105a4800f800000032060000fa00000032040000ee
:105a5800fc00000032020000fe00000032000000de
