:020000040000fa
:080000000002040000000000f2
:020000040000fa
:100400006f9e20000e7f22000e0188000000000079
:1004100000012000200288000c0007008024210039
:100420000100200011000700000020000000e00093
:10043000020032000000020000000000f41402007c
:10044000000000000040da000000fe004440a90067
:10045000000020000000e000030032000000200047
:10046000a00188004440a800000006009101880017
:10047000800078000000eb0015003700e2804000ab
:1004800032a0b4009101ba00e280400032a0b40072
:100490009102ba00e280400032a0b4000002eb00fa
:1004a000472bde00f507b200602ce10004003a00a3
:1004b0000059eb008301e900fdff3e000400370016
:1004c0006128e100010032000082eb000400070017
:1004d0001101ba000200e000e8ff3a000000060047
:1004e0003159ba008301e9000c0032002159ba00e9
:1004f0008301e900080032000400e00003003a0034
:10050000e280400032a0b400f5ff370011d9ba00f4
:100510008301e900faff3a008100e800e180400031
:1005200032a0b400000006007215040000000000b4
:10053000849fbe00869fbe000000fa008460a90070
:10054000444e8000554e800061024200e0824a0025
:10055000444e8800554e8800464e8000574e80001d
:10056000644e8000754e8000840f5300858f5b00c1
:10057000080036000082eb008082eb00644e8800a9
:10058000754e8800844e8000e00f5200010032005a
:100590008bc0a8000080fa004f03be004f02be00cf
:1005a000004006003600f800809fbe00829fbe001b
:1005b000849fbe00869fbe000200fa008bc0a90087
:1005c000844e8000040f78001e027800e00f520075
:1005d000020032001e027800040001000080fa00d0
:1005e0004f03be004f02be004f01be004f00be00d1
:1005f0003600f900004006000040da000000fe006e
:1006000014002000a1033700f4ff2f009f033700e0
:100610000001be00260007000470a70003f0a1003f
:1006200003f8a30013003a006509b100100032007e
:10063000090035006928e1000200350001002800aa
:100640000000050000004000818048008502e900ac
:10065000fcff3a0000000600f88f4200050035005c
:100660008100d1000080d3008502e800fcff3a0041
:10067000000006008000eb00000005004f89de004e
:10068000820178009c0337006011b800aa0337008c
:100690000001eb00560307000400320002002000b6
:1006a00003f8230001f0a700160007000000060071
:1006b000c70ade00f107b200f50fb20008003200f1
:1006c000e1cf4200020032000170a00024000500ca
:1006d000810f70000100320004080500440005008d
:1006e000810f700002003a00140005008502e90045
:1006f0000000400081c04800fcff3b000170a000ea
:100700002400050007f82700078361000638e10090
:1007100004003a00f7072000878361008703710017
:1007200001003a0003f0a200889fbe008a9fbe002d
:100730008c9fbe00470ade000480a100c71ade00bd
:100740000580a100070028000785600087856100fb
:10075000f70f20000720e1009e0032000728e1008b
:100760009c003200010678000400e000b400320072
:10077000f7072000878060000170a0000500e000fe
:10078000c0003200f7072000878161000370a000dd
:10079000050652000f003a000b50e1000b0032003a
:1007a0000308e10002003a000200e1007e0032008e
:1007b0000204500083845800040031000001fd0051
:1007c0008101fd008402fd008a05fd006044b8003f
:1007d000210037000520e10005003d000001fd007b
:1007e0008101fd008402fd008a05fd00050652001e
:1007f0007a60e100050035000170a1004722dd00ac
:10080000848070008a807000630037006044b80004
:10081000ef02660007ff2f00070666000500e000f4
:1008200006003400f08312008714dd000511de009d
:10083000071bdd00060171008519de007060e10014
:10084000050035000904780082047800030178006f
:100850008001eb00700656000b50e10003003a00e7
:100860000200400083804800040037006004140048
:10087000e0841c0002005800838058000188a30017
:10088000060032008100d1000080d3008984d300ab
:100890000884d3000402e800270037000178a30091
:1008a00025003a000100e000030032008186cf00fd
:1008b000698656000a0037008c0020000000e00026
:1008c00004003a0009007800880478000004eb0076
:1008d000700252008086cf000d0646000c06e9002b
:1008e0007060e100060035008000780009007800a3
:1008f000880478000004eb00700656007002520075
:100900000c00e0000c0034008c08dd00f003160041
:100910000703de00868070000c00dd00074bde0060
:10092000060070008c4cdd000743de0086847400f6
:100930000c44dd000c0252006120e1002000350073
:10094000610160000700280087816400f7ff27002d
:1009500087836400070374000300e0000600320090
:1009600082037300040032000000e800e0804800c9
:100970000188a3000e003a00f70f20000720e100d5
:100980004a003d000170a1004722dd008100720095
:100990008a8070000000be004f06be004f05be00fa
:1009a0004f04be00000006006000b800faff3700e8
:1009b0008100d1000080d3000402e800eeff370080
:1009c00004017800890174000c0207008a8070001d
:1009d000f1ff370035030700070278000001fd0032
:1009e0008101fd0031030700870278008503720052
:1009f0000778a300040032000001fd008101fd0022
:100a0000c2010700e4ff3700850362000768a30006
:100a1000080032000b50e10003003200f0ff2f000d
:100a2000f1ff2700dcff37000001fd008101fd0020
:100a3000d9ff37000468a300d7ff3200faff370060
:100a4000f8ff2700888360000b003a000000e000f8
:100a500009003a00830364008283730002003200bd
:100a60000200be00ccff37000b50e100ceff3a0081
:100a70000200be00c8ff370014002000810064009f
:100a80003eff3700f8ff27008883610004003a002a
:100a90000200e00002003a008c007800beff370040
:100aa000150020008301640039ff370001f827009a
:100ab0000000200081007500b7ff37000383680045
:100ac0000700280007036300470ade000480a10036
:100ad000c71ade000580a100f70f20000720e10003
:100ae000420032000728e10040003200889fbe002b
:100af0008a9fbe008c1f7800f107b200f307b20096
:100b00000400e000640032000170a0000500e00075
:100b1000680032000370a00085054200eb07b100b9
:100b20000204b8000302b8008484440060854a00cf
:100b3000020ab800848444000a854a00030ab80007
:100b400004054500040033000804d0008984d20065
:100b50000a85d2008b05e9006158e1003d003500af
:100b60000210200009016100030820008981610052
:100b7000f70720008783640008867300c84cde00f6
:100b8000c853dd00878474004855de000300e00090
:100b90000600320082037600040032008904e80077
:100ba00060054d000a88a3000c003a00f70f2000f2
:100bb0000758e10044003d000a70a100c75ddd0058
:100bc0000a8575008a007300090078004f067800d6
:100bd0004f05be004f04be00000006000a05d1000c
:100be0008984d3008b05e800f0ff3700881f780068
:100bf00006047800ad020700070278000001fd003e
:100c00008101fd00a90207008702780085037200b8
:100c10000778a300050032000001fd008101fd00fe
:100c20003a0107004f0478000000060085037200b7
:100c30000748a30003003200f0ff2f00f1ff270058
:100c4000f8ff37000000200001f8270088807000be
:100c5000f4ff3700880178004848dd00808171008a
:100c60004848de00c850dd0001007000c850de00ba
:100c7000060478000b01780060010700888070008e
:100c8000d2ff37000500e000050032001700200009
:100c9000100007009dff370081037000f9ff3a0044
:100ca000860078004f0678004f05be004f04be0056
:100cb0000000050083037100f9ff320027002000c7
:100cc0000400070094ff370001f8270086807000b9
:100cd000f4ff3700889fbe000004eb006138e1009c
:100ce00016003a000100e00008003a00c800de00eb
:100cf0004800dd00880020000100e00003003a0009
:100d0000c800de004800dd00680444008184cf0094
:100d1000e9845400060034008908dd00f0831400e3
:100d20008703de00878070000900dd0009044400ad
:100d3000610214004f04be00000006000300e00042
:100d400008003a00c811de004811dd0088002000cc
:100d50000300e00003003a00c811de004811dd0086
:100d6000680444008384cf00e98454000600340002
:100d70008919dd00f08314008713de00878171007c
:100d80000911dd0009044400e1021400e9ff370005
:100d9000889fbe008a9fbe008c9fbe001b00200063
:100da0000202be00058668000600280006066600ee
:100db0004709de00f20fb200820032000243e80071
:100dc00080003200c729de00f30fb2007d00320040
:100dd0000343e8007b003200f107b2000170a0007d
:100de000f507b2000570a000c708dd004903de006a
:100df000868070004700dd00c72add004923de0041
:100e0000868272004722dd00030551000403500072
:100e100085835800030031000000400081804800b5
:100e20000a05e9008c1f78008a9fbe00040050006c
:100e3000858058000402420085824a00000040007c
:100e4000818048000005eb000004be006033b8005c
:100e50000406be000d48e1005600310011000900f3
:100e60004dccd8000c01b8000d02b80084814100bf
:100e700060824a008283530003045c0084845c0027
:100e800060055d000a00e00025003a00800578005a
:100e90000d40e1004900310088007800070078002b
:100ea000110009004d88d8000c01b8000d02b800ef
:100eb0008481410060824a006003110083835b00eb
:100ec00004045c00e0845c000900e00021003a00ba
:100ed0004f01be000300e0002b003200e301600080
:100ee000070673008c8171000100320064007000fd
:100ef0004200de004e5edd000c007000c258de00d5
:100f000001e0a000e7000700cf01780081807100b8
:100f10004f06be004f05be004f04be000000060095
:100f20008c8343000d044c00e0844c0060054d00b0
:100f30000000e9000a00e000d4ff32008c83430087
:100f40000d044c00e0844c0060054d000000e900f9
:100f5000ceff37000c0343008d834b0060044c0030
:100f6000e0844c000000e9000900e000d8ff3200f6
:100f70000c0343008d834b0060044c00e0844c0064
:100f80000000e900d2ff37004200de004e5edd00c7
:100f90000c007000c258de0001e0a000cf01780014
:100fa0000300e000daff320060001000e08018006b
:100fb000d7ff3700f0ff2f00aaff3700f0ff2f0008
:100fc000b9ff37000404be00b801070087067800a7
:100fd0000004fd008104fd00b401070007836600e2
:100fe0000678a300030032000960a7000800be00d5
:100ff0002c0037000d78a300020032000800be006c
:10100000280037000778a30026003a0001f0a1006d
:1010100009f0a1000668a30003003200f1ff2700d9
:10102000f0ff2f00baff37000d68a3000300320065
:101030000800be008c807000b5ff37000768a30071
:1010400007003a000648a30003003200f1ff270022
:10105000f0ff2f00aeff37000d48a3000300320061
:101060006000b8008c807000a9ff37000748a3001b
:101070000400320001f82700000020008c8070007e
:10108000a3ff37002a0007000004fd008104fd00d3
:1010900002057800260007000802be008a017800d9
:1010a00059ff37000160a00012022000224f880083
:1010b00097ff37000100e000120032000500e00059
:1010c00010003200889fbe008a9fbe008c9fbe0029
:1010d0000006eb0001f8a3000300320060001000de
:1010e000e08018000cf0a00005f8a3000300320017
:1010f00060021200e0821a000cf0a2008005eb00f2
:1011000041ff37006000b800020005000478a3002a
:10111000040032000578a300030032000168a30038
:1011200001003a000200be000160a00000000600bd
:101130004f0ade004709de00f107b200f20fb200ed
:101140000b003200f207b1000170a000c708dd00fb
:10115000c901de00838070004700dd000400a600a6
:101160000000060060001000e0801800000006008b
:10117000810f700001003a00000006008182cf005c
:101180000500e00010003e008082cf00ee824200a9
:101190007028e1000400390007003e00800078005c
:1011a0000000eb000e003700708312008600de00a6
:1011b0000500dd000a003700708352008600dd0064
:1011c0000000eb0006003700e28252008508dd00d7
:1011d000708312000603de00868070000500dd00cb
:1011e0007507b0000501ea000400a6000000060033
:1011f00060001000e0801800000006000100e00020
:1012000026003200610111007810e10023003c004b
:101210006022b8007010e100040035008002780000
:10122000010078008000eb00700151000200e00036
:101230000900340070031100062add00822ade0056
:101240008603dd00878272000200de00860bdd006f
:10125000070070008208de0084817100f4ff27001f
:10126000048262008481710004002800848262008c
:101270006102600005f0a600000006000482710013
:10128000070032000000e800e0804800000006008f
:101290000002be006000b800efff37006000b80039
:1012a0000000060081017000270032008002eb0080
:1012b00001f8a3000300320060001000e080180075
:1012c00015002000f4072000020242002000340034
:1012d000f70320008703600006042000000363007a
:1012e00002082000000161004700de00c909dd009e
:1012f00000807100c708de000600e0000800320030
:1013000087037100060032001000b0000180b000b9
:101310000188a30002003200c108de000402e800d8
:10132000f107b200f30f20000320e10003003d00ad
:101330004722dd00810072002900370001f82700f4
:101340000000eb00260037006000b8000000060037
:10135000680212007f20e100020034006000b80043
:101360001f0037006011b8007020e1000400350054
:1013700080017800010078008000eb0070025200cc
:101380000400e00009003400f00312000719dd003a
:101390008419de000703dd00868171000400de0091
:1013a000070bdd00060070008408de00f7ff270051
:1013b0008383630087037100060028000303630032
:1013c000070032000700e00003003a0061016000fe
:1013d00002817300020032001000b0000180b000f2
:1013e0000500a6000000060001f0a00000000600b5
:1013f000889fbe008a9fbe000003be00acfc0700b1
:101400008505780082815200020020006220e10000
:1014100004003a00f307b100040035007718e1003a
:10142000040035000600be00140037006000b8005c
:101430000f003700f50f2000faff2f008502d100c2
:101440000a85d3008301e900fcff3b008184620030
:1014500000046500890f7400f2ff32008582ea0003
:101460000a85ea00818462000004650061000700cb
:1014700007f0a70001f0a0000081eb000200e000ef
:101480004f05be004f04be0000000600889fbe004e
:101490008a9fbe00841f78007c0007004f00780000
:1014a00011003300f0ff2f00838f6c0006003b001b
:1014b000040565000a00a7000800370009f0a6002f
:1014c0001000200008003700820f5400838f5c005a
:1014d000030039001000200001003e000000200041
:1014e00009f0a7000000ea004f05be004f04be004f
:1014f0000000e00000000600881f78000304780068
:101500000300e00007003d0060001000e0801800cc
:1015100060011900e081190002003b0001f02d007c
:10152000030037000400070008f0a70001f0a00046
:101530004f04780000000600889fbe008a9fbe000e
:1015400000827000040271000482710026003200e3
:101550000004be000200be006011b8006b0920004c
:10156000950220000182cf000a0039000541b10038
:101570000082cf00070039000541b1000982cf0089
:10158000040039000541b1000882cf000100390094
:101590000541b10005425200120032000a003b0032
:1015a00082817100610164008100d1000080d3005c
:1015b0008984d3000884d3008b05e8000442e80046
:1015c000f7ff3a00070037000804440089844c0004
:1015d00000004800818048008b05e9000442e900d2
:1015e000f9ff3a00030007004f05be004f04be009c
:1015f0000000060081002000618055000b003d00c6
:101600000b00200061fe2f000100e1001d003400ee
:1016100082817100610164008904d1000884d300d3
:101620000000e800faff3a00710020006100640049
:1016300003007000020060000900320061044400f1
:10164000e0844c000988a500050032008b05e80005
:101650006808e10002003a008904d1000884d30040
:10166000f20f20000258e10005003d00c75ddd00db
:10167000f907b200898075000800780000000600b4
:101680000bf827008b007800000005000004be0066
:1016900007fc07000003be000405be000200be00f8
:1016a00003fc0700844f750000000600270020009f
:1016b00001f0a70017002000470bde00f60fb20074
:1016c000040032000643e8000a0032004702b3007b
:1016d0000000060001037800f607b2000603700060
:1016e00002003a000703b300000006008702b300bf
:1016f0000000060001037800f607b2000603700040
:10170000020032000770a000000006000760a00081
:0417100000000600cf
:020000040000fa
:0200000401f009
:04000c0078ff000079
:020000040000fa
:0200000401f009
:040010005eff00008f
:020000040000fa
:0200000401f009
:040014007fff00006a
:020000040000fa
:0200000401f009
:04001800eeff0000f7
:020000040000fa
:0200000401f009
:04001c00dfff000002
:020000040000fa
:10000800fc020000fc020000fc020000fc020000f0
:10001800fc020000fc020000fc020000fc020000e0
:10002800fc020000fc020000fc0200009802000034
:10003800fc020000fc020000fc020000fc020000c0
:10004800fc020000fc020000fc020000fc020000b0
:10005800fc020000fc020000fc020000fc020000a0
:10006800fc020000fc020000fc020000fc02000090
:10007800fc020000fc020000fc020000fc02000080
:10008800fc020000fc020000fc020000fc02000070
:10009800fc020000fc020000fc020000fc02000060
:1000a800fc020000fc020000fc020000fc02000050
:1000b800fc020000fc020000fc020000fc02000040
:1000c800fc020000fc020000fc020000fc02000030
:1000d800fc020000fc020000fc020000fc02000020
:1000e800fc020000fc020000fc020000fc02000010
:1000f800fc020000fc020000fc020000fc02000000
:10010800fc020000fc020000fc020000fc020000ef
:10011800fc020000fc020000d2020000fc02000009
:10012800fc020000fc020000fc020000fc020000cf
:10013800fc020000fc020000fc020000fc020000bf
:10014800fc020000fc020000fc020000fc020000af
:10015800fc020000fc020000fc020000fc0200009f
:10016800fc020000fc020000fc020000fc0200008f
:10017800fc020000fc020000fc020000fc0200007f
:10018800fc020000fc020000fc020000fc0200006f
:10019800fc020000fc020000fc020000fc0200005f
:1001a800fc020000fc020000fc020000fc0200004f
:1001b800fc020000fc020000fc020000fc0200003f
:1001c800fc020000fc020000fc020000fc0200002f
:1001d800fc020000fc020000fc020000fc0200001f
:1001e800fc020000fc020000fc020000fc0200000f
:0801f800fc020000fc02000003
:020000040000fa
:10020800fc020000fc020000fc020000fc020000ee
:10021800fc020000fc020000fc020000fc020000de
:10022800fc020000fc020000fc0200009802000032
:10023800fc020000fc020000fc020000fc020000be
:10024800fc020000fc020000fc020000fc020000ae
:10025800fc020000fc020000fc020000fc0200009e
:10026800fc020000fc020000fc020000fc0200008e
:10027800fc020000fc020000fc020000fc0200007e
:10028800fc020000fc020000fc020000fc0200006e
:10029800fc020000fc020000fc020000fc0200005e
:1002a800fc020000fc020000fc020000fc0200004e
:1002b800fc020000fc020000fc020000fc0200003e
:1002c800fc020000fc020000fc020000fc0200002e
:1002d800fc020000fc020000fc020000fc0200001e
:1002e800fc020000fc020000fc020000fc0200000e
:1002f800fc020000fc020000fc020000fc020000fe
:10030800fc020000fc020000fc020000fc020000ed
:10031800fc020000fc020000d2020000fc02000007
:10032800fc020000fc020000fc020000fc020000cd
:10033800fc020000fc020000fc020000fc020000bd
:10034800fc020000fc020000fc020000fc020000ad
:10035800fc020000fc020000fc020000fc0200009d
:10036800fc020000fc020000fc020000fc0200008d
:10037800fc020000fc020000fc020000fc0200007d
:10038800fc020000fc020000fc020000fc0200006d
:10039800fc020000fc020000fc020000fc0200005d
:1003a800fc020000fc020000fc020000fc0200004d
:1003b800fc020000fc020000fc020000fc0200003d
:1003c800fc020000fc020000fc020000fc0200002d
:1003d800fc020000fc020000fc020000fc0200001d
:1003e800fc020000fc020000fc020000fc0200000d
:0803f800fc020000fc02000001
:020000040000fa
:101714000800fa002007980031079800ae029000f4
:1017240014032000848f520002003e002403200092
:1017340024079800ae02900004192000848f520000
:101744000200360004192000240798002e0290009d
:10175400050020000400be00cafb07000002be0012
:101764000401be0000002000a147240087fd0700fb
:101774000002be00048fbe003e0190001e00be00a9
:10178400020007000080fa00000006000600fa00cc
:10179400881f7800008fbe002207980018c0b3008d
:1017a40002002000030224001e00be0093fb070079
:1017b40000027800e00f5200010035000044eb0005
:1017c400e04f54000300320004002000050224000e
:1017d400048fbe0018c0b30002002000031a2400c6
:1017e4001e00be0087fb070000027800e00f5200d5
:1017f40001003c000044eb00e04f540003003200c1
:1018040004002000051a2400048fbe00ae029000dc
:1018140084382100848f520002003600843821006d
:10182400240798002e0190001e00be00030007004c
:101834004f0478000080fa00000006000800fa0057
:10184400881f780010079800210798003207980035
:10185400944e8000e00f5200bb003a0014002000b8
:10186400944e88006a0307000002eb00240c8800f1
:101874000002eb00540c88000002eb00840c88008a
:101884000002eb00b40c88007207a9007227a900bb
:101894007247a9007267a9000002eb00840888005f
:1018a4007187a90018c0b30002002000831424002b
:1018b4001e009000ae00900052fb0700000278006a
:1018c400e00f520001003c000044eb00e04f5400e4
:1018d4001e003200840880000440a1000450a000cf
:1018e4008408880014272000b44e880004002400d3
:1018f400c5412400c44e8800d54e880072712b0067
:1019040013ad23001e009000ae0090001ffd0700e1
:101914000002be000200200003f023000400be0009
:1019240080fb07000002be000400be0057fb070056
:101934000002be000400be0034fb07000002be002b
:1019440004027800a44e88001d003700840880003b
:101954000440a0000450a1008408880084382100b9
:10196400b44e880004002400c5592400c44e8800e5
:10197400d54e880072712b00139523001e00900031
:10198400ae00900001fd07000002be00020020002e
:1019940003f023000400be0062fb07000002be0047
:1019a4000400be0039fb07000002be000400be00b4
:1019b40016fb07000002be0004027800a44e880053
:1019c4000002eb0034088800a44e800064088800fc
:1019d40084e0a90094e0a9003e029000e00f5200c8
:1019e40013003200b44e800004024200040f780059
:1019f4001e027800140c88001e027800040c880073
:101a04001e027800440c88001e027800340c880002
:101a14001e027800740c88001e027800640c880092
:101a24001e027800a40c88001e027800940c880022
:101a3400c8e2a900cce2a900c902a900cd02a9000c
:101a4400c922a900cd22a900d0c2a900d4c2a900ec
:101a540035368000f40f2e008482620004202100b9
:101a640004827200343688004536800004fe2f005c
:101a7400048262003401b300443688004536800095
:101a8400f40f2e008482620004402100048272005c
:101a940044368800b536800004fe2f0004826200bc
:101aa4005401b300b4368800240c80000400a10063
:101ab4000410a0000420a000240c8800540c800012
:101ac4000400a1000410a0000420a000540c88000d
:101ad400840c80000400a1000410a0000420a000d5
:101ae400840c8800b40c80000400a1000410a00041
:101af4000420a000b40c880011e1a8003e0290006c
:101b0400e00f5200110032003e0290000500200058
:101b14000400be0054000700b44e8000040c88008a
:101b2400b44e8000340c8800b44e8000640c8800ed
:101b3400b44e8000940c88008038210001002000fd
:101b44004900070001003700000000004f0478003e
:101b54000080fa00000006000a00fa001402800067
:101b64004522de0067426200044f78009402800040
:101b740014079800ff3ffc00649c20001442780086
:101b8400674262000482fb00670262004522dd00b6
:101b940016028000f5f12f008502630004827200b2
:101ba400140288001e02900094028800000088003d
:101bb400444e8000554e8000240798003507980055
:101bc4009502800045079800ff3ffc001e42780004
:101bd400674262000482fb00670262004522dd0066
:101be40016028000f5f12f00850263000482720062
:101bf400140288004e0290009402880000008800bd
:101c04002e029000be0290000400be000080fa0084
:101c1400000006000400fa00a4088000040f780005
:101c2400b4088000140798001e02be000400be0021
:101c34000080fa00000006000000fa00c6ff07005a
:101c44000002be0064024200e0824a004d2bdd0027
:101c54004322de0004027300c32ade000400be0037
:101c64000080fa00000006000400fa00008fbe00a5
:101c74001e00be000e0007000002be000400be00ed
:101c8400300007000080fa00000006000400fa009b
:101c9400008fbe001e00be00130007000002be003d
:101ca4000400be00270007000080fa0000000600c0
:101cb4000400fa00008fbe00a7ff07000003be0067
:101cc4001e00be00430add00cd02de008502720064
:101cd4004302dd000602420087824a000400be007f
:101ce4000080fa00000006000400fa00008fbe0025
:101cf40099ff07000002be003e034200ae834a0083
:101d04000602be000400be000080fa0000000600c7
:101d14000400fa00008fbe008fff07000002be001f
:101d2400be0f5200ae8f5a00020031001400200092
:101d3400010037000002eb00040078000080fa0084
:101d4400000006000400fa00008fbe00000000003e
:101d540081ff07000002be00be0f5200ae8f5a0082
:101d6400fbff39000080fa00000006000c00fa00b6
:101d74003007980041079800520798001402800029
:101d84004522de0067426200044f7800940280001e
:101d940014079800ff3ffc00649c20001442780064
:101da400674262000482fb00670262004522dd0094
:101db40016028000f5f12f00850263000482720090
:101dc400140288001e02900094028800000088001b
:101dd4008bc0a9009bc0a8005e029000844e8800be
:101de4003e029000ce029000432bdd00cd23de00a6
:101df400870373004323dd00444e8000554e80006a
:101e04000602420087824a00644e8800754e8800ac
:101e14009402800024079800ff3ffc001e427800d3
:101e2400674262000482fb00670262004522dd0013
:101e340016028000f5f12f0085026300048272000f
:101e4400140288002e02900094028800000088008a
:101e54000080fa00000006000600fa001402800068
:101e64004522de0067426200044f7800940280003d
:101e740014079800ff3ffc00649c20001442780083
:101e8400674262000482fb00670262004522dd00b3
:101e940016028000f5f12f008502630004827200af
:101ea400140288001e02900094028800000088003a
:101eb4009bc0a9008bc0a9000082eb008082eb00cc
:101ec400644e8800754e88000002eb00844e880042
:101ed4009402800024079800ff3ffc001e42780013
:101ee400674262000482fb00670262004522dd0053
:101ef40016028000f5f12f0085026300048272004f
:101f0400140288002e0290009402880000008800c9
:101f14000080fa00000006001200fa00881f780012
:101f2400000f98000e0a90001403be00c44e8000f7
:101f3400d54e80000401be000600be00defa070094
:101f44000002be00048fbe000e0a9000240390001d
:101f5400b4039000c44e8000d54e80000401be003e
:101f64000600be00d4fa07000002be002407980051
:101f7400350798000e0a900044039000d4039000a3
:101f8400c44e8000d54e80000401be000600be0091
:101f9400c9fa07000002be004407980055079800dc
:101fa4000e0a900064039000f4039000c44e800075
:101fb400d54e80000401be000600be00befa070034
:101fc4000002be00640798007507980018c0b300ab
:101fd4006011b8001e00be0088f9070000027800f6
:101fe400e00f5200010035000044eb00e04f5400c4
:101ff400030032006022b800048fbe000f003700d7
:10200400c44e8000d54e800018c0b3000401be0049
:102014001e00be007bf9070000027800e00f5200aa
:1020240001003c000044eb00e04f54000300320088
:10203400c44e8000d54e8000048fbe0018c0b3008b
:102044006011b8002e009000be0090006bf90700ec
:1020540000027800e00f5200010035000044eb005c
:10206400e04f5400040032006022b80024079800b6
:102074003507980011003700c44e8000d54e80000b
:1020840018c0b3000401be002e009000be009000f2
:102094005cf9070000027800e00f520001003c00e8
:1020a4000044eb00e04f540004003200c44e8000b2
:1020b400d54e8000240798003507980018c0b30057
:1020c4006011b8004e009000de0090004bf907004c
:1020d40000027800e00f5200010035000044eb00dc
:1020e400e04f5400040032006022b8004407980016
:1020f4005507980011003700c44e8000d54e80006b
:1021040018c0b3000401be004e009000de00900031
:102114003cf9070000027800e00f520001003c0087
:102124000044eb00e04f540004003200c44e800031
:10213400d54e8000440798005507980018c0b30096
:102144006011b8006e009000fe0090002bf90700ab
:1021540000027800e00f5200010035000044eb005b
:10216400e04f5400040032006022b8006407980075
:102174007507980011003700c44e8000d54e8000ca
:1021840018c0b3000401be006e009000fe00900071
:102194001cf9070000027800e00f520001003c0027
:1021a4000044eb00e04f540004003200c44e8000b1
:1021b400d54e800064079800750798001e00be0085
:1021c40012f907000002be0084027800b44e8000b9
:1021d40004824200040c88002e009000be0090008f
:1021e4000af907000002be0084027800b44e8000a1
:1021f40004824200340c88004e009000de009000ff
:1022040002f907000002be0084027800b44e800088
:1022140004824200640c88006e009000fe0090006e
:10222400faf807000002be0084027800b44e800071
:1022340004824200940c88004f0478000080fa0065
:10224400000006000e00fa0050079800610798008d
:10225400044f8000e00f52000100320080010700ab
:10226400e44e8000e00f520001003a0045020700ee
:10227400480107006e029000e00f52008000320017
:102284000002eb00040f78000002eb001407980032
:102294000002eb00240798000002eb00040f780012
:1022a400630037001e027800de02900004824200c0
:1022b400144278000402fb00140798009e02900068
:1022c40004022000848f52000b003a002e0290007a
:1022d400e00f5200500034002e0290000402e90086
:1022e4008402420004802000048242000538200059
:1022f400050a78004d0037001e0290001404b10056
:10230400140798001e029000f90f520003003400d5
:102314001e0290000402b100140798001e029000ef
:10232400e00f52003e0035001e029000f90f5200eb
:102334003d003c001e0290008402420004992000eb
:102344000482420094027800450798004e029000ef
:102354001402780004024200840278002e029000e5
:102364008482420004082000848f520035003e001d
:102374000002eb00340798001a003700ce029000e8
:102384003e0290000482e80065427a000482fb0069
:10239400c722dd002e0290000403420004802000c6
:1023a40004024300050a78002e0290000402e800ab
:1023b400240798002e02900084024200048020002a
:1023c4000482420005082000050a78002e029000cd
:1023d4000402e800240798003e0290000402e8008a
:1023e40034079800be0290004e0290001402780058
:1023f400848f5200e1ff39002e0290000402e900ac
:102404008402420004802000048242000518200057
:10241400050a7800050037000000000003003700bb
:102424000000000001003700000000001e0fe8005b
:102434009e0278006e029000848f520099ff39004a
:1024440001003700000000002e0290000402e900a1
:1024540084024200048020000482420005382000e7
:10246400050a78002e029000044f880022572100ac
:102474006000b8003dfe07000000000001003700c6
:0c248400000000000080fa0000000600cc
:020000040000fa
:10249000dc0900000800000002000000000001004c
:1024a0000000000000000000000800000001000023
:1024b0000000000000090000c4000000020000004d
:1024c00002000100030400000301010001040000f8
:1024d00003010300010300000301010000010000eb
:1024e00001000400000101000301030000030300d8
:1024f00001000400000101000101020000010100cf
:1025000004000100030303000300030001030000b3
:1025100004000100030101000200030003020000a7
:102520000301030000030300030004000001030093
:102530000301040000030300010303000001030082
:102540000100030000010100010001000003000080
:102550000300010001030000040001000101030069
:102560000300010003030000040003000101030055
:102570000400030001030300040003000301010041
:1025800000090400090a090010091600091a0900c7
:1025900020092600092c090030093600093c0900f1
:1025a00042094600094a090050095600095c090021
:1025b00062096800096c090072097800097e090047
:1025c00084098a0009000000d20900000a00000006
:1025d00002000000000000000000000000000000f9
:1025e00000000000c40900000e000000020000000e
:1025f00000000200000000000000ff00ffffff00dd
:1026000000000000e40900000200000000000000db
:0426100000000000c6
:020000040000fa
:102614000000fa00649c2000144278000482fb004d
:1026240004007800020007000080fa0000000600a1
:102634000200fa00000f7800244e8000e00f5200e0
:102644004a003a0014002000244e88001e0278003c
:10265400e00f520002003a0014002000040f78003a
:102664001e027800e70f52000200360074002000ba
:10267400040f78001e0278000442780004407800b9
:10268400c6e9b7000002eb00f40888000002eb0082
:102694000409880071c7a90071e7a9000002eb00d2
:1026a400a40888000002eb00c40888000082eb0044
:1026b400d40888000082eb00e40888001e61a800aa
:1026c400f40880000440a0000450a100f40888002d
:1026d4008780a9009780a9001fe1a8000002eb00f1
:1026e400240888007167a900240880000440a10020
:1026f4000450a100240888000002eb0004088800ac
:102704007438210014088800649c20001442780066
:10271400674262000482fb00670262004c22dd0013
:1027240026058000f5ff28008502630004827200fc
:10273400240588008460a9009460a80005e1a8002d
:102744000002eb00343188007527a9009bc0a90062
:102754008bc0a900140680000480a0000490a1008e
:1027640004a0a10014068800010037000000000046
:102774000080fa00000006000000fa00044f800008
:10278400e00f520001003a00c542a8000080fa00a0
:10279400000006000000fa00044f8000e00f520021
:1027a40001003a00c542a9000080fa0000000600ba
:1027b4000000fa00044f8000e00f52000d003a00c0
:1027c400241680004a22de00614262000404a20052
:1027d400614262000482fb00610262004a22dd0061
:1027e40026168000f5bf2f00850263000482720064
:1027f400241688000080fa00000006000400fa0095
:10280400000f780011079800044f8000e00f520079
:102814000100320012000700e44e8000e00f520075
:1028240001003a00d7000700daff07000002eb00be
:10283400144f88001e027800044088001e02900095
:102844001440880024002000044f880022572100ef
:102854006000b80045fd07000080fa000000060093
:102864000000fa00044f8000e00f52000400320020
:1028740079fd07000002eb00044f880002003700d6
:10288400c4ff0700000000000080fa0000000600fa
:102894000400fa00000f780011079800f0ff070009
:1028a4009e0090001e00780066fe0700ffff3700c0
:1028b4000000fa00253a800004fe2f000482620022
:1028c4000400a000243a8800353a800004e02f0078
:1028d400848262006402200004827200343a880018
:1028e400243a80000460a1000470a100243a880006
:1028f4003600200084072000a5092000377420003a
:10290400844b7800854b7800864b780016002000b5
:10291400640420007505200027742000844b78008f
:10292400854b7800864b780000000000153a800043
:10293400040027008482620004002300848f520074
:10294400faff3a0000000000153a8000040220005b
:1029540004826200e00f5200fbff32000002eb0031
:1029640004198800e4ff2f00843b88000082eb00f8
:10297400943b88000082eb00a43b88000002eb003b
:10298400040488000002eb00140488000002eb0039
:10299400a40488000002eb00b40488000002eb00e9
:1029a400c40488000002eb00d40488000002eb0099
:1029b400e40488000002eb00240488000002eb0019
:1029c400340488000002eb00440488000002eb0099
:1029d400540488000002eb00640488000080fa00bc
:1029e400000006001600fa00b1ff070020002000d6
:1029f4000fff0700630007008000eb0020032000a6
:102a040043fb070044012000050020001407980040
:102a14002507980058ff07000002eb00040f780018
:102a24002a0037001e009000ae0090008efc0700c4
:102a34001e027800cfa2de000400be000ef70700dd
:102a44000002be0002002000832c24000400be000b
:102a5400cef807000002be0034079800450798002e
:102a64003e029000ce02900054079800650798003b
:102a74003e029000ce0290000401be00000020003f
:102a840001f823001ef707000002be007407980037
:102a9400050f98005e029000ee0290000401be0053
:102aa4000000200001f8230015f707000002be0013
:102ab400140f9800250f9800660247000400780060
:102ac40015fd07003aff07001e0fe800440620002a
:102ad4009e027800848f5200d2ff3400ceff37006c
:102ae4000000fa00044f8000e00f52002200320080
:102af400154f8000044f8000848f5200030039007a
:102b0400c542a9000002eb00144f8800241680007f
:102b14004a22de00614262000404a20061426200b3
:102b24000482fb00610262004a22dd002616800056
:102b3400f5bf2f008502630004827200241688000a
:102b4400144f80008402420004802000048242006a
:102b54001402780005002000225721000400be0062
:102b640082fc0700144f80000402e800144f880020
:102b74000000000001003700000000000080fa009f
:102b8400000006000000fa00e44e8000e00f52004e
:102b940007003a0014002000e44e88009cfe070061
:102ba400c142a900c542a90000000000010037008d
:0c2bb400000000000080fa000000060095
:00000001FF
