:020000040000fa
:080000000002040000000000f2
:020000040000fa
:100400008fd620000e7f22000e0188000000000021
:100410000c000700c0752600010020001100070035
:10042000000020000000e000020032000000020096
:100430000000000062750200000000000040da00c9
:100440000000fe004440a900803823000000e000c6
:100450000300320000002000a00188004440a800f2
:100460000000060091018800800078000000eb0089
:1004700015003700e280400032a0b4009101ba00bc
:10048000e280400032a0b4009102ba00e280400055
:1004900032a0b4000002eb00472bde00f507b200eb
:1004a000602ce10004003a000059eb008301e900f0
:1004b000fdff3e00040037006128e100010032002a
:1004c0000082eb00040007001101ba000200e00006
:1004d000e8ff3a00000006003159ba008301e90044
:1004e0000c0032002159ba008301e90008003200f3
:1004f0000400e00003003a00e280400032a0b400b3
:10050000f5ff370011d9ba008301e900faff3a007c
:100510008100e800e180400032a0b4000000060045
:100520000e8004000000000098030400000000009a
:10053000809fbe00829fbe000000fa008460a90078
:1005400090698000a169800061004000e08048005f
:1005500090698800a169880092698000a369800081
:10056000b0698000c1698000800f5100818f5900ff
:10057000080036000080eb008080eb00b069880046
:10058000c1698800d0698000e00f5000010032008e
:100590008bc0a8000080fa004f01be004f00be00d3
:1005a000004006003600f800809fbe00829fbe001b
:1005b000849fbe00869fbe000200fa008bc0a90087
:1005c000d0698000000f78001e007800e00f500016
:1005d000020032001e007800000001000080fa00d6
:1005e0004f03be004f02be004f01be004f00be00d1
:1005f0003600f900004006003600f800809fbe007b
:10060000829fbe00849fbe00869fbe000200fa004b
:100610008620a9004010800070006000e00f5000ac
:100620001a0032009620a9000000eb00106a880032
:10063000206a800000407800614060000080fb007c
:10064000610060004400dd00b2048000f1fe2f0074
:100650008100610000807000b0048800306a800072
:1006600000407800614060000080fb006100600095
:100670004d00dd00b2048000f1ff2d00810061001b
:1006800000807000b004880009003700106a800004
:10069000000f78001e007800e00f500003003200c9
:1006a0001e0078000000010001003700000000007b
:1006b0000080fa004f03be004f02be004f01be0093
:1006c0004f00be003600f900004006000000fa00ae
:1006d0008600a9000080fa00004006003600f800fd
:1006e000809fbe00829fbe00849fbe00869fbe008a
:1006f0000000fa008680a900803920004e380700eb
:10070000e00f500003003a000000eb00c0688800d2
:100710000602a8000080fa004f03be004f02be0090
:100720004f01be004f00be003600f9000040060039
:100730000200fa008620a900411080000000280075
:1007400000806000e00f50000f003a004110800070
:100750000040200000806000e00f50000a003a00d6
:10076000411080000008200000806000e00f500071
:1007700005003a0041108000000420000080600065
:10078000e00f5000020032008b380700f000370005
:10079000c0688000010020007200200003002000db
:1007a000820f5000838f5800e6003e000060010079
:1007b000070037000f00370013003700160037001e
:1007c0001d00370023003700380037003c00370099
:1007d00060462c00104078008080fb00e00f200075
:1007e000008060001010880010002000c0688800a1
:1007f000d6003700b0032000101088002000200031
:10080000c0688800d10037000622a8003000200010
:10081000c0688800cd00370060462c00104078008a
:100820000004a0000080fb001010880040002000a1
:10083000c0688800c500370008c2a9000662a80089
:100840000000eb00e068880050002000c0688800cd
:10085000be003700e2688000001080000040780091
:10086000e1bb20008100410080487800e068800002
:100870000000e800e0688800e0688000ed0f5000ac
:1008800005003e0006a2a9000682a8006000200024
:10089000c0688800ad00370006a2a8000682a80044
:1008a00070002000c0688800a800370008c2a900b6
:1008b0000662a80050002000c0688800a30037002e
:1008c0003d380700becbbf0010479800bfcbbf002c
:1008d000004f78001e0078000000ea00cf80de00a4
:1008e000805f8800915f8800c0cbbf0010479800f0
:1008f000c1cbbf00004f78001e0078000000ea0066
:10090000cf80de00605f8800715f8800c2cbbf00cf
:1009100010479800c3cbbf00004f78001e0078003e
:100920000000ea00cf80de00a05f8800b15f880091
:10093000c4cbbf0010479800c5cbbf00004f780064
:100940001e007800cf80de00405f8800515f880085
:10095000c6cbbf0010479800c7cbbf00004f780040
:100960001e0078000000ea00cf80de00e05f880013
:10097000f15f8800c8cbbf0010479800c9cbbf000b
:10098000004f78001e0078000000ea00cf80de00f3
:10099000c05f8800d15f8800cacbbf0010479800b5
:1009a000cbcbbf00004f78001e0078000000ea00ab
:1009b000cf80de000060880011608800c05d80008c
:1009c000d15d800061004000e0804800c05d88008b
:1009d000d15d8800d0688000e00f50001d003a0013
:1009e000605f8000715f8000805e8800915e88009b
:1009f000805f8000915f8000a05e8800b15e88000b
:100a0000a05f8000b15f8000c05e8800d15e88007a
:100a1000405f8000515f8000605e8800715e8800ea
:100a2000c05f8000d15f8000e05e8800f15e8800da
:100a3000e05f8000f15f8000005f8800115f880048
:100a40000060800011608000205f8800315f8800b6
:100a500038003700825e8000935e8000605f800017
:100a6000715f80000200400083804800805e880043
:100a7000915e8800a25e8000b35e8000805f80008f
:100a8000915f80000200400083804800a05e8800e3
:100a9000b15e8800c25e8000d35e8000a05f8000ef
:100aa000b15f80000200400083804800c05e880083
:100ab000d15e8800625e8000735e8000405f8000cf
:100ac000515f80000200400083804800605e880023
:100ad000715e8800e25e8000f35e8000c05f80008f
:100ae000d15f80000200400083804800e05e880003
:100af000f15e8800025f8000135f8000e05f80008d
:100b0000f15f80000200400083804800005f8800a1
:100b1000115f8800225f8000335f800000608000ea
:100b2000116080000200400083804800205f880040
:100b3000315f8800d06880000000e800d06888003d
:100b4000020037009c37070001003700000000005a
:100b50000080fa0000000600809fbe00829fbe0059
:100b60000000fa0021e3a900001880006101b8002c
:100b700010698000216980000200400083804800e5
:100b80001069880021698800306980000000e80051
:100b90003069880031698000f0032000808f5000a8
:100ba0001400360010698000216980000002b00046
:100bb0000180b0004a09dd004600de00000071003f
:100bc000c608de00000078000069880000022000ee
:100bd0003069880010698000216980006100400050
:100be000e08048008100d1000080d30010698800b7
:100bf0002169880085a0a90021e3a8000080fa00ef
:100c00004f01be004f00be0000400600809fbe00a6
:100c10000000fa000000eb00506288000000eb00ca
:100c2000606288003262a9003242a9003222a90023
:100c3000b0608000c160800061004000e08048003a
:100c4000b0608800c16088008c40a9000080fa0074
:100c50004f00be0000400600809fbe00829fbe0085
:100c60000400fa008c003700b01180002047980083
:100c70000000eb00000f7800604e2c0090407800e0
:100c80002e40900080cf500003003a00100020005a
:100c9000000f780007003700704e2c00904078005d
:100ca0002e40900080cf500002003a00200020002b
:100cb000000f7800506280006300b90000007800e7
:100cc0001e0040008000400000c220000080400064
:100cd00010007800506288005062800001002000ff
:100ce0006200200003002000820f5000838f580014
:100cf00069003e00006001006600370065003700b3
:100d0000640037000300370062003700120037002c
:100d10003300370061628000d0608000808f500017
:100d200009003100616280000090200000804000d6
:100d3000ae40900001487800606280000000e8004a
:100d40006062880054003700d06080000000e80036
:100d5000606288005000370061628000d0608000cf
:100d6000808f50000a00310062628000704e2c00bb
:100d700010407800019020008100410080487800f8
:100d8000606280000000e8006062880003003700b5
:100d9000d06080000000e80060628800616280002e
:100da000d0608000808f50000900310061628000b7
:100db0000090200000804000ae4090000148780084
:100dc000606280000000e800606288003200370046
:100dd000d06080000000e800606288002e003700cc
:100de00061628000d0608000808f50001e003e0055
:100df00060628000e00f50002100320070608000cf
:100e00008160800061004000e080480070608800e0
:100e1000816088000000eb00f06088000b00370064
:100e2000f2608000f16080000090200000804000af
:100e3000104078000188200081004100804878003f
:100e4000f06080000000e800f0608800f160800041
:100e500060628000808f5000f1ff39001000200098
:100e6000e06088000600370090608000a16080008c
:100e700061004000e080480090608800a160880028
:100e80000000eb00506288000000eb006062880008
:100e90000100370000000000901180006100600038
:100ea000e00f500070ff3a0087c0a9000080fa00f0
:100eb0004f01be004f00be0000400600809fbe00f4
:100ec0000000fa0040608000e00f50001600320081
:100ed0000c0037005160800000802000008040003e
:100ee000104078000080fb002011880050608000d6
:100ef0000000e80050608800406080000000e900c9
:100f00004060880040608000e00f50001200320016
:100f1000111180000020200000806000e00f5000d0
:100f2000ecff32000c003700704e2c0010407800af
:100f30000080fb002011880000000000704e2c0093
:100f4000104078000080fb00201188009580a900e7
:100f500010002000306088008580a9000080fa0021
:100f60004f00be0000400600809fbe000000fa0057
:100f700013e1a9008500a9000000eb000003880030
:100f80000000eb00100388008660a90090698000d3
:100f9000a1698000806588009165880010002000ac
:100fa0006065880010002000706588000000eb007c
:100fb000506588000000eb00806488006220a80073
:100fc0000000eb005008880013e1a8000080fa0040
:100fd0004f00be00004006003600f800809fbe00b3
:100fe000829fbe00849fbe00869fbe001c00fa0048
:100ff0000000eb00000388000000eb0010038800f5
:101000008660a900cc320700008fbe00806480009b
:10101000010020005200200003002000820f500039
:10102000838f580088013e000060010005003700f2
:10103000140037002300370032003700410037002a
:1010400050003700911680000008200000806000ea
:10105000e00f50007e013200826480001e00be005e
:10106000c211dd0022c92000028141000089be00ba
:10107000806480000000e800806488006280a8002e
:101080007f00370091168000001020000080600073
:10109000e00f500070013200826480001e00be002c
:1010a000c211dd0022c92000028141000089be007a
:1010b000806480000000e800806488006260a8000e
:1010c0006f00370091168000002020000080600033
:1010d000e00f500062013200826480001e00be00fa
:1010e000c211dd0022c92000028141000089be003a
:1010f000806480000000e800806488006200a8002e
:101100005f00370051168000004020000080600022
:10111000e00f500054013200826480001e00be00c7
:10112000c211dd0022c92000028141000089be00f9
:10113000806480000000e8008064880061e0a8000e
:101140004f003700511680000080200000806000b2
:10115000e00f500046013200826480001e00be0095
:10116000c211dd0022c92000028141000089be00b9
:10117000806480000000e8008064880061e0a800ce
:101180003f00370051168000008020000080600082
:10119000e00f500038013a00826480001e00be005b
:1011a000c211dd0022c92000028141000089be0079
:1011b000806480000000e800806488000000000077
:1011c000b2648000c364800090648000a1648000e9
:1011d0000000510081805900400798005107980095
:1011e000d2648000e3648000b0648000c164800049
:1011f0000000510081805900600798007107980035
:10120000f264800003658000d0648000e1648000a7
:101210000000510081805900000f9800110f9800c4
:101220001265800023658000f06480000165800005
:101230000000510081805900200f9800310f980064
:101240003265800043658000106580002165800064
:101250000000510081805900400f9800510f980004
:101260004e019000de0190000025860011258600c9
:10127000800f5100818f59000001350001003700b7
:10128000020137004e019000de01900080258600ab
:1012900091258600800f5100818f5900f7003c0096
:1012a0006e019000fe019000002586001125860049
:1012b000800f5100818f5900f00035006e019000c1
:1012c000fe0190008025860091258600800f510048
:1012d000818f5900e9003c000e0990009e099000a2
:1012e0000025860011258600800f5100818f59004e
:1012f000e20035000e0990009e09900080258600ce
:1013000091258600800f5100818f5900db003c0041
:101310002e099000be099000002586001125860048
:10132000800f5100818f5900d40035002e099000a4
:10133000be0990008025860091258600800f51000f
:10134000818f5900cd003c004e099000de099000cd
:101350000025860011258600800f5100818f5900dd
:10136000c60035004e099000de09900080258600f9
:1013700091258600800f5100818f5900bf003c00ed
:101380004e019000de019000202586003125860068
:10139000800f5100818f590005003d0020258600f7
:1013a0003125860040079800510798000b00370050
:1013b0004e019000de0190006025860071258600b8
:1013c000800f5100818f5900040034006025860091
:1013d0007125860040079800510798006e01900023
:1013e000fe0190002025860031258600800f5100e7
:1013f000818f590005003d0020258600312586009b
:1014000060079800710798000b0037006e0190008c
:10141000fe0190006025860071258600800f510036
:10142000818f5900040034006025860071258600f4
:1014300060079800710798000e0990009e099000bf
:101440002025860031258600800f5100818f5900ac
:1014500005003d002025860031258600000f9800fc
:10146000110f98000b0037000e0990009e099000a4
:101470006025860071258600800f5100818f5900fc
:10148000040034006025860071258600000f980056
:10149000110f98002e099000be09900020258600ab
:1014a00031258600800f5100818f590005003d00d5
:1014b0002025860031258600200f9800310f9800e6
:1014c0000b0037002e099000be09900060258600b1
:1014d00071258600800f5100818f5900040034006f
:1014e0006025860071258600200f9800310f980036
:1014f0004e099000de0990002025860031258600e7
:10150000800f5100818f590005003d002025860085
:1015100031258600400f9800510f98000b003700ce
:101520004e099000de099000602586007125860036
:10153000800f5100818f590004003400602586001f
:1015400071258600400f9800510f98004e019000c1
:10155000de019000402586005125860000005100e4
:1015600081805900a0658800b16588006e019000f7
:10157000fe019000402586005125860000005100a4
:1015800081805900c0658800d16588002e099000cf
:10159000be099000402586005125860000005100bc
:1015a0008180590000668800116688000e0990004d
:1015b0009e099000202586003125860000005100fc
:1015c00081805900e0658800f16588004e0990002f
:1015d000de0990004025860051258600800f5100cd
:1015e000818f590004003d006000b800206688002b
:1015f0003166880004003700100020000100200040
:10160000206688003166880090698000a1698000aa
:101610008065880091658800100020006065880062
:101620000000eb0070658800100020005065880005
:1016300013e1a9008500a9000000eb005008880014
:1016400013e1a8000d003700000000000b00370078
:10165000000000000900370000000000070037000c
:101660000000000005003700000000000300370004
:101670000000000001003700000000000000eb0047
:10168000806488006220a800000000000080fa004a
:101690004f03be004f02be004f01be004f00be0010
:1016a0003600f900004006000040da000000fe00ad
:1016b000889fbe008a9fbe008c1f780060010700d3
:1016c0006701330003866c006450e100240032009f
:1016d0006420e100270032006150e1002200320066
:1016e0006120e100210032008b854200eb07b10050
:1016f0000134b800003ab8000804420089844a0066
:10170000013ab8000030b8008880400009014a0062
:1017100004003300000040008180480002014900bd
:101720008b05e900c909dd0083017000010032006a
:1017300013002000c814de004814dd004709de0055
:101740001200b200c808de000884700054010700cf
:1017500001f0a1000cf0a70001f0a0004901370042
:101760006120e1004b0132000801be000200be0012
:10177000f7ff37006150e100fcff3a0045013700f8
:101780006011b8006c013700889fbe008a9fbe00c0
:101790008c1f78002a0107003101330003866c009a
:1017a0006450e1002e0032006420e100330032007a
:1017b0006150e1002f0032006120e1003100320071
:1017c00085855500eb07b0000900200008042000c3
:1017d000050037000804440089844c000a003100e9
:1017e0000603430087834b000001530081815b00a7
:1017f000f8ff33000203be000800a0000804440004
:1018000089844c00f6ff3900c639dd00830173007e
:1018100001003200130020008904d1000884d300a5
:101820000998a300050032000800a7000300a000eb
:101830008904d1000884d3008b05e8008904d10015
:101840000884d3000001eb000281d20014010700dc
:1018500001f0a1000cf0a70001f0a0000901370081
:101860006420e1000b0132000801be000200be004e
:10187000f7ff37006120e100060132006000b80088
:10188000f3ff37000000200001f82700f0ff3700c9
:101890004f89de00820178005601370003f0a20074
:1018a000889fbe008a9fbe008c1f7800e40007005e
:1018b000eb0033006450e1004f0032006420e1008f
:1018c0005200320003826c0007003b000905d00083
:1018d0000306d000820f54000c065d0002003900a0
:1018e00002003200890178000306780085825500e5
:1018f00004003d000003fd008103fd008502ea00b5
:101900008b854200840f720002003b0060001000d3
:10191000e08018006011b8000005eb007a28e100b3
:101920000a00390006007800c75ddd00f707b20045
:10193000878075002d003700828171000a017800d0
:10194000610560008180d1000080d3008502e9003c
:10195000f9ff3b00060440008784480002003b007a
:1019600060041400e0841c000988a3000700320012
:101970008a81710082817100610164008904d10053
:101980000884d3008b05e800170037000978a3000e
:1019900013003a000b00e000130034008b05e9004f
:1019a0000804440089844c000a4474000978a300a8
:1019b0000d003a000b00e000070034008b05e90041
:1019c0000804440089844c0001003a000b00200008
:1019d0000978a300f7ff32000001eb000200370096
:1019e000828171000a017800ad0007000cf0a700a9
:1019f00001f0a000a30037006420e10002003a00db
:101a0000838f6c00a30033000801be000200be00fb
:101a10009c003700f4ff2f0006013700140020005f
:101a2000040137000001be001d0107000470a7007b
:101a300003f0a10003f8a30013003a006509b10008
:101a400010003200090035006928e100020035006d
:101a500001002800000005000000400081804800cf
:101a60008502e900fcff3a0000000600f88f420002
:101a7000050035008100d1000080d3008502e80018
:101a8000fcff3a00000006008000eb0000000500ab
:101a90000001eb00170107000400320002002000e3
:101aa00003f8230001f0a7007cff070000000600f8
:101ab0006022b800060220000000d0008180d20021
:101ac0000482d2008582d2000000a00002025200ef
:101ad00083825a00030031000202420083824a00de
:101ae0000000a1000603e900f3ff3a000000060031
:101af000889fbe008a9fbe008c1f78000004be0035
:101b0000e70007000478a30026003a006120e10006
:101b10002500320009f8a30025003a006420e10006
:101b200021003200f507b1000508a30002003200d1
:101b300000004000818048006044b800031020008d
:101b40000200200000004000818048000805440099
:101b500089854c000a0541008b8549000a05500023
:101b60008b855800030033000a00be000204740095
:101b7000838474008301d1000281d300830f71003c
:101b8000f0ff3a008904d1000884d30060014900c5
:101b900082017800c1adde00fb07b0004000070005
:101ba000380037000960a0000800be00350037008b
:101bb00012022000326b8800f0ff2f00f1ff270097
:101bc00030003700889fbe008a9fbe008c1f7800bf
:101bd0001b0007001002200002003b00306b880051
:101be0001f0037008a0062006408e10002003a002a
:101bf000306b8800270037006108e100fcff3200ed
:101c00000800be0003047800dffe070001f0a10019
:101c1000df00070008f0a600040037000001be0046
:101c200091042400b0fd20001cff070009f0a7006c
:101c300001f0a200130037000001eb00390137006a
:101c40000004be00960007000003be000405be00ad
:101c50000200be0092000700844f750000000600dd
:101c60000200be006450e100050036006420e1007f
:101c7000020036000968a30001003a000800be0017
:101c80000160a0004f0678004f05be004f04be0063
:101c900000000600f0ff2f00f1ff2700f9ff3700da
:101ca00081002000618055000b003d000b002000ea
:101cb00061fe2f000100e1001d00340082817100ef
:101cc000610164008904d1000884d3000000e800a9
:101cd000faff3a0071002000610064000300700008
:101ce000020060000900320061044400e0844c00fe
:101cf0000988a500050032008b05e8006808e100ae
:101d000002003a008904d1000884d300f20f2000b9
:101d10000258e10005003d00c75ddd00f907b20093
:101d20008980750008007800000006000bf8270085
:101d30008b00780000000500889fbe008a9fbe00cf
:101d400000827000040271000482710026003200db
:101d50000004be000200be006011b8006b09200044
:101d6000950220000182cf000a0039000541b10030
:101d70000082cf00070039000541b1000982cf0081
:101d8000040039000541b1000882cf00010039008c
:101d90000541b10005425200120032000a003b002a
:101da00082817100610164008100d1000080d30054
:101db0008984d3000884d3008b05e8000442e8003e
:101dc000f7ff3a00070037000804440089844c00fc
:101dd00000004800818048008b05e9000442e900ca
:101de000f9ff3a00aeff07004f05be004f04be00ea
:101df00000000600881f7800030478000300e0005c
:101e000007003d0060001000e0801800600119002c
:101e1000e081190002003b0001f02d0003003700b3
:101e2000c5ff070008f0a70001f0a0004f047800ec
:101e300000000600889fbe008a9fbe00841f7800b5
:101e40007fff07004f00780011003300f0ff2f00e4
:101e5000838f6c0006003b00040565000a00a700a4
:101e60000800370009f0a600100020000800370025
:101e7000820f5400838f5c000300390010002000a3
:101e800001003e000000200009f0a7000000ea0069
:101e90004f05be004f04be000000e0000000060039
:101ea000c70ade00f107b200f50fb20008003200e9
:101eb000e1cf4200020032000170a00024000500c2
:101ec000810f700001003200040805004400050085
:101ed000810f700002003a00140005008502e9003d
:101ee0000000400081c04800fcff3b000170a000e2
:101ef00024000500889fbe008a9fbe000003be002c
:101f0000e7ff07008505780082815200020020006b
:101f10006220e10004003a00f307b100040035003c
:101f20007718e100040035000600be0014003700f9
:101f30006000b8000f003700f50f2000faff2f00f7
:101f40008502d1000a85d3008301e900fcff3b0034
:101f50008184620000046500890f7400f2ff320082
:101f60008582ea000a85ea00818462000004650037
:101f70004bff070007f0a70001f0a0000081eb0075
:101f80000200e0004f05be004f04be000000060046
:101f9000889fbe008a9fbe008c9fbe000004be00ca
:101fa000bfff07000800be00890678006420e1003a
:101fb00008003900040032000160a0001202200075
:101fc000326b88005300370091fc2300b0fd2000e5
:101fd0004e0037000006eb0009f0a10003f82300d3
:101fe000020020000800be008cfe0700060034003e
:101ff00001f82300000020000801be00e2fd0700f8
:102000000004be002c0020000800be0093e823005e
:10201000320a230081fe0700120034000801be00ce
:10202000d1fd2300703d2b001dfe07000005be0002
:10203000b3f32300f27a26000800be009cfd0700df
:1020400003f823000200200014fe07000801be0070
:1020500013fe07000a01be00cbfd07000004be000e
:102060000c06e8000800be0001f0a10002002000fc
:102070000398230069fe07000800be001600350023
:102080000801be008afd07000005be0032cd2c000d
:1020900043fb230002fe0700809fbe001269280058
:1020a00003d52b000a00be0081fd0700620f21004e
:1020b00013ef2b00fafd07000a01be007cfd0700ac
:1020c0004f01be00b0fd07000801be0078fd07000b
:1020d0000801be00f2fd07000c00e0000b0032001a
:1020e0000c10a70001f0a200b2fd200093fc230019
:1020f0006260e1000400320022a9200063f02300a6
:102100000c10a70063f82300e5fd07000df0a70001
:1021100001f0a2004f06be004f05be004f04be00f6
:1021200000000600889fbe008a9fbe008c9fbe00f4
:102130000206780001f0a7000cf0a0000004be0029
:1021400057ff07000800be006420e10007003900c7
:1021500002003a00f1ff2700f0ff2f000160a0000d
:1021600012022000326b88005100370009f0a100f4
:102170000800be000200200003f8230025fe07002f
:10218000f4ff3c000800be0002002000039823007a
:1021900022fe07000800be003000350002002000cb
:1021a00003f023001bfe070005003c000800be00f2
:1021b0000801be003efd07000005be000e0037000e
:1021c0000c10a2000000200001f823000801be004e
:1021d000b2fd07000200200003f0230034fd0700d9
:1021e0000005be0042fe07000200200003002c0094
:1021f0002ffd07000004be000a00be00b2d0280078
:10220000130b2c00a6fd07000a01be0028fd0700e5
:10221000020f2500330b2400a1fd0700809fbe00a4
:102220000a00be005206220013f02b0020fd07001a
:10223000b2662100f3f6230099fd07000a01be00f3
:102240001bfd07004f01be004ffd07000801be0047
:1022500017fd07000801be0091fd07000c00a70054
:1022600007003700b2fd200093fc23000c10a700ec
:102270008bfd07000cf0a70001f0a2000c00370056
:102280000cf0a7000200370001f0a20004003700a4
:10229000b2fd2000930424000c10a60003003700b8
:1022a000b2fd200093fc23000c10a7007cfd07006a
:1022b0004f06be004f05be004f04be0000000600e2
:020000040000fa
:0200000401f009
:04000c0078ff000079
:020000040000fa
:0200000401f009
:040010005eff00008f
:020000040000fa
:0200000401f009
:040014007fff00006a
:020000040000fa
:0200000401f009
:04001800eeff0000f7
:020000040000fa
:0200000401f009
:04001c00dfff000002
:020000040000fa
:10000800540b0000540b0000540b0000540b00006c
:10001800540b0000540b0000540b0000540b00005c
:10002800540b0000540b0000540b00009802000011
:10003800540b0000540b0000540b0000540b00003c
:10004800b4070000540b0000540b0000540b0000d0
:100058005e070000ac050000540b0000540b0000c4
:1000680066030000fc020000540b0000ec070000cf
:100078006e030000540b0000540b0000540b0000ea
:10008800540b0000540b0000540b0000540b0000ec
:10009800540b0000540b00002c060000540b000009
:1000a800540b0000540b0000540b0000540b0000cc
:1000b800540b0000540b0000540b0000540b0000bc
:1000c800540b0000540b0000540b0000540b0000ac
:1000d800540b0000540b0000540b0000540b00009c
:1000e800540b0000540b0000540b0000540b00008c
:1000f800540b0000540b0000540b0000540b00007c
:10010800540b0000540b0000540b0000540b00006b
:10011800540b0000540b0000d2020000540b0000e6
:10012800540b0000540b000006060000540b00009e
:10013800540b0000540b0000540b0000540b00003b
:10014800540b0000540b0000540b0000540b00002b
:10015800540b0000540b0000540b0000540b00001b
:10016800540b0000540b0000540b0000540b00000b
:10017800540b0000540b0000540b0000540b0000fb
:10018800540b0000540b0000540b0000540b0000eb
:10019800540b0000540b0000540b0000540b0000db
:1001a800540b0000540b0000540b0000540b0000cb
:1001b800540b0000540b0000540b0000540b0000bb
:1001c800540b0000540b0000540b0000540b0000ab
:1001d800540b0000540b0000540b0000540b00009b
:1001e800540b0000540b0000540b0000540b00008b
:0801f800540b0000540b000041
:020000040000fa
:10020800540b0000540b0000540b0000540b00006a
:10021800540b0000540b0000540b0000540b00005a
:10022800540b0000540b0000540b0000980200000f
:10023800540b0000540b0000540b0000540b00003a
:10024800b4070000540b0000540b0000540b0000ce
:100258005e070000ac050000540b0000540b0000c2
:1002680066030000fc020000540b0000ec070000cd
:100278006e030000540b0000540b0000540b0000e8
:10028800540b0000540b0000540b0000540b0000ea
:10029800540b0000540b00002c060000540b000007
:1002a800540b0000540b0000540b0000540b0000ca
:1002b800540b0000540b0000540b0000540b0000ba
:1002c800540b0000540b0000540b0000540b0000aa
:1002d800540b0000540b0000540b0000540b00009a
:1002e800540b0000540b0000540b0000540b00008a
:1002f800540b0000540b0000540b0000540b00007a
:10030800540b0000540b0000540b0000540b000069
:10031800540b0000540b0000d2020000540b0000e4
:10032800540b0000540b000006060000540b00009c
:10033800540b0000540b0000540b0000540b000039
:10034800540b0000540b0000540b0000540b000029
:10035800540b0000540b0000540b0000540b000019
:10036800540b0000540b0000540b0000540b000009
:10037800540b0000540b0000540b0000540b0000f9
:10038800540b0000540b0000540b0000540b0000e9
:10039800540b0000540b0000540b0000540b0000d9
:1003a800540b0000540b0000540b0000540b0000c9
:1003b800540b0000540b0000540b0000540b0000b9
:1003c800540b0000540b0000540b0000540b0000a9
:1003d800540b0000540b0000540b0000540b000099
:1003e800540b0000540b0000540b0000540b000089
:0803f800540b0000540b00003f
:020000040000fa
:1022c000b20c00001e000000000000001e00000014
:1022d000000000001e000000000000001e000000c2
:1022e000000000001e000000000000001e000000b2
:1022f000000000001e000000000000001e000000a2
:10230000000000001e000000000000001e00000091
:10231000000000001e000000000000001e00000081
:10232000000000001e000000000000001e00000071
:10233000000000001e000000000000001e00000061
:10234000000000001e000000000000001e00000051
:10235000000000001e000000000000001e00000041
:10236000000000001e000000000000001e00000031
:10237000000000001e000000000000001e00000021
:10238000000000001e000000000000001e00000011
:10239000000000001e000000000000001e00000001
:1023a000000000001e000000000000001e000000f1
:1023b000000000001e000000000000001e000000e1
:1023c000000000001e000000000000001e000000d1
:1023d000000000001e000000000000001e000000c1
:1023e000000000001e000000000000001e000000b1
:1023f000000000001e000000000000001e000000a1
:10240000000000001e000000000000001e00000090
:10241000000000001e000000000000001e00000080
:10242000000000001e000000000000001e00000070
:10243000000000001e000000000000001e00000060
:10244000000000001e000000000000001e00000050
:10245000000000001e000000000000001e00000040
:10246000000000001e000000000000001e00000030
:10247000000000001e000000000000001e00000020
:10248000000000001e000000000000001e00000010
:10249000000000001e000000000000001e00000000
:1024a000000000001e000000000000001e000000f0
:1024b000000000001e000000000000001e000000e0
:1024c000000000001e000000000000001e000000d0
:1024d000000000001e000000000000001e000000c0
:1024e000000000001e000000000000001e000000b0
:1024f000000000001e000000000000001e000000a0
:10250000000000001e000000000000001e0000008f
:10251000000000001e000000000000001e0000007f
:10252000000000001e000000000000001e0000006f
:10253000000000001e000000000000001e0000005f
:10254000000000001e000000000000001e0000004f
:10255000000000001e000000000000001e0000003f
:10256000000000001e000000000000001e0000002f
:10257000000000001e000000000000001e0000001f
:10258000000000001e000000000000001e0000000f
:10259000000000001e000000000000001e000000ff
:1025a000000000001e000000000000001e000000ef
:1025b000000000001e000000000000001e000000df
:1025c000000000001e000000000000001e000000cf
:1025d000000000001e000000000000001e000000bf
:1025e000000000001e000000000000001e000000af
:1025f000000000001e000000000000001e0000009f
:10260000000000001e000000000000001e0000008e
:10261000000000001e000000000000001e0000007e
:10262000000000001e000000000000001e0000006e
:10263000000000001e000000000000001e0000005e
:10264000000000001e000000000000001e0000004e
:10265000000000001e000000000000001e0000003e
:10266000000000001e000000000000001e0000002e
:10267000000000001e000000000000001e0000001e
:10268000000000001e000000000000001e0000000e
:10269000000000001e000000000000001e000000fe
:1026a000000000001e000000000000001e000000ee
:1026b000000000001e000000000000001e000000de
:1026c000000000001e000000000000001e000000ce
:1026d000000000001e000000000000001e000000be
:1026e000000000001e000000000000001e000000ae
:1026f000000000001e000000000000001e0000009e
:10270000000000001e000000000000001e0000008d
:10271000000000001e000000000000001e0000007d
:10272000000000001e000000000000001e0000006d
:10273000000000001e000000000000001e0000005d
:10274000000000001e000000000000001e0000004d
:10275000000000001e000000000000001e0000003d
:10276000000000001e000000000000001e0000002d
:10277000000000001e000000000000001e0000001d
:10278000000000001e000000000000001e0000000d
:10279000000000001e000000000000001e000000fd
:1027a000000000001e000000000000001e000000ed
:1027b000000000001e000000000000001e000000dd
:1027c000000000001e000000000000001e000000cd
:1027d000000000001e000000000000001e000000bd
:1027e000000000001e000000000000001e000000ad
:1027f000000000001e000000000000001e0000009d
:10280000000000001e000000000000001e0000008c
:10281000000000001e000000000000001e0000007c
:10282000000000001e000000000000001e0000006c
:10283000000000001e000000000000001e0000005c
:10284000000000001e000000000000001e0000004c
:10285000000000001e000000000000001e0000003c
:10286000000000001e000000000000001e0000002c
:10287000000000001e000000000000001e0000001c
:10288000000000001e000000000000001e0000000c
:10289000000000001e000000000000001e000000fc
:1028a000000000001e000000000000001e000000ec
:1028b000000000001e000000000000001e000000dc
:1028c000000000001e000000000000001e000000cc
:1028d000000000001e000000000000001e000000bc
:1028e000000000001e000000000000001e000000ac
:1028f000000000001e000000000000001e0000009c
:10290000000000001e000000000000001e0000008b
:10291000000000001e000000000000001e0000007b
:10292000000000001e000000000000001e0000006b
:10293000000000001e000000000000001e0000005b
:10294000000000001e000000000000001e0000004b
:10295000000000001e000000000000001e0000003b
:10296000000000001e000000000000001e0000002b
:10297000000000001e000000000000001e0000001b
:10298000000000001e000000000000001e0000000b
:10299000000000001e000000000000001e000000fb
:1029a000000000001e000000000000001e000000eb
:1029b000000000001e000000000000001e000000db
:1029c000000000001e000000000000001e000000cb
:1029d000000000001e000000000000001e000000bb
:1029e000000000001e000000000000001e000000ab
:1029f000000000001e000000000000001e0000009b
:102a0000000000001e000000000000001e0000008a
:102a1000000000001e000000000000001e0000007a
:102a2000000000001e000000000000001e0000006a
:102a3000000000001e000000000000001e0000005a
:102a4000000000001e000000000000001e0000004a
:102a5000000000001e000000000000001e0000003a
:102a6000000000001e000000000000001e0000002a
:102a7000000000001e000000000000001e0000001a
:102a8000000000001e000000000000001e0000000a
:102a900000000000280000000000000028000000e6
:102aa00000000000280000000000000028000000d6
:102ab00000000000280000000000000028000000c6
:102ac00000000000280000000000000028000000b6
:102ad00000000000280000000000000028000000a6
:102ae0000000000028000000000000002800000096
:102af0000000000028000000000000002800000086
:102b00000000000028000000000000002800000075
:102b10000000000028000000000000002800000065
:102b20000000000028000000000000002800000055
:102b30000000000028000000000000002800000045
:102b40000000000028000000000000002800000035
:102b50000000000028000000000000002800000025
:102b60000000000028000000000000002800000015
:102b70000000000028000000000000002800000005
:102b800000000000280000000000000028000000f5
:102b900000000000280000000000000028000000e5
:102ba00000000000280000000000000028000000d5
:102bb00000000000280000000000000028000000c5
:102bc00000000000280000000000000028000000b5
:102bd00000000000280000000000000028000000a5
:102be0000000000028000000000000002800000095
:102bf0000000000028000000000000002800000085
:102c00000000000028000000000000002800000074
:102c10000000000028000000000000002800000064
:102c20000000000028000000000000002800000054
:102c30000000000028000000000000002800000044
:102c40000000000028000000000000002800000034
:102c50000000000028000000000000002800000024
:102c60000000000028000000000000002800000014
:102c70000000000028000000000000002800000004
:102c800000000000280000000000000028000000f4
:102c900000000000280000000000000028000000e4
:102ca00000000000280000000000000028000000d4
:102cb00000000000280000000000000028000000c4
:102cc00000000000280000000000000028000000b4
:102cd00000000000280000000000000028000000a4
:102ce0000000000028000000000000002800000094
:102cf0000000000028000000000000002800000084
:102d00000000000028000000000000002800000073
:102d10000000000028000000000000002800000063
:102d20000000000028000000000000002800000053
:102d30000000000028000000000000002800000043
:102d40000000000028000000000000002800000033
:102d50000000000028000000000000002800000023
:102d60000000000028000000000000002800000013
:102d70000000000028000000000000002800000003
:102d800000000000280000000000000028000000f3
:102d900000000000280000000000000028000000e3
:102da00000000000280000000000000028000000d3
:102db00000000000280000000000000028000000c3
:102dc00000000000280000000000000028000000b3
:102dd00000000000280000000000000028000000a3
:102de0000000000028000000000000002800000093
:102df0000000000028000000000000002800000083
:102e00000000000028000000000000002800000072
:102e10000000000028000000000000002800000062
:102e20000000000028000000000000002800000052
:102e30000000000028000000000000002800000042
:102e40000000000028000000000000002800000032
:102e50000000000028000000000000002800000022
:102e60000000000028000000000000002800000012
:102e70000000000028000000000000002800000002
:102e800000000000280000000000000028000000f2
:102e900000000000280000000000000028000000e2
:102ea00000000000280000000000000028000000d2
:102eb00000000000280000000000000028000000c2
:102ec00000000000280000000000000028000000b2
:102ed00000000000280000000000000028000000a2
:102ee0000000000028000000000000002800000092
:102ef0000000000028000000000000002800000082
:102f00000000000028000000000000002800000071
:102f10000000000028000000000000002800000061
:102f20000000000028000000000000002800000051
:102f30000000000028000000000000002800000041
:102f40000000000028000000000000002800000031
:102f50000000000028000000000000002800000021
:102f60000000000028000000000000002800000011
:102f70000000000028000000000000002800000001
:102f800000000000280000000000000028000000f1
:102f900000000000280000000000000028000000e1
:102fa00000000000280000000000000028000000d1
:102fb00000000000280000000000000028000000c1
:102fc00000000000280000000000000028000000b1
:102fd00000000000280000000000000028000000a1
:102fe0000000000028000000000000002800000091
:102ff0000000000028000000000000002800000081
:103000000000000028000000000000002800000070
:103010000000000028000000000000002800000060
:103020000000000028000000000000002800000050
:103030000000000028000000000000002800000040
:103040000000000028000000000000002800000030
:103050000000000028000000000000002800000020
:103060000000000028000000000000002800000010
:103070000000000028000000000000002800000000
:1030800000000000280000000000000028000000f0
:1030900000000000280000000000000028000000e0
:1030a00000000000280000000000000028000000d0
:1030b00000000000280000000000000028000000c0
:1030c00000000000280000000000000028000000b0
:1030d00000000000280000000000000028000000a0
:1030e0000000000028000000000000002800000090
:1030f0000000000028000000000000002800000080
:10310000000000002800000000000000280000006f
:10311000000000002800000000000000280000005f
:10312000000000002800000000000000280000004f
:10313000000000002800000000000000280000003f
:10314000000000002800000000000000280000002f
:10315000000000002800000000000000280000001f
:10316000000000002800000000000000280000000f
:1031700000000000280000000000000028000000ff
:1031800000000000280000000000000028000000ef
:1031900000000000280000000000000028000000df
:1031a00000000000280000000000000028000000cf
:1031b00000000000280000000000000028000000bf
:1031c00000000000280000000000000028000000af
:1031d000000000002800000000000000280000009f
:1031e000000000002800000000000000280000008f
:1031f000000000002800000000000000280000007f
:10320000000000002800000000000000280000006e
:10321000000000002800000000000000280000005e
:10322000000000002800000000000000280000004e
:10323000000000002800000000000000280000003e
:10324000000000002800000000000000280000002e
:10325000000000002800000000000000280000001e
:1032600000000000320000000000000032000000fa
:1032700000000000320000000000000032000000ea
:1032800000000000320000000000000032000000da
:1032900000000000320000000000000032000000ca
:1032a00000000000320000000000000032000000ba
:1032b00000000000320000000000000032000000aa
:1032c000000000003200000000000000320000009a
:1032d000000000003200000000000000320000008a
:1032e000000000003200000000000000320000007a
:1032f000000000003200000000000000320000006a
:103300000000000032000000000000003200000059
:103310000000000032000000000000003200000049
:103320000000000032000000000000003200000039
:103330000000000032000000000000003200000029
:103340000000000032000000000000003200000019
:103350000000000032000000000000003200000009
:1033600000000000320000000000000032000000f9
:1033700000000000320000000000000032000000e9
:1033800000000000320000000000000032000000d9
:1033900000000000320000000000000032000000c9
:1033a00000000000320000000000000032000000b9
:1033b00000000000320000000000000032000000a9
:1033c0000000000032000000000000003200000099
:1033d0000000000032000000000000003200000089
:1033e0000000000032000000000000003200000079
:1033f0000000000032000000000000003200000069
:103400000000000032000000000000003200000058
:103410000000000032000000000000003200000048
:103420000000000032000000000000003200000038
:103430000000000032000000000000003200000028
:103440000000000032000000000000003200000018
:103450000000000032000000000000003200000008
:1034600000000000320000000000000032000000f8
:1034700000000000320000000000000032000000e8
:1034800000000000320000000000000032000000d8
:1034900000000000320000000000000032000000c8
:1034a00000000000320000000000000032000000b8
:1034b00000000000320000000000000032000000a8
:1034c0000000000032000000000000003200000098
:1034d0000000000032000000000000003200000088
:1034e0000000000032000000000000003200000078
:1034f0000000000032000000000000003200000068
:103500000000000032000000000000003200000057
:103510000000000032000000000000003200000047
:103520000000000032000000000000003200000037
:103530000000000032000000000000003200000027
:103540000000000032000000000000003200000017
:103550000000000032000000000000003200000007
:1035600000000000320000000000000032000000f7
:1035700000000000320000000000000032000000e7
:1035800000000000320000000000000032000000d7
:1035900000000000320000000000000032000000c7
:1035a00000000000320000000000000032000000b7
:1035b00000000000320000000000000032000000a7
:1035c0000000000032000000000000003200000097
:1035d0000000000032000000000000003200000087
:1035e0000000000032000000000000003200000077
:1035f0000000000032000000000000003200000067
:103600000000000032000000000000003200000056
:103610000000000032000000000000003200000046
:103620000000000032000000000000003200000036
:103630000000000032000000000000003200000026
:103640000000000032000000000000003200000016
:103650000000000032000000000000003200000006
:1036600000000000320000000000000032000000f6
:1036700000000000320000000000000032000000e6
:1036800000000000320000000000000032000000d6
:1036900000000000320000000000000032000000c6
:1036a00000000000320000000000000032000000b6
:1036b00000000000320000000000000032000000a6
:1036c0000000000032000000000000003200000096
:1036d0000000000032000000000000003200000086
:1036e0000000000032000000000000003200000076
:1036f0000000000032000000000000003200000066
:103700000000000032000000000000003200000055
:103710000000000032000000000000003200000045
:103720000000000032000000000000003200000035
:103730000000000032000000000000003200000025
:103740000000000032000000000000003200000015
:103750000000000032000000000000003200000005
:1037600000000000320000000000000032000000f5
:1037700000000000320000000000000032000000e5
:1037800000000000320000000000000032000000d5
:1037900000000000320000000000000032000000c5
:1037a00000000000320000000000000032000000b5
:1037b00000000000320000000000000032000000a5
:1037c0000000000032000000000000003200000095
:1037d0000000000032000000000000003200000085
:1037e0000000000032000000000000003200000075
:1037f0000000000032000000000000003200000065
:103800000000000032000000000000003200000054
:103810000000000032000000000000003200000044
:103820000000000032000000000000003200000034
:103830000000000032000000000000003200000024
:103840000000000032000000000000003200000014
:103850000000000032000000000000003200000004
:1038600000000000320000000000000032000000f4
:1038700000000000320000000000000032000000e4
:1038800000000000320000000000000032000000d4
:1038900000000000320000000000000032000000c4
:1038a00000000000320000000000000032000000b4
:1038b00000000000320000000000000032000000a4
:1038c0000000000032000000000000003200000094
:1038d0000000000032000000000000003200000084
:1038e0000000000032000000000000003200000074
:1038f0000000000032000000000000003200000064
:103900000000000032000000000000003200000053
:103910000000000032000000000000003200000043
:103920000000000032000000000000003200000033
:103930000000000032000000000000003200000023
:103940000000000032000000000000003200000013
:103950000000000032000000000000003200000003
:1039600000000000320000000000000032000000f3
:1039700000000000320000000000000032000000e3
:1039800000000000320000000000000032000000d3
:1039900000000000320000000000000032000000c3
:1039a00000000000320000000000000032000000b3
:1039b00000000000320000000000000032000000a3
:1039c0000000000032000000000000003200000093
:1039d0000000000032000000000000003200000083
:1039e0000000000032000000000000003200000073
:1039f0000000000032000000000000003200000063
:103a00000000000032000000000000003200000052
:103a10000000000032000000000000003200000042
:103a20000000000032000000000000003200000032
:103a3000000000003c000000000000003c0000000e
:103a4000000000003c000000000000003c000000fe
:103a5000000000003c000000000000003c000000ee
:103a6000000000003c000000000000003c000000de
:103a7000000000003c000000000000003c000000ce
:103a8000000000003c000000000000003c000000be
:103a9000000000003c000000000000003c000000ae
:103aa000000000003c000000000000003c0000009e
:103ab000000000003c000000000000003c0000008e
:103ac000000000003c000000000000003c0000007e
:103ad000000000003c000000000000003c0000006e
:103ae000000000003c000000000000003c0000005e
:103af000000000003c000000000000003c0000004e
:103b0000000000003c000000000000003c0000003d
:103b1000000000003c000000000000003c0000002d
:103b2000000000003c000000000000003c0000001d
:103b3000000000003c000000000000003c0000000d
:103b4000000000003c000000000000003c000000fd
:103b5000000000003c000000000000003c000000ed
:103b6000000000003c000000000000003c000000dd
:103b7000000000003c000000000000003c000000cd
:103b8000000000003c000000000000003c000000bd
:103b9000000000003c000000000000003c000000ad
:103ba000000000003c000000000000003c0000009d
:103bb000000000003c000000000000003c0000008d
:103bc000000000003c000000000000003c0000007d
:103bd000000000003c000000000000003c0000006d
:103be000000000003c000000000000003c0000005d
:103bf000000000003c000000000000003c0000004d
:103c0000000000003c000000000000003c0000003c
:103c1000000000003c000000000000003c0000002c
:103c2000000000003c000000000000003c0000001c
:103c3000000000003c000000000000003c0000000c
:103c4000000000003c000000000000003c000000fc
:103c5000000000003c000000000000003c000000ec
:103c6000000000003c000000000000003c000000dc
:103c7000000000003c000000000000003c000000cc
:103c8000000000003c000000000000003c000000bc
:103c9000000000003c000000000000003c000000ac
:103ca000000000003c000000000000003c0000009c
:103cb000000000003c000000000000003c0000008c
:103cc000000000003c000000000000003c0000007c
:103cd000000000003c000000000000003c0000006c
:103ce000000000003c000000000000003c0000005c
:103cf000000000003c000000000000003c0000004c
:103d0000000000003c000000000000003c0000003b
:103d1000000000003c000000000000003c0000002b
:103d2000000000003c000000000000003c0000001b
:103d3000000000003c000000000000003c0000000b
:103d4000000000003c000000000000003c000000fb
:103d5000000000003c000000000000003c000000eb
:103d6000000000003c000000000000003c000000db
:103d7000000000003c000000000000003c000000cb
:103d8000000000003c000000000000003c000000bb
:103d9000000000003c000000000000003c000000ab
:103da000000000003c000000000000003c0000009b
:103db000000000003c000000000000003c0000008b
:103dc000000000003c000000000000003c0000007b
:103dd000000000003c000000000000003c0000006b
:103de000000000003c000000000000003c0000005b
:103df000000000003c000000000000003c0000004b
:103e0000000000003c000000000000003c0000003a
:103e1000000000003c000000000000003c0000002a
:103e2000000000003c000000000000003c0000001a
:103e3000000000003c000000000000003c0000000a
:103e4000000000003c000000000000003c000000fa
:103e5000000000003c000000000000003c000000ea
:103e6000000000003c000000000000003c000000da
:103e7000000000003c000000000000003c000000ca
:103e8000000000003c000000000000003c000000ba
:103e9000000000003c000000000000003c000000aa
:103ea000000000003c000000000000003c0000009a
:103eb000000000003c000000000000003c0000008a
:103ec000000000003c000000000000003c0000007a
:103ed000000000003c000000000000003c0000006a
:103ee000000000003c000000000000003c0000005a
:103ef000000000003c000000000000003c0000004a
:103f0000000000003c000000000000003c00000039
:103f1000000000003c000000000000003c00000029
:103f2000000000003c000000000000003c00000019
:103f3000000000003c000000000000003c00000009
:103f4000000000003c000000000000003c000000f9
:103f5000000000003c000000000000003c000000e9
:103f6000000000003c000000000000003c000000d9
:103f7000000000003c000000000000003c000000c9
:103f8000000000003c000000000000003c000000b9
:103f9000000000003c000000000000003c000000a9
:103fa000000000003c000000000000003c00000099
:103fb000000000003c000000000000003c00000089
:103fc000000000003c000000000000003c00000079
:103fd000000000003c000000000000003c00000069
:103fe000000000003c000000000000003c00000059
:103ff000000000003c000000000000003c00000049
:10400000000000003c000000000000003c00000038
:10401000000000003c000000000000003c00000028
:10402000000000003c000000000000003c00000018
:10403000000000003c000000000000003c00000008
:10404000000000003c000000000000003c000000f8
:10405000000000003c000000000000003c000000e8
:10406000000000003c000000000000003c000000d8
:10407000000000003c000000000000003c000000c8
:10408000000000003c000000000000003c000000b8
:10409000000000003c000000000000003c000000a8
:1040a000000000003c000000000000003c00000098
:1040b000000000003c000000000000003c00000088
:1040c000000000003c000000000000003c00000078
:1040d000000000003c000000000000003c00000068
:1040e000000000003c000000000000003c00000058
:1040f000000000003c000000000000003c00000048
:10410000000000003c000000000000003c00000037
:10411000000000003c000000000000003c00000027
:10412000000000003c000000000000003c00000017
:10413000000000003c000000000000003c00000007
:10414000000000003c000000000000003c000000f7
:10415000000000003c000000000000003c000000e7
:10416000000000003c000000000000003c000000d7
:10417000000000003c000000000000003c000000c7
:10418000000000003c000000000000003c000000b7
:10419000000000003c000000000000003c000000a7
:1041a000000000003c000000000000003c00000097
:1041b000000000003c000000000000003c00000087
:1041c000000000003c000000000000003c00000077
:1041d000000000003c000000000000003c00000067
:1041e000000000003c000000000000003c00000057
:1041f000000000003c000000000000003c00000047
:104200000000000046000000000000004600000022
:104210000000000046000000000000004600000012
:104220000000000046000000000000004600000002
:1042300000000000460000000000000046000000f2
:1042400000000000460000000000000046000000e2
:1042500000000000460000000000000046000000d2
:1042600000000000460000000000000046000000c2
:1042700000000000460000000000000046000000b2
:1042800000000000460000000000000046000000a2
:104290000000000046000000000000004600000092
:1042a0000000000046000000000000004600000082
:1042b0000000000046000000000000004600000072
:1042c0000000000046000000000000004600000062
:1042d0000000000046000000000000004600000052
:1042e0000000000046000000000000004600000042
:1042f0000000000046000000000000004600000032
:104300000000000046000000000000004600000021
:104310000000000046000000000000004600000011
:104320000000000046000000000000004600000001
:1043300000000000460000000000000046000000f1
:1043400000000000460000000000000046000000e1
:1043500000000000460000000000000046000000d1
:1043600000000000460000000000000046000000c1
:1043700000000000460000000000000046000000b1
:1043800000000000460000000000000046000000a1
:104390000000000046000000000000004600000091
:1043a0000000000046000000000000004600000081
:1043b0000000000046000000000000004600000071
:1043c0000000000046000000000000004600000061
:1043d0000000000046000000000000004600000051
:1043e0000000000046000000000000004600000041
:1043f0000000000046000000000000004600000031
:104400000000000046000000000000004600000020
:104410000000000046000000000000004600000010
:104420000000000046000000000000004600000000
:1044300000000000460000000000000046000000f0
:1044400000000000460000000000000046000000e0
:1044500000000000460000000000000046000000d0
:1044600000000000460000000000000046000000c0
:1044700000000000460000000000000046000000b0
:1044800000000000460000000000000046000000a0
:104490000000000046000000000000004600000090
:1044a0000000000046000000000000004600000080
:1044b0000000000046000000000000004600000070
:1044c0000000000046000000000000004600000060
:1044d0000000000046000000000000004600000050
:1044e0000000000046000000000000004600000040
:1044f0000000000046000000000000004600000030
:10450000000000004600000000000000460000001f
:10451000000000004600000000000000460000000f
:1045200000000000460000000000000046000000ff
:1045300000000000460000000000000046000000ef
:1045400000000000460000000000000046000000df
:1045500000000000460000000000000046000000cf
:1045600000000000460000000000000046000000bf
:1045700000000000460000000000000046000000af
:10458000000000004600000000000000460000009f
:10459000000000004600000000000000460000008f
:1045a000000000004600000000000000460000007f
:1045b000000000004600000000000000460000006f
:1045c000000000004600000000000000460000005f
:1045d000000000004600000000000000460000004f
:1045e000000000004600000000000000460000003f
:1045f000000000004600000000000000460000002f
:10460000000000004600000000000000460000001e
:10461000000000004600000000000000460000000e
:1046200000000000460000000000000046000000fe
:1046300000000000460000000000000046000000ee
:1046400000000000460000000000000046000000de
:1046500000000000460000000000000046000000ce
:1046600000000000460000000000000046000000be
:1046700000000000460000000000000046000000ae
:10468000000000004600000000000000460000009e
:10469000000000004600000000000000460000008e
:1046a000000000004600000000000000460000007e
:1046b000000000004600000000000000460000006e
:1046c000000000004600000000000000460000005e
:1046d000000000004600000000000000460000004e
:1046e000000000004600000000000000460000003e
:1046f000000000004600000000000000460000002e
:10470000000000004600000000000000460000001d
:10471000000000004600000000000000460000000d
:1047200000000000460000000000000046000000fd
:1047300000000000460000000000000046000000ed
:1047400000000000460000000000000046000000dd
:1047500000000000460000000000000046000000cd
:1047600000000000460000000000000046000000bd
:1047700000000000460000000000000046000000ad
:10478000000000004600000000000000460000009d
:10479000000000004600000000000000460000008d
:1047a000000000004600000000000000460000007d
:1047b000000000004600000000000000460000006d
:1047c000000000004600000000000000460000005d
:1047d000000000004600000000000000460000004d
:1047e000000000004600000000000000460000003d
:1047f000000000004600000000000000460000002d
:10480000000000004600000000000000460000001c
:10481000000000004600000000000000460000000c
:1048200000000000460000000000000046000000fc
:1048300000000000460000000000000046000000ec
:1048400000000000460000000000000046000000dc
:1048500000000000460000000000000046000000cc
:1048600000000000460000000000000046000000bc
:1048700000000000460000000000000046000000ac
:10488000000000004600000000000000460000009c
:10489000000000004600000000000000460000008c
:1048a000000000004600000000000000460000007c
:1048b000000000004600000000000000460000006c
:1048c000000000004600000000000000460000005c
:1048d000000000004600000000000000460000004c
:1048e000000000004600000000000000460000003c
:1048f000000000004600000000000000460000002c
:10490000000000004600000000000000460000001b
:10491000000000004600000000000000460000000b
:1049200000000000460000000000000046000000fb
:1049300000000000460000000000000046000000eb
:1049400000000000460000000000000046000000db
:1049500000000000460000000000000046000000cb
:1049600000000000460000000000000046000000bb
:1049700000000000460000000000000046000000ab
:10498000000000004600000000000000460000009b
:10499000000000004600000000000000460000008b
:1049a000000000004600000000000000460000007b
:1049b000000000004600000000000000460000006b
:1049c000000000004600000000000000460000005b
:1049d0000000000050000000000000005000000037
:1049e0000000000050000000000000005000000027
:1049f0000000000050000000000000005000000017
:104a00000000000050000000000000005000000006
:104a100000000000500000000000000050000000f6
:104a200000000000500000000000000050000000e6
:104a300000000000500000000000000050000000d6
:104a400000000000500000000000000050000000c6
:104a500000000000500000000000000050000000b6
:104a600000000000500000000000000050000000a6
:104a70000000000050000000000000005000000096
:104a80000000000050000000000000005000000086
:104a90000000000050000000000000005000000076
:104aa0000000000050000000000000005000000066
:104ab0000000000050000000000000005000000056
:104ac0000000000050000000000000005000000046
:104ad0000000000050000000000000005000000036
:104ae0000000000050000000000000005000000026
:104af0000000000050000000000000005000000016
:104b00000000000050000000000000005000000005
:104b100000000000500000000000000050000000f5
:104b200000000000500000000000000050000000e5
:104b300000000000500000000000000050000000d5
:104b400000000000500000000000000050000000c5
:104b500000000000500000000000000050000000b5
:104b600000000000500000000000000050000000a5
:104b70000000000050000000000000005000000095
:104b80000000000050000000000000005000000085
:104b90000000000050000000000000005000000075
:104ba0000000000050000000000000005000000065
:104bb0000000000050000000000000005000000055
:104bc0000000000050000000000000005000000045
:104bd0000000000050000000000000005000000035
:104be0000000000050000000000000005000000025
:104bf0000000000050000000000000005000000015
:104c00000000000050000000000000005000000004
:104c100000000000500000000000000050000000f4
:104c200000000000500000000000000050000000e4
:104c300000000000500000000000000050000000d4
:104c400000000000500000000000000050000000c4
:104c500000000000500000000000000050000000b4
:104c600000000000500000000000000050000000a4
:104c70000000000050000000000000005000000094
:104c80000000000050000000000000005000000084
:104c90000000000050000000000000005000000074
:104ca0000000000050000000000000005000000064
:104cb0000000000050000000000000005000000054
:104cc0000000000050000000000000005000000044
:104cd0000000000050000000000000005000000034
:104ce0000000000050000000000000005000000024
:104cf0000000000050000000000000005000000014
:104d00000000000050000000000000005000000003
:104d100000000000500000000000000050000000f3
:104d200000000000500000000000000050000000e3
:104d300000000000500000000000000050000000d3
:104d400000000000500000000000000050000000c3
:104d500000000000500000000000000050000000b3
:104d600000000000500000000000000050000000a3
:104d70000000000050000000000000005000000093
:104d80000000000050000000000000005000000083
:104d90000000000050000000000000005000000073
:104da0000000000050000000000000005000000063
:104db0000000000050000000000000005000000053
:104dc0000000000050000000000000005000000043
:104dd0000000000050000000000000005000000033
:104de0000000000050000000000000005000000023
:104df0000000000050000000000000005000000013
:104e00000000000050000000000000005000000002
:104e100000000000500000000000000050000000f2
:104e200000000000500000000000000050000000e2
:104e300000000000500000000000000050000000d2
:104e400000000000500000000000000050000000c2
:104e500000000000500000000000000050000000b2
:104e600000000000500000000000000050000000a2
:104e70000000000050000000000000005000000092
:104e80000000000050000000000000005000000082
:104e90000000000050000000000000005000000072
:104ea0000000000050000000000000005000000062
:104eb0000000000050000000000000005000000052
:104ec0000000000050000000000000005000000042
:104ed0000000000050000000000000005000000032
:104ee0000000000050000000000000005000000022
:104ef0000000000050000000000000005000000012
:104f00000000000050000000000000005000000001
:104f100000000000500000000000000050000000f1
:104f200000000000500000000000000050000000e1
:104f300000000000500000000000000050000000d1
:104f400000000000500000000000000050000000c1
:104f500000000000500000000000000050000000b1
:104f600000000000500000000000000050000000a1
:104f70000000000050000000000000005000000091
:104f80000000000050000000000000005000000081
:104f90000000000050000000000000005000000071
:104fa0000000000050000000000000005000000061
:104fb0000000000050000000000000005000000051
:104fc0000000000050000000000000005000000041
:104fd0000000000050000000000000005000000031
:104fe0000000000050000000000000005000000021
:104ff0000000000050000000000000005000000011
:105000000000000050000000000000005000000000
:1050100000000000500000000000000050000000f0
:1050200000000000500000000000000050000000e0
:1050300000000000500000000000000050000000d0
:1050400000000000500000000000000050000000c0
:1050500000000000500000000000000050000000b0
:1050600000000000500000000000000050000000a0
:105070000000000050000000000000005000000090
:105080000000000050000000000000005000000080
:105090000000000050000000000000005000000070
:1050a0000000000050000000000000005000000060
:1050b0000000000050000000000000005000000050
:1050c0000000000050000000000000005000000040
:1050d0000000000050000000000000005000000030
:1050e0000000000050000000000000005000000020
:1050f0000000000050000000000000005000000010
:1051000000000000500000000000000050000000ff
:1051100000000000500000000000000050000000ef
:1051200000000000500000000000000050000000df
:1051300000000000500000000000000050000000cf
:1051400000000000500000000000000050000000bf
:1051500000000000500000000000000050000000af
:10516000000000005000000000000000500000009f
:10517000000000005000000000000000500000008f
:10518000000000005000000000000000500000007f
:10519000000000005000000000000000500000006f
:1051a000000000005a000000000000005a0000004b
:1051b000000000005a000000000000005a0000003b
:1051c000000000005a000000000000005a0000002b
:1051d000000000005a000000000000005a0000001b
:1051e000000000005a000000000000005a0000000b
:1051f000000000005a000000000000005a000000fb
:10520000000000005a000000000000005a000000ea
:10521000000000005a000000000000005a000000da
:10522000000000005a000000000000005a000000ca
:10523000000000005a000000000000005a000000ba
:10524000000000005a000000000000005a000000aa
:10525000000000005a000000000000005a0000009a
:10526000000000005a000000000000005a0000008a
:10527000000000005a000000000000005a0000007a
:10528000000000005a000000000000005a0000006a
:10529000000000005a000000000000005a0000005a
:1052a000000000005a000000000000005a0000004a
:1052b000000000005a000000000000005a0000003a
:1052c000000000005a000000000000005a0000002a
:1052d000000000005a000000000000005a0000001a
:1052e000000000005a000000000000005a0000000a
:1052f000000000005a000000000000005a000000fa
:10530000000000005a000000000000005a000000e9
:10531000000000005a000000000000005a000000d9
:10532000000000005a000000000000005a000000c9
:10533000000000005a000000000000005a000000b9
:10534000000000005a000000000000005a000000a9
:10535000000000005a000000000000005a00000099
:10536000000000005a000000000000005a00000089
:10537000000000005a000000000000005a00000079
:10538000000000005a000000000000005a00000069
:10539000000000005a000000000000005a00000059
:1053a000000000005a000000000000005a00000049
:1053b000000000005a000000000000005a00000039
:1053c000000000005a000000000000005a00000029
:1053d000000000005a000000000000005a00000019
:1053e000000000005a000000000000005a00000009
:1053f000000000005a000000000000005a000000f9
:10540000000000005a000000000000005a000000e8
:10541000000000005a000000000000005a000000d8
:10542000000000005a000000000000005a000000c8
:10543000000000005a000000000000005a000000b8
:10544000000000005a000000000000005a000000a8
:10545000000000005a000000000000005a00000098
:10546000000000005a000000000000005a00000088
:10547000000000005a000000000000005a00000078
:10548000000000005a000000000000005a00000068
:10549000000000005a000000000000005a00000058
:1054a000000000005a000000000000005a00000048
:1054b000000000005a000000000000005a00000038
:1054c000000000005a000000000000005a00000028
:1054d000000000005a000000000000005a00000018
:1054e000000000005a000000000000005a00000008
:1054f000000000005a000000000000005a000000f8
:10550000000000005a000000000000005a000000e7
:10551000000000005a000000000000005a000000d7
:10552000000000005a000000000000005a000000c7
:10553000000000005a000000000000005a000000b7
:10554000000000005a000000000000005a000000a7
:10555000000000005a000000000000005a00000097
:10556000000000005a000000000000005a00000087
:10557000000000005a000000000000005a00000077
:10558000000000005a000000000000005a00000067
:10559000000000005a000000000000005a00000057
:1055a000000000005a000000000000005a00000047
:1055b000000000005a000000000000005a00000037
:1055c000000000005a000000000000005a00000027
:1055d000000000005a000000000000005a00000017
:1055e000000000005a000000000000005a00000007
:1055f000000000005a000000000000005a000000f7
:10560000000000005a000000000000005a000000e6
:10561000000000005a000000000000005a000000d6
:10562000000000005a000000000000005a000000c6
:10563000000000005a000000000000005a000000b6
:10564000000000005a000000000000005a000000a6
:10565000000000005a000000000000005a00000096
:10566000000000005a000000000000005a00000086
:10567000000000005a000000000000005a00000076
:10568000000000005a000000000000005a00000066
:10569000000000005a000000000000005a00000056
:1056a000000000005a000000000000005a00000046
:1056b000000000005a000000000000005a00000036
:1056c000000000005a000000000000005a00000026
:1056d000000000005a000000000000005a00000016
:1056e000000000005a000000000000005a00000006
:1056f000000000005a000000000000005a000000f6
:10570000000000005a000000000000005a000000e5
:10571000000000005a000000000000005a000000d5
:10572000000000005a000000000000005a000000c5
:10573000000000005a000000000000005a000000b5
:10574000000000005a000000000000005a000000a5
:10575000000000005a000000000000005a00000095
:10576000000000005a000000000000005a00000085
:10577000000000005a000000000000005a00000075
:10578000000000005a000000000000005a00000065
:10579000000000005a000000000000005a00000055
:1057a000000000005a000000000000005a00000045
:1057b000000000005a000000000000005a00000035
:1057c000000000005a000000000000005a00000025
:1057d000000000005a000000000000005a00000015
:1057e000000000005a000000000000005a00000005
:1057f000000000005a000000000000005a000000f5
:10580000000000005a000000000000005a000000e4
:10581000000000005a000000000000005a000000d4
:10582000000000005a000000000000005a000000c4
:10583000000000005a000000000000005a000000b4
:10584000000000005a000000000000005a000000a4
:10585000000000005a000000000000005a00000094
:10586000000000005a000000000000005a00000084
:10587000000000005a000000000000005a00000074
:10588000000000005a000000000000005a00000064
:10589000000000005a000000000000005a00000054
:1058a000000000005a000000000000005a00000044
:1058b000000000005a000000000000005a00000034
:1058c000000000005a000000000000005a00000024
:1058d000000000005a000000000000005a00000014
:1058e000000000005a000000000000005a00000004
:1058f000000000005a000000000000005a000000f4
:10590000000000005a000000000000005a000000e3
:10591000000000005a000000000000005a000000d3
:10592000000000005a000000000000005a000000c3
:10593000000000005a000000000000005a000000b3
:10594000000000005a000000000000005a000000a3
:10595000000000005a000000000000005a00000093
:10596000000000005a000000000000005a00000083
:105970000000000050000000000000005000000087
:105980000000000050000000000000005000000077
:105990000000000050000000000000005000000067
:1059a0000000000050000000000000005000000057
:1059b0000000000050000000000000005000000047
:1059c0000000000050000000000000005000000037
:1059d0000000000050000000000000005000000027
:1059e0000000000050000000000000005000000017
:1059f0000000000050000000000000005000000007
:105a000000000000500000000000000050000000f6
:105a100000000000500000000000000050000000e6
:105a200000000000500000000000000050000000d6
:105a300000000000500000000000000050000000c6
:105a400000000000500000000000000050000000b6
:105a500000000000500000000000000050000000a6
