:020000040000fa
:080000000002040000000000f2
:020000040000fa
:10040000cfb420000e7f22000e0188000000000003
:1004100000012000200288000c00070020d42100e9
:100420000100200011000700000020000000e00093
:100430000200320000000200000000009a200200ca
:10044000000000000040da000000fe004440a90067
:10045000200120000000e000030032000000200026
:10046000a00188004440a800000006009101880017
:10047000800078000000eb0015003700e2804000ab
:1004800032a0b4009101ba00e280400032a0b40072
:100490009102ba00e280400032a0b4000002eb00fa
:1004a000472bde00f507b200602ce10004003a00a3
:1004b0000059eb008301e900fdff3e000400370016
:1004c0006128e100010032000082eb000400070017
:1004d0001101ba000200e000e8ff3a000000060047
:1004e0003159ba008301e9000c0032002159ba00e9
:1004f0008301e900080032000400e00003003a0034
:10050000e280400032a0b400f5ff370011d9ba00f4
:100510008301e900faff3a008100e800e180400031
:1005200032a0b400000006007423040000000000a4
:10053000ca020400000000003600f800809fbe00e0
:10054000829fbe00849fbe00869fbe000000fa000e
:1005500087a0a900a42c200004007800e30907006c
:1005600000027800e00f520003003a000002eb00a6
:10057000945788000602a8000080fa004f03be00ce
:100580004f02be004f01be004f00be003600f90012
:10059000004006000200fa008620a90045108000f5
:1005a0000400280004826200e00f52000f003a00ad
:1005b000451080000440200004826200e00f5200d9
:1005c0000a003a00451080000408200004826200fe
:1005d000e00f520005003a0045108000040420009e
:1005e00004826200e00f520002003200220a07007b
:1005f000a2003700945780000500200076002000fc
:1006000007002000860f5200878f5a0098003e0096
:1006100004600100070037000f00370013003700a7
:10062000160037001d003700230037003800370060
:100630003c003700a4d02800144278008482fb00dc
:10064000e40f2000048262001410880014002000cf
:100650009457880088003700340020001410880068
:100660002400200094578800830037000622a80049
:1006700034002000945788007f003700a4d0280061
:10068000144278000404a0000482fb0014108800c7
:1006900044002000945788007700370008c2a90062
:1006a0000662a8000002eb00b45788005400200046
:1006b0009457880070003700b657800004108000ff
:1006c0000442780085b0200085024300844a780007
:1006d000b45780000402e800b4578800b457800083
:1006e000e50f520005003e0006a2a9000682a80000
:1006f00064002000945788005f00370006a2a8001d
:100700000682a80074002000945788005a00370021
:1007100008c2a9000662a80054002000945788006f
:1007200055003700d409070084b020001442780037
:100730001447980094b0200014427800044f7800c9
:100740001e0278000402ea00cfa2de00745888007e
:1007500085588800a4b020001442780014479800ff
:10076000b4b0200014427800044f78001e027800d4
:100770000402ea00cfa2de00b4588800c558880001
:10078000c4b020001442780014479800d4b0200070
:1007900014427800044f78001e027800cfa2de00d9
:1007a00094588800a5588800a4578000e00f520094
:1007b0000d003a007458800085588000e457880086
:1007c000f557880094588000a55880000458880088
:1007d00015588800b4588000c558800024588800f7
:1007e0003558880018003700e6578000f75780001a
:1007f00074588000855880000602420087824a00b3
:10080000e4578800f5578800065880001758800084
:1008100094588000a55880000602420087824a0052
:1008200004588800155888002658800037588000e2
:10083000b4588000c55880000602420087824a00f2
:100840002458880035588800c4578000d557800048
:1008500061024200e0824a00c4578800d5578800f0
:10086000a45780000402e800a45788000200370063
:100870008109070001003700000000000080fa0035
:10088000000006003600f800809fbe00829fbe0078
:10089000849fbe00869fbe000200fa008620a90049
:1008a0004410800070026200e00f52002700320006
:1008b0009620a9000002eb0004598800145980001a
:1008c00004427800614262000482fb00610262001f
:1008d0004422dd00b6048000f5fe2f00850263008f
:1008e00004827200b4048800245980000442780015
:1008f000614262000482fb00610262004522dd0069
:10090000a6048000f5fd2f008502630004827200ba
:10091000a4048800345980000442780061426200d7
:100920000482fb006102620004024200a60480000f
:10093000d5ff2f008502630004827200a4048800a2
:100940004459800054598800090037000459800038
:10095000040f78001e027800e00f520003003200fe
:100960001e027800040001000100370000000000b2
:100970000080fa004f03be004f02be004f01be00d0
:100980004f00be003600f900004006000000fa00eb
:100990008600a9000080fa0000400600849fbe0087
:1009a000869fbe000000fa008460a9008459800080
:1009b0009559800061024200e0824a008459880013
:1009c000955988008659800097598000a459800065
:1009d000b5598000840f5300858f5b0008003600f6
:1009e0000082eb008082eb00a4598800b559880092
:1009f000c4598000e00f5200010032008bc0a800f3
:100a00000080fa004f03be004f02be000040060007
:100a10003600f800809fbe00829fbe00849fbe000b
:100a2000869fbe000200fa008bc0a900c459800056
:100a3000040f78001e027800e00f5200020032001e
:100a40001e027800040001000080fa004f03be007f
:100a50004f02be004f01be004f00be003600f9003d
:100a600000400600849fbe000000fa00345a800057
:100a7000e00f5200160032000c003700455a80008b
:100a80000490200004824200144278000482fb009b
:100a900024118800445a80000402e800445a880067
:100aa000345a80000402e900345a8800345a800025
:100ab000e00f5200120032001511800004202000c7
:100ac00004826200e00f5200ecff32000c0037009d
:100ad000b4d12800144278000482fb00241188005d
:100ae00000000000b4d12800144278000482fb000a
:100af000241188009580a90014002000245a880041
:100b00008580a9000080fa004f02be000040060068
:100b10000040da000000fe004f89de00820178000c
:100b20003d0337006011b8004b03370007f827007a
:100b3000078361000638e10004003a00f70720004f
:100b4000878361008703710001003a0003f0a2006f
:100b5000889fbe008a9fbe008c9fbe00470ade00b1
:100b60000480a100c71ade000580a100070028004c
:100b70000785600087856100f70f20000720e100ee
:100b80009e0032000728e1009c0032000106780038
:100b90000400e000b4003200f70720008780600006
:100ba0000170a0000500e000c0003200f70720003f
:100bb000878161000370a000050652000f003a0013
:100bc0000b50e1000b0032000308e10002003a0084
:100bd0000200e1007e0032000204500083845800cd
:100be000040031000001fd008101fd008402fd00d0
:100bf0008a05fd006044b800210037000520e100af
:100c000005003d000001fd008101fd008402fd00a2
:100c10008a05fd00050652007a60e10005003500f6
:100c20000170a1004722dd00848070008a8070007e
:100c3000630037006044b800ef02660007ff2f0032
:100c4000070666000500e00006003400f08312008d
:100c50008714dd000511de00071bdd0006017100b1
:100c60008519de007060e100050035000904780098
:100c700082047800030178008001eb0070065600c2
:100c80000b50e10003003a0002004000838048005e
:100c90000400370060041400e0841c0002005800c7
:100ca000838058000188a300060032008100d10033
:100cb0000080d3008984d3000884d3000402e800b4
:100cc000270037000178a30025003a000100e0006a
:100cd000030032008186cf00698656000a00370083
:100ce0008c0020000000e00004003a0009007800b9
:100cf000880478000004eb00700252008086cf0068
:100d00000d0646000c06e9007060e10006003500a3
:100d10008000780009007800880478000004eb0067
:100d200070065600700252000c00e0000c00340007
:100d30008c08dd00f00316000703de0086807000db
:100d40000c00dd00074bde00060070008c4cdd005f
:100d50000743de00868474000c44dd000c02520060
:100d60006120e100200035006101600007002800db
:100d700087816400f7ff27008783640007037400fe
:100d80000300e0000600320082037300040032001a
:100d90000000e800e08048000188a3000e003a004f
:100da000f70f20000720e1004a003d000170a1007c
:100db0004722dd00810072008a8070000000be00c2
:100dc0004f06be004f05be004f04be0000000600e7
:100dd0006000b800faff37008100d1000080d30026
:100de0000402e800eeff3700040178008901740076
:100df0000c0207008a807000f1ff3700eb02070049
:100e0000070278000001fd008101fd00e7020700f4
:100e100087027800850372000778a300040032007f
:100e20000001fd008101fd00c2010700e4ff370061
:100e3000850362000768a300080032000b50e10040
:100e400003003200f0ff2f00f1ff2700dcff370026
:100e50000001fd008101fd00d9ff37000468a300f7
:100e6000d7ff3200faff3700f8ff270088836000c1
:100e70000b003a000000e00009003a008303640020
:100e800082837300020032000200be00ccff3700f4
:100e90000b50e100ceff3a000200be00c8ff370051
:100ea00014002000810064003eff3700f8ff270097
:100eb0008883610004003a000200e00002003a006a
:100ec0008c007800beff370015002000830164000d
:100ed00039ff370001f8270000002000810075006d
:100ee000b7ff37000383680007002800070363008b
:100ef000470ade000480a100c71ade000580a100b9
:100f0000f70f20000720e100420032000728e1002f
:100f100040003200889fbe008a9fbe008c1f780070
:100f2000f107b200f307b2000400e00064003200f1
:100f30000170a0000500e000680032000370a0000e
:100f400085054200eb07b1000204b8000302b800b7
:100f50008484440060854a00020ab8008484440006
:100f60000a854a00030ab80004054500040033005e
:100f70000804d0008984d2000a85d2008b05e900dc
:100f80006158e1003d0035000210200009016100b8
:100f90000308200089816100f7072000878364002f
:100fa00008867300c84cde00c853dd0087847400d7
:100fb0004855de000300e0000600320082037600a0
:100fc000040032008904e80060054d000a88a3008f
:100fd0000c003a00f70f20000758e10044003d00e4
:100fe0000a70a100c75ddd000a8575008a007300e4
:100ff000090078004f0678004f05be004f04be0080
:10100000000006000a05d1008984d3008b05e800a2
:10101000f0ff3700881f780006047800630207009d
:10102000070278000001fd008101fd005f0207005a
:1010300087027800850372000778a300050032005c
:101040000001fd008101fd003a0107004f04780016
:1010500000000600850372000748a3000300320069
:10106000f0ff2f00f1ff2700f8ff370000002000fd
:1010700001f8270088807000f4ff370088017800ad
:101080004848dd00808171004848de00c850dd001e
:1010900001007000c850de00060478000b017800e3
:1010a0006001070088807000d2ff37000500e00073
:1010b0000500320017002000100007009dff3700d8
:1010c00081037000f9ff3a00860078004f0678002f
:1010d0004f05be004f04be000000050083037100f1
:1010e000f9ff3200270020000400070094ff3700ba
:1010f00001f8270086807000f4ff3700889fbe004b
:101100000004eb006138e10016003a000100e00045
:1011100008003a00c800de004800dd00880020001a
:101120000100e00003003a00c800de004800dd00d6
:10113000680444008184cf00e98454000600340030
:101140008908dd00f08314008703de0087807000cb
:101150000900dd0009044400610214004f04be00d0
:10116000000006000300e00008003a00c811de009d
:101170004811dd00880020000300e00003003a0071
:10118000c811de004811dd00680444008384cf00ec
:10119000e9845400060034008919dd00f08314004e
:1011a0008713de00878171000911dd000904440006
:1011b000e1021400e9ff3700889fbe008a9fbe004d
:1011c0008c9fbe001b0020000202be000586680046
:1011d00006002800060666004709de00f20fb2008e
:1011e000820032000243e80080003200c729de009e
:1011f000f30fb2007d0032000343e8007b003200b1
:10120000f107b2000170a000f507b2000570a00060
:10121000c708dd004903de00868070004700dd005e
:10122000c72add004923de00868272004722dd00e6
:10123000030551000403500085835800030031006a
:1012400000004000818048000a05e9008c1f7800fa
:101250008a9fbe00040050008580580004024200ae
:1012600085824a0000004000818048000005eb00b4
:101270000004be006033b8000406be000d48e10063
:1012800056003100110009004dccd8000c01b80007
:101290000d02b8008481410060824a0082835300bd
:1012a00003045c0084845c0060055d000a00e000cb
:1012b00025003a00800578000d40e100490031002a
:1012c0008800780007007800110009004d88d800d8
:1012d0000c01b8000d02b8008481410060824a0010
:1012e0006003110083835b0004045c00e0845c0005
:1012f0000900e00021003a004f01be000300e000b9
:101300002b003200e3016000070673008c8171003e
:1013100001003200640070004200de004e5edd001d
:101320000c007000c258de0001e0a000e7000700da
:10133000cf017800818071004f06be004f05be00ce
:101340004f04be00000006008c8343000d044c00d7
:10135000e0844c0060054d000000e9000a00e00058
:10136000d4ff32008c8343000d044c00e0844c0019
:1013700060054d000000e900ceff37000c0343007c
:101380008d834b0060044c00e0844c000000e900b9
:101390000900e000d8ff32000c0343008d834b00ae
:1013a00060044c00e0844c000000e900d2ff3700ec
:1013b0004200de004e5edd000c007000c258de0010
:1013c00001e0a000cf0178000300e000daff320066
:1013d00060001000e0801800d7ff3700f0ff2f00fa
:1013e000aaff3700f0ff2f00b9ff37000404be004a
:1013f0006e010700870678000004fd008104fd00ef
:101400006a010700078366000678a3000300320024
:101410000960a7000800be002c0037000d78a3006b
:10142000020032000800be00280037000778a30041
:1014300026003a0001f0a10009f0a1000668a3000f
:1014400003003200f1ff2700f0ff2f00baff370042
:101450000d68a300030032000800be008c807000fd
:10146000b5ff37000768a30007003a000648a3004d
:1014700003003200f1ff2700f0ff2f00aeff37001e
:101480000d48a300030032006000b8008c8070009b
:10149000a9ff37000748a3000400320001f8270025
:1014a000000020008c807000a3ff37002a00070096
:1014b0000004fd008104fd000205780026000700fd
:1014c0000802be008a01780059ff37000160a000c1
:1014d00012022000525a880097ff37000100e000f6
:1014e000120032000500e00010003200889fbe00ac
:1014f0008a9fbe008c9fbe000006eb0001f8a3008f
:101500000300320060001000e08018000cf0a00022
:1015100005f8a3000300320060021200e0821a0006
:101520000cf0a2008005eb0041ff37006000b8001e
:10153000020005000478a300040032000578a3002f
:10154000030032000168a30001003a000200be005f
:101550000160a000000006004f0ade004709de001f
:10156000f107b200f20fb2000b003200f207b10037
:101570000170a000c708dd00c901de008380700093
:101580004700dd000400a600000006006000100017
:10159000e080180000000600810f700001003a0092
:1015a000000006008182cf000500e00010003e0030
:1015b0008082cf00ee8242007028e10004003900f2
:1015c00007003e00800078000000eb000e003700ae
:1015d000708312008600de000500dd000a0037007f
:1015e000708352008600dd000000eb00060037002b
:1015f000e28252008508dd00708312000603de00df
:10160000868070000500dd007507b0000501ea0066
:101610000400a6000000060060001000e080180032
:10162000000006000100e000260032006101110008
:101630007810e10023003c006022b8007010e10047
:101640000400350080027800010078008000eb0083
:10165000700151000200e000090034007003110025
:10166000062add00822ade008603dd008782720002
:101670000200de00860bdd00070070008208de003d
:1016800084817100f4ff270004826200848171006c
:1016900004002800848262006102600005f0a60058
:1016a0000000060004827100070032000000e8001c
:1016b000e0804800000006000002be006000b800a4
:1016c000efff37006000b8000000060081017000e5
:1016d000270032008002eb0001f8a3000300320073
:1016e00060001000e080180015002000f4072000c2
:1016f0000202420020003400f7032000870360004c
:1017000006042000000363000208200000016100bd
:101710004700de00c909dd0000807100c708de0057
:101720000600e00008003200870371000600320066
:101730001000b0000180b0000188a3000200320058
:10174000c108de000402e800f107b200f30f200038
:101750000320e10003003d004722dd00810072000c
:101760002900370001f827000000eb0026003700b1
:101770006000b80000000600680212007f20e1004f
:10178000020034006000b8001f0037006011b8008c
:101790007020e1000400350080017800010078002d
:1017a0008000eb00700252000400e00009003400e9
:1017b000f00312000719dd008419de000703dd00c5
:1017c000868171000400de00070bdd00060070005a
:1017d0008408de00f7ff270083836300870371001e
:1017e0000600280003036300070032000700e00042
:1017f00003003a00610160000281730002003200c0
:101800001000b0000180b0000500a6000000060036
:1018100001f0a00000000600881f78000304780093
:101820000300e00007003d0060001000e0801800a9
:1018300060011900e081190002003b0001f02d0059
:10184000030037000400070008f0a70001f0a00023
:101850004f04780000000600889fbe008a9fbe00eb
:1018600000827000040271000482710026003200c0
:101870000004be000200be006011b8006b09200029
:10188000950220000182cf000a0039000541b10015
:101890000082cf00070039000541b1000982cf0066
:1018a000040039000541b1000882cf000100390071
:1018b0000541b10005425200120032000a003b000f
:1018c00082817100610164008100d1000080d30039
:1018d0008984d3000884d3008b05e8000442e80023
:1018e000f7ff3a00070037000804440089844c00e1
:1018f00000004800818048008b05e9000442e900af
:10190000f9ff3a00030007004f05be004f04be0078
:101910000000060081002000618055000b003d00a2
:101920000b00200061fe2f000100e1001d003400cb
:1019300082817100610164008904d1000884d300b0
:101940000000e800faff3a00710020006100640026
:1019500003007000020060000900320061044400ce
:10196000e0844c000988a500050032008b05e800e2
:101970006808e10002003a008904d1000884d3001d
:10198000f20f20000258e10005003d00c75ddd00b8
:10199000f907b20089807500080078000000060091
:1019a0000bf827008b0078000000050027002000be
:1019b00001f0a70017002000470bde00f60fb20071
:1019c000040032000643e8000a0032004702b30078
:1019d0000000060001037800f607b200060370005d
:1019e00002003a000703b300000006008702b300bc
:1019f0000000060001037800f607b200060370003d
:101a0000020032000770a000000006000760a0007e
:041a100000000600cc
:020000040000fa
:0200000401f009
:04000c0078ff000079
:020000040000fa
:0200000401f009
:040010005eff00008f
:020000040000fa
:0200000401f009
:040014007fff00006a
:020000040000fa
:0200000401f009
:04001800eeff0000f7
:020000040000fa
:0200000401f009
:04001c00dfff000002
:020000040000fa
:1000080088050000880500008805000088050000b4
:1000180088050000880500008805000088050000a4
:10002800880500008805000088050000ce0400004f
:100038008805000088050000880500008805000084
:100048008805000088050000880500008805000074
:1000580032050000880500008805000088050000ba
:10006800c60400004204000088050000880500005e
:100078008805000088050000880500008805000044
:100088008805000088050000880500008805000034
:10009800880500009c020000880500008805000013
:1000a8008805000088050000880500008805000014
:1000b8008805000088050000880500008805000004
:1000c80088050000880500008805000088050000f4
:1000d80088050000880500008805000088050000e4
:1000e80088050000880500008805000088050000d4
:1000f80088050000880500008805000088050000c4
:1001080088050000880500008805000088050000b3
:100118008805000088050000080500008805000023
:100128008805000088050000880500008805000093
:100138008805000088050000880500008805000083
:100148008805000088050000880500008805000073
:100158008805000088050000880500008805000063
:100168008805000088050000880500008805000053
:100178008805000088050000880500008805000043
:100188008805000088050000880500008805000033
:100198008805000088050000880500008805000023
:1001a8008805000088050000880500008805000013
:1001b8008805000088050000880500008805000003
:1001c80088050000880500008805000088050000f3
:1001d80088050000880500008805000088050000e3
:1001e80088050000880500008805000088050000d3
:0801f8008805000088050000e5
:020000040000fa
:1002080088050000880500008805000088050000b2
:1002180088050000880500008805000088050000a2
:10022800880500008805000088050000ce0400004d
:100238008805000088050000880500008805000082
:100248008805000088050000880500008805000072
:1002580032050000880500008805000088050000b8
:10026800c60400004204000088050000880500005c
:100278008805000088050000880500008805000042
:100288008805000088050000880500008805000032
:10029800880500009c020000880500008805000011
:1002a8008805000088050000880500008805000012
:1002b8008805000088050000880500008805000002
:1002c80088050000880500008805000088050000f2
:1002d80088050000880500008805000088050000e2
:1002e80088050000880500008805000088050000d2
:1002f80088050000880500008805000088050000c2
:1003080088050000880500008805000088050000b1
:100318008805000088050000080500008805000021
:100328008805000088050000880500008805000091
:100338008805000088050000880500008805000081
:100348008805000088050000880500008805000071
:100358008805000088050000880500008805000061
:100368008805000088050000880500008805000051
:100378008805000088050000880500008805000041
:100388008805000088050000880500008805000031
:100398008805000088050000880500008805000021
:1003a8008805000088050000880500008805000011
:1003b8008805000088050000880500008805000001
:1003c80088050000880500008805000088050000f1
:1003d80088050000880500008805000088050000e1
:1003e80088050000880500008805000088050000d1
:0803f8008805000088050000e3
:020000040000fa
:101a14003c00000048610000b4c20000ec5100002a
:101a240014c200000ad70000f7c200004d000000f5
:041a340055aa0000af
:020000040000fa
:101a38000e00fa00008fbe002207980033079800b6
:101a48004407980055079800660798006e029000b2
:101a58003e1a78002e1278006e0290002e03900035
:101a6800be03900026029800370298006e0290008c
:101a78004e039000de03900046029800570298003b
:101a88006e029000040078000080fa000000060052
:101a98000400fa00889fbe00000f78001107980024
:101aa8001e0278001403be001e0290001402be003d
:101ab8000401be000600be0008fd07000002be00cb
:101ac8000404be001e02780024039000b4039000b2
:101ad8001e029000b4029000240290000401be008f
:101ae8000600be00fdfc07000002be000401be00a7
:101af8000800be0014fc07000002be000404be007b
:101b08001e02780044039000d40390001e02900047
:101b1800d4029000440290000401be000600be00fa
:101b2800eefc07000002be000401be000800be0073
:101b380005fc07000002be000400be004f04be0002
:101b48000080fa00000006001c00fa00889fbe0012
:101b58008a9fbe008c1f7800500f98000002eb008f
:101b6800040f78006e02470004007800d0000700d8
:101b780000027800040f78001e027800e00f52007f
:101b8800020032001e02780071003700bc02070014
:101b98000002be005e0b9000048bbe00c45780009c
:101ba800d557800061024200e0824a00c45788008d
:101bb800d5578800c4578000d55780005e0b900029
:101bc80024039800350398005e0a900068064200d6
:101bd8003e0a9000ce0a90000400be00ccfb07002d
:101be8000003be0044568000555680000401be0024
:101bf8000600be00b9fc07000002be000403be00d8
:101c0800a4688400b56884000401be000600be0014
:101c1800c4fb07000002be000405be001e0a9000b7
:101c2800ae0a90000400be00b9fb07000003be0026
:101c380044568000555680000401be000600be00d0
:101c4800a6fc07000002be000403be0084688400ee
:101c5800956884000401be000600be00b1fb0700c1
:101c68000002be000404be007e0290008e0a9000ae
:101c78000400be00a6fb07000003be004456800017
:101c8800555680000401be000600be0093fc070004
:101c98000002be000403be00646884007568840006
:101ca8000401be000600be009efb07000002be0045
:101cb8000400be000c0378000a02be000801be0042
:101cc8005bff07005e0a900068024200840078000b
:101cd800c0ac20006eff07000002be001407980089
:101ce800250798005e0a9000680242008400780088
:101cf80080ad200066ff07000002be003407980090
:101d0800450798005e0a9000680242008400780047
:101d180040ae20005eff07000002be005407980096
:101d2800650798005e0a9000680242000403780084
:101d38005e029000ee0290003e019000ce019000fd
:101d48001e009000ae00900039ff07000002eb0073
:101d5800040078004f0678004f05be004f04be000f
:101d68000080fa00000006000a00fa0040479800c8
:101d7800310798004207980034568000e00f52005f
:101d880002003a00e40020001d0037000002eb00ca
:101d9800140798000002eb00040f780001003700d8
:101da80000000000a4d0280014427800ce01900062
:101db8003e019000ce409000044078008e04070059
:101dc80000027800140798001e029000e00f5200ed
:101dd80003003200e20f5200030032000700370010
:101de8000002eb00060037001e0fe8001403200075
:101df8009e027800848f5200e9ff36001e02900090
:101e0800040078000080fa00000006000a00fa00ca
:101e180040479800310798004207980034568000e0
:101e2800e00f520002003a00e40020001d003700d5
:101e38000002eb00140798000002eb00040f780082
:101e48000100370000000000a4d0280014427800e8
:101e5800ce0190003e019000ce40900004407800f2
:101e68002105070000027800140798001e02900060
:101e7800e00f520003003200e20f5200030032006c
:101e8800070037000002eb00060037001e0fe800cd
:101e9800140320009e027800848f5200e9ff360068
:101ea8001e029000040078000080fa00000006007e
:101eb8000e00fa00600798000002eb00040f78009b
:101ec8000042eb00244798000e82e80004007800e6
:101ed8005008070000027800040f78001e027800fe
:101ee800e00f5200020032001e0278004400370062
:101ef8002e4290000482fb0061026200e00f520053
:101f080004003a002000200001002000fa01070028
:101f1800edff370066024700620020008400780069
:101f280030c0b30090ff070000027800040f78006b
:101f38001e027800e00f5200020032001e027800f4
:101f48002f0037006e429000544798007e42900060
:101f580044479800ae02900004802f00848f5200fe
:101f680002003d00f4002000250037002e029000fa
:101f78000402ea00cfa2de006e039000048bbe00cc
:101f88000e4a9000544798001e4a90004447980013
:101f9800ae02900004802f00848f520002003d00a2
:101fa800f4002000160037002e0290000402ea0018
:101fb800cfa2de006e0390004403980055039800fa
:101fc8002e4a9000544798003e4a90004447980093
:101fd800ae02900004802f00848f520002003d0062
:101fe800f4002000060037002e029000cfa2de0089
:101ff8006e03900024039800350398000002eb005c
:10200800040078000080fa00000006000e00fa00c4
:10201800008fbe00220798003307980044079800f5
:1020280055079800660798006e0290003e1a7800df
:102038002e1278006e0290002e039000be039000ce
:1020480026029800370298006e0290004e03900016
:10205800de03900046029800570298006e02900036
:10206800040078000080fa00000006000400fa006e
:10207800889fbe00000f7800110798001e027800a4
:102088001403be001e0290001402be000401be002c
:102098000600be0091fb07000002be000404be005b
:1020a8001e02780024039000b40390001e029000e2
:1020b800b4029000240290000401be000600be0095
:1020c80086fb07000002be000401be000800be0037
:1020d8009dfa07000002be000404be001e0278003c
:1020e80044039000d40390001e029000d402900094
:1020f800440290000401be000600be0077fb070002
:102108000002be000401be000800be008efa0700ef
:102118000002be000400be004f04be000080fa00aa
:10212800000006000000fa0034568000e00f52005c
:1021380002003a00e40020000b00370084578000ba
:10214800e10f520002003a000002eb0006003700df
:10215800140020008457880084a0a90020002000d3
:10216800490307000002eb00040078000080fa0031
:10217800000006000000fa0034568000e00f52000c
:1021880002003a00e40020000d0037008457800068
:10219800e00f520002003a000002eb00080037008e
:1021a800200020006603070084a0a9000002eb00bd
:1021b800845788000002eb00a45788000002eb0057
:1021c800040078000080fa00000006000200fa000f
:1021d800000f780084578000e00f520002003a0098
:1021e800d4002000030037001e00780027000700f5
:1021f80000027800040078000080fa000000060061
:102208000200fa00000f780084578000e00f5200a7
:1022180002003a00d400200008003700a4578000cc
:10222800e00f520002003a00c4002000030037000b
:102238001e007800150007000002780004007800ee
:102248000080fa00000006000200fa00000f780083
:1022580084578000e00f520002003a00d4002000aa
:102268000700370000000000a4578000e00f52006c
:10227800fdff32001e00780004000700000278000d
:10228800040078000080fa00000006002600fa002a
:10229800889fbe008a9fbe008c1f78002017980078
:1022a800140280004522de00674262000482fb00bf
:1022b800240798009402800034079800ff3ffc0030
:1022c80044ac200014427800674262000482fb009c
:1022d800670262004522dd0016028000f5f12f003a
:1022e8008502630004827200140288003e02900096
:1022f8009402880000008800c4578000d5578000e9
:102308002e1390002403980035039800e4578000aa
:10231800f5578000440f9800550f98000458800026
:1023280015588000640f9800750f98002458800095
:10233800355880000417980015179800a457800096
:10234800440798000002eb00a4578800940280001c
:1023580054079800ff3ffc002e02900004427800ca
:10236800674262000482fb00670262004522dd00ca
:1023780016028000f5f12f008502630004827200c6
:10238800140288005e029000940288000000880011
:102398004e029000e10f52000c0036004e029000f1
:1023a800050020000400be00dcf907000002be00a2
:1023b8000401be000000200001f823007cfb070098
:1023c8000002be00048fbe00030037000400200096
:1023d80005f82300048fbe002e1290006806420004
:1023e8000e1290009e1290000400be00c8f907006b
:1023f8000002be001e01be000400be00b7fa0700be
:102408000002be000403be004456800055568000fa
:102418000401be000600be00b0fa07000002be00bc
:102428000403be00a4688400b56884000401be00eb
:102438000600be00bbf907000002be000405be008e
:102448006e0a9000fe0a90000400be00b0f9070072
:102458000002be001e01be000400be009ffa070075
:102468000002be000403be0044568000555680009a
:102478000401be000600be0098fa07000002be0074
:102488000403be0084688400956884000401be00cb
:102498000600be00a3f907000002be000404be0047
:1024a8004e0a9000de0a90000400be0098f907006a
:1024b8000002be001e01be000400be0087fa07002d
:1024c8000002be000403be0044568000555680003a
:1024d8000401be000600be0080fa07000002be002c
:1024e8000403be0064688400756884000401be00ab
:1024f8000600be008bf907000002be000400be0003
:102508000c0378000a02be000801be00bffe0700e7
:102518002e1290006802420084007800c0ac2000af
:10252800d2fe07000002be006407980075079800f5
:102538002e129000680242008400780080ad2000ce
:10254800cafe07000002be00040f9800150f98008d
:102558002e129000680242008400780040ae2000ed
:10256800c2fe07000002be00240f9800350f980035
:102578002e12900068024200040378002e0a900090
:10258800be0a90000e0990009e0990006e0090000f
:10259800fe0090009dfe0700390007000002be0003
:1025a8002e139000048bbe000002eb00040078009c
:1025b8004f0678004f05be004f04be000080fa00a9
:1025c800000006000a00fa00140280004522de001e
:1025d80067426200044f7800940280001407980054
:1025e800ff3ffc00e4b2200014427800674262001a
:1025f8000482fb00670262004522dd0016028000ab
:10260800f5f12f008502630004827200140288002d
:102618001e029000940288000000880084598000ff
:102628009559800024079800350798009502800086
:1026380045079800ff3ffc001e4278006742620091
:102648000482fb00670262004522dd00160280005a
:10265800f5f12f00850263000482720014028800dd
:102668004e02900094028800000088002e0290001c
:10267800be0290000400be000080fa0000000600c0
:102688000400fa00a4088000040f7800b408800051
:10269800140798001e02be000400be000080fa0065
:1026a800000006000000fa00c6ff07000002be0096
:1026b80064024200e0824a004d2bdd004322de0026
:1026c80004027300c32ade000400be000080fa0082
:1026d800000006000400fa00008fbe001e00be00c5
:1026e8000e0007000002be000400be003000070014
:1026f8000080fa00000006000400fa00008fbe0007
:102708001e00be00130007000002be000400be0049
:10271800270007000080fa00000006000400fa0005
:10272800008fbe00a7ff07000003be001e00be000a
:10273800430add00cd02de00850272004302dd009f
:102748000602420087824a000400be000080fa00a8
:10275800000006000400fa00008fbe0099ff070081
:102768000002be003e034200ae834a000602be00dd
:102778000400be000080fa00000006000400fa0011
:10278800008fbe008fff07000002be00be0f520080
:10279800ae8f5a00020031001400200001003700fb
:1027a8000002eb00040078000080fa000000060038
:1027b8000400fa00008fbe000000000081ff07003f
:1027c8000002be00be0f5200ae8f5a00fbff390058
:1027d8000080fa00000006000c00fa00300798009c
:1027e8004107980052079800140280004522de0035
:1027f80067426200044f7800940280001407980032
:10280800ff3ffc00e4b220001442780067426200f7
:102818000482fb00670262004522dd001602800088
:10282800f5f12f008502630004827200140288000b
:102838001e02900094028800000088008bc0a90046
:102848009bc0a8005e029000c45988003e02900018
:10285800ce029000432bdd00cd23de0087037300fa
:102868004323dd0084598000955980000602420008
:1028780087824a00a4598800b559880094028000cc
:1028880024079800ff3ffc001e4278006742620060
:102898000482fb00670262004522dd001602800008
:1028a800f5f12f008502630004827200140288008b
:1028b8002e02900094028800000088000080fa0030
:1028c800000006000600fa00140280004522de001f
:1028d80067426200044f7800940280001407980051
:1028e800ff3ffc00e4b22000144278006742620017
:1028f8000482fb00670262004522dd0016028000a8
:10290800f5f12f008502630004827200140288002a
:102918001e02900094028800000088009bc0a90055
:102928008bc0a9000082eb008082eb00a4598800cc
:10293800b55988000002eb00c45988009402800051
:1029480024079800ff3ffc001e427800674262009f
:102958000482fb00670262004522dd001602800047
:10296800f5f12f00850263000482720014028800ca
:102978002e02900094028800000088000080fa006f
:10298800000006000000fa00d082a800753480001c
:10299800f40f2e0084826200044021000482720039
:1029a800743488000080fa00000006000600fa006f
:1029b8002047980031479800424798007f07070052
:1029c80000427800044f78001e427800e04f520021
:1029d80002003a00640020002400370034568000ca
:1029e800e00f5200020032000002eb001f00370027
:1029f80014002000345688001e407800c4eab7004e
:102a08000002eb00340a88007327a900ddff0700e5
:102a180094a0a90084a0a90044ac20001442780026
:102a2800674262000482fb00670262004422dd0004
:102a380036058000f5f82f008502630004827200d5
:102a480034058800340a80000400a0000410a000a7
:102a58000420a100340a88004e419000be40900036
:102a68002e4090000400070000027800040078005f
:102a78000080fa00000006001600fa0020579800af
:102a8800315798004257980034568000e00f5200a2
:102a980002003a00e40020008f00370084578000cd
:102aa800e00f520002003200b40020008a00370014
:102ab8002e52900067426200245798002e529000d0
:102ac800e64f52000200360064c0b3002457980055
:102ad8002e529000250020000522dd002457980082
:102ae8003e52900067426200345798004e52900060
:102af80063426200445798004e52900055002000ef
:102b08000522dd00445798003e5290000482fb00e5
:102b1800cfa2de007600200007002000860f5200ba
:102b2800878f5a0030003e0004600100070037001c
:102b38000b0037000f00370013003700170037006d
:102b48001b0037001f00370023003700f4c72d0093
:102b5800a5f32300445688005556880027003700ff
:102b680024cc2d00a5f6230044568800555688002d
:102b780022003700848f2100c5f9230044568800bd
:102b8800555688001d00370004082f0015fc230047
:102b9800445688005556880018003700c445270059
:102ba8001501240044568800555688001300370044
:102bb80034a4210045022400445688005556880054
:102bc8000e003700c4072f0015042400445688005f
:102bd800555688000900370044162200b50824001d
:102be8004456880055568800f4c72d00a5f32300e5
:102bf8004456880055568800000000000002eb008b
:102c080014079800ae5290004e52900004c2720011
:102c1800444798003e529000550020000522dd00f0
:102c2800544798004e4090002205070000027800a3
:102c3800140798001e029000e00f520002003200b4
:102c48001e029000240037005e4090002d0507000a
:102c580000027800140798001e029000e00f52004e
:102c6800020032001e0290001b0037000040eb00fb
:102c7800fc04070000027800140798001e02900068
:102c8800e00f5200020032001e02900012003700ce
:102c98000002eb00040f78000b00370066024700c3
:102ca8000400780082fc07000002780014079800ee
:102cb8001e029000e00f5200020032001e02900037
:102cc800050037001e0fe8001e027800ef0f5200c3
:102cd800f2ff34000002eb00040078000080fa00e4
:102ce800000006000a00fa0040079800e458800037
:102cf800e00f520002003a0064002000590037003b
:102d08000002eb00040f7800140280004522de0068
:102d180067426200244798009402800024079800c4
:102d2800ff3ffc00a4b12000144278006742620013
:102d38000482fb00670262004522dd001602800063
:102d4800f5f12f00850263000482720014028800e6
:102d58002e02900094028800000088000459800028
:102d6800e00f52000300320094002000040f7800a6
:102d78002b003700f4588000e00f520003003200a7
:102d880084002000040f78002500370034108000ec
:102d980061026200e00f520015003a003410800012
:102da80064026200e00f520011003a003410800003
:102db80068026200e00f52000d003a0034108000f3
:102dc80062026200e00f520009003a0034108000ed
:102dd80070026200e00f520005003a0045108000c2
:102de8000400240004826200e00f52000300320055
:102df800a4002000040f7800090037008620a900ed
:102e08004e029000045988009620a8009680a900d8
:102e180094a0a9009420a9000002eb00545988004e
:102e28009402800034079800ff3ffc002e42900077
:102e3800674262000482fb00670262004522dd00ef
:102e480016028000f5f12f008502630004827200eb
:102e5800140288003e029000940288000000880056
:102e68001e027800040078000080fa0000000600c6
:102e78000000fa000002eb00441088000642a80097
:102e88000080fa00000006000200fa00000f780037
:102e98001e0278006123b8000082eb008082eb00fc
:102ea8000602420087824a00360020000700200000
:102eb800860f5200878f5a001f003e0004600100f1
:102ec80003003700090037000f00370015003700ee
:102ed8009680a800b40480004422de0061426200ab
:102ee8000482fb00145988001300370094a0a8003e
:102ef800a40480004522de00614262000482fb00d7
:102f0800245988000c0037009420a800a4048000ed
:102f18000402d100614262000482fb003459880037
:102f280005003700140020005459880054598000c7
:102f380044598800000000000080fa0000000600e4
:102f48000200fa00000f78001e0278006123b80022
:102f58000082eb008082eb000602420087824a0072
:102f68003600200007002000860f5200878f5a0085
:102f78001f003e000460010003003700090037000d
:102f88000f003700150037009680a900b4048000b0
:102f98004422de00614262000482fb00145988006a
:102fa8001300370094a0a900a40480004522de0085
:102fb800614262000482fb00245988000c0037003b
:102fc8009420a900a40480000402d1006142620098
:102fd8000482fb0034598800050037000002eb002a
:102fe8005459880054598000445988000000000052
:102ff8000080fa00000006001600fa00005798004a
:1030080011579800120f9800230f9800e458800079
:10301800e00f520002003a0064002000af003700c1
:103028000002eb00140798000002eb00040f780080
:10303800140280004522de0067426200044f9800b7
:103048009402800054079800ff3ffc00a4b12000c0
:1030580014427800674262000482fb006702620043
:103068004522dd0016028000f5f12f00850263007d
:1030780004827200140288005e02900094028800a4
:103088000000880004598000e00f5200030032005d
:1030980094002000040f780024003700f4588000c2
:1030a800e00f52000300320084002000040f780073
:1030b8001e0037003410800061026200e00f5200e9
:1030c80015003a003410800064026200e00f5200dc
:1030d80011003a003410800068026200e00f5200cc
:1030e8000d003a003410800062026200e00f5200c6
:1030f80009003a003410800070026200e00f5200ac
:1031080005003a0045108000040024000482620093
:10311800e00f520003003200a4002000040f7800e2
:103128000200370014002000f45888009402800040
:1031380064079800ff3ffc000e4a90006742620057
:103148000482fb00670262004522dd00160280004f
:10315800f5f12f00850263000482720014028800d2
:103168006e02900094028800000088001e02780019
:10317800e00f52000400320068025200e20f5200d1
:103188001e003e00120037008e529000e4cfb300bc
:1031980004c26200644f98000e5290000404a0001c
:1031a800744f98000002eb00040f7800d402070067
:1031b8006e489000e102070000027800040f7800d2
:1031c8001e027800e00f520039003a000d00370067
:1031d8009e02900014032000848f520007003e00d6
:1031e800100020000100200043fd07001e0290008f
:1031f8000402e800140798008bff37001e027800cd
:10320800360037001e509000cc02070000027800fc
:10321800040f78001e027800e00f520026003a00e2
:10322800bc0207007e489000c40207000002780034
:10323800040f78001e027800e00f520020003a00c8
:1032480008c2a9002e0a9000340798000002eb007b
:1032580024079800110037003e0290000402e9009c
:1032680034079800be0090001e089000d70207009f
:1032780000027800040f78001e027800e00f520068
:1032880011003a001e0a90000402e800140f98008a
:103298002e0290000402e80024079800ae02900075
:1032a8002e0a9000848f5200ebff39000700370088
:1032b8000000000005003700000000000300370090
:1032c800000000000100370000000000960207001f
:1032d8000002eb00f45888001e0278000400780011
:1032e8000080fa00000006001400fa00604f980001
:1032f800714f9800020f9800130f9800e45880004f
:10330800e00f520002003a00640020009f003700de
:103318000002eb00140798000002eb00040f78008d
:10332800140280004522de00674262000482fb002e
:10333800340798009402800044079800ff3ffc007f
:10334800a4b1200014427800674262000482fb00a6
:10335800670262004522dd0016028000f5f12f00a9
:103368008502630004827200140288004e029000f5
:10337800940288000000880004598000e00f520081
:103388000300320094002000040f78002400370066
:10339800f4588000e00f520003003200840020003f
:1033a800040f78001e0037003410800061026200ac
:1033b800e00f520015003a003410800064026200e9
:1033c800e00f520011003a003410800068026200d9
:1033d800e00f52000d003a003410800062026200d3
:1033e800e00f520009003a003410800070026200b9
:1033f800e00f520005003a00451080000400240048
:1034080004826200e00f520003003200a400200092
:10341800040f78000200370014002000f4588800d8
:103428009402800054079800ff3ffc003e02900081
:1034380004427800674262000482fb00670262006f
:103448004522dd0016028000f5f12f008502630099
:1034580004827200140288005e02900094028800c0
:10346800000088001e027800e00f520004003200bd
:1034780068025200e20f52001b003e000f003700a6
:10348800ee4a9000e4cfb30004c26200444f9800b3
:103498000002eb00040f7800190207004e48900064
:1034a8002602070000027800040f78001e02780048
:1034b800e00f52002c003a000d0037009e029000e9
:1034c80014032000848f520007003e0010002000e3
:1034d8000100200088fc07001e0290000402e8009a
:1034e800140798008cff37001e0278002700370069
:1034f8007e4890001102070000027800040f78004f
:103508001e027800e00f520019003a000002eb009a
:10351800240798000f0037000e0a90001442780024
:10352800044078000502070000027800040f7800c4
:103538001e027800e00f52000f003a000e0a9000b9
:103548000402e800040f98002e0290000402e8002c
:1035580024079800ae0290001e0a9000848f520043
:10356800edff3900050037000000000003003700b8
:10357800000000000100370000000000ea01070019
:103588000002eb00f45888001e027800040078005e
:103598000080fa00000006000000fa002cc3a80012
:1035a8002ce3a800d022a90085368000f40f2e0055
:1035b800848262000430200004827200843688000d
:1035c800d002a80025358000f40f2e008482620006
:1035d800040021000482720024358800243580000c
:1035e800f401b300243588000080fa0000000600ca
:1035f8000400fa00000f7800110798001e027800f6
:10360800e00f520002003a0014002000040f780076
:103618001e027800e70f52000200360074002000f6
:10362800040f78001e0278000442780004407800f5
:1036380042ebb7000002eb000411880070a7a90054
:10364800d5ff0700041180000480a1000490a000a9
:10365800041188000002eb001411880023e2a8007e
:1036680023a2a9001e029000f80f52004100320068
:10367800f80f520010003e00e40f520049003200db
:10368800e40f520005003e00e20f52004b003200ea
:10369800e30f5200460032004b003700e80f52009b
:1036a8003a003200f00f520035003200e60f5200a7
:1036b8003900320044003700a50f2000850f520062
:1036c80020003200a50f2000850f52000a003e009e
:1036d80045062000850f520020003200850c20008e
:1036e800850f52001a00320005032000850f520092
:1036f8001d00320034003700451f2000850f52009e
:103708000a003200853e2000850f52000400320076
:10371800e5152000850f5200070032002a00370007
:103728000002eb00441188002a0037001400200032
:103738004411880027003700240020004411880025
:10374800240037003400200044118800210037008d
:1037580044002000441188001e0037009400200017
:10376800441188001b0037005401200044118800d0
:1037780018003700a4022000441188001500370003
:1037880004042000441188001200370014082000a7
:10379800441188000f003700d40a20004411880023
:1037a8000c0037003410200044118800090037004d
:1037b800a41520004411880006003700842020004a
:1037c8004411880003003700144120004411880088
:1037d800000000009580a9009560a9008580a900d7
:1037e8008560a90024b42000144278006742620072
:1037f8000482fb00670262005605800085ff2f00e7
:103808008502630004827200540588004405800024
:1038180004c0a10004d0a10004e0a1004405880070
:1038280021e2a800000000002342a8000080fa005e
:10383800000006000e00fa00500798006107980083
:10384800f4598000e00f520001003200c302070063
:10385800d4598000e00f520001003a00c903070064
:103868008b0207006e029000e00f520080003200c9
:103878000002eb00040f78000002eb001407980028
:103888000002eb00240798000002eb00040f780008
:10389800630037001e027800de02900004824200b6
:1038a800144278000402fb00140798009e0290005e
:1038b80004022000848f52000b003a002e02900070
:1038c800e00f5200500034002e0290000402e9007c
:1038d800840242000480200004824200053820004f
:1038e800050a78004d0037001e0290001404b1004c
:1038f800140798001e029000f90f520003003400cc
:103908001e0290000402b100140798001e029000e5
:10391800e00f52003e0035001e029000f90f5200e1
:103928003d003c001e0290008402420004a92000d1
:103938000482420094027800450798004e029000e5
:103948001402780004024200840278002e029000db
:103958008482420004082000848f520035003e0013
:103968000002eb00340798001a003700ce029000de
:103978003e0290000482e80065427a000482fb005f
:10398800c722dd002e0290000403420004802000bc
:1039980004024300050a78002e0290000402e800a1
:1039a800240798002e029000840242000480200020
:1039b8000482420005082000050a78002e029000c3
:1039c8000402e800240798003e0290000402e80080
:1039d80034079800be0290004e029000140278004e
:1039e800848f5200e1ff39002e0290000402e900a2
:1039f800840242000480200004824200051820004e
:103a0800050a7800050037000000000003003700b1
:103a18000000000001003700000000001e0fe80051
:103a28009e0278006e029000848f520099ff390040
:103a380001003700000000002e0290000402e90097
:103a480084024200048020000482420005382000dd
:103a5800050a78002e029000f459880042372200a7
:103a68006000b8005cfb07000000000001003700a0
:0c3a7800000000000080fa0000000600c2
:020000040000fa
:103a84003a0b0000080000000200000000000100e2
:103a94000000000000000000000800000001000019
:103aa40000000000000a0000c40000000200000042
:103ab40002000100030400000301010001040000ee
:103ac40003010300010300000301010000010000e1
:103ad40001000400000101000301030000030300ce
:103ae40001000400000101000101020000010100c5
:103af40004000100030303000300030001030000aa
:103b0400040001000301010002000300030200009d
:103b14000301030000030300030004000001030089
:103b24000301040000030300010303000001030078
:103b34000100030000010100010001000003000076
:103b4400030001000103000004000100010103005f
:103b5400030001000303000004000300010103004b
:103b64000400030001030300040003000301010037
:103b7400000a04000a0a0a00100a16000a1a0a00b7
:103b8400200a26000a2c0a00300a36000a3c0a00e1
:103b9400420a46000a4a0a00500a56000a5c0a0011
:103ba400620a68000a6c0a00720a78000a7e0a0037
:103bb400840a8a000a000000c40a000034000000dd
:103bc4000200000000000000007fdc003a3f00001b
:103bd40000803f009947fe003a1ee100343d990001
:103be40047fe3a00000080003f6f9e00ea3b1e0043
:103bf400e1343d006f9eea003bd0f200a03f00009c
:103c0400000000000000000000000000f80a0000ae
:103c140022000000000000001a0b00001200000047
:103c2400020000000000000000000000000000008e
:103c34000000000000000000000000002c0b000049
:103c44000e0000000200000000000200000000005e
:103c54000000ff00ffffff0000000000420b000017
:103c64000800000002000000040001000000000041
:103c74000000000000090000000100000000000036
:103c84004a0b0000020000000000000000000000d9
:020000040000fa
:103c94000000fa000000000034108000610262009d
:103ca400e00f5200fcff3a0034108000640262000e
:103cb400e00f5200f8ff3a003410800068026200fe
:103cc400e00f5200f4ff3a003410800062026200f8
:103cd400e00f5200f0ff3a003410800070026200de
:103ce400e00f5200ecff3a0045108000040024006d
:103cf40004826200e00f5200e7ff3a000080fa00fd
:103d0400000006000000fa00e1ff07000602a80018
:103d14000080fa00000006000000fa00dcff070043
:103d24000622a8000080fa00000006000000fa0045
:103d3400d7ff07000642a8000080fa000000060032
:103d44000200fa00004f7800d1ff070000000000d5
:103d54004410800061026200e00f5200fcff3a0050
:103d64009e4278000582fb001410880045108000f4
:103d74000408200004826200e00f520002003200b6
:103d8400140020000f0037000000000045108000e0
:103d94000400240004826200e00f5200fbff3a009a
:103da400bbff070045108000040028000482620065
:103db400e00f52000200320024002000010037000e
:103dc4000002eb00040078000080fa000000060006
:103dd4000400fa00000f780011079800acff0700f8
:103de4000662a8000000000034108000680262002f
:103df400e00f5200fcff3a0045108000040420004c
:103e040004826200e00f52000300320008c2a900dd
:103e1400440020001300370000000000441080001c
:103e240062026200e00f5200fcff320004108000c6
:103e3400044278009e027800844a78001e029000b2
:103e4400e00f520003003a0006a2a8000682a80070
:103e54000200370006a2a9000682a8008cff070012
:103e64000002eb00040078000080fa000000060065
:103e74000000fa00e4b22000144278000482fb003f
:103e840004007800020007000080fa000000060029
:103e94000200fa00000f780064598000e00f52001d
:103ea4004a003a0014002000645988001e02780079
:103eb400e00f520002003a0014002000040f7800c2
:103ec4001e027800e70f5200020036007400200042
:103ed400040f78001e027800044278000440780041
:103ee4002eebb7000002eb00f40888000002eb00a0
:103ef4000409880071c7a90071e7a9000002eb005a
:103f0400a40888000002eb00c40888000082eb00cb
:103f1400d40888000082eb00e40888001e61a80031
:103f2400f40880000440a0000450a100f4088800b4
:103f34008780a9009780a9001fe1a8000002eb0078
:103f4400240888007167a900240880000440a100a7
:103f54000450a100240888000002eb000408880033
:103f64007438210014088800e4b220001442780058
:103f7400674262000482fb00670262004c22dd009b
:103f840026058000f5ff2800850263000482720084
:103f9400240588008460a9009460a80005e1a800b5
:103fa4000002eb00343188007527a9009bc0a900ea
:103fb4008bc0a900140680000480a0000490a10016
:103fc40004a0a100140688000100370000000000ce
:103fd4000080fa00000006000400fa00000f7800d8
:103fe400110798001e029000e30f520002003600f1
:103ff40034002000140798001e0190009e007800f1
:10400400a0c0b30059f7070000027800040078004c
:104014000080fa00000006000200fa00000f780099
:10402400120020009e00780090c0b3004ff70700f4
:1040340000027800040078000080fa000000060006
:104044000200fa00000f7800120020009e007800a1
:1040540020c0b30045f70700000278000400780090
:104064000080fa00000006000200fa00004f780009
:10407400120020008e00780020c0b30064f707000f
:1040840000027800040078000080fa0000000600b6
:104094000200fa00000f7800120020009e00780051
:1040a4000040eb0031f707000002780004007800bc
:1040b4000080fa00000006000200fa00004f7800b9
:1040c400120020008e0078000040eb0050f707003b
:1040d40000027800040078000080fa000000060066
:1040e4000200fa00000f7800120020009e00780001
:1040f40010c0b3001df70700000278000400780028
:104104000080fa00000006000200fa00004f780068
:10411400120020008e00780010c0b3003cf70700a6
:1041240000027800040078000080fa000000060015
:104134002200fa009e0007002000200054ff070020
:10414400910107008000eb0050002000e50007000b
:10415400803e2000010020005ff907000041eb00d1
:1041640011c0b30060c0b30011fa07000002780068
:10417400e00f5200030032001100200080d128001b
:1041840083000700010320006000200019fd0700e0
:104194000002eb00040f780037000700d000200075
:1041a400010020004cf90700760247000400780063
:1041b40040f7070000027800040f78001e02780020
:1041c400e00f5200030032001100200080d12800cb
:1041d4006f0007002bf907000002be0014079800c7
:1041e40025079800c4578000d5578000610242001b
:1041f400e0824a00c4578800d5578800c45780001d
:10420400d557800034079800450798003e0a90006f
:10421400ce0a90000400be003ef207000002be0079
:1042240054079800650798005e0a9000ee0a900013
:104234000400be0037f207000002be0074079800b5
:10424400050f98007e0a90008e1290000400be00b4
:1042540030f207000002be00140f9800250f9800ea
:104264000e82e8004101200004007800df0007000e
:104274000f000700c9ff37000000fa00f45980005e
:10428400e00f520001003a00c542a8000080fa0085
:10429400000006000000fa00f4598000e00f52000c
:1042a40001003a00c542a9000080fa00000006009f
:1042b4000000fa00f4598000e00f52000d003a00ab
:1042c400241680004a22de00614262000404a20037
:1042d400614262000482fb00610262004a22dd0046
:1042e40026168000f5bf2f00850263000482720049
:1042f400241688000080fa00000006000400fa007a
:10430400000f780011079800f4598000e00f520064
:104314000100320012000700d4598000e00f52005f
:1043240001003a0018010700daff07000002eb0061
:10433400045a88001e027800044088001e0290007f
:104344001440880024002000f459880042372200d9
:104354006000b80021f907000080fa0000000600a0
:104364000000fa00f4598000e00f5200040032000b
:1043740055f907000002eb00f459880002003700e9
:10438400c4ff0700000000000080fa0000000600df
:104394000400fa00000f780011079800f0ff0700ee
:1043a4009e0090001e00780023fd0700ffff3700e9
:1043b4000000fa00253a800004fe2f000482620007
:1043c4000400a000243a8800353a800004e02f005d
:1043d400848262006402200004827200343a8800fd
:1043e400243a80000460a1000470a100243a8800eb
:1043f4003600200084072000a5092000377420001f
:10440400844b7800854b7800864b7800160020009a
:10441400640420007505200027742000844b780074
:10442400854b7800864b780000000000153a800028
:10443400040027008482620004002300848f520059
:10444400faff3a0000000000153a80000402200040
:1044540004826200e00f5200fbff32000002eb0016
:1044640004198800e4ff2f00843b88000082eb00dd
:10447400943b88000082eb00a43b88000002eb0020
:10448400040488000002eb00140488000002eb001e
:10449400a40488000002eb00b40488000002eb00ce
:1044a400c40488000002eb00d40488000002eb007e
:1044b400e40488000002eb00240488000002eb00fe
:1044c400340488000002eb00440488000002eb007e
:1044d400540488000002eb00640488000080fa00a1
:1044e400000006000400fa00000f7800110798008d
:1044f400e4588000e00f520039003a001400200014
:10450400e45888001e027800e00f520002003a00ce
:1045140014002000040f78001e027800e70f5200f8
:104524000200360074002000040f78001e02780098
:1045340004427800044078001aebb700cea2a80029
:10454400cec2a8000002eb003410880070e7a90076
:104554000002eb00441088000002eb0064108800a5
:104564000002eb00541088001e029000e00f52007d
:1045740003003a00b4182000241088000200370019
:10458400f4052000241088009620a9008620a900a4
:104594009600a9008600a900a4b120001442780066
:1045a400674262000482fb00670262004422dd006d
:1045b40066058000f5f82f0085026300048272000e
:1045c40064058800640580000400a1000410a100b3
:1045d4000420a1006405880007e2a8000100370058
:1045e400000000000080fa00000006000400fa0049
:1045f400000f78001107980000000000245a800082
:10460400e00f5200fdff32009e0090001e00780073
:10461400020007000080fa00000006000600fa000d
:104624001007980021079800245a8000e00f5200d8
:10463400290032000002eb00245a8800ae029000e8
:1046440004102000848f5200020036000410200061
:10465400240798002e029000345a88000002eb00d0
:10466400445a88002e029000e00f52000e003200df
:104674000002eb00040f7800070037001e029000d0
:104684001e02420014427800059020009e824200df
:10469400844a78001e0fe8002e0290009e027800e3
:1046a400848f5200f5ff3900a4d128001442780009
:1046b4000482fb002411880000000000a4d128001b
:1046c400144278000482fb00241188009580a8001d
:1046d4000000000001003700000000000080fa0024
:1046e400000006000000fa00f4598000e00f5200b8
:1046f40022003200055a8000f4598000848f520051
:1047040003003900c542a9000002eb00045a8800e6
:10471400241680004a22de00614262000404a200e2
:10472400614262000482fb00610262004a22dd00f1
:1047340026168000f5bf2f008502630004827200f4
:1047440024168800045a8000840242000480200059
:10475400048242001402780005002000423722003f
:104764000400be001df80700045a80000402e8009b
:10477400045a880000000000010037000000000017
:104784000080fa00000006000000fa00d4598000fe
:10479400e00f520007003a0014002000d4598800aa
:1047a400b3fd0700c142a900c542a90000000000f2
:1047b40001003700000000000080fa00000006003d
:1047c4000000fa00a4b120001442780004407800ec
:0847d4000080fa00000006005d
:00000001FF
