:020000040000fa
:080000000002040000000000f2
:020000040000fa
:10040000afaf20000e7f22000e0188000000000028
:1004100000012000200288000c000700e0f7200007
:100420000100200011000700000020000000e00093
:100430000200320000000200000000007013020001
:10044000000000000040da000000fe004440a90067
:10045000a00020000000e0000300320000002000a7
:10046000a00188004440a800000006009101880017
:10047000800078000000eb0015003700e2804000ab
:1004800032a0b4009101ba00e280400032a0b40072
:100490009102ba00e280400032a0b4000002eb00fa
:1004a000472bde00f507b200602ce10004003a00a3
:1004b0000059eb008301e900fdff3e000400370016
:1004c0006128e100010032000082eb000400070017
:1004d0001101ba000200e000e8ff3a000000060047
:1004e0003159ba008301e9000c0032002159ba00e9
:1004f0008301e900080032000400e00003003a0034
:10050000e280400032a0b400f5ff370011d9ba00f4
:100510008301e900faff3a008100e800e180400031
:1005200032a0b40000000600ea130400000000003e
:10053000809fbe00849fbe00869fbe000400fa001c
:1005400021e3a900041880006123b80054568000fc
:10055000655680000602420087824a005456880091
:1005600065568800745680000402e80074568800be
:1005700075568000f4072000848f52003100360049
:1005800054568000655680000404b0000580b00019
:10059000492bdd004722de0004027300c72ade007b
:1005a000048fbe003456800045568000e00f520094
:1005b000e08f5a0004003a001e02be003456880044
:1005c0004556880015003700345680004556800097
:1005d0006f2bb900060378006020b9008003780013
:1005e0000703430084027800f4002000042ab800c6
:1005f00005034300860278003e034200ae834a00b2
:100600000602be00cc2bdd004422de000482730013
:10061000c42ade00345688004556880004042000b1
:10062000745688005456800065568000610242006e
:10063000e0824a008502d1000482d300545688002b
:100640006556880085a0a90021e3a8000080fa0073
:100650004f03be004f02be004f00be000040060028
:10066000849fbe00869fbe000000fa008460a9003f
:10067000f45680000557800061024200e0824a0083
:10068000f456880005578800f6568000075780000a
:100690001457800025578000840f5300858f5b001e
:1006a000080036000082eb008082eb0014578800bf
:1006b0002557880034578000e00f520001003200b7
:1006c0008bc0a8000080fa004f03be004f02be009e
:1006d000004006003600f800809fbe00829fbe00ea
:1006e000849fbe00869fbe000200fa008bc0a90056
:1006f00034578000040f78001e027800e00f52008b
:10070000020032001e027800040001000080fa009e
:100710004f03be004f02be004f01be004f00be009f
:100720003600f90000400600849fbe000000fa0079
:10073000a4578000e00f5200160032000c00370072
:10074000b5578000049020000482420014427800d3
:100750000482fb0024118800b45780000402e800e2
:10076000b4578800a45780000402e900a457880009
:10077000a4578000e00f52001200320015118000d3
:100780000420200004826200e00f5200ecff3200df
:100790000c003700d4a12800144278000482fb002a
:1007a0002411880000000000d4a128001442780021
:1007b0000482fb00241188009580a9001400200009
:1007c000945788008580a9000080fa004f02be007f
:1007d000004006000040da000000fe00f4ff2f0099
:1007e0007f0237000001be001b0007000470a70055
:1007f00003f0a10003f8a30013003a006509b1005b
:1008000010003200090035006928e10002003500bf
:100810000100280000000500000040008180480021
:100820008502e900fcff3a0000000600f88f420054
:10083000050035008100d1000080d3008502e8006a
:10084000fcff3a00000006008000eb0000000500fd
:100850006011b8007d023700c70ade00f107b20060
:10086000f50fb20008003200e1cf42000200320072
:100870000170a00024000500810f7000010032000b
:100880000408050044000500810f700002003a00d2
:10089000140005008502e9000000400081c0480006
:1008a000fcff3b000170a0002400050003836800ea
:1008b0000700280007036300470ade000480a10048
:1008c000c71ade000580a100f70f20000720e10015
:1008d000420032000728e10040003200889fbe003d
:1008e0008a9fbe008c1f7800f107b200f307b200a8
:1008f0000400e000640032000170a0000500e00088
:10090000680032000370a00085054200eb07b100cb
:100910000204b8000302b8008484440060854a00e1
:10092000020ab800848444000a854a00030ab80019
:1009300004054500040033000804d0008984d20077
:100940000a85d2008b05e9006158e1003d003500c1
:100950000210200009016100030820008981610064
:10096000f70720008783640008867300c84cde0008
:10097000c853dd00878474004855de000300e000a2
:100980000600320082037600040032008904e80089
:1009900060054d000a88a3000c003a00f70f200004
:1009a0000758e10044003d000a70a100c75ddd006a
:1009b0000a8575008a007300090078004f067800e8
:1009c0004f05be004f04be00000006000a05d1001e
:1009d0008984d3008b05e800f0ff3700881f78007a
:1009e0000604780076020700070278000001fd0087
:1009f0008101fd0072020700870278008503720002
:100a00000778a300050032000001fd008101fd0010
:100a10003a0107004f0478000000060085037200c9
:100a20000748a30003003200f0ff2f00f1ff27006a
:100a3000f8ff37000000200001f8270088807000d0
:100a4000f4ff3700880178004848dd00808171009c
:100a50004848de00c850dd0001007000c850de00cc
:100a6000060478000b0178006001070088807000a0
:100a7000d2ff37000500e00005003200170020001b
:100a8000100007009dff370081037000f9ff3a0056
:100a9000860078004f0678004f05be004f04be0068
:100aa0000000050083037100f9ff320027002000d9
:100ab0000400070094ff370001f8270086807000cb
:100ac000f4ff3700889fbe000004eb006138e100ae
:100ad00016003a000100e00008003a00c800de00fd
:100ae0004800dd00880020000100e00003003a001b
:100af000c800de004800dd00680444008184cf00a7
:100b0000e9845400060034008908dd00f0831400f5
:100b10008703de00878070000900dd0009044400bf
:100b2000610214004f04be00000006000300e00054
:100b300008003a00c811de004811dd0088002000de
:100b40000300e00003003a00c811de004811dd0098
:100b5000680444008384cf00e98454000600340014
:100b60008919dd00f08314008713de00878171008e
:100b70000911dd0009044400e1021400e9ff370017
:100b8000889fbe008a9fbe008c9fbe001b00200075
:100b90000202be0005866800060028000606660000
:100ba0004709de00f20fb200820032000243e80083
:100bb00080003200c729de00f30fb2007d00320052
:100bc0000343e8007b003200f107b2000170a0008f
:100bd000f507b2000570a000c708dd004903de007c
:100be000868070004700dd00c72add004923de0053
:100bf000868272004722dd00030551000403500085
:100c000085835800030031000000400081804800c7
:100c10000a05e9008c1f78008a9fbe00040050007e
:100c2000858058000402420085824a00000040008e
:100c3000818048000005eb000004be006033b8006e
:100c40000406be000d48e100560031001100090005
:100c50004dccd8000c01b8000d02b80084814100d1
:100c600060824a008283530003045c0084845c0039
:100c700060055d000a00e00025003a00800578006c
:100c80000d40e1004900310088007800070078003d
:100c9000110009004d88d8000c01b8000d02b80001
:100ca0008481410060824a006003110083835b00fd
:100cb00004045c00e0845c000900e00021003a00cc
:100cc0004f01be000300e0002b003200e301600092
:100cd000070673008c81710001003200640070000f
:100ce0004200de004e5edd000c007000c258de00e7
:100cf00001e0a000e7000700cf01780081807100cb
:100d00004f06be004f05be004f04be0000000600a7
:100d10008c8343000d044c00e0844c0060054d00c2
:100d20000000e9000a00e000d4ff32008c83430099
:100d30000d044c00e0844c0060054d000000e9000b
:100d4000ceff37000c0343008d834b0060044c0042
:100d5000e0844c000000e9000900e000d8ff320008
:100d60000c0343008d834b0060044c00e0844c0076
:100d70000000e900d2ff37004200de004e5edd00d9
:100d80000c007000c258de0001e0a000cf01780026
:100d90000300e000daff320060001000e08018007d
:100da000d7ff3700f0ff2f00aaff3700f0ff2f001a
:100db000b9ff37000404be008101070087067800f0
:100dc0000004fd008104fd007d010700078366002b
:100dd0000678a300030032000960a7000800be00e7
:100de0002c0037000d78a300020032000800be007e
:100df000280037000778a30026003a0001f0a10080
:100e000009f0a1000668a30003003200f1ff2700eb
:100e1000f0ff2f00baff37000d68a3000300320077
:100e20000800be008c807000b5ff37000768a30083
:100e300007003a000648a30003003200f1ff270034
:100e4000f0ff2f00aeff37000d48a3000300320073
:100e50006000b8008c807000a9ff37000748a3002d
:100e60000400320001f82700000020008c80700090
:100e7000a3ff37002a0007000004fd008104fd00e5
:100e800002057800260007000802be008a017800eb
:100e900059ff37000160a00012022000c2578800ed
:100ea00097ff37000100e000120032000500e0006b
:100eb00010003200889fbe008a9fbe008c9fbe003b
:100ec0000006eb0001f8a3000300320060001000f0
:100ed000e08018000cf0a00005f8a3000300320029
:100ee00060021200e0821a000cf0a2008005eb0004
:100ef00041ff37006000b800020005000478a3003d
:100f0000040032000578a300030032000168a3004a
:100f100001003a000200be000160a00000000600cf
:100f20004f0ade004709de00f107b200f20fb200ff
:100f30000b003200f207b1000170a000c708dd000d
:100f4000c901de00838070004700dd000400a600b8
:100f50000000060060001000e0801800000006009d
:100f6000810f700001003a00000006008182cf006e
:100f70000500e00010003e008082cf00ee824200bb
:100f80007028e1000400390007003e00800078006e
:100f90000000eb000e003700708312008600de00b8
:100fa0000500dd000a003700708352008600dd0076
:100fb0000000eb0006003700e28252008508dd00e9
:100fc000708312000603de00868070000500dd00dd
:100fd0007507b0000501ea000400a6000000060045
:100fe00060001000e0801800000006000100e00032
:100ff00026003200610111007810e10023003c005e
:101000006022b8007010e100040035008002780012
:10101000010078008000eb00700151000200e00048
:101020000900340070031100062add00822ade0068
:101030008603dd00878272000200de00860bdd0081
:10104000070070008208de0084817100f4ff270031
:10105000048262008481710004002800848262009e
:101060006102600005f0a600000006000482710025
:10107000070032000000e800e080480000000600a1
:101080000002be006000b800efff37006000b8004b
:101090000000060081017000270032008002eb0092
:1010a00001f8a3000300320060001000e080180087
:1010b00015002000f4072000020242002000340046
:1010c000f70320008703600006042000000363008c
:1010d00002082000000161004700de00c909dd00b0
:1010e00000807100c708de000600e0000800320042
:1010f00087037100060032001000b0000180b000cc
:101100000188a30002003200c108de000402e800ea
:10111000f107b200f30f20000320e10003003d00bf
:101120004722dd00810072002900370001f8270006
:101130000000eb00260037006000b8000000060049
:10114000680212007f20e100020034006000b80055
:101150001f0037006011b8007020e1000400350066
:1011600080017800010078008000eb0070025200de
:101170000400e00009003400f00312000719dd004c
:101180008419de000703dd00868171000400de00a3
:10119000070bdd00060070008408de00f7ff270063
:1011a0008383630087037100060028000303630044
:1011b000070032000700e00003003a006101600010
:1011c00002817300020032001000b0000180b00004
:1011d0000500a6000000060001f0a00000000600c7
:1011e000889fbe008a9fbe00841f78006c000700a5
:1011f0004f00780011003300f0ff2f00838f6c0048
:1012000006003b00040565000a00a700080037003f
:1012100009f0a6001000200008003700820f5400db
:10122000838f5c00030039001000200001003e00a5
:101230000000200009f0a7000000ea004f05be00f2
:101240004f04be000000e00000000600889fbe00c2
:101250008a9fbe0000827000040271000482710047
:10126000260032000004be000200be006011b8007b
:101270006b092000950220000182cf000a0039008e
:101280000541b1000082cf00070039000541b100df
:101290000982cf00040039000541b1000882cf0067
:1012a000010039000541b100054252001200320030
:1012b0000a003b0082817100610164008100d1005d
:1012c0000080d3008984d3000884d3008b05e80014
:1012d0000442e800f7ff3a00070037000804440022
:1012e00089844c0000004800818048008b05e9009b
:1012f0000442e900f9ff3a00030007004f05be0071
:101300004f04be00000006008100200061805500ef
:101310000b003d000b00200061fe2f000100e100ea
:101320001d00340082817100610164008904d100d4
:101330000884d3000000e800faff3a0071002000a2
:1013400061006400030070000200600009003200c8
:1013500061044400e0844c000988a50005003200c7
:101360008b05e8006808e10002003a008904d1001a
:101370000884d300f20f20000258e10005003d0070
:10138000c75ddd00f907b2008980750008007800ac
:10139000000006000bf827008b0078000000050015
:1013a0000004be002cfd07000003be000405be00c3
:1013b0000200be0028fd0700844f750000000600f3
:1013c0002700200001f0a70017002000470bde00d7
:1013d000f60fb200040032000643e8000a003200b3
:1013e0004702b3000000060001037800f607b200d0
:1013f0000603700002003a000703b3000000060075
:101400008702b3000000060001037800f607b2006f
:1014100006037000020032000770a0000000060002
:081420000760a00000000600b7
:020000040000fa
:0200000401f009
:04000c0078ff000079
:020000040000fa
:0200000401f009
:040010005eff00008f
:020000040000fa
:0200000401f009
:040014007fff00006a
:020000040000fa
:0200000401f009
:04001800eeff0000f7
:020000040000fa
:0200000401f009
:04001c00dfff000002
:020000040000fa
:10000800ea030000ea030000ea030000ea03000034
:10001800ea030000ea030000ea030000ea03000024
:10002800ea030000ea030000ea03000030030000ce
:10003800ea030000ea030000ea030000ea03000004
:10004800ea030000ea030000ea030000ea030000f4
:100058009403000098020000ea030000ea0300008d
:10006800ea030000ea030000ea030000ea030000d4
:10007800ea030000ea030000ea030000ea030000c4
:10008800ea030000ea030000ea030000ea030000b4
:10009800ea030000ea030000ea030000ea030000a4
:1000a800ea030000ea030000ea030000ea03000094
:1000b800ea030000ea030000ea030000ea03000084
:1000c800ea030000ea030000ea030000ea03000074
:1000d800ea030000ea030000ea030000ea03000064
:1000e800ea030000ea030000ea030000ea03000054
:1000f800ea030000ea030000ea030000ea03000044
:10010800ea030000ea030000ea030000ea03000033
:10011800ea030000ea0300006a030000ea030000a3
:10012800ea030000ea030000ea030000ea03000013
:10013800ea030000ea030000ea030000ea03000003
:10014800ea030000ea030000ea030000ea030000f3
:10015800ea030000ea030000ea030000ea030000e3
:10016800ea030000ea030000ea030000ea030000d3
:10017800ea030000ea030000ea030000ea030000c3
:10018800ea030000ea030000ea030000ea030000b3
:10019800ea030000ea030000ea030000ea030000a3
:1001a800ea030000ea030000ea030000ea03000093
:1001b800ea030000ea030000ea030000ea03000083
:1001c800ea030000ea030000ea030000ea03000073
:1001d800ea030000ea030000ea030000ea03000063
:1001e800ea030000ea030000ea030000ea03000053
:0801f800ea030000ea03000025
:020000040000fa
:10020800ea030000ea030000ea030000ea03000032
:10021800ea030000ea030000ea030000ea03000022
:10022800ea030000ea030000ea03000030030000cc
:10023800ea030000ea030000ea030000ea03000002
:10024800ea030000ea030000ea030000ea030000f2
:100258009403000098020000ea030000ea0300008b
:10026800ea030000ea030000ea030000ea030000d2
:10027800ea030000ea030000ea030000ea030000c2
:10028800ea030000ea030000ea030000ea030000b2
:10029800ea030000ea030000ea030000ea030000a2
:1002a800ea030000ea030000ea030000ea03000092
:1002b800ea030000ea030000ea030000ea03000082
:1002c800ea030000ea030000ea030000ea03000072
:1002d800ea030000ea030000ea030000ea03000062
:1002e800ea030000ea030000ea030000ea03000052
:1002f800ea030000ea030000ea030000ea03000042
:10030800ea030000ea030000ea030000ea03000031
:10031800ea030000ea0300006a030000ea030000a1
:10032800ea030000ea030000ea030000ea03000011
:10033800ea030000ea030000ea030000ea03000001
:10034800ea030000ea030000ea030000ea030000f1
:10035800ea030000ea030000ea030000ea030000e1
:10036800ea030000ea030000ea030000ea030000d1
:10037800ea030000ea030000ea030000ea030000c1
:10038800ea030000ea030000ea030000ea030000b1
:10039800ea030000ea030000ea030000ea030000a1
:1003a800ea030000ea030000ea030000ea03000091
:1003b800ea030000ea030000ea030000ea03000081
:1003c800ea030000ea030000ea030000ea03000071
:1003d800ea030000ea030000ea030000ea03000061
:1003e800ea030000ea030000ea030000ea03000051
:0803f800ea030000ea03000023
:020000040000fa
:1014280039030000040100000cc900007d3b0000e6
:0414380055aa0000b1
:020000040000fa
:10143c000a00fa00140280004522de0067426200b6
:10144c00044f78009402800014079800ff3ffc00c2
:10145c00c4ad200014427800674262000482fb0095
:10146c00670262004522dd0016028000f5f12f00b4
:10147c008502630004827200140288001e02900030
:10148c009402880000008800f45680000557800004
:10149c0024079800350798009502800045079800ae
:1014ac00ff3ffc001e427800674262000482fb0092
:1014bc00670262004522dd0016028000f5f12f0064
:1014cc008502630004827200140288004e029000b0
:1014dc0094028800000088002e029000be0290004a
:1014ec000400be000080fa00000006000400fa00b0
:1014fc00a4088000040f7800b4088000140798003a
:10150c001e02be000400be000080fa0000000600af
:10151c000000fa00c6ff07000002be006402420091
:10152c00e0824a004d2bdd004322de0004027300f2
:10153c00c32ade000400be000080fa000000060092
:10154c000400fa00008fbe001e00be000e00070053
:10155c000002be000400be00300007000080fa004c
:10156c00000006000400fa00008fbe001e00be0042
:10157c00130007000002be000400be002700070095
:10158c000080fa00000006000400fa00008fbe0084
:10159c00a7ff07000003be001e00be00430add00cb
:1015ac00cd02de00850272004302dd00060242001d
:1015bc0087824a000400be000080fa00000006008a
:1015cc000400fa00008fbe0099ff07000002be0065
:1015dc003e034200ae834a000602be000400be0079
:1015ec000080fa00000006000400fa00008fbe0024
:1015fc008fff07000002be00be0f5200ae8f5a00d4
:10160c000200310014002000010037000002eb0042
:10161c00040078000080fa00000006000400fa00c4
:10162c00008fbe000000000081ff07000002be001a
:10163c00be0f5200ae8f5a00fbff39000080fa003b
:10164c00000006000c00fa003007980041079800d3
:10165c0052079800140280004522de0067426200a7
:10166c00044f78009402800014079800ff3ffc00a0
:10167c00c4ad200014427800674262000482fb0073
:10168c00670262004522dd0016028000f5f12f0092
:10169c008502630004827200140288001e0290000e
:1016ac0094028800000088008bc0a9009bc0a80091
:1016bc005e029000345788003e029000ce029000eb
:1016cc00432bdd00cd23de00870373004323dd00b5
:1016dc00f4568000055780000602420087824a00bb
:1016ec00145788002557880094028000240798001e
:1016fc00ff3ffc001e427800674262000482fb0040
:10170c00670262004522dd0016028000f5f12f0011
:10171c008502630004827200140288002e0290007d
:10172c0094028800000088000080fa000000060087
:10173c000600fa00140280004522de0067426200b7
:10174c00044f78009402800014079800ff3ffc00bf
:10175c00c4ad200014427800674262000482fb0092
:10176c00670262004522dd0016028000f5f12f00b1
:10177c008502630004827200140288001e0290002d
:10178c0094028800000088009bc0a9008bc0a900af
:10179c000082eb008082eb001457880025578800ec
:1017ac000002eb0034578800940280002407980054
:1017bc00ff3ffc001e427800674262000482fb007f
:1017cc00670262004522dd0016028000f5f12f0051
:1017dc008502630004827200140288002e029000bd
:1017ec0094028800000088000080fa0000000600c7
:1017fc000000fa002cc3a8002ce3a800d022a900fa
:10180c0085368000f40f2e008482620004302000a4
:10181c000482720084368800d002a800253580002e
:10182c00f40f2e00848262000400210004827200f6
:10183c002435880024358000f401b3002435880059
:10184c000080fa00000006000400fa00000f780087
:10185c00110798001e027800e00f520002003a00b7
:10186c0014002000040f78001e027800e70f5200cd
:10187c000200360074002000040f78001e0278006d
:10188c000442780004407800f0eab7000002eb0054
:10189c000411880070a7a900d5ff0700041180006f
:1018ac000480a1000490a000041188000002eb0049
:1018bc001411880023e2a80023a2a9001e029000a4
:1018cc00f80f520041003200f80f520010003e0099
:1018dc00e40f520049003200e40f520005003e00b4
:1018ec00e20f52004b003200e30f52004600320070
:1018fc004b003700e80f52003a003200f00f520054
:10190c0035003200e60f5200390032004400370037
:10191c00a50f2000850f520020003200a50f2000db
:10192c00850f52000a003e0045062000850f52002c
:10193c0020003200850c2000850f52001a00320066
:10194c0005032000850f52001d00320034003700c3
:10195c00451f2000850f52000a003200853e2000f2
:10196c00850f520004003200e5152000850f52004f
:10197c00070032002a0037000002eb0044118800f7
:10198c002a0037001400200044118800270037007b
:10199c00240020004411880024003700340020006b
:1019ac0044118800210037004400200044118800b5
:1019bc001e00370094002000441188001b003700e3
:1019cc00540120004411880018003700a4022000a4
:1019dc0044118800150037000404200044118800cd
:1019ec001200370014082000441188000f00370043
:1019fc00d40a2000441188000c0037003410200059
:101a0c004411880009003700a415200044118800f7
:101a1c0006003700842020004411880003003700a2
:101a2c001441200044118800000000009580a9009a
:101a3c009560a9008580a9008560a90004af2000ed
:101a4c0014427800674262000482fb006702620065
:101a5c005605800085ff2f0085026300048272000a
:101a6c00540588004405800004c0a10004d0a100e6
:101a7c0004e0a1004405880021e2a8000000000059
:101a8c002342a8000080fa00000006000e00fa00b5
:101a9c00500798006107980064578000e00f5200cf
:101aac00010032006c02070044578000e00f520026
:101abc0001003a006d030700340207006e0290002b
:101acc00e00f5200800032000002eb00040f78009f
:101adc000002eb00140798000002eb0024079800aa
:101aec000002eb00040f7800630037001e02780040
:101afc00de02900004824200144278000402fb00d3
:101b0c00140798009e02900004022000848f52005b
:101b1c000b003a002e029000e00f520050003400ef
:101b2c002e0290000402e90084024200048020008e
:101b3c000482420005382000050a78004d00370069
:101b4c001e0290001404b100140798001e029000ad
:101b5c00f90f5200030034001e0290000402b10081
:101b6c00140798001e029000e00f52003e00350052
:101b7c001e029000f90f52003d003c001e02900026
:101b8c008402420004a920000482420094027800de
:101b9c00450798004e02900014027800040242009f
:101bac00840278002e0290008482420004082000f7
:101bbc00848f520035003e000002eb003407980081
:101bcc001a003700ce0290003e0290000482e8001a
:101bdc0065427a000482fb00c722dd002e029000d1
:101bec00040342000480200004024300050a78002c
:101bfc002e0290000402e800240798002e029000a8
:101c0c008402420004802000048242000508200067
:101c1c00050a78002e0290000402e80024079800c0
:101c2c003e0290000402e80034079800be029000c7
:101c3c004e02900014027800848f5200e1ff3900ac
:101c4c002e0290000402e90084024200048020006d
:101c5c000482420005182000050a780005003700b0
:101c6c0000000000030037000000000001003700f6
:101c7c00000000001e0fe8009e0278006e0290002b
:101c8c00848f520099ff39000100370000000000da
:101c9c002e0290000402e90084024200048020001d
:101cac000482420005382000050a78002e029000bc
:101cbc0064578800a23e21006000b80061fe070056
:101ccc000000000001003700000000000080fa0056
:101cdc00000006000200fa00000f78001e027800d7
:101cec00e00f520002003a0014002000040f7800ac
:101cfc001e027800e70f520002003600740020002c
:101d0c00040f78001e007800205688000002eb00bb
:101d1c000419880021a3a8002143a80004198000fd
:101d2c000450a0000460a0000470a00004198800f6
:101d3c002043a8000002eb00141988000002eb00fd
:101d4c002419880025e3a90025198000f40f2e0022
:101d5c00848262000490210004827200241988009d
:101d6c0034c6b3000440780024e3b7000002eb0053
:101d7c00941988000002eb00341988000002eb0073
:101d8c00441988004519800004fe2f00048262006b
:101d9c00b400b300441988002d63a900c9a2a8009f
:101dac002c03a8002c23a8002c43a8002c63a8000b
:101dbc002c83a8002ca3a8002cc3a8002ce3a800fb
:101dcc002d03a8002d23a8002d43a8002d83a800c7
:101ddc000002eb008419880085a0a90095a0a90039
:101dec002456800004427800674262000482fb00a3
:101dfc00670262004422dd0056058000f5f82f00d2
:101e0c0085026300048272005405880021e3a80057
:101e1c0095a0a800000000003456800045568000b4
:101e2c00e00f5200e08f5a00fbff32003656800064
:101e3c0047568000048e200005002000840f5300bc
:101e4c00858f5b0003003600340020008456880028
:101e5c000c0037003656800047568000045c20008a
:101e6c0005002000840f5300858f5b0003003600b3
:101e7c002400200084568800020037001400200043
:101e8c0084568800a55084008456800004aab900aa
:101e9c000402780094568800b55084008456800063
:101eac0004aab90004027800a45688009556800054
:101ebc00a456800004824200050020000400be00ed
:101ecc0060fa07000003be00c4508400d5508400a3
:101edc000401be000600be0071fa07000002be003d
:101eec00b4568800c55688000080fa000000060031
:020000040000fa
:101efc00c40a0000160000000200000004000000ec
:101f0c0000000000000000000000000000000000c5
:101f1c00000000000000000000000000e80a0000c3
:101f2c00080000000200000000000100000000009a
:101f3c00000000000008000000010000000000008c
:101f4c00000a0000c40000000200000002000100b2
:101f5c00030400000301010001040000030103005d
:101f6c000103000003010100000100000100040056
:101f7c000001010003010300000303000100040041
:101f8c000001010001010200000101000400010038
:101f9c00030303000300030001030000040001001d
:101fac00030101000200030003020000030103000f
:101fbc0000030300030004000001030003010400fc
:101fcc0000030300010303000001030001000300f0
:101fdc0000010100010001000003000003000100ea
:101fec0001030000040001000101030003000100d3
:101ffc0003030000040003000101030004000300bc
:10200c00010303000400030003010100000a0400a3
:10201c000a0a0a00100a16000a1a0a00200a2600e8
:10202c000a2c0a00300a36000a3c0a00420a460012
:10203c000a4a0a00500a56000a5c0a00620a680042
:10204c000a6c0a00720a78000a7e0a00840a8a0066
:10205c000a000000da0a00000e0000000200000076
:10206c0000000200000000000000ff00ffffff0066
:10207c0000000000f00a0000080000000200000050
:10208c000400010000000000000000000009000036
:10209c000001000000000000f80a0000020000002f
:0820ac0000000000000000002c
:020000040000fa
:1020b4000000fa00c4ad2000144278000482fb0042
:1020c40004007800020007000080fa000000060007
:1020d4000200fa00000f7800d4568000e00f52008e
:1020e4004a003a0014002000d45688001e027800ea
:1020f400e00f520002003a0014002000040f7800a0
:102104001e027800e70f520002003600740020001f
:10211400040f78001e02780004427800044078001e
:10212400dceab7000002eb00f40888000002eb00d0
:102134000409880071c7a90071e7a9000002eb0037
:10214400a40888000002eb00c40888000082eb00a9
:10215400d40888000082eb00e40888001e61a8000f
:10216400f40880000440a0000450a100f408880092
:102174008780a9009780a9001fe1a8000002eb0056
:10218400240888007167a900240880000440a10085
:102194000450a100240888000002eb000408880011
:1021a4007438210014088800c4ad2000144278005b
:1021b400674262000482fb00670262004c22dd0079
:1021c40026058000f5ff2800850263000482720062
:1021d400240588008460a9009460a80005e1a80093
:1021e4000002eb00343188007527a9009bc0a900c8
:1021f4008bc0a900140680000480a0000490a100f4
:1022040004a0a100140688000100370000000000ab
:102214000080fa00000006000000fa003456800036
:102224004556800004027800040078000080fa001b
:10223400000006000000fa008456800004007800c4
:102244000080fa00000006000400fa00889fbe0027
:1022540084568000e10f520003003a00040020007d
:10226400852c24002b003700945680006123b8008d
:102274003456800045568000840f5300858f5b00e0
:10228400020036006022b800220037003656800073
:102294004756800094568000050020000402530035
:1022a40085825b000400be0068f907000004be00dc
:1022b400a4568000050020000400be0063f9070056
:1022c4000002be000401be000800be002bfa070095
:1022d4000002be00048fbe0018c0b300020020003c
:1022e40003f823001e00be003bf90700000278003b
:1022f400e00f520001003c000044eb00e04f5400aa
:10230400030032000400200005f82300048fbe00ff
:102314001e02be000400be004f04be000080fa008e
:10232400000006000000fa00345680004556800084
:102334000400be0045f907000003be00c450840039
:10234400d55084000401be000600be0056f9070003
:102354000002be000400be000080fa000000060077
:102364000000fa00b4568000c55680000400be0088
:102374000080fa00000006000000fa0064578000a4
:10238400e00f520001003a00c542a8000080fa00a4
:10239400000006000000fa0064578000e00f5200bd
:1023a40001003a00c542a9000080fa0000000600be
:1023b4000000fa0064578000e00f52000d003a005c
:1023c400241680004a22de00614262000404a20056
:1023d400614262000482fb00610262004a22dd0065
:1023e40026168000f5bf2f00850263000482720068
:1023f400241688000080fa00000006000400fa0099
:10240400000f78001107980064578000e00f520015
:10241400010032001200070044578000e00f520010
:1024240001003a0013010700daff07000002eb0085
:10243400745788001e027800044088001e02900031
:10244400144088002400200064578800a23e210024
:102454006000b8007dfc07000080fa000000060060
:102464000000fa0064578000e00f520004003200bc
:10247400b1fc07000002eb0064578800020037003b
:10248400c4ff0700000000000080fa0000000600fe
:102494000400fa00000f780011079800f0ff07000d
:1024a4009e0090001e0078007afd0700ffff3700b1
:1024b4000000fa00253a800004fe2f000482620026
:1024c4000400a000243a8800353a800004e02f007c
:1024d400848262006402200004827200343a88001c
:1024e400243a80000460a1000470a100243a88000a
:1024f4003600200084072000a5092000377420003e
:10250400844b7800854b7800864b780016002000b9
:10251400640420007505200027742000844b780093
:10252400854b7800864b780000000000153a800047
:10253400040027008482620004002300848f520078
:10254400faff3a0000000000153a8000040220005f
:1025540004826200e00f5200fbff32000002eb0035
:1025640004198800e4ff2f00843b88000082eb00fc
:10257400943b88000082eb00a43b88000002eb003f
:10258400040488000002eb00140488000002eb003d
:10259400a40488000002eb00b40488000002eb00ed
:1025a400c40488000002eb00d40488000002eb009d
:1025b400e40488000002eb00240488000002eb001d
:1025c400340488000002eb00440488000002eb009d
:1025d400540488000002eb00640488000080fa00c0
:1025e400000006000400fa00000f780011079800ac
:1025f4000000000094578000e00f5200fdff3200fd
:102604009e0090001e007800020007000080fa007f
:10261400000006000600fa00100798002107980041
:1026240094578000e00f5200290032000002eb00b2
:1026340094578800ae02900004102000848f52004a
:102644000200360004102000240798002e02900097
:10265400a45788000002eb00b45788002e029000b3
:10266400e00f52000e0032000002eb00040f78006d
:10267400070037001e0290001e0242001442780038
:10268400059020009e824200844a78001e0fe800d4
:102694002e0290009e027800848f5200f5ff3900cc
:1026a400c4a12800144278000482fb00241188008d
:1026b40000000000c4a12800144278000482fb003a
:1026c400241188009580a800000000000100370054
:1026d400000000000080fa00000006000c00fa0070
:1026e40073ff07002000200079fe07006100070047
:1026f4003000200079fd0700e11520006000200073
:1027040053fc07000002eb00040f78000002eb000a
:102714001407980018ff070026003700a0002000c7
:102724000100200088fb0700fefe07000002be0037
:102734002407980035079800b7fe070000027800c8
:1027440044079800c0fe07000002be000400be005b
:1027540023f807000002be00040278005407980022
:102764006402470081002000040078009dff0700f8
:102774001e0fe800340620009e027800848f520069
:10278400090034008000eb000000eb0095ff070017
:1027940007ff07000002eb00040f78001e02900000
:1027a4000402e80014079800a000200001002000a3
:1027b40065fb07001e029000e90f5200d7ff3400aa
:1027c40014002000040078000080fa0000000600d5
:1027d4000000fa0064578000e00f5200220032002b
:1027e4007557800064578000848f520003003900bd
:1027f400c542a9000002eb0074578800241680002b
:102804004a22de00614262000404a20061426200c6
:102814000482fb00610262004a22dd002616800069
:10282400f5bf2f008502630004827200241688001d
:102834007457800084024200048020000482420015
:102844001402780005002000a23e21000400be000e
:102854007efb0700745780000402e8007457880068
:102864000000000001003700000000000080fa00b2
:10287400000006000000fa0044578000e00f5200f8
:1028840007003a00140020004457880008fe07009f
:10289400c142a900c542a9000000000001003700a0
:0c28a400000000000080fa0000000600a8
:00000001FF
